{
  "address": "0xdAa17ECcBdA217DE434fefeB1c4f5a0596d3c39f",
  "abi": [
    {
      "inputs": [
        {
          "internalType": "address",
          "name": "childChainManager",
          "type": "address"
        },
        {
          "internalType": "address",
          "name": "_fxChild",
          "type": "address"
        }
      ],
      "stateMutability": "nonpayable",
      "type": "constructor"
    },
    {
      "anonymous": false,
      "inputs": [
        {
          "indexed": true,
          "internalType": "address",
          "name": "owner",
          "type": "address"
        },
        {
          "indexed": true,
          "internalType": "address",
          "name": "approved",
          "type": "address"
        },
        {
          "indexed": true,
          "internalType": "uint256",
          "name": "tokenId",
          "type": "uint256"
        }
      ],
      "name": "Approval",
      "type": "event"
    },
    {
      "anonymous": false,
      "inputs": [
        {
          "indexed": true,
          "internalType": "address",
          "name": "owner",
          "type": "address"
        },
        {
          "indexed": true,
          "internalType": "address",
          "name": "operator",
          "type": "address"
        },
        {
          "indexed": false,
          "internalType": "bool",
          "name": "approved",
          "type": "bool"
        }
      ],
      "name": "ApprovalForAll",
      "type": "event"
    },
    {
      "anonymous": false,
      "inputs": [
        {
          "indexed": false,
          "internalType": "bytes",
          "name": "message",
          "type": "bytes"
        }
      ],
      "name": "MessageSent",
      "type": "event"
    },
    {
      "anonymous": false,
      "inputs": [
        {
          "indexed": false,
          "internalType": "address",
          "name": "userAddress",
          "type": "address"
        },
        {
          "indexed": false,
          "internalType": "address payable",
          "name": "relayerAddress",
          "type": "address"
        },
        {
          "indexed": false,
          "internalType": "bytes",
          "name": "functionSignature",
          "type": "bytes"
        }
      ],
      "name": "MetaTransactionExecuted",
      "type": "event"
    },
    {
      "anonymous": false,
      "inputs": [
        {
          "indexed": true,
          "internalType": "address",
          "name": "previousOwner",
          "type": "address"
        },
        {
          "indexed": true,
          "internalType": "address",
          "name": "newOwner",
          "type": "address"
        }
      ],
      "name": "OwnershipTransferred",
      "type": "event"
    },
    {
      "anonymous": false,
      "inputs": [
        {
          "indexed": false,
          "internalType": "address",
          "name": "account",
          "type": "address"
        }
      ],
      "name": "Paused",
      "type": "event"
    },
    {
      "anonymous": false,
      "inputs": [
        {
          "indexed": true,
          "internalType": "bytes32",
          "name": "role",
          "type": "bytes32"
        },
        {
          "indexed": true,
          "internalType": "bytes32",
          "name": "previousAdminRole",
          "type": "bytes32"
        },
        {
          "indexed": true,
          "internalType": "bytes32",
          "name": "newAdminRole",
          "type": "bytes32"
        }
      ],
      "name": "RoleAdminChanged",
      "type": "event"
    },
    {
      "anonymous": false,
      "inputs": [
        {
          "indexed": true,
          "internalType": "bytes32",
          "name": "role",
          "type": "bytes32"
        },
        {
          "indexed": true,
          "internalType": "address",
          "name": "account",
          "type": "address"
        },
        {
          "indexed": true,
          "internalType": "address",
          "name": "sender",
          "type": "address"
        }
      ],
      "name": "RoleGranted",
      "type": "event"
    },
    {
      "anonymous": false,
      "inputs": [
        {
          "indexed": true,
          "internalType": "bytes32",
          "name": "role",
          "type": "bytes32"
        },
        {
          "indexed": true,
          "internalType": "address",
          "name": "account",
          "type": "address"
        },
        {
          "indexed": true,
          "internalType": "address",
          "name": "sender",
          "type": "address"
        }
      ],
      "name": "RoleRevoked",
      "type": "event"
    },
    {
      "anonymous": false,
      "inputs": [
        {
          "indexed": true,
          "internalType": "address",
          "name": "from",
          "type": "address"
        },
        {
          "indexed": true,
          "internalType": "address",
          "name": "to",
          "type": "address"
        },
        {
          "indexed": true,
          "internalType": "uint256",
          "name": "tokenId",
          "type": "uint256"
        }
      ],
      "name": "Transfer",
      "type": "event"
    },
    {
      "anonymous": false,
      "inputs": [
        {
          "indexed": true,
          "internalType": "address",
          "name": "from",
          "type": "address"
        },
        {
          "indexed": true,
          "internalType": "address",
          "name": "to",
          "type": "address"
        },
        {
          "indexed": true,
          "internalType": "uint256",
          "name": "tokenId",
          "type": "uint256"
        },
        {
          "indexed": false,
          "internalType": "bytes",
          "name": "metaData",
          "type": "bytes"
        }
      ],
      "name": "TransferWithMetadata",
      "type": "event"
    },
    {
      "anonymous": false,
      "inputs": [
        {
          "indexed": false,
          "internalType": "address",
          "name": "account",
          "type": "address"
        }
      ],
      "name": "Unpaused",
      "type": "event"
    },
    {
      "anonymous": false,
      "inputs": [
        {
          "indexed": true,
          "internalType": "address",
          "name": "user",
          "type": "address"
        },
        {
          "indexed": false,
          "internalType": "uint256[]",
          "name": "tokenIds",
          "type": "uint256[]"
        }
      ],
      "name": "WithdrawnBatch",
      "type": "event"
    },
    {
      "inputs": [],
      "name": "BATCH_LIMIT",
      "outputs": [
        {
          "internalType": "uint256",
          "name": "",
          "type": "uint256"
        }
      ],
      "stateMutability": "view",
      "type": "function"
    },
    {
      "inputs": [],
      "name": "DEFAULT_ADMIN_ROLE",
      "outputs": [
        {
          "internalType": "bytes32",
          "name": "",
          "type": "bytes32"
        }
      ],
      "stateMutability": "view",
      "type": "function"
    },
    {
      "inputs": [],
      "name": "DEPOSITOR_ROLE",
      "outputs": [
        {
          "internalType": "bytes32",
          "name": "",
          "type": "bytes32"
        }
      ],
      "stateMutability": "view",
      "type": "function"
    },
    {
      "inputs": [],
      "name": "ERC712_VERSION",
      "outputs": [
        {
          "internalType": "string",
          "name": "",
          "type": "string"
        }
      ],
      "stateMutability": "view",
      "type": "function"
    },
    {
      "inputs": [],
      "name": "GROWTH_CYCLE",
      "outputs": [
        {
          "internalType": "uint256",
          "name": "",
          "type": "uint256"
        }
      ],
      "stateMutability": "view",
      "type": "function"
    },
    {
      "inputs": [],
      "name": "MAX_CRYPTORCHIDS",
      "outputs": [
        {
          "internalType": "uint256",
          "name": "",
          "type": "uint256"
        }
      ],
      "stateMutability": "view",
      "type": "function"
    },
    {
      "inputs": [],
      "name": "MINTER_ROLE",
      "outputs": [
        {
          "internalType": "bytes32",
          "name": "",
          "type": "bytes32"
        }
      ],
      "stateMutability": "view",
      "type": "function"
    },
    {
      "inputs": [],
      "name": "PAUSER_ROLE",
      "outputs": [
        {
          "internalType": "bytes32",
          "name": "",
          "type": "bytes32"
        }
      ],
      "stateMutability": "view",
      "type": "function"
    },
    {
      "inputs": [],
      "name": "WATERING_WINDOW",
      "outputs": [
        {
          "internalType": "uint256",
          "name": "",
          "type": "uint256"
        }
      ],
      "stateMutability": "view",
      "type": "function"
    },
    {
      "inputs": [
        {
          "internalType": "uint256",
          "name": "tokenId",
          "type": "uint256"
        }
      ],
      "name": "alive",
      "outputs": [
        {
          "internalType": "bool",
          "name": "",
          "type": "bool"
        }
      ],
      "stateMutability": "view",
      "type": "function"
    },
    {
      "inputs": [
        {
          "internalType": "address",
          "name": "to",
          "type": "address"
        },
        {
          "internalType": "uint256",
          "name": "tokenId",
          "type": "uint256"
        }
      ],
      "name": "approve",
      "outputs": [],
      "stateMutability": "nonpayable",
      "type": "function"
    },
    {
      "inputs": [
        {
          "internalType": "address",
          "name": "owner",
          "type": "address"
        }
      ],
      "name": "balanceOf",
      "outputs": [
        {
          "internalType": "uint256",
          "name": "",
          "type": "uint256"
        }
      ],
      "stateMutability": "view",
      "type": "function"
    },
    {
      "inputs": [],
      "name": "baseURI",
      "outputs": [
        {
          "internalType": "string",
          "name": "",
          "type": "string"
        }
      ],
      "stateMutability": "view",
      "type": "function"
    },
    {
      "inputs": [
        {
          "internalType": "uint256",
          "name": "tokenId",
          "type": "uint256"
        }
      ],
      "name": "burn",
      "outputs": [],
      "stateMutability": "nonpayable",
      "type": "function"
    },
    {
      "inputs": [
        {
          "internalType": "uint256",
          "name": "",
          "type": "uint256"
        }
      ],
      "name": "cryptorchids",
      "outputs": [
        {
          "internalType": "string",
          "name": "species",
          "type": "string"
        },
        {
          "internalType": "uint256",
          "name": "plantedAt",
          "type": "uint256"
        },
        {
          "internalType": "uint256",
          "name": "waterLevel",
          "type": "uint256"
        }
      ],
      "stateMutability": "view",
      "type": "function"
    },
    {
      "inputs": [],
      "name": "currentPrice",
      "outputs": [
        {
          "internalType": "uint256",
          "name": "price",
          "type": "uint256"
        }
      ],
      "stateMutability": "view",
      "type": "function"
    },
    {
      "inputs": [
        {
          "internalType": "address",
          "name": "user",
          "type": "address"
        },
        {
          "internalType": "bytes",
          "name": "depositData",
          "type": "bytes"
        }
      ],
      "name": "deposit",
      "outputs": [],
      "stateMutability": "nonpayable",
      "type": "function"
    },
    {
      "inputs": [
        {
          "internalType": "uint256",
          "name": "tokenId",
          "type": "uint256"
        }
      ],
      "name": "encodeTokenMetadata",
      "outputs": [
        {
          "internalType": "bytes",
          "name": "",
          "type": "bytes"
        }
      ],
      "stateMutability": "view",
      "type": "function"
    },
    {
      "inputs": [
        {
          "internalType": "address",
          "name": "userAddress",
          "type": "address"
        },
        {
          "internalType": "bytes",
          "name": "functionSignature",
          "type": "bytes"
        },
        {
          "internalType": "bytes32",
          "name": "sigR",
          "type": "bytes32"
        },
        {
          "internalType": "bytes32",
          "name": "sigS",
          "type": "bytes32"
        },
        {
          "internalType": "uint8",
          "name": "sigV",
          "type": "uint8"
        }
      ],
      "name": "executeMetaTransaction",
      "outputs": [
        {
          "internalType": "bytes",
          "name": "",
          "type": "bytes"
        }
      ],
      "stateMutability": "payable",
      "type": "function"
    },
    {
      "inputs": [
        {
          "internalType": "uint256",
          "name": "tokenId",
          "type": "uint256"
        }
      ],
      "name": "flowering",
      "outputs": [
        {
          "internalType": "bool",
          "name": "",
          "type": "bool"
        }
      ],
      "stateMutability": "view",
      "type": "function"
    },
    {
      "inputs": [],
      "name": "fxChild",
      "outputs": [
        {
          "internalType": "address",
          "name": "",
          "type": "address"
        }
      ],
      "stateMutability": "view",
      "type": "function"
    },
    {
      "inputs": [],
      "name": "fxRootTunnel",
      "outputs": [
        {
          "internalType": "address",
          "name": "",
          "type": "address"
        }
      ],
      "stateMutability": "view",
      "type": "function"
    },
    {
      "inputs": [
        {
          "internalType": "uint256",
          "name": "tokenId",
          "type": "uint256"
        },
        {
          "internalType": "uint256",
          "name": "userProvidedSeed",
          "type": "uint256"
        }
      ],
      "name": "germinate",
      "outputs": [],
      "stateMutability": "nonpayable",
      "type": "function"
    },
    {
      "inputs": [
        {
          "internalType": "uint256",
          "name": "tokenId",
          "type": "uint256"
        }
      ],
      "name": "getApproved",
      "outputs": [
        {
          "internalType": "address",
          "name": "",
          "type": "address"
        }
      ],
      "stateMutability": "view",
      "type": "function"
    },
    {
      "inputs": [],
      "name": "getChainId",
      "outputs": [
        {
          "internalType": "uint256",
          "name": "",
          "type": "uint256"
        }
      ],
      "stateMutability": "pure",
      "type": "function"
    },
    {
      "inputs": [],
      "name": "getDomainSeperator",
      "outputs": [
        {
          "internalType": "bytes32",
          "name": "",
          "type": "bytes32"
        }
      ],
      "stateMutability": "view",
      "type": "function"
    },
    {
      "inputs": [
        {
          "internalType": "address",
          "name": "user",
          "type": "address"
        }
      ],
      "name": "getNonce",
      "outputs": [
        {
          "internalType": "uint256",
          "name": "nonce",
          "type": "uint256"
        }
      ],
      "stateMutability": "view",
      "type": "function"
    },
    {
      "inputs": [
        {
          "internalType": "bytes32",
          "name": "role",
          "type": "bytes32"
        }
      ],
      "name": "getRoleAdmin",
      "outputs": [
        {
          "internalType": "bytes32",
          "name": "",
          "type": "bytes32"
        }
      ],
      "stateMutability": "view",
      "type": "function"
    },
    {
      "inputs": [
        {
          "internalType": "bytes32",
          "name": "role",
          "type": "bytes32"
        },
        {
          "internalType": "uint256",
          "name": "index",
          "type": "uint256"
        }
      ],
      "name": "getRoleMember",
      "outputs": [
        {
          "internalType": "address",
          "name": "",
          "type": "address"
        }
      ],
      "stateMutability": "view",
      "type": "function"
    },
    {
      "inputs": [
        {
          "internalType": "bytes32",
          "name": "role",
          "type": "bytes32"
        }
      ],
      "name": "getRoleMemberCount",
      "outputs": [
        {
          "internalType": "uint256",
          "name": "",
          "type": "uint256"
        }
      ],
      "stateMutability": "view",
      "type": "function"
    },
    {
      "inputs": [
        {
          "internalType": "uint256",
          "name": "tokenId",
          "type": "uint256"
        }
      ],
      "name": "getTokenMetadata",
      "outputs": [
        {
          "internalType": "string",
          "name": "",
          "type": "string"
        },
        {
          "internalType": "uint256",
          "name": "",
          "type": "uint256"
        },
        {
          "internalType": "uint256",
          "name": "",
          "type": "uint256"
        },
        {
          "internalType": "enum CryptOrchidGoerli.Stage",
          "name": "",
          "type": "uint8"
        }
      ],
      "stateMutability": "view",
      "type": "function"
    },
    {
      "inputs": [
        {
          "internalType": "bytes32",
          "name": "role",
          "type": "bytes32"
        },
        {
          "internalType": "address",
          "name": "account",
          "type": "address"
        }
      ],
      "name": "grantRole",
      "outputs": [],
      "stateMutability": "nonpayable",
      "type": "function"
    },
    {
      "inputs": [
        {
          "internalType": "uint256",
          "name": "tokenId",
          "type": "uint256"
        }
      ],
      "name": "growthStage",
      "outputs": [
        {
          "internalType": "enum CryptOrchidGoerli.Stage",
          "name": "",
          "type": "uint8"
        }
      ],
      "stateMutability": "view",
      "type": "function"
    },
    {
      "inputs": [
        {
          "internalType": "bytes32",
          "name": "role",
          "type": "bytes32"
        },
        {
          "internalType": "address",
          "name": "account",
          "type": "address"
        }
      ],
      "name": "hasRole",
      "outputs": [
        {
          "internalType": "bool",
          "name": "",
          "type": "bool"
        }
      ],
      "stateMutability": "view",
      "type": "function"
    },
    {
      "inputs": [
        {
          "internalType": "address",
          "name": "owner",
          "type": "address"
        },
        {
          "internalType": "address",
          "name": "operator",
          "type": "address"
        }
      ],
      "name": "isApprovedForAll",
      "outputs": [
        {
          "internalType": "bool",
          "name": "",
          "type": "bool"
        }
      ],
      "stateMutability": "view",
      "type": "function"
    },
    {
      "inputs": [
        {
          "internalType": "address",
          "name": "to",
          "type": "address"
        }
      ],
      "name": "mint",
      "outputs": [],
      "stateMutability": "nonpayable",
      "type": "function"
    },
    {
      "inputs": [],
      "name": "name",
      "outputs": [
        {
          "internalType": "string",
          "name": "",
          "type": "string"
        }
      ],
      "stateMutability": "view",
      "type": "function"
    },
    {
      "inputs": [],
      "name": "owner",
      "outputs": [
        {
          "internalType": "address",
          "name": "",
          "type": "address"
        }
      ],
      "stateMutability": "view",
      "type": "function"
    },
    {
      "inputs": [
        {
          "internalType": "uint256",
          "name": "tokenId",
          "type": "uint256"
        }
      ],
      "name": "ownerOf",
      "outputs": [
        {
          "internalType": "address",
          "name": "",
          "type": "address"
        }
      ],
      "stateMutability": "view",
      "type": "function"
    },
    {
      "inputs": [],
      "name": "pause",
      "outputs": [],
      "stateMutability": "nonpayable",
      "type": "function"
    },
    {
      "inputs": [],
      "name": "paused",
      "outputs": [
        {
          "internalType": "bool",
          "name": "",
          "type": "bool"
        }
      ],
      "stateMutability": "view",
      "type": "function"
    },
    {
      "inputs": [
        {
          "internalType": "uint256",
          "name": "stateId",
          "type": "uint256"
        },
        {
          "internalType": "address",
          "name": "rootMessageSender",
          "type": "address"
        },
        {
          "internalType": "bytes",
          "name": "data",
          "type": "bytes"
        }
      ],
      "name": "processMessageFromRoot",
      "outputs": [],
      "stateMutability": "nonpayable",
      "type": "function"
    },
    {
      "inputs": [],
      "name": "renounceOwnership",
      "outputs": [],
      "stateMutability": "nonpayable",
      "type": "function"
    },
    {
      "inputs": [
        {
          "internalType": "bytes32",
          "name": "role",
          "type": "bytes32"
        },
        {
          "internalType": "address",
          "name": "account",
          "type": "address"
        }
      ],
      "name": "renounceRole",
      "outputs": [],
      "stateMutability": "nonpayable",
      "type": "function"
    },
    {
      "inputs": [
        {
          "internalType": "bytes32",
          "name": "",
          "type": "bytes32"
        }
      ],
      "name": "requestToToken",
      "outputs": [
        {
          "internalType": "uint256",
          "name": "",
          "type": "uint256"
        }
      ],
      "stateMutability": "view",
      "type": "function"
    },
    {
      "inputs": [
        {
          "internalType": "bytes32",
          "name": "role",
          "type": "bytes32"
        },
        {
          "internalType": "address",
          "name": "account",
          "type": "address"
        }
      ],
      "name": "revokeRole",
      "outputs": [],
      "stateMutability": "nonpayable",
      "type": "function"
    },
    {
      "inputs": [
        {
          "internalType": "address",
          "name": "from",
          "type": "address"
        },
        {
          "internalType": "address",
          "name": "to",
          "type": "address"
        },
        {
          "internalType": "uint256",
          "name": "tokenId",
          "type": "uint256"
        }
      ],
      "name": "safeTransferFrom",
      "outputs": [],
      "stateMutability": "nonpayable",
      "type": "function"
    },
    {
      "inputs": [
        {
          "internalType": "address",
          "name": "from",
          "type": "address"
        },
        {
          "internalType": "address",
          "name": "to",
          "type": "address"
        },
        {
          "internalType": "uint256",
          "name": "tokenId",
          "type": "uint256"
        },
        {
          "internalType": "bytes",
          "name": "_data",
          "type": "bytes"
        }
      ],
      "name": "safeTransferFrom",
      "outputs": [],
      "stateMutability": "nonpayable",
      "type": "function"
    },
    {
      "inputs": [
        {
          "internalType": "bytes",
          "name": "message",
          "type": "bytes"
        }
      ],
      "name": "sendMessageToRoot",
      "outputs": [],
      "stateMutability": "nonpayable",
      "type": "function"
    },
    {
      "inputs": [
        {
          "internalType": "address",
          "name": "operator",
          "type": "address"
        },
        {
          "internalType": "bool",
          "name": "approved",
          "type": "bool"
        }
      ],
      "name": "setApprovalForAll",
      "outputs": [],
      "stateMutability": "nonpayable",
      "type": "function"
    },
    {
      "inputs": [
        {
          "internalType": "address",
          "name": "_fxRootTunnel",
          "type": "address"
        }
      ],
      "name": "setFxRootTunnel",
      "outputs": [],
      "stateMutability": "nonpayable",
      "type": "function"
    },
    {
      "inputs": [],
      "name": "startGrowing",
      "outputs": [],
      "stateMutability": "nonpayable",
      "type": "function"
    },
    {
      "inputs": [],
      "name": "startSale",
      "outputs": [],
      "stateMutability": "nonpayable",
      "type": "function"
    },
    {
      "inputs": [
        {
          "internalType": "bytes4",
          "name": "interfaceId",
          "type": "bytes4"
        }
      ],
      "name": "supportsInterface",
      "outputs": [
        {
          "internalType": "bool",
          "name": "",
          "type": "bool"
        }
      ],
      "stateMutability": "view",
      "type": "function"
    },
    {
      "inputs": [],
      "name": "symbol",
      "outputs": [
        {
          "internalType": "string",
          "name": "",
          "type": "string"
        }
      ],
      "stateMutability": "view",
      "type": "function"
    },
    {
      "inputs": [
        {
          "internalType": "uint256",
          "name": "index",
          "type": "uint256"
        }
      ],
      "name": "tokenByIndex",
      "outputs": [
        {
          "internalType": "uint256",
          "name": "",
          "type": "uint256"
        }
      ],
      "stateMutability": "view",
      "type": "function"
    },
    {
      "inputs": [
        {
          "internalType": "address",
          "name": "owner",
          "type": "address"
        },
        {
          "internalType": "uint256",
          "name": "index",
          "type": "uint256"
        }
      ],
      "name": "tokenOfOwnerByIndex",
      "outputs": [
        {
          "internalType": "uint256",
          "name": "",
          "type": "uint256"
        }
      ],
      "stateMutability": "view",
      "type": "function"
    },
    {
      "inputs": [
        {
          "internalType": "uint256",
          "name": "tokenId",
          "type": "uint256"
        }
      ],
      "name": "tokenURI",
      "outputs": [
        {
          "internalType": "string",
          "name": "",
          "type": "string"
        }
      ],
      "stateMutability": "view",
      "type": "function"
    },
    {
      "inputs": [],
      "name": "totalSupply",
      "outputs": [
        {
          "internalType": "uint256",
          "name": "",
          "type": "uint256"
        }
      ],
      "stateMutability": "view",
      "type": "function"
    },
    {
      "inputs": [
        {
          "internalType": "address",
          "name": "from",
          "type": "address"
        },
        {
          "internalType": "address",
          "name": "to",
          "type": "address"
        },
        {
          "internalType": "uint256",
          "name": "tokenId",
          "type": "uint256"
        }
      ],
      "name": "transferFrom",
      "outputs": [],
      "stateMutability": "nonpayable",
      "type": "function"
    },
    {
      "inputs": [
        {
          "internalType": "address",
          "name": "newOwner",
          "type": "address"
        }
      ],
      "name": "transferOwnership",
      "outputs": [],
      "stateMutability": "nonpayable",
      "type": "function"
    },
    {
      "inputs": [],
      "name": "unpause",
      "outputs": [],
      "stateMutability": "nonpayable",
      "type": "function"
    },
    {
      "inputs": [
        {
          "internalType": "uint256",
          "name": "tokenId",
          "type": "uint256"
        }
      ],
      "name": "water",
      "outputs": [],
      "stateMutability": "nonpayable",
      "type": "function"
    },
    {
      "inputs": [
        {
          "internalType": "uint256",
          "name": "units",
          "type": "uint256"
        }
      ],
      "name": "webMint",
      "outputs": [],
      "stateMutability": "payable",
      "type": "function"
    },
    {
      "inputs": [
        {
          "internalType": "uint256",
          "name": "tokenId",
          "type": "uint256"
        }
      ],
      "name": "withdraw",
      "outputs": [],
      "stateMutability": "nonpayable",
      "type": "function"
    },
    {
      "inputs": [],
      "name": "withdraw",
      "outputs": [],
      "stateMutability": "nonpayable",
      "type": "function"
    },
    {
      "inputs": [
        {
          "internalType": "uint256[]",
          "name": "tokenIds",
          "type": "uint256[]"
        }
      ],
      "name": "withdrawBatch",
      "outputs": [],
      "stateMutability": "nonpayable",
      "type": "function"
    },
    {
      "inputs": [
        {
          "internalType": "uint256",
          "name": "tokenId",
          "type": "uint256"
        }
      ],
      "name": "withdrawWithMetadata",
      "outputs": [],
      "stateMutability": "nonpayable",
      "type": "function"
    },
    {
      "stateMutability": "payable",
      "type": "receive"
    }
  ],
  "transactionHash": "0x3a89ac2a0757bfaee2c6ae8ff1d46aa87f5f70ba988f8e6eebb63dfa68921ad4",
  "args": [
    "0xb5505a6d998549090530911180f38aC5130101c6",
    "0xCf73231F28B7331BBe3124B907840A94851f9f11"
  ],
  "solcInputHash": "4f9b70493defebe2f15081e93e9ddfbb",
  "bytecode": "0x600f805461ffff191690556101c060405260006080908152610c0260a0526117ba60c052611f8a60e0526123726101005261256661012052612660610140526126c4610160526126f66101805261270f6101a0526200006390601090600a62000e8d565b506040805161018081018252601761014082019081527f7368656e7a68656e696361206f72636869646163656165000000000000000000610160830152815281518083018352601881527f7068616c61656e6f70736973206d6963686f6c69747a69690000000000000000602082810191909152808301919091528251808401845260158082527f6775617269616e74686520617572616e74696163610000000000000000000000828401528385019190915283518085018552600e81526d76616e646120636f6572756c656160901b818401526060840152835180850185528181527f637970726970656469756d2063616c63656f6c7573000000000000000000000081840152608084015283518085018552601981527f70617068696f706564696c756d20766965746e616d656e7365000000000000008184015260a08401528351808501855260128152716d696c746f6e6961206b61796173696d616560701b8184015260c084015283518085018552601381527f706c6174616e746865726120617a6f72696361000000000000000000000000008184015260e0840152835180850185529081527f64656e64726f7068796c6178206c696e64656e69690000000000000000000000818301526101008301528251808401909352601d83527f70617068696f706564696c756d20726f7468736368696c6469616e756d000000908301526101208101919091526200028390601190600a62000f2a565b50604080516101c08101909152604b6101408201818152829162006a9e61016084013981526020016040518060800160405280604c815260200162006934604c9139815260200160405180608001604052806049815260200162006bc260499139815260200160405180608001604052806042815260200162006b2f604291398152602001604051806080016040528060498152602001620068eb6049913981526020016040518060800160405280604d815260200162006a08604d9139815260200160405180608001604052806046815260200162006ae960469139815260200160405180608001604052806047815260200162006d3860479139815260200160405180608001604052806049815260200162006c5860499139815260200160405180608001604052806051815260200162006804605191399052620003cf90601b90600a62000f2a565b50604080516101c08101909152604b6101408201818152829162006ced61016084013981526020016040518060800160405280604c815260200162006ca1604c9139815260200160405180608001604052806049815260200162006a5560499139815260200160405180608001604052806042815260200162006980604291398152602001604051806080016040528060498152602001620067726049913981526020016040518060800160405280604d815260200162006c0b604d91398152602001604051806080016040528060468152602001620069c260469139815260200160405180608001604052806047815260200162006855604791398152602001604051806080016040528060498152602001620067bb60499139815260200160405180608001604052806051815260200162006b716051913990526200051b90602590600a62000f2a565b506034805460ff191690553480156200053357600080fd5b5060405162006d7f38038062006d7f833981810160405260408110156200055957600080fd5b508051602091820151604080518082018252600c81526b43727970744f72636869647360a01b8186015281518083018352600581526413d490d21160da1b8187015282518084019093526007835266697066733a2f2f60c81b9583019590955292939192839290918282620005de6301ffc9a760e01b6001600160e01b0362000a6416565b8151620005f390600790602085019062000f7d565b5080516200060990600890602084019062000f7d565b50620006256380ac58cd60e01b6001600160e01b0362000a6416565b62000640635b5e139f60e01b6001600160e01b0362000a6416565b6200065b63780e9d6360e01b6001600160e01b0362000a6416565b5050600b805460ff191690556200068f6000620006806001600160e01b0362000aec16565b6001600160e01b0362000b0916565b604080516a4d494e5445525f524f4c4560a81b8152905190819003600b019020620006c790620006806001600160e01b0362000aec16565b604080516a5041555345525f524f4c4560a81b8152905190819003600b019020620006ff90620006806001600160e01b0362000aec16565b62000713816001600160e01b0362000b2216565b50505060006200072862000aec60201b60201c565b600d80546001600160a01b0319166001600160a01b038316908117909155604051919250906000907f8be0079c531659141344cd1fd0a4f28419497f9722a3daafe3b4186f6b6457e0908290a35060005b600a8110156200097457601b81600a81106200079157fe5b0160316000601184600a8110620007a457fe5b60408051602080820190815292909301805460026001821615610100026000190190911604918401829052928291606090910190849080156200082b5780601f10620007ff576101008083540402835291602001916200082b565b820191906000526020600020905b8154815290600101906020018083116200080d57829003601f168201915b50509250505060405160208183030381529060405280519060200120815260200190815260200160002090805460018160011615610100020316600290046200087692919062000ffe565b50602581600a81106200088557fe5b0160326000601184600a81106200089857fe5b60408051602080820190815292909301805460026001821615610100026000190190911604918401829052928291606090910190849080156200091f5780601f10620008f3576101008083540402835291602001916200091f565b820191906000526020600020905b8154815290600101906020018083116200090157829003601f168201915b50509250505060405160208183030381529060405280519060200120815260200190815260200160002090805460018160011615610100020316600290046200096a92919062000ffe565b5060010162000779565b50603780546001600160a01b0319166001600160a01b039290921691909117905560408051808201909152601681527f43727970744f72636869644552433732314368696c64000000000000000000006020820152620009d49062000b37565b620009ed6000620006806001600160e01b0362000aec16565b604080516d4445504f5349544f525f524f4c4560901b8152905190819003600e01902062000a2590836001600160e01b0362000b0916565b60408051808201909152600c81526b43727970744f72636869647360a01b602082015262000a5c906001600160e01b0362000bd916565b50506200112a565b6001600160e01b0319808216141562000ac4576040805162461bcd60e51b815260206004820152601c60248201527f4552433136353a20696e76616c696420696e7465726661636520696400000000604482015290519081900360640190fd5b6001600160e01b0319166000908152600160208190526040909120805460ff19169091179055565b600062000b0362000c4760201b620043381760201c565b90505b90565b62000b1e82826001600160e01b0362000ca616565b5050565b805162000b1e90600a90602084019062000f7d565b806040516020018082805190602001908083835b6020831062000b6c5780518252601f19909201916020918201910162000b4b565b51815160209384036101000a60001901801990921691161790527f3a20494e53554646494349454e545f5045524d495353494f4e530000000000009190930190815260408051808303600519018152601a9092019052805162000b1e955060339450920191905062000f7d565b60345460ff161562000c23576040805162461bcd60e51b815260206004820152600e60248201526d185b1c9958591e481a5b9a5d195960921b604482015290519081900360640190fd5b62000c37816001600160e01b0362000d2816565b506034805460ff19166001179055565b60003330141562000ca15760606000368080601f0160208091040260200160405190810160405280939291908181526020018383808284376000920191909152505050503601516001600160a01b0316915062000b069050565b503390565b60008281526020818152604090912062000ccb9183906200450762000df0821b17901c565b1562000b1e5762000ce46001600160e01b0362000aec16565b6001600160a01b0316816001600160a01b0316837f2f8788117e7eff1d82e926ec794901d17c78024a50270940304540a733656f0d60405160405180910390a45050565b6040518060800160405280604f81526020016200689c604f913980516020918201208251838301206040805180820190915260018152603160f81b930192909252907fc89efdaa54c0f20c7adf612882df0950f5a951637e0307cdcb4c672f298b8bc63062000d9f6001600160e01b0362000e1916565b604080516020808201979097528082019590955260608501939093526001600160a01b03909116608084015260a0808401919091528151808403909101815260c09092019052805191012060355550565b600062000e10836001600160a01b0384166001600160e01b0362000e1d16565b90505b92915050565b4690565b600062000e3483836001600160e01b0362000e7516565b62000e6c5750815460018181018455600084815260208082209093018490558454848252828601909352604090209190915562000e13565b50600062000e13565b60009081526001919091016020526040902054151590565b60018301918390821562000f185791602002820160005b8382111562000ee657835183826101000a81548161ffff021916908361ffff160217905550926020019260020160208160010104928301926001030262000ea4565b801562000f165782816101000a81549061ffff021916905560020160208160010104928301926001030262000ee6565b505b5062000f2692915062001078565b5090565b82600a810192821562000f6f579160200282015b8281111562000f6f578251805162000f5e91849160209091019062000f7d565b509160200191906001019062000f3e565b5062000f269291506200109a565b828054600181600116156101000203166002900490600052602060002090601f016020900481019282601f1062000fc057805160ff191683800117855562000ff0565b8280016001018555821562000ff0579182015b8281111562000ff057825182559160200191906001019062000fd3565b5062000f26929150620010c2565b828054600181600116156101000203166002900490600052602060002090601f016020900481019282601f1062001039578054855562000ff0565b8280016001018555821562000ff057600052602060002091601f016020900482015b8281111562000ff05782548255916001019190600101906200105b565b62000b0691905b8082111562000f2657805461ffff191681556001016200107f565b62000b0691905b8082111562000f26576000620010b88282620010df565b50600101620010a1565b62000b0691905b8082111562000f265760008155600101620010c9565b50805460018160011615610100020316600290046000825580601f1062001107575062001127565b601f016020900490600052602060002090810190620011279190620010c2565b50565b615638806200113a6000396000f3fe6080604052600436106103f35760003560e01c806370a0823111610208578063a22cb46511610118578063ca15c873116100ab578063d547741f1161007a578063d547741f1461122a578063e63ab1e914611263578063e985e9c514611278578063f2fde38b146112b3578063ffee200c146112e6576103fa565b8063ca15c873146110b0578063cac21c8f146110da578063cf2c52cb1461118a578063d539139314611215576103fa565b8063b66a0e5d116100e7578063b66a0e5d14610f52578063b7aaba2014610f67578063b88d4fde14610fb5578063c87b56dd14611086576103fa565b8063a22cb46514610eae578063a3b0b5a314610ee9578063a5e584dc14610efe578063a7eec44b14610f28576103fa565b806391d148541161019b5780639a113ee21161016a5780639a113ee214610c925780639a7c4b7114610d435780639c8d415614610e095780639d1b464a14610e84578063a217fddf14610e99576103fa565b806391d1485414610c125780639559c0bd14610c4b57806395d89b4114610c605780639981d4a114610c75576103fa565b80638456cb59116101d75780638456cb5914610b855780638883709414610b9a5780638da5cb5b14610bcd5780639010d07c14610be2576103fa565b806370a0823114610af8578063715018a614610b2b5780637f1e9cb014610b405780637fd8d95314610b55576103fa565b80632f745c59116103035780634f6ccce7116102965780636352211e116102655780636352211e14610a475780636573c78714610a715780636a62784214610a9b5780636b0c004d14610ace5780636c0360eb14610ae3576103fa565b80634f6ccce7146109195780635c975abb14610943578063603168011461095857806362ff09d614610a1d576103fa565b80633f4ba83a116102d25780633f4ba83a1461088257806342842e0e1461089757806342966c68146108da578063450d11f014610904576103fa565b80632f745c59146107e65780633408e4701461081f57806336568abe146108345780633ccfd60b1461086d576103fa565b806318160ddd11610386578063248a9ca311610355578063248a9ca314610711578063277dec921461073b5780632d0335ab146107505780632e1a7d4d146107835780632f2ff15d146107ad576103fa565b806318160ddd1461067a578063182199cd1461068f57806320379ee5146106b957806323b872dd146106ce576103fa565b80630c53c51c116103c25780630c53c51c146105525780630f7e5970146106145780631653c39a14610629578063179f0b0a14610653576103fa565b806301ffc9a7146103ff57806306fdde0314610447578063081812fc146104d1578063095ea7b314610517576103fa565b366103fa57005b600080fd5b34801561040b57600080fd5b506104336004803603602081101561042257600080fd5b50356001600160e01b0319166112fb565b604080519115158252519081900360200190f35b34801561045357600080fd5b5061045c61131e565b6040805160208082528351818301528351919283929083019185019080838360005b8381101561049657818101518382015260200161047e565b50505050905090810190601f1680156104c35780820380516001836020036101000a031916815260200191505b509250505060405180910390f35b3480156104dd57600080fd5b506104fb600480360360208110156104f457600080fd5b50356113b5565b604080516001600160a01b039092168252519081900360200190f35b34801561052357600080fd5b506105506004803603604081101561053a57600080fd5b506001600160a01b038135169060200135611417565b005b61045c600480360360a081101561056857600080fd5b6001600160a01b038235169190810190604081016020820135600160201b81111561059257600080fd5b8201836020820111156105a457600080fd5b803590602001918460018302840111600160201b831117156105c557600080fd5b91908080601f016020809104026020016040519081016040528093929190818152602001838380828437600092019190915250929550508235935050506020810135906040013560ff166114f2565b34801561062057600080fd5b5061045c6117f5565b34801561063557600080fd5b5061045c6004803603602081101561064c57600080fd5b5035611812565b34801561065f57600080fd5b506106686118a4565b60408051918252519081900360200190f35b34801561068657600080fd5b506106686118ab565b34801561069b57600080fd5b50610433600480360360208110156106b257600080fd5b50356118bc565b3480156106c557600080fd5b506106686118db565b3480156106da57600080fd5b50610550600480360360608110156106f157600080fd5b506001600160a01b038135811691602081013590911690604001356118e1565b34801561071d57600080fd5b506106686004803603602081101561073457600080fd5b5035611938565b34801561074757600080fd5b5061055061194d565b34801561075c57600080fd5b506106686004803603602081101561077357600080fd5b50356001600160a01b03166119c0565b34801561078f57600080fd5b50610550600480360360208110156107a657600080fd5b50356119db565b3480156107b957600080fd5b50610550600480360360408110156107d057600080fd5b50803590602001356001600160a01b0316611a5c565b3480156107f257600080fd5b506106686004803603604081101561080957600080fd5b506001600160a01b038135169060200135611ac8565b34801561082b57600080fd5b50610668611af9565b34801561084057600080fd5b506105506004803603604081101561085757600080fd5b50803590602001356001600160a01b0316611afd565b34801561087957600080fd5b50610550611b5e565b34801561088e57600080fd5b50610550611bef565b3480156108a357600080fd5b50610550600480360360608110156108ba57600080fd5b506001600160a01b03813581169160208101359091169060400135611c60565b3480156108e657600080fd5b50610550600480360360208110156108fd57600080fd5b5035611c7b565b34801561091057600080fd5b506104fb611cc1565b34801561092557600080fd5b506106686004803603602081101561093c57600080fd5b5035611cd0565b34801561094f57600080fd5b50610433611cec565b34801561096457600080fd5b506109826004803603602081101561097b57600080fd5b5035611cf5565b60405180806020018581526020018481526020018360038111156109a257fe5b60ff168152602001828103825286818151815260200191508051906020019080838360005b838110156109df5781810151838201526020016109c7565b50505050905090810190601f168015610a0c5780820380516001836020036101000a031916815260200191505b509550505050505060405180910390f35b348015610a2957600080fd5b5061066860048036036020811015610a4057600080fd5b5035611dba565b348015610a5357600080fd5b506104fb60048036036020811015610a6a57600080fd5b5035611dcc565b348015610a7d57600080fd5b5061043360048036036020811015610a9457600080fd5b5035611dfa565b348015610aa757600080fd5b5061055060048036036020811015610abe57600080fd5b50356001600160a01b0316611e1a565b348015610ada57600080fd5b50610668611e9e565b348015610aef57600080fd5b5061045c611ea4565b348015610b0457600080fd5b5061066860048036036020811015610b1b57600080fd5b50356001600160a01b0316611f05565b348015610b3757600080fd5b50610550611f6d565b348015610b4c57600080fd5b506104fb612019565b348015610b6157600080fd5b5061055060048036036040811015610b7857600080fd5b5080359060200135612028565b348015610b9157600080fd5b506105506120c4565b348015610ba657600080fd5b5061055060048036036020811015610bbd57600080fd5b50356001600160a01b0316612133565b348015610bd957600080fd5b506104fb61219d565b348015610bee57600080fd5b506104fb60048036036040811015610c0557600080fd5b50803590602001356121ac565b348015610c1e57600080fd5b5061043360048036036040811015610c3557600080fd5b50803590602001356001600160a01b03166121ca565b348015610c5757600080fd5b506106686121e8565b348015610c6c57600080fd5b5061045c6121ed565b61055060048036036020811015610c8b57600080fd5b503561224e565b348015610c9e57600080fd5b5061055060048036036020811015610cb557600080fd5b810190602081018135600160201b811115610ccf57600080fd5b820183602082011115610ce157600080fd5b803590602001918460018302840111600160201b83111715610d0257600080fd5b91908080601f0160208091040260200160405190810160405280939291908181526020018383808284376000920191909152509295506124f4945050505050565b348015610d4f57600080fd5b5061055060048036036060811015610d6657600080fd5b8135916001600160a01b0360208201351691810190606081016040820135600160201b811115610d9557600080fd5b820183602082011115610da757600080fd5b803590602001918460018302840111600160201b83111715610dc857600080fd5b91908080601f0160208091040260200160405190810160405280939291908181526020018383808284376000920191909152509295506124fd945050505050565b348015610e1557600080fd5b5061055060048036036020811015610e2c57600080fd5b810190602081018135600160201b811115610e4657600080fd5b820183602082011115610e5857600080fd5b803590602001918460208302840111600160201b83111715610e7957600080fd5b509092509050612551565b348015610e9057600080fd5b5061066861272f565b348015610ea557600080fd5b506106686127eb565b348015610eba57600080fd5b5061055060048036036040811015610ed157600080fd5b506001600160a01b03813516906020013515156127f0565b348015610ef557600080fd5b506106686128f5565b348015610f0a57600080fd5b5061055060048036036020811015610f2157600080fd5b503561291b565b348015610f3457600080fd5b5061055060048036036020811015610f4b57600080fd5b5035612b6f565b348015610f5e57600080fd5b50610550612c2d565b348015610f7357600080fd5b50610f9160048036036020811015610f8a57600080fd5b5035612c9e565b60405180826003811115610fa157fe5b60ff16815260200191505060405180910390f35b348015610fc157600080fd5b5061055060048036036080811015610fd857600080fd5b6001600160a01b03823581169260208101359091169160408201359190810190608081016060820135600160201b81111561101257600080fd5b82018360208201111561102457600080fd5b803590602001918460018302840111600160201b8311171561104557600080fd5b91908080601f016020809104026020016040519081016040528093929190818152602001838380828437600092019190915250929550612e1e945050505050565b34801561109257600080fd5b5061045c600480360360208110156110a957600080fd5b5035612e76565b3480156110bc57600080fd5b50610668600480360360208110156110d357600080fd5b5035613274565b3480156110e657600080fd5b50611104600480360360208110156110fd57600080fd5b503561328b565b6040518080602001848152602001838152602001828103825285818151815260200191508051906020019080838360005b8381101561114d578181015183820152602001611135565b50505050905090810190601f16801561117a5780820380516001836020036101000a031916815260200191505b5094505050505060405180910390f35b34801561119657600080fd5b50610550600480360360408110156111ad57600080fd5b6001600160a01b038235169190810190604081016020820135600160201b8111156111d757600080fd5b8201836020820111156111e957600080fd5b803590602001918460018302840111600160201b8311171561120a57600080fd5b509092509050613338565b34801561122157600080fd5b5061066861350b565b34801561123657600080fd5b506105506004803603604081101561124d57600080fd5b50803590602001356001600160a01b031661352e565b34801561126f57600080fd5b50610668613587565b34801561128457600080fd5b506104336004803603604081101561129b57600080fd5b506001600160a01b03813581169160200135166135aa565b3480156112bf57600080fd5b50610550600480360360208110156112d657600080fd5b50356001600160a01b03166135d8565b3480156112f257600080fd5b506106686136db565b6001600160e01b0319811660009081526001602052604090205460ff165b919050565b60078054604080516020601f60026000196101006001881615020190951694909404938401819004810282018101909252828152606093909290918301828280156113aa5780601f1061137f576101008083540402835291602001916113aa565b820191906000526020600020905b81548152906001019060200180831161138d57829003601f168201915b505050505090505b90565b60006113c0826136e1565b6113fb5760405162461bcd60e51b815260040180806020018281038252602c815260200180615393602c913960400191505060405180910390fd5b506000908152600560205260409020546001600160a01b031690565b600061142282611dcc565b9050806001600160a01b0316836001600160a01b031614156114755760405162461bcd60e51b81526004018080602001828103825260218152602001806154596021913960400191505060405180910390fd5b806001600160a01b03166114876136f4565b6001600160a01b031614806114a857506114a8816114a36136f4565b6135aa565b6114e35760405162461bcd60e51b81526004018080602001828103825260388152602001806152a26038913960400191505060405180910390fd5b6114ed83836136fe565b505050565b60606114fc614e79565b50604080516060810182526001600160a01b0388166000818152603660209081529084902054835282015290810186905261153a878287878761376c565b6115755760405162461bcd60e51b81526004018080602001828103825260218152602001806154086021913960400191505060405180910390fd5b6001600160a01b03871660009081526036602052604090205461159f90600163ffffffff61384916565b6001600160a01b03881660008181526036602090815260408083209490945583519283523383820181905260609484018581528b51958501959095528a517f5845892132946850460bff5a0083f71031bc5bf9aadcd40f1de79423eac9b10b958d9592948d94919260808501928601918190849084905b8381101561162e578181015183820152602001611616565b50505050905090810190601f16801561165b5780820380516001836020036101000a031916815260200191505b5094505050505060405180910390a160006060306001600160a01b0316888a6040516020018083805190602001908083835b602083106116ac5780518252601f19909201916020918201910161168d565b6001836020036101000a038019825116818451168082178552505050505050905001826001600160a01b03166001600160a01b031660601b8152601401925050506040516020818303038152906040526040518082805190602001908083835b6020831061172b5780518252601f19909201916020918201910161170c565b6001836020036101000a0380198251168184511680821785525050505050509050019150506000604051808303816000865af19150503d806000811461178d576040519150601f19603f3d011682016040523d82523d6000602084013e611792565b606091505b5091509150816117e9576040805162461bcd60e51b815260206004820152601c60248201527f46756e6374696f6e2063616c6c206e6f74207375636365737366756c00000000604482015290519081900360640190fd5b98975050505050505050565b604051806040016040528060018152602001603160f81b81525081565b606061181d82612e76565b6040516020018080602001828103825283818151815260200191508051906020019080838360005b8381101561185d578181015183820152602001611845565b50505050905090810190601f16801561188a5780820380516001836020036101000a031916815260200191505b5060408051601f1981840301815291905295945050505050565b62093a8081565b60006118b760036138a3565b905090565b600060026118c983612c9e565b60038111156118d457fe5b1492915050565b60355490565b6118f26118ec6136f4565b826138ae565b61192d5760405162461bcd60e51b81526004018080602001828103825260318152602001806154a16031913960400191505060405180910390fd5b6114ed838383613952565b60009081526020819052604090206002015490565b6119556136f4565b6001600160a01b031661196661219d565b6001600160a01b0316146119af576040805162461bcd60e51b815260206004820181905260248201526000805160206153bf833981519152604482015290519081900360640190fd5b600f805461ff001916610100179055565b6001600160a01b031660009081526036602052604090205490565b6119e481611dcc565b6001600160a01b03166119f56136f4565b6001600160a01b031614611a50576040805162461bcd60e51b815260206004820181905260248201527f4368696c644552433732313a20494e56414c49445f544f4b454e5f4f574e4552604482015290519081900360640190fd5b611a5981613ab0565b50565b600082815260208190526040902060020154611a7f90611a7a6136f4565b6121ca565b611aba5760405162461bcd60e51b815260040180806020018281038252602f815260200180615007602f913960400191505060405180910390fd5b611ac48282613b89565b5050565b6001600160a01b0382166000908152600260205260408120611af0908363ffffffff613bf816565b90505b92915050565b4690565b611b056136f4565b6001600160a01b0316816001600160a01b031614611b545760405162461bcd60e51b815260040180806020018281038252602f8152602001806155d4602f913960400191505060405180910390fd5b611ac48282613c04565b611b666136f4565b6001600160a01b0316611b7761219d565b6001600160a01b031614611bc0576040805162461bcd60e51b815260206004820181905260248201526000805160206153bf833981519152604482015290519081900360640190fd5b6040514790339082156108fc029083906000818181858888f19350505050158015611ac4573d6000803e3d6000fd5b604080516a5041555345525f524f4c4560a81b8152905190819003600b019020611c1b90611a7a6136f4565b611c565760405162461bcd60e51b815260040180806020018281038252604081526020018061556a6040913960400191505060405180910390fd5b611c5e613c73565b565b6114ed83838360405180602001604052806000815250612e1e565b611c866118ec6136f4565b611a505760405162461bcd60e51b815260040180806020018281038252603081526020018061553a6030913960400191505060405180910390fd5b6037546001600160a01b031681565b600080611ce460038463ffffffff613d1316565b509392505050565b600b5460ff1690565b6000818152600e60205260408120600181015460028201546060939283928392611d1e88612c9e565b8354604080516020601f60026000196101006001881615020190951694909404938401819004810282018101909252828152918691830182828015611da45780601f10611d7957610100808354040283529160200191611da4565b820191906000526020600020905b815481529060010190602001808311611d8757829003601f168201915b5050505050935093509350935093509193509193565b60306020526000908152604090205481565b6000611af382604051806060016040528060298152602001615304602991396003919063ffffffff613d2f16565b60006003611e0783612c9e565b6003811115611e1257fe5b141592915050565b604080516a4d494e5445525f524f4c4560a81b8152905190819003600b019020611e4690611a7a6136f4565b611e815760405162461bcd60e51b815260040180806020018281038252603d8152602001806154fd603d913960400191505060405180910390fd5b611e9481611e8f600c613d46565b613d4a565b611a59600c613e84565b61271081565b600a8054604080516020601f60026000196101006001881615020190951694909404938401819004810282018101909252828152606093909290918301828280156113aa5780601f1061137f576101008083540402835291602001916113aa565b60006001600160a01b038216611f4c5760405162461bcd60e51b815260040180806020018281038252602a8152602001806152da602a913960400191505060405180910390fd5b6001600160a01b0382166000908152600260205260409020611af3906138a3565b611f756136f4565b6001600160a01b0316611f8661219d565b6001600160a01b031614611fcf576040805162461bcd60e51b815260206004820181905260248201526000805160206153bf833981519152604482015290519081900360640190fd5b600d546040516000916001600160a01b0316907f8be0079c531659141344cd1fd0a4f28419497f9722a3daafe3b4186f6b6457e0908390a3600d80546001600160a01b0319169055565b6038546001600160a01b031681565b600f54610100900460ff1661206e5760405162461bcd60e51b815260040180806020018281038252602781526020018061512a6027913960400191505060405180910390fd5b61207f6120796136f4565b836138ae565b6120ba5760405162461bcd60e51b815260040180806020018281038252602b8152602001806154d2602b913960400191505060405180910390fd5b6114ed8282613e8d565b604080516a5041555345525f524f4c4560a81b8152905190819003600b0190206120f090611a7a6136f4565b61212b5760405162461bcd60e51b815260040180806020018281038252603e815260200180615151603e913960400191505060405180910390fd5b611c5e613ed3565b6038546001600160a01b03161561217b5760405162461bcd60e51b815260040180806020018281038252602a8152602001806155aa602a913960400191505060405180910390fd5b603880546001600160a01b0319166001600160a01b0392909216919091179055565b600d546001600160a01b031690565b6000828152602081905260408120611af0908363ffffffff613bf816565b6000828152602081905260408120611af0908363ffffffff613f5616565b601481565b60088054604080516020601f60026000196101006001881615020190951694909404938401819004810282018101909252828152606093909290918301828280156113aa5780601f1061137f576101008083540402835291602001916113aa565b600f5460ff1661229d576040805162461bcd60e51b8152602060048201526015602482015274151a1948139d5c9cd95c9e481a5cc818db1bdcd959605a1b604482015290519081900360640190fd5b6122a56118ab565b612710038111156122f5576040805162461bcd60e51b8152602060048201526015602482015274139bdd08195b9bdd59da08189d5b189cc81b19599d605a1b604482015290519081900360640190fd5b6127106123006118ab565b1061234b576040805162461bcd60e51b815260206004820152601660248201527514d85b19481a185cc8185b1c9958591e48195b99195960521b604482015290519081900360640190fd5b60008111801561235c575060148111155b6123975760405162461bcd60e51b81526004018080602001828103825260308152602001806154296030913960400191505060405180910390fd5b6127106123ab6123a56118ab565b83613849565b11156123fe576040805162461bcd60e51b815260206004820152601860248201527f45786365656473204d41585f43525950544f5243484944530000000000000000604482015290519081900360640190fd5b61240f61240961272f565b82613f6b565b34101561244d5760405162461bcd60e51b815260040180806020018281038252602381526020018061532d6023913960400191505060405180910390fd5b60005b81811015611ac457612462602f613e84565b600061246e602f613d46565b6040805160a081018252600660608201908152656772616e756d60d01b608083015281526000196020808301919091526000828401819052848152600e82529290922081518051949550919390926124ca928492910190614ea3565b50602082015160018201556040909101516002909101556124eb3382613fc4565b50600101612450565b611a5981613fde565b6037546001600160a01b031633146125465760405162461bcd60e51b8152600401808060200182810382526021815260200180614f996021913960400191505060405180910390fd5b6114ed83838361407a565b8060148111156125a8576040805162461bcd60e51b815260206004820181905260248201527f4368696c644552433732313a20455843454544535f42415443485f4c494d4954604482015290519081900360640190fd5b60005b818110156126b55760008484838181106125c157fe5b9050602002013590506125d381611dcc565b6001600160a01b03166125e46136f4565b6001600160a01b03161481604051602001808061525c60219139602101828152602001915050604051602081830303815290604052906126a25760405162461bcd60e51b81526004018080602001828103825283818151815260200191508051906020019080838360005b8381101561266757818101518382015260200161264f565b50505050905090810190601f1680156126945780820380516001836020036101000a031916815260200191505b509250505060405180910390fd5b506126ac81613ab0565b506001016125ab565b506126be6136f4565b6001600160a01b03167ff871896b17e9cb7a64941c62c188a4f5c621b86800e3d15452ece01ce56073df848460405180806020018281038252848482818152602001925060200280828437600083820152604051601f909101601f19169092018290039550909350505050a2505050565b60008061273a6118ab565b90506126ac811061275657670de0b6b3a76400009150506113b2565b61251c8110612770576708e1bc9bf04000009150506113b2565b611d4c811061278a57670470de4df82000009150506113b2565b610dac81106127a4576702386f26fc1000009150506113b2565b6105dc81106127be5767011c37937e0800009150506113b2565b6101f481106127d75766d529ae9e8600009150506113b2565b668e1bc9bf0400009150506113b2565b5090565b600081565b6127f86136f4565b6001600160a01b0316826001600160a01b0316141561285e576040805162461bcd60e51b815260206004820152601960248201527f4552433732313a20617070726f766520746f2063616c6c657200000000000000604482015290519081900360640190fd5b806006600061286b6136f4565b6001600160a01b03908116825260208083019390935260409182016000908120918716808252919093529120805460ff1916921515929092179091556128af6136f4565b60408051841515815290516001600160a01b0392909216917f17307eab39ab6107e8899845ad3d59bd9653f200f220920489ca2b5937696c319181900360200190a35050565b604080516d4445504f5349544f525f524f4c4560901b8152905190819003600e01902081565b61292481611dcc565b6001600160a01b03166129356136f4565b6001600160a01b031614612990576040805162461bcd60e51b815260206004820181905260248201527f4368696c644552433732313a20494e56414c49445f544f4b454e5f4f574e4552604482015290519081900360640190fd5b80600061299b6136f4565b6001600160a01b03167ff94915c6d1fd521cee85359239227480c7e8776d7caf1fc3bacad5c269b66a14306001600160a01b0316631653c39a866040518263ffffffff1660e01b81526004018082815260200191505060006040518083038186803b158015612a0957600080fd5b505afa158015612a1d573d6000803e3d6000fd5b505050506040513d6000823e601f3d908101601f191682016040526020811015612a4657600080fd5b8101908080516040519392919084600160201b821115612a6557600080fd5b908301906020820185811115612a7a57600080fd5b8251600160201b811182820188101715612a9357600080fd5b82525081516020918201929091019080838360005b83811015612ac0578181015183820152602001612aa8565b50505050905090810190601f168015612aed5780820380516001836020036101000a031916815260200191505b50604081815260208083528651818401528651929550859450908401925085019080838360005b83811015612b2c578181015183820152602001612b14565b50505050905090810190601f168015612b595780820380516001836020036101000a031916815260200191505b509250505060405180910390a4611a5981613ab0565b612b7a6118ec6136f4565b612bb55760405162461bcd60e51b81526004018080602001828103825260278152602001806151d96027913960400191505060405180910390fd5b612bbe81611dfa565b612bc757611a59565b6000818152600e602052604081206002810154600182015491929091612beb614208565b0390506000612bfd8262093a8061420c565b905080831115612c105750505050611a59565b6000612c1d846001613849565b6002909501949094555050505050565b612c356136f4565b6001600160a01b0316612c4661219d565b6001600160a01b031614612c8f576040805162461bcd60e51b815260206004820181905260248201526000805160206153bf833981519152604482015290519081900360640190fd5b600f805460ff19166001179055565b6000612ca8614f1d565b6000838152600e60209081526040918290208251815460026001821615610100026000190190911604601f81018490049093028101608090810190945260608101838152909391928492849190840182828015612d465780601f10612d1b57610100808354040283529160200191612d46565b820191906000526020600020905b815481529060010190602001808311612d2957829003601f168201915b50505050508152602001600182015481526020016002820154815250509050806020015160001415612d7c576000915050611319565b60001981602001511415612d94576001915050611319565b60408101516020820151600090612da9614208565b0390506000612dbb8262093a8061420c565b90506000612dcc8362093a80614273565b905081841415612de457600295505050505050611319565b81612df0856001613849565b148015612dfe5750612a3081105b15612e1157600295505050505050611319565b5060039695505050505050565b612e296120796136f4565b612e645760405162461bcd60e51b81526004018080602001828103825260318152602001806154a16031913960400191505060405180910390fd5b612e70848484846142da565b50505050565b606080612e8283611cf5565b5091925060019150612e919050565b612e9a84612c9e565b6003811115612ea557fe5b1415612f8357612eb3611ea4565b6040518060600160405280602e81526020016150fc602e91396040516020018083805190602001908083835b60208310612efe5780518252601f199092019160209182019101612edf565b51815160209384036101000a600019018019909216911617905285519190930192850191508083835b60208310612f465780518252601f199092019160209182019101612f27565b6001836020036101000a03801982511681845116808217855250505050505090500192505050604051602081830303815290604052915050611319565b6002612f8e84612c9e565b6003811115612f9957fe5b141561310a57612fa7611ea4565b60316000836040516020018080602001828103825283818151815260200191508051906020019080838360005b83811015612fec578181015183820152602001612fd4565b50505050905090810190601f1680156130195780820380516001836020036101000a031916815260200191505b50925050506040516020818303038152906040528051906020012081526020019081526020016000206040516020018083805190602001908083835b602083106130745780518252601f199092019160209182019101613055565b6001836020036101000a038019825116818451168082178552505050505050905001828054600181600116156101000203166002900480156130ed5780601f106130cb5761010080835404028352918201916130ed565b820191906000526020600020905b8154815290600101906020018083116130d9575b505092505050604051602081830303815290604052915050611319565b613112611ea4565b60326000836040516020018080602001828103825283818151815260200191508051906020019080838360005b8381101561315757818101518382015260200161313f565b50505050905090810190601f1680156131845780820380516001836020036101000a031916815260200191505b50925050506040516020818303038152906040528051906020012081526020019081526020016000206040516020018083805190602001908083835b602083106131df5780518252601f1990920191602091820191016131c0565b6001836020036101000a038019825116818451168082178552505050505050905001828054600181600116156101000203166002900480156132585780601f10613236576101008083540402835291820191613258565b820191906000526020600020905b815481529060010190602001808311613244575b505060408051601f198184030181529190529695505050505050565b6000818152602081905260408120611af3906138a3565b600e6020908152600091825260409182902080548351601f600260001961010060018616150201909316929092049182018490048402810184019094528084529092918391908301828280156133225780601f106132f757610100808354040283529160200191613322565b820191906000526020600020905b81548152906001019060200180831161330557829003601f168201915b5050505050908060010154908060020154905083565b604080516d4445504f5349544f525f524f4c4560901b8152905190819003600e01902061336781611a7a6136f4565b6033906134075760405162461bcd60e51b81526020600482019081528254600260001961010060018416150201909116046024830181905290918291604490910190849080156133f85780601f106133cd576101008083540402835291602001916133f8565b820191906000526020600020905b8154815290600101906020018083116133db57829003601f168201915b50509250505060405180910390fd5b5060208214156134375760008383602081101561342357600080fd5b503590506134318582613d4a565b50612e70565b60608383602081101561344957600080fd5b810190602081018135600160201b81111561346357600080fd5b82018360208201111561347557600080fd5b803590602001918460208302840111600160201b8311171561349657600080fd5b91908080602002602001604051908101604052809392919081815260200183836020028082843760009201829052508451949850939650929450505050505b81811015613502576134fa878483815181106134ed57fe5b6020026020010151613d4a565b6001016134d5565b50505050505050565b604080516a4d494e5445525f524f4c4560a81b8152905190819003600b01902081565b60008281526020819052604090206002015461354c90611a7a6136f4565b611b545760405162461bcd60e51b815260040180806020018281038252603081526020018061522c6030913960400191505060405180910390fd5b604080516a5041555345525f524f4c4560a81b8152905190819003600b01902081565b6001600160a01b03918216600090815260066020908152604080832093909416825291909152205460ff1690565b6135e06136f4565b6001600160a01b03166135f161219d565b6001600160a01b03161461363a576040805162461bcd60e51b815260206004820181905260248201526000805160206153bf833981519152604482015290519081900360640190fd5b6001600160a01b03811661367f5760405162461bcd60e51b81526004018080602001828103825260268152602001806150d66026913960400191505060405180910390fd5b600d546040516001600160a01b038084169216907f8be0079c531659141344cd1fd0a4f28419497f9722a3daafe3b4186f6b6457e090600090a3600d80546001600160a01b0319166001600160a01b0392909216919091179055565b612a3081565b6000611af360038363ffffffff61432c16565b60006118b7614338565b600081815260056020526040902080546001600160a01b0319166001600160a01b038416908117909155819061373382611dcc565b6001600160a01b03167f8c5be1e5ebec7d5bd14f71427d1e84f3dd0314c0f7b2291e5b200ac8c7c3b92560405160405180910390a45050565b60006001600160a01b0386166137b35760405162461bcd60e51b815260040180806020018281038252602581526020018061527d6025913960400191505060405180910390fd5b60016137c66137c187614395565b614421565b83868660405160008152602001604052604051808581526020018460ff1660ff1681526020018381526020018281526020019450505050506020604051602081039080840390855afa158015613820573d6000803e3d6000fd5b505050602060405103516001600160a01b0316866001600160a01b031614905095945050505050565b600082820183811015611af0576040805162461bcd60e51b815260206004820152601b60248201527f536166654d6174683a206164646974696f6e206f766572666c6f770000000000604482015290519081900360640190fd5b6000611af382613d46565b60006138b9826136e1565b6138f45760405162461bcd60e51b815260040180806020018281038252602c815260200180615200602c913960400191505060405180910390fd5b60006138ff83611dcc565b9050806001600160a01b0316846001600160a01b0316148061393a5750836001600160a01b031661392f846113b5565b6001600160a01b0316145b8061394a575061394a81856135aa565b949350505050565b826001600160a01b031661396582611dcc565b6001600160a01b0316146139aa5760405162461bcd60e51b81526004018080602001828103825260298152602001806153df6029913960400191505060405180910390fd5b6001600160a01b0382166139ef5760405162461bcd60e51b815260040180806020018281038252602481526020018061518f6024913960400191505060405180910390fd5b6139fa83838361446d565b613a056000826136fe565b6001600160a01b0383166000908152600260205260409020613a2d908263ffffffff6144cd16565b506001600160a01b0382166000908152600260205260409020613a56908263ffffffff6144d916565b50613a696003828463ffffffff6144e516565b5080826001600160a01b0316846001600160a01b03167fddf252ad1be2c89b69c2b068fc378daa952ba7f163c4a11628f55a4df523b3ef60405160405180910390a4505050565b6000613abb82611dcc565b9050613ac98160008461446d565b613ad46000836136fe565b6000828152600960205260409020546002600019610100600184161502019091160415613b12576000828152600960205260408120613b1291614f3e565b6001600160a01b0381166000908152600260205260409020613b3a908363ffffffff6144cd16565b50613b4c60038363ffffffff6144fb16565b5060405182906000906001600160a01b038416907fddf252ad1be2c89b69c2b068fc378daa952ba7f163c4a11628f55a4df523b3ef908390a45050565b6000828152602081905260409020613ba7908263ffffffff61450716565b15611ac457613bb46136f4565b6001600160a01b0316816001600160a01b0316837f2f8788117e7eff1d82e926ec794901d17c78024a50270940304540a733656f0d60405160405180910390a45050565b6000611af0838361451c565b6000828152602081905260409020613c22908263ffffffff61458016565b15611ac457613c2f6136f4565b6001600160a01b0316816001600160a01b0316837ff6391f5c32d9c69d2a47ea670b442974b53935d1edc7fd64eb21e047a839171b60405160405180910390a45050565b613c7b611cec565b613cc3576040805162461bcd60e51b815260206004820152601460248201527314185d5cd8589b194e881b9bdd081c185d5cd95960621b604482015290519081900360640190fd5b600b805460ff191690557f5db9ee0a495bf2e6ff9c91a7834c1ba4fdd244a5e8aa4e537bd38aeae4b073aa613cf66136f4565b604080516001600160a01b039092168252519081900360200190a1565b6000808080613d228686614595565b9097909650945050505050565b6000613d3c848484614610565b90505b9392505050565b5490565b6001600160a01b038216613da5576040805162461bcd60e51b815260206004820181905260248201527f4552433732313a206d696e7420746f20746865207a65726f2061646472657373604482015290519081900360640190fd5b613dae816136e1565b15613e00576040805162461bcd60e51b815260206004820152601c60248201527f4552433732313a20746f6b656e20616c7265616479206d696e74656400000000604482015290519081900360640190fd5b613e0c6000838361446d565b6001600160a01b0382166000908152600260205260409020613e34908263ffffffff6144d916565b50613e476003828463ffffffff6144e516565b5060405181906001600160a01b038416906000907fddf252ad1be2c89b69c2b068fc378daa952ba7f163c4a11628f55a4df523b3ef908290a45050565b80546001019055565b6040805142602080830191909152448284015260608083018590528351808403909101815260809092019092528051910120600090613ecc848261469d565b5092915050565b613edb611cec565b15613f20576040805162461bcd60e51b815260206004820152601060248201526f14185d5cd8589b194e881c185d5cd95960821b604482015290519081900360640190fd5b600b805460ff191660011790557f62e78cea01bee320cd4e420270b5ea74000d11b0c9f74754ebdbfc544b05a258613cf66136f4565b6000611af0836001600160a01b0384166146f7565b600082613f7a57506000611af3565b82820282848281613f8757fe5b0414611af05760405162461bcd60e51b81526004018080602001828103825260218152602001806153726021913960400191505060405180910390fd5b611ac482826040518060200160405280600081525061470f565b7f8c5261668696ce22758910d05bab8f186d6eb247ceac2af2e82c7dc17669b036816040518080602001828103825283818151815260200191508051906020019080838360005b8381101561403d578181015183820152602001614025565b50505050905090810190601f16801561406a5780820380516001836020036101000a031916815260200191505b509250505060405180910390a150565b60385482906001600160a01b038083169116146140c85760405162461bcd60e51b815260040180806020018281038252602b815260200180615036602b913960400191505060405180910390fd5b606060008060008580602001905160808110156140e457600080fd5b8101908080516040519392919084600160201b82111561410357600080fd5b90830190602082018581111561411857600080fd5b8251600160201b81118282018810171561413157600080fd5b82525081516020918201929091019080838360005b8381101561415e578181015183820152602001614146565b50505050905090810190601f16801561418b5780820380516001836020036101000a031916815260200191505b5060408181526020838101518483015160609586015195850184528885528285018290528484018190526000868152600e84529390932084518051999d50919b5092995093975091959094506141e79350849290910190614ea3565b50602082015160018201556040909101516002909101555050505050505050565b4290565b6000808211614262576040805162461bcd60e51b815260206004820152601a60248201527f536166654d6174683a206469766973696f6e206279207a65726f000000000000604482015290519081900360640190fd5b81838161426b57fe5b049392505050565b60008082116142c9576040805162461bcd60e51b815260206004820152601860248201527f536166654d6174683a206d6f64756c6f206279207a65726f0000000000000000604482015290519081900360640190fd5b8183816142d257fe5b069392505050565b6142e5848484613952565b6142f184848484614761565b612e705760405162461bcd60e51b81526004018080602001828103825260328152602001806150616032913960400191505060405180910390fd5b6000611af083836146f7565b6000333014156143905760606000368080601f0160208091040260200160405190810160405280939291908181526020018383808284376000920191909152505050503601516001600160a01b031691506113b29050565b503390565b600060405180608001604052806043815260200161509360439139805190602001208260000151836020015184604001518051906020012060405160200180858152602001848152602001836001600160a01b03166001600160a01b03168152602001828152602001945050505050604051602081830303815290604052805190602001209050919050565b600061442b6118db565b82604051602001808061190160f01b81525060020183815260200182815260200192505050604051602081830303815290604052805190602001209050919050565b6001600160a01b0382161580614487575061448781611dfa565b6144c25760405162461bcd60e51b815260040180806020018281038252602781526020018061547a6027913960400191505060405180910390fd5b6114ed8383836148e1565b6000611af083836148ec565b6000611af083836149b2565b6000613d3c84846001600160a01b0385166149fc565b6000611af08383614a93565b6000611af0836001600160a01b0384166149b2565b8154600090821061455e5760405162461bcd60e51b8152600401808060200182810382526022815260200180614fba6022913960400191505060405180910390fd5b82600001828154811061456d57fe5b9060005260206000200154905092915050565b6000611af0836001600160a01b0384166148ec565b8154600090819083106145d95760405162461bcd60e51b81526004018080602001828103825260228152602001806153506022913960400191505060405180910390fd5b60008460000184815481106145ea57fe5b906000526020600020906002020190508060000154816001015492509250509250929050565b6000828152600184016020526040812054828161466e5760405162461bcd60e51b815260206004820181815283516024840152835190928392604490910191908501908083836000831561266757818101518382015260200161264f565b5084600001600182038154811061468157fe5b9060005260206000209060020201600101549150509392505050565b6000828152600e6020526040902060606146c16146bc84612710614273565b614b67565b80519091506146d69083906020840190614ea3565b506146df614208565b600183015560006146ef85611dcc565b505050505050565b60009081526001919091016020526040902054151590565b6147198383613d4a565b6147266000848484614761565b6114ed5760405162461bcd60e51b81526004018080602001828103825260328152602001806150616032913960400191505060405180910390fd5b6000614775846001600160a01b0316614c53565b6147815750600161394a565b60606148a7630a85bd0160e11b6147966136f4565b88878760405160240180856001600160a01b03166001600160a01b03168152602001846001600160a01b03166001600160a01b0316815260200183815260200180602001828103825283818151815260200191508051906020019080838360005b8381101561480f5781810151838201526020016147f7565b50505050905090810190601f16801561483c5780820380516001836020036101000a031916815260200191505b5095505050505050604051602081830303815290604052906001600160e01b0319166020820180516001600160e01b038381831617835250505050604051806060016040528060328152602001615061603291396001600160a01b038816919063ffffffff614c5916565b905060008180602001905160208110156148c057600080fd5b50516001600160e01b031916630a85bd0160e11b1492505050949350505050565b6114ed838383614c68565b600081815260018301602052604081205480156149a8578354600019808301919081019060009087908390811061491f57fe5b906000526020600020015490508087600001848154811061493c57fe5b60009182526020808320909101929092558281526001898101909252604090209084019055865487908061496c57fe5b60019003818190600052602060002001600090559055866001016000878152602001908152602001600020600090556001945050505050611af3565b6000915050611af3565b60006149be83836146f7565b6149f457508154600181810184556000848152602080822090930184905584548482528286019093526040902091909155611af3565b506000611af3565b600082815260018401602052604081205480614a61575050604080518082018252838152602080820184815286546001818101895560008981528481209551600290930290950191825591519082015586548684528188019092529290912055613d3f565b82856000016001830381548110614a7457fe5b9060005260206000209060020201600101819055506000915050613d3f565b600081815260018301602052604081205480156149a85783546000198083019190810190600090879083908110614ac657fe5b9060005260206000209060020201905080876000018481548110614ae657fe5b600091825260208083208454600290930201918255600193840154918401919091558354825289830190526040902090840190558654879080614b2557fe5b6000828152602080822060026000199094019384020182815560019081018390559290935588815289820190925260408220919091559450611af39350505050565b606060005b600a811015614c4d57601081600a8110614b8257fe5b601091828204019190066002029054906101000a900461ffff1661ffff168311614c4557601181600a8110614bb357fe5b01805460408051602060026001851615610100026000190190941693909304601f81018490048402820184019092528181529291830182828015614c385780601f10614c0d57610100808354040283529160200191614c38565b820191906000526020600020905b815481529060010190602001808311614c1b57829003601f168201915b5050505050915050611319565b600101614b6c565b50919050565b3b151590565b6060613d3c8484600085614cb7565b614c738383836114ed565b614c7b611cec565b156114ed5760405162461bcd60e51b815260040180806020018281038252602b815260200180614fdc602b913960400191505060405180910390fd5b606082471015614cf85760405162461bcd60e51b81526004018080602001828103825260268152602001806151b36026913960400191505060405180910390fd5b614d0185614c53565b614d52576040805162461bcd60e51b815260206004820152601d60248201527f416464726573733a2063616c6c20746f206e6f6e2d636f6e7472616374000000604482015290519081900360640190fd5b60006060866001600160a01b031685876040518082805190602001908083835b60208310614d915780518252601f199092019160209182019101614d72565b6001836020036101000a03801982511681845116808217855250505050505090500191505060006040518083038185875af1925050503d8060008114614df3576040519150601f19603f3d011682016040523d82523d6000602084013e614df8565b606091505b5091509150614e08828286614e13565b979650505050505050565b60608315614e22575081613d3f565b825115614e325782518084602001fd5b60405162461bcd60e51b815260206004820181815284516024840152845185939192839260440191908501908083836000831561266757818101518382015260200161264f565b60405180606001604052806000815260200160006001600160a01b03168152602001606081525090565b828054600181600116156101000203166002900490600052602060002090601f016020900481019282601f10614ee457805160ff1916838001178555614f11565b82800160010185558215614f11579182015b82811115614f11578251825591602001919060010190614ef6565b506127e7929150614f7e565b60405180606001604052806060815260200160008152602001600081525090565b50805460018160011615610100020316600290046000825580601f10614f645750611a59565b601f016020900490600052602060002090810190611a5991905b6113b291905b808211156127e75760008155600101614f8456fe4678426173654368696c6454756e6e656c3a20494e56414c49445f53454e444552456e756d657261626c655365743a20696e646578206f7574206f6620626f756e64734552433732315061757361626c653a20746f6b656e207472616e73666572207768696c6520706175736564416363657373436f6e74726f6c3a2073656e646572206d75737420626520616e2061646d696e20746f206772616e744678426173654368696c6454756e6e656c3a20494e56414c49445f53454e4445525f46524f4d5f524f4f544552433732313a207472616e7366657220746f206e6f6e20455243373231526563656976657220696d706c656d656e7465724d6574615472616e73616374696f6e2875696e74323536206e6f6e63652c616464726573732066726f6d2c62797465732066756e6374696f6e5369676e6174757265294f776e61626c653a206e6577206f776e657220697320746865207a65726f2061646472657373516d5764316d6e374475477978394279664e6571437367645355734a5a316372616769746761796773714476456d4765726d696e6174696f6e2073746172747320323032312d30342d31325431363a30303a30305a4552433732315072657365744d696e7465725061757365724175746f49643a206d75737420686176652070617573657220726f6c6520746f2070617573654552433732313a207472616e7366657220746f20746865207a65726f2061646472657373416464726573733a20696e73756666696369656e742062616c616e636520666f722063616c6c4f6e6c7920746865204f776e65722063616e20776174657220612043727970744f72636869642e4552433732313a206f70657261746f7220717565727920666f72206e6f6e6578697374656e7420746f6b656e416363657373436f6e74726f6c3a2073656e646572206d75737420626520616e2061646d696e20746f207265766f6b654368696c644552433732313a20494e56414c49445f544f4b454e5f4f574e4552204e61746976654d6574615472616e73616374696f6e3a20494e56414c49445f5349474e45524552433732313a20617070726f76652063616c6c6572206973206e6f74206f776e6572206e6f7220617070726f76656420666f7220616c6c4552433732313a2062616c616e636520717565727920666f7220746865207a65726f20616464726573734552433732313a206f776e657220717565727920666f72206e6f6e6578697374656e7420746f6b656e45746865722076616c75652073656e742069732062656c6f7720746865207072696365456e756d657261626c654d61703a20696e646578206f7574206f6620626f756e6473536166654d6174683a206d756c7469706c69636174696f6e206f766572666c6f774552433732313a20617070726f76656420717565727920666f72206e6f6e6578697374656e7420746f6b656e4f776e61626c653a2063616c6c6572206973206e6f7420746865206f776e65724552433732313a207472616e73666572206f6620746f6b656e2074686174206973206e6f74206f776e5369676e657220616e64207369676e617475726520646f206e6f74206d61746368596f752063616e20706c616e74206d696e696d756d20312c206d6178696d756d2032302043727970744f7263686964734552433732313a20617070726f76616c20746f2063757272656e74206f776e6572446561642043727970744f7263686964732063616e6e6f74206265207472616e736665727265644552433732313a207472616e736665722063616c6c6572206973206e6f74206f776e6572206e6f7220617070726f7665644f6e6c7920746865204f776e65722063616e206765726d696e61746520612043727970744f72636869642e4552433732315072657365744d696e7465725061757365724175746f49643a206d7573742068617665206d696e74657220726f6c6520746f206d696e744552433732314275726e61626c653a2063616c6c6572206973206e6f74206f776e6572206e6f7220617070726f7665644552433732315072657365744d696e7465725061757365724175746f49643a206d75737420686176652070617573657220726f6c6520746f20756e70617573654678426173654368696c6454756e6e656c3a20524f4f545f54554e4e454c5f414c52454144595f534554416363657373436f6e74726f6c3a2063616e206f6e6c792072656e6f756e636520726f6c657320666f722073656c66a2646970667358221220e290e661f06b099131748d4903ab89ac02e7e4c155b3877ae9cfb4be903ad42964736f6c63430006060033516d55384d4e7a6e5436464431763558646e536541366345597178706a374d676b4543706f7433614345526572582f637970726970656469756d2d63616c63656f6c75732e6a736f6e516d55384d4e7a6e5436464431763558646e536541366345597178706a374d676b4543706f7433614345526572582f64656e64726f7068796c61782d6c696e64656e69692e6a736f6e516d56376e735167484e76777952786262685035396948336772715366713367376a6f53506153314a47526d4a612f70617068696f706564696c756d2d726f7468736368696c6469616e756d2e6a736f6e516d55384d4e7a6e5436464431763558646e536541366345597178706a374d676b4543706f7433614345526572582f706c6174616e74686572612d617a6f726963612e6a736f6e454950373132446f6d61696e28737472696e67206e616d652c737472696e672076657273696f6e2c6164647265737320766572696679696e67436f6e74726163742c627974657333322073616c7429516d56376e735167484e76777952786262685035396948336772715366713367376a6f53506153314a47526d4a612f637970726970656469756d2d63616c63656f6c75732e6a736f6e516d56376e735167484e76777952786262685035396948336772715366713367376a6f53506153314a47526d4a612f7068616c61656e6f707369732d6d6963686f6c69747a69692e6a736f6e516d55384d4e7a6e5436464431763558646e536541366345597178706a374d676b4543706f7433614345526572582f76616e64612d636f6572756c65612e6a736f6e516d55384d4e7a6e5436464431763558646e536541366345597178706a374d676b4543706f7433614345526572582f6d696c746f6e69612d6b61796173696d61652e6a736f6e516d56376e735167484e76777952786262685035396948336772715366713367376a6f53506153314a47526d4a612f70617068696f706564696c756d2d766965746e616d656e73652e6a736f6e516d55384d4e7a6e5436464431763558646e536541366345597178706a374d676b4543706f7433614345526572582f6775617269616e7468652d617572616e74696163612e6a736f6e516d56376e735167484e76777952786262685035396948336772715366713367376a6f53506153314a47526d4a612f7368656e7a68656e6963612d6f726368696461636561652e6a736f6e516d56376e735167484e76777952786262685035396948336772715366713367376a6f53506153314a47526d4a612f6d696c746f6e69612d6b61796173696d61652e6a736f6e516d56376e735167484e76777952786262685035396948336772715366713367376a6f53506153314a47526d4a612f76616e64612d636f6572756c65612e6a736f6e516d55384d4e7a6e5436464431763558646e536541366345597178706a374d676b4543706f7433614345526572582f70617068696f706564696c756d2d726f7468736368696c6469616e756d2e6a736f6e516d56376e735167484e76777952786262685035396948336772715366713367376a6f53506153314a47526d4a612f6775617269616e7468652d617572616e74696163612e6a736f6e516d55384d4e7a6e5436464431763558646e536541366345597178706a374d676b4543706f7433614345526572582f70617068696f706564696c756d2d766965746e616d656e73652e6a736f6e516d56376e735167484e76777952786262685035396948336772715366713367376a6f53506153314a47526d4a612f64656e64726f7068796c61782d6c696e64656e69692e6a736f6e516d55384d4e7a6e5436464431763558646e536541366345597178706a374d676b4543706f7433614345526572582f7068616c61656e6f707369732d6d6963686f6c69747a69692e6a736f6e516d55384d4e7a6e5436464431763558646e536541366345597178706a374d676b4543706f7433614345526572582f7368656e7a68656e6963612d6f726368696461636561652e6a736f6e516d56376e735167484e76777952786262685035396948336772715366713367376a6f53506153314a47526d4a612f706c6174616e74686572612d617a6f726963612e6a736f6e",
  "devdoc": {
    "methods": {
      "approve(address,uint256)": {
        "details": "See {IERC721-approve}."
      },
      "balanceOf(address)": {
        "details": "See {IERC721-balanceOf}."
      },
      "baseURI()": {
        "details": "Returns the base URI set via {_setBaseURI}. This will be automatically added as a prefix in {tokenURI} to each token's URI, or to the token ID if no specific URI is set for that token ID."
      },
      "burn(uint256)": {
        "details": "Burns `tokenId`. See {ERC721-_burn}.     * Requirements:     * - The caller must own `tokenId` or be an approved operator."
      },
      "deposit(address,bytes)": {
        "details": "Should be callable only by ChildChainManager Should handle deposit by minting the required tokenId for user Make sure minting is done only by this function",
        "params": {
          "depositData": "abi encoded tokenId",
          "user": "user address for whom deposit is being done"
        }
      },
      "encodeTokenMetadata(uint256)": {
        "params": {
          "tokenId": "Token for which URI to be fetched"
        }
      },
      "getApproved(uint256)": {
        "details": "See {IERC721-getApproved}."
      },
      "getRoleAdmin(bytes32)": {
        "details": "Returns the admin role that controls `role`. See {grantRole} and {revokeRole}.     * To change a role's admin, use {_setRoleAdmin}."
      },
      "getRoleMember(bytes32,uint256)": {
        "details": "Returns one of the accounts that have `role`. `index` must be a value between 0 and {getRoleMemberCount}, non-inclusive.     * Role bearers are not sorted in any particular way, and their ordering may change at any point.     * WARNING: When using {getRoleMember} and {getRoleMemberCount}, make sure you perform all queries on the same block. See the following https://forum.openzeppelin.com/t/iterating-over-elements-on-enumerableset-in-openzeppelin-contracts/2296[forum post] for more information."
      },
      "getRoleMemberCount(bytes32)": {
        "details": "Returns the number of accounts that have `role`. Can be used together with {getRoleMember} to enumerate all bearers of a role."
      },
      "grantRole(bytes32,address)": {
        "details": "Grants `role` to `account`.     * If `account` had not been already granted `role`, emits a {RoleGranted} event.     * Requirements:     * - the caller must have ``role``'s admin role."
      },
      "hasRole(bytes32,address)": {
        "details": "Returns `true` if `account` has been granted `role`."
      },
      "isApprovedForAll(address,address)": {
        "details": "See {IERC721-isApprovedForAll}."
      },
      "mint(address)": {
        "details": "Creates a new token for `to`. Its token ID will be automatically assigned (and available on the emitted {IERC721-Transfer} event), and the token URI autogenerated based on the base URI passed at construction.     * See {ERC721-_mint}.     * Requirements:     * - the caller must have the `MINTER_ROLE`."
      },
      "name()": {
        "details": "See {IERC721Metadata-name}."
      },
      "owner()": {
        "details": "Returns the address of the current owner."
      },
      "ownerOf(uint256)": {
        "details": "See {IERC721-ownerOf}."
      },
      "pause()": {
        "details": "Pauses all token transfers.     * See {ERC721Pausable} and {Pausable-_pause}.     * Requirements:     * - the caller must have the `PAUSER_ROLE`."
      },
      "paused()": {
        "details": "Returns true if the contract is paused, and false otherwise."
      },
      "renounceOwnership()": {
        "details": "Leaves the contract without owner. It will not be possible to call `onlyOwner` functions anymore. Can only be called by the current owner.     * NOTE: Renouncing ownership will leave the contract without an owner, thereby removing any functionality that is only available to the owner."
      },
      "renounceRole(bytes32,address)": {
        "details": "Revokes `role` from the calling account.     * Roles are often managed via {grantRole} and {revokeRole}: this function's purpose is to provide a mechanism for accounts to lose their privileges if they are compromised (such as when a trusted device is misplaced).     * If the calling account had been granted `role`, emits a {RoleRevoked} event.     * Requirements:     * - the caller must be `account`."
      },
      "revokeRole(bytes32,address)": {
        "details": "Revokes `role` from `account`.     * If `account` had been granted `role`, emits a {RoleRevoked} event.     * Requirements:     * - the caller must have ``role``'s admin role."
      },
      "safeTransferFrom(address,address,uint256)": {
        "details": "See {IERC721-safeTransferFrom}."
      },
      "safeTransferFrom(address,address,uint256,bytes)": {
        "details": "See {IERC721-safeTransferFrom}."
      },
      "setApprovalForAll(address,bool)": {
        "details": "See {IERC721-setApprovalForAll}."
      },
      "supportsInterface(bytes4)": {
        "details": "See {IERC165-supportsInterface}.     * Time complexity O(1), guaranteed to always use less than 30 000 gas."
      },
      "symbol()": {
        "details": "See {IERC721Metadata-symbol}."
      },
      "tokenByIndex(uint256)": {
        "details": "See {IERC721Enumerable-tokenByIndex}."
      },
      "tokenOfOwnerByIndex(address,uint256)": {
        "details": "See {IERC721Enumerable-tokenOfOwnerByIndex}."
      },
      "totalSupply()": {
        "details": "See {IERC721Enumerable-totalSupply}."
      },
      "transferFrom(address,address,uint256)": {
        "details": "See {IERC721-transferFrom}."
      },
      "transferOwnership(address)": {
        "details": "Transfers ownership of the contract to a new account (`newOwner`). Can only be called by the current owner."
      },
      "unpause()": {
        "details": "Unpauses all token transfers.     * See {ERC721Pausable} and {Pausable-_unpause}.     * Requirements:     * - the caller must have the `PAUSER_ROLE`."
      },
      "withdraw()": {
        "details": "Withdraw ether from this contract (Callable by owner only)"
      },
      "withdraw(uint256)": {
        "details": "Should burn user's token. This transaction will be verified when exiting on root chain",
        "params": {
          "tokenId": "tokenId to withdraw"
        }
      },
      "withdrawBatch(uint256[])": {
        "details": "Should burn user's tokens. This transaction will be verified when exiting on root chain",
        "params": {
          "tokenIds": "tokenId list to withdraw"
        }
      },
      "withdrawWithMetadata(uint256)": {
        "details": "Should handle withraw by burning user's token.     * This transaction will be verified when exiting on root chain",
        "params": {
          "tokenId": "tokenId to withdraw"
        }
      }
    }
  },
  "userdoc": {
    "methods": {
      "deposit(address,bytes)": {
        "notice": "called when token is deposited on root chain"
      },
      "encodeTokenMetadata(uint256)": {
        "notice": "This method is supposed to be called by client when withdrawing token with metadata and pass return value of this function as second paramter of `withdrawWithMetadata` method     * It can be overridden by clients to encode data in a different form, which needs to be decoded back by them correctly during exiting"
      },
      "withdraw(uint256)": {
        "notice": "called when user wants to withdraw token back to root chain"
      },
      "withdrawBatch(uint256[])": {
        "notice": "called when user wants to withdraw multiple tokens back to root chain"
      },
      "withdrawWithMetadata(uint256)": {
        "notice": "called when user wants to withdraw token back to root chain with arbitrary metadata"
      }
    }
  },
  "storageLayout": {
    "storage": [
      {
        "astId": 549,
        "contract": "contracts/CryptOrchidERC721Child/CryptOrchidERC721Child.sol:CryptOrchidERC721Child",
        "label": "_roles",
        "offset": 0,
        "slot": "0",
        "type": "t_mapping(t_bytes32,t_struct(RoleData)545_storage)"
      },
      {
        "astId": 932,
        "contract": "contracts/CryptOrchidERC721Child/CryptOrchidERC721Child.sol:CryptOrchidERC721Child",
        "label": "_supportedInterfaces",
        "offset": 0,
        "slot": "1",
        "type": "t_mapping(t_bytes4,t_bool)"
      },
      {
        "astId": 3555,
        "contract": "contracts/CryptOrchidERC721Child/CryptOrchidERC721Child.sol:CryptOrchidERC721Child",
        "label": "_holderTokens",
        "offset": 0,
        "slot": "2",
        "type": "t_mapping(t_address,t_struct(UintSet)6038_storage)"
      },
      {
        "astId": 3557,
        "contract": "contracts/CryptOrchidERC721Child/CryptOrchidERC721Child.sol:CryptOrchidERC721Child",
        "label": "_tokenOwners",
        "offset": 0,
        "slot": "3",
        "type": "t_struct(UintToAddressMap)5415_storage"
      },
      {
        "astId": 3561,
        "contract": "contracts/CryptOrchidERC721Child/CryptOrchidERC721Child.sol:CryptOrchidERC721Child",
        "label": "_tokenApprovals",
        "offset": 0,
        "slot": "5",
        "type": "t_mapping(t_uint256,t_address)"
      },
      {
        "astId": 3567,
        "contract": "contracts/CryptOrchidERC721Child/CryptOrchidERC721Child.sol:CryptOrchidERC721Child",
        "label": "_operatorApprovals",
        "offset": 0,
        "slot": "6",
        "type": "t_mapping(t_address,t_mapping(t_address,t_bool))"
      },
      {
        "astId": 3569,
        "contract": "contracts/CryptOrchidERC721Child/CryptOrchidERC721Child.sol:CryptOrchidERC721Child",
        "label": "_name",
        "offset": 0,
        "slot": "7",
        "type": "t_string_storage"
      },
      {
        "astId": 3571,
        "contract": "contracts/CryptOrchidERC721Child/CryptOrchidERC721Child.sol:CryptOrchidERC721Child",
        "label": "_symbol",
        "offset": 0,
        "slot": "8",
        "type": "t_string_storage"
      },
      {
        "astId": 3575,
        "contract": "contracts/CryptOrchidERC721Child/CryptOrchidERC721Child.sol:CryptOrchidERC721Child",
        "label": "_tokenURIs",
        "offset": 0,
        "slot": "9",
        "type": "t_mapping(t_uint256,t_string_storage)"
      },
      {
        "astId": 3577,
        "contract": "contracts/CryptOrchidERC721Child/CryptOrchidERC721Child.sol:CryptOrchidERC721Child",
        "label": "_baseURI",
        "offset": 0,
        "slot": "10",
        "type": "t_string_storage"
      },
      {
        "astId": 6151,
        "contract": "contracts/CryptOrchidERC721Child/CryptOrchidERC721Child.sol:CryptOrchidERC721Child",
        "label": "_paused",
        "offset": 0,
        "slot": "11",
        "type": "t_bool"
      },
      {
        "astId": 1374,
        "contract": "contracts/CryptOrchidERC721Child/CryptOrchidERC721Child.sol:CryptOrchidERC721Child",
        "label": "_tokenIdTracker",
        "offset": 0,
        "slot": "12",
        "type": "t_struct(Counter)5041_storage"
      },
      {
        "astId": 817,
        "contract": "contracts/CryptOrchidERC721Child/CryptOrchidERC721Child.sol:CryptOrchidERC721Child",
        "label": "_owner",
        "offset": 0,
        "slot": "13",
        "type": "t_address"
      },
      {
        "astId": 8425,
        "contract": "contracts/CryptOrchidERC721Child/CryptOrchidERC721Child.sol:CryptOrchidERC721Child",
        "label": "cryptorchids",
        "offset": 0,
        "slot": "14",
        "type": "t_mapping(t_uint256,t_struct(CryptOrchid)8421_storage)"
      },
      {
        "astId": 8433,
        "contract": "contracts/CryptOrchidERC721Child/CryptOrchidERC721Child.sol:CryptOrchidERC721Child",
        "label": "saleStarted",
        "offset": 0,
        "slot": "15",
        "type": "t_bool"
      },
      {
        "astId": 8436,
        "contract": "contracts/CryptOrchidERC721Child/CryptOrchidERC721Child.sol:CryptOrchidERC721Child",
        "label": "growingStarted",
        "offset": 1,
        "slot": "15",
        "type": "t_bool"
      },
      {
        "astId": 8470,
        "contract": "contracts/CryptOrchidERC721Child/CryptOrchidERC721Child.sol:CryptOrchidERC721Child",
        "label": "limits",
        "offset": 0,
        "slot": "16",
        "type": "t_array(t_uint16)10_storage"
      },
      {
        "astId": 8485,
        "contract": "contracts/CryptOrchidERC721Child/CryptOrchidERC721Child.sol:CryptOrchidERC721Child",
        "label": "genum",
        "offset": 0,
        "slot": "17",
        "type": "t_array(t_string_storage)10_storage"
      },
      {
        "astId": 8500,
        "contract": "contracts/CryptOrchidERC721Child/CryptOrchidERC721Child.sol:CryptOrchidERC721Child",
        "label": "speciesIPFSConstant",
        "offset": 0,
        "slot": "27",
        "type": "t_array(t_string_storage)10_storage"
      },
      {
        "astId": 8515,
        "contract": "contracts/CryptOrchidERC721Child/CryptOrchidERC721Child.sol:CryptOrchidERC721Child",
        "label": "deadSpeciesIPFSConstant",
        "offset": 0,
        "slot": "37",
        "type": "t_array(t_string_storage)10_storage"
      },
      {
        "astId": 8517,
        "contract": "contracts/CryptOrchidERC721Child/CryptOrchidERC721Child.sol:CryptOrchidERC721Child",
        "label": "_tokenIds",
        "offset": 0,
        "slot": "47",
        "type": "t_struct(Counter)5041_storage"
      },
      {
        "astId": 8521,
        "contract": "contracts/CryptOrchidERC721Child/CryptOrchidERC721Child.sol:CryptOrchidERC721Child",
        "label": "requestToToken",
        "offset": 0,
        "slot": "48",
        "type": "t_mapping(t_bytes32,t_uint256)"
      },
      {
        "astId": 8525,
        "contract": "contracts/CryptOrchidERC721Child/CryptOrchidERC721Child.sol:CryptOrchidERC721Child",
        "label": "speciesIPFS",
        "offset": 0,
        "slot": "49",
        "type": "t_mapping(t_bytes32,t_string_storage)"
      },
      {
        "astId": 8529,
        "contract": "contracts/CryptOrchidERC721Child/CryptOrchidERC721Child.sol:CryptOrchidERC721Child",
        "label": "deadSpeciesIPFS",
        "offset": 0,
        "slot": "50",
        "type": "t_mapping(t_bytes32,t_string_storage)"
      },
      {
        "astId": 11967,
        "contract": "contracts/CryptOrchidERC721Child/CryptOrchidERC721Child.sol:CryptOrchidERC721Child",
        "label": "_revertMsg",
        "offset": 0,
        "slot": "51",
        "type": "t_string_storage"
      },
      {
        "astId": 12159,
        "contract": "contracts/CryptOrchidERC721Child/CryptOrchidERC721Child.sol:CryptOrchidERC721Child",
        "label": "inited",
        "offset": 0,
        "slot": "52",
        "type": "t_bool"
      },
      {
        "astId": 12066,
        "contract": "contracts/CryptOrchidERC721Child/CryptOrchidERC721Child.sol:CryptOrchidERC721Child",
        "label": "domainSeperator",
        "offset": 0,
        "slot": "53",
        "type": "t_bytes32"
      },
      {
        "astId": 12205,
        "contract": "contracts/CryptOrchidERC721Child/CryptOrchidERC721Child.sol:CryptOrchidERC721Child",
        "label": "nonces",
        "offset": 0,
        "slot": "54",
        "type": "t_mapping(t_address,t_uint256)"
      },
      {
        "astId": 19156,
        "contract": "contracts/CryptOrchidERC721Child/CryptOrchidERC721Child.sol:CryptOrchidERC721Child",
        "label": "fxChild",
        "offset": 0,
        "slot": "55",
        "type": "t_address"
      },
      {
        "astId": 19158,
        "contract": "contracts/CryptOrchidERC721Child/CryptOrchidERC721Child.sol:CryptOrchidERC721Child",
        "label": "fxRootTunnel",
        "offset": 0,
        "slot": "56",
        "type": "t_address"
      }
    ],
    "types": {
      "t_address": {
        "encoding": "inplace",
        "label": "address",
        "numberOfBytes": "20"
      },
      "t_array(t_bytes32)dyn_storage": {
        "base": "t_bytes32",
        "encoding": "dynamic_array",
        "label": "bytes32[]",
        "numberOfBytes": "32"
      },
      "t_array(t_string_storage)10_storage": {
        "base": "t_string_storage",
        "encoding": "inplace",
        "label": "string[10]",
        "numberOfBytes": "320"
      },
      "t_array(t_struct(MapEntry)5089_storage)dyn_storage": {
        "base": "t_struct(MapEntry)5089_storage",
        "encoding": "dynamic_array",
        "label": "struct EnumerableMap.MapEntry[]",
        "numberOfBytes": "32"
      },
      "t_array(t_uint16)10_storage": {
        "base": "t_uint16",
        "encoding": "inplace",
        "label": "uint16[10]",
        "numberOfBytes": "32"
      },
      "t_bool": {
        "encoding": "inplace",
        "label": "bool",
        "numberOfBytes": "1"
      },
      "t_bytes32": {
        "encoding": "inplace",
        "label": "bytes32",
        "numberOfBytes": "32"
      },
      "t_bytes4": {
        "encoding": "inplace",
        "label": "bytes4",
        "numberOfBytes": "4"
      },
      "t_mapping(t_address,t_bool)": {
        "encoding": "mapping",
        "key": "t_address",
        "label": "mapping(address => bool)",
        "numberOfBytes": "32",
        "value": "t_bool"
      },
      "t_mapping(t_address,t_mapping(t_address,t_bool))": {
        "encoding": "mapping",
        "key": "t_address",
        "label": "mapping(address => mapping(address => bool))",
        "numberOfBytes": "32",
        "value": "t_mapping(t_address,t_bool)"
      },
      "t_mapping(t_address,t_struct(UintSet)6038_storage)": {
        "encoding": "mapping",
        "key": "t_address",
        "label": "mapping(address => struct EnumerableSet.UintSet)",
        "numberOfBytes": "32",
        "value": "t_struct(UintSet)6038_storage"
      },
      "t_mapping(t_address,t_uint256)": {
        "encoding": "mapping",
        "key": "t_address",
        "label": "mapping(address => uint256)",
        "numberOfBytes": "32",
        "value": "t_uint256"
      },
      "t_mapping(t_bytes32,t_string_storage)": {
        "encoding": "mapping",
        "key": "t_bytes32",
        "label": "mapping(bytes32 => string)",
        "numberOfBytes": "32",
        "value": "t_string_storage"
      },
      "t_mapping(t_bytes32,t_struct(RoleData)545_storage)": {
        "encoding": "mapping",
        "key": "t_bytes32",
        "label": "mapping(bytes32 => struct AccessControl.RoleData)",
        "numberOfBytes": "32",
        "value": "t_struct(RoleData)545_storage"
      },
      "t_mapping(t_bytes32,t_uint256)": {
        "encoding": "mapping",
        "key": "t_bytes32",
        "label": "mapping(bytes32 => uint256)",
        "numberOfBytes": "32",
        "value": "t_uint256"
      },
      "t_mapping(t_bytes4,t_bool)": {
        "encoding": "mapping",
        "key": "t_bytes4",
        "label": "mapping(bytes4 => bool)",
        "numberOfBytes": "32",
        "value": "t_bool"
      },
      "t_mapping(t_uint256,t_address)": {
        "encoding": "mapping",
        "key": "t_uint256",
        "label": "mapping(uint256 => address)",
        "numberOfBytes": "32",
        "value": "t_address"
      },
      "t_mapping(t_uint256,t_string_storage)": {
        "encoding": "mapping",
        "key": "t_uint256",
        "label": "mapping(uint256 => string)",
        "numberOfBytes": "32",
        "value": "t_string_storage"
      },
      "t_mapping(t_uint256,t_struct(CryptOrchid)8421_storage)": {
        "encoding": "mapping",
        "key": "t_uint256",
        "label": "mapping(uint256 => struct CryptOrchidGoerli.CryptOrchid)",
        "numberOfBytes": "32",
        "value": "t_struct(CryptOrchid)8421_storage"
      },
      "t_string_storage": {
        "encoding": "bytes",
        "label": "string",
        "numberOfBytes": "32"
      },
      "t_struct(AddressSet)5917_storage": {
        "encoding": "inplace",
        "label": "struct EnumerableSet.AddressSet",
        "members": [
          {
            "astId": 5916,
            "contract": "contracts/CryptOrchidERC721Child/CryptOrchidERC721Child.sol:CryptOrchidERC721Child",
            "label": "_inner",
            "offset": 0,
            "slot": "0",
            "type": "t_struct(Set)5652_storage"
          }
        ],
        "numberOfBytes": "64"
      },
      "t_struct(Counter)5041_storage": {
        "encoding": "inplace",
        "label": "struct Counters.Counter",
        "members": [
          {
            "astId": 5040,
            "contract": "contracts/CryptOrchidERC721Child/CryptOrchidERC721Child.sol:CryptOrchidERC721Child",
            "label": "_value",
            "offset": 0,
            "slot": "0",
            "type": "t_uint256"
          }
        ],
        "numberOfBytes": "32"
      },
      "t_struct(CryptOrchid)8421_storage": {
        "encoding": "inplace",
        "label": "struct CryptOrchidGoerli.CryptOrchid",
        "members": [
          {
            "astId": 8416,
            "contract": "contracts/CryptOrchidERC721Child/CryptOrchidERC721Child.sol:CryptOrchidERC721Child",
            "label": "species",
            "offset": 0,
            "slot": "0",
            "type": "t_string_storage"
          },
          {
            "astId": 8418,
            "contract": "contracts/CryptOrchidERC721Child/CryptOrchidERC721Child.sol:CryptOrchidERC721Child",
            "label": "plantedAt",
            "offset": 0,
            "slot": "1",
            "type": "t_uint256"
          },
          {
            "astId": 8420,
            "contract": "contracts/CryptOrchidERC721Child/CryptOrchidERC721Child.sol:CryptOrchidERC721Child",
            "label": "waterLevel",
            "offset": 0,
            "slot": "2",
            "type": "t_uint256"
          }
        ],
        "numberOfBytes": "96"
      },
      "t_struct(Map)5097_storage": {
        "encoding": "inplace",
        "label": "struct EnumerableMap.Map",
        "members": [
          {
            "astId": 5092,
            "contract": "contracts/CryptOrchidERC721Child/CryptOrchidERC721Child.sol:CryptOrchidERC721Child",
            "label": "_entries",
            "offset": 0,
            "slot": "0",
            "type": "t_array(t_struct(MapEntry)5089_storage)dyn_storage"
          },
          {
            "astId": 5096,
            "contract": "contracts/CryptOrchidERC721Child/CryptOrchidERC721Child.sol:CryptOrchidERC721Child",
            "label": "_indexes",
            "offset": 0,
            "slot": "1",
            "type": "t_mapping(t_bytes32,t_uint256)"
          }
        ],
        "numberOfBytes": "64"
      },
      "t_struct(MapEntry)5089_storage": {
        "encoding": "inplace",
        "label": "struct EnumerableMap.MapEntry",
        "members": [
          {
            "astId": 5086,
            "contract": "contracts/CryptOrchidERC721Child/CryptOrchidERC721Child.sol:CryptOrchidERC721Child",
            "label": "_key",
            "offset": 0,
            "slot": "0",
            "type": "t_bytes32"
          },
          {
            "astId": 5088,
            "contract": "contracts/CryptOrchidERC721Child/CryptOrchidERC721Child.sol:CryptOrchidERC721Child",
            "label": "_value",
            "offset": 0,
            "slot": "1",
            "type": "t_bytes32"
          }
        ],
        "numberOfBytes": "64"
      },
      "t_struct(RoleData)545_storage": {
        "encoding": "inplace",
        "label": "struct AccessControl.RoleData",
        "members": [
          {
            "astId": 542,
            "contract": "contracts/CryptOrchidERC721Child/CryptOrchidERC721Child.sol:CryptOrchidERC721Child",
            "label": "members",
            "offset": 0,
            "slot": "0",
            "type": "t_struct(AddressSet)5917_storage"
          },
          {
            "astId": 544,
            "contract": "contracts/CryptOrchidERC721Child/CryptOrchidERC721Child.sol:CryptOrchidERC721Child",
            "label": "adminRole",
            "offset": 0,
            "slot": "2",
            "type": "t_bytes32"
          }
        ],
        "numberOfBytes": "96"
      },
      "t_struct(Set)5652_storage": {
        "encoding": "inplace",
        "label": "struct EnumerableSet.Set",
        "members": [
          {
            "astId": 5647,
            "contract": "contracts/CryptOrchidERC721Child/CryptOrchidERC721Child.sol:CryptOrchidERC721Child",
            "label": "_values",
            "offset": 0,
            "slot": "0",
            "type": "t_array(t_bytes32)dyn_storage"
          },
          {
            "astId": 5651,
            "contract": "contracts/CryptOrchidERC721Child/CryptOrchidERC721Child.sol:CryptOrchidERC721Child",
            "label": "_indexes",
            "offset": 0,
            "slot": "1",
            "type": "t_mapping(t_bytes32,t_uint256)"
          }
        ],
        "numberOfBytes": "64"
      },
      "t_struct(UintSet)6038_storage": {
        "encoding": "inplace",
        "label": "struct EnumerableSet.UintSet",
        "members": [
          {
            "astId": 6037,
            "contract": "contracts/CryptOrchidERC721Child/CryptOrchidERC721Child.sol:CryptOrchidERC721Child",
            "label": "_inner",
            "offset": 0,
            "slot": "0",
            "type": "t_struct(Set)5652_storage"
          }
        ],
        "numberOfBytes": "64"
      },
      "t_struct(UintToAddressMap)5415_storage": {
        "encoding": "inplace",
        "label": "struct EnumerableMap.UintToAddressMap",
        "members": [
          {
            "astId": 5414,
            "contract": "contracts/CryptOrchidERC721Child/CryptOrchidERC721Child.sol:CryptOrchidERC721Child",
            "label": "_inner",
            "offset": 0,
            "slot": "0",
            "type": "t_struct(Map)5097_storage"
          }
        ],
        "numberOfBytes": "64"
      },
      "t_uint16": {
        "encoding": "inplace",
        "label": "uint16",
        "numberOfBytes": "2"
      },
      "t_uint256": {
        "encoding": "inplace",
        "label": "uint256",
        "numberOfBytes": "32"
      }
    }
  }
}