{
  "address": "0xe52d1c6199a194E58Bf50c07C9f8861549ae8289",
  "abi": [
    {
      "inputs": [
        {
          "internalType": "address",
          "name": "childChainManager",
          "type": "address"
        }
      ],
      "stateMutability": "nonpayable",
      "type": "constructor"
    },
    {
      "anonymous": false,
      "inputs": [
        {
          "indexed": true,
          "internalType": "address",
          "name": "owner",
          "type": "address"
        },
        {
          "indexed": true,
          "internalType": "address",
          "name": "approved",
          "type": "address"
        },
        {
          "indexed": true,
          "internalType": "uint256",
          "name": "tokenId",
          "type": "uint256"
        }
      ],
      "name": "Approval",
      "type": "event"
    },
    {
      "anonymous": false,
      "inputs": [
        {
          "indexed": true,
          "internalType": "address",
          "name": "owner",
          "type": "address"
        },
        {
          "indexed": true,
          "internalType": "address",
          "name": "operator",
          "type": "address"
        },
        {
          "indexed": false,
          "internalType": "bool",
          "name": "approved",
          "type": "bool"
        }
      ],
      "name": "ApprovalForAll",
      "type": "event"
    },
    {
      "anonymous": false,
      "inputs": [
        {
          "indexed": false,
          "internalType": "address",
          "name": "userAddress",
          "type": "address"
        },
        {
          "indexed": false,
          "internalType": "address payable",
          "name": "relayerAddress",
          "type": "address"
        },
        {
          "indexed": false,
          "internalType": "bytes",
          "name": "functionSignature",
          "type": "bytes"
        }
      ],
      "name": "MetaTransactionExecuted",
      "type": "event"
    },
    {
      "anonymous": false,
      "inputs": [
        {
          "indexed": true,
          "internalType": "address",
          "name": "previousOwner",
          "type": "address"
        },
        {
          "indexed": true,
          "internalType": "address",
          "name": "newOwner",
          "type": "address"
        }
      ],
      "name": "OwnershipTransferred",
      "type": "event"
    },
    {
      "anonymous": false,
      "inputs": [
        {
          "indexed": false,
          "internalType": "address",
          "name": "account",
          "type": "address"
        }
      ],
      "name": "Paused",
      "type": "event"
    },
    {
      "anonymous": false,
      "inputs": [
        {
          "indexed": true,
          "internalType": "bytes32",
          "name": "role",
          "type": "bytes32"
        },
        {
          "indexed": true,
          "internalType": "bytes32",
          "name": "previousAdminRole",
          "type": "bytes32"
        },
        {
          "indexed": true,
          "internalType": "bytes32",
          "name": "newAdminRole",
          "type": "bytes32"
        }
      ],
      "name": "RoleAdminChanged",
      "type": "event"
    },
    {
      "anonymous": false,
      "inputs": [
        {
          "indexed": true,
          "internalType": "bytes32",
          "name": "role",
          "type": "bytes32"
        },
        {
          "indexed": true,
          "internalType": "address",
          "name": "account",
          "type": "address"
        },
        {
          "indexed": true,
          "internalType": "address",
          "name": "sender",
          "type": "address"
        }
      ],
      "name": "RoleGranted",
      "type": "event"
    },
    {
      "anonymous": false,
      "inputs": [
        {
          "indexed": true,
          "internalType": "bytes32",
          "name": "role",
          "type": "bytes32"
        },
        {
          "indexed": true,
          "internalType": "address",
          "name": "account",
          "type": "address"
        },
        {
          "indexed": true,
          "internalType": "address",
          "name": "sender",
          "type": "address"
        }
      ],
      "name": "RoleRevoked",
      "type": "event"
    },
    {
      "anonymous": false,
      "inputs": [
        {
          "indexed": true,
          "internalType": "address",
          "name": "from",
          "type": "address"
        },
        {
          "indexed": true,
          "internalType": "address",
          "name": "to",
          "type": "address"
        },
        {
          "indexed": true,
          "internalType": "uint256",
          "name": "tokenId",
          "type": "uint256"
        }
      ],
      "name": "Transfer",
      "type": "event"
    },
    {
      "anonymous": false,
      "inputs": [
        {
          "indexed": true,
          "internalType": "address",
          "name": "from",
          "type": "address"
        },
        {
          "indexed": true,
          "internalType": "address",
          "name": "to",
          "type": "address"
        },
        {
          "indexed": true,
          "internalType": "uint256",
          "name": "tokenId",
          "type": "uint256"
        },
        {
          "indexed": false,
          "internalType": "bytes",
          "name": "metaData",
          "type": "bytes"
        }
      ],
      "name": "TransferWithMetadata",
      "type": "event"
    },
    {
      "anonymous": false,
      "inputs": [
        {
          "indexed": false,
          "internalType": "address",
          "name": "account",
          "type": "address"
        }
      ],
      "name": "Unpaused",
      "type": "event"
    },
    {
      "anonymous": false,
      "inputs": [
        {
          "indexed": true,
          "internalType": "address",
          "name": "user",
          "type": "address"
        },
        {
          "indexed": false,
          "internalType": "uint256[]",
          "name": "tokenIds",
          "type": "uint256[]"
        }
      ],
      "name": "WithdrawnBatch",
      "type": "event"
    },
    {
      "inputs": [],
      "name": "BATCH_LIMIT",
      "outputs": [
        {
          "internalType": "uint256",
          "name": "",
          "type": "uint256"
        }
      ],
      "stateMutability": "view",
      "type": "function"
    },
    {
      "inputs": [],
      "name": "DEFAULT_ADMIN_ROLE",
      "outputs": [
        {
          "internalType": "bytes32",
          "name": "",
          "type": "bytes32"
        }
      ],
      "stateMutability": "view",
      "type": "function"
    },
    {
      "inputs": [],
      "name": "DEPOSITOR_ROLE",
      "outputs": [
        {
          "internalType": "bytes32",
          "name": "",
          "type": "bytes32"
        }
      ],
      "stateMutability": "view",
      "type": "function"
    },
    {
      "inputs": [],
      "name": "ERC712_VERSION",
      "outputs": [
        {
          "internalType": "string",
          "name": "",
          "type": "string"
        }
      ],
      "stateMutability": "view",
      "type": "function"
    },
    {
      "inputs": [],
      "name": "GROWTH_CYCLE",
      "outputs": [
        {
          "internalType": "uint256",
          "name": "",
          "type": "uint256"
        }
      ],
      "stateMutability": "view",
      "type": "function"
    },
    {
      "inputs": [],
      "name": "MAX_CRYPTORCHIDS",
      "outputs": [
        {
          "internalType": "uint256",
          "name": "",
          "type": "uint256"
        }
      ],
      "stateMutability": "view",
      "type": "function"
    },
    {
      "inputs": [],
      "name": "MINTER_ROLE",
      "outputs": [
        {
          "internalType": "bytes32",
          "name": "",
          "type": "bytes32"
        }
      ],
      "stateMutability": "view",
      "type": "function"
    },
    {
      "inputs": [],
      "name": "PAUSER_ROLE",
      "outputs": [
        {
          "internalType": "bytes32",
          "name": "",
          "type": "bytes32"
        }
      ],
      "stateMutability": "view",
      "type": "function"
    },
    {
      "inputs": [],
      "name": "WATERING_WINDOW",
      "outputs": [
        {
          "internalType": "uint256",
          "name": "",
          "type": "uint256"
        }
      ],
      "stateMutability": "view",
      "type": "function"
    },
    {
      "inputs": [
        {
          "internalType": "uint256",
          "name": "tokenId",
          "type": "uint256"
        }
      ],
      "name": "alive",
      "outputs": [
        {
          "internalType": "bool",
          "name": "",
          "type": "bool"
        }
      ],
      "stateMutability": "view",
      "type": "function"
    },
    {
      "inputs": [
        {
          "internalType": "address",
          "name": "to",
          "type": "address"
        },
        {
          "internalType": "uint256",
          "name": "tokenId",
          "type": "uint256"
        }
      ],
      "name": "approve",
      "outputs": [],
      "stateMutability": "nonpayable",
      "type": "function"
    },
    {
      "inputs": [
        {
          "internalType": "address",
          "name": "owner",
          "type": "address"
        }
      ],
      "name": "balanceOf",
      "outputs": [
        {
          "internalType": "uint256",
          "name": "",
          "type": "uint256"
        }
      ],
      "stateMutability": "view",
      "type": "function"
    },
    {
      "inputs": [],
      "name": "baseURI",
      "outputs": [
        {
          "internalType": "string",
          "name": "",
          "type": "string"
        }
      ],
      "stateMutability": "view",
      "type": "function"
    },
    {
      "inputs": [
        {
          "internalType": "uint256",
          "name": "tokenId",
          "type": "uint256"
        }
      ],
      "name": "burn",
      "outputs": [],
      "stateMutability": "nonpayable",
      "type": "function"
    },
    {
      "inputs": [
        {
          "internalType": "uint256",
          "name": "",
          "type": "uint256"
        }
      ],
      "name": "cryptorchids",
      "outputs": [
        {
          "internalType": "string",
          "name": "species",
          "type": "string"
        },
        {
          "internalType": "uint256",
          "name": "plantedAt",
          "type": "uint256"
        },
        {
          "internalType": "uint256",
          "name": "waterLevel",
          "type": "uint256"
        }
      ],
      "stateMutability": "view",
      "type": "function"
    },
    {
      "inputs": [],
      "name": "currentPrice",
      "outputs": [
        {
          "internalType": "uint256",
          "name": "price",
          "type": "uint256"
        }
      ],
      "stateMutability": "view",
      "type": "function"
    },
    {
      "inputs": [
        {
          "internalType": "address",
          "name": "user",
          "type": "address"
        },
        {
          "internalType": "bytes",
          "name": "depositData",
          "type": "bytes"
        }
      ],
      "name": "deposit",
      "outputs": [],
      "stateMutability": "nonpayable",
      "type": "function"
    },
    {
      "inputs": [
        {
          "internalType": "uint256",
          "name": "tokenId",
          "type": "uint256"
        }
      ],
      "name": "encodeTokenMetadata",
      "outputs": [
        {
          "internalType": "bytes",
          "name": "",
          "type": "bytes"
        }
      ],
      "stateMutability": "view",
      "type": "function"
    },
    {
      "inputs": [
        {
          "internalType": "address",
          "name": "userAddress",
          "type": "address"
        },
        {
          "internalType": "bytes",
          "name": "functionSignature",
          "type": "bytes"
        },
        {
          "internalType": "bytes32",
          "name": "sigR",
          "type": "bytes32"
        },
        {
          "internalType": "bytes32",
          "name": "sigS",
          "type": "bytes32"
        },
        {
          "internalType": "uint8",
          "name": "sigV",
          "type": "uint8"
        }
      ],
      "name": "executeMetaTransaction",
      "outputs": [
        {
          "internalType": "bytes",
          "name": "",
          "type": "bytes"
        }
      ],
      "stateMutability": "payable",
      "type": "function"
    },
    {
      "inputs": [
        {
          "internalType": "uint256",
          "name": "tokenId",
          "type": "uint256"
        }
      ],
      "name": "flowering",
      "outputs": [
        {
          "internalType": "bool",
          "name": "",
          "type": "bool"
        }
      ],
      "stateMutability": "view",
      "type": "function"
    },
    {
      "inputs": [
        {
          "internalType": "uint256",
          "name": "tokenId",
          "type": "uint256"
        },
        {
          "internalType": "uint256",
          "name": "userProvidedSeed",
          "type": "uint256"
        }
      ],
      "name": "germinate",
      "outputs": [],
      "stateMutability": "nonpayable",
      "type": "function"
    },
    {
      "inputs": [
        {
          "internalType": "uint256",
          "name": "tokenId",
          "type": "uint256"
        }
      ],
      "name": "getApproved",
      "outputs": [
        {
          "internalType": "address",
          "name": "",
          "type": "address"
        }
      ],
      "stateMutability": "view",
      "type": "function"
    },
    {
      "inputs": [],
      "name": "getChainId",
      "outputs": [
        {
          "internalType": "uint256",
          "name": "",
          "type": "uint256"
        }
      ],
      "stateMutability": "pure",
      "type": "function"
    },
    {
      "inputs": [],
      "name": "getDomainSeperator",
      "outputs": [
        {
          "internalType": "bytes32",
          "name": "",
          "type": "bytes32"
        }
      ],
      "stateMutability": "view",
      "type": "function"
    },
    {
      "inputs": [
        {
          "internalType": "address",
          "name": "user",
          "type": "address"
        }
      ],
      "name": "getNonce",
      "outputs": [
        {
          "internalType": "uint256",
          "name": "nonce",
          "type": "uint256"
        }
      ],
      "stateMutability": "view",
      "type": "function"
    },
    {
      "inputs": [
        {
          "internalType": "bytes32",
          "name": "role",
          "type": "bytes32"
        }
      ],
      "name": "getRoleAdmin",
      "outputs": [
        {
          "internalType": "bytes32",
          "name": "",
          "type": "bytes32"
        }
      ],
      "stateMutability": "view",
      "type": "function"
    },
    {
      "inputs": [
        {
          "internalType": "bytes32",
          "name": "role",
          "type": "bytes32"
        },
        {
          "internalType": "uint256",
          "name": "index",
          "type": "uint256"
        }
      ],
      "name": "getRoleMember",
      "outputs": [
        {
          "internalType": "address",
          "name": "",
          "type": "address"
        }
      ],
      "stateMutability": "view",
      "type": "function"
    },
    {
      "inputs": [
        {
          "internalType": "bytes32",
          "name": "role",
          "type": "bytes32"
        }
      ],
      "name": "getRoleMemberCount",
      "outputs": [
        {
          "internalType": "uint256",
          "name": "",
          "type": "uint256"
        }
      ],
      "stateMutability": "view",
      "type": "function"
    },
    {
      "inputs": [
        {
          "internalType": "uint256",
          "name": "tokenId",
          "type": "uint256"
        }
      ],
      "name": "getTokenMetadata",
      "outputs": [
        {
          "internalType": "string",
          "name": "",
          "type": "string"
        },
        {
          "internalType": "uint256",
          "name": "",
          "type": "uint256"
        },
        {
          "internalType": "uint256",
          "name": "",
          "type": "uint256"
        },
        {
          "internalType": "enum CryptOrchidGoerli.Stage",
          "name": "",
          "type": "uint8"
        }
      ],
      "stateMutability": "view",
      "type": "function"
    },
    {
      "inputs": [
        {
          "internalType": "bytes32",
          "name": "role",
          "type": "bytes32"
        },
        {
          "internalType": "address",
          "name": "account",
          "type": "address"
        }
      ],
      "name": "grantRole",
      "outputs": [],
      "stateMutability": "nonpayable",
      "type": "function"
    },
    {
      "inputs": [
        {
          "internalType": "uint256",
          "name": "tokenId",
          "type": "uint256"
        }
      ],
      "name": "growthStage",
      "outputs": [
        {
          "internalType": "enum CryptOrchidGoerli.Stage",
          "name": "",
          "type": "uint8"
        }
      ],
      "stateMutability": "view",
      "type": "function"
    },
    {
      "inputs": [
        {
          "internalType": "bytes32",
          "name": "role",
          "type": "bytes32"
        },
        {
          "internalType": "address",
          "name": "account",
          "type": "address"
        }
      ],
      "name": "hasRole",
      "outputs": [
        {
          "internalType": "bool",
          "name": "",
          "type": "bool"
        }
      ],
      "stateMutability": "view",
      "type": "function"
    },
    {
      "inputs": [
        {
          "internalType": "address",
          "name": "owner",
          "type": "address"
        },
        {
          "internalType": "address",
          "name": "operator",
          "type": "address"
        }
      ],
      "name": "isApprovedForAll",
      "outputs": [
        {
          "internalType": "bool",
          "name": "",
          "type": "bool"
        }
      ],
      "stateMutability": "view",
      "type": "function"
    },
    {
      "inputs": [
        {
          "internalType": "address",
          "name": "to",
          "type": "address"
        }
      ],
      "name": "mint",
      "outputs": [],
      "stateMutability": "nonpayable",
      "type": "function"
    },
    {
      "inputs": [],
      "name": "name",
      "outputs": [
        {
          "internalType": "string",
          "name": "",
          "type": "string"
        }
      ],
      "stateMutability": "view",
      "type": "function"
    },
    {
      "inputs": [],
      "name": "owner",
      "outputs": [
        {
          "internalType": "address",
          "name": "",
          "type": "address"
        }
      ],
      "stateMutability": "view",
      "type": "function"
    },
    {
      "inputs": [
        {
          "internalType": "uint256",
          "name": "tokenId",
          "type": "uint256"
        }
      ],
      "name": "ownerOf",
      "outputs": [
        {
          "internalType": "address",
          "name": "",
          "type": "address"
        }
      ],
      "stateMutability": "view",
      "type": "function"
    },
    {
      "inputs": [],
      "name": "pause",
      "outputs": [],
      "stateMutability": "nonpayable",
      "type": "function"
    },
    {
      "inputs": [],
      "name": "paused",
      "outputs": [
        {
          "internalType": "bool",
          "name": "",
          "type": "bool"
        }
      ],
      "stateMutability": "view",
      "type": "function"
    },
    {
      "inputs": [],
      "name": "renounceOwnership",
      "outputs": [],
      "stateMutability": "nonpayable",
      "type": "function"
    },
    {
      "inputs": [
        {
          "internalType": "bytes32",
          "name": "role",
          "type": "bytes32"
        },
        {
          "internalType": "address",
          "name": "account",
          "type": "address"
        }
      ],
      "name": "renounceRole",
      "outputs": [],
      "stateMutability": "nonpayable",
      "type": "function"
    },
    {
      "inputs": [
        {
          "internalType": "bytes32",
          "name": "",
          "type": "bytes32"
        }
      ],
      "name": "requestToToken",
      "outputs": [
        {
          "internalType": "uint256",
          "name": "",
          "type": "uint256"
        }
      ],
      "stateMutability": "view",
      "type": "function"
    },
    {
      "inputs": [
        {
          "internalType": "bytes32",
          "name": "role",
          "type": "bytes32"
        },
        {
          "internalType": "address",
          "name": "account",
          "type": "address"
        }
      ],
      "name": "revokeRole",
      "outputs": [],
      "stateMutability": "nonpayable",
      "type": "function"
    },
    {
      "inputs": [
        {
          "internalType": "address",
          "name": "from",
          "type": "address"
        },
        {
          "internalType": "address",
          "name": "to",
          "type": "address"
        },
        {
          "internalType": "uint256",
          "name": "tokenId",
          "type": "uint256"
        }
      ],
      "name": "safeTransferFrom",
      "outputs": [],
      "stateMutability": "nonpayable",
      "type": "function"
    },
    {
      "inputs": [
        {
          "internalType": "address",
          "name": "from",
          "type": "address"
        },
        {
          "internalType": "address",
          "name": "to",
          "type": "address"
        },
        {
          "internalType": "uint256",
          "name": "tokenId",
          "type": "uint256"
        },
        {
          "internalType": "bytes",
          "name": "_data",
          "type": "bytes"
        }
      ],
      "name": "safeTransferFrom",
      "outputs": [],
      "stateMutability": "nonpayable",
      "type": "function"
    },
    {
      "inputs": [
        {
          "internalType": "address",
          "name": "operator",
          "type": "address"
        },
        {
          "internalType": "bool",
          "name": "approved",
          "type": "bool"
        }
      ],
      "name": "setApprovalForAll",
      "outputs": [],
      "stateMutability": "nonpayable",
      "type": "function"
    },
    {
      "inputs": [],
      "name": "startGrowing",
      "outputs": [],
      "stateMutability": "nonpayable",
      "type": "function"
    },
    {
      "inputs": [],
      "name": "startSale",
      "outputs": [],
      "stateMutability": "nonpayable",
      "type": "function"
    },
    {
      "inputs": [
        {
          "internalType": "bytes4",
          "name": "interfaceId",
          "type": "bytes4"
        }
      ],
      "name": "supportsInterface",
      "outputs": [
        {
          "internalType": "bool",
          "name": "",
          "type": "bool"
        }
      ],
      "stateMutability": "view",
      "type": "function"
    },
    {
      "inputs": [],
      "name": "symbol",
      "outputs": [
        {
          "internalType": "string",
          "name": "",
          "type": "string"
        }
      ],
      "stateMutability": "view",
      "type": "function"
    },
    {
      "inputs": [
        {
          "internalType": "uint256",
          "name": "index",
          "type": "uint256"
        }
      ],
      "name": "tokenByIndex",
      "outputs": [
        {
          "internalType": "uint256",
          "name": "",
          "type": "uint256"
        }
      ],
      "stateMutability": "view",
      "type": "function"
    },
    {
      "inputs": [
        {
          "internalType": "address",
          "name": "owner",
          "type": "address"
        },
        {
          "internalType": "uint256",
          "name": "index",
          "type": "uint256"
        }
      ],
      "name": "tokenOfOwnerByIndex",
      "outputs": [
        {
          "internalType": "uint256",
          "name": "",
          "type": "uint256"
        }
      ],
      "stateMutability": "view",
      "type": "function"
    },
    {
      "inputs": [
        {
          "internalType": "uint256",
          "name": "tokenId",
          "type": "uint256"
        }
      ],
      "name": "tokenURI",
      "outputs": [
        {
          "internalType": "string",
          "name": "",
          "type": "string"
        }
      ],
      "stateMutability": "view",
      "type": "function"
    },
    {
      "inputs": [],
      "name": "totalSupply",
      "outputs": [
        {
          "internalType": "uint256",
          "name": "",
          "type": "uint256"
        }
      ],
      "stateMutability": "view",
      "type": "function"
    },
    {
      "inputs": [
        {
          "internalType": "address",
          "name": "from",
          "type": "address"
        },
        {
          "internalType": "address",
          "name": "to",
          "type": "address"
        },
        {
          "internalType": "uint256",
          "name": "tokenId",
          "type": "uint256"
        }
      ],
      "name": "transferFrom",
      "outputs": [],
      "stateMutability": "nonpayable",
      "type": "function"
    },
    {
      "inputs": [
        {
          "internalType": "address",
          "name": "newOwner",
          "type": "address"
        }
      ],
      "name": "transferOwnership",
      "outputs": [],
      "stateMutability": "nonpayable",
      "type": "function"
    },
    {
      "inputs": [],
      "name": "unpause",
      "outputs": [],
      "stateMutability": "nonpayable",
      "type": "function"
    },
    {
      "inputs": [
        {
          "internalType": "uint256",
          "name": "tokenId",
          "type": "uint256"
        }
      ],
      "name": "water",
      "outputs": [],
      "stateMutability": "nonpayable",
      "type": "function"
    },
    {
      "inputs": [
        {
          "internalType": "uint256",
          "name": "units",
          "type": "uint256"
        }
      ],
      "name": "webMint",
      "outputs": [],
      "stateMutability": "payable",
      "type": "function"
    },
    {
      "inputs": [
        {
          "internalType": "uint256",
          "name": "tokenId",
          "type": "uint256"
        }
      ],
      "name": "withdraw",
      "outputs": [],
      "stateMutability": "nonpayable",
      "type": "function"
    },
    {
      "inputs": [],
      "name": "withdraw",
      "outputs": [],
      "stateMutability": "nonpayable",
      "type": "function"
    },
    {
      "inputs": [
        {
          "internalType": "uint256[]",
          "name": "tokenIds",
          "type": "uint256[]"
        }
      ],
      "name": "withdrawBatch",
      "outputs": [],
      "stateMutability": "nonpayable",
      "type": "function"
    },
    {
      "inputs": [
        {
          "internalType": "uint256",
          "name": "tokenId",
          "type": "uint256"
        }
      ],
      "name": "withdrawWithMetadata",
      "outputs": [],
      "stateMutability": "nonpayable",
      "type": "function"
    },
    {
      "stateMutability": "payable",
      "type": "receive"
    }
  ],
  "transactionHash": "0xe9d802be9b9bc89f3f0d747d8a624f9e559e6a784ddb825c5872a58f46d5783e",
  "args": [
    "0xb5505a6d998549090530911180f38aC5130101c6"
  ],
  "solcInputHash": "c13c0265580703c7826a9db8ce6a8cf5",
  "bytecode": "0x600f805461ffff191690556101c060405260006080908152610c0260a0526117ba60c052611f8a60e0526123726101005261256661012052612660610140526126c4610160526126f66101805261270f6101a0526200006390601090600a62000e6d565b506040805161018081018252601761014082019081527f7368656e7a68656e696361206f72636869646163656165000000000000000000610160830152815281518083018352601881527f7068616c61656e6f70736973206d6963686f6c69747a69690000000000000000602082810191909152808301919091528251808401845260158082527f6775617269616e74686520617572616e74696163610000000000000000000000828401528385019190915283518085018552600e81526d76616e646120636f6572756c656160901b818401526060840152835180850185528181527f637970726970656469756d2063616c63656f6c7573000000000000000000000081840152608084015283518085018552601981527f70617068696f706564696c756d20766965746e616d656e7365000000000000008184015260a08401528351808501855260128152716d696c746f6e6961206b61796173696d616560701b8184015260c084015283518085018552601381527f706c6174616e746865726120617a6f72696361000000000000000000000000008184015260e0840152835180850185529081527f64656e64726f7068796c6178206c696e64656e69690000000000000000000000818301526101008301528251808401909352601d83527f70617068696f706564696c756d20726f7468736368696c6469616e756d000000908301526101208101919091526200028390601190600a62000f0a565b50604080516101c08101909152604b610140820181815282916200666661016084013981526020016040518060800160405280604c8152602001620064fc604c913981526020016040518060800160405280604981526020016200678a604991398152602001604051806080016040528060428152602001620066f7604291398152602001604051806080016040528060498152602001620064b36049913981526020016040518060800160405280604d8152602001620065d0604d91398152602001604051806080016040528060468152602001620066b16046913981526020016040518060800160405280604781526020016200690060479139815260200160405180608001604052806049815260200162006820604991398152602001604051806080016040528060518152602001620063cc605191399052620003cf90601b90600a62000f0a565b50604080516101c08101909152604b61014082018181528291620068b561016084013981526020016040518060800160405280604c815260200162006869604c913981526020016040518060800160405280604981526020016200661d604991398152602001604051806080016040528060428152602001620065486042913981526020016040518060800160405280604981526020016200633a6049913981526020016040518060800160405280604d8152602001620067d3604d913981526020016040518060800160405280604681526020016200658a6046913981526020016040518060800160405280604781526020016200641d60479139815260200160405180608001604052806049815260200162006383604991398152602001604051806080016040528060518152602001620067396051913990526200051b90602590600a62000f0a565b506034805460ff191690553480156200053357600080fd5b506040516200694738038062006947833981810160405260208110156200055957600080fd5b5051604080518082018252600c81526b43727970744f72636869647360a01b60208281019190915282518084018452600581526413d490d21160da1b8183015283518085019094526007845266697066733a2f2f60c81b9184019190915290918282620005d66301ffc9a760e01b6001600160e01b0362000a4416565b8151620005eb90600790602085019062000f5d565b5080516200060190600890602084019062000f5d565b506200061d6380ac58cd60e01b6001600160e01b0362000a4416565b62000638635b5e139f60e01b6001600160e01b0362000a4416565b6200065363780e9d6360e01b6001600160e01b0362000a4416565b5050600b805460ff19169055620006876000620006786001600160e01b0362000acc16565b6001600160e01b0362000ae916565b604080516a4d494e5445525f524f4c4560a81b8152905190819003600b019020620006bf90620006786001600160e01b0362000acc16565b604080516a5041555345525f524f4c4560a81b8152905190819003600b019020620006f790620006786001600160e01b0362000acc16565b6200070b816001600160e01b0362000b0216565b50505060006200072062000acc60201b60201c565b600d80546001600160a01b0319166001600160a01b038316908117909155604051919250906000907f8be0079c531659141344cd1fd0a4f28419497f9722a3daafe3b4186f6b6457e0908290a35060005b600a8110156200096c57601b81600a81106200078957fe5b0160316000601184600a81106200079c57fe5b6040805160208082019081529290930180546002600182161561010002600019019091160491840182905292829160609091019084908015620008235780601f10620007f75761010080835404028352916020019162000823565b820191906000526020600020905b8154815290600101906020018083116200080557829003601f168201915b50509250505060405160208183030381529060405280519060200120815260200190815260200160002090805460018160011615610100020316600290046200086e92919062000fde565b50602581600a81106200087d57fe5b0160326000601184600a81106200089057fe5b6040805160208082019081529290930180546002600182161561010002600019019091160491840182905292829160609091019084908015620009175780601f10620008eb5761010080835404028352916020019162000917565b820191906000526020600020905b815481529060010190602001808311620008f957829003601f168201915b50509250505060405160208183030381529060405280519060200120815260200190815260200160002090805460018160011615610100020316600290046200096292919062000fde565b5060010162000771565b5060408051808201909152601681527f43727970744f72636869644552433732314368696c64000000000000000000006020820152620009b5906001600160e01b0362000b1716565b620009ce6000620006786001600160e01b0362000acc16565b604080516d4445504f5349544f525f524f4c4560901b8152905190819003600e01902062000a0690826001600160e01b0362000ae916565b60408051808201909152600c81526b43727970744f72636869647360a01b602082015262000a3d906001600160e01b0362000bb916565b506200110a565b6001600160e01b0319808216141562000aa4576040805162461bcd60e51b815260206004820152601c60248201527f4552433136353a20696e76616c696420696e7465726661636520696400000000604482015290519081900360640190fd5b6001600160e01b0319166000908152600160208190526040909120805460ff19169091179055565b600062000ae362000c2760201b62003f591760201c565b90505b90565b62000afe82826001600160e01b0362000c8616565b5050565b805162000afe90600a90602084019062000f5d565b806040516020018082805190602001908083835b6020831062000b4c5780518252601f19909201916020918201910162000b2b565b51815160209384036101000a60001901801990921691161790527f3a20494e53554646494349454e545f5045524d495353494f4e530000000000009190930190815260408051808303600519018152601a9092019052805162000afe955060339450920191905062000f5d565b60345460ff161562000c03576040805162461bcd60e51b815260206004820152600e60248201526d185b1c9958591e481a5b9a5d195960921b604482015290519081900360640190fd5b62000c17816001600160e01b0362000d0816565b506034805460ff19166001179055565b60003330141562000c815760606000368080601f0160208091040260200160405190810160405280939291908181526020018383808284376000920191909152505050503601516001600160a01b0316915062000ae69050565b503390565b60008281526020818152604090912062000cab9183906200414362000dd0821b17901c565b1562000afe5762000cc46001600160e01b0362000acc16565b6001600160a01b0316816001600160a01b0316837f2f8788117e7eff1d82e926ec794901d17c78024a50270940304540a733656f0d60405160405180910390a45050565b6040518060800160405280604f815260200162006464604f913980516020918201208251838301206040805180820190915260018152603160f81b930192909252907fc89efdaa54c0f20c7adf612882df0950f5a951637e0307cdcb4c672f298b8bc63062000d7f6001600160e01b0362000df916565b604080516020808201979097528082019590955260608501939093526001600160a01b03909116608084015260a0808401919091528151808403909101815260c09092019052805191012060355550565b600062000df0836001600160a01b0384166001600160e01b0362000dfd16565b90505b92915050565b4690565b600062000e1483836001600160e01b0362000e5516565b62000e4c5750815460018181018455600084815260208082209093018490558454848252828601909352604090209190915562000df3565b50600062000df3565b60009081526001919091016020526040902054151590565b60018301918390821562000ef85791602002820160005b8382111562000ec657835183826101000a81548161ffff021916908361ffff160217905550926020019260020160208160010104928301926001030262000e84565b801562000ef65782816101000a81549061ffff021916905560020160208160010104928301926001030262000ec6565b505b5062000f0692915062001058565b5090565b82600a810192821562000f4f579160200282015b8281111562000f4f578251805162000f3e91849160209091019062000f5d565b509160200191906001019062000f1e565b5062000f069291506200107a565b828054600181600116156101000203166002900490600052602060002090601f016020900481019282601f1062000fa057805160ff191683800117855562000fd0565b8280016001018555821562000fd0579182015b8281111562000fd057825182559160200191906001019062000fb3565b5062000f06929150620010a2565b828054600181600116156101000203166002900490600052602060002090601f016020900481019282601f1062001019578054855562000fd0565b8280016001018555821562000fd057600052602060002091601f016020900482015b8281111562000fd05782548255916001019190600101906200103b565b62000ae691905b8082111562000f0657805461ffff191681556001016200105f565b62000ae691905b8082111562000f06576000620010988282620010bf565b5060010162001081565b62000ae691905b8082111562000f065760008155600101620010a9565b50805460018160011615610100020316600290046000825580601f10620010e7575062001107565b601f016020900490600052602060002090810190620011079190620010a2565b50565b615220806200111a6000396000f3fe6080604052600436106103bc5760003560e01c80636b0c004d116101f2578063a3b0b5a31161010d578063cac21c8f116100a0578063e63ab1e91161006f578063e63ab1e914611078578063e985e9c51461108d578063f2fde38b146110c8578063ffee200c146110fb576103c3565b8063cac21c8f14610eed578063cf2c52cb14610f9d578063d53913931461102a578063d547741f1461103f576103c3565b8063b7aaba20116100dc578063b7aaba2014610d78578063b88d4fde14610dc6578063c87b56dd14610e99578063ca15c87314610ec3576103c3565b8063a3b0b5a314610cfa578063a5e584dc14610d0f578063a7eec44b14610d39578063b66a0e5d14610d63576103c3565b806391d14854116101855780639c8d4156116101545780639c8d415614610c185780639d1b464a14610c95578063a217fddf14610caa578063a22cb46514610cbf576103c3565b806391d1485414610b985780639559c0bd14610bd157806395d89b4114610be65780639981d4a114610bfb576103c3565b80637fd8d953116101c15780637fd8d95314610b0e5780638456cb5914610b3e5780638da5cb5b14610b535780639010d07c14610b68576103c3565b80636b0c004d14610a9c5780636c0360eb14610ab157806370a0823114610ac6578063715018a614610af9576103c3565b80632e1a7d4d116102e257806342966c681161027557806362ff09d61161024457806362ff09d6146109eb5780636352211e14610a155780636573c78714610a3f5780636a62784214610a69576103c3565b806342966c68146108bd5780634f6ccce7146108e75780635c975abb146109115780636031680114610926576103c3565b806336568abe116102b157806336568abe146108175780633ccfd60b146108505780633f4ba83a1461086557806342842e0e1461087a576103c3565b80632e1a7d4d146107665780632f2ff15d146107905780632f745c59146107c95780633408e47014610802576103c3565b8063179f0b0a1161035a57806323b872dd1161032957806323b872dd146106b1578063248a9ca3146106f4578063277dec921461071e5780632d0335ab14610733576103c3565b8063179f0b0a1461063657806318160ddd1461065d578063182199cd1461067257806320379ee51461069c576103c3565b8063095ea7b311610396578063095ea7b3146104f85780630c53c51c146105335780630f7e5970146105f75780631653c39a1461060c576103c3565b806301ffc9a7146103c857806306fdde0314610428578063081812fc146104b2576103c3565b366103c357005b600080fd5b3480156103d457600080fd5b50610414600480360360208110156103eb57600080fd5b50357fffffffff0000000000000000000000000000000000000000000000000000000016611110565b604080519115158252519081900360200190f35b34801561043457600080fd5b5061043d61114b565b6040805160208082528351818301528351919283929083019185019080838360005b8381101561047757818101518382015260200161045f565b50505050905090810190601f1680156104a45780820380516001836020036101000a031916815260200191505b509250505060405180910390f35b3480156104be57600080fd5b506104dc600480360360208110156104d557600080fd5b50356111e2565b604080516001600160a01b039092168252519081900360200190f35b34801561050457600080fd5b506105316004803603604081101561051b57600080fd5b506001600160a01b038135169060200135611244565b005b61043d600480360360a081101561054957600080fd5b6001600160a01b03823516919081019060408101602082013564010000000081111561057457600080fd5b82018360208201111561058657600080fd5b803590602001918460018302840111640100000000831117156105a857600080fd5b91908080601f016020809104026020016040519081016040528093929190818152602001838380828437600092019190915250929550508235935050506020810135906040013560ff1661131f565b34801561060357600080fd5b5061043d611622565b34801561061857600080fd5b5061043d6004803603602081101561062f57600080fd5b503561165b565b34801561064257600080fd5b5061064b6116ed565b60408051918252519081900360200190f35b34801561066957600080fd5b5061064b6116f4565b34801561067e57600080fd5b506104146004803603602081101561069557600080fd5b5035611705565b3480156106a857600080fd5b5061064b611724565b3480156106bd57600080fd5b50610531600480360360608110156106d457600080fd5b506001600160a01b0381358116916020810135909116906040013561172a565b34801561070057600080fd5b5061064b6004803603602081101561071757600080fd5b5035611781565b34801561072a57600080fd5b50610531611796565b34801561073f57600080fd5b5061064b6004803603602081101561075657600080fd5b50356001600160a01b031661181b565b34801561077257600080fd5b506105316004803603602081101561078957600080fd5b5035611836565b34801561079c57600080fd5b50610531600480360360408110156107b357600080fd5b50803590602001356001600160a01b03166118b7565b3480156107d557600080fd5b5061064b600480360360408110156107ec57600080fd5b506001600160a01b038135169060200135611923565b34801561080e57600080fd5b5061064b611954565b34801561082357600080fd5b506105316004803603604081101561083a57600080fd5b50803590602001356001600160a01b0316611958565b34801561085c57600080fd5b506105316119b9565b34801561087157600080fd5b50610531611a5c565b34801561088657600080fd5b506105316004803603606081101561089d57600080fd5b506001600160a01b03813581169160208101359091169060400135611acd565b3480156108c957600080fd5b50610531600480360360208110156108e057600080fd5b5035611ae8565b3480156108f357600080fd5b5061064b6004803603602081101561090a57600080fd5b5035611b2e565b34801561091d57600080fd5b50610414611b4a565b34801561093257600080fd5b506109506004803603602081101561094957600080fd5b5035611b53565b604051808060200185815260200184815260200183600381111561097057fe5b60ff168152602001828103825286818151815260200191508051906020019080838360005b838110156109ad578181015183820152602001610995565b50505050905090810190601f1680156109da5780820380516001836020036101000a031916815260200191505b509550505050505060405180910390f35b3480156109f757600080fd5b5061064b60048036036020811015610a0e57600080fd5b5035611c18565b348015610a2157600080fd5b506104dc60048036036020811015610a3857600080fd5b5035611c2a565b348015610a4b57600080fd5b5061041460048036036020811015610a6257600080fd5b5035611c58565b348015610a7557600080fd5b5061053160048036036020811015610a8c57600080fd5b50356001600160a01b0316611c78565b348015610aa857600080fd5b5061064b611cfc565b348015610abd57600080fd5b5061043d611d02565b348015610ad257600080fd5b5061064b60048036036020811015610ae957600080fd5b50356001600160a01b0316611d63565b348015610b0557600080fd5b50610531611dcb565b348015610b1a57600080fd5b5061053160048036036040811015610b3157600080fd5b5080359060200135611e96565b348015610b4a57600080fd5b50610531611f32565b348015610b5f57600080fd5b506104dc611fa1565b348015610b7457600080fd5b506104dc60048036036040811015610b8b57600080fd5b5080359060200135611fb0565b348015610ba457600080fd5b5061041460048036036040811015610bbb57600080fd5b50803590602001356001600160a01b0316611fce565b348015610bdd57600080fd5b5061064b611fec565b348015610bf257600080fd5b5061043d611ff1565b61053160048036036020811015610c1157600080fd5b5035612052565b348015610c2457600080fd5b5061053160048036036020811015610c3b57600080fd5b810190602081018135640100000000811115610c5657600080fd5b820183602082011115610c6857600080fd5b80359060200191846020830284011164010000000083111715610c8a57600080fd5b509092509050612326565b348015610ca157600080fd5b5061064b612504565b348015610cb657600080fd5b5061064b6125c0565b348015610ccb57600080fd5b5061053160048036036040811015610ce257600080fd5b506001600160a01b03813516906020013515156125c5565b348015610d0657600080fd5b5061064b6126ca565b348015610d1b57600080fd5b5061053160048036036020811015610d3257600080fd5b50356126ff565b348015610d4557600080fd5b5061053160048036036020811015610d5c57600080fd5b5035612955565b348015610d6f57600080fd5b50610531612a13565b348015610d8457600080fd5b50610da260048036036020811015610d9b57600080fd5b5035612a96565b60405180826003811115610db257fe5b60ff16815260200191505060405180910390f35b348015610dd257600080fd5b5061053160048036036080811015610de957600080fd5b6001600160a01b03823581169260208101359091169160408201359190810190608081016060820135640100000000811115610e2457600080fd5b820183602082011115610e3657600080fd5b80359060200191846001830284011164010000000083111715610e5857600080fd5b91908080601f016020809104026020016040519081016040528093929190818152602001838380828437600092019190915250929550612c16945050505050565b348015610ea557600080fd5b5061043d60048036036020811015610ebc57600080fd5b5035612c6e565b348015610ecf57600080fd5b5061064b60048036036020811015610ee657600080fd5b503561306c565b348015610ef957600080fd5b50610f1760048036036020811015610f1057600080fd5b5035613083565b6040518080602001848152602001838152602001828103825285818151815260200191508051906020019080838360005b83811015610f60578181015183820152602001610f48565b50505050905090810190601f168015610f8d5780820380516001836020036101000a031916815260200191505b5094505050505060405180910390f35b348015610fa957600080fd5b5061053160048036036040811015610fc057600080fd5b6001600160a01b038235169190810190604081016020820135640100000000811115610feb57600080fd5b820183602082011115610ffd57600080fd5b8035906020019184600183028401116401000000008311171561101f57600080fd5b509092509050613130565b34801561103657600080fd5b5061064b613314565b34801561104b57600080fd5b506105316004803603604081101561106257600080fd5b50803590602001356001600160a01b0316613337565b34801561108457600080fd5b5061064b613390565b34801561109957600080fd5b50610414600480360360408110156110b057600080fd5b506001600160a01b03813581169160200135166133b3565b3480156110d457600080fd5b50610531600480360360208110156110eb57600080fd5b50356001600160a01b03166133e1565b34801561110757600080fd5b5061064b613503565b7fffffffff00000000000000000000000000000000000000000000000000000000811660009081526001602052604090205460ff165b919050565b60078054604080516020601f60026000196101006001881615020190951694909404938401819004810282018101909252828152606093909290918301828280156111d75780601f106111ac576101008083540402835291602001916111d7565b820191906000526020600020905b8154815290600101906020018083116111ba57829003601f168201915b505050505090505b90565b60006111ed82613509565b6112285760405162461bcd60e51b815260040180806020018281038252602c815260200180614fc5602c913960400191505060405180910390fd5b506000908152600560205260409020546001600160a01b031690565b600061124f82611c2a565b9050806001600160a01b0316836001600160a01b031614156112a25760405162461bcd60e51b815260040180806020018281038252602181526020018061506b6021913960400191505060405180910390fd5b806001600160a01b03166112b461351c565b6001600160a01b031614806112d557506112d5816112d061351c565b6133b3565b6113105760405162461bcd60e51b8152600401808060200182810382526038815260200180614ed46038913960400191505060405180910390fd5b61131a8383613526565b505050565b6060611329614af7565b50604080516060810182526001600160a01b0388166000818152603660209081529084902054835282015290810186905261136787828787876135a1565b6113a25760405162461bcd60e51b815260040180806020018281038252602181526020018061501a6021913960400191505060405180910390fd5b6001600160a01b0387166000908152603660205260409020546113cc90600163ffffffff61367e16565b6001600160a01b03881660008181526036602090815260408083209490945583519283523383820181905260609484018581528b51958501959095528a517f5845892132946850460bff5a0083f71031bc5bf9aadcd40f1de79423eac9b10b958d9592948d94919260808501928601918190849084905b8381101561145b578181015183820152602001611443565b50505050905090810190601f1680156114885780820380516001836020036101000a031916815260200191505b5094505050505060405180910390a160006060306001600160a01b0316888a6040516020018083805190602001908083835b602083106114d95780518252601f1990920191602091820191016114ba565b6001836020036101000a038019825116818451168082178552505050505050905001826001600160a01b03166001600160a01b031660601b8152601401925050506040516020818303038152906040526040518082805190602001908083835b602083106115585780518252601f199092019160209182019101611539565b6001836020036101000a0380198251168184511680821785525050505050509050019150506000604051808303816000865af19150503d80600081146115ba576040519150601f19603f3d011682016040523d82523d6000602084013e6115bf565b606091505b509150915081611616576040805162461bcd60e51b815260206004820152601c60248201527f46756e6374696f6e2063616c6c206e6f74207375636365737366756c00000000604482015290519081900360640190fd5b98975050505050505050565b6040518060400160405280600181526020017f310000000000000000000000000000000000000000000000000000000000000081525081565b606061166682612c6e565b6040516020018080602001828103825283818151815260200191508051906020019080838360005b838110156116a657818101518382015260200161168e565b50505050905090810190601f1680156116d35780820380516001836020036101000a031916815260200191505b5060408051601f1981840301815291905295945050505050565b62093a8081565b600061170060036136d8565b905090565b6000600261171283612a96565b600381111561171d57fe5b1492915050565b60355490565b61173b61173561351c565b826136e3565b6117765760405162461bcd60e51b81526004018080602001828103825260318152602001806150b36031913960400191505060405180910390fd5b61131a838383613787565b60009081526020819052604090206002015490565b61179e61351c565b6001600160a01b03166117af611fa1565b6001600160a01b03161461180a576040805162461bcd60e51b815260206004820181905260248201527f4f776e61626c653a2063616c6c6572206973206e6f7420746865206f776e6572604482015290519081900360640190fd5b600f805461ff001916610100179055565b6001600160a01b031660009081526036602052604090205490565b61183f81611c2a565b6001600160a01b031661185061351c565b6001600160a01b0316146118ab576040805162461bcd60e51b815260206004820181905260248201527f4368696c644552433732313a20494e56414c49445f544f4b454e5f4f574e4552604482015290519081900360640190fd5b6118b4816138e5565b50565b6000828152602081905260409020600201546118da906118d561351c565b611fce565b6119155760405162461bcd60e51b815260040180806020018281038252602f815260200180614c64602f913960400191505060405180910390fd5b61191f82826139be565b5050565b6001600160a01b038216600090815260026020526040812061194b908363ffffffff613a2d16565b90505b92915050565b4690565b61196061351c565b6001600160a01b0316816001600160a01b0316146119af5760405162461bcd60e51b815260040180806020018281038252602f8152602001806151bc602f913960400191505060405180910390fd5b61191f8282613a39565b6119c161351c565b6001600160a01b03166119d2611fa1565b6001600160a01b031614611a2d576040805162461bcd60e51b815260206004820181905260248201527f4f776e61626c653a2063616c6c6572206973206e6f7420746865206f776e6572604482015290519081900360640190fd5b6040514790339082156108fc029083906000818181858888f1935050505015801561191f573d6000803e3d6000fd5b604080516a5041555345525f524f4c4560a81b8152905190819003600b019020611a88906118d561351c565b611ac35760405162461bcd60e51b815260040180806020018281038252604081526020018061517c6040913960400191505060405180910390fd5b611acb613aa8565b565b61131a83838360405180602001604052806000815250612c16565b611af361173561351c565b6118ab5760405162461bcd60e51b815260040180806020018281038252603081526020018061514c6030913960400191505060405180910390fd5b600080611b4260038463ffffffff613b5116565b509392505050565b600b5460ff1690565b6000818152600e60205260408120600181015460028201546060939283928392611b7c88612a96565b8354604080516020601f60026000196101006001881615020190951694909404938401819004810282018101909252828152918691830182828015611c025780601f10611bd757610100808354040283529160200191611c02565b820191906000526020600020905b815481529060010190602001808311611be557829003601f168201915b5050505050935093509350935093509193509193565b60306020526000908152604090205481565b600061194e82604051806060016040528060298152602001614f36602991396003919063ffffffff613b6d16565b60006003611c6583612a96565b6003811115611c7057fe5b141592915050565b604080516a4d494e5445525f524f4c4560a81b8152905190819003600b019020611ca4906118d561351c565b611cdf5760405162461bcd60e51b815260040180806020018281038252603d81526020018061510f603d913960400191505060405180910390fd5b611cf281611ced600c613b84565b613b88565b6118b4600c613cc2565b61271081565b600a8054604080516020601f60026000196101006001881615020190951694909404938401819004810282018101909252828152606093909290918301828280156111d75780601f106111ac576101008083540402835291602001916111d7565b60006001600160a01b038216611daa5760405162461bcd60e51b815260040180806020018281038252602a815260200180614f0c602a913960400191505060405180910390fd5b6001600160a01b038216600090815260026020526040902061194e906136d8565b611dd361351c565b6001600160a01b0316611de4611fa1565b6001600160a01b031614611e3f576040805162461bcd60e51b815260206004820181905260248201527f4f776e61626c653a2063616c6c6572206973206e6f7420746865206f776e6572604482015290519081900360640190fd5b600d546040516000916001600160a01b0316907f8be0079c531659141344cd1fd0a4f28419497f9722a3daafe3b4186f6b6457e0908390a3600d805473ffffffffffffffffffffffffffffffffffffffff19169055565b600f54610100900460ff16611edc5760405162461bcd60e51b8152600401808060200182810382526027815260200180614d5c6027913960400191505060405180910390fd5b611eed611ee761351c565b836136e3565b611f285760405162461bcd60e51b815260040180806020018281038252602b8152602001806150e4602b913960400191505060405180910390fd5b61131a8282613ccb565b604080516a5041555345525f524f4c4560a81b8152905190819003600b019020611f5e906118d561351c565b611f995760405162461bcd60e51b815260040180806020018281038252603e815260200180614d83603e913960400191505060405180910390fd5b611acb613d11565b600d546001600160a01b031690565b600082815260208190526040812061194b908363ffffffff613a2d16565b600082815260208190526040812061194b908363ffffffff613da116565b601481565b60088054604080516020601f60026000196101006001881615020190951694909404938401819004810282018101909252828152606093909290918301828280156111d75780601f106111ac576101008083540402835291602001916111d7565b600f5460ff166120a9576040805162461bcd60e51b815260206004820152601560248201527f546865204e75727365727920697320636c6f7365640000000000000000000000604482015290519081900360640190fd5b6120b16116f4565b61271003811115612109576040805162461bcd60e51b815260206004820152601560248201527f4e6f7420656e6f7567682062756c6273206c6566740000000000000000000000604482015290519081900360640190fd5b6127106121146116f4565b10612166576040805162461bcd60e51b815260206004820152601660248201527f53616c652068617320616c726561647920656e64656400000000000000000000604482015290519081900360640190fd5b600081118015612177575060148111155b6121b25760405162461bcd60e51b815260040180806020018281038252603081526020018061503b6030913960400191505060405180910390fd5b6127106121c66121c06116f4565b8361367e565b1115612219576040805162461bcd60e51b815260206004820152601860248201527f45786365656473204d41585f43525950544f5243484944530000000000000000604482015290519081900360640190fd5b61222a612224612504565b82613db6565b3410156122685760405162461bcd60e51b8152600401808060200182810382526023815260200180614f5f6023913960400191505060405180910390fd5b60005b8181101561191f5761227d602f613cc2565b6000612289602f613b84565b6040805160a0810182526006606082019081527f6772616e756d0000000000000000000000000000000000000000000000000000608083015281526000196020808301919091526000828401819052848152600e82529290922081518051949550919390926122fc928492910190614b21565b506020820151600182015560409091015160029091015561231d3382613e0f565b5060010161226b565b80601481111561237d576040805162461bcd60e51b815260206004820181905260248201527f4368696c644552433732313a20455843454544535f42415443485f4c494d4954604482015290519081900360640190fd5b60005b8181101561248a57600084848381811061239657fe5b9050602002013590506123a881611c2a565b6001600160a01b03166123b961351c565b6001600160a01b031614816040516020018080614e8e60219139602101828152602001915050604051602081830303815290604052906124775760405162461bcd60e51b81526004018080602001828103825283818151815260200191508051906020019080838360005b8381101561243c578181015183820152602001612424565b50505050905090810190601f1680156124695780820380516001836020036101000a031916815260200191505b509250505060405180910390fd5b50612481816138e5565b50600101612380565b5061249361351c565b6001600160a01b03167ff871896b17e9cb7a64941c62c188a4f5c621b86800e3d15452ece01ce56073df848460405180806020018281038252848482818152602001925060200280828437600083820152604051601f909101601f19169092018290039550909350505050a2505050565b60008061250f6116f4565b90506126ac811061252b57670de0b6b3a76400009150506111df565b61251c8110612545576708e1bc9bf04000009150506111df565b611d4c811061255f57670470de4df82000009150506111df565b610dac8110612579576702386f26fc1000009150506111df565b6105dc81106125935767011c37937e0800009150506111df565b6101f481106125ac5766d529ae9e8600009150506111df565b668e1bc9bf0400009150506111df565b5090565b600081565b6125cd61351c565b6001600160a01b0316826001600160a01b03161415612633576040805162461bcd60e51b815260206004820152601960248201527f4552433732313a20617070726f766520746f2063616c6c657200000000000000604482015290519081900360640190fd5b806006600061264061351c565b6001600160a01b03908116825260208083019390935260409182016000908120918716808252919093529120805460ff19169215159290921790915561268461351c565b60408051841515815290516001600160a01b0392909216917f17307eab39ab6107e8899845ad3d59bd9653f200f220920489ca2b5937696c319181900360200190a35050565b604080517f4445504f5349544f525f524f4c450000000000000000000000000000000000008152905190819003600e01902081565b61270881611c2a565b6001600160a01b031661271961351c565b6001600160a01b031614612774576040805162461bcd60e51b815260206004820181905260248201527f4368696c644552433732313a20494e56414c49445f544f4b454e5f4f574e4552604482015290519081900360640190fd5b80600061277f61351c565b6001600160a01b03167ff94915c6d1fd521cee85359239227480c7e8776d7caf1fc3bacad5c269b66a14306001600160a01b0316631653c39a866040518263ffffffff1660e01b81526004018082815260200191505060006040518083038186803b1580156127ed57600080fd5b505afa158015612801573d6000803e3d6000fd5b505050506040513d6000823e601f3d908101601f19168201604052602081101561282a57600080fd5b810190808051604051939291908464010000000082111561284a57600080fd5b90830190602082018581111561285f57600080fd5b825164010000000081118282018810171561287957600080fd5b82525081516020918201929091019080838360005b838110156128a657818101518382015260200161288e565b50505050905090810190601f1680156128d35780820380516001836020036101000a031916815260200191505b50604081815260208083528651818401528651929550859450908401925085019080838360005b838110156129125781810151838201526020016128fa565b50505050905090810190601f16801561293f5780820380516001836020036101000a031916815260200191505b509250505060405180910390a46118b4816138e5565b61296061173561351c565b61299b5760405162461bcd60e51b8152600401808060200182810382526027815260200180614e0b6027913960400191505060405180910390fd5b6129a481611c58565b6129ad576118b4565b6000818152600e6020526040812060028101546001820154919290916129d1613e29565b03905060006129e38262093a80613e2d565b9050808311156129f657505050506118b4565b6000612a0384600161367e565b6002909501949094555050505050565b612a1b61351c565b6001600160a01b0316612a2c611fa1565b6001600160a01b031614612a87576040805162461bcd60e51b815260206004820181905260248201527f4f776e61626c653a2063616c6c6572206973206e6f7420746865206f776e6572604482015290519081900360640190fd5b600f805460ff19166001179055565b6000612aa0614b9b565b6000838152600e60209081526040918290208251815460026001821615610100026000190190911604601f81018490049093028101608090810190945260608101838152909391928492849190840182828015612b3e5780601f10612b1357610100808354040283529160200191612b3e565b820191906000526020600020905b815481529060010190602001808311612b2157829003601f168201915b50505050508152602001600182015481526020016002820154815250509050806020015160001415612b74576000915050611146565b60001981602001511415612b8c576001915050611146565b60408101516020820151600090612ba1613e29565b0390506000612bb38262093a80613e2d565b90506000612bc48362093a80613e94565b905081841415612bdc57600295505050505050611146565b81612be885600161367e565b148015612bf65750612a3081105b15612c0957600295505050505050611146565b5060039695505050505050565b612c21611ee761351c565b612c5c5760405162461bcd60e51b81526004018080602001828103825260318152602001806150b36031913960400191505060405180910390fd5b612c6884848484613efb565b50505050565b606080612c7a83611b53565b5091925060019150612c899050565b612c9284612a96565b6003811115612c9d57fe5b1415612d7b57612cab611d02565b6040518060600160405280602e8152602001614d2e602e91396040516020018083805190602001908083835b60208310612cf65780518252601f199092019160209182019101612cd7565b51815160209384036101000a600019018019909216911617905285519190930192850191508083835b60208310612d3e5780518252601f199092019160209182019101612d1f565b6001836020036101000a03801982511681845116808217855250505050505090500192505050604051602081830303815290604052915050611146565b6002612d8684612a96565b6003811115612d9157fe5b1415612f0257612d9f611d02565b60316000836040516020018080602001828103825283818151815260200191508051906020019080838360005b83811015612de4578181015183820152602001612dcc565b50505050905090810190601f168015612e115780820380516001836020036101000a031916815260200191505b50925050506040516020818303038152906040528051906020012081526020019081526020016000206040516020018083805190602001908083835b60208310612e6c5780518252601f199092019160209182019101612e4d565b6001836020036101000a03801982511681845116808217855250505050505090500182805460018160011615610100020316600290048015612ee55780601f10612ec3576101008083540402835291820191612ee5565b820191906000526020600020905b815481529060010190602001808311612ed1575b505092505050604051602081830303815290604052915050611146565b612f0a611d02565b60326000836040516020018080602001828103825283818151815260200191508051906020019080838360005b83811015612f4f578181015183820152602001612f37565b50505050905090810190601f168015612f7c5780820380516001836020036101000a031916815260200191505b50925050506040516020818303038152906040528051906020012081526020019081526020016000206040516020018083805190602001908083835b60208310612fd75780518252601f199092019160209182019101612fb8565b6001836020036101000a038019825116818451168082178552505050505050905001828054600181600116156101000203166002900480156130505780601f1061302e576101008083540402835291820191613050565b820191906000526020600020905b81548152906001019060200180831161303c575b505060408051601f198184030181529190529695505050505050565b600081815260208190526040812061194e906136d8565b600e6020908152600091825260409182902080548351601f6002600019610100600186161502019093169290920491820184900484028101840190945280845290929183919083018282801561311a5780601f106130ef5761010080835404028352916020019161311a565b820191906000526020600020905b8154815290600101906020018083116130fd57829003601f168201915b5050505050908060010154908060020154905083565b604080517f4445504f5349544f525f524f4c450000000000000000000000000000000000008152905190819003600e01902061316e816118d561351c565b60339061320e5760405162461bcd60e51b81526020600482019081528254600260001961010060018416150201909116046024830181905290918291604490910190849080156131ff5780601f106131d4576101008083540402835291602001916131ff565b820191906000526020600020905b8154815290600101906020018083116131e257829003601f168201915b50509250505060405180910390fd5b50602082141561323e5760008383602081101561322a57600080fd5b503590506132388582613b88565b50612c68565b60608383602081101561325057600080fd5b81019060208101813564010000000081111561326b57600080fd5b82018360208201111561327d57600080fd5b8035906020019184602083028401116401000000008311171561329f57600080fd5b91908080602002602001604051908101604052809392919081815260200183836020028082843760009201829052508451949850939650929450505050505b8181101561330b57613303878483815181106132f657fe5b6020026020010151613b88565b6001016132de565b50505050505050565b604080516a4d494e5445525f524f4c4560a81b8152905190819003600b01902081565b600082815260208190526040902060020154613355906118d561351c565b6119af5760405162461bcd60e51b8152600401808060200182810382526030815260200180614e5e6030913960400191505060405180910390fd5b604080516a5041555345525f524f4c4560a81b8152905190819003600b01902081565b6001600160a01b03918216600090815260066020908152604080832093909416825291909152205460ff1690565b6133e961351c565b6001600160a01b03166133fa611fa1565b6001600160a01b031614613455576040805162461bcd60e51b815260206004820181905260248201527f4f776e61626c653a2063616c6c6572206973206e6f7420746865206f776e6572604482015290519081900360640190fd5b6001600160a01b03811661349a5760405162461bcd60e51b8152600401808060200182810382526026815260200180614d086026913960400191505060405180910390fd5b600d546040516001600160a01b038084169216907f8be0079c531659141344cd1fd0a4f28419497f9722a3daafe3b4186f6b6457e090600090a3600d805473ffffffffffffffffffffffffffffffffffffffff19166001600160a01b0392909216919091179055565b612a3081565b600061194e60038363ffffffff613f4d16565b6000611700613f59565b6000818152600560205260409020805473ffffffffffffffffffffffffffffffffffffffff19166001600160a01b038416908117909155819061356882611c2a565b6001600160a01b03167f8c5be1e5ebec7d5bd14f71427d1e84f3dd0314c0f7b2291e5b200ac8c7c3b92560405160405180910390a45050565b60006001600160a01b0386166135e85760405162461bcd60e51b8152600401808060200182810382526025815260200180614eaf6025913960400191505060405180910390fd5b60016135fb6135f687613fb6565b614042565b83868660405160008152602001604052604051808581526020018460ff1660ff1681526020018381526020018281526020019450505050506020604051602081039080840390855afa158015613655573d6000803e3d6000fd5b505050602060405103516001600160a01b0316866001600160a01b031614905095945050505050565b60008282018381101561194b576040805162461bcd60e51b815260206004820152601b60248201527f536166654d6174683a206164646974696f6e206f766572666c6f770000000000604482015290519081900360640190fd5b600061194e82613b84565b60006136ee82613509565b6137295760405162461bcd60e51b815260040180806020018281038252602c815260200180614e32602c913960400191505060405180910390fd5b600061373483611c2a565b9050806001600160a01b0316846001600160a01b0316148061376f5750836001600160a01b0316613764846111e2565b6001600160a01b0316145b8061377f575061377f81856133b3565b949350505050565b826001600160a01b031661379a82611c2a565b6001600160a01b0316146137df5760405162461bcd60e51b8152600401808060200182810382526029815260200180614ff16029913960400191505060405180910390fd5b6001600160a01b0382166138245760405162461bcd60e51b8152600401808060200182810382526024815260200180614dc16024913960400191505060405180910390fd5b61382f8383836140a9565b61383a600082613526565b6001600160a01b0383166000908152600260205260409020613862908263ffffffff61410916565b506001600160a01b038216600090815260026020526040902061388b908263ffffffff61411516565b5061389e6003828463ffffffff61412116565b5080826001600160a01b0316846001600160a01b03167fddf252ad1be2c89b69c2b068fc378daa952ba7f163c4a11628f55a4df523b3ef60405160405180910390a4505050565b60006138f082611c2a565b90506138fe816000846140a9565b613909600083613526565b600082815260096020526040902054600260001961010060018416150201909116041561394757600082815260096020526040812061394791614bbc565b6001600160a01b038116600090815260026020526040902061396f908363ffffffff61410916565b5061398160038363ffffffff61413716565b5060405182906000906001600160a01b038416907fddf252ad1be2c89b69c2b068fc378daa952ba7f163c4a11628f55a4df523b3ef908390a45050565b60008281526020819052604090206139dc908263ffffffff61414316565b1561191f576139e961351c565b6001600160a01b0316816001600160a01b0316837f2f8788117e7eff1d82e926ec794901d17c78024a50270940304540a733656f0d60405160405180910390a45050565b600061194b8383614158565b6000828152602081905260409020613a57908263ffffffff6141bc16565b1561191f57613a6461351c565b6001600160a01b0316816001600160a01b0316837ff6391f5c32d9c69d2a47ea670b442974b53935d1edc7fd64eb21e047a839171b60405160405180910390a45050565b613ab0611b4a565b613b01576040805162461bcd60e51b815260206004820152601460248201527f5061757361626c653a206e6f7420706175736564000000000000000000000000604482015290519081900360640190fd5b600b805460ff191690557f5db9ee0a495bf2e6ff9c91a7834c1ba4fdd244a5e8aa4e537bd38aeae4b073aa613b3461351c565b604080516001600160a01b039092168252519081900360200190a1565b6000808080613b6086866141d1565b9097909650945050505050565b6000613b7a84848461424c565b90505b9392505050565b5490565b6001600160a01b038216613be3576040805162461bcd60e51b815260206004820181905260248201527f4552433732313a206d696e7420746f20746865207a65726f2061646472657373604482015290519081900360640190fd5b613bec81613509565b15613c3e576040805162461bcd60e51b815260206004820152601c60248201527f4552433732313a20746f6b656e20616c7265616479206d696e74656400000000604482015290519081900360640190fd5b613c4a600083836140a9565b6001600160a01b0382166000908152600260205260409020613c72908263ffffffff61411516565b50613c856003828463ffffffff61412116565b5060405181906001600160a01b038416906000907fddf252ad1be2c89b69c2b068fc378daa952ba7f163c4a11628f55a4df523b3ef908290a45050565b80546001019055565b6040805142602080830191909152448284015260608083018590528351808403909101815260809092019092528051910120600090613d0a84826142d9565b5092915050565b613d19611b4a565b15613d6b576040805162461bcd60e51b815260206004820152601060248201527f5061757361626c653a2070617573656400000000000000000000000000000000604482015290519081900360640190fd5b600b805460ff191660011790557f62e78cea01bee320cd4e420270b5ea74000d11b0c9f74754ebdbfc544b05a258613b3461351c565b600061194b836001600160a01b038416614333565b600082613dc55750600061194e565b82820282848281613dd257fe5b041461194b5760405162461bcd60e51b8152600401808060200182810382526021815260200180614fa46021913960400191505060405180910390fd5b61191f82826040518060200160405280600081525061434b565b4290565b6000808211613e83576040805162461bcd60e51b815260206004820152601a60248201527f536166654d6174683a206469766973696f6e206279207a65726f000000000000604482015290519081900360640190fd5b818381613e8c57fe5b049392505050565b6000808211613eea576040805162461bcd60e51b815260206004820152601860248201527f536166654d6174683a206d6f64756c6f206279207a65726f0000000000000000604482015290519081900360640190fd5b818381613ef357fe5b069392505050565b613f06848484613787565b613f128484848461439d565b612c685760405162461bcd60e51b8152600401808060200182810382526032815260200180614c936032913960400191505060405180910390fd5b600061194b8383614333565b600033301415613fb15760606000368080601f0160208091040260200160405190810160405280939291908181526020018383808284376000920191909152505050503601516001600160a01b031691506111df9050565b503390565b6000604051806080016040528060438152602001614cc560439139805190602001208260000151836020015184604001518051906020012060405160200180858152602001848152602001836001600160a01b03166001600160a01b03168152602001828152602001945050505050604051602081830303815290604052805190602001209050919050565b600061404c611724565b8260405160200180807f190100000000000000000000000000000000000000000000000000000000000081525060020183815260200182815260200192505050604051602081830303815290604052805190602001209050919050565b6001600160a01b03821615806140c357506140c381611c58565b6140fe5760405162461bcd60e51b815260040180806020018281038252602781526020018061508c6027913960400191505060405180910390fd5b61131a83838361455f565b600061194b838361456a565b600061194b8383614630565b6000613b7a84846001600160a01b03851661467a565b600061194b8383614711565b600061194b836001600160a01b038416614630565b8154600090821061419a5760405162461bcd60e51b8152600401808060200182810382526022815260200180614c176022913960400191505060405180910390fd5b8260000182815481106141a957fe5b9060005260206000200154905092915050565b600061194b836001600160a01b03841661456a565b8154600090819083106142155760405162461bcd60e51b8152600401808060200182810382526022815260200180614f826022913960400191505060405180910390fd5b600084600001848154811061422657fe5b906000526020600020906002020190508060000154816001015492509250509250929050565b600082815260018401602052604081205482816142aa5760405162461bcd60e51b815260206004820181815283516024840152835190928392604490910191908501908083836000831561243c578181015183820152602001612424565b508460000160018203815481106142bd57fe5b9060005260206000209060020201600101549150509392505050565b6000828152600e6020526040902060606142fd6142f884612710613e94565b6147e5565b80519091506143129083906020840190614b21565b5061431b613e29565b6001830155600061432b85611c2a565b505050505050565b60009081526001919091016020526040902054151590565b6143558383613b88565b614362600084848461439d565b61131a5760405162461bcd60e51b8152600401808060200182810382526032815260200180614c936032913960400191505060405180910390fd5b60006143b1846001600160a01b03166148d1565b6143bd5750600161377f565b606061450d630a85bd0160e11b6143d261351c565b88878760405160240180856001600160a01b03166001600160a01b03168152602001846001600160a01b03166001600160a01b0316815260200183815260200180602001828103825283818151815260200191508051906020019080838360005b8381101561444b578181015183820152602001614433565b50505050905090810190601f1680156144785780820380516001836020036101000a031916815260200191505b5095505050505050604051602081830303815290604052907bffffffffffffffffffffffffffffffffffffffffffffffffffffffff19166020820180517bffffffffffffffffffffffffffffffffffffffffffffffffffffffff8381831617835250505050604051806060016040528060328152602001614c93603291396001600160a01b038816919063ffffffff6148d716565b9050600081806020019051602081101561452657600080fd5b50517fffffffff0000000000000000000000000000000000000000000000000000000016630a85bd0160e11b1492505050949350505050565b61131a8383836148e6565b60008181526001830160205260408120548015614626578354600019808301919081019060009087908390811061459d57fe5b90600052602060002001549050808760000184815481106145ba57fe5b6000918252602080832090910192909255828152600189810190925260409020908401905586548790806145ea57fe5b6001900381819060005260206000200160009055905586600101600087815260200190815260200160002060009055600194505050505061194e565b600091505061194e565b600061463c8383614333565b6146725750815460018181018455600084815260208082209093018490558454848252828601909352604090209190915561194e565b50600061194e565b6000828152600184016020526040812054806146df575050604080518082018252838152602080820184815286546001818101895560008981528481209551600290930290950191825591519082015586548684528188019092529290912055613b7d565b828560000160018303815481106146f257fe5b9060005260206000209060020201600101819055506000915050613b7d565b60008181526001830160205260408120548015614626578354600019808301919081019060009087908390811061474457fe5b906000526020600020906002020190508087600001848154811061476457fe5b6000918252602080832084546002909302019182556001938401549184019190915583548252898301905260409020908401905586548790806147a357fe5b600082815260208082206002600019909401938402018281556001908101839055929093558881528982019092526040822091909155945061194e9350505050565b606060005b600a8110156148cb57601081600a811061480057fe5b601091828204019190066002029054906101000a900461ffff1661ffff1683116148c357601181600a811061483157fe5b01805460408051602060026001851615610100026000190190941693909304601f810184900484028201840190925281815292918301828280156148b65780601f1061488b576101008083540402835291602001916148b6565b820191906000526020600020905b81548152906001019060200180831161489957829003601f168201915b5050505050915050611146565b6001016147ea565b50919050565b3b151590565b6060613b7a8484600085614935565b6148f183838361131a565b6148f9611b4a565b1561131a5760405162461bcd60e51b815260040180806020018281038252602b815260200180614c39602b913960400191505060405180910390fd5b6060824710156149765760405162461bcd60e51b8152600401808060200182810382526026815260200180614de56026913960400191505060405180910390fd5b61497f856148d1565b6149d0576040805162461bcd60e51b815260206004820152601d60248201527f416464726573733a2063616c6c20746f206e6f6e2d636f6e7472616374000000604482015290519081900360640190fd5b60006060866001600160a01b031685876040518082805190602001908083835b60208310614a0f5780518252601f1990920191602091820191016149f0565b6001836020036101000a03801982511681845116808217855250505050505090500191505060006040518083038185875af1925050503d8060008114614a71576040519150601f19603f3d011682016040523d82523d6000602084013e614a76565b606091505b5091509150614a86828286614a91565b979650505050505050565b60608315614aa0575081613b7d565b825115614ab05782518084602001fd5b60405162461bcd60e51b815260206004820181815284516024840152845185939192839260440191908501908083836000831561243c578181015183820152602001612424565b60405180606001604052806000815260200160006001600160a01b03168152602001606081525090565b828054600181600116156101000203166002900490600052602060002090601f016020900481019282601f10614b6257805160ff1916838001178555614b8f565b82800160010185558215614b8f579182015b82811115614b8f578251825591602001919060010190614b74565b506125bc929150614bfc565b60405180606001604052806060815260200160008152602001600081525090565b50805460018160011615610100020316600290046000825580601f10614be257506118b4565b601f0160209004906000526020600020908101906118b491905b6111df91905b808211156125bc5760008155600101614c0256fe456e756d657261626c655365743a20696e646578206f7574206f6620626f756e64734552433732315061757361626c653a20746f6b656e207472616e73666572207768696c6520706175736564416363657373436f6e74726f6c3a2073656e646572206d75737420626520616e2061646d696e20746f206772616e744552433732313a207472616e7366657220746f206e6f6e20455243373231526563656976657220696d706c656d656e7465724d6574615472616e73616374696f6e2875696e74323536206e6f6e63652c616464726573732066726f6d2c62797465732066756e6374696f6e5369676e6174757265294f776e61626c653a206e6577206f776e657220697320746865207a65726f2061646472657373516d5764316d6e374475477978394279664e6571437367645355734a5a316372616769746761796773714476456d4765726d696e6174696f6e2073746172747320323032312d30342d31325431363a30303a30305a4552433732315072657365744d696e7465725061757365724175746f49643a206d75737420686176652070617573657220726f6c6520746f2070617573654552433732313a207472616e7366657220746f20746865207a65726f2061646472657373416464726573733a20696e73756666696369656e742062616c616e636520666f722063616c6c4f6e6c7920746865204f776e65722063616e20776174657220612043727970744f72636869642e4552433732313a206f70657261746f7220717565727920666f72206e6f6e6578697374656e7420746f6b656e416363657373436f6e74726f6c3a2073656e646572206d75737420626520616e2061646d696e20746f207265766f6b654368696c644552433732313a20494e56414c49445f544f4b454e5f4f574e4552204e61746976654d6574615472616e73616374696f6e3a20494e56414c49445f5349474e45524552433732313a20617070726f76652063616c6c6572206973206e6f74206f776e6572206e6f7220617070726f76656420666f7220616c6c4552433732313a2062616c616e636520717565727920666f7220746865207a65726f20616464726573734552433732313a206f776e657220717565727920666f72206e6f6e6578697374656e7420746f6b656e45746865722076616c75652073656e742069732062656c6f7720746865207072696365456e756d657261626c654d61703a20696e646578206f7574206f6620626f756e6473536166654d6174683a206d756c7469706c69636174696f6e206f766572666c6f774552433732313a20617070726f76656420717565727920666f72206e6f6e6578697374656e7420746f6b656e4552433732313a207472616e73666572206f6620746f6b656e2074686174206973206e6f74206f776e5369676e657220616e64207369676e617475726520646f206e6f74206d61746368596f752063616e20706c616e74206d696e696d756d20312c206d6178696d756d2032302043727970744f7263686964734552433732313a20617070726f76616c20746f2063757272656e74206f776e6572446561642043727970744f7263686964732063616e6e6f74206265207472616e736665727265644552433732313a207472616e736665722063616c6c6572206973206e6f74206f776e6572206e6f7220617070726f7665644f6e6c7920746865204f776e65722063616e206765726d696e61746520612043727970744f72636869642e4552433732315072657365744d696e7465725061757365724175746f49643a206d7573742068617665206d696e74657220726f6c6520746f206d696e744552433732314275726e61626c653a2063616c6c6572206973206e6f74206f776e6572206e6f7220617070726f7665644552433732315072657365744d696e7465725061757365724175746f49643a206d75737420686176652070617573657220726f6c6520746f20756e7061757365416363657373436f6e74726f6c3a2063616e206f6e6c792072656e6f756e636520726f6c657320666f722073656c66a264697066735822122046de7ca965b015ebdde5c485db990be8508f9d7b4a1b20a183ee60b1f24ee9a164736f6c63430006060033516d55384d4e7a6e5436464431763558646e536541366345597178706a374d676b4543706f7433614345526572582f637970726970656469756d2d63616c63656f6c75732e6a736f6e516d55384d4e7a6e5436464431763558646e536541366345597178706a374d676b4543706f7433614345526572582f64656e64726f7068796c61782d6c696e64656e69692e6a736f6e516d56376e735167484e76777952786262685035396948336772715366713367376a6f53506153314a47526d4a612f70617068696f706564696c756d2d726f7468736368696c6469616e756d2e6a736f6e516d55384d4e7a6e5436464431763558646e536541366345597178706a374d676b4543706f7433614345526572582f706c6174616e74686572612d617a6f726963612e6a736f6e454950373132446f6d61696e28737472696e67206e616d652c737472696e672076657273696f6e2c6164647265737320766572696679696e67436f6e74726163742c627974657333322073616c7429516d56376e735167484e76777952786262685035396948336772715366713367376a6f53506153314a47526d4a612f637970726970656469756d2d63616c63656f6c75732e6a736f6e516d56376e735167484e76777952786262685035396948336772715366713367376a6f53506153314a47526d4a612f7068616c61656e6f707369732d6d6963686f6c69747a69692e6a736f6e516d55384d4e7a6e5436464431763558646e536541366345597178706a374d676b4543706f7433614345526572582f76616e64612d636f6572756c65612e6a736f6e516d55384d4e7a6e5436464431763558646e536541366345597178706a374d676b4543706f7433614345526572582f6d696c746f6e69612d6b61796173696d61652e6a736f6e516d56376e735167484e76777952786262685035396948336772715366713367376a6f53506153314a47526d4a612f70617068696f706564696c756d2d766965746e616d656e73652e6a736f6e516d55384d4e7a6e5436464431763558646e536541366345597178706a374d676b4543706f7433614345526572582f6775617269616e7468652d617572616e74696163612e6a736f6e516d56376e735167484e76777952786262685035396948336772715366713367376a6f53506153314a47526d4a612f7368656e7a68656e6963612d6f726368696461636561652e6a736f6e516d56376e735167484e76777952786262685035396948336772715366713367376a6f53506153314a47526d4a612f6d696c746f6e69612d6b61796173696d61652e6a736f6e516d56376e735167484e76777952786262685035396948336772715366713367376a6f53506153314a47526d4a612f76616e64612d636f6572756c65612e6a736f6e516d55384d4e7a6e5436464431763558646e536541366345597178706a374d676b4543706f7433614345526572582f70617068696f706564696c756d2d726f7468736368696c6469616e756d2e6a736f6e516d56376e735167484e76777952786262685035396948336772715366713367376a6f53506153314a47526d4a612f6775617269616e7468652d617572616e74696163612e6a736f6e516d55384d4e7a6e5436464431763558646e536541366345597178706a374d676b4543706f7433614345526572582f70617068696f706564696c756d2d766965746e616d656e73652e6a736f6e516d56376e735167484e76777952786262685035396948336772715366713367376a6f53506153314a47526d4a612f64656e64726f7068796c61782d6c696e64656e69692e6a736f6e516d55384d4e7a6e5436464431763558646e536541366345597178706a374d676b4543706f7433614345526572582f7068616c61656e6f707369732d6d6963686f6c69747a69692e6a736f6e516d55384d4e7a6e5436464431763558646e536541366345597178706a374d676b4543706f7433614345526572582f7368656e7a68656e6963612d6f726368696461636561652e6a736f6e516d56376e735167484e76777952786262685035396948336772715366713367376a6f53506153314a47526d4a612f706c6174616e74686572612d617a6f726963612e6a736f6e",
  "devdoc": {
    "methods": {
      "approve(address,uint256)": {
        "details": "See {IERC721-approve}."
      },
      "balanceOf(address)": {
        "details": "See {IERC721-balanceOf}."
      },
      "baseURI()": {
        "details": "Returns the base URI set via {_setBaseURI}. This will be automatically added as a prefix in {tokenURI} to each token's URI, or to the token ID if no specific URI is set for that token ID."
      },
      "burn(uint256)": {
        "details": "Burns `tokenId`. See {ERC721-_burn}.     * Requirements:     * - The caller must own `tokenId` or be an approved operator."
      },
      "deposit(address,bytes)": {
        "details": "Should be callable only by ChildChainManager Should handle deposit by minting the required tokenId for user Make sure minting is done only by this function",
        "params": {
          "depositData": "abi encoded tokenId",
          "user": "user address for whom deposit is being done"
        }
      },
      "encodeTokenMetadata(uint256)": {
        "params": {
          "tokenId": "Token for which URI to be fetched"
        }
      },
      "getApproved(uint256)": {
        "details": "See {IERC721-getApproved}."
      },
      "getRoleAdmin(bytes32)": {
        "details": "Returns the admin role that controls `role`. See {grantRole} and {revokeRole}.     * To change a role's admin, use {_setRoleAdmin}."
      },
      "getRoleMember(bytes32,uint256)": {
        "details": "Returns one of the accounts that have `role`. `index` must be a value between 0 and {getRoleMemberCount}, non-inclusive.     * Role bearers are not sorted in any particular way, and their ordering may change at any point.     * WARNING: When using {getRoleMember} and {getRoleMemberCount}, make sure you perform all queries on the same block. See the following https://forum.openzeppelin.com/t/iterating-over-elements-on-enumerableset-in-openzeppelin-contracts/2296[forum post] for more information."
      },
      "getRoleMemberCount(bytes32)": {
        "details": "Returns the number of accounts that have `role`. Can be used together with {getRoleMember} to enumerate all bearers of a role."
      },
      "grantRole(bytes32,address)": {
        "details": "Grants `role` to `account`.     * If `account` had not been already granted `role`, emits a {RoleGranted} event.     * Requirements:     * - the caller must have ``role``'s admin role."
      },
      "hasRole(bytes32,address)": {
        "details": "Returns `true` if `account` has been granted `role`."
      },
      "isApprovedForAll(address,address)": {
        "details": "See {IERC721-isApprovedForAll}."
      },
      "mint(address)": {
        "details": "Creates a new token for `to`. Its token ID will be automatically assigned (and available on the emitted {IERC721-Transfer} event), and the token URI autogenerated based on the base URI passed at construction.     * See {ERC721-_mint}.     * Requirements:     * - the caller must have the `MINTER_ROLE`."
      },
      "name()": {
        "details": "See {IERC721Metadata-name}."
      },
      "owner()": {
        "details": "Returns the address of the current owner."
      },
      "ownerOf(uint256)": {
        "details": "See {IERC721-ownerOf}."
      },
      "pause()": {
        "details": "Pauses all token transfers.     * See {ERC721Pausable} and {Pausable-_pause}.     * Requirements:     * - the caller must have the `PAUSER_ROLE`."
      },
      "paused()": {
        "details": "Returns true if the contract is paused, and false otherwise."
      },
      "renounceOwnership()": {
        "details": "Leaves the contract without owner. It will not be possible to call `onlyOwner` functions anymore. Can only be called by the current owner.     * NOTE: Renouncing ownership will leave the contract without an owner, thereby removing any functionality that is only available to the owner."
      },
      "renounceRole(bytes32,address)": {
        "details": "Revokes `role` from the calling account.     * Roles are often managed via {grantRole} and {revokeRole}: this function's purpose is to provide a mechanism for accounts to lose their privileges if they are compromised (such as when a trusted device is misplaced).     * If the calling account had been granted `role`, emits a {RoleRevoked} event.     * Requirements:     * - the caller must be `account`."
      },
      "revokeRole(bytes32,address)": {
        "details": "Revokes `role` from `account`.     * If `account` had been granted `role`, emits a {RoleRevoked} event.     * Requirements:     * - the caller must have ``role``'s admin role."
      },
      "safeTransferFrom(address,address,uint256)": {
        "details": "See {IERC721-safeTransferFrom}."
      },
      "safeTransferFrom(address,address,uint256,bytes)": {
        "details": "See {IERC721-safeTransferFrom}."
      },
      "setApprovalForAll(address,bool)": {
        "details": "See {IERC721-setApprovalForAll}."
      },
      "supportsInterface(bytes4)": {
        "details": "See {IERC165-supportsInterface}.     * Time complexity O(1), guaranteed to always use less than 30 000 gas."
      },
      "symbol()": {
        "details": "See {IERC721Metadata-symbol}."
      },
      "tokenByIndex(uint256)": {
        "details": "See {IERC721Enumerable-tokenByIndex}."
      },
      "tokenOfOwnerByIndex(address,uint256)": {
        "details": "See {IERC721Enumerable-tokenOfOwnerByIndex}."
      },
      "totalSupply()": {
        "details": "See {IERC721Enumerable-totalSupply}."
      },
      "transferFrom(address,address,uint256)": {
        "details": "See {IERC721-transferFrom}."
      },
      "transferOwnership(address)": {
        "details": "Transfers ownership of the contract to a new account (`newOwner`). Can only be called by the current owner."
      },
      "unpause()": {
        "details": "Unpauses all token transfers.     * See {ERC721Pausable} and {Pausable-_unpause}.     * Requirements:     * - the caller must have the `PAUSER_ROLE`."
      },
      "withdraw()": {
        "details": "Withdraw ether from this contract (Callable by owner only)"
      },
      "withdraw(uint256)": {
        "details": "Should burn user's token. This transaction will be verified when exiting on root chain",
        "params": {
          "tokenId": "tokenId to withdraw"
        }
      },
      "withdrawBatch(uint256[])": {
        "details": "Should burn user's tokens. This transaction will be verified when exiting on root chain",
        "params": {
          "tokenIds": "tokenId list to withdraw"
        }
      },
      "withdrawWithMetadata(uint256)": {
        "details": "Should handle withraw by burning user's token.     * This transaction will be verified when exiting on root chain",
        "params": {
          "tokenId": "tokenId to withdraw"
        }
      }
    }
  },
  "userdoc": {
    "methods": {
      "deposit(address,bytes)": {
        "notice": "called when token is deposited on root chain"
      },
      "encodeTokenMetadata(uint256)": {
        "notice": "This method is supposed to be called by client when withdrawing token with metadata and pass return value of this function as second paramter of `withdrawWithMetadata` method     * It can be overridden by clients to encode data in a different form, which needs to be decoded back by them correctly during exiting"
      },
      "withdraw(uint256)": {
        "notice": "called when user wants to withdraw token back to root chain"
      },
      "withdrawBatch(uint256[])": {
        "notice": "called when user wants to withdraw multiple tokens back to root chain"
      },
      "withdrawWithMetadata(uint256)": {
        "notice": "called when user wants to withdraw token back to root chain with arbitrary metadata"
      }
    }
  },
  "storageLayout": {
    "storage": [
      {
        "astId": 549,
        "contract": "contracts/CryptOrchidERC721Child/CryptOrchidERC721Child.sol:CryptOrchidERC721Child",
        "label": "_roles",
        "offset": 0,
        "slot": "0",
        "type": "t_mapping(t_bytes32,t_struct(RoleData)545_storage)"
      },
      {
        "astId": 932,
        "contract": "contracts/CryptOrchidERC721Child/CryptOrchidERC721Child.sol:CryptOrchidERC721Child",
        "label": "_supportedInterfaces",
        "offset": 0,
        "slot": "1",
        "type": "t_mapping(t_bytes4,t_bool)"
      },
      {
        "astId": 3555,
        "contract": "contracts/CryptOrchidERC721Child/CryptOrchidERC721Child.sol:CryptOrchidERC721Child",
        "label": "_holderTokens",
        "offset": 0,
        "slot": "2",
        "type": "t_mapping(t_address,t_struct(UintSet)6038_storage)"
      },
      {
        "astId": 3557,
        "contract": "contracts/CryptOrchidERC721Child/CryptOrchidERC721Child.sol:CryptOrchidERC721Child",
        "label": "_tokenOwners",
        "offset": 0,
        "slot": "3",
        "type": "t_struct(UintToAddressMap)5415_storage"
      },
      {
        "astId": 3561,
        "contract": "contracts/CryptOrchidERC721Child/CryptOrchidERC721Child.sol:CryptOrchidERC721Child",
        "label": "_tokenApprovals",
        "offset": 0,
        "slot": "5",
        "type": "t_mapping(t_uint256,t_address)"
      },
      {
        "astId": 3567,
        "contract": "contracts/CryptOrchidERC721Child/CryptOrchidERC721Child.sol:CryptOrchidERC721Child",
        "label": "_operatorApprovals",
        "offset": 0,
        "slot": "6",
        "type": "t_mapping(t_address,t_mapping(t_address,t_bool))"
      },
      {
        "astId": 3569,
        "contract": "contracts/CryptOrchidERC721Child/CryptOrchidERC721Child.sol:CryptOrchidERC721Child",
        "label": "_name",
        "offset": 0,
        "slot": "7",
        "type": "t_string_storage"
      },
      {
        "astId": 3571,
        "contract": "contracts/CryptOrchidERC721Child/CryptOrchidERC721Child.sol:CryptOrchidERC721Child",
        "label": "_symbol",
        "offset": 0,
        "slot": "8",
        "type": "t_string_storage"
      },
      {
        "astId": 3575,
        "contract": "contracts/CryptOrchidERC721Child/CryptOrchidERC721Child.sol:CryptOrchidERC721Child",
        "label": "_tokenURIs",
        "offset": 0,
        "slot": "9",
        "type": "t_mapping(t_uint256,t_string_storage)"
      },
      {
        "astId": 3577,
        "contract": "contracts/CryptOrchidERC721Child/CryptOrchidERC721Child.sol:CryptOrchidERC721Child",
        "label": "_baseURI",
        "offset": 0,
        "slot": "10",
        "type": "t_string_storage"
      },
      {
        "astId": 6151,
        "contract": "contracts/CryptOrchidERC721Child/CryptOrchidERC721Child.sol:CryptOrchidERC721Child",
        "label": "_paused",
        "offset": 0,
        "slot": "11",
        "type": "t_bool"
      },
      {
        "astId": 1374,
        "contract": "contracts/CryptOrchidERC721Child/CryptOrchidERC721Child.sol:CryptOrchidERC721Child",
        "label": "_tokenIdTracker",
        "offset": 0,
        "slot": "12",
        "type": "t_struct(Counter)5041_storage"
      },
      {
        "astId": 817,
        "contract": "contracts/CryptOrchidERC721Child/CryptOrchidERC721Child.sol:CryptOrchidERC721Child",
        "label": "_owner",
        "offset": 0,
        "slot": "13",
        "type": "t_address"
      },
      {
        "astId": 8360,
        "contract": "contracts/CryptOrchidERC721Child/CryptOrchidERC721Child.sol:CryptOrchidERC721Child",
        "label": "cryptorchids",
        "offset": 0,
        "slot": "14",
        "type": "t_mapping(t_uint256,t_struct(CryptOrchid)8356_storage)"
      },
      {
        "astId": 8368,
        "contract": "contracts/CryptOrchidERC721Child/CryptOrchidERC721Child.sol:CryptOrchidERC721Child",
        "label": "saleStarted",
        "offset": 0,
        "slot": "15",
        "type": "t_bool"
      },
      {
        "astId": 8371,
        "contract": "contracts/CryptOrchidERC721Child/CryptOrchidERC721Child.sol:CryptOrchidERC721Child",
        "label": "growingStarted",
        "offset": 1,
        "slot": "15",
        "type": "t_bool"
      },
      {
        "astId": 8405,
        "contract": "contracts/CryptOrchidERC721Child/CryptOrchidERC721Child.sol:CryptOrchidERC721Child",
        "label": "limits",
        "offset": 0,
        "slot": "16",
        "type": "t_array(t_uint16)10_storage"
      },
      {
        "astId": 8420,
        "contract": "contracts/CryptOrchidERC721Child/CryptOrchidERC721Child.sol:CryptOrchidERC721Child",
        "label": "genum",
        "offset": 0,
        "slot": "17",
        "type": "t_array(t_string_storage)10_storage"
      },
      {
        "astId": 8435,
        "contract": "contracts/CryptOrchidERC721Child/CryptOrchidERC721Child.sol:CryptOrchidERC721Child",
        "label": "speciesIPFSConstant",
        "offset": 0,
        "slot": "27",
        "type": "t_array(t_string_storage)10_storage"
      },
      {
        "astId": 8450,
        "contract": "contracts/CryptOrchidERC721Child/CryptOrchidERC721Child.sol:CryptOrchidERC721Child",
        "label": "deadSpeciesIPFSConstant",
        "offset": 0,
        "slot": "37",
        "type": "t_array(t_string_storage)10_storage"
      },
      {
        "astId": 8452,
        "contract": "contracts/CryptOrchidERC721Child/CryptOrchidERC721Child.sol:CryptOrchidERC721Child",
        "label": "_tokenIds",
        "offset": 0,
        "slot": "47",
        "type": "t_struct(Counter)5041_storage"
      },
      {
        "astId": 8456,
        "contract": "contracts/CryptOrchidERC721Child/CryptOrchidERC721Child.sol:CryptOrchidERC721Child",
        "label": "requestToToken",
        "offset": 0,
        "slot": "48",
        "type": "t_mapping(t_bytes32,t_uint256)"
      },
      {
        "astId": 8460,
        "contract": "contracts/CryptOrchidERC721Child/CryptOrchidERC721Child.sol:CryptOrchidERC721Child",
        "label": "speciesIPFS",
        "offset": 0,
        "slot": "49",
        "type": "t_mapping(t_bytes32,t_string_storage)"
      },
      {
        "astId": 8464,
        "contract": "contracts/CryptOrchidERC721Child/CryptOrchidERC721Child.sol:CryptOrchidERC721Child",
        "label": "deadSpeciesIPFS",
        "offset": 0,
        "slot": "50",
        "type": "t_mapping(t_bytes32,t_string_storage)"
      },
      {
        "astId": 11902,
        "contract": "contracts/CryptOrchidERC721Child/CryptOrchidERC721Child.sol:CryptOrchidERC721Child",
        "label": "_revertMsg",
        "offset": 0,
        "slot": "51",
        "type": "t_string_storage"
      },
      {
        "astId": 12094,
        "contract": "contracts/CryptOrchidERC721Child/CryptOrchidERC721Child.sol:CryptOrchidERC721Child",
        "label": "inited",
        "offset": 0,
        "slot": "52",
        "type": "t_bool"
      },
      {
        "astId": 12001,
        "contract": "contracts/CryptOrchidERC721Child/CryptOrchidERC721Child.sol:CryptOrchidERC721Child",
        "label": "domainSeperator",
        "offset": 0,
        "slot": "53",
        "type": "t_bytes32"
      },
      {
        "astId": 12140,
        "contract": "contracts/CryptOrchidERC721Child/CryptOrchidERC721Child.sol:CryptOrchidERC721Child",
        "label": "nonces",
        "offset": 0,
        "slot": "54",
        "type": "t_mapping(t_address,t_uint256)"
      }
    ],
    "types": {
      "t_address": {
        "encoding": "inplace",
        "label": "address",
        "numberOfBytes": "20"
      },
      "t_array(t_bytes32)dyn_storage": {
        "base": "t_bytes32",
        "encoding": "dynamic_array",
        "label": "bytes32[]",
        "numberOfBytes": "32"
      },
      "t_array(t_string_storage)10_storage": {
        "base": "t_string_storage",
        "encoding": "inplace",
        "label": "string[10]",
        "numberOfBytes": "320"
      },
      "t_array(t_struct(MapEntry)5089_storage)dyn_storage": {
        "base": "t_struct(MapEntry)5089_storage",
        "encoding": "dynamic_array",
        "label": "struct EnumerableMap.MapEntry[]",
        "numberOfBytes": "32"
      },
      "t_array(t_uint16)10_storage": {
        "base": "t_uint16",
        "encoding": "inplace",
        "label": "uint16[10]",
        "numberOfBytes": "32"
      },
      "t_bool": {
        "encoding": "inplace",
        "label": "bool",
        "numberOfBytes": "1"
      },
      "t_bytes32": {
        "encoding": "inplace",
        "label": "bytes32",
        "numberOfBytes": "32"
      },
      "t_bytes4": {
        "encoding": "inplace",
        "label": "bytes4",
        "numberOfBytes": "4"
      },
      "t_mapping(t_address,t_bool)": {
        "encoding": "mapping",
        "key": "t_address",
        "label": "mapping(address => bool)",
        "numberOfBytes": "32",
        "value": "t_bool"
      },
      "t_mapping(t_address,t_mapping(t_address,t_bool))": {
        "encoding": "mapping",
        "key": "t_address",
        "label": "mapping(address => mapping(address => bool))",
        "numberOfBytes": "32",
        "value": "t_mapping(t_address,t_bool)"
      },
      "t_mapping(t_address,t_struct(UintSet)6038_storage)": {
        "encoding": "mapping",
        "key": "t_address",
        "label": "mapping(address => struct EnumerableSet.UintSet)",
        "numberOfBytes": "32",
        "value": "t_struct(UintSet)6038_storage"
      },
      "t_mapping(t_address,t_uint256)": {
        "encoding": "mapping",
        "key": "t_address",
        "label": "mapping(address => uint256)",
        "numberOfBytes": "32",
        "value": "t_uint256"
      },
      "t_mapping(t_bytes32,t_string_storage)": {
        "encoding": "mapping",
        "key": "t_bytes32",
        "label": "mapping(bytes32 => string)",
        "numberOfBytes": "32",
        "value": "t_string_storage"
      },
      "t_mapping(t_bytes32,t_struct(RoleData)545_storage)": {
        "encoding": "mapping",
        "key": "t_bytes32",
        "label": "mapping(bytes32 => struct AccessControl.RoleData)",
        "numberOfBytes": "32",
        "value": "t_struct(RoleData)545_storage"
      },
      "t_mapping(t_bytes32,t_uint256)": {
        "encoding": "mapping",
        "key": "t_bytes32",
        "label": "mapping(bytes32 => uint256)",
        "numberOfBytes": "32",
        "value": "t_uint256"
      },
      "t_mapping(t_bytes4,t_bool)": {
        "encoding": "mapping",
        "key": "t_bytes4",
        "label": "mapping(bytes4 => bool)",
        "numberOfBytes": "32",
        "value": "t_bool"
      },
      "t_mapping(t_uint256,t_address)": {
        "encoding": "mapping",
        "key": "t_uint256",
        "label": "mapping(uint256 => address)",
        "numberOfBytes": "32",
        "value": "t_address"
      },
      "t_mapping(t_uint256,t_string_storage)": {
        "encoding": "mapping",
        "key": "t_uint256",
        "label": "mapping(uint256 => string)",
        "numberOfBytes": "32",
        "value": "t_string_storage"
      },
      "t_mapping(t_uint256,t_struct(CryptOrchid)8356_storage)": {
        "encoding": "mapping",
        "key": "t_uint256",
        "label": "mapping(uint256 => struct CryptOrchidGoerli.CryptOrchid)",
        "numberOfBytes": "32",
        "value": "t_struct(CryptOrchid)8356_storage"
      },
      "t_string_storage": {
        "encoding": "bytes",
        "label": "string",
        "numberOfBytes": "32"
      },
      "t_struct(AddressSet)5917_storage": {
        "encoding": "inplace",
        "label": "struct EnumerableSet.AddressSet",
        "members": [
          {
            "astId": 5916,
            "contract": "contracts/CryptOrchidERC721Child/CryptOrchidERC721Child.sol:CryptOrchidERC721Child",
            "label": "_inner",
            "offset": 0,
            "slot": "0",
            "type": "t_struct(Set)5652_storage"
          }
        ],
        "numberOfBytes": "64"
      },
      "t_struct(Counter)5041_storage": {
        "encoding": "inplace",
        "label": "struct Counters.Counter",
        "members": [
          {
            "astId": 5040,
            "contract": "contracts/CryptOrchidERC721Child/CryptOrchidERC721Child.sol:CryptOrchidERC721Child",
            "label": "_value",
            "offset": 0,
            "slot": "0",
            "type": "t_uint256"
          }
        ],
        "numberOfBytes": "32"
      },
      "t_struct(CryptOrchid)8356_storage": {
        "encoding": "inplace",
        "label": "struct CryptOrchidGoerli.CryptOrchid",
        "members": [
          {
            "astId": 8351,
            "contract": "contracts/CryptOrchidERC721Child/CryptOrchidERC721Child.sol:CryptOrchidERC721Child",
            "label": "species",
            "offset": 0,
            "slot": "0",
            "type": "t_string_storage"
          },
          {
            "astId": 8353,
            "contract": "contracts/CryptOrchidERC721Child/CryptOrchidERC721Child.sol:CryptOrchidERC721Child",
            "label": "plantedAt",
            "offset": 0,
            "slot": "1",
            "type": "t_uint256"
          },
          {
            "astId": 8355,
            "contract": "contracts/CryptOrchidERC721Child/CryptOrchidERC721Child.sol:CryptOrchidERC721Child",
            "label": "waterLevel",
            "offset": 0,
            "slot": "2",
            "type": "t_uint256"
          }
        ],
        "numberOfBytes": "96"
      },
      "t_struct(Map)5097_storage": {
        "encoding": "inplace",
        "label": "struct EnumerableMap.Map",
        "members": [
          {
            "astId": 5092,
            "contract": "contracts/CryptOrchidERC721Child/CryptOrchidERC721Child.sol:CryptOrchidERC721Child",
            "label": "_entries",
            "offset": 0,
            "slot": "0",
            "type": "t_array(t_struct(MapEntry)5089_storage)dyn_storage"
          },
          {
            "astId": 5096,
            "contract": "contracts/CryptOrchidERC721Child/CryptOrchidERC721Child.sol:CryptOrchidERC721Child",
            "label": "_indexes",
            "offset": 0,
            "slot": "1",
            "type": "t_mapping(t_bytes32,t_uint256)"
          }
        ],
        "numberOfBytes": "64"
      },
      "t_struct(MapEntry)5089_storage": {
        "encoding": "inplace",
        "label": "struct EnumerableMap.MapEntry",
        "members": [
          {
            "astId": 5086,
            "contract": "contracts/CryptOrchidERC721Child/CryptOrchidERC721Child.sol:CryptOrchidERC721Child",
            "label": "_key",
            "offset": 0,
            "slot": "0",
            "type": "t_bytes32"
          },
          {
            "astId": 5088,
            "contract": "contracts/CryptOrchidERC721Child/CryptOrchidERC721Child.sol:CryptOrchidERC721Child",
            "label": "_value",
            "offset": 0,
            "slot": "1",
            "type": "t_bytes32"
          }
        ],
        "numberOfBytes": "64"
      },
      "t_struct(RoleData)545_storage": {
        "encoding": "inplace",
        "label": "struct AccessControl.RoleData",
        "members": [
          {
            "astId": 542,
            "contract": "contracts/CryptOrchidERC721Child/CryptOrchidERC721Child.sol:CryptOrchidERC721Child",
            "label": "members",
            "offset": 0,
            "slot": "0",
            "type": "t_struct(AddressSet)5917_storage"
          },
          {
            "astId": 544,
            "contract": "contracts/CryptOrchidERC721Child/CryptOrchidERC721Child.sol:CryptOrchidERC721Child",
            "label": "adminRole",
            "offset": 0,
            "slot": "2",
            "type": "t_bytes32"
          }
        ],
        "numberOfBytes": "96"
      },
      "t_struct(Set)5652_storage": {
        "encoding": "inplace",
        "label": "struct EnumerableSet.Set",
        "members": [
          {
            "astId": 5647,
            "contract": "contracts/CryptOrchidERC721Child/CryptOrchidERC721Child.sol:CryptOrchidERC721Child",
            "label": "_values",
            "offset": 0,
            "slot": "0",
            "type": "t_array(t_bytes32)dyn_storage"
          },
          {
            "astId": 5651,
            "contract": "contracts/CryptOrchidERC721Child/CryptOrchidERC721Child.sol:CryptOrchidERC721Child",
            "label": "_indexes",
            "offset": 0,
            "slot": "1",
            "type": "t_mapping(t_bytes32,t_uint256)"
          }
        ],
        "numberOfBytes": "64"
      },
      "t_struct(UintSet)6038_storage": {
        "encoding": "inplace",
        "label": "struct EnumerableSet.UintSet",
        "members": [
          {
            "astId": 6037,
            "contract": "contracts/CryptOrchidERC721Child/CryptOrchidERC721Child.sol:CryptOrchidERC721Child",
            "label": "_inner",
            "offset": 0,
            "slot": "0",
            "type": "t_struct(Set)5652_storage"
          }
        ],
        "numberOfBytes": "64"
      },
      "t_struct(UintToAddressMap)5415_storage": {
        "encoding": "inplace",
        "label": "struct EnumerableMap.UintToAddressMap",
        "members": [
          {
            "astId": 5414,
            "contract": "contracts/CryptOrchidERC721Child/CryptOrchidERC721Child.sol:CryptOrchidERC721Child",
            "label": "_inner",
            "offset": 0,
            "slot": "0",
            "type": "t_struct(Map)5097_storage"
          }
        ],
        "numberOfBytes": "64"
      },
      "t_uint16": {
        "encoding": "inplace",
        "label": "uint16",
        "numberOfBytes": "2"
      },
      "t_uint256": {
        "encoding": "inplace",
        "label": "uint256",
        "numberOfBytes": "32"
      }
    }
  }
}