{
  "address": "0xff8Ee585319e02e1E73e21199847aBBa7517Da0c",
  "abi": [
    {
      "inputs": [
        {
          "internalType": "address",
          "name": "cryptorchidsAddress",
          "type": "address"
        },
        {
          "internalType": "address",
          "name": "_VRFCoordinator",
          "type": "address"
        },
        {
          "internalType": "address",
          "name": "_LinkToken",
          "type": "address"
        },
        {
          "internalType": "bytes32",
          "name": "_keyhash",
          "type": "bytes32"
        }
      ],
      "stateMutability": "payable",
      "type": "constructor"
    },
    {
      "anonymous": false,
      "inputs": [
        {
          "indexed": true,
          "internalType": "address",
          "name": "previousOwner",
          "type": "address"
        },
        {
          "indexed": true,
          "internalType": "address",
          "name": "newOwner",
          "type": "address"
        }
      ],
      "name": "OwnershipTransferred",
      "type": "event"
    },
    {
      "inputs": [],
      "name": "LinkToken",
      "outputs": [
        {
          "internalType": "address",
          "name": "",
          "type": "address"
        }
      ],
      "stateMutability": "view",
      "type": "function"
    },
    {
      "inputs": [],
      "name": "PROMOTION_END",
      "outputs": [
        {
          "internalType": "uint256",
          "name": "",
          "type": "uint256"
        }
      ],
      "stateMutability": "view",
      "type": "function"
    },
    {
      "inputs": [],
      "name": "VRFCoordinator",
      "outputs": [
        {
          "internalType": "address",
          "name": "",
          "type": "address"
        }
      ],
      "stateMutability": "view",
      "type": "function"
    },
    {
      "inputs": [
        {
          "internalType": "address",
          "name": "",
          "type": "address"
        }
      ],
      "name": "addressEntriesCount",
      "outputs": [
        {
          "internalType": "uint256",
          "name": "",
          "type": "uint256"
        }
      ],
      "stateMutability": "view",
      "type": "function"
    },
    {
      "inputs": [],
      "name": "checkEligibility",
      "outputs": [
        {
          "internalType": "uint256[]",
          "name": "eligibleTokens",
          "type": "uint256[]"
        },
        {
          "internalType": "uint256",
          "name": "rebateAmount",
          "type": "uint256"
        },
        {
          "internalType": "uint256",
          "name": "count",
          "type": "uint256"
        }
      ],
      "stateMutability": "view",
      "type": "function"
    },
    {
      "inputs": [],
      "name": "cryptorchidsERC721",
      "outputs": [
        {
          "internalType": "address",
          "name": "",
          "type": "address"
        }
      ],
      "stateMutability": "view",
      "type": "function"
    },
    {
      "inputs": [],
      "name": "currentRebate",
      "outputs": [
        {
          "internalType": "uint256",
          "name": "",
          "type": "uint256"
        }
      ],
      "stateMutability": "view",
      "type": "function"
    },
    {
      "inputs": [],
      "name": "drawingEntriesCount",
      "outputs": [
        {
          "internalType": "uint256",
          "name": "",
          "type": "uint256"
        }
      ],
      "stateMutability": "view",
      "type": "function"
    },
    {
      "inputs": [],
      "name": "enter",
      "outputs": [],
      "stateMutability": "nonpayable",
      "type": "function"
    },
    {
      "inputs": [],
      "name": "owner",
      "outputs": [
        {
          "internalType": "address",
          "name": "",
          "type": "address"
        }
      ],
      "stateMutability": "view",
      "type": "function"
    },
    {
      "inputs": [],
      "name": "pot",
      "outputs": [
        {
          "internalType": "uint256",
          "name": "",
          "type": "uint256"
        }
      ],
      "stateMutability": "view",
      "type": "function"
    },
    {
      "inputs": [],
      "name": "promotionOpen",
      "outputs": [
        {
          "internalType": "bool",
          "name": "",
          "type": "bool"
        }
      ],
      "stateMutability": "view",
      "type": "function"
    },
    {
      "inputs": [],
      "name": "promotionStart",
      "outputs": [
        {
          "internalType": "uint256",
          "name": "",
          "type": "uint256"
        }
      ],
      "stateMutability": "view",
      "type": "function"
    },
    {
      "inputs": [
        {
          "internalType": "bytes32",
          "name": "requestId",
          "type": "bytes32"
        },
        {
          "internalType": "uint256",
          "name": "randomness",
          "type": "uint256"
        }
      ],
      "name": "rawFulfillRandomness",
      "outputs": [],
      "stateMutability": "nonpayable",
      "type": "function"
    },
    {
      "inputs": [],
      "name": "rebatesAvailable",
      "outputs": [
        {
          "internalType": "uint256",
          "name": "",
          "type": "uint256"
        }
      ],
      "stateMutability": "view",
      "type": "function"
    },
    {
      "inputs": [],
      "name": "redeem",
      "outputs": [
        {
          "internalType": "uint256",
          "name": "",
          "type": "uint256"
        }
      ],
      "stateMutability": "nonpayable",
      "type": "function"
    },
    {
      "inputs": [],
      "name": "renounceOwnership",
      "outputs": [],
      "stateMutability": "nonpayable",
      "type": "function"
    },
    {
      "inputs": [
        {
          "internalType": "uint256",
          "name": "userProvidedSeed",
          "type": "uint256"
        }
      ],
      "name": "selectWinner",
      "outputs": [],
      "stateMutability": "nonpayable",
      "type": "function"
    },
    {
      "inputs": [
        {
          "internalType": "address",
          "name": "newOwner",
          "type": "address"
        }
      ],
      "name": "transferOwnership",
      "outputs": [],
      "stateMutability": "nonpayable",
      "type": "function"
    },
    {
      "inputs": [],
      "name": "winner",
      "outputs": [
        {
          "internalType": "address",
          "name": "",
          "type": "address"
        }
      ],
      "stateMutability": "view",
      "type": "function"
    },
    {
      "inputs": [],
      "name": "winnerRequested",
      "outputs": [
        {
          "internalType": "bool",
          "name": "",
          "type": "bool"
        }
      ],
      "stateMutability": "view",
      "type": "function"
    },
    {
      "inputs": [],
      "name": "withdrawUnclaimed",
      "outputs": [],
      "stateMutability": "nonpayable",
      "type": "function"
    },
    {
      "inputs": [],
      "name": "withdrawWinner",
      "outputs": [],
      "stateMutability": "nonpayable",
      "type": "function"
    },
    {
      "stateMutability": "payable",
      "type": "receive"
    }
  ],
  "transactionHash": "0x341d5992ff117b9f631d7d668d8af38c757e571a33edc1f43da408da1cff2682",
  "args": [
    "0x010D59DC989f6cFdDBb0d0E5A9c9Be0c1CF9840F",
    "0xb3dCcb4Cf7a26f6cf6B120Cf5A73875B7BBc655B",
    "0x01be23585060835e02b77ef475b0cc51aa1e0709",
    "0x2ed0feb3e7fd2022120aa84fab1945545a9f2ffc9076fd6156fa96eaff4c1311"
  ],
  "solcInputHash": "d07be6bc5b7254a503190e69ab9cd9a4",
  "bytecode": "0x60c06040526040516119f93803806119f98339818101604052608081101561002657600080fd5b5080516020820151604083015160609093015191929091828260006100526001600160e01b0361010d16565b600080546001600160a01b0319166001600160a01b0383169081178255604051929350917f8be0079c531659141344cd1fd0a4f28419497f9722a3daafe3b4186f6b6457e0908290a3506001600160601b0319606092831b811660a052911b16608052600d80546001600160a01b039485166001600160a01b031991821617909155600e805493851693821693909317909255600b55671bc16d674ec80000600c556005805493909216921691909117905542600455610111565b3390565b60805160601c60a05160601c6118b561014460003980610d9a52806114cc525080610bbb528061149d52506118b56000f3fe6080604052600436106101845760003560e01c80638da5cb5b116100d6578063dd32858e1161007f578063f1b395f111610059578063f1b395f11461040a578063f2fde38b1461043d578063f85f3b88146104705761018b565b8063dd32858e146103cb578063dfbf53ae146103e0578063e97dcb62146103f55761018b565b8063b8fa4f02116100b0578063b8fa4f021461038c578063be040fb0146103a1578063dc7aafba146103b65761018b565b80638da5cb5b1461033257806394985ddd14610347578063aec19021146103775761018b565b80634ba2363a11610138578063506533691161011257806350653369146102f3578063715018a61461030857806377f49a8c1461031d5761018b565b80634ba2363a1461029f5780634c524be4146102b45780634f8e2fdf146102de5761018b565b806333b608631161016957806333b608631461022e57806333fc56d91461025f5780633ca0e52c146102765761018b565b8063049e45d7146101905780632d997fce146102075761018b565b3661018b57005b600080fd5b34801561019c57600080fd5b506101a5610485565b6040518080602001848152602001838152602001828103825285818151815260200191508051906020019060200280838360005b838110156101f15781810151838201526020016101d9565b5050505090500194505050505060405180910390f35b34801561021357600080fd5b5061021c6108d7565b60408051918252519081900360200190f35b34801561023a57600080fd5b506102436108f7565b604080516001600160a01b039092168252519081900360200190f35b34801561026b57600080fd5b50610274610906565b005b34801561028257600080fd5b5061028b610a61565b604080519115158252519081900360200190f35b3480156102ab57600080fd5b5061021c610ab6565b3480156102c057600080fd5b50610274600480360360208110156102d757600080fd5b5035610abc565b3480156102ea57600080fd5b50610243610c95565b3480156102ff57600080fd5b5061028b610ca4565b34801561031457600080fd5b50610274610cad565b34801561032957600080fd5b5061021c610d78565b34801561033e57600080fd5b50610243610d80565b34801561035357600080fd5b506102746004803603604081101561036a57600080fd5b5080359060200135610d8f565b34801561038357600080fd5b50610243610e16565b34801561039857600080fd5b5061021c610e25565b3480156103ad57600080fd5b5061021c610e2b565b3480156103c257600080fd5b5061021c610f72565b3480156103d757600080fd5b50610274611046565b3480156103ec57600080fd5b50610243611141565b34801561040157600080fd5b50610274611155565b34801561041657600080fd5b5061021c6004803603602081101561042d57600080fd5b50356001600160a01b03166112e9565b34801561044957600080fd5b506102746004803603602081101561046057600080fd5b50356001600160a01b03166112fb565b34801561047c57600080fd5b5061021c61141c565b6060600080610492610a61565b6104d4576040805162461bcd60e51b815260206004820152600e60248201526d283937b6b7ba34b7b71037bb32b960911b604482015290519081900360640190fd5b600554604080516370a0823160e01b8152336004820152905160009283926001600160a01b03909116916370a0823191602480820192602092909190829003018186803b15801561052457600080fd5b505afa158015610538573d6000803e3d6000fd5b505050506040513d602081101561054e57600080fd5b5051905060608167ffffffffffffffff8111801561056b57600080fd5b50604051908082528060200260200182016040528015610595578160200160208202803683370190505b50905060005b8281101561089d57600554604080517f2f745c590000000000000000000000000000000000000000000000000000000081523360048201526024810184905290516000926001600160a01b031691632f745c59916044808301926020929190829003018186803b15801561060e57600080fd5b505afa158015610622573d6000803e3d6000fd5b505050506040513d602081101561063857600080fd5b5051600554604080517f182199cd0000000000000000000000000000000000000000000000000000000081526004810184905290519293506000926001600160a01b039092169163182199cd91602480820192602092909190829003018186803b1580156106a557600080fd5b505afa1580156106b9573d6000803e3d6000fd5b505050506040513d60208110156106cf57600080fd5b5051600554604080517f603168010000000000000000000000000000000000000000000000000000000081526004810186905290519293506000926001600160a01b03909216916360316801916024808201928692909190829003018186803b15801561073b57600080fd5b505afa15801561074f573d6000803e3d6000fd5b505050506040513d6000823e601f3d908101601f19168201604052608081101561077857600080fd5b810190808051604051939291908464010000000082111561079857600080fd5b9083019060208201858111156107ad57600080fd5b82516401000000008111828201881017156107c757600080fd5b82525081516020918201929091019080838360005b838110156107f45781810151838201526020016107dc565b50505050905090810190601f1680156108215780820380516001836020036101000a031916815260200191505b5060409081526020918201516000898152600290935291205490945060ff16151560011480159350915061085490505750815b8015610861575060045481115b15610892578285858151811061087357fe5b602002602001018181525050610887610f72565b870196506001880197505b50505060010161059b565b506108a6611422565b8311156108cb57505060408051600080825260208201909252945090925090506108d2565b9450909250505b909192565b60006108f16108e4611422565b6108ec610f72565b61142a565b90505b90565b600d546001600160a01b031681565b61090e611491565b6001600160a01b031661091f610d80565b6001600160a01b03161461097a576040805162461bcd60e51b815260206004820181905260248201527f4f776e61626c653a2063616c6c6572206973206e6f7420746865206f776e6572604482015290519081900360640190fd5b6360b5b0c0610987611495565b116109d9576040805162461bcd60e51b815260206004820152601860248201527f434f433a77553a70726f6d6f74696f6e2072756e6e696e670000000000000000604482015290519081900360640190fd5b60075415610a2e576040805162461bcd60e51b815260206004820152601960248201527f434f433a77553a77696e6e696e677320756e636c61696d656400000000000000604482015290519081900360640190fd5b6040514790339082156108fc029083906000818181858888f19350505050158015610a5d573d6000803e3d6000fd5b5050565b60006360b5b0c0610a70611495565b1115610a7e575060006108f4565b610a86610f72565b47016007541115610a99575060006108f4565b47610aa2610f72565b1115610ab0575060006108f4565b50600190565b60075481565b6360b5b0c0610ac9611495565b11610b1b576040805162461bcd60e51b815260206004820152601860248201527f434f433a77573a70726f6d6f74696f6e2072756e6e696e670000000000000000604482015290519081900360640190fd5b60095460001a60f81b7fff000000000000000000000000000000000000000000000000000000000000001615610b98576040805162461bcd60e51b815260206004820152601760248201527f434f433a77573a77696e6e657220726571756573746564000000000000000000604482015290519081900360640190fd5b600c54604080516370a0823160e01b815230600482015290516001600160a01b037f000000000000000000000000000000000000000000000000000000000000000016916370a08231916024808301926020929190829003018186803b158015610c0157600080fd5b505afa158015610c15573d6000803e3d6000fd5b505050506040513d6020811015610c2b57600080fd5b50511015610c80576040805162461bcd60e51b815260206004820152600e60248201527f434f433a73573a6e6f204c494e4b000000000000000000000000000000000000604482015290519081900360640190fd5b610c8f600b54600c5483611499565b60095550565b600e546001600160a01b031681565b600a5460ff1681565b610cb5611491565b6001600160a01b0316610cc6610d80565b6001600160a01b031614610d21576040805162461bcd60e51b815260206004820181905260248201527f4f776e61626c653a2063616c6c6572206973206e6f7420746865206f776e6572604482015290519081900360640190fd5b600080546040516001600160a01b03909116907f8be0079c531659141344cd1fd0a4f28419497f9722a3daafe3b4186f6b6457e0908390a36000805473ffffffffffffffffffffffffffffffffffffffff19169055565b6360b5b0c081565b6000546001600160a01b031690565b336001600160a01b037f00000000000000000000000000000000000000000000000000000000000000001614610e0c576040805162461bcd60e51b815260206004820152601f60248201527f4f6e6c7920565246436f6f7264696e61746f722063616e2066756c66696c6c00604482015290519081900360640190fd5b610a5d828261165d565b6005546001600160a01b031681565b60065481565b60006360b5b0c0610e3a611495565b10610e7d576040805162461bcd60e51b815260206004820152600e60248201526d283937b6b7ba34b7b71037bb32b960911b604482015290519081900360640190fd5b60606000610e89610485565b509150915080610e97611422565b1015610eea576040805162461bcd60e51b815260206004820152600e60248201527f434f433a72646d3a706175736564000000000000000000000000000000000000604482015290519081900360640190fd5b60005b6001835103811015610f3d576000838281518110610f0757fe5b602002602001015190506000811115610f34576000818152600260205260409020805460ff191660011790555b50600101610eed565b50604051339082156108fc029083906000818181858888f19350505050158015610f6b573d6000803e3d6000fd5b5091505090565b6000606460065411610f8c575066470de4df8200006108f4565b600554604080517f9d1b464a00000000000000000000000000000000000000000000000000000000815290516000926001600160a01b031691639d1b464a916004808301926020929190829003018186803b158015610fea57600080fd5b505afa158015610ffe573d6000803e3d6000fd5b505050506040513d602081101561101457600080fd5b50519050668e1bc9bf0400008114156110375766470de4df8200009150506108f4565b668e1bc9bf03ffff1901905090565b6360b5b0c0611053611495565b116110a5576040805162461bcd60e51b815260206004820152601860248201527f434f433a77573a70726f6d6f74696f6e2072756e6e696e670000000000000000604482015290519081900360640190fd5b600a5461010090046001600160a01b03163314611109576040805162461bcd60e51b815260206004820152601160248201527f434f433a77573a6e6f742077696e6e6572000000000000000000000000000000604482015290519081900360640190fd5b600780546000918290556040519091339183156108fc0291849190818181858888f19350505050158015610a5d573d6000803e3d6000fd5b600a5461010090046001600160a01b031681565b6360b5b0c0611162611495565b106111a5576040805162461bcd60e51b815260206004820152600e60248201526d283937b6b7ba34b7b71037bb32b960911b604482015290519081900360640190fd5b60606000806111b2610485565b925092509250816111c1611422565b1015611214576040805162461bcd60e51b815260206004820152600e60248201527f434f433a656e723a706175736564000000000000000000000000000000000000604482015290519081900360640190fd5b60005b83518110156112e357600084828151811061122e57fe5b6020026020010151905060008111156112da576000818152600260209081526040808320805460ff1916600190811790915560068054820190553380855260039093529083208054820190556008805491820181559092527ff3f7a9fe364faab93b216da50a3214154f22a0a2b415b23a84c8169e8b636ee3909101805473ffffffffffffffffffffffffffffffffffffffff191690911790556112d0610f72565b6007805490910190555b50600101611217565b50505050565b60036020526000908152604090205481565b611303611491565b6001600160a01b0316611314610d80565b6001600160a01b03161461136f576040805162461bcd60e51b815260206004820181905260248201527f4f776e61626c653a2063616c6c6572206973206e6f7420746865206f776e6572604482015290519081900360640190fd5b6001600160a01b0381166113b45760405162461bcd60e51b815260040180806020018281038252602681526020018061185a6026913960400191505060405180910390fd5b600080546040516001600160a01b03808516939216917f8be0079c531659141344cd1fd0a4f28419497f9722a3daafe3b4186f6b6457e091a36000805473ffffffffffffffffffffffffffffffffffffffff19166001600160a01b0392909216919091179055565b60045481565b600754470390565b6000808211611480576040805162461bcd60e51b815260206004820152601a60248201527f536166654d6174683a206469766973696f6e206279207a65726f000000000000604482015290519081900360640190fd5b81838161148957fe5b049392505050565b3390565b4290565b60007f00000000000000000000000000000000000000000000000000000000000000006001600160a01b0316634000aea07f000000000000000000000000000000000000000000000000000000000000000085878660405160200180838152602001828152602001925050506040516020818303038152906040526040518463ffffffff1660e01b815260040180846001600160a01b03166001600160a01b0316815260200183815260200180602001828103825283818151815260200191508051906020019080838360005b8381101561157e578181015183820152602001611566565b50505050905090810190601f1680156115ab5780820380516001836020036101000a031916815260200191505b50945050505050602060405180830381600087803b1580156115cc57600080fd5b505af11580156115e0573d6000803e3d6000fd5b505050506040513d60208110156115f657600080fd5b50506000848152600160205260408120546116169086908590309061171e565b60008681526001602081905260409091205491925061163b919063ffffffff61176516565b60008681526001602052604090205561165485826117c6565b95945050505050565b60095482146116b3576040805162461bcd60e51b815260206004820152601960248201527f434f433a66523a696e76616c6964207265717565737420494400000000000000604482015290519081900360640190fd5b60006116c1826006546117f2565b9050600881815481106116d057fe5b600091825260209091200154600a80546001600160a01b03909216610100027fffffffffffffffffffffff0000000000000000000000000000000000000000ff909216919091179055505050565b60408051602080820196909652808201949094526001600160a01b039290921660608401526080808401919091528151808403909101815260a09092019052805191012090565b6000828201838110156117bf576040805162461bcd60e51b815260206004820152601b60248201527f536166654d6174683a206164646974696f6e206f766572666c6f770000000000604482015290519081900360640190fd5b9392505050565b604080516020808201949094528082019290925280518083038201815260609092019052805191012090565b6000808211611848576040805162461bcd60e51b815260206004820152601860248201527f536166654d6174683a206d6f64756c6f206279207a65726f0000000000000000604482015290519081900360640190fd5b81838161185157fe5b06939250505056fe4f776e61626c653a206e6577206f776e657220697320746865207a65726f2061646472657373a2646970667358221220b9a75fd7cb386e1c02aa247eaf49fd0d09216f54d9a7b24d22cfca6a8839620264736f6c63430006060033",
  "devdoc": {
    "methods": {
      "checkEligibility()": {
        "details": "calls public functions on the CryptOrchids contract to build an array of eligible token IDs and a rebate amount.",
        "returns": {
          "eligibleTokens": "uint256[] Uncompacted array of 0s and eligible token IDs",
          "rebateAmount": "uint256 Eligible tokens * currentRebate"
        }
      },
      "currentRebate()": {
        "details": "calls CryptOrchids.currentPrice and finds difference to . Then transfers caller rebateAmount."
      },
      "enter()": {
        "details": "Adds address to drawingEntries, increments entriesCount, and increases pot for each eligible token, while marking each token redeemed."
      },
      "owner()": {
        "details": "Returns the address of the current owner."
      },
      "promotionOpen()": {
        "details": "@return bool Whether promotion is open for entries."
      },
      "redeem()": {
        "details": "calls checkEligibility and sets all eligibleTokens as redeemed. Then transfers caller rebateAmount."
      },
      "renounceOwnership()": {
        "details": "Leaves the contract without owner. It will not be possible to call `onlyOwner` functions anymore. Can only be called by the current owner.     * NOTE: Renouncing ownership will leave the contract without an owner, thereby removing any functionality that is only available to the owner."
      },
      "transferOwnership(address)": {
        "details": "Transfers ownership of the contract to a new account (`newOwner`). Can only be called by the current owner."
      },
      "withdrawUnclaimed()": {
        "details": "Transfer remaining balance to owner if after PROMOTION_END.     "
      }
    }
  },
  "userdoc": {
    "methods": {
      "checkEligibility()": {
        "notice": "Check rebate value and eligible tokens. Tokens are valid if they are planted after this contract is deployed, alive, and not yet redeemed."
      },
      "currentRebate()": {
        "notice": "Current rebate amount for eligible token. Based on CryptOrchids current price, the ramping rebate is intended to address the regrettable FOMO ramp pricing. Starts at 0.02ETH, and increases with inverse correlation to price ramp to offer effectively straight 0.04 ETH for seeds."
      },
      "enter()": {
        "notice": "Redeem tokens for entries in drawing."
      },
      "promotionOpen()": {
        "notice": "Public function for whether the promotion is open. The promotion is only open if the contract balance is greater than the currentRebate. Displayed on CryptOrchids nursery for transparency."
      },
      "rebatesAvailable()": {
        "notice": "Current count of rebates available as determined by safeBalance and currentRebate"
      },
      "redeem()": {
        "notice": "Claim ETH for valid tokens. Check for valid tokens before claming."
      },
      "withdrawUnclaimed()": {
        "notice": "Withdraw ether from this contract once the promotion is over."
      },
      "withdrawWinner()": {
        "notice": "Winner may withdraw ether from the contract once the promotion is over.     "
      }
    }
  },
  "storageLayout": {
    "storage": [
      {
        "astId": 814,
        "contract": "contracts/Coupon/Coupon.sol:Coupon",
        "label": "_owner",
        "offset": 0,
        "slot": "0",
        "type": "t_address"
      },
      {
        "astId": 81,
        "contract": "contracts/Coupon/Coupon.sol:Coupon",
        "label": "nonces",
        "offset": 0,
        "slot": "1",
        "type": "t_mapping(t_bytes32,t_uint256)"
      },
      {
        "astId": 4896,
        "contract": "contracts/Coupon/Coupon.sol:Coupon",
        "label": "redemptions",
        "offset": 0,
        "slot": "2",
        "type": "t_mapping(t_uint256,t_bool)"
      },
      {
        "astId": 4900,
        "contract": "contracts/Coupon/Coupon.sol:Coupon",
        "label": "addressEntriesCount",
        "offset": 0,
        "slot": "3",
        "type": "t_mapping(t_address,t_uint256)"
      },
      {
        "astId": 4911,
        "contract": "contracts/Coupon/Coupon.sol:Coupon",
        "label": "promotionStart",
        "offset": 0,
        "slot": "4",
        "type": "t_uint256"
      },
      {
        "astId": 4913,
        "contract": "contracts/Coupon/Coupon.sol:Coupon",
        "label": "cryptorchidsERC721",
        "offset": 0,
        "slot": "5",
        "type": "t_address"
      },
      {
        "astId": 4915,
        "contract": "contracts/Coupon/Coupon.sol:Coupon",
        "label": "drawingEntriesCount",
        "offset": 0,
        "slot": "6",
        "type": "t_uint256"
      },
      {
        "astId": 4917,
        "contract": "contracts/Coupon/Coupon.sol:Coupon",
        "label": "pot",
        "offset": 0,
        "slot": "7",
        "type": "t_uint256"
      },
      {
        "astId": 4920,
        "contract": "contracts/Coupon/Coupon.sol:Coupon",
        "label": "drawingEntries",
        "offset": 0,
        "slot": "8",
        "type": "t_array(t_address)dyn_storage"
      },
      {
        "astId": 4922,
        "contract": "contracts/Coupon/Coupon.sol:Coupon",
        "label": "randomWinnerRequestId",
        "offset": 0,
        "slot": "9",
        "type": "t_bytes32"
      },
      {
        "astId": 4924,
        "contract": "contracts/Coupon/Coupon.sol:Coupon",
        "label": "winnerRequested",
        "offset": 0,
        "slot": "10",
        "type": "t_bool"
      },
      {
        "astId": 4926,
        "contract": "contracts/Coupon/Coupon.sol:Coupon",
        "label": "winner",
        "offset": 1,
        "slot": "10",
        "type": "t_address"
      },
      {
        "astId": 4928,
        "contract": "contracts/Coupon/Coupon.sol:Coupon",
        "label": "keyHash",
        "offset": 0,
        "slot": "11",
        "type": "t_bytes32"
      },
      {
        "astId": 4930,
        "contract": "contracts/Coupon/Coupon.sol:Coupon",
        "label": "vrfFee",
        "offset": 0,
        "slot": "12",
        "type": "t_uint256"
      },
      {
        "astId": 4932,
        "contract": "contracts/Coupon/Coupon.sol:Coupon",
        "label": "VRFCoordinator",
        "offset": 0,
        "slot": "13",
        "type": "t_address"
      },
      {
        "astId": 4934,
        "contract": "contracts/Coupon/Coupon.sol:Coupon",
        "label": "LinkToken",
        "offset": 0,
        "slot": "14",
        "type": "t_address"
      }
    ],
    "types": {
      "t_address": {
        "encoding": "inplace",
        "label": "address",
        "numberOfBytes": "20"
      },
      "t_array(t_address)dyn_storage": {
        "base": "t_address",
        "encoding": "dynamic_array",
        "label": "address[]",
        "numberOfBytes": "32"
      },
      "t_bool": {
        "encoding": "inplace",
        "label": "bool",
        "numberOfBytes": "1"
      },
      "t_bytes32": {
        "encoding": "inplace",
        "label": "bytes32",
        "numberOfBytes": "32"
      },
      "t_mapping(t_address,t_uint256)": {
        "encoding": "mapping",
        "key": "t_address",
        "label": "mapping(address => uint256)",
        "numberOfBytes": "32",
        "value": "t_uint256"
      },
      "t_mapping(t_bytes32,t_uint256)": {
        "encoding": "mapping",
        "key": "t_bytes32",
        "label": "mapping(bytes32 => uint256)",
        "numberOfBytes": "32",
        "value": "t_uint256"
      },
      "t_mapping(t_uint256,t_bool)": {
        "encoding": "mapping",
        "key": "t_uint256",
        "label": "mapping(uint256 => bool)",
        "numberOfBytes": "32",
        "value": "t_bool"
      },
      "t_uint256": {
        "encoding": "inplace",
        "label": "uint256",
        "numberOfBytes": "32"
      }
    }
  }
}