{
  "address": "0xa54678327bf5f00f855ee141D6798A70F7899f2E",
  "abi": [
    {
      "inputs": [
        {
          "internalType": "address",
          "name": "cryptorchidsAddress",
          "type": "address"
        }
      ],
      "stateMutability": "payable",
      "type": "constructor"
    },
    {
      "anonymous": false,
      "inputs": [
        {
          "indexed": true,
          "internalType": "address",
          "name": "previousOwner",
          "type": "address"
        },
        {
          "indexed": true,
          "internalType": "address",
          "name": "newOwner",
          "type": "address"
        }
      ],
      "name": "OwnershipTransferred",
      "type": "event"
    },
    {
      "inputs": [],
      "name": "PROMOTION_END",
      "outputs": [
        {
          "internalType": "uint256",
          "name": "",
          "type": "uint256"
        }
      ],
      "stateMutability": "view",
      "type": "function"
    },
    {
      "inputs": [
        {
          "internalType": "address",
          "name": "",
          "type": "address"
        }
      ],
      "name": "addressEntriesCount",
      "outputs": [
        {
          "internalType": "uint256",
          "name": "",
          "type": "uint256"
        }
      ],
      "stateMutability": "view",
      "type": "function"
    },
    {
      "inputs": [],
      "name": "checkEligibility",
      "outputs": [
        {
          "internalType": "uint256[]",
          "name": "eligibleTokens",
          "type": "uint256[]"
        },
        {
          "internalType": "uint256",
          "name": "rebateAmount",
          "type": "uint256"
        },
        {
          "internalType": "uint256",
          "name": "count",
          "type": "uint256"
        }
      ],
      "stateMutability": "view",
      "type": "function"
    },
    {
      "inputs": [],
      "name": "cryptorchidsERC721",
      "outputs": [
        {
          "internalType": "address",
          "name": "",
          "type": "address"
        }
      ],
      "stateMutability": "view",
      "type": "function"
    },
    {
      "inputs": [],
      "name": "currentRebate",
      "outputs": [
        {
          "internalType": "uint256",
          "name": "",
          "type": "uint256"
        }
      ],
      "stateMutability": "view",
      "type": "function"
    },
    {
      "inputs": [],
      "name": "drawingEntriesCount",
      "outputs": [
        {
          "internalType": "uint256",
          "name": "",
          "type": "uint256"
        }
      ],
      "stateMutability": "view",
      "type": "function"
    },
    {
      "inputs": [],
      "name": "enter",
      "outputs": [],
      "stateMutability": "nonpayable",
      "type": "function"
    },
    {
      "inputs": [],
      "name": "owner",
      "outputs": [
        {
          "internalType": "address",
          "name": "",
          "type": "address"
        }
      ],
      "stateMutability": "view",
      "type": "function"
    },
    {
      "inputs": [],
      "name": "pot",
      "outputs": [
        {
          "internalType": "uint256",
          "name": "",
          "type": "uint256"
        }
      ],
      "stateMutability": "view",
      "type": "function"
    },
    {
      "inputs": [],
      "name": "promotionOpen",
      "outputs": [
        {
          "internalType": "bool",
          "name": "",
          "type": "bool"
        }
      ],
      "stateMutability": "view",
      "type": "function"
    },
    {
      "inputs": [],
      "name": "promotionStart",
      "outputs": [
        {
          "internalType": "uint256",
          "name": "",
          "type": "uint256"
        }
      ],
      "stateMutability": "view",
      "type": "function"
    },
    {
      "inputs": [],
      "name": "rebatesAvailable",
      "outputs": [
        {
          "internalType": "uint256",
          "name": "",
          "type": "uint256"
        }
      ],
      "stateMutability": "view",
      "type": "function"
    },
    {
      "inputs": [],
      "name": "redeem",
      "outputs": [
        {
          "internalType": "uint256",
          "name": "",
          "type": "uint256"
        }
      ],
      "stateMutability": "nonpayable",
      "type": "function"
    },
    {
      "inputs": [],
      "name": "renounceOwnership",
      "outputs": [],
      "stateMutability": "nonpayable",
      "type": "function"
    },
    {
      "inputs": [
        {
          "internalType": "address",
          "name": "newOwner",
          "type": "address"
        }
      ],
      "name": "transferOwnership",
      "outputs": [],
      "stateMutability": "nonpayable",
      "type": "function"
    },
    {
      "inputs": [],
      "name": "withdrawUnclaimed",
      "outputs": [],
      "stateMutability": "nonpayable",
      "type": "function"
    },
    {
      "stateMutability": "payable",
      "type": "receive"
    }
  ],
  "transactionHash": "0xcf8931f24adf30c7cce2fb32534712e01e93d1046c658b41b3a974abf85b1b49",
  "args": [
    "0x010D59DC989f6cFdDBb0d0E5A9c9Be0c1CF9840F"
  ],
  "solcInputHash": "a7a2b6e02acb2a93abbf8f6e817ddffa",
  "bytecode": "0x60806040526040516110d93803806110d98339818101604052602081101561002657600080fd5b5051600061003b6001600160e01b036100ae16565b600080546001600160a01b0319166001600160a01b0383169081178255604051929350917f8be0079c531659141344cd1fd0a4f28419497f9722a3daafe3b4186f6b6457e0908290a350600480546001600160a01b0319166001600160a01b0392909216919091179055426003556100b2565b3390565b611018806100c16000396000f3fe6080604052600436106100f75760003560e01c8063aec190211161008a578063e97dcb6211610059578063e97dcb62146102a5578063f1b395f1146102ba578063f2fde38b146102ed578063f85f3b8814610320576100fe565b8063aec1902114610251578063b8fa4f0214610266578063be040fb01461027b578063dc7aafba14610290576100fe565b80634ba2363a116100c65780634ba2363a146101e1578063715018a6146101f657806377f49a8c1461020b5780638da5cb5b14610220576100fe565b8063049e45d7146101035780632d997fce1461017a57806333fc56d9146101a15780633ca0e52c146101b8576100fe565b366100fe57005b600080fd5b34801561010f57600080fd5b50610118610335565b6040518080602001848152602001838152602001828103825285818151815260200191508051906020019060200280838360005b8381101561016457818101518382015260200161014c565b5050505090500194505050505060405180910390f35b34801561018657600080fd5b5061018f610776565b60408051918252519081900360200190f35b3480156101ad57600080fd5b506101b661079d565b005b3480156101c457600080fd5b506101cd61089c565b604080519115158252519081900360200190f35b3480156101ed57600080fd5b5061018f6108ea565b34801561020257600080fd5b506101b66108f0565b34801561021757600080fd5b5061018f6109bb565b34801561022c57600080fd5b506102356109c3565b604080516001600160a01b039092168252519081900360200190f35b34801561025d57600080fd5b506102356109d2565b34801561027257600080fd5b5061018f6109e1565b34801561028757600080fd5b5061018f6109e7565b34801561029c57600080fd5b5061018f610b2a565b3480156102b157600080fd5b506101b6610bf0565b3480156102c657600080fd5b5061018f600480360360208110156102dd57600080fd5b50356001600160a01b0316610d8d565b3480156102f957600080fd5b506101b66004803603602081101561031057600080fd5b50356001600160a01b0316610d9f565b34801561032c57600080fd5b5061018f610ec0565b606060008061034261089c565b610384576040805162461bcd60e51b815260206004820152600e60248201526d283937b6b7ba34b7b71037bb32b960911b604482015290519081900360640190fd5b60048054604080517f70a0823100000000000000000000000000000000000000000000000000000000815233938101939093525160009283926001600160a01b0316916370a0823191602480820192602092909190829003018186803b1580156103ed57600080fd5b505afa158015610401573d6000803e3d6000fd5b505050506040513d602081101561041757600080fd5b5051905060608167ffffffffffffffff8111801561043457600080fd5b5060405190808252806020026020018201604052801561045e578160200160208202803683370190505b50905060005b6001830381101561076a5760048054604080517f2f745c59000000000000000000000000000000000000000000000000000000008152339381019390935260248301849052516000926001600160a01b0390921691632f745c59916044808301926020929190829003018186803b1580156104de57600080fd5b505afa1580156104f2573d6000803e3d6000fd5b505050506040513d602081101561050857600080fd5b505160048054604080517f182199cd000000000000000000000000000000000000000000000000000000008152928301849052519293506000926001600160a01b039091169163182199cd916024808301926020929190829003018186803b15801561057357600080fd5b505afa158015610587573d6000803e3d6000fd5b505050506040513d602081101561059d57600080fd5b505160048054604080517f60316801000000000000000000000000000000000000000000000000000000008152928301869052519293506000926001600160a01b039091169163603168019160248083019286929190829003018186803b15801561060757600080fd5b505afa15801561061b573d6000803e3d6000fd5b505050506040513d6000823e601f3d908101601f19168201604052608081101561064457600080fd5b810190808051604051939291908464010000000082111561066457600080fd5b90830190602082018581111561067957600080fd5b825164010000000081118282018810171561069357600080fd5b82525081516020918201929091019080838360005b838110156106c05781810151838201526020016106a8565b50505050905090810190601f1680156106ed5780820380516001836020036101000a031916815260200191505b5060409081526020918201516000898152600193849052919091205490955060ff1615151480159350915061072190505750815b801561072e575060035481115b1561075f578285858151811061074057fe5b602002602001018181525050610754610b2a565b870196506001880197505b505050600101610464565b50945090925050909192565b6000610797610783610b2a565b61078b610ec6565b9063ffffffff610ece16565b90505b90565b6107a5610f37565b6001600160a01b03166107b66109c3565b6001600160a01b031614610811576040805162461bcd60e51b815260206004820181905260248201527f4f776e61626c653a2063616c6c6572206973206e6f7420746865206f776e6572604482015290519081900360640190fd5b6360b5b0c04211610869576040805162461bcd60e51b815260206004820152600160248201527f5800000000000000000000000000000000000000000000000000000000000000604482015290519081900360640190fd5b6040514790339082156108fc029083906000818181858888f19350505050158015610898573d6000803e3d6000fd5b5050565b60006360b5b0c04211156108b25750600061079a565b6108ba610b2a565b470160065411156108cd5750600061079a565b476108d6610b2a565b11156108e45750600061079a565b50600190565b60065481565b6108f8610f37565b6001600160a01b03166109096109c3565b6001600160a01b031614610964576040805162461bcd60e51b815260206004820181905260248201527f4f776e61626c653a2063616c6c6572206973206e6f7420746865206f776e6572604482015290519081900360640190fd5b600080546040516001600160a01b03909116907f8be0079c531659141344cd1fd0a4f28419497f9722a3daafe3b4186f6b6457e0908390a36000805473ffffffffffffffffffffffffffffffffffffffff19169055565b6360b5b0c081565b6000546001600160a01b031690565b6004546001600160a01b031681565b60055481565b60006360b5b0c04210610a32576040805162461bcd60e51b815260206004820152600e60248201526d283937b6b7ba34b7b71037bb32b960911b604482015290519081900360640190fd5b60606000610a3e610335565b509150915080610a4c610ec6565b1015610a9f576040805162461bcd60e51b815260206004820152600e60248201527f434f433a72646d3a706175736564000000000000000000000000000000000000604482015290519081900360640190fd5b60005b6001835103811015610af5576000838281518110610abc57fe5b602002602001015190506000811115610aec576000818152600160208190526040909120805460ff191690911790555b50600101610aa2565b50604051339082156108fc029083906000818181858888f19350505050158015610b23573d6000803e3d6000fd5b5091505090565b6000606460055411610b44575066470de4df82000061079a565b6000600460009054906101000a90046001600160a01b03166001600160a01b0316639d1b464a6040518163ffffffff1660e01b815260040160206040518083038186803b158015610b9457600080fd5b505afa158015610ba8573d6000803e3d6000fd5b505050506040513d6020811015610bbe57600080fd5b50519050668e1bc9bf040000811415610be15766470de4df82000091505061079a565b668e1bc9bf03ffff1901905090565b6360b5b0c04210610c39576040805162461bcd60e51b815260206004820152600e60248201526d283937b6b7ba34b7b71037bb32b960911b604482015290519081900360640190fd5b60606000610c45610335565b9250509150610c6281610c56610b2a565b9063ffffffff610f3b16565b610c6a610ec6565b1015610cbd576040805162461bcd60e51b815260206004820152600e60248201527f434f433a656e723a706175736564000000000000000000000000000000000000604482015290519081900360640190fd5b60005b6001835103811015610d88576000838281518110610cda57fe5b602002602001015190506000811115610d7f576000818152600160208181526040808420805460ff191684179055600580548401905533808552600290925283208054830190556007805492830181559092527fa66cc928b5edb82af9bd49922954155ab7b0942694bea4ce44661d9a8736c68801805473ffffffffffffffffffffffffffffffffffffffff19169091179055610d75610b2a565b6006805490910190555b50600101610cc0565b505050565b60026020526000908152604090205481565b610da7610f37565b6001600160a01b0316610db86109c3565b6001600160a01b031614610e13576040805162461bcd60e51b815260206004820181905260248201527f4f776e61626c653a2063616c6c6572206973206e6f7420746865206f776e6572604482015290519081900360640190fd5b6001600160a01b038116610e585760405162461bcd60e51b8152600401808060200182810382526026815260200180610f9c6026913960400191505060405180910390fd5b600080546040516001600160a01b03808516939216917f8be0079c531659141344cd1fd0a4f28419497f9722a3daafe3b4186f6b6457e091a36000805473ffffffffffffffffffffffffffffffffffffffff19166001600160a01b0392909216919091179055565b60035481565b600654470390565b6000808211610f24576040805162461bcd60e51b815260206004820152601a60248201527f536166654d6174683a206469766973696f6e206279207a65726f000000000000604482015290519081900360640190fd5b818381610f2d57fe5b0490505b92915050565b3390565b600082610f4a57506000610f31565b82820282848281610f5757fe5b0414610f945760405162461bcd60e51b8152600401808060200182810382526021815260200180610fc26021913960400191505060405180910390fd5b939250505056fe4f776e61626c653a206e6577206f776e657220697320746865207a65726f2061646472657373536166654d6174683a206d756c7469706c69636174696f6e206f766572666c6f77a2646970667358221220d3b67f42a10341f921749f4565775d624b1401356cfbc6b6906f91f04ec21c0664736f6c63430006060033",
  "devdoc": {
    "methods": {
      "checkEligibility()": {
        "details": "calls public functions on the CryptOrchids contract to build an array of eligible token IDs and a rebate amount.",
        "returns": {
          "eligibleTokens": "uint256[] Uncompacted array of 0s and eligible token IDs",
          "rebateAmount": "uint256 Eligible tokens * currentRebate"
        }
      },
      "currentRebate()": {
        "details": "calls CryptOrchids.currentPrice and finds difference to . Then transfers caller rebateAmount."
      },
      "enter()": {
        "details": "Adds address to drawingEntries, increments entriesCount, and increases pot for each eligible token, while marking each token redeemed."
      },
      "owner()": {
        "details": "Returns the address of the current owner."
      },
      "promotionOpen()": {
        "details": "@return bool Whether promotion is open for entries."
      },
      "redeem()": {
        "details": "calls checkEligibility and sets all eligibleTokens as redeemed. Then transfers caller rebateAmount."
      },
      "renounceOwnership()": {
        "details": "Leaves the contract without owner. It will not be possible to call `onlyOwner` functions anymore. Can only be called by the current owner.     * NOTE: Renouncing ownership will leave the contract without an owner, thereby removing any functionality that is only available to the owner."
      },
      "transferOwnership(address)": {
        "details": "Transfers ownership of the contract to a new account (`newOwner`). Can only be called by the current owner."
      },
      "withdrawUnclaimed()": {
        "details": "Transfer remaining balance to owner if after PROMOTION_END.     "
      }
    }
  },
  "userdoc": {
    "methods": {
      "checkEligibility()": {
        "notice": "Check rebate value and eligible tokens. Tokens are valid if they are planted after this contract is deployed, alive, and not yet redeemed."
      },
      "currentRebate()": {
        "notice": "Current rebate amount for eligible token. Based on CryptOrchids current price, the ramping rebate is intended to address the regrettable FOMO ramp pricing. Starts at 0.02ETH, and increases with inverse correlation to price ramp to offer effectively straight 0.04 ETH for seeds."
      },
      "enter()": {
        "notice": "Redeem tokens for entries in drawing."
      },
      "promotionOpen()": {
        "notice": "Public function for whether the promotion is open. The promotion is only open if the contract balance is greater than the currentRebate. Displayed on CryptOrchids nursery for transparency."
      },
      "rebatesAvailable()": {
        "notice": "Current count of rebates available as determined by safeBalance and currentRebate"
      },
      "redeem()": {
        "notice": "Claim ETH for valid tokens. Check for valid tokens before claming."
      },
      "withdrawUnclaimed()": {
        "notice": "Withdraw ether from this contract once the promotion is over."
      }
    }
  },
  "storageLayout": {
    "storage": [
      {
        "astId": 814,
        "contract": "contracts/Coupon/Coupon.sol:Coupon",
        "label": "_owner",
        "offset": 0,
        "slot": "0",
        "type": "t_address"
      },
      {
        "astId": 4890,
        "contract": "contracts/Coupon/Coupon.sol:Coupon",
        "label": "redemptions",
        "offset": 0,
        "slot": "1",
        "type": "t_mapping(t_uint256,t_bool)"
      },
      {
        "astId": 4894,
        "contract": "contracts/Coupon/Coupon.sol:Coupon",
        "label": "addressEntriesCount",
        "offset": 0,
        "slot": "2",
        "type": "t_mapping(t_address,t_uint256)"
      },
      {
        "astId": 4905,
        "contract": "contracts/Coupon/Coupon.sol:Coupon",
        "label": "promotionStart",
        "offset": 0,
        "slot": "3",
        "type": "t_uint256"
      },
      {
        "astId": 4907,
        "contract": "contracts/Coupon/Coupon.sol:Coupon",
        "label": "cryptorchidsERC721",
        "offset": 0,
        "slot": "4",
        "type": "t_address"
      },
      {
        "astId": 4909,
        "contract": "contracts/Coupon/Coupon.sol:Coupon",
        "label": "drawingEntriesCount",
        "offset": 0,
        "slot": "5",
        "type": "t_uint256"
      },
      {
        "astId": 4911,
        "contract": "contracts/Coupon/Coupon.sol:Coupon",
        "label": "pot",
        "offset": 0,
        "slot": "6",
        "type": "t_uint256"
      },
      {
        "astId": 4914,
        "contract": "contracts/Coupon/Coupon.sol:Coupon",
        "label": "drawingEntries",
        "offset": 0,
        "slot": "7",
        "type": "t_array(t_address)dyn_storage"
      }
    ],
    "types": {
      "t_address": {
        "encoding": "inplace",
        "label": "address",
        "numberOfBytes": "20"
      },
      "t_array(t_address)dyn_storage": {
        "base": "t_address",
        "encoding": "dynamic_array",
        "label": "address[]",
        "numberOfBytes": "32"
      },
      "t_bool": {
        "encoding": "inplace",
        "label": "bool",
        "numberOfBytes": "1"
      },
      "t_mapping(t_address,t_uint256)": {
        "encoding": "mapping",
        "key": "t_address",
        "label": "mapping(address => uint256)",
        "numberOfBytes": "32",
        "value": "t_uint256"
      },
      "t_mapping(t_uint256,t_bool)": {
        "encoding": "mapping",
        "key": "t_uint256",
        "label": "mapping(uint256 => bool)",
        "numberOfBytes": "32",
        "value": "t_bool"
      },
      "t_uint256": {
        "encoding": "inplace",
        "label": "uint256",
        "numberOfBytes": "32"
      }
    }
  }
}