{
  "address": "0xC199784644fc77CD37832356A49a6a7ae28A5f8d",
  "abi": [
    {
      "inputs": [
        {
          "internalType": "address",
          "name": "_VRFCoordinator",
          "type": "address"
        },
        {
          "internalType": "address",
          "name": "_LinkToken",
          "type": "address"
        },
        {
          "internalType": "bytes32",
          "name": "_keyhash",
          "type": "bytes32"
        }
      ],
      "stateMutability": "payable",
      "type": "constructor"
    },
    {
      "anonymous": false,
      "inputs": [
        {
          "indexed": true,
          "internalType": "address",
          "name": "owner",
          "type": "address"
        },
        {
          "indexed": true,
          "internalType": "address",
          "name": "approved",
          "type": "address"
        },
        {
          "indexed": true,
          "internalType": "uint256",
          "name": "tokenId",
          "type": "uint256"
        }
      ],
      "name": "Approval",
      "type": "event"
    },
    {
      "anonymous": false,
      "inputs": [
        {
          "indexed": true,
          "internalType": "address",
          "name": "owner",
          "type": "address"
        },
        {
          "indexed": true,
          "internalType": "address",
          "name": "operator",
          "type": "address"
        },
        {
          "indexed": false,
          "internalType": "bool",
          "name": "approved",
          "type": "bool"
        }
      ],
      "name": "ApprovalForAll",
      "type": "event"
    },
    {
      "anonymous": false,
      "inputs": [
        {
          "indexed": false,
          "internalType": "uint256",
          "name": "tokenId",
          "type": "uint256"
        }
      ],
      "name": "Composted",
      "type": "event"
    },
    {
      "anonymous": false,
      "inputs": [
        {
          "indexed": true,
          "internalType": "address",
          "name": "previousOwner",
          "type": "address"
        },
        {
          "indexed": true,
          "internalType": "address",
          "name": "newOwner",
          "type": "address"
        }
      ],
      "name": "OwnershipTransferred",
      "type": "event"
    },
    {
      "anonymous": false,
      "inputs": [
        {
          "indexed": false,
          "internalType": "address",
          "name": "account",
          "type": "address"
        }
      ],
      "name": "Paused",
      "type": "event"
    },
    {
      "anonymous": false,
      "inputs": [
        {
          "indexed": false,
          "internalType": "uint256",
          "name": "tokenId",
          "type": "uint256"
        }
      ],
      "name": "Planted",
      "type": "event"
    },
    {
      "anonymous": false,
      "inputs": [
        {
          "indexed": false,
          "internalType": "bytes32",
          "name": "requestId",
          "type": "bytes32"
        }
      ],
      "name": "RequestedRandomness",
      "type": "event"
    },
    {
      "anonymous": false,
      "inputs": [
        {
          "indexed": true,
          "internalType": "bytes32",
          "name": "role",
          "type": "bytes32"
        },
        {
          "indexed": true,
          "internalType": "bytes32",
          "name": "previousAdminRole",
          "type": "bytes32"
        },
        {
          "indexed": true,
          "internalType": "bytes32",
          "name": "newAdminRole",
          "type": "bytes32"
        }
      ],
      "name": "RoleAdminChanged",
      "type": "event"
    },
    {
      "anonymous": false,
      "inputs": [
        {
          "indexed": true,
          "internalType": "bytes32",
          "name": "role",
          "type": "bytes32"
        },
        {
          "indexed": true,
          "internalType": "address",
          "name": "account",
          "type": "address"
        },
        {
          "indexed": true,
          "internalType": "address",
          "name": "sender",
          "type": "address"
        }
      ],
      "name": "RoleGranted",
      "type": "event"
    },
    {
      "anonymous": false,
      "inputs": [
        {
          "indexed": true,
          "internalType": "bytes32",
          "name": "role",
          "type": "bytes32"
        },
        {
          "indexed": true,
          "internalType": "address",
          "name": "account",
          "type": "address"
        },
        {
          "indexed": true,
          "internalType": "address",
          "name": "sender",
          "type": "address"
        }
      ],
      "name": "RoleRevoked",
      "type": "event"
    },
    {
      "anonymous": false,
      "inputs": [
        {
          "indexed": true,
          "internalType": "address",
          "name": "from",
          "type": "address"
        },
        {
          "indexed": true,
          "internalType": "address",
          "name": "to",
          "type": "address"
        },
        {
          "indexed": true,
          "internalType": "uint256",
          "name": "tokenId",
          "type": "uint256"
        }
      ],
      "name": "Transfer",
      "type": "event"
    },
    {
      "anonymous": false,
      "inputs": [
        {
          "indexed": false,
          "internalType": "address",
          "name": "account",
          "type": "address"
        }
      ],
      "name": "Unpaused",
      "type": "event"
    },
    {
      "anonymous": false,
      "inputs": [
        {
          "indexed": false,
          "internalType": "uint256",
          "name": "tokenId",
          "type": "uint256"
        },
        {
          "indexed": false,
          "internalType": "uint256",
          "name": "waterLevel",
          "type": "uint256"
        }
      ],
      "name": "Watered",
      "type": "event"
    },
    {
      "inputs": [],
      "name": "DEFAULT_ADMIN_ROLE",
      "outputs": [
        {
          "internalType": "bytes32",
          "name": "",
          "type": "bytes32"
        }
      ],
      "stateMutability": "view",
      "type": "function"
    },
    {
      "inputs": [],
      "name": "GROWTH_CYCLE",
      "outputs": [
        {
          "internalType": "uint256",
          "name": "",
          "type": "uint256"
        }
      ],
      "stateMutability": "view",
      "type": "function"
    },
    {
      "inputs": [],
      "name": "LinkToken",
      "outputs": [
        {
          "internalType": "address",
          "name": "",
          "type": "address"
        }
      ],
      "stateMutability": "view",
      "type": "function"
    },
    {
      "inputs": [],
      "name": "MAX_CRYPTORCHIDS",
      "outputs": [
        {
          "internalType": "uint256",
          "name": "",
          "type": "uint256"
        }
      ],
      "stateMutability": "view",
      "type": "function"
    },
    {
      "inputs": [],
      "name": "MINTER_ROLE",
      "outputs": [
        {
          "internalType": "bytes32",
          "name": "",
          "type": "bytes32"
        }
      ],
      "stateMutability": "view",
      "type": "function"
    },
    {
      "inputs": [],
      "name": "PAUSER_ROLE",
      "outputs": [
        {
          "internalType": "bytes32",
          "name": "",
          "type": "bytes32"
        }
      ],
      "stateMutability": "view",
      "type": "function"
    },
    {
      "inputs": [],
      "name": "VRFCoordinator",
      "outputs": [
        {
          "internalType": "address",
          "name": "",
          "type": "address"
        }
      ],
      "stateMutability": "view",
      "type": "function"
    },
    {
      "inputs": [],
      "name": "WATERING_WINDOW",
      "outputs": [
        {
          "internalType": "uint256",
          "name": "",
          "type": "uint256"
        }
      ],
      "stateMutability": "view",
      "type": "function"
    },
    {
      "inputs": [
        {
          "internalType": "uint256",
          "name": "tokenId",
          "type": "uint256"
        }
      ],
      "name": "alive",
      "outputs": [
        {
          "internalType": "bool",
          "name": "",
          "type": "bool"
        }
      ],
      "stateMutability": "view",
      "type": "function"
    },
    {
      "inputs": [
        {
          "internalType": "address",
          "name": "to",
          "type": "address"
        },
        {
          "internalType": "uint256",
          "name": "tokenId",
          "type": "uint256"
        }
      ],
      "name": "approve",
      "outputs": [],
      "stateMutability": "nonpayable",
      "type": "function"
    },
    {
      "inputs": [
        {
          "internalType": "address",
          "name": "owner",
          "type": "address"
        }
      ],
      "name": "balanceOf",
      "outputs": [
        {
          "internalType": "uint256",
          "name": "",
          "type": "uint256"
        }
      ],
      "stateMutability": "view",
      "type": "function"
    },
    {
      "inputs": [],
      "name": "baseURI",
      "outputs": [
        {
          "internalType": "string",
          "name": "",
          "type": "string"
        }
      ],
      "stateMutability": "view",
      "type": "function"
    },
    {
      "inputs": [
        {
          "internalType": "uint256",
          "name": "tokenId",
          "type": "uint256"
        }
      ],
      "name": "burn",
      "outputs": [],
      "stateMutability": "nonpayable",
      "type": "function"
    },
    {
      "inputs": [
        {
          "internalType": "uint256",
          "name": "tokenId",
          "type": "uint256"
        }
      ],
      "name": "compost",
      "outputs": [],
      "stateMutability": "nonpayable",
      "type": "function"
    },
    {
      "inputs": [
        {
          "internalType": "uint256",
          "name": "",
          "type": "uint256"
        }
      ],
      "name": "cryptorchids",
      "outputs": [
        {
          "internalType": "string",
          "name": "species",
          "type": "string"
        },
        {
          "internalType": "uint256",
          "name": "plantedAt",
          "type": "uint256"
        },
        {
          "internalType": "uint256",
          "name": "waterLevel",
          "type": "uint256"
        }
      ],
      "stateMutability": "view",
      "type": "function"
    },
    {
      "inputs": [],
      "name": "currentPrice",
      "outputs": [
        {
          "internalType": "uint256",
          "name": "price",
          "type": "uint256"
        }
      ],
      "stateMutability": "view",
      "type": "function"
    },
    {
      "inputs": [
        {
          "internalType": "uint256",
          "name": "tokenId",
          "type": "uint256"
        }
      ],
      "name": "flowering",
      "outputs": [
        {
          "internalType": "bool",
          "name": "",
          "type": "bool"
        }
      ],
      "stateMutability": "view",
      "type": "function"
    },
    {
      "inputs": [
        {
          "internalType": "uint256",
          "name": "tokenId",
          "type": "uint256"
        },
        {
          "internalType": "uint256",
          "name": "userProvidedSeed",
          "type": "uint256"
        }
      ],
      "name": "germinate",
      "outputs": [],
      "stateMutability": "nonpayable",
      "type": "function"
    },
    {
      "inputs": [
        {
          "internalType": "uint256",
          "name": "tokenId",
          "type": "uint256"
        }
      ],
      "name": "getApproved",
      "outputs": [
        {
          "internalType": "address",
          "name": "",
          "type": "address"
        }
      ],
      "stateMutability": "view",
      "type": "function"
    },
    {
      "inputs": [
        {
          "internalType": "bytes32",
          "name": "role",
          "type": "bytes32"
        }
      ],
      "name": "getRoleAdmin",
      "outputs": [
        {
          "internalType": "bytes32",
          "name": "",
          "type": "bytes32"
        }
      ],
      "stateMutability": "view",
      "type": "function"
    },
    {
      "inputs": [
        {
          "internalType": "bytes32",
          "name": "role",
          "type": "bytes32"
        },
        {
          "internalType": "uint256",
          "name": "index",
          "type": "uint256"
        }
      ],
      "name": "getRoleMember",
      "outputs": [
        {
          "internalType": "address",
          "name": "",
          "type": "address"
        }
      ],
      "stateMutability": "view",
      "type": "function"
    },
    {
      "inputs": [
        {
          "internalType": "bytes32",
          "name": "role",
          "type": "bytes32"
        }
      ],
      "name": "getRoleMemberCount",
      "outputs": [
        {
          "internalType": "uint256",
          "name": "",
          "type": "uint256"
        }
      ],
      "stateMutability": "view",
      "type": "function"
    },
    {
      "inputs": [
        {
          "internalType": "uint256",
          "name": "tokenId",
          "type": "uint256"
        }
      ],
      "name": "getTokenMetadata",
      "outputs": [
        {
          "internalType": "string",
          "name": "",
          "type": "string"
        },
        {
          "internalType": "uint256",
          "name": "",
          "type": "uint256"
        },
        {
          "internalType": "uint256",
          "name": "",
          "type": "uint256"
        }
      ],
      "stateMutability": "view",
      "type": "function"
    },
    {
      "inputs": [
        {
          "internalType": "bytes32",
          "name": "role",
          "type": "bytes32"
        },
        {
          "internalType": "address",
          "name": "account",
          "type": "address"
        }
      ],
      "name": "grantRole",
      "outputs": [],
      "stateMutability": "nonpayable",
      "type": "function"
    },
    {
      "inputs": [
        {
          "internalType": "uint256",
          "name": "tokenId",
          "type": "uint256"
        }
      ],
      "name": "growthStage",
      "outputs": [
        {
          "internalType": "enum CryptOrchidERC721.Stage",
          "name": "",
          "type": "uint8"
        }
      ],
      "stateMutability": "view",
      "type": "function"
    },
    {
      "inputs": [
        {
          "internalType": "bytes32",
          "name": "role",
          "type": "bytes32"
        },
        {
          "internalType": "address",
          "name": "account",
          "type": "address"
        }
      ],
      "name": "hasRole",
      "outputs": [
        {
          "internalType": "bool",
          "name": "",
          "type": "bool"
        }
      ],
      "stateMutability": "view",
      "type": "function"
    },
    {
      "inputs": [
        {
          "internalType": "address",
          "name": "owner",
          "type": "address"
        },
        {
          "internalType": "address",
          "name": "operator",
          "type": "address"
        }
      ],
      "name": "isApprovedForAll",
      "outputs": [
        {
          "internalType": "bool",
          "name": "",
          "type": "bool"
        }
      ],
      "stateMutability": "view",
      "type": "function"
    },
    {
      "inputs": [
        {
          "internalType": "address",
          "name": "to",
          "type": "address"
        }
      ],
      "name": "mint",
      "outputs": [],
      "stateMutability": "nonpayable",
      "type": "function"
    },
    {
      "inputs": [],
      "name": "name",
      "outputs": [
        {
          "internalType": "string",
          "name": "",
          "type": "string"
        }
      ],
      "stateMutability": "view",
      "type": "function"
    },
    {
      "inputs": [],
      "name": "owner",
      "outputs": [
        {
          "internalType": "address",
          "name": "",
          "type": "address"
        }
      ],
      "stateMutability": "view",
      "type": "function"
    },
    {
      "inputs": [
        {
          "internalType": "uint256",
          "name": "tokenId",
          "type": "uint256"
        }
      ],
      "name": "ownerOf",
      "outputs": [
        {
          "internalType": "address",
          "name": "",
          "type": "address"
        }
      ],
      "stateMutability": "view",
      "type": "function"
    },
    {
      "inputs": [],
      "name": "pause",
      "outputs": [],
      "stateMutability": "nonpayable",
      "type": "function"
    },
    {
      "inputs": [],
      "name": "paused",
      "outputs": [
        {
          "internalType": "bool",
          "name": "",
          "type": "bool"
        }
      ],
      "stateMutability": "view",
      "type": "function"
    },
    {
      "inputs": [],
      "name": "randomResult",
      "outputs": [
        {
          "internalType": "uint256",
          "name": "",
          "type": "uint256"
        }
      ],
      "stateMutability": "view",
      "type": "function"
    },
    {
      "inputs": [
        {
          "internalType": "bytes32",
          "name": "requestId",
          "type": "bytes32"
        },
        {
          "internalType": "uint256",
          "name": "randomness",
          "type": "uint256"
        }
      ],
      "name": "rawFulfillRandomness",
      "outputs": [],
      "stateMutability": "nonpayable",
      "type": "function"
    },
    {
      "inputs": [],
      "name": "renounceOwnership",
      "outputs": [],
      "stateMutability": "nonpayable",
      "type": "function"
    },
    {
      "inputs": [
        {
          "internalType": "bytes32",
          "name": "role",
          "type": "bytes32"
        },
        {
          "internalType": "address",
          "name": "account",
          "type": "address"
        }
      ],
      "name": "renounceRole",
      "outputs": [],
      "stateMutability": "nonpayable",
      "type": "function"
    },
    {
      "inputs": [
        {
          "internalType": "bytes32",
          "name": "",
          "type": "bytes32"
        }
      ],
      "name": "requestToToken",
      "outputs": [
        {
          "internalType": "uint256",
          "name": "",
          "type": "uint256"
        }
      ],
      "stateMutability": "view",
      "type": "function"
    },
    {
      "inputs": [
        {
          "internalType": "bytes32",
          "name": "role",
          "type": "bytes32"
        },
        {
          "internalType": "address",
          "name": "account",
          "type": "address"
        }
      ],
      "name": "revokeRole",
      "outputs": [],
      "stateMutability": "nonpayable",
      "type": "function"
    },
    {
      "inputs": [
        {
          "internalType": "address",
          "name": "from",
          "type": "address"
        },
        {
          "internalType": "address",
          "name": "to",
          "type": "address"
        },
        {
          "internalType": "uint256",
          "name": "tokenId",
          "type": "uint256"
        }
      ],
      "name": "safeTransferFrom",
      "outputs": [],
      "stateMutability": "nonpayable",
      "type": "function"
    },
    {
      "inputs": [
        {
          "internalType": "address",
          "name": "from",
          "type": "address"
        },
        {
          "internalType": "address",
          "name": "to",
          "type": "address"
        },
        {
          "internalType": "uint256",
          "name": "tokenId",
          "type": "uint256"
        },
        {
          "internalType": "bytes",
          "name": "_data",
          "type": "bytes"
        }
      ],
      "name": "safeTransferFrom",
      "outputs": [],
      "stateMutability": "nonpayable",
      "type": "function"
    },
    {
      "inputs": [
        {
          "internalType": "address",
          "name": "operator",
          "type": "address"
        },
        {
          "internalType": "bool",
          "name": "approved",
          "type": "bool"
        }
      ],
      "name": "setApprovalForAll",
      "outputs": [],
      "stateMutability": "nonpayable",
      "type": "function"
    },
    {
      "inputs": [
        {
          "internalType": "bytes4",
          "name": "interfaceId",
          "type": "bytes4"
        }
      ],
      "name": "supportsInterface",
      "outputs": [
        {
          "internalType": "bool",
          "name": "",
          "type": "bool"
        }
      ],
      "stateMutability": "view",
      "type": "function"
    },
    {
      "inputs": [],
      "name": "symbol",
      "outputs": [
        {
          "internalType": "string",
          "name": "",
          "type": "string"
        }
      ],
      "stateMutability": "view",
      "type": "function"
    },
    {
      "inputs": [
        {
          "internalType": "uint256",
          "name": "index",
          "type": "uint256"
        }
      ],
      "name": "tokenByIndex",
      "outputs": [
        {
          "internalType": "uint256",
          "name": "",
          "type": "uint256"
        }
      ],
      "stateMutability": "view",
      "type": "function"
    },
    {
      "inputs": [
        {
          "internalType": "address",
          "name": "owner",
          "type": "address"
        },
        {
          "internalType": "uint256",
          "name": "index",
          "type": "uint256"
        }
      ],
      "name": "tokenOfOwnerByIndex",
      "outputs": [
        {
          "internalType": "uint256",
          "name": "",
          "type": "uint256"
        }
      ],
      "stateMutability": "view",
      "type": "function"
    },
    {
      "inputs": [
        {
          "internalType": "uint256",
          "name": "tokenId",
          "type": "uint256"
        }
      ],
      "name": "tokenURI",
      "outputs": [
        {
          "internalType": "string",
          "name": "",
          "type": "string"
        }
      ],
      "stateMutability": "view",
      "type": "function"
    },
    {
      "inputs": [],
      "name": "totalSupply",
      "outputs": [
        {
          "internalType": "uint256",
          "name": "",
          "type": "uint256"
        }
      ],
      "stateMutability": "view",
      "type": "function"
    },
    {
      "inputs": [
        {
          "internalType": "address",
          "name": "from",
          "type": "address"
        },
        {
          "internalType": "address",
          "name": "to",
          "type": "address"
        },
        {
          "internalType": "uint256",
          "name": "tokenId",
          "type": "uint256"
        }
      ],
      "name": "transferFrom",
      "outputs": [],
      "stateMutability": "nonpayable",
      "type": "function"
    },
    {
      "inputs": [
        {
          "internalType": "address",
          "name": "newOwner",
          "type": "address"
        }
      ],
      "name": "transferOwnership",
      "outputs": [],
      "stateMutability": "nonpayable",
      "type": "function"
    },
    {
      "inputs": [],
      "name": "unpause",
      "outputs": [],
      "stateMutability": "nonpayable",
      "type": "function"
    },
    {
      "inputs": [
        {
          "internalType": "uint256",
          "name": "tokenId",
          "type": "uint256"
        }
      ],
      "name": "water",
      "outputs": [],
      "stateMutability": "nonpayable",
      "type": "function"
    },
    {
      "inputs": [
        {
          "internalType": "uint256",
          "name": "units",
          "type": "uint256"
        }
      ],
      "name": "webMint",
      "outputs": [],
      "stateMutability": "payable",
      "type": "function"
    },
    {
      "inputs": [],
      "name": "withdraw",
      "outputs": [],
      "stateMutability": "nonpayable",
      "type": "function"
    },
    {
      "stateMutability": "payable",
      "type": "receive"
    }
  ],
  "transactionHash": "0x75b1b1ce29abdd79523df654c80320f4fa1abaedacaa62ab17ea9a2dc71ac6cd",
  "args": [
    "0xb3dCcb4Cf7a26f6cf6B120Cf5A73875B7BBc655B",
    "0x01be23585060835e02b77ef475b0cc51aa1e0709",
    "0x2ed0feb3e7fd2022120aa84fab1945545a9f2ffc9076fd6156fa96eaff4c1311"
  ],
  "solcInputHash": "7343fb7734d4876df63ec9ada2d0778e",
  "bytecode": "0x610200604052600060c0908152610c0260e0526117ba61010052611f8a610120526123726101405261256661016052612660610180526126c46101a0526126f66101c05261270f6101e0526200005a90601090600a62000bab565b506040805161018081018252601761014082019081527f7368656e7a68656e696361206f72636869646163656165000000000000000000610160830152815281518083018352601881527f7068616c61656e6f70736973206d6963686f6c69747a69690000000000000000602082810191909152808301919091528251808401845260158082527f6775617269616e74686520617572616e74696163610000000000000000000000828401528385019190915283518085018552600e81526d76616e646120636f6572756c656160901b818401526060840152835180850185528181527f637970726970656469756d2063616c63656f6c7573000000000000000000000081840152608084015283518085018552601981527f70617068696f706564696c756d20766965746e616d656e7365000000000000008184015260a08401528351808501855260128152716d696c746f6e6961206b61796173696d616560701b8184015260c084015283518085018552601381527f706c6174616e746865726120617a6f72696361000000000000000000000000008184015260e0840152835180850185529081527f64656e64726f7068796c6178206c696e64656e69690000000000000000000000818301526101008301528251808401909352601d83527f70617068696f706564696c756d20726f7468736368696c6469616e756d000000908301526101208101919091526200027a90601190600a62000c48565b50604080516101a08101909152602b610140820181815282916200554661016084013981526020016040518060600160405280602b81526020016200561d602b913981526020016040518060600160405280602b815260200162005444602b913981526020016040518060600160405280602b8152602001620054f0602b913981526020016040518060600160405280602b81526020016200546f602b913981526020016040518060600160405280602b8152602001620053ee602b913981526020016040518060600160405280602b815260200162005419602b913981526020016040518060600160405280602b8152602001620055f2602b913981526020016040518060600160405280602b81526020016200559c602b913981526020016040518060600160405280602b81526020016200536d602b91399052620003c690601b90600a62000c48565b50604080516101a08101909152602b610140820181815282916200551b61016084013981526020016040518060600160405280602b815260200162005398602b913981526020016040518060600160405280602b815260200162005571602b913981526020016040518060600160405280602b8152602001620053c3602b913981526020016040518060600160405280602b815260200162005317602b913981526020016040518060600160405280602b81526020016200549a602b913981526020016040518060600160405280602b8152602001620054c5602b913981526020016040518060600160405280602b8152602001620055c7602b913981526020016040518060600160405280602b8152602001620052ec602b913981526020016040518060600160405280602b815260200162005342602b913990526200051290602590600a62000c48565b506040516200564838038062005648833981810160405260608110156200053857600080fd5b50805160208083015160409384015184518086018652600c81526b43727970744f72636869647360a01b8185015285518087018752600581526413d490d21160da1b818601528651808801909752601387527f68747470733a2f2f617277656176652e6e657400000000000000000000000000948701949094529394919390928592859291908282620005db6301ffc9a760e01b6001600160e01b03620009d516565b8151620005f090600790602085019062000c9b565b5080516200060690600890602084019062000c9b565b50620006226380ac58cd60e01b6001600160e01b03620009d516565b6200063d635b5e139f60e01b6001600160e01b03620009d516565b6200065863780e9d6360e01b6001600160e01b03620009d516565b5050600b805460ff191690556200068c60006200067d6001600160e01b0362000a5d16565b6001600160e01b0362000a6216565b604080516a4d494e5445525f524f4c4560a81b8152905190819003600b019020620006c4906200067d6001600160e01b0362000a5d16565b604080516a5041555345525f524f4c4560a81b8152905190819003600b019020620006fc906200067d6001600160e01b0362000a5d16565b62000710816001600160e01b0362000a7b16565b50505060006200072562000a5d60201b60201c565b600d80546001600160a01b0319166001600160a01b038316908117909155604051919250906000907f8be0079c531659141344cd1fd0a4f28419497f9722a3daafe3b4186f6b6457e0908290a3506001600160601b0319606092831b811660a052911b16608052603380546001600160a01b038581166001600160a01b0319928316179092556034805492851692909116919091179055603081905567016345785d8a000060315560005b600a811015620009cb57601b81600a8110620007e857fe5b0160366000601184600a8110620007fb57fe5b6040805160208082019081529290930180546002600182161561010002600019019091160491840182905292829160609091019084908015620008825780601f10620008565761010080835404028352916020019162000882565b820191906000526020600020905b8154815290600101906020018083116200086457829003601f168201915b5050925050506040516020818303038152906040528051906020012081526020019081526020016000209080546001816001161561010002031660029004620008cd92919062000d1c565b50602581600a8110620008dc57fe5b0160376000601184600a8110620008ef57fe5b6040805160208082019081529290930180546002600182161561010002600019019091160491840182905292829160609091019084908015620009765780601f106200094a5761010080835404028352916020019162000976565b820191906000526020600020905b8154815290600101906020018083116200095857829003601f168201915b5050925050506040516020818303038152906040528051906020012081526020019081526020016000209080546001816001161561010002031660029004620009c192919062000d1c565b50600101620007d0565b5050505062000e48565b6001600160e01b0319808216141562000a35576040805162461bcd60e51b815260206004820152601c60248201527f4552433136353a20696e76616c696420696e7465726661636520696400000000604482015290519081900360640190fd5b6001600160e01b0319166000908152600160208190526040909120805460ff19169091179055565b335b90565b62000a7782826001600160e01b0362000a9016565b5050565b805162000a7790600a90602084019062000c9b565b60008281526020818152604090912062000ab59183906200321962000b12821b17901c565b1562000a775762000ace6001600160e01b0362000a5d16565b6001600160a01b0316816001600160a01b0316837f2f8788117e7eff1d82e926ec794901d17c78024a50270940304540a733656f0d60405160405180910390a45050565b600062000b32836001600160a01b0384166001600160e01b0362000b3b16565b90505b92915050565b600062000b5283836001600160e01b0362000b9316565b62000b8a5750815460018181018455600084815260208082209093018490558454848252828601909352604090209190915562000b35565b50600062000b35565b60009081526001919091016020526040902054151590565b60018301918390821562000c365791602002820160005b8382111562000c0457835183826101000a81548161ffff021916908361ffff160217905550926020019260020160208160010104928301926001030262000bc2565b801562000c345782816101000a81549061ffff021916905560020160208160010104928301926001030262000c04565b505b5062000c4492915062000d96565b5090565b82600a810192821562000c8d579160200282015b8281111562000c8d578251805162000c7c91849160209091019062000c9b565b509160200191906001019062000c5c565b5062000c4492915062000db8565b828054600181600116156101000203166002900490600052602060002090601f016020900481019282601f1062000cde57805160ff191683800117855562000d0e565b8280016001018555821562000d0e579182015b8281111562000d0e57825182559160200191906001019062000cf1565b5062000c4492915062000de0565b828054600181600116156101000203166002900490600052602060002090601f016020900481019282601f1062000d57578054855562000d0e565b8280016001018555821562000d0e57600052602060002091601f016020900482015b8281111562000d0e57825482559160010191906001019062000d79565b62000a5f91905b8082111562000c4457805461ffff1916815560010162000d9d565b62000a5f91905b8082111562000c4457600062000dd6828262000dfd565b5060010162000dbf565b62000a5f91905b8082111562000c44576000815560010162000de7565b50805460018160011615610100020316600290046000825580601f1062000e25575062000e45565b601f01602090049060005260206000209081019062000e45919062000de0565b50565b60805160601c60a05160601c61447062000e7c600039806117e6528061342b525080612d2352806133fc52506144706000f3fe6080604052600436106103595760003560e01c80636b0c004d116101bb578063a217fddf116100f7578063cac21c8f11610095578063e63ab1e91161006f578063e63ab1e914610d01578063e985e9c514610d16578063f2fde38b14610d51578063ffee200c14610d8457610360565b8063cac21c8f14610c89578063d539139314610cb3578063d547741f14610cc857610360565b8063b7aaba20116100d1578063b7aaba2014610b14578063b88d4fde14610b62578063c87b56dd14610c35578063ca15c87314610c5f57610360565b8063a217fddf14610a9a578063a22cb46514610aaf578063a7eec44b14610aea57610360565b80638da5cb5b1161016457806394985ddd1161013e57806394985ddd14610a2357806395d89b4114610a535780639981d4a114610a685780639d1b464a14610a8557610360565b80638da5cb5b146109a55780639010d07c146109ba57806391d14854146109ea57610360565b8063715018a611610195578063715018a61461094b5780637fd8d953146109605780638456cb591461099057610360565b80636b0c004d146108ee5780636c0360eb1461090357806370a082311461091857610360565b806336568abe116102955780634f8e2fdf1161023357806362ff09d61161020d57806362ff09d61461083d5780636352211e146108675780636573c787146108915780636a627842146108bb57610360565b80634f8e2fdf146107635780635c975abb14610778578063603168011461078d57610360565b806342619f661161026f57806342619f66146106b757806342842e0e146106cc57806342966c681461070f5780634f6ccce71461073957610360565b806336568abe146106545780633ccfd60b1461068d5780633f4ba83a146106a257610360565b806318160ddd11610302578063248a9ca3116102dc578063248a9ca3146105a35780632f2ff15d146105cd5780632f745c591461060657806333b608631461063f57610360565b806318160ddd14610521578063182199cd1461053657806323b872dd1461056057610360565b8063095ea7b311610333578063095ea7b3146104955780631424494d146104d0578063179f0b0a146104fa57610360565b806301ffc9a71461036557806306fdde03146103c5578063081812fc1461044f57610360565b3661036057005b600080fd5b34801561037157600080fd5b506103b16004803603602081101561038857600080fd5b50357fffffffff0000000000000000000000000000000000000000000000000000000016610d99565b604080519115158252519081900360200190f35b3480156103d157600080fd5b506103da610dd4565b6040805160208082528351818301528351919283929083019185019080838360005b838110156104145781810151838201526020016103fc565b50505050905090810190601f1680156104415780820380516001836020036101000a031916815260200191505b509250505060405180910390f35b34801561045b57600080fd5b506104796004803603602081101561047257600080fd5b5035610e6b565b604080516001600160a01b039092168252519081900360200190f35b3480156104a157600080fd5b506104ce600480360360408110156104b857600080fd5b506001600160a01b038135169060200135610ecd565b005b3480156104dc57600080fd5b506104ce600480360360208110156104f357600080fd5b5035610fa8565b34801561050657600080fd5b5061050f611033565b60408051918252519081900360200190f35b34801561052d57600080fd5b5061050f611039565b34801561054257600080fd5b506103b16004803603602081101561055957600080fd5b503561104a565b34801561056c57600080fd5b506104ce6004803603606081101561058357600080fd5b506001600160a01b03813581169160208101359091169060400135611069565b3480156105af57600080fd5b5061050f600480360360208110156105c657600080fd5b50356110ba565b3480156105d957600080fd5b506104ce600480360360408110156105f057600080fd5b50803590602001356001600160a01b03166110cf565b34801561061257600080fd5b5061050f6004803603604081101561062957600080fd5b506001600160a01b03813516906020013561113b565b34801561064b57600080fd5b5061047961116c565b34801561066057600080fd5b506104ce6004803603604081101561067757600080fd5b50803590602001356001600160a01b031661117b565b34801561069957600080fd5b506104ce6111dc565b3480156106ae57600080fd5b506104ce61127f565b3480156106c357600080fd5b5061050f6112f0565b3480156106d857600080fd5b506104ce600480360360608110156106ef57600080fd5b506001600160a01b038135811691602081013590911690604001356112f6565b34801561071b57600080fd5b506104ce6004803603602081101561073257600080fd5b5035611311565b34801561074557600080fd5b5061050f6004803603602081101561075c57600080fd5b5035611363565b34801561076f57600080fd5b5061047961137f565b34801561078457600080fd5b506103b161138e565b34801561079957600080fd5b506107b7600480360360208110156107b057600080fd5b5035611397565b6040518080602001848152602001838152602001828103825285818151815260200191508051906020019080838360005b838110156108005781810151838201526020016107e8565b50505050905090810190601f16801561082d5780820380516001836020036101000a031916815260200191505b5094505050505060405180910390f35b34801561084957600080fd5b5061050f6004803603602081101561086057600080fd5b503561144d565b34801561087357600080fd5b506104796004803603602081101561088a57600080fd5b503561145f565b34801561089d57600080fd5b506103b1600480360360208110156108b457600080fd5b503561148d565b3480156108c757600080fd5b506104ce600480360360208110156108de57600080fd5b50356001600160a01b03166114ad565b3480156108fa57600080fd5b5061050f611531565b34801561090f57600080fd5b506103da611537565b34801561092457600080fd5b5061050f6004803603602081101561093b57600080fd5b50356001600160a01b0316611598565b34801561095757600080fd5b506104ce611600565b34801561096c57600080fd5b506104ce6004803603604081101561098357600080fd5b50803590602001356116cb565b34801561099c57600080fd5b506104ce611721565b3480156109b157600080fd5b50610479611790565b3480156109c657600080fd5b50610479600480360360408110156109dd57600080fd5b508035906020013561179f565b3480156109f657600080fd5b506103b160048036036040811015610a0d57600080fd5b50803590602001356001600160a01b03166117bd565b348015610a2f57600080fd5b506104ce60048036036040811015610a4657600080fd5b50803590602001356117db565b348015610a5f57600080fd5b506103da611862565b6104ce60048036036020811015610a7e57600080fd5b50356118c3565b348015610a9157600080fd5b5061050f611b3f565b348015610aa657600080fd5b5061050f611bfb565b348015610abb57600080fd5b506104ce60048036036040811015610ad257600080fd5b506001600160a01b0381351690602001351515611c00565b348015610af657600080fd5b506104ce60048036036020811015610b0d57600080fd5b5035611d05565b348015610b2057600080fd5b50610b3e60048036036020811015610b3757600080fd5b5035611e11565b60405180826003811115610b4e57fe5b60ff16815260200191505060405180910390f35b348015610b6e57600080fd5b506104ce60048036036080811015610b8557600080fd5b6001600160a01b03823581169260208101359091169160408201359190810190608081016060820135640100000000811115610bc057600080fd5b820183602082011115610bd257600080fd5b80359060200191846001830284011164010000000083111715610bf457600080fd5b91908080601f016020809104026020016040519081016040528093929190818152602001838380828437600092019190915250929550611f8f945050505050565b348015610c4157600080fd5b506103da60048036036020811015610c5857600080fd5b5035611fe7565b348015610c6b57600080fd5b5061050f60048036036020811015610c8257600080fd5b50356123de565b348015610c9557600080fd5b506107b760048036036020811015610cac57600080fd5b50356123f5565b348015610cbf57600080fd5b5061050f6124a2565b348015610cd457600080fd5b506104ce60048036036040811015610ceb57600080fd5b50803590602001356001600160a01b03166124c5565b348015610d0d57600080fd5b5061050f61251e565b348015610d2257600080fd5b506103b160048036036040811015610d3957600080fd5b506001600160a01b0381358116916020013516612541565b348015610d5d57600080fd5b506104ce60048036036020811015610d7457600080fd5b50356001600160a01b031661256f565b348015610d9057600080fd5b5061050f612691565b7fffffffff00000000000000000000000000000000000000000000000000000000811660009081526001602052604090205460ff165b919050565b60078054604080516020601f6002600019610100600188161502019095169490940493840181900481028201810190925282815260609390929091830182828015610e605780601f10610e3557610100808354040283529160200191610e60565b820191906000526020600020905b815481529060010190602001808311610e4357829003601f168201915b505050505090505b90565b6000610e7682612697565b610eb15760405162461bcd60e51b815260040180806020018281038252602c8152602001806141e2602c913960400191505060405180910390fd5b506000908152600560205260409020546001600160a01b031690565b6000610ed88261145f565b9050806001600160a01b0316836001600160a01b03161415610f2b5760405162461bcd60e51b81526004018080602001828103825260218152602001806142676021913960400191505060405180910390fd5b806001600160a01b0316610f3d6126aa565b6001600160a01b03161480610f5e5750610f5e81610f596126aa565b612541565b610f995760405162461bcd60e51b81526004018080602001828103825260388152602001806140f16038913960400191505060405180910390fd5b610fa383836126ae565b505050565b610fb9610fb36126aa565b82612729565b610ff45760405162461bcd60e51b81526004018080602001828103825260298152602001806143366029913960400191505060405180910390fd5b610ffd81611311565b6040805182815290517f30f6ee1c7b8eb7349c887acbbbd691fc92bd38eacc6341de20458431525e610c9181900360200190a150565b612a3081565b600061104560036127cd565b905090565b6000600261105783611e11565b600381111561106257fe5b1492915050565b611074610fb36126aa565b6110af5760405162461bcd60e51b81526004018080602001828103825260318152602001806142da6031913960400191505060405180910390fd5b610fa38383836127d8565b60009081526020819052604090206002015490565b6000828152602081905260409020600201546110f2906110ed6126aa565b6117bd565b61112d5760405162461bcd60e51b815260040180806020018281038252602f815260200180613f34602f913960400191505060405180910390fd5b6111378282612936565b5050565b6001600160a01b0382166000908152600260205260408120611163908363ffffffff6129a516565b90505b92915050565b6033546001600160a01b031681565b6111836126aa565b6001600160a01b0316816001600160a01b0316146111d25760405162461bcd60e51b815260040180806020018281038252602f81526020018061440c602f913960400191505060405180910390fd5b61113782826129b1565b6111e46126aa565b6001600160a01b03166111f5611790565b6001600160a01b031614611250576040805162461bcd60e51b815260206004820181905260248201527f4f776e61626c653a2063616c6c6572206973206e6f7420746865206f776e6572604482015290519081900360640190fd5b6040514790339082156108fc029083906000818181858888f19350505050158015611137573d6000803e3d6000fd5b604080516a5041555345525f524f4c4560a81b8152905190819003600b0190206112ab906110ed6126aa565b6112e65760405162461bcd60e51b81526004018080602001828103825260408152602001806143cc6040913960400191505060405180910390fd5b6112ee612a20565b565b60325481565b610fa383838360405180602001604052806000815250611f8f565b61131c610fb36126aa565b6113575760405162461bcd60e51b815260040180806020018281038252603081526020018061439c6030913960400191505060405180910390fd5b61136081612ac9565b50565b60008061137760038463ffffffff612ba216565b509392505050565b6034546001600160a01b031681565b600b5460ff1690565b6000818152600f60209081526040808320600180820154600280840154845486519481161561010002600019011691909104601f81018790048702840187019095528483526060969586959293919285918301828280156114395780601f1061140e57610100808354040283529160200191611439565b820191906000526020600020905b81548152906001019060200180831161141c57829003601f168201915b505050505092509250925092509193909250565b60356020526000908152604090205481565b600061116682604051806060016040528060298152602001614153602991396003919063ffffffff612bbe16565b6000600361149a83611e11565b60038111156114a557fe5b141592915050565b604080516a4d494e5445525f524f4c4560a81b8152905190819003600b0190206114d9906110ed6126aa565b6115145760405162461bcd60e51b815260040180806020018281038252603d81526020018061435f603d913960400191505060405180910390fd5b61152781611522600c612bd5565b612bd9565b611360600c612d13565b61271081565b600a8054604080516020601f6002600019610100600188161502019095169490940493840181900481028201810190925282815260609390929091830182828015610e605780601f10610e3557610100808354040283529160200191610e60565b60006001600160a01b0382166115df5760405162461bcd60e51b815260040180806020018281038252602a815260200180614129602a913960400191505060405180910390fd5b6001600160a01b0382166000908152600260205260409020611166906127cd565b6116086126aa565b6001600160a01b0316611619611790565b6001600160a01b031614611674576040805162461bcd60e51b815260206004820181905260248201527f4f776e61626c653a2063616c6c6572206973206e6f7420746865206f776e6572604482015290519081900360640190fd5b600d546040516000916001600160a01b0316907f8be0079c531659141344cd1fd0a4f28419497f9722a3daafe3b4186f6b6457e0908390a3600d805473ffffffffffffffffffffffffffffffffffffffff19169055565b6116dc6116d66126aa565b83612729565b6117175760405162461bcd60e51b815260040180806020018281038252602b81526020018061430b602b913960400191505060405180910390fd5b610fa38282612d1c565b604080516a5041555345525f524f4c4560a81b8152905190819003600b01902061174d906110ed6126aa565b6117885760405162461bcd60e51b815260040180806020018281038252603e815260200180613fbb603e913960400191505060405180910390fd5b6112ee612e5d565b600d546001600160a01b031690565b6000828152602081905260408120611163908363ffffffff6129a516565b6000828152602081905260408120611163908363ffffffff612eed16565b336001600160a01b037f00000000000000000000000000000000000000000000000000000000000000001614611858576040805162461bcd60e51b815260206004820152601f60248201527f4f6e6c7920565246436f6f7264696e61746f722063616e2066756c66696c6c00604482015290519081900360640190fd5b6111378282612f02565b60088054604080516020601f6002600019610100600188161502019095169490940493840181900481028201810190925282815260609390929091830182828015610e605780601f10610e3557610100808354040283529160200191610e60565b6118cb611039565b612710038110611922576040805162461bcd60e51b815260206004820152601560248201527f4e6f7420656e6f7567682062756c6273206c6566740000000000000000000000604482015290519081900360640190fd5b61271061192d611039565b1061197f576040805162461bcd60e51b815260206004820152601660248201527f53616c652068617320616c726561647920656e64656400000000000000000000604482015290519081900360640190fd5b600081118015611990575060148111155b6119cb5760405162461bcd60e51b81526004018080602001828103825260308152602001806142376030913960400191505060405180910390fd5b6127106119df6119d9611039565b83612f8d565b1115611a32576040805162461bcd60e51b815260206004820152601860248201527f45786365656473204d41585f43525950544f5243484944530000000000000000604482015290519081900360640190fd5b611a43611a3d611b3f565b82612fe7565b341015611a815760405162461bcd60e51b815260040180806020018281038252602381526020018061417c6023913960400191505060405180910390fd5b60005b8181101561113757611a96602f612d13565b6000611aa2602f612bd5565b6040805160a0810182526006606082019081527f6772616e756d0000000000000000000000000000000000000000000000000000608083015281526000196020808301919091526000828401819052848152600f8252929092208151805194955091939092611b15928492910190613df1565b5060208201516001820155604090910151600290910155611b363382613040565b50600101611a84565b600080611b4a611039565b90506126ac8110611b6657670de0b6b3a7640000915050610e68565b61251c8110611b80576708e1bc9bf0400000915050610e68565b611d4c8110611b9a57670470de4df8200000915050610e68565b610dac8110611bb4576702386f26fc100000915050610e68565b6105dc8110611bce5767011c37937e080000915050610e68565b6101f48110611be757668e1bc9bf040000915050610e68565b66470de4df820000915050610e68565b5090565b600081565b611c086126aa565b6001600160a01b0316826001600160a01b03161415611c6e576040805162461bcd60e51b815260206004820152601960248201527f4552433732313a20617070726f766520746f2063616c6c657200000000000000604482015290519081900360640190fd5b8060066000611c7b6126aa565b6001600160a01b03908116825260208083019390935260409182016000908120918716808252919093529120805460ff191692151592909217909155611cbf6126aa565b60408051841515815290516001600160a01b0392909216917f17307eab39ab6107e8899845ad3d59bd9653f200f220920489ca2b5937696c319181900360200190a35050565b611d10610fb36126aa565b611d4b5760405162461bcd60e51b815260040180806020018281038252602781526020018061406e6027913960400191505060405180910390fd5b611d548161148d565b611d6657611d6181611311565b611360565b6000818152600f602052604081206002810154600182015491929091611d8a61305a565b0390506000611d9b82612a3061305e565b905080831115611db757611dae85611311565b50505050611360565b6000611dc4846001612f8d565b60028601819055604080518881526020810183905281519293507f674d81537534435d24d5bc9f92955722ba22b136d98346a01ad4777f48b5581c929081900390910190a1505050505050565b6000611e1b613e6b565b6000838152600f60209081526040918290208251815460026001821615610100026000190190911604601f81018490049093028101608090810190945260608101838152909391928492849190840182828015611eb95780601f10611e8e57610100808354040283529160200191611eb9565b820191906000526020600020905b815481529060010190602001808311611e9c57829003601f168201915b50505050508152602001600182015481526020016002820154815250509050806020015160001415611eef576000915050610dcf565b60001981602001511415611f07576001915050610dcf565b60408101516020820151600090611f1c61305a565b0390506000611f2d82612a3061305e565b90506000611f3d83612a306130c8565b905081841415611f5557600295505050505050610dcf565b81611f61856001612f8d565b148015611f6f5750610e1081105b15611f8257600295505050505050610dcf565b5060039695505050505050565b611f9a6116d66126aa565b611fd55760405162461bcd60e51b81526004018080602001828103825260318152602001806142da6031913960400191505060405180910390fd5b611fe18484848461312d565b50505050565b606080611ff383611397565b509091506001905061200484611e11565b600381111561200f57fe5b14156120ed5761201d611537565b6040518060600160405280602b81526020016142af602b91396040516020018083805190602001908083835b602083106120685780518252601f199092019160209182019101612049565b51815160209384036101000a600019018019909216911617905285519190930192850191508083835b602083106120b05780518252601f199092019160209182019101612091565b6001836020036101000a03801982511681845116808217855250505050505090500192505050604051602081830303815290604052915050610dcf565b60026120f884611e11565b600381111561210357fe5b141561227457612111611537565b60366000836040516020018080602001828103825283818151815260200191508051906020019080838360005b8381101561215657818101518382015260200161213e565b50505050905090810190601f1680156121835780820380516001836020036101000a031916815260200191505b50925050506040516020818303038152906040528051906020012081526020019081526020016000206040516020018083805190602001908083835b602083106121de5780518252601f1990920191602091820191016121bf565b6001836020036101000a038019825116818451168082178552505050505050905001828054600181600116156101000203166002900480156122575780601f10612235576101008083540402835291820191612257565b820191906000526020600020905b815481529060010190602001808311612243575b505092505050604051602081830303815290604052915050610dcf565b61227c611537565b60376000836040516020018080602001828103825283818151815260200191508051906020019080838360005b838110156122c15781810151838201526020016122a9565b50505050905090810190601f1680156122ee5780820380516001836020036101000a031916815260200191505b50925050506040516020818303038152906040528051906020012081526020019081526020016000206040516020018083805190602001908083835b602083106123495780518252601f19909201916020918201910161232a565b6001836020036101000a038019825116818451168082178552505050505050905001828054600181600116156101000203166002900480156123c25780601f106123a05761010080835404028352918201916123c2565b820191906000526020600020905b8154815290600101906020018083116123ae575b505060408051601f198184030181529190529695505050505050565b6000818152602081905260408120611166906127cd565b600f6020908152600091825260409182902080548351601f6002600019610100600186161502019093169290920491820184900484028101840190945280845290929183919083018282801561248c5780601f106124615761010080835404028352916020019161248c565b820191906000526020600020905b81548152906001019060200180831161246f57829003601f168201915b5050505050908060010154908060020154905083565b604080516a4d494e5445525f524f4c4560a81b8152905190819003600b01902081565b6000828152602081905260409020600201546124e3906110ed6126aa565b6111d25760405162461bcd60e51b81526004018080602001828103825260308152602001806140c16030913960400191505060405180910390fd5b604080516a5041555345525f524f4c4560a81b8152905190819003600b01902081565b6001600160a01b03918216600090815260066020908152604080832093909416825291909152205460ff1690565b6125776126aa565b6001600160a01b0316612588611790565b6001600160a01b0316146125e3576040805162461bcd60e51b815260206004820181905260248201527f4f776e61626c653a2063616c6c6572206973206e6f7420746865206f776e6572604482015290519081900360640190fd5b6001600160a01b0381166126285760405162461bcd60e51b8152600401808060200182810382526026815260200180613f956026913960400191505060405180910390fd5b600d546040516001600160a01b038084169216907f8be0079c531659141344cd1fd0a4f28419497f9722a3daafe3b4186f6b6457e090600090a3600d805473ffffffffffffffffffffffffffffffffffffffff19166001600160a01b0392909216919091179055565b610e1081565b600061116660038363ffffffff61317f16565b3390565b6000818152600560205260409020805473ffffffffffffffffffffffffffffffffffffffff19166001600160a01b03841690811790915581906126f08261145f565b6001600160a01b03167f8c5be1e5ebec7d5bd14f71427d1e84f3dd0314c0f7b2291e5b200ac8c7c3b92560405160405180910390a45050565b600061273482612697565b61276f5760405162461bcd60e51b815260040180806020018281038252602c815260200180614095602c913960400191505060405180910390fd5b600061277a8361145f565b9050806001600160a01b0316846001600160a01b031614806127b55750836001600160a01b03166127aa84610e6b565b6001600160a01b0316145b806127c557506127c58185612541565b949350505050565b600061116682612bd5565b826001600160a01b03166127eb8261145f565b6001600160a01b0316146128305760405162461bcd60e51b815260040180806020018281038252602981526020018061420e6029913960400191505060405180910390fd5b6001600160a01b0382166128755760405162461bcd60e51b8152600401808060200182810382526024815260200180613ff96024913960400191505060405180910390fd5b61288083838361318b565b61288b6000826126ae565b6001600160a01b03831660009081526002602052604090206128b3908263ffffffff6131eb16565b506001600160a01b03821660009081526002602052604090206128dc908263ffffffff6131f716565b506128ef6003828463ffffffff61320316565b5080826001600160a01b0316846001600160a01b03167fddf252ad1be2c89b69c2b068fc378daa952ba7f163c4a11628f55a4df523b3ef60405160405180910390a4505050565b6000828152602081905260409020612954908263ffffffff61321916565b15611137576129616126aa565b6001600160a01b0316816001600160a01b0316837f2f8788117e7eff1d82e926ec794901d17c78024a50270940304540a733656f0d60405160405180910390a45050565b6000611163838361322e565b60008281526020819052604090206129cf908263ffffffff61329216565b15611137576129dc6126aa565b6001600160a01b0316816001600160a01b0316837ff6391f5c32d9c69d2a47ea670b442974b53935d1edc7fd64eb21e047a839171b60405160405180910390a45050565b612a2861138e565b612a79576040805162461bcd60e51b815260206004820152601460248201527f5061757361626c653a206e6f7420706175736564000000000000000000000000604482015290519081900360640190fd5b600b805460ff191690557f5db9ee0a495bf2e6ff9c91a7834c1ba4fdd244a5e8aa4e537bd38aeae4b073aa612aac6126aa565b604080516001600160a01b039092168252519081900360200190a1565b6000612ad48261145f565b9050612ae28160008461318b565b612aed6000836126ae565b6000828152600960205260409020546002600019610100600184161502019091160415612b2b576000828152600960205260408120612b2b91613e8c565b6001600160a01b0381166000908152600260205260409020612b53908363ffffffff6131eb16565b50612b6560038363ffffffff6132a716565b5060405182906000906001600160a01b038416907fddf252ad1be2c89b69c2b068fc378daa952ba7f163c4a11628f55a4df523b3ef908390a45050565b6000808080612bb186866132b3565b9097909650945050505050565b6000612bcb84848461332e565b90505b9392505050565b5490565b6001600160a01b038216612c34576040805162461bcd60e51b815260206004820181905260248201527f4552433732313a206d696e7420746f20746865207a65726f2061646472657373604482015290519081900360640190fd5b612c3d81612697565b15612c8f576040805162461bcd60e51b815260206004820152601c60248201527f4552433732313a20746f6b656e20616c7265616479206d696e74656400000000604482015290519081900360640190fd5b612c9b6000838361318b565b6001600160a01b0382166000908152600260205260409020612cc3908263ffffffff6131f716565b50612cd66003828463ffffffff61320316565b5060405181906001600160a01b038416906000907fddf252ad1be2c89b69c2b068fc378daa952ba7f163c4a11628f55a4df523b3ef908290a45050565b80546001019055565b60006031547f00000000000000000000000000000000000000000000000000000000000000006001600160a01b03166370a08231306040518263ffffffff1660e01b815260040180826001600160a01b03166001600160a01b0316815260200191505060206040518083038186803b158015612d9757600080fd5b505afa158015612dab573d6000803e3d6000fd5b505050506040513d6020811015612dc157600080fd5b50511015612e005760405162461bcd60e51b815260040180806020018281038252602b81526020018061401d602b913960400191505060405180910390fd5b612e0f603054603154846133f8565b600081815260356020908152604091829020869055815183815291519293507fe5f5b44d72d4143c278eb745c4acc0695c4a5bc616be5beecf46abe29661780e92918290030190a192915050565b612e6561138e565b15612eb7576040805162461bcd60e51b815260206004820152601060248201527f5061757361626c653a2070617573656400000000000000000000000000000000604482015290519081900360640190fd5b600b805460ff191660011790557f62e78cea01bee320cd4e420270b5ea74000d11b0c9f74754ebdbfc544b05a258612aac6126aa565b6000611163836001600160a01b0384166135ba565b600082815260356020908152604080832054808452600f909252909120612f33612f2e846127106130c8565b6135d2565b8051612f46918391602090910190613df1565b50612f4f61305a565b60018201556040805183815290517f1c3398af928f961cf9c1f49d3892d391f45dde3731266f32690ec2a94c3d3d509181900360200190a150505050565b600082820183811015611163576040805162461bcd60e51b815260206004820152601b60248201527f536166654d6174683a206164646974696f6e206f766572666c6f770000000000604482015290519081900360640190fd5b600082612ff657506000611166565b8282028284828161300357fe5b04146111635760405162461bcd60e51b81526004018080602001828103825260218152602001806141c16021913960400191505060405180910390fd5b6111378282604051806020016040528060008152506136be565b4290565b60008082116130b4576040805162461bcd60e51b815260206004820152601a60248201527f536166654d6174683a206469766973696f6e206279207a65726f000000000000604482015290519081900360640190fd5b60008284816130bf57fe5b04949350505050565b60008161311c576040805162461bcd60e51b815260206004820152601860248201527f536166654d6174683a206d6f64756c6f206279207a65726f0000000000000000604482015290519081900360640190fd5b81838161312557fe5b069392505050565b6131388484846127d8565b61314484848484613710565b611fe15760405162461bcd60e51b8152600401808060200182810382526032815260200180613f636032913960400191505060405180910390fd5b600061116383836135ba565b6001600160a01b03821615806131a557506131a58161148d565b6131e05760405162461bcd60e51b81526004018080602001828103825260278152602001806142886027913960400191505060405180910390fd5b610fa38383836138d2565b600061116383836138dd565b600061116383836139a3565b6000612bcb84846001600160a01b0385166139ed565b6000611163836001600160a01b0384166139a3565b815460009082106132705760405162461bcd60e51b8152600401808060200182810382526022815260200180613ee76022913960400191505060405180910390fd5b82600001828154811061327f57fe5b9060005260206000200154905092915050565b6000611163836001600160a01b0384166138dd565b60006111638383613a84565b8154600090819083106132f75760405162461bcd60e51b815260040180806020018281038252602281526020018061419f6022913960400191505060405180910390fd5b600084600001848154811061330857fe5b906000526020600020906002020190508060000154816001015492509250509250929050565b600082815260018401602052604081205482816133c95760405162461bcd60e51b81526004018080602001828103825283818151815260200191508051906020019080838360005b8381101561338e578181015183820152602001613376565b50505050905090810190601f1680156133bb5780820380516001836020036101000a031916815260200191505b509250505060405180910390fd5b508460000160018203815481106133dc57fe5b9060005260206000209060020201600101549150509392505050565b60007f00000000000000000000000000000000000000000000000000000000000000006001600160a01b0316634000aea07f000000000000000000000000000000000000000000000000000000000000000085878660405160200180838152602001828152602001925050506040516020818303038152906040526040518463ffffffff1660e01b815260040180846001600160a01b03166001600160a01b0316815260200183815260200180602001828103825283818151815260200191508051906020019080838360005b838110156134dd5781810151838201526020016134c5565b50505050905090810190601f16801561350a5780820380516001836020036101000a031916815260200191505b50945050505050602060405180830381600087803b15801561352b57600080fd5b505af115801561353f573d6000803e3d6000fd5b505050506040513d602081101561355557600080fd5b50506000848152600e602052604081205461357590869085903090613b58565b6000868152600e602052604090205490915061359890600163ffffffff612f8d16565b6000868152600e60205260409020556135b18582613b9f565b95945050505050565b60009081526001919091016020526040902054151590565b606060005b600a8110156136b857601081600a81106135ed57fe5b601091828204019190066002029054906101000a900461ffff1661ffff1683116136b057601181600a811061361e57fe5b01805460408051602060026001851615610100026000190190941693909304601f810184900484028201840190925281815292918301828280156136a35780601f10613678576101008083540402835291602001916136a3565b820191906000526020600020905b81548152906001019060200180831161368657829003601f168201915b5050505050915050610dcf565b6001016135d7565b50919050565b6136c88383612bd9565b6136d56000848484613710565b610fa35760405162461bcd60e51b8152600401808060200182810382526032815260200180613f636032913960400191505060405180910390fd5b6000613724846001600160a01b0316613bcb565b613730575060016127c5565b6060613880630a85bd0160e11b6137456126aa565b88878760405160240180856001600160a01b03166001600160a01b03168152602001846001600160a01b03166001600160a01b0316815260200183815260200180602001828103825283818151815260200191508051906020019080838360005b838110156137be5781810151838201526020016137a6565b50505050905090810190601f1680156137eb5780820380516001836020036101000a031916815260200191505b5095505050505050604051602081830303815290604052907bffffffffffffffffffffffffffffffffffffffffffffffffffffffff19166020820180517bffffffffffffffffffffffffffffffffffffffffffffffffffffffff8381831617835250505050604051806060016040528060328152602001613f63603291396001600160a01b038816919063ffffffff613bd116565b9050600081806020019051602081101561389957600080fd5b50517fffffffff0000000000000000000000000000000000000000000000000000000016630a85bd0160e11b1492505050949350505050565b610fa3838383613be0565b60008181526001830160205260408120548015613999578354600019808301919081019060009087908390811061391057fe5b906000526020600020015490508087600001848154811061392d57fe5b60009182526020808320909101929092558281526001898101909252604090209084019055865487908061395d57fe5b60019003818190600052602060002001600090559055866001016000878152602001908152602001600020600090556001945050505050611166565b6000915050611166565b60006139af83836135ba565b6139e557508154600181810184556000848152602080822090930184905584548482528286019093526040902091909155611166565b506000611166565b600082815260018401602052604081205480613a52575050604080518082018252838152602080820184815286546001818101895560008981528481209551600290930290950191825591519082015586548684528188019092529290912055612bce565b82856000016001830381548110613a6557fe5b9060005260206000209060020201600101819055506000915050612bce565b600081815260018301602052604081205480156139995783546000198083019190810190600090879083908110613ab757fe5b9060005260206000209060020201905080876000018481548110613ad757fe5b600091825260208083208454600290930201918255600193840154918401919091558354825289830190526040902090840190558654879080613b1657fe5b60008281526020808220600260001990940193840201828155600190810183905592909355888152898201909252604082209190915594506111669350505050565b60408051602080820196909652808201949094526001600160a01b039290921660608401526080808401919091528151808403909101815260a09092019052805191012090565b604080516020808201949094528082019290925280518083038201815260609092019052805191012090565b3b151590565b6060612bcb8484600085613c2f565b613beb838383610fa3565b613bf361138e565b15610fa35760405162461bcd60e51b815260040180806020018281038252602b815260200180613f09602b913960400191505060405180910390fd5b606082471015613c705760405162461bcd60e51b81526004018080602001828103825260268152602001806140486026913960400191505060405180910390fd5b613c7985613bcb565b613cca576040805162461bcd60e51b815260206004820152601d60248201527f416464726573733a2063616c6c20746f206e6f6e2d636f6e7472616374000000604482015290519081900360640190fd5b60006060866001600160a01b031685876040518082805190602001908083835b60208310613d095780518252601f199092019160209182019101613cea565b6001836020036101000a03801982511681845116808217855250505050505090500191505060006040518083038185875af1925050503d8060008114613d6b576040519150601f19603f3d011682016040523d82523d6000602084013e613d70565b606091505b5091509150613d80828286613d8b565b979650505050505050565b60608315613d9a575081612bce565b825115613daa5782518084602001fd5b60405162461bcd60e51b815260206004820181815284516024840152845185939192839260440191908501908083836000831561338e578181015183820152602001613376565b828054600181600116156101000203166002900490600052602060002090601f016020900481019282601f10613e3257805160ff1916838001178555613e5f565b82800160010185558215613e5f579182015b82811115613e5f578251825591602001919060010190613e44565b50611bf7929150613ecc565b60405180606001604052806060815260200160008152602001600081525090565b50805460018160011615610100020316600290046000825580601f10613eb25750611360565b601f01602090049060005260206000209081019061136091905b610e6891905b80821115611bf75760008155600101613ed256fe456e756d657261626c655365743a20696e646578206f7574206f6620626f756e64734552433732315061757361626c653a20746f6b656e207472616e73666572207768696c6520706175736564416363657373436f6e74726f6c3a2073656e646572206d75737420626520616e2061646d696e20746f206772616e744552433732313a207472616e7366657220746f206e6f6e20455243373231526563656976657220696d706c656d656e7465724f776e61626c653a206e6577206f776e657220697320746865207a65726f20616464726573734552433732315072657365744d696e7465725061757365724175746f49643a206d75737420686176652070617573657220726f6c6520746f2070617573654552433732313a207472616e7366657220746f20746865207a65726f20616464726573734e6f7420656e6f756768204c494e4b202d2066696c6c20636f6e7472616374207769746820666175636574416464726573733a20696e73756666696369656e742062616c616e636520666f722063616c6c4f6e6c7920746865204f776e65722063616e20776174657220612043727970744f72636869642e4552433732313a206f70657261746f7220717565727920666f72206e6f6e6578697374656e7420746f6b656e416363657373436f6e74726f6c3a2073656e646572206d75737420626520616e2061646d696e20746f207265766f6b654552433732313a20617070726f76652063616c6c6572206973206e6f74206f776e6572206e6f7220617070726f76656420666f7220616c6c4552433732313a2062616c616e636520717565727920666f7220746865207a65726f20616464726573734552433732313a206f776e657220717565727920666f72206e6f6e6578697374656e7420746f6b656e45746865722076616c75652073656e742069732062656c6f7720746865207072696365456e756d657261626c654d61703a20696e646578206f7574206f6620626f756e6473536166654d6174683a206d756c7469706c69636174696f6e206f766572666c6f774552433732313a20617070726f76656420717565727920666f72206e6f6e6578697374656e7420746f6b656e4552433732313a207472616e73666572206f6620746f6b656e2074686174206973206e6f74206f776e596f752063616e20706c616e74206d696e696d756d20312c206d6178696d756d2032302043727970744f7263686964734552433732313a20617070726f76616c20746f2063757272656e74206f776e6572446561642043727970744f7263686964732063616e6e6f74206265207472616e7366657272656470486d3679735671313534615a313731695530697a483638745f736a474d676c51767178594e44413468304552433732313a207472616e736665722063616c6c6572206973206e6f74206f776e6572206e6f7220617070726f7665644f6e6c7920746865204f776e65722063616e206765726d696e61746520612043727970744f72636869642e4f6e6c7920746865204f776e65722063616e20636f6d706f737420612043727970744f72636869642e4552433732315072657365744d696e7465725061757365724175746f49643a206d7573742068617665206d696e74657220726f6c6520746f206d696e744552433732314275726e61626c653a2063616c6c6572206973206e6f74206f776e6572206e6f7220617070726f7665644552433732315072657365744d696e7465725061757365724175746f49643a206d75737420686176652070617573657220726f6c6520746f20756e7061757365416363657373436f6e74726f6c3a2063616e206f6e6c792072656e6f756e636520726f6c657320666f722073656c66a2646970667358221220a1b1fbb77d2e4534b630804614e92c2e5167a5c9b3feaa898ddbf98e889aca7464736f6c634300060600334c5370344235543342304846585255365031715231624d6f366354434f434772474f5a526a35495736523063616d5f37705243467344737a71546a69685f746f6a36425f586c396f59334e64792d456763354945684932324a456e434c674e37715831642d3456655848526458506c383750327a78454e4a7851465943364a386b6f654761334f717070466d314f4f4e736c7a37787556616c413264344b435530764b716e4f5449795864774f5049524c49634f5264545475492d62576351665368637466446a5976326e437469747a5547696f4478674f51694b477751536d5a6c5a7863476363727475316f76366632466650536d44315a69634261557a4e43634e45633471574a774b536b6d4c67676c666939506d4c597841536c62706d44426134653953784a7857755549494c5161596b573369594477334f5953774c66625a46785f31346a644975336e55774d44594242747551596a3432744b5368384d344d4c697254314a6d636b446244507a656b4d58375676367170375939335441453632616244495366525638796a537a6b2d78436d38547359706a555a39317343775161425076417848386b70486950617734543750506e6b4f3479753278595737692d6974516b5971564c5a555553767a396c453077575546494a4f6e6767424d384a65586c4f4d5f694b564c714969706176665a686963317a634335476b4d77304668526b493451685963485f524f4b64796c5354476e7272754f7077566c465a525a3563424636696b5566315f6a513166564c6d524a2d4a4b4d67496533587174547a4a6c2d3772583169675963516a4668705641767864416443647769322d466e3235555052717a51506166532d67344831357753655f3754627757327334357142463249423873437a6d70344d4e6e32474732344f54667265485778346f6f5649364f59557176426b63775a4237464f67574b30353273487247652d7645395a377431646d4b653344535379445074424d59306367594a63487868326c36376d3178667569626246387a7a5a324a343364704f6d5430667456575374766e734e4f396831475f56354d376a7268593458313843704a69347374444a6a3468515476323371714864536a384b425474523630674c5a4d767035445444695676303876656344393662685f5633572d386b6f3351565167",
  "devdoc": {
    "methods": {
      "approve(address,uint256)": {
        "details": "See {IERC721-approve}."
      },
      "balanceOf(address)": {
        "details": "See {IERC721-balanceOf}."
      },
      "baseURI()": {
        "details": "Returns the base URI set via {_setBaseURI}. This will be automatically added as a prefix in {tokenURI} to each token's URI, or to the token ID if no specific URI is set for that token ID."
      },
      "burn(uint256)": {
        "details": "Burns `tokenId`. See {ERC721-_burn}.     * Requirements:     * - The caller must own `tokenId` or be an approved operator."
      },
      "getApproved(uint256)": {
        "details": "See {IERC721-getApproved}."
      },
      "getRoleAdmin(bytes32)": {
        "details": "Returns the admin role that controls `role`. See {grantRole} and {revokeRole}.     * To change a role's admin, use {_setRoleAdmin}."
      },
      "getRoleMember(bytes32,uint256)": {
        "details": "Returns one of the accounts that have `role`. `index` must be a value between 0 and {getRoleMemberCount}, non-inclusive.     * Role bearers are not sorted in any particular way, and their ordering may change at any point.     * WARNING: When using {getRoleMember} and {getRoleMemberCount}, make sure you perform all queries on the same block. See the following https://forum.openzeppelin.com/t/iterating-over-elements-on-enumerableset-in-openzeppelin-contracts/2296[forum post] for more information."
      },
      "getRoleMemberCount(bytes32)": {
        "details": "Returns the number of accounts that have `role`. Can be used together with {getRoleMember} to enumerate all bearers of a role."
      },
      "grantRole(bytes32,address)": {
        "details": "Grants `role` to `account`.     * If `account` had not been already granted `role`, emits a {RoleGranted} event.     * Requirements:     * - the caller must have ``role``'s admin role."
      },
      "hasRole(bytes32,address)": {
        "details": "Returns `true` if `account` has been granted `role`."
      },
      "isApprovedForAll(address,address)": {
        "details": "See {IERC721-isApprovedForAll}."
      },
      "mint(address)": {
        "details": "Creates a new token for `to`. Its token ID will be automatically assigned (and available on the emitted {IERC721-Transfer} event), and the token URI autogenerated based on the base URI passed at construction.     * See {ERC721-_mint}.     * Requirements:     * - the caller must have the `MINTER_ROLE`."
      },
      "name()": {
        "details": "See {IERC721Metadata-name}."
      },
      "owner()": {
        "details": "Returns the address of the current owner."
      },
      "ownerOf(uint256)": {
        "details": "See {IERC721-ownerOf}."
      },
      "pause()": {
        "details": "Pauses all token transfers.     * See {ERC721Pausable} and {Pausable-_pause}.     * Requirements:     * - the caller must have the `PAUSER_ROLE`."
      },
      "paused()": {
        "details": "Returns true if the contract is paused, and false otherwise."
      },
      "renounceOwnership()": {
        "details": "Leaves the contract without owner. It will not be possible to call `onlyOwner` functions anymore. Can only be called by the current owner.     * NOTE: Renouncing ownership will leave the contract without an owner, thereby removing any functionality that is only available to the owner."
      },
      "renounceRole(bytes32,address)": {
        "details": "Revokes `role` from the calling account.     * Roles are often managed via {grantRole} and {revokeRole}: this function's purpose is to provide a mechanism for accounts to lose their privileges if they are compromised (such as when a trusted device is misplaced).     * If the calling account had been granted `role`, emits a {RoleRevoked} event.     * Requirements:     * - the caller must be `account`."
      },
      "revokeRole(bytes32,address)": {
        "details": "Revokes `role` from `account`.     * If `account` had been granted `role`, emits a {RoleRevoked} event.     * Requirements:     * - the caller must have ``role``'s admin role."
      },
      "safeTransferFrom(address,address,uint256)": {
        "details": "See {IERC721-safeTransferFrom}."
      },
      "safeTransferFrom(address,address,uint256,bytes)": {
        "details": "See {IERC721-safeTransferFrom}."
      },
      "setApprovalForAll(address,bool)": {
        "details": "See {IERC721-setApprovalForAll}."
      },
      "supportsInterface(bytes4)": {
        "details": "See {IERC165-supportsInterface}.     * Time complexity O(1), guaranteed to always use less than 30 000 gas."
      },
      "symbol()": {
        "details": "See {IERC721Metadata-symbol}."
      },
      "tokenByIndex(uint256)": {
        "details": "See {IERC721Enumerable-tokenByIndex}."
      },
      "tokenOfOwnerByIndex(address,uint256)": {
        "details": "See {IERC721Enumerable-tokenOfOwnerByIndex}."
      },
      "totalSupply()": {
        "details": "See {IERC721Enumerable-totalSupply}."
      },
      "transferFrom(address,address,uint256)": {
        "details": "See {IERC721-transferFrom}."
      },
      "transferOwnership(address)": {
        "details": "Transfers ownership of the contract to a new account (`newOwner`). Can only be called by the current owner."
      },
      "unpause()": {
        "details": "Unpauses all token transfers.     * See {ERC721Pausable} and {Pausable-_unpause}.     * Requirements:     * - the caller must have the `PAUSER_ROLE`."
      },
      "withdraw()": {
        "details": "Withdraw ether from this contract (Callable by owner only)"
      }
    }
  },
  "userdoc": {
    "methods": {}
  },
  "storageLayout": {
    "storage": [
      {
        "astId": 546,
        "contract": "contracts/CryptOrchidERC721/CryptOrchidERC721.sol:CryptOrchidERC721",
        "label": "_roles",
        "offset": 0,
        "slot": "0",
        "type": "t_mapping(t_bytes32,t_struct(RoleData)542_storage)"
      },
      {
        "astId": 929,
        "contract": "contracts/CryptOrchidERC721/CryptOrchidERC721.sol:CryptOrchidERC721",
        "label": "_supportedInterfaces",
        "offset": 0,
        "slot": "1",
        "type": "t_mapping(t_bytes4,t_bool)"
      },
      {
        "astId": 2119,
        "contract": "contracts/CryptOrchidERC721/CryptOrchidERC721.sol:CryptOrchidERC721",
        "label": "_holderTokens",
        "offset": 0,
        "slot": "2",
        "type": "t_mapping(t_address,t_struct(UintSet)4602_storage)"
      },
      {
        "astId": 2121,
        "contract": "contracts/CryptOrchidERC721/CryptOrchidERC721.sol:CryptOrchidERC721",
        "label": "_tokenOwners",
        "offset": 0,
        "slot": "3",
        "type": "t_struct(UintToAddressMap)3979_storage"
      },
      {
        "astId": 2125,
        "contract": "contracts/CryptOrchidERC721/CryptOrchidERC721.sol:CryptOrchidERC721",
        "label": "_tokenApprovals",
        "offset": 0,
        "slot": "5",
        "type": "t_mapping(t_uint256,t_address)"
      },
      {
        "astId": 2131,
        "contract": "contracts/CryptOrchidERC721/CryptOrchidERC721.sol:CryptOrchidERC721",
        "label": "_operatorApprovals",
        "offset": 0,
        "slot": "6",
        "type": "t_mapping(t_address,t_mapping(t_address,t_bool))"
      },
      {
        "astId": 2133,
        "contract": "contracts/CryptOrchidERC721/CryptOrchidERC721.sol:CryptOrchidERC721",
        "label": "_name",
        "offset": 0,
        "slot": "7",
        "type": "t_string_storage"
      },
      {
        "astId": 2135,
        "contract": "contracts/CryptOrchidERC721/CryptOrchidERC721.sol:CryptOrchidERC721",
        "label": "_symbol",
        "offset": 0,
        "slot": "8",
        "type": "t_string_storage"
      },
      {
        "astId": 2139,
        "contract": "contracts/CryptOrchidERC721/CryptOrchidERC721.sol:CryptOrchidERC721",
        "label": "_tokenURIs",
        "offset": 0,
        "slot": "9",
        "type": "t_mapping(t_uint256,t_string_storage)"
      },
      {
        "astId": 2141,
        "contract": "contracts/CryptOrchidERC721/CryptOrchidERC721.sol:CryptOrchidERC721",
        "label": "_baseURI",
        "offset": 0,
        "slot": "10",
        "type": "t_string_storage"
      },
      {
        "astId": 4715,
        "contract": "contracts/CryptOrchidERC721/CryptOrchidERC721.sol:CryptOrchidERC721",
        "label": "_paused",
        "offset": 0,
        "slot": "11",
        "type": "t_bool"
      },
      {
        "astId": 1371,
        "contract": "contracts/CryptOrchidERC721/CryptOrchidERC721.sol:CryptOrchidERC721",
        "label": "_tokenIdTracker",
        "offset": 0,
        "slot": "12",
        "type": "t_struct(Counter)3605_storage"
      },
      {
        "astId": 814,
        "contract": "contracts/CryptOrchidERC721/CryptOrchidERC721.sol:CryptOrchidERC721",
        "label": "_owner",
        "offset": 0,
        "slot": "13",
        "type": "t_address"
      },
      {
        "astId": 81,
        "contract": "contracts/CryptOrchidERC721/CryptOrchidERC721.sol:CryptOrchidERC721",
        "label": "nonces",
        "offset": 0,
        "slot": "14",
        "type": "t_mapping(t_bytes32,t_uint256)"
      },
      {
        "astId": 4912,
        "contract": "contracts/CryptOrchidERC721/CryptOrchidERC721.sol:CryptOrchidERC721",
        "label": "cryptorchids",
        "offset": 0,
        "slot": "15",
        "type": "t_mapping(t_uint256,t_struct(CryptOrchid)4908_storage)"
      },
      {
        "astId": 4951,
        "contract": "contracts/CryptOrchidERC721/CryptOrchidERC721.sol:CryptOrchidERC721",
        "label": "limits",
        "offset": 0,
        "slot": "16",
        "type": "t_array(t_uint16)10_storage"
      },
      {
        "astId": 4966,
        "contract": "contracts/CryptOrchidERC721/CryptOrchidERC721.sol:CryptOrchidERC721",
        "label": "genum",
        "offset": 0,
        "slot": "17",
        "type": "t_array(t_string_storage)10_storage"
      },
      {
        "astId": 4981,
        "contract": "contracts/CryptOrchidERC721/CryptOrchidERC721.sol:CryptOrchidERC721",
        "label": "speciesArweaveConstant",
        "offset": 0,
        "slot": "27",
        "type": "t_array(t_string_storage)10_storage"
      },
      {
        "astId": 4996,
        "contract": "contracts/CryptOrchidERC721/CryptOrchidERC721.sol:CryptOrchidERC721",
        "label": "deadSpeciesArweaveConstant",
        "offset": 0,
        "slot": "37",
        "type": "t_array(t_string_storage)10_storage"
      },
      {
        "astId": 4998,
        "contract": "contracts/CryptOrchidERC721/CryptOrchidERC721.sol:CryptOrchidERC721",
        "label": "_tokenIds",
        "offset": 0,
        "slot": "47",
        "type": "t_struct(Counter)3605_storage"
      },
      {
        "astId": 5000,
        "contract": "contracts/CryptOrchidERC721/CryptOrchidERC721.sol:CryptOrchidERC721",
        "label": "keyHash",
        "offset": 0,
        "slot": "48",
        "type": "t_bytes32"
      },
      {
        "astId": 5002,
        "contract": "contracts/CryptOrchidERC721/CryptOrchidERC721.sol:CryptOrchidERC721",
        "label": "vrfFee",
        "offset": 0,
        "slot": "49",
        "type": "t_uint256"
      },
      {
        "astId": 5004,
        "contract": "contracts/CryptOrchidERC721/CryptOrchidERC721.sol:CryptOrchidERC721",
        "label": "randomResult",
        "offset": 0,
        "slot": "50",
        "type": "t_uint256"
      },
      {
        "astId": 5006,
        "contract": "contracts/CryptOrchidERC721/CryptOrchidERC721.sol:CryptOrchidERC721",
        "label": "VRFCoordinator",
        "offset": 0,
        "slot": "51",
        "type": "t_address"
      },
      {
        "astId": 5008,
        "contract": "contracts/CryptOrchidERC721/CryptOrchidERC721.sol:CryptOrchidERC721",
        "label": "LinkToken",
        "offset": 0,
        "slot": "52",
        "type": "t_address"
      },
      {
        "astId": 5030,
        "contract": "contracts/CryptOrchidERC721/CryptOrchidERC721.sol:CryptOrchidERC721",
        "label": "requestToToken",
        "offset": 0,
        "slot": "53",
        "type": "t_mapping(t_bytes32,t_uint256)"
      },
      {
        "astId": 5034,
        "contract": "contracts/CryptOrchidERC721/CryptOrchidERC721.sol:CryptOrchidERC721",
        "label": "speciesArweave",
        "offset": 0,
        "slot": "54",
        "type": "t_mapping(t_bytes32,t_string_storage)"
      },
      {
        "astId": 5038,
        "contract": "contracts/CryptOrchidERC721/CryptOrchidERC721.sol:CryptOrchidERC721",
        "label": "deadSpeciesArweave",
        "offset": 0,
        "slot": "55",
        "type": "t_mapping(t_bytes32,t_string_storage)"
      }
    ],
    "types": {
      "t_address": {
        "encoding": "inplace",
        "label": "address",
        "numberOfBytes": "20"
      },
      "t_array(t_bytes32)dyn_storage": {
        "base": "t_bytes32",
        "encoding": "dynamic_array",
        "label": "bytes32[]",
        "numberOfBytes": "32"
      },
      "t_array(t_string_storage)10_storage": {
        "base": "t_string_storage",
        "encoding": "inplace",
        "label": "string[10]",
        "numberOfBytes": "320"
      },
      "t_array(t_struct(MapEntry)3653_storage)dyn_storage": {
        "base": "t_struct(MapEntry)3653_storage",
        "encoding": "dynamic_array",
        "label": "struct EnumerableMap.MapEntry[]",
        "numberOfBytes": "32"
      },
      "t_array(t_uint16)10_storage": {
        "base": "t_uint16",
        "encoding": "inplace",
        "label": "uint16[10]",
        "numberOfBytes": "32"
      },
      "t_bool": {
        "encoding": "inplace",
        "label": "bool",
        "numberOfBytes": "1"
      },
      "t_bytes32": {
        "encoding": "inplace",
        "label": "bytes32",
        "numberOfBytes": "32"
      },
      "t_bytes4": {
        "encoding": "inplace",
        "label": "bytes4",
        "numberOfBytes": "4"
      },
      "t_mapping(t_address,t_bool)": {
        "encoding": "mapping",
        "key": "t_address",
        "label": "mapping(address => bool)",
        "numberOfBytes": "32",
        "value": "t_bool"
      },
      "t_mapping(t_address,t_mapping(t_address,t_bool))": {
        "encoding": "mapping",
        "key": "t_address",
        "label": "mapping(address => mapping(address => bool))",
        "numberOfBytes": "32",
        "value": "t_mapping(t_address,t_bool)"
      },
      "t_mapping(t_address,t_struct(UintSet)4602_storage)": {
        "encoding": "mapping",
        "key": "t_address",
        "label": "mapping(address => struct EnumerableSet.UintSet)",
        "numberOfBytes": "32",
        "value": "t_struct(UintSet)4602_storage"
      },
      "t_mapping(t_bytes32,t_string_storage)": {
        "encoding": "mapping",
        "key": "t_bytes32",
        "label": "mapping(bytes32 => string)",
        "numberOfBytes": "32",
        "value": "t_string_storage"
      },
      "t_mapping(t_bytes32,t_struct(RoleData)542_storage)": {
        "encoding": "mapping",
        "key": "t_bytes32",
        "label": "mapping(bytes32 => struct AccessControl.RoleData)",
        "numberOfBytes": "32",
        "value": "t_struct(RoleData)542_storage"
      },
      "t_mapping(t_bytes32,t_uint256)": {
        "encoding": "mapping",
        "key": "t_bytes32",
        "label": "mapping(bytes32 => uint256)",
        "numberOfBytes": "32",
        "value": "t_uint256"
      },
      "t_mapping(t_bytes4,t_bool)": {
        "encoding": "mapping",
        "key": "t_bytes4",
        "label": "mapping(bytes4 => bool)",
        "numberOfBytes": "32",
        "value": "t_bool"
      },
      "t_mapping(t_uint256,t_address)": {
        "encoding": "mapping",
        "key": "t_uint256",
        "label": "mapping(uint256 => address)",
        "numberOfBytes": "32",
        "value": "t_address"
      },
      "t_mapping(t_uint256,t_string_storage)": {
        "encoding": "mapping",
        "key": "t_uint256",
        "label": "mapping(uint256 => string)",
        "numberOfBytes": "32",
        "value": "t_string_storage"
      },
      "t_mapping(t_uint256,t_struct(CryptOrchid)4908_storage)": {
        "encoding": "mapping",
        "key": "t_uint256",
        "label": "mapping(uint256 => struct CryptOrchidERC721.CryptOrchid)",
        "numberOfBytes": "32",
        "value": "t_struct(CryptOrchid)4908_storage"
      },
      "t_string_storage": {
        "encoding": "bytes",
        "label": "string",
        "numberOfBytes": "32"
      },
      "t_struct(AddressSet)4481_storage": {
        "encoding": "inplace",
        "label": "struct EnumerableSet.AddressSet",
        "members": [
          {
            "astId": 4480,
            "contract": "contracts/CryptOrchidERC721/CryptOrchidERC721.sol:CryptOrchidERC721",
            "label": "_inner",
            "offset": 0,
            "slot": "0",
            "type": "t_struct(Set)4216_storage"
          }
        ],
        "numberOfBytes": "64"
      },
      "t_struct(Counter)3605_storage": {
        "encoding": "inplace",
        "label": "struct Counters.Counter",
        "members": [
          {
            "astId": 3604,
            "contract": "contracts/CryptOrchidERC721/CryptOrchidERC721.sol:CryptOrchidERC721",
            "label": "_value",
            "offset": 0,
            "slot": "0",
            "type": "t_uint256"
          }
        ],
        "numberOfBytes": "32"
      },
      "t_struct(CryptOrchid)4908_storage": {
        "encoding": "inplace",
        "label": "struct CryptOrchidERC721.CryptOrchid",
        "members": [
          {
            "astId": 4903,
            "contract": "contracts/CryptOrchidERC721/CryptOrchidERC721.sol:CryptOrchidERC721",
            "label": "species",
            "offset": 0,
            "slot": "0",
            "type": "t_string_storage"
          },
          {
            "astId": 4905,
            "contract": "contracts/CryptOrchidERC721/CryptOrchidERC721.sol:CryptOrchidERC721",
            "label": "plantedAt",
            "offset": 0,
            "slot": "1",
            "type": "t_uint256"
          },
          {
            "astId": 4907,
            "contract": "contracts/CryptOrchidERC721/CryptOrchidERC721.sol:CryptOrchidERC721",
            "label": "waterLevel",
            "offset": 0,
            "slot": "2",
            "type": "t_uint256"
          }
        ],
        "numberOfBytes": "96"
      },
      "t_struct(Map)3661_storage": {
        "encoding": "inplace",
        "label": "struct EnumerableMap.Map",
        "members": [
          {
            "astId": 3656,
            "contract": "contracts/CryptOrchidERC721/CryptOrchidERC721.sol:CryptOrchidERC721",
            "label": "_entries",
            "offset": 0,
            "slot": "0",
            "type": "t_array(t_struct(MapEntry)3653_storage)dyn_storage"
          },
          {
            "astId": 3660,
            "contract": "contracts/CryptOrchidERC721/CryptOrchidERC721.sol:CryptOrchidERC721",
            "label": "_indexes",
            "offset": 0,
            "slot": "1",
            "type": "t_mapping(t_bytes32,t_uint256)"
          }
        ],
        "numberOfBytes": "64"
      },
      "t_struct(MapEntry)3653_storage": {
        "encoding": "inplace",
        "label": "struct EnumerableMap.MapEntry",
        "members": [
          {
            "astId": 3650,
            "contract": "contracts/CryptOrchidERC721/CryptOrchidERC721.sol:CryptOrchidERC721",
            "label": "_key",
            "offset": 0,
            "slot": "0",
            "type": "t_bytes32"
          },
          {
            "astId": 3652,
            "contract": "contracts/CryptOrchidERC721/CryptOrchidERC721.sol:CryptOrchidERC721",
            "label": "_value",
            "offset": 0,
            "slot": "1",
            "type": "t_bytes32"
          }
        ],
        "numberOfBytes": "64"
      },
      "t_struct(RoleData)542_storage": {
        "encoding": "inplace",
        "label": "struct AccessControl.RoleData",
        "members": [
          {
            "astId": 539,
            "contract": "contracts/CryptOrchidERC721/CryptOrchidERC721.sol:CryptOrchidERC721",
            "label": "members",
            "offset": 0,
            "slot": "0",
            "type": "t_struct(AddressSet)4481_storage"
          },
          {
            "astId": 541,
            "contract": "contracts/CryptOrchidERC721/CryptOrchidERC721.sol:CryptOrchidERC721",
            "label": "adminRole",
            "offset": 0,
            "slot": "2",
            "type": "t_bytes32"
          }
        ],
        "numberOfBytes": "96"
      },
      "t_struct(Set)4216_storage": {
        "encoding": "inplace",
        "label": "struct EnumerableSet.Set",
        "members": [
          {
            "astId": 4211,
            "contract": "contracts/CryptOrchidERC721/CryptOrchidERC721.sol:CryptOrchidERC721",
            "label": "_values",
            "offset": 0,
            "slot": "0",
            "type": "t_array(t_bytes32)dyn_storage"
          },
          {
            "astId": 4215,
            "contract": "contracts/CryptOrchidERC721/CryptOrchidERC721.sol:CryptOrchidERC721",
            "label": "_indexes",
            "offset": 0,
            "slot": "1",
            "type": "t_mapping(t_bytes32,t_uint256)"
          }
        ],
        "numberOfBytes": "64"
      },
      "t_struct(UintSet)4602_storage": {
        "encoding": "inplace",
        "label": "struct EnumerableSet.UintSet",
        "members": [
          {
            "astId": 4601,
            "contract": "contracts/CryptOrchidERC721/CryptOrchidERC721.sol:CryptOrchidERC721",
            "label": "_inner",
            "offset": 0,
            "slot": "0",
            "type": "t_struct(Set)4216_storage"
          }
        ],
        "numberOfBytes": "64"
      },
      "t_struct(UintToAddressMap)3979_storage": {
        "encoding": "inplace",
        "label": "struct EnumerableMap.UintToAddressMap",
        "members": [
          {
            "astId": 3978,
            "contract": "contracts/CryptOrchidERC721/CryptOrchidERC721.sol:CryptOrchidERC721",
            "label": "_inner",
            "offset": 0,
            "slot": "0",
            "type": "t_struct(Map)3661_storage"
          }
        ],
        "numberOfBytes": "64"
      },
      "t_uint16": {
        "encoding": "inplace",
        "label": "uint16",
        "numberOfBytes": "2"
      },
      "t_uint256": {
        "encoding": "inplace",
        "label": "uint256",
        "numberOfBytes": "32"
      }
    }
  }
}