{
  "address": "0x2548F71223c9410CbA781Bd66d2BEE3746432F3f",
  "abi": [
    {
      "inputs": [
        {
          "internalType": "address",
          "name": "_VRFCoordinator",
          "type": "address"
        },
        {
          "internalType": "address",
          "name": "_LinkToken",
          "type": "address"
        },
        {
          "internalType": "bytes32",
          "name": "_keyhash",
          "type": "bytes32"
        }
      ],
      "stateMutability": "payable",
      "type": "constructor"
    },
    {
      "anonymous": false,
      "inputs": [
        {
          "indexed": true,
          "internalType": "address",
          "name": "owner",
          "type": "address"
        },
        {
          "indexed": true,
          "internalType": "address",
          "name": "approved",
          "type": "address"
        },
        {
          "indexed": true,
          "internalType": "uint256",
          "name": "tokenId",
          "type": "uint256"
        }
      ],
      "name": "Approval",
      "type": "event"
    },
    {
      "anonymous": false,
      "inputs": [
        {
          "indexed": true,
          "internalType": "address",
          "name": "owner",
          "type": "address"
        },
        {
          "indexed": true,
          "internalType": "address",
          "name": "operator",
          "type": "address"
        },
        {
          "indexed": false,
          "internalType": "bool",
          "name": "approved",
          "type": "bool"
        }
      ],
      "name": "ApprovalForAll",
      "type": "event"
    },
    {
      "anonymous": false,
      "inputs": [
        {
          "indexed": false,
          "internalType": "uint256",
          "name": "tokenId",
          "type": "uint256"
        }
      ],
      "name": "Composted",
      "type": "event"
    },
    {
      "anonymous": false,
      "inputs": [
        {
          "indexed": false,
          "internalType": "uint256",
          "name": "tokenId",
          "type": "uint256"
        }
      ],
      "name": "OverWatered",
      "type": "event"
    },
    {
      "anonymous": false,
      "inputs": [
        {
          "indexed": true,
          "internalType": "address",
          "name": "previousOwner",
          "type": "address"
        },
        {
          "indexed": true,
          "internalType": "address",
          "name": "newOwner",
          "type": "address"
        }
      ],
      "name": "OwnershipTransferred",
      "type": "event"
    },
    {
      "anonymous": false,
      "inputs": [
        {
          "indexed": false,
          "internalType": "address",
          "name": "account",
          "type": "address"
        }
      ],
      "name": "Paused",
      "type": "event"
    },
    {
      "anonymous": false,
      "inputs": [
        {
          "indexed": false,
          "internalType": "bytes32",
          "name": "requestId",
          "type": "bytes32"
        }
      ],
      "name": "RequestedRandomness",
      "type": "event"
    },
    {
      "anonymous": false,
      "inputs": [
        {
          "indexed": true,
          "internalType": "bytes32",
          "name": "role",
          "type": "bytes32"
        },
        {
          "indexed": true,
          "internalType": "bytes32",
          "name": "previousAdminRole",
          "type": "bytes32"
        },
        {
          "indexed": true,
          "internalType": "bytes32",
          "name": "newAdminRole",
          "type": "bytes32"
        }
      ],
      "name": "RoleAdminChanged",
      "type": "event"
    },
    {
      "anonymous": false,
      "inputs": [
        {
          "indexed": true,
          "internalType": "bytes32",
          "name": "role",
          "type": "bytes32"
        },
        {
          "indexed": true,
          "internalType": "address",
          "name": "account",
          "type": "address"
        },
        {
          "indexed": true,
          "internalType": "address",
          "name": "sender",
          "type": "address"
        }
      ],
      "name": "RoleGranted",
      "type": "event"
    },
    {
      "anonymous": false,
      "inputs": [
        {
          "indexed": true,
          "internalType": "bytes32",
          "name": "role",
          "type": "bytes32"
        },
        {
          "indexed": true,
          "internalType": "address",
          "name": "account",
          "type": "address"
        },
        {
          "indexed": true,
          "internalType": "address",
          "name": "sender",
          "type": "address"
        }
      ],
      "name": "RoleRevoked",
      "type": "event"
    },
    {
      "anonymous": false,
      "inputs": [
        {
          "indexed": true,
          "internalType": "address",
          "name": "from",
          "type": "address"
        },
        {
          "indexed": true,
          "internalType": "address",
          "name": "to",
          "type": "address"
        },
        {
          "indexed": true,
          "internalType": "uint256",
          "name": "tokenId",
          "type": "uint256"
        }
      ],
      "name": "Transfer",
      "type": "event"
    },
    {
      "anonymous": false,
      "inputs": [
        {
          "indexed": false,
          "internalType": "address",
          "name": "account",
          "type": "address"
        }
      ],
      "name": "Unpaused",
      "type": "event"
    },
    {
      "anonymous": false,
      "inputs": [
        {
          "indexed": false,
          "internalType": "uint256",
          "name": "tokenId",
          "type": "uint256"
        },
        {
          "indexed": false,
          "internalType": "uint256",
          "name": "waterLevel",
          "type": "uint256"
        }
      ],
      "name": "Watered",
      "type": "event"
    },
    {
      "inputs": [],
      "name": "DEFAULT_ADMIN_ROLE",
      "outputs": [
        {
          "internalType": "bytes32",
          "name": "",
          "type": "bytes32"
        }
      ],
      "stateMutability": "view",
      "type": "function"
    },
    {
      "inputs": [],
      "name": "GROWTH_CYCLE",
      "outputs": [
        {
          "internalType": "uint256",
          "name": "",
          "type": "uint256"
        }
      ],
      "stateMutability": "view",
      "type": "function"
    },
    {
      "inputs": [],
      "name": "LinkToken",
      "outputs": [
        {
          "internalType": "address",
          "name": "",
          "type": "address"
        }
      ],
      "stateMutability": "view",
      "type": "function"
    },
    {
      "inputs": [],
      "name": "MAX_CRYPTORCHIDS",
      "outputs": [
        {
          "internalType": "uint256",
          "name": "",
          "type": "uint256"
        }
      ],
      "stateMutability": "view",
      "type": "function"
    },
    {
      "inputs": [],
      "name": "MINTER_ROLE",
      "outputs": [
        {
          "internalType": "bytes32",
          "name": "",
          "type": "bytes32"
        }
      ],
      "stateMutability": "view",
      "type": "function"
    },
    {
      "inputs": [],
      "name": "PAUSER_ROLE",
      "outputs": [
        {
          "internalType": "bytes32",
          "name": "",
          "type": "bytes32"
        }
      ],
      "stateMutability": "view",
      "type": "function"
    },
    {
      "inputs": [],
      "name": "VRFCoordinator",
      "outputs": [
        {
          "internalType": "address",
          "name": "",
          "type": "address"
        }
      ],
      "stateMutability": "view",
      "type": "function"
    },
    {
      "inputs": [],
      "name": "WATERING_WINDOW",
      "outputs": [
        {
          "internalType": "uint256",
          "name": "",
          "type": "uint256"
        }
      ],
      "stateMutability": "view",
      "type": "function"
    },
    {
      "inputs": [
        {
          "internalType": "uint256",
          "name": "tokenId",
          "type": "uint256"
        }
      ],
      "name": "alive",
      "outputs": [
        {
          "internalType": "bool",
          "name": "",
          "type": "bool"
        }
      ],
      "stateMutability": "view",
      "type": "function"
    },
    {
      "inputs": [
        {
          "internalType": "address",
          "name": "to",
          "type": "address"
        },
        {
          "internalType": "uint256",
          "name": "tokenId",
          "type": "uint256"
        }
      ],
      "name": "approve",
      "outputs": [],
      "stateMutability": "nonpayable",
      "type": "function"
    },
    {
      "inputs": [
        {
          "internalType": "address",
          "name": "owner",
          "type": "address"
        }
      ],
      "name": "balanceOf",
      "outputs": [
        {
          "internalType": "uint256",
          "name": "",
          "type": "uint256"
        }
      ],
      "stateMutability": "view",
      "type": "function"
    },
    {
      "inputs": [],
      "name": "baseURI",
      "outputs": [
        {
          "internalType": "string",
          "name": "",
          "type": "string"
        }
      ],
      "stateMutability": "view",
      "type": "function"
    },
    {
      "inputs": [
        {
          "internalType": "uint256",
          "name": "tokenId",
          "type": "uint256"
        }
      ],
      "name": "burn",
      "outputs": [],
      "stateMutability": "nonpayable",
      "type": "function"
    },
    {
      "inputs": [
        {
          "internalType": "uint256",
          "name": "tokenId",
          "type": "uint256"
        }
      ],
      "name": "compost",
      "outputs": [],
      "stateMutability": "nonpayable",
      "type": "function"
    },
    {
      "inputs": [],
      "name": "creator",
      "outputs": [
        {
          "internalType": "address payable",
          "name": "",
          "type": "address"
        }
      ],
      "stateMutability": "view",
      "type": "function"
    },
    {
      "inputs": [
        {
          "internalType": "uint256",
          "name": "",
          "type": "uint256"
        }
      ],
      "name": "cryptorchids",
      "outputs": [
        {
          "internalType": "string",
          "name": "species",
          "type": "string"
        },
        {
          "internalType": "uint256",
          "name": "plantedAt",
          "type": "uint256"
        },
        {
          "internalType": "uint256",
          "name": "waterLevel",
          "type": "uint256"
        }
      ],
      "stateMutability": "view",
      "type": "function"
    },
    {
      "inputs": [],
      "name": "currentPrice",
      "outputs": [
        {
          "internalType": "uint256",
          "name": "price",
          "type": "uint256"
        }
      ],
      "stateMutability": "view",
      "type": "function"
    },
    {
      "inputs": [
        {
          "internalType": "uint256",
          "name": "tokenId",
          "type": "uint256"
        }
      ],
      "name": "flowering",
      "outputs": [
        {
          "internalType": "bool",
          "name": "",
          "type": "bool"
        }
      ],
      "stateMutability": "view",
      "type": "function"
    },
    {
      "inputs": [
        {
          "internalType": "uint256",
          "name": "tokenId",
          "type": "uint256"
        },
        {
          "internalType": "uint256",
          "name": "userProvidedSeed",
          "type": "uint256"
        }
      ],
      "name": "germinate",
      "outputs": [],
      "stateMutability": "nonpayable",
      "type": "function"
    },
    {
      "inputs": [
        {
          "internalType": "uint256",
          "name": "tokenId",
          "type": "uint256"
        }
      ],
      "name": "getApproved",
      "outputs": [
        {
          "internalType": "address",
          "name": "",
          "type": "address"
        }
      ],
      "stateMutability": "view",
      "type": "function"
    },
    {
      "inputs": [
        {
          "internalType": "bytes32",
          "name": "role",
          "type": "bytes32"
        }
      ],
      "name": "getRoleAdmin",
      "outputs": [
        {
          "internalType": "bytes32",
          "name": "",
          "type": "bytes32"
        }
      ],
      "stateMutability": "view",
      "type": "function"
    },
    {
      "inputs": [
        {
          "internalType": "bytes32",
          "name": "role",
          "type": "bytes32"
        },
        {
          "internalType": "uint256",
          "name": "index",
          "type": "uint256"
        }
      ],
      "name": "getRoleMember",
      "outputs": [
        {
          "internalType": "address",
          "name": "",
          "type": "address"
        }
      ],
      "stateMutability": "view",
      "type": "function"
    },
    {
      "inputs": [
        {
          "internalType": "bytes32",
          "name": "role",
          "type": "bytes32"
        }
      ],
      "name": "getRoleMemberCount",
      "outputs": [
        {
          "internalType": "uint256",
          "name": "",
          "type": "uint256"
        }
      ],
      "stateMutability": "view",
      "type": "function"
    },
    {
      "inputs": [
        {
          "internalType": "uint256",
          "name": "tokenId",
          "type": "uint256"
        }
      ],
      "name": "getTokenMetadata",
      "outputs": [
        {
          "internalType": "string",
          "name": "",
          "type": "string"
        },
        {
          "internalType": "uint256",
          "name": "",
          "type": "uint256"
        },
        {
          "internalType": "uint256",
          "name": "",
          "type": "uint256"
        }
      ],
      "stateMutability": "view",
      "type": "function"
    },
    {
      "inputs": [
        {
          "internalType": "bytes32",
          "name": "role",
          "type": "bytes32"
        },
        {
          "internalType": "address",
          "name": "account",
          "type": "address"
        }
      ],
      "name": "grantRole",
      "outputs": [],
      "stateMutability": "nonpayable",
      "type": "function"
    },
    {
      "inputs": [
        {
          "internalType": "uint256",
          "name": "tokenId",
          "type": "uint256"
        }
      ],
      "name": "growthStage",
      "outputs": [
        {
          "internalType": "enum CryptOrchidERC721.Stage",
          "name": "",
          "type": "uint8"
        }
      ],
      "stateMutability": "view",
      "type": "function"
    },
    {
      "inputs": [
        {
          "internalType": "bytes32",
          "name": "role",
          "type": "bytes32"
        },
        {
          "internalType": "address",
          "name": "account",
          "type": "address"
        }
      ],
      "name": "hasRole",
      "outputs": [
        {
          "internalType": "bool",
          "name": "",
          "type": "bool"
        }
      ],
      "stateMutability": "view",
      "type": "function"
    },
    {
      "inputs": [
        {
          "internalType": "address",
          "name": "owner",
          "type": "address"
        },
        {
          "internalType": "address",
          "name": "operator",
          "type": "address"
        }
      ],
      "name": "isApprovedForAll",
      "outputs": [
        {
          "internalType": "bool",
          "name": "",
          "type": "bool"
        }
      ],
      "stateMutability": "view",
      "type": "function"
    },
    {
      "inputs": [
        {
          "internalType": "address",
          "name": "to",
          "type": "address"
        }
      ],
      "name": "mint",
      "outputs": [],
      "stateMutability": "nonpayable",
      "type": "function"
    },
    {
      "inputs": [],
      "name": "name",
      "outputs": [
        {
          "internalType": "string",
          "name": "",
          "type": "string"
        }
      ],
      "stateMutability": "view",
      "type": "function"
    },
    {
      "inputs": [],
      "name": "owner",
      "outputs": [
        {
          "internalType": "address",
          "name": "",
          "type": "address"
        }
      ],
      "stateMutability": "view",
      "type": "function"
    },
    {
      "inputs": [
        {
          "internalType": "uint256",
          "name": "tokenId",
          "type": "uint256"
        }
      ],
      "name": "ownerOf",
      "outputs": [
        {
          "internalType": "address",
          "name": "",
          "type": "address"
        }
      ],
      "stateMutability": "view",
      "type": "function"
    },
    {
      "inputs": [],
      "name": "pause",
      "outputs": [],
      "stateMutability": "nonpayable",
      "type": "function"
    },
    {
      "inputs": [],
      "name": "paused",
      "outputs": [
        {
          "internalType": "bool",
          "name": "",
          "type": "bool"
        }
      ],
      "stateMutability": "view",
      "type": "function"
    },
    {
      "inputs": [],
      "name": "randomResult",
      "outputs": [
        {
          "internalType": "uint256",
          "name": "",
          "type": "uint256"
        }
      ],
      "stateMutability": "view",
      "type": "function"
    },
    {
      "inputs": [
        {
          "internalType": "bytes32",
          "name": "requestId",
          "type": "bytes32"
        },
        {
          "internalType": "uint256",
          "name": "randomness",
          "type": "uint256"
        }
      ],
      "name": "rawFulfillRandomness",
      "outputs": [],
      "stateMutability": "nonpayable",
      "type": "function"
    },
    {
      "inputs": [],
      "name": "renounceOwnership",
      "outputs": [],
      "stateMutability": "nonpayable",
      "type": "function"
    },
    {
      "inputs": [
        {
          "internalType": "bytes32",
          "name": "role",
          "type": "bytes32"
        },
        {
          "internalType": "address",
          "name": "account",
          "type": "address"
        }
      ],
      "name": "renounceRole",
      "outputs": [],
      "stateMutability": "nonpayable",
      "type": "function"
    },
    {
      "inputs": [
        {
          "internalType": "bytes32",
          "name": "",
          "type": "bytes32"
        }
      ],
      "name": "requestToToken",
      "outputs": [
        {
          "internalType": "uint256",
          "name": "",
          "type": "uint256"
        }
      ],
      "stateMutability": "view",
      "type": "function"
    },
    {
      "inputs": [
        {
          "internalType": "bytes32",
          "name": "role",
          "type": "bytes32"
        },
        {
          "internalType": "address",
          "name": "account",
          "type": "address"
        }
      ],
      "name": "revokeRole",
      "outputs": [],
      "stateMutability": "nonpayable",
      "type": "function"
    },
    {
      "inputs": [
        {
          "internalType": "address",
          "name": "from",
          "type": "address"
        },
        {
          "internalType": "address",
          "name": "to",
          "type": "address"
        },
        {
          "internalType": "uint256",
          "name": "tokenId",
          "type": "uint256"
        }
      ],
      "name": "safeTransferFrom",
      "outputs": [],
      "stateMutability": "nonpayable",
      "type": "function"
    },
    {
      "inputs": [
        {
          "internalType": "address",
          "name": "from",
          "type": "address"
        },
        {
          "internalType": "address",
          "name": "to",
          "type": "address"
        },
        {
          "internalType": "uint256",
          "name": "tokenId",
          "type": "uint256"
        },
        {
          "internalType": "bytes",
          "name": "_data",
          "type": "bytes"
        }
      ],
      "name": "safeTransferFrom",
      "outputs": [],
      "stateMutability": "nonpayable",
      "type": "function"
    },
    {
      "inputs": [
        {
          "internalType": "address",
          "name": "operator",
          "type": "address"
        },
        {
          "internalType": "bool",
          "name": "approved",
          "type": "bool"
        }
      ],
      "name": "setApprovalForAll",
      "outputs": [],
      "stateMutability": "nonpayable",
      "type": "function"
    },
    {
      "inputs": [
        {
          "internalType": "bytes4",
          "name": "interfaceId",
          "type": "bytes4"
        }
      ],
      "name": "supportsInterface",
      "outputs": [
        {
          "internalType": "bool",
          "name": "",
          "type": "bool"
        }
      ],
      "stateMutability": "view",
      "type": "function"
    },
    {
      "inputs": [],
      "name": "symbol",
      "outputs": [
        {
          "internalType": "string",
          "name": "",
          "type": "string"
        }
      ],
      "stateMutability": "view",
      "type": "function"
    },
    {
      "inputs": [
        {
          "internalType": "uint256",
          "name": "index",
          "type": "uint256"
        }
      ],
      "name": "tokenByIndex",
      "outputs": [
        {
          "internalType": "uint256",
          "name": "",
          "type": "uint256"
        }
      ],
      "stateMutability": "view",
      "type": "function"
    },
    {
      "inputs": [
        {
          "internalType": "address",
          "name": "owner",
          "type": "address"
        },
        {
          "internalType": "uint256",
          "name": "index",
          "type": "uint256"
        }
      ],
      "name": "tokenOfOwnerByIndex",
      "outputs": [
        {
          "internalType": "uint256",
          "name": "",
          "type": "uint256"
        }
      ],
      "stateMutability": "view",
      "type": "function"
    },
    {
      "inputs": [
        {
          "internalType": "uint256",
          "name": "tokenId",
          "type": "uint256"
        }
      ],
      "name": "tokenURI",
      "outputs": [
        {
          "internalType": "string",
          "name": "",
          "type": "string"
        }
      ],
      "stateMutability": "view",
      "type": "function"
    },
    {
      "inputs": [],
      "name": "totalSupply",
      "outputs": [
        {
          "internalType": "uint256",
          "name": "",
          "type": "uint256"
        }
      ],
      "stateMutability": "view",
      "type": "function"
    },
    {
      "inputs": [
        {
          "internalType": "address",
          "name": "from",
          "type": "address"
        },
        {
          "internalType": "address",
          "name": "to",
          "type": "address"
        },
        {
          "internalType": "uint256",
          "name": "tokenId",
          "type": "uint256"
        }
      ],
      "name": "transferFrom",
      "outputs": [],
      "stateMutability": "nonpayable",
      "type": "function"
    },
    {
      "inputs": [
        {
          "internalType": "address",
          "name": "newOwner",
          "type": "address"
        }
      ],
      "name": "transferOwnership",
      "outputs": [],
      "stateMutability": "nonpayable",
      "type": "function"
    },
    {
      "inputs": [],
      "name": "unpause",
      "outputs": [],
      "stateMutability": "nonpayable",
      "type": "function"
    },
    {
      "inputs": [
        {
          "internalType": "uint256",
          "name": "tokenId",
          "type": "uint256"
        }
      ],
      "name": "water",
      "outputs": [],
      "stateMutability": "nonpayable",
      "type": "function"
    },
    {
      "inputs": [
        {
          "internalType": "uint256",
          "name": "units",
          "type": "uint256"
        }
      ],
      "name": "webMint",
      "outputs": [],
      "stateMutability": "payable",
      "type": "function"
    },
    {
      "stateMutability": "payable",
      "type": "receive"
    }
  ],
  "transactionHash": "0xffe1ddad16fa2a7819580f055a9806977004f0f5aea0a52c3f37fdad92186004",
  "args": [
    "0xb3dCcb4Cf7a26f6cf6B120Cf5A73875B7BBc655B",
    "0x01be23585060835e02b77ef475b0cc51aa1e0709",
    "0x2ed0feb3e7fd2022120aa84fab1945545a9f2ffc9076fd6156fa96eaff4c1311"
  ],
  "solcInputHash": "23bcd83ffcec6fc86d7620808426e093",
  "bytecode": "0x610200604052600060c0908152610c0260e0526117ba61010052611f8a610120526123726101405261256661016052612660610180526126c46101a0526126f66101c05261270f6101e0526200005a90601090600a62000960565b506040805161018081018252601761014082019081527f7368656e7a68656e696361206f72636869646163656165000000000000000000610160830152815281518083018352601881527f7068616c61656e6f70736973206d6963686f6c69747a69690000000000000000602082810191909152808301919091528251808401845260158082527f6775617269616e74686520617572616e74696163610000000000000000000000828401528385019190915283518085018552600e81526d76616e646120636f6572756c656160901b818401526060840152835180850185528181527f637970726970656469756d2063616c63656f6c7573000000000000000000000081840152608084015283518085018552601981527f70617068696f706564696c756d20766965746e616d656e7365000000000000008184015260a08401528351808501855260128152716d696c746f6e6961206b61796173696d616560701b8184015260c084015283518085018552601381527f706c6174616e746865726120617a6f72696361000000000000000000000000008184015260e0840152835180850185529081527f64656e64726f7068796c6178206c696e64656e69690000000000000000000000818301526101008301528251808401909352601d83527f70617068696f706564696c756d20726f7468736368696c6469616e756d000000908301526101208101919091526200027a90601190600a620009fd565b50604080516101a08101909152602e6101408201818152829162004eae61016084013981526020016040518060600160405280602e815260200162004f66602e913981526020016040518060600160405280602e815260200162004f38602e913981526020016040518060600160405280602e815260200162004edc602e913981526020016040518060600160405280602e815260200162004e52602e913981526020016040518060600160405280602e815260200162004e24602e913981526020016040518060600160405280602e815260200162004df6602e913981526020016040518060600160405280602e815260200162004dc8602e913981526020016040518060600160405280602e815260200162004e80602e913981526020016040518060600160405280602e815260200162004f0a602e91399052620003c690601b90600a620009fd565b5060405162004f9438038062004f9483398181016040526060811015620003ec57600080fd5b50805160208083015160409384015184518086018652600c81526b43727970744f72636869647360a01b8185015285518087018752600581526413d490d21160da1b8186015286518088019097526007875266697066733a2f2f60c81b948701949094529394919390928592859291908282620004796301ffc9a760e01b6001600160e01b036200078a16565b81516200048e90600790602085019062000a50565b508051620004a490600890602084019062000a50565b50620004c06380ac58cd60e01b6001600160e01b036200078a16565b620004db635b5e139f60e01b6001600160e01b036200078a16565b620004f663780e9d6360e01b6001600160e01b036200078a16565b5050600b805460ff191690556200052a60006200051b6001600160e01b036200081216565b6001600160e01b036200081716565b604080516a4d494e5445525f524f4c4560a81b8152905190819003600b01902062000562906200051b6001600160e01b036200081216565b604080516a5041555345525f524f4c4560a81b8152905190819003600b0190206200059a906200051b6001600160e01b036200081216565b620005ae816001600160e01b036200083016565b5050506000620005c36200081260201b60201c565b600d80546001600160a01b0319166001600160a01b038316908117909155604051919250906000907f8be0079c531659141344cd1fd0a4f28419497f9722a3daafe3b4186f6b6457e0908290a350606091821b6001600160601b031990811660a052911b1660805260268054336001600160a01b031991821617909155602a805482166001600160a01b0386811691909117909155602b8054909216908416179055602781905567016345785d8a000060285560005b600a8110156200078057601b81600a81106200069157fe5b01602d6000601184600a8110620006a457fe5b60408051602080820190815292909301805460026001821615610100026000190190911604918401829052928291606090910190849080156200072b5780601f10620006ff576101008083540402835291602001916200072b565b820191906000526020600020905b8154815290600101906020018083116200070d57829003601f168201915b50509250505060405160208183030381529060405280519060200120815260200190815260200160002090805460018160011615610100020316600290046200077692919062000ad1565b5060010162000679565b5050505062000bfd565b6001600160e01b03198082161415620007ea576040805162461bcd60e51b815260206004820152601c60248201527f4552433136353a20696e76616c696420696e7465726661636520696400000000604482015290519081900360640190fd5b6001600160e01b0319166000908152600160208190526040909120805460ff19169091179055565b335b90565b6200082c82826001600160e01b036200084516565b5050565b80516200082c90600a90602084019062000a50565b6000828152602081815260409091206200086a91839062002f6b620008c7821b17901c565b156200082c57620008836001600160e01b036200081216565b6001600160a01b0316816001600160a01b0316837f2f8788117e7eff1d82e926ec794901d17c78024a50270940304540a733656f0d60405160405180910390a45050565b6000620008e7836001600160a01b0384166001600160e01b03620008f016565b90505b92915050565b60006200090783836001600160e01b036200094816565b6200093f57508154600181810184556000848152602080822090930184905584548482528286019093526040902091909155620008ea565b506000620008ea565b60009081526001919091016020526040902054151590565b600183019183908215620009eb5791602002820160005b83821115620009b957835183826101000a81548161ffff021916908361ffff160217905550926020019260020160208160010104928301926001030262000977565b8015620009e95782816101000a81549061ffff0219169055600201602081600101049283019260010302620009b9565b505b50620009f992915062000b4b565b5090565b82600a810192821562000a42579160200282015b8281111562000a42578251805162000a3191849160209091019062000a50565b509160200191906001019062000a11565b50620009f992915062000b6d565b828054600181600116156101000203166002900490600052602060002090601f016020900481019282601f1062000a9357805160ff191683800117855562000ac3565b8280016001018555821562000ac3579182015b8281111562000ac357825182559160200191906001019062000aa6565b50620009f992915062000b95565b828054600181600116156101000203166002900490600052602060002090601f016020900481019282601f1062000b0c578054855562000ac3565b8280016001018555821562000ac357600052602060002091601f016020900482015b8281111562000ac357825482559160010191906001019062000b2e565b6200081491905b80821115620009f957805461ffff1916815560010162000b52565b6200081491905b80821115620009f957600062000b8b828262000bb2565b5060010162000b74565b6200081491905b80821115620009f9576000815560010162000b9c565b50805460018160011615610100020316600290046000825580601f1062000bda575062000bfa565b601f01602090049060005260206000209081019062000bfa919062000b95565b50565b60805160601c60a05160601c61419762000c3160003980611752528061317d525080612aab528061314e52506141976000f3fe6080604052600436106103595760003560e01c80636b0c004d116101bb578063a217fddf116100f7578063cac21c8f11610095578063e63ab1e91161006f578063e63ab1e914610d01578063e985e9c514610d16578063f2fde38b14610d51578063ffee200c14610d8457610360565b8063cac21c8f14610c89578063d539139314610cb3578063d547741f14610cc857610360565b8063b7aaba20116100d1578063b7aaba2014610b14578063b88d4fde14610b62578063c87b56dd14610c35578063ca15c87314610c5f57610360565b8063a217fddf14610a9a578063a22cb46514610aaf578063a7eec44b14610aea57610360565b80638da5cb5b1161016457806394985ddd1161013e57806394985ddd14610a2357806395d89b4114610a535780639981d4a114610a685780639d1b464a14610a8557610360565b80638da5cb5b146109a55780639010d07c146109ba57806391d14854146109ea57610360565b8063715018a611610195578063715018a61461094b5780637fd8d953146109605780638456cb591461099057610360565b80636b0c004d146108ee5780636c0360eb1461090357806370a082311461091857610360565b806333b60863116102955780634f8e2fdf1161023357806362ff09d61161020d57806362ff09d61461083d5780636352211e146108675780636573c787146108915780636a627842146108bb57610360565b80634f8e2fdf146107635780635c975abb14610778578063603168011461078d57610360565b806342619f661161026f57806342619f66146106b757806342842e0e146106cc57806342966c681461070f5780634f6ccce71461073957610360565b806333b608631461065457806336568abe146106695780633f4ba83a146106a257610360565b8063179f0b0a1161030257806323b872dd116102dc57806323b872dd14610575578063248a9ca3146105b85780632f2ff15d146105e25780632f745c591461061b57610360565b8063179f0b0a1461050f57806318160ddd14610536578063182199cd1461054b57610360565b8063081812fc11610333578063081812fc14610480578063095ea7b3146104aa5780631424494d146104e557610360565b806301ffc9a71461036557806302d05d3f146103c557806306fdde03146103f657610360565b3661036057005b600080fd5b34801561037157600080fd5b506103b16004803603602081101561038857600080fd5b50357fffffffff0000000000000000000000000000000000000000000000000000000016610d99565b604080519115158252519081900360200190f35b3480156103d157600080fd5b506103da610dd4565b604080516001600160a01b039092168252519081900360200190f35b34801561040257600080fd5b5061040b610de3565b6040805160208082528351818301528351919283929083019185019080838360005b8381101561044557818101518382015260200161042d565b50505050905090810190601f1680156104725780820380516001836020036101000a031916815260200191505b509250505060405180910390f35b34801561048c57600080fd5b506103da600480360360208110156104a357600080fd5b5035610e7a565b3480156104b657600080fd5b506104e3600480360360408110156104cd57600080fd5b506001600160a01b038135169060200135610edc565b005b3480156104f157600080fd5b506104e36004803603602081101561050857600080fd5b5035610fb7565b34801561051b57600080fd5b50610524611042565b60408051918252519081900360200190f35b34801561054257600080fd5b50610524611048565b34801561055757600080fd5b506103b16004803603602081101561056e57600080fd5b5035611059565b34801561058157600080fd5b506104e36004803603606081101561059857600080fd5b506001600160a01b03813581169160208101359091169060400135611078565b3480156105c457600080fd5b50610524600480360360208110156105db57600080fd5b50356110c9565b3480156105ee57600080fd5b506104e36004803603604081101561060557600080fd5b50803590602001356001600160a01b03166110de565b34801561062757600080fd5b506105246004803603604081101561063e57600080fd5b506001600160a01b03813516906020013561114a565b34801561066057600080fd5b506103da61117b565b34801561067557600080fd5b506104e36004803603604081101561068c57600080fd5b50803590602001356001600160a01b031661118a565b3480156106ae57600080fd5b506104e36111eb565b3480156106c357600080fd5b5061052461125c565b3480156106d857600080fd5b506104e3600480360360608110156106ef57600080fd5b506001600160a01b03813581169160208101359091169060400135611262565b34801561071b57600080fd5b506104e36004803603602081101561073257600080fd5b503561127d565b34801561074557600080fd5b506105246004803603602081101561075c57600080fd5b50356112cf565b34801561076f57600080fd5b506103da6112eb565b34801561078457600080fd5b506103b16112fa565b34801561079957600080fd5b506107b7600480360360208110156107b057600080fd5b5035611303565b6040518080602001848152602001838152602001828103825285818151815260200191508051906020019080838360005b838110156108005781810151838201526020016107e8565b50505050905090810190601f16801561082d5780820380516001836020036101000a031916815260200191505b5094505050505060405180910390f35b34801561084957600080fd5b506105246004803603602081101561086057600080fd5b50356113b9565b34801561087357600080fd5b506103da6004803603602081101561088a57600080fd5b50356113cb565b34801561089d57600080fd5b506103b1600480360360208110156108b457600080fd5b50356113f9565b3480156108c757600080fd5b506104e3600480360360208110156108de57600080fd5b50356001600160a01b0316611419565b3480156108fa57600080fd5b5061052461149d565b34801561090f57600080fd5b5061040b6114a3565b34801561092457600080fd5b506105246004803603602081101561093b57600080fd5b50356001600160a01b0316611504565b34801561095757600080fd5b506104e361156c565b34801561096c57600080fd5b506104e36004803603604081101561098357600080fd5b5080359060200135611637565b34801561099c57600080fd5b506104e361168d565b3480156109b157600080fd5b506103da6116fc565b3480156109c657600080fd5b506103da600480360360408110156109dd57600080fd5b508035906020013561170b565b3480156109f657600080fd5b506103b160048036036040811015610a0d57600080fd5b50803590602001356001600160a01b0316611729565b348015610a2f57600080fd5b506104e360048036036040811015610a4657600080fd5b5080359060200135611747565b348015610a5f57600080fd5b5061040b6117ce565b6104e360048036036020811015610a7e57600080fd5b503561182f565b348015610a9157600080fd5b50610524611aab565b348015610aa657600080fd5b50610524611b67565b348015610abb57600080fd5b506104e360048036036040811015610ad257600080fd5b506001600160a01b0381351690602001351515611b6c565b348015610af657600080fd5b506104e360048036036020811015610b0d57600080fd5b5035611c71565b348015610b2057600080fd5b50610b3e60048036036020811015610b3757600080fd5b5035611e16565b60405180826003811115610b4e57fe5b60ff16815260200191505060405180910390f35b348015610b6e57600080fd5b506104e360048036036080811015610b8557600080fd5b6001600160a01b03823581169260208101359091169160408201359190810190608081016060820135640100000000811115610bc057600080fd5b820183602082011115610bd257600080fd5b80359060200191846001830284011164010000000083111715610bf457600080fd5b91908080601f016020809104026020016040519081016040528093929190818152602001838380828437600092019190915250929550611f94945050505050565b348015610c4157600080fd5b5061040b60048036036020811015610c5857600080fd5b5035611fec565b348015610c6b57600080fd5b5061052460048036036020811015610c8257600080fd5b5035612166565b348015610c9557600080fd5b506107b760048036036020811015610cac57600080fd5b503561217d565b348015610cbf57600080fd5b5061052461222a565b348015610cd457600080fd5b506104e360048036036040811015610ceb57600080fd5b50803590602001356001600160a01b031661224d565b348015610d0d57600080fd5b506105246122a6565b348015610d2257600080fd5b506103b160048036036040811015610d3957600080fd5b506001600160a01b03813581169160200135166122c9565b348015610d5d57600080fd5b506104e360048036036020811015610d7457600080fd5b50356001600160a01b03166122f7565b348015610d9057600080fd5b50610524612419565b7fffffffff00000000000000000000000000000000000000000000000000000000811660009081526001602052604090205460ff165b919050565b6026546001600160a01b031681565b60078054604080516020601f6002600019610100600188161502019095169490940493840181900481028201810190925282815260609390929091830182828015610e6f5780601f10610e4457610100808354040283529160200191610e6f565b820191906000526020600020905b815481529060010190602001808311610e5257829003601f168201915b505050505090505b90565b6000610e858261241f565b610ec05760405162461bcd60e51b815260040180806020018281038252602c815260200180613f34602c913960400191505060405180910390fd5b506000908152600560205260409020546001600160a01b031690565b6000610ee7826113cb565b9050806001600160a01b0316836001600160a01b03161415610f3a5760405162461bcd60e51b8152600401808060200182810382526021815260200180613fb96021913960400191505060405180910390fd5b806001600160a01b0316610f4c612432565b6001600160a01b03161480610f6d5750610f6d81610f68612432565b6122c9565b610fa85760405162461bcd60e51b8152600401808060200182810382526038815260200180613e436038913960400191505060405180910390fd5b610fb28383612436565b505050565b610fc8610fc2612432565b826124b1565b6110035760405162461bcd60e51b815260040180806020018281038252602981526020018061405d6029913960400191505060405180910390fd5b61100c8161127d565b6040805182815290517f30f6ee1c7b8eb7349c887acbbbd691fc92bd38eacc6341de20458431525e610c9181900360200190a150565b612a3081565b60006110546003612555565b905090565b6000600261106683611e16565b600381111561107157fe5b1492915050565b611083610fc2612432565b6110be5760405162461bcd60e51b81526004018080602001828103825260318152602001806140016031913960400191505060405180910390fd5b610fb2838383612560565b60009081526020819052604090206002015490565b600082815260208190526040902060020154611101906110fc612432565b611729565b61113c5760405162461bcd60e51b815260040180806020018281038252602f815260200180613c86602f913960400191505060405180910390fd5b61114682826126be565b5050565b6001600160a01b0382166000908152600260205260408120611172908363ffffffff61272d16565b90505b92915050565b602a546001600160a01b031681565b611192612432565b6001600160a01b0316816001600160a01b0316146111e15760405162461bcd60e51b815260040180806020018281038252602f815260200180614133602f913960400191505060405180910390fd5b6111468282612739565b604080516a5041555345525f524f4c4560a81b8152905190819003600b019020611217906110fc612432565b6112525760405162461bcd60e51b81526004018080602001828103825260408152602001806140f36040913960400191505060405180910390fd5b61125a6127a8565b565b60295481565b610fb283838360405180602001604052806000815250611f94565b611288610fc2612432565b6112c35760405162461bcd60e51b81526004018080602001828103825260308152602001806140c36030913960400191505060405180910390fd5b6112cc81612851565b50565b6000806112e360038463ffffffff61292a16565b509392505050565b602b546001600160a01b031681565b600b5460ff1690565b6000818152600f60209081526040808320600180820154600280840154845486519481161561010002600019011691909104601f81018790048702840187019095528483526060969586959293919285918301828280156113a55780601f1061137a576101008083540402835291602001916113a5565b820191906000526020600020905b81548152906001019060200180831161138857829003601f168201915b505050505092509250925092509193909250565b602c6020526000908152604090205481565b600061117582604051806060016040528060298152602001613ea5602991396003919063ffffffff61294616565b6000600361140683611e16565b600381111561141157fe5b141592915050565b604080516a4d494e5445525f524f4c4560a81b8152905190819003600b019020611445906110fc612432565b6114805760405162461bcd60e51b815260040180806020018281038252603d815260200180614086603d913960400191505060405180910390fd5b6114938161148e600c61295d565b612961565b6112cc600c612a9b565b61271081565b600a8054604080516020601f6002600019610100600188161502019095169490940493840181900481028201810190925282815260609390929091830182828015610e6f5780601f10610e4457610100808354040283529160200191610e6f565b60006001600160a01b03821661154b5760405162461bcd60e51b815260040180806020018281038252602a815260200180613e7b602a913960400191505060405180910390fd5b6001600160a01b038216600090815260026020526040902061117590612555565b611574612432565b6001600160a01b03166115856116fc565b6001600160a01b0316146115e0576040805162461bcd60e51b815260206004820181905260248201527f4f776e61626c653a2063616c6c6572206973206e6f7420746865206f776e6572604482015290519081900360640190fd5b600d546040516000916001600160a01b0316907f8be0079c531659141344cd1fd0a4f28419497f9722a3daafe3b4186f6b6457e0908390a3600d805473ffffffffffffffffffffffffffffffffffffffff19169055565b611648611642612432565b836124b1565b6116835760405162461bcd60e51b815260040180806020018281038252602b815260200180614032602b913960400191505060405180910390fd5b610fb28282612aa4565b604080516a5041555345525f524f4c4560a81b8152905190819003600b0190206116b9906110fc612432565b6116f45760405162461bcd60e51b815260040180806020018281038252603e815260200180613d0d603e913960400191505060405180910390fd5b61125a612be5565b600d546001600160a01b031690565b6000828152602081905260408120611172908363ffffffff61272d16565b6000828152602081905260408120611172908363ffffffff612c7516565b336001600160a01b037f000000000000000000000000000000000000000000000000000000000000000016146117c4576040805162461bcd60e51b815260206004820152601f60248201527f4f6e6c7920565246436f6f7264696e61746f722063616e2066756c66696c6c00604482015290519081900360640190fd5b6111468282612c8a565b60088054604080516020601f6002600019610100600188161502019095169490940493840181900481028201810190925282815260609390929091830182828015610e6f5780601f10610e4457610100808354040283529160200191610e6f565b611837611048565b61271003811061188e576040805162461bcd60e51b815260206004820152601560248201527f4e6f7420656e6f7567682062756c6273206c6566740000000000000000000000604482015290519081900360640190fd5b612710611899611048565b106118eb576040805162461bcd60e51b815260206004820152601660248201527f53616c652068617320616c726561647920656e64656400000000000000000000604482015290519081900360640190fd5b6000811180156118fc575060148111155b6119375760405162461bcd60e51b8152600401808060200182810382526030815260200180613f896030913960400191505060405180910390fd5b61271061194b611945611048565b83612cdf565b111561199e576040805162461bcd60e51b815260206004820152601860248201527f45786365656473204d41585f43525950544f5243484944530000000000000000604482015290519081900360640190fd5b6119af6119a9611aab565b82612d39565b3410156119ed5760405162461bcd60e51b8152600401808060200182810382526023815260200180613ece6023913960400191505060405180910390fd5b60005b8181101561114657611a026025612a9b565b6000611a0e602561295d565b6040805160a0810182526006606082019081527f6772616e756d0000000000000000000000000000000000000000000000000000608083015281526000196020808301919091526000828401819052848152600f8252929092208151805194955091939092611a81928492910190613b43565b5060208201516001820155604090910151600290910155611aa23382612d92565b506001016119f0565b600080611ab6611048565b90506126ac8110611ad257670de0b6b3a7640000915050610e77565b61251c8110611aec576708e1bc9bf0400000915050610e77565b611d4c8110611b0657670470de4df8200000915050610e77565b610dac8110611b20576702386f26fc100000915050610e77565b6105dc8110611b3a5767011c37937e080000915050610e77565b6101f48110611b5357668e1bc9bf040000915050610e77565b66470de4df820000915050610e77565b5090565b600081565b611b74612432565b6001600160a01b0316826001600160a01b03161415611bda576040805162461bcd60e51b815260206004820152601960248201527f4552433732313a20617070726f766520746f2063616c6c657200000000000000604482015290519081900360640190fd5b8060066000611be7612432565b6001600160a01b03908116825260208083019390935260409182016000908120918716808252919093529120805460ff191692151592909217909155611c2b612432565b60408051841515815290516001600160a01b0392909216917f17307eab39ab6107e8899845ad3d59bd9653f200f220920489ca2b5937696c319181900360200190a35050565b611c7c610fc2612432565b611cb75760405162461bcd60e51b8152600401808060200182810382526027815260200180613dc06027913960400191505060405180910390fd5b611cc0816113f9565b611d0557611ccd8161127d565b6040805182815290517f30f6ee1c7b8eb7349c887acbbbd691fc92bd38eacc6341de20458431525e610c9181900360200190a16112cc565b6000818152600f602052604081206002810154600182015491929091611d29612dac565b0390506000611d3a82612a30612db0565b905080831115611dbc57611d4d8561127d565b6040805186815290517f7eee0a4514bd6b2db320e3372073e931a71d23554506e89140fc5062318a288b9181900360200190a16040805186815290517f30f6ee1c7b8eb7349c887acbbbd691fc92bd38eacc6341de20458431525e610c9181900360200190a1505050506112cc565b6000611dc9846001612cdf565b60028601819055604080518881526020810183905281519293507f674d81537534435d24d5bc9f92955722ba22b136d98346a01ad4777f48b5581c929081900390910190a1505050505050565b6000611e20613bbd565b6000838152600f60209081526040918290208251815460026001821615610100026000190190911604601f81018490049093028101608090810190945260608101838152909391928492849190840182828015611ebe5780601f10611e9357610100808354040283529160200191611ebe565b820191906000526020600020905b815481529060010190602001808311611ea157829003601f168201915b50505050508152602001600182015481526020016002820154815250509050806020015160001415611ef4576000915050610dcf565b60001981602001511415611f0c576001915050610dcf565b60408101516020820151600090611f21612dac565b0390506000611f3282612a30612db0565b90506000611f4283612a30612e1a565b905081841415611f5a57600295505050505050610dcf565b81611f66856001612cdf565b148015611f745750610e1081105b15611f8757600295505050505050610dcf565b5060039695505050505050565b611f9f611642612432565b611fda5760405162461bcd60e51b81526004018080602001828103825260318152602001806140016031913960400191505060405180910390fd5b611fe684848484612e7f565b50505050565b606080611ff883611303565b505090506120046114a3565b602d6000836040516020018080602001828103825283818151815260200191508051906020019080838360005b83811015612049578181015183820152602001612031565b50505050905090810190601f1680156120765780820380516001836020036101000a031916815260200191505b50925050506040516020818303038152906040528051906020012081526020019081526020016000206040516020018083805190602001908083835b602083106120d15780518252601f1990920191602091820191016120b2565b6001836020036101000a0380198251168184511680821785525050505050509050018280546001816001161561010002031660029004801561214a5780601f1061212857610100808354040283529182019161214a565b820191906000526020600020905b815481529060010190602001808311612136575b505060408051601f198184030181529190529695505050505050565b600081815260208190526040812061117590612555565b600f6020908152600091825260409182902080548351601f600260001961010060018616150201909316929092049182018490048402810184019094528084529092918391908301828280156122145780601f106121e957610100808354040283529160200191612214565b820191906000526020600020905b8154815290600101906020018083116121f757829003601f168201915b5050505050908060010154908060020154905083565b604080516a4d494e5445525f524f4c4560a81b8152905190819003600b01902081565b60008281526020819052604090206002015461226b906110fc612432565b6111e15760405162461bcd60e51b8152600401808060200182810382526030815260200180613e136030913960400191505060405180910390fd5b604080516a5041555345525f524f4c4560a81b8152905190819003600b01902081565b6001600160a01b03918216600090815260066020908152604080832093909416825291909152205460ff1690565b6122ff612432565b6001600160a01b03166123106116fc565b6001600160a01b03161461236b576040805162461bcd60e51b815260206004820181905260248201527f4f776e61626c653a2063616c6c6572206973206e6f7420746865206f776e6572604482015290519081900360640190fd5b6001600160a01b0381166123b05760405162461bcd60e51b8152600401808060200182810382526026815260200180613ce76026913960400191505060405180910390fd5b600d546040516001600160a01b038084169216907f8be0079c531659141344cd1fd0a4f28419497f9722a3daafe3b4186f6b6457e090600090a3600d805473ffffffffffffffffffffffffffffffffffffffff19166001600160a01b0392909216919091179055565b610e1081565b600061117560038363ffffffff612ed116565b3390565b6000818152600560205260409020805473ffffffffffffffffffffffffffffffffffffffff19166001600160a01b0384169081179091558190612478826113cb565b6001600160a01b03167f8c5be1e5ebec7d5bd14f71427d1e84f3dd0314c0f7b2291e5b200ac8c7c3b92560405160405180910390a45050565b60006124bc8261241f565b6124f75760405162461bcd60e51b815260040180806020018281038252602c815260200180613de7602c913960400191505060405180910390fd5b6000612502836113cb565b9050806001600160a01b0316846001600160a01b0316148061253d5750836001600160a01b031661253284610e7a565b6001600160a01b0316145b8061254d575061254d81856122c9565b949350505050565b60006111758261295d565b826001600160a01b0316612573826113cb565b6001600160a01b0316146125b85760405162461bcd60e51b8152600401808060200182810382526029815260200180613f606029913960400191505060405180910390fd5b6001600160a01b0382166125fd5760405162461bcd60e51b8152600401808060200182810382526024815260200180613d4b6024913960400191505060405180910390fd5b612608838383612edd565b612613600082612436565b6001600160a01b038316600090815260026020526040902061263b908263ffffffff612f3d16565b506001600160a01b0382166000908152600260205260409020612664908263ffffffff612f4916565b506126776003828463ffffffff612f5516565b5080826001600160a01b0316846001600160a01b03167fddf252ad1be2c89b69c2b068fc378daa952ba7f163c4a11628f55a4df523b3ef60405160405180910390a4505050565b60008281526020819052604090206126dc908263ffffffff612f6b16565b15611146576126e9612432565b6001600160a01b0316816001600160a01b0316837f2f8788117e7eff1d82e926ec794901d17c78024a50270940304540a733656f0d60405160405180910390a45050565b60006111728383612f80565b6000828152602081905260409020612757908263ffffffff612fe416565b1561114657612764612432565b6001600160a01b0316816001600160a01b0316837ff6391f5c32d9c69d2a47ea670b442974b53935d1edc7fd64eb21e047a839171b60405160405180910390a45050565b6127b06112fa565b612801576040805162461bcd60e51b815260206004820152601460248201527f5061757361626c653a206e6f7420706175736564000000000000000000000000604482015290519081900360640190fd5b600b805460ff191690557f5db9ee0a495bf2e6ff9c91a7834c1ba4fdd244a5e8aa4e537bd38aeae4b073aa612834612432565b604080516001600160a01b039092168252519081900360200190a1565b600061285c826113cb565b905061286a81600084612edd565b612875600083612436565b60008281526009602052604090205460026000196101006001841615020190911604156128b35760008281526009602052604081206128b391613bde565b6001600160a01b03811660009081526002602052604090206128db908363ffffffff612f3d16565b506128ed60038363ffffffff612ff916565b5060405182906000906001600160a01b038416907fddf252ad1be2c89b69c2b068fc378daa952ba7f163c4a11628f55a4df523b3ef908390a45050565b60008080806129398686613005565b9097909650945050505050565b6000612953848484613080565b90505b9392505050565b5490565b6001600160a01b0382166129bc576040805162461bcd60e51b815260206004820181905260248201527f4552433732313a206d696e7420746f20746865207a65726f2061646472657373604482015290519081900360640190fd5b6129c58161241f565b15612a17576040805162461bcd60e51b815260206004820152601c60248201527f4552433732313a20746f6b656e20616c7265616479206d696e74656400000000604482015290519081900360640190fd5b612a2360008383612edd565b6001600160a01b0382166000908152600260205260409020612a4b908263ffffffff612f4916565b50612a5e6003828463ffffffff612f5516565b5060405181906001600160a01b038416906000907fddf252ad1be2c89b69c2b068fc378daa952ba7f163c4a11628f55a4df523b3ef908290a45050565b80546001019055565b60006028547f00000000000000000000000000000000000000000000000000000000000000006001600160a01b03166370a08231306040518263ffffffff1660e01b815260040180826001600160a01b03166001600160a01b0316815260200191505060206040518083038186803b158015612b1f57600080fd5b505afa158015612b33573d6000803e3d6000fd5b505050506040513d6020811015612b4957600080fd5b50511015612b885760405162461bcd60e51b815260040180806020018281038252602b815260200180613d6f602b913960400191505060405180910390fd5b612b976027546028548461314a565b6000818152602c6020908152604091829020869055815183815291519293507fe5f5b44d72d4143c278eb745c4acc0695c4a5bc616be5beecf46abe29661780e92918290030190a192915050565b612bed6112fa565b15612c3f576040805162461bcd60e51b815260206004820152601060248201527f5061757361626c653a2070617573656400000000000000000000000000000000604482015290519081900360640190fd5b600b805460ff191660011790557f62e78cea01bee320cd4e420270b5ea74000d11b0c9f74754ebdbfc544b05a258612834612432565b6000611172836001600160a01b03841661330c565b6000828152602c60209081526040808320548352600f9091529020612cb9612cb483612710612e1a565b613324565b8051612ccc918391602090910190613b43565b50612cd5612dac565b6001909101555050565b600082820183811015611172576040805162461bcd60e51b815260206004820152601b60248201527f536166654d6174683a206164646974696f6e206f766572666c6f770000000000604482015290519081900360640190fd5b600082612d4857506000611175565b82820282848281612d5557fe5b04146111725760405162461bcd60e51b8152600401808060200182810382526021815260200180613f136021913960400191505060405180910390fd5b611146828260405180602001604052806000815250613410565b4290565b6000808211612e06576040805162461bcd60e51b815260206004820152601a60248201527f536166654d6174683a206469766973696f6e206279207a65726f000000000000604482015290519081900360640190fd5b6000828481612e1157fe5b04949350505050565b600081612e6e576040805162461bcd60e51b815260206004820152601860248201527f536166654d6174683a206d6f64756c6f206279207a65726f0000000000000000604482015290519081900360640190fd5b818381612e7757fe5b069392505050565b612e8a848484612560565b612e9684848484613462565b611fe65760405162461bcd60e51b8152600401808060200182810382526032815260200180613cb56032913960400191505060405180910390fd5b6000611172838361330c565b6001600160a01b0382161580612ef75750612ef7816113f9565b612f325760405162461bcd60e51b8152600401808060200182810382526027815260200180613fda6027913960400191505060405180910390fd5b610fb2838383613624565b6000611172838361362f565b600061117283836136f5565b600061295384846001600160a01b03851661373f565b6000611172836001600160a01b0384166136f5565b81546000908210612fc25760405162461bcd60e51b8152600401808060200182810382526022815260200180613c396022913960400191505060405180910390fd5b826000018281548110612fd157fe5b9060005260206000200154905092915050565b6000611172836001600160a01b03841661362f565b600061117283836137d6565b8154600090819083106130495760405162461bcd60e51b8152600401808060200182810382526022815260200180613ef16022913960400191505060405180910390fd5b600084600001848154811061305a57fe5b906000526020600020906002020190508060000154816001015492509250509250929050565b6000828152600184016020526040812054828161311b5760405162461bcd60e51b81526004018080602001828103825283818151815260200191508051906020019080838360005b838110156130e05781810151838201526020016130c8565b50505050905090810190601f16801561310d5780820380516001836020036101000a031916815260200191505b509250505060405180910390fd5b5084600001600182038154811061312e57fe5b9060005260206000209060020201600101549150509392505050565b60007f00000000000000000000000000000000000000000000000000000000000000006001600160a01b0316634000aea07f000000000000000000000000000000000000000000000000000000000000000085878660405160200180838152602001828152602001925050506040516020818303038152906040526040518463ffffffff1660e01b815260040180846001600160a01b03166001600160a01b0316815260200183815260200180602001828103825283818151815260200191508051906020019080838360005b8381101561322f578181015183820152602001613217565b50505050905090810190601f16801561325c5780820380516001836020036101000a031916815260200191505b50945050505050602060405180830381600087803b15801561327d57600080fd5b505af1158015613291573d6000803e3d6000fd5b505050506040513d60208110156132a757600080fd5b50506000848152600e60205260408120546132c7908690859030906138aa565b6000868152600e60205260409020549091506132ea90600163ffffffff612cdf16565b6000868152600e602052604090205561330385826138f1565b95945050505050565b60009081526001919091016020526040902054151590565b606060005b600a81101561340a57601081600a811061333f57fe5b601091828204019190066002029054906101000a900461ffff1661ffff16831161340257601181600a811061337057fe5b01805460408051602060026001851615610100026000190190941693909304601f810184900484028201840190925281815292918301828280156133f55780601f106133ca576101008083540402835291602001916133f5565b820191906000526020600020905b8154815290600101906020018083116133d857829003601f168201915b5050505050915050610dcf565b600101613329565b50919050565b61341a8383612961565b6134276000848484613462565b610fb25760405162461bcd60e51b8152600401808060200182810382526032815260200180613cb56032913960400191505060405180910390fd5b6000613476846001600160a01b031661391d565b6134825750600161254d565b60606135d2630a85bd0160e11b613497612432565b88878760405160240180856001600160a01b03166001600160a01b03168152602001846001600160a01b03166001600160a01b0316815260200183815260200180602001828103825283818151815260200191508051906020019080838360005b838110156135105781810151838201526020016134f8565b50505050905090810190601f16801561353d5780820380516001836020036101000a031916815260200191505b5095505050505050604051602081830303815290604052907bffffffffffffffffffffffffffffffffffffffffffffffffffffffff19166020820180517bffffffffffffffffffffffffffffffffffffffffffffffffffffffff8381831617835250505050604051806060016040528060328152602001613cb5603291396001600160a01b038816919063ffffffff61392316565b905060008180602001905160208110156135eb57600080fd5b50517fffffffff0000000000000000000000000000000000000000000000000000000016630a85bd0160e11b1492505050949350505050565b610fb2838383613932565b600081815260018301602052604081205480156136eb578354600019808301919081019060009087908390811061366257fe5b906000526020600020015490508087600001848154811061367f57fe5b6000918252602080832090910192909255828152600189810190925260409020908401905586548790806136af57fe5b60019003818190600052602060002001600090559055866001016000878152602001908152602001600020600090556001945050505050611175565b6000915050611175565b6000613701838361330c565b61373757508154600181810184556000848152602080822090930184905584548482528286019093526040902091909155611175565b506000611175565b6000828152600184016020526040812054806137a4575050604080518082018252838152602080820184815286546001818101895560008981528481209551600290930290950191825591519082015586548684528188019092529290912055612956565b828560000160018303815481106137b757fe5b9060005260206000209060020201600101819055506000915050612956565b600081815260018301602052604081205480156136eb578354600019808301919081019060009087908390811061380957fe5b906000526020600020906002020190508087600001848154811061382957fe5b60009182526020808320845460029093020191825560019384015491840191909155835482528983019052604090209084019055865487908061386857fe5b60008281526020808220600260001990940193840201828155600190810183905592909355888152898201909252604082209190915594506111759350505050565b60408051602080820196909652808201949094526001600160a01b039290921660608401526080808401919091528151808403909101815260a09092019052805191012090565b604080516020808201949094528082019290925280518083038201815260609092019052805191012090565b3b151590565b60606129538484600085613981565b61393d838383610fb2565b6139456112fa565b15610fb25760405162461bcd60e51b815260040180806020018281038252602b815260200180613c5b602b913960400191505060405180910390fd5b6060824710156139c25760405162461bcd60e51b8152600401808060200182810382526026815260200180613d9a6026913960400191505060405180910390fd5b6139cb8561391d565b613a1c576040805162461bcd60e51b815260206004820152601d60248201527f416464726573733a2063616c6c20746f206e6f6e2d636f6e7472616374000000604482015290519081900360640190fd5b60006060866001600160a01b031685876040518082805190602001908083835b60208310613a5b5780518252601f199092019160209182019101613a3c565b6001836020036101000a03801982511681845116808217855250505050505090500191505060006040518083038185875af1925050503d8060008114613abd576040519150601f19603f3d011682016040523d82523d6000602084013e613ac2565b606091505b5091509150613ad2828286613add565b979650505050505050565b60608315613aec575081612956565b825115613afc5782518084602001fd5b60405162461bcd60e51b81526020600482018181528451602484015284518593919283926044019190850190808383600083156130e05781810151838201526020016130c8565b828054600181600116156101000203166002900490600052602060002090601f016020900481019282601f10613b8457805160ff1916838001178555613bb1565b82800160010185558215613bb1579182015b82811115613bb1578251825591602001919060010190613b96565b50611b63929150613c1e565b60405180606001604052806060815260200160008152602001600081525090565b50805460018160011615610100020316600290046000825580601f10613c0457506112cc565b601f0160209004906000526020600020908101906112cc91905b610e7791905b80821115611b635760008155600101613c2456fe456e756d657261626c655365743a20696e646578206f7574206f6620626f756e64734552433732315061757361626c653a20746f6b656e207472616e73666572207768696c6520706175736564416363657373436f6e74726f6c3a2073656e646572206d75737420626520616e2061646d696e20746f206772616e744552433732313a207472616e7366657220746f206e6f6e20455243373231526563656976657220696d706c656d656e7465724f776e61626c653a206e6577206f776e657220697320746865207a65726f20616464726573734552433732315072657365744d696e7465725061757365724175746f49643a206d75737420686176652070617573657220726f6c6520746f2070617573654552433732313a207472616e7366657220746f20746865207a65726f20616464726573734e6f7420656e6f756768204c494e4b202d2066696c6c20636f6e7472616374207769746820666175636574416464726573733a20696e73756666696369656e742062616c616e636520666f722063616c6c4f6e6c7920746865204f776e65722063616e20776174657220612043727970744f72636869642e4552433732313a206f70657261746f7220717565727920666f72206e6f6e6578697374656e7420746f6b656e416363657373436f6e74726f6c3a2073656e646572206d75737420626520616e2061646d696e20746f207265766f6b654552433732313a20617070726f76652063616c6c6572206973206e6f74206f776e6572206e6f7220617070726f76656420666f7220616c6c4552433732313a2062616c616e636520717565727920666f7220746865207a65726f20616464726573734552433732313a206f776e657220717565727920666f72206e6f6e6578697374656e7420746f6b656e45746865722076616c75652073656e742069732062656c6f7720746865207072696365456e756d657261626c654d61703a20696e646578206f7574206f6620626f756e6473536166654d6174683a206d756c7469706c69636174696f6e206f766572666c6f774552433732313a20617070726f76656420717565727920666f72206e6f6e6578697374656e7420746f6b656e4552433732313a207472616e73666572206f6620746f6b656e2074686174206973206e6f74206f776e596f752063616e20706c616e74206d696e696d756d20312c206d6178696d756d2032302043727970744f7263686964734552433732313a20617070726f76616c20746f2063757272656e74206f776e6572446561642043727970744f7263686964732063616e6e6f74206265207472616e736665727265644552433732313a207472616e736665722063616c6c6572206973206e6f74206f776e6572206e6f7220617070726f7665644f6e6c7920746865204f776e65722063616e206765726d696e61746520612043727970744f72636869642e4f6e6c7920746865204f776e65722063616e20636f6d706f737420612043727970744f72636869642e4552433732315072657365744d696e7465725061757365724175746f49643a206d7573742068617665206d696e74657220726f6c6520746f206d696e744552433732314275726e61626c653a2063616c6c6572206973206e6f74206f776e6572206e6f7220617070726f7665644552433732315072657365744d696e7465725061757365724175746f49643a206d75737420686176652070617573657220726f6c6520746f20756e7061757365416363657373436f6e74726f6c3a2063616e206f6e6c792072656e6f756e636520726f6c657320666f722073656c66a26469706673582212203a8c7be3eb87c4ae6fe74a12e5d7fc5120478a37e93764744aaa0b771fa3060464736f6c63430006060033516d504e6877437336733547516a6e706466314e344c725978325637323441504e625a504859554a376265615347516d63386e42706564774a3479436f793132396170715237644e75393236716d7957634d3478527472647465724a516d51577431487736647771543368334c6845395a69325a676263794c43575a79316e48456562377372444b7250516d5666566f313565434163674661424846785a326d6e38627a79714a34465273434b4a754b546e424763597638516d553758344470794a64667455676f4c35534d7179426a59627a3771314a533361754261544551556a39376a42516d6347734a39384b4355753332597a746d547a464b56564e3664614d6638733359764d4348364d435a7662784b516d6574554755526d5054464d3152717765505275447654613952726f705675374b654d523175506d7146334a48516d516d68395a53726e55534c6768694d7a4a7134734b714432646952486f4d503668367674366d724351677678516d557831547336563344676134666866656f366a326252736147446d443856394b4e3547546e34766d62573745516d6352585034376f76394b6b4145574a575756416a42475050464a5542377462546771526876736e3674647366",
  "devdoc": {
    "methods": {
      "approve(address,uint256)": {
        "details": "See {IERC721-approve}."
      },
      "balanceOf(address)": {
        "details": "See {IERC721-balanceOf}."
      },
      "baseURI()": {
        "details": "Returns the base URI set via {_setBaseURI}. This will be automatically added as a prefix in {tokenURI} to each token's URI, or to the token ID if no specific URI is set for that token ID."
      },
      "burn(uint256)": {
        "details": "Burns `tokenId`. See {ERC721-_burn}.     * Requirements:     * - The caller must own `tokenId` or be an approved operator."
      },
      "getApproved(uint256)": {
        "details": "See {IERC721-getApproved}."
      },
      "getRoleAdmin(bytes32)": {
        "details": "Returns the admin role that controls `role`. See {grantRole} and {revokeRole}.     * To change a role's admin, use {_setRoleAdmin}."
      },
      "getRoleMember(bytes32,uint256)": {
        "details": "Returns one of the accounts that have `role`. `index` must be a value between 0 and {getRoleMemberCount}, non-inclusive.     * Role bearers are not sorted in any particular way, and their ordering may change at any point.     * WARNING: When using {getRoleMember} and {getRoleMemberCount}, make sure you perform all queries on the same block. See the following https://forum.openzeppelin.com/t/iterating-over-elements-on-enumerableset-in-openzeppelin-contracts/2296[forum post] for more information."
      },
      "getRoleMemberCount(bytes32)": {
        "details": "Returns the number of accounts that have `role`. Can be used together with {getRoleMember} to enumerate all bearers of a role."
      },
      "grantRole(bytes32,address)": {
        "details": "Grants `role` to `account`.     * If `account` had not been already granted `role`, emits a {RoleGranted} event.     * Requirements:     * - the caller must have ``role``'s admin role."
      },
      "hasRole(bytes32,address)": {
        "details": "Returns `true` if `account` has been granted `role`."
      },
      "isApprovedForAll(address,address)": {
        "details": "See {IERC721-isApprovedForAll}."
      },
      "mint(address)": {
        "details": "Creates a new token for `to`. Its token ID will be automatically assigned (and available on the emitted {IERC721-Transfer} event), and the token URI autogenerated based on the base URI passed at construction.     * See {ERC721-_mint}.     * Requirements:     * - the caller must have the `MINTER_ROLE`."
      },
      "name()": {
        "details": "See {IERC721Metadata-name}."
      },
      "owner()": {
        "details": "Returns the address of the current owner."
      },
      "ownerOf(uint256)": {
        "details": "See {IERC721-ownerOf}."
      },
      "pause()": {
        "details": "Pauses all token transfers.     * See {ERC721Pausable} and {Pausable-_pause}.     * Requirements:     * - the caller must have the `PAUSER_ROLE`."
      },
      "paused()": {
        "details": "Returns true if the contract is paused, and false otherwise."
      },
      "renounceOwnership()": {
        "details": "Leaves the contract without owner. It will not be possible to call `onlyOwner` functions anymore. Can only be called by the current owner.     * NOTE: Renouncing ownership will leave the contract without an owner, thereby removing any functionality that is only available to the owner."
      },
      "renounceRole(bytes32,address)": {
        "details": "Revokes `role` from the calling account.     * Roles are often managed via {grantRole} and {revokeRole}: this function's purpose is to provide a mechanism for accounts to lose their privileges if they are compromised (such as when a trusted device is misplaced).     * If the calling account had been granted `role`, emits a {RoleRevoked} event.     * Requirements:     * - the caller must be `account`."
      },
      "revokeRole(bytes32,address)": {
        "details": "Revokes `role` from `account`.     * If `account` had been granted `role`, emits a {RoleRevoked} event.     * Requirements:     * - the caller must have ``role``'s admin role."
      },
      "safeTransferFrom(address,address,uint256)": {
        "details": "See {IERC721-safeTransferFrom}."
      },
      "safeTransferFrom(address,address,uint256,bytes)": {
        "details": "See {IERC721-safeTransferFrom}."
      },
      "setApprovalForAll(address,bool)": {
        "details": "See {IERC721-setApprovalForAll}."
      },
      "supportsInterface(bytes4)": {
        "details": "See {IERC165-supportsInterface}.     * Time complexity O(1), guaranteed to always use less than 30 000 gas."
      },
      "symbol()": {
        "details": "See {IERC721Metadata-symbol}."
      },
      "tokenByIndex(uint256)": {
        "details": "See {IERC721Enumerable-tokenByIndex}."
      },
      "tokenOfOwnerByIndex(address,uint256)": {
        "details": "See {IERC721Enumerable-tokenOfOwnerByIndex}."
      },
      "totalSupply()": {
        "details": "See {IERC721Enumerable-totalSupply}."
      },
      "transferFrom(address,address,uint256)": {
        "details": "See {IERC721-transferFrom}."
      },
      "transferOwnership(address)": {
        "details": "Transfers ownership of the contract to a new account (`newOwner`). Can only be called by the current owner."
      },
      "unpause()": {
        "details": "Unpauses all token transfers.     * See {ERC721Pausable} and {Pausable-_unpause}.     * Requirements:     * - the caller must have the `PAUSER_ROLE`."
      }
    }
  },
  "userdoc": {
    "methods": {}
  },
  "storageLayout": {
    "storage": [
      {
        "astId": 546,
        "contract": "contracts/CryptOrchidERC721/CryptOrchidERC721.sol:CryptOrchidERC721",
        "label": "_roles",
        "offset": 0,
        "slot": "0",
        "type": "t_mapping(t_bytes32,t_struct(RoleData)542_storage)"
      },
      {
        "astId": 929,
        "contract": "contracts/CryptOrchidERC721/CryptOrchidERC721.sol:CryptOrchidERC721",
        "label": "_supportedInterfaces",
        "offset": 0,
        "slot": "1",
        "type": "t_mapping(t_bytes4,t_bool)"
      },
      {
        "astId": 2119,
        "contract": "contracts/CryptOrchidERC721/CryptOrchidERC721.sol:CryptOrchidERC721",
        "label": "_holderTokens",
        "offset": 0,
        "slot": "2",
        "type": "t_mapping(t_address,t_struct(UintSet)4602_storage)"
      },
      {
        "astId": 2121,
        "contract": "contracts/CryptOrchidERC721/CryptOrchidERC721.sol:CryptOrchidERC721",
        "label": "_tokenOwners",
        "offset": 0,
        "slot": "3",
        "type": "t_struct(UintToAddressMap)3979_storage"
      },
      {
        "astId": 2125,
        "contract": "contracts/CryptOrchidERC721/CryptOrchidERC721.sol:CryptOrchidERC721",
        "label": "_tokenApprovals",
        "offset": 0,
        "slot": "5",
        "type": "t_mapping(t_uint256,t_address)"
      },
      {
        "astId": 2131,
        "contract": "contracts/CryptOrchidERC721/CryptOrchidERC721.sol:CryptOrchidERC721",
        "label": "_operatorApprovals",
        "offset": 0,
        "slot": "6",
        "type": "t_mapping(t_address,t_mapping(t_address,t_bool))"
      },
      {
        "astId": 2133,
        "contract": "contracts/CryptOrchidERC721/CryptOrchidERC721.sol:CryptOrchidERC721",
        "label": "_name",
        "offset": 0,
        "slot": "7",
        "type": "t_string_storage"
      },
      {
        "astId": 2135,
        "contract": "contracts/CryptOrchidERC721/CryptOrchidERC721.sol:CryptOrchidERC721",
        "label": "_symbol",
        "offset": 0,
        "slot": "8",
        "type": "t_string_storage"
      },
      {
        "astId": 2139,
        "contract": "contracts/CryptOrchidERC721/CryptOrchidERC721.sol:CryptOrchidERC721",
        "label": "_tokenURIs",
        "offset": 0,
        "slot": "9",
        "type": "t_mapping(t_uint256,t_string_storage)"
      },
      {
        "astId": 2141,
        "contract": "contracts/CryptOrchidERC721/CryptOrchidERC721.sol:CryptOrchidERC721",
        "label": "_baseURI",
        "offset": 0,
        "slot": "10",
        "type": "t_string_storage"
      },
      {
        "astId": 4715,
        "contract": "contracts/CryptOrchidERC721/CryptOrchidERC721.sol:CryptOrchidERC721",
        "label": "_paused",
        "offset": 0,
        "slot": "11",
        "type": "t_bool"
      },
      {
        "astId": 1371,
        "contract": "contracts/CryptOrchidERC721/CryptOrchidERC721.sol:CryptOrchidERC721",
        "label": "_tokenIdTracker",
        "offset": 0,
        "slot": "12",
        "type": "t_struct(Counter)3605_storage"
      },
      {
        "astId": 814,
        "contract": "contracts/CryptOrchidERC721/CryptOrchidERC721.sol:CryptOrchidERC721",
        "label": "_owner",
        "offset": 0,
        "slot": "13",
        "type": "t_address"
      },
      {
        "astId": 81,
        "contract": "contracts/CryptOrchidERC721/CryptOrchidERC721.sol:CryptOrchidERC721",
        "label": "nonces",
        "offset": 0,
        "slot": "14",
        "type": "t_mapping(t_bytes32,t_uint256)"
      },
      {
        "astId": 4912,
        "contract": "contracts/CryptOrchidERC721/CryptOrchidERC721.sol:CryptOrchidERC721",
        "label": "cryptorchids",
        "offset": 0,
        "slot": "15",
        "type": "t_mapping(t_uint256,t_struct(CryptOrchid)4908_storage)"
      },
      {
        "astId": 4948,
        "contract": "contracts/CryptOrchidERC721/CryptOrchidERC721.sol:CryptOrchidERC721",
        "label": "limits",
        "offset": 0,
        "slot": "16",
        "type": "t_array(t_uint16)10_storage"
      },
      {
        "astId": 4963,
        "contract": "contracts/CryptOrchidERC721/CryptOrchidERC721.sol:CryptOrchidERC721",
        "label": "genum",
        "offset": 0,
        "slot": "17",
        "type": "t_array(t_string_storage)10_storage"
      },
      {
        "astId": 4978,
        "contract": "contracts/CryptOrchidERC721/CryptOrchidERC721.sol:CryptOrchidERC721",
        "label": "speciesIPFSConstant",
        "offset": 0,
        "slot": "27",
        "type": "t_array(t_string_storage)10_storage"
      },
      {
        "astId": 4980,
        "contract": "contracts/CryptOrchidERC721/CryptOrchidERC721.sol:CryptOrchidERC721",
        "label": "_tokenIds",
        "offset": 0,
        "slot": "37",
        "type": "t_struct(Counter)3605_storage"
      },
      {
        "astId": 4982,
        "contract": "contracts/CryptOrchidERC721/CryptOrchidERC721.sol:CryptOrchidERC721",
        "label": "creator",
        "offset": 0,
        "slot": "38",
        "type": "t_address_payable"
      },
      {
        "astId": 4984,
        "contract": "contracts/CryptOrchidERC721/CryptOrchidERC721.sol:CryptOrchidERC721",
        "label": "keyHash",
        "offset": 0,
        "slot": "39",
        "type": "t_bytes32"
      },
      {
        "astId": 4986,
        "contract": "contracts/CryptOrchidERC721/CryptOrchidERC721.sol:CryptOrchidERC721",
        "label": "vrfFee",
        "offset": 0,
        "slot": "40",
        "type": "t_uint256"
      },
      {
        "astId": 4988,
        "contract": "contracts/CryptOrchidERC721/CryptOrchidERC721.sol:CryptOrchidERC721",
        "label": "randomResult",
        "offset": 0,
        "slot": "41",
        "type": "t_uint256"
      },
      {
        "astId": 4990,
        "contract": "contracts/CryptOrchidERC721/CryptOrchidERC721.sol:CryptOrchidERC721",
        "label": "VRFCoordinator",
        "offset": 0,
        "slot": "42",
        "type": "t_address"
      },
      {
        "astId": 4992,
        "contract": "contracts/CryptOrchidERC721/CryptOrchidERC721.sol:CryptOrchidERC721",
        "label": "LinkToken",
        "offset": 0,
        "slot": "43",
        "type": "t_address"
      },
      {
        "astId": 5014,
        "contract": "contracts/CryptOrchidERC721/CryptOrchidERC721.sol:CryptOrchidERC721",
        "label": "requestToToken",
        "offset": 0,
        "slot": "44",
        "type": "t_mapping(t_bytes32,t_uint256)"
      },
      {
        "astId": 5018,
        "contract": "contracts/CryptOrchidERC721/CryptOrchidERC721.sol:CryptOrchidERC721",
        "label": "speciesIPFS",
        "offset": 0,
        "slot": "45",
        "type": "t_mapping(t_bytes32,t_string_storage)"
      }
    ],
    "types": {
      "t_address": {
        "encoding": "inplace",
        "label": "address",
        "numberOfBytes": "20"
      },
      "t_address_payable": {
        "encoding": "inplace",
        "label": "address payable",
        "numberOfBytes": "20"
      },
      "t_array(t_bytes32)dyn_storage": {
        "base": "t_bytes32",
        "encoding": "dynamic_array",
        "label": "bytes32[]",
        "numberOfBytes": "32"
      },
      "t_array(t_string_storage)10_storage": {
        "base": "t_string_storage",
        "encoding": "inplace",
        "label": "string[10]",
        "numberOfBytes": "320"
      },
      "t_array(t_struct(MapEntry)3653_storage)dyn_storage": {
        "base": "t_struct(MapEntry)3653_storage",
        "encoding": "dynamic_array",
        "label": "struct EnumerableMap.MapEntry[]",
        "numberOfBytes": "32"
      },
      "t_array(t_uint16)10_storage": {
        "base": "t_uint16",
        "encoding": "inplace",
        "label": "uint16[10]",
        "numberOfBytes": "32"
      },
      "t_bool": {
        "encoding": "inplace",
        "label": "bool",
        "numberOfBytes": "1"
      },
      "t_bytes32": {
        "encoding": "inplace",
        "label": "bytes32",
        "numberOfBytes": "32"
      },
      "t_bytes4": {
        "encoding": "inplace",
        "label": "bytes4",
        "numberOfBytes": "4"
      },
      "t_mapping(t_address,t_bool)": {
        "encoding": "mapping",
        "key": "t_address",
        "label": "mapping(address => bool)",
        "numberOfBytes": "32",
        "value": "t_bool"
      },
      "t_mapping(t_address,t_mapping(t_address,t_bool))": {
        "encoding": "mapping",
        "key": "t_address",
        "label": "mapping(address => mapping(address => bool))",
        "numberOfBytes": "32",
        "value": "t_mapping(t_address,t_bool)"
      },
      "t_mapping(t_address,t_struct(UintSet)4602_storage)": {
        "encoding": "mapping",
        "key": "t_address",
        "label": "mapping(address => struct EnumerableSet.UintSet)",
        "numberOfBytes": "32",
        "value": "t_struct(UintSet)4602_storage"
      },
      "t_mapping(t_bytes32,t_string_storage)": {
        "encoding": "mapping",
        "key": "t_bytes32",
        "label": "mapping(bytes32 => string)",
        "numberOfBytes": "32",
        "value": "t_string_storage"
      },
      "t_mapping(t_bytes32,t_struct(RoleData)542_storage)": {
        "encoding": "mapping",
        "key": "t_bytes32",
        "label": "mapping(bytes32 => struct AccessControl.RoleData)",
        "numberOfBytes": "32",
        "value": "t_struct(RoleData)542_storage"
      },
      "t_mapping(t_bytes32,t_uint256)": {
        "encoding": "mapping",
        "key": "t_bytes32",
        "label": "mapping(bytes32 => uint256)",
        "numberOfBytes": "32",
        "value": "t_uint256"
      },
      "t_mapping(t_bytes4,t_bool)": {
        "encoding": "mapping",
        "key": "t_bytes4",
        "label": "mapping(bytes4 => bool)",
        "numberOfBytes": "32",
        "value": "t_bool"
      },
      "t_mapping(t_uint256,t_address)": {
        "encoding": "mapping",
        "key": "t_uint256",
        "label": "mapping(uint256 => address)",
        "numberOfBytes": "32",
        "value": "t_address"
      },
      "t_mapping(t_uint256,t_string_storage)": {
        "encoding": "mapping",
        "key": "t_uint256",
        "label": "mapping(uint256 => string)",
        "numberOfBytes": "32",
        "value": "t_string_storage"
      },
      "t_mapping(t_uint256,t_struct(CryptOrchid)4908_storage)": {
        "encoding": "mapping",
        "key": "t_uint256",
        "label": "mapping(uint256 => struct CryptOrchidERC721.CryptOrchid)",
        "numberOfBytes": "32",
        "value": "t_struct(CryptOrchid)4908_storage"
      },
      "t_string_storage": {
        "encoding": "bytes",
        "label": "string",
        "numberOfBytes": "32"
      },
      "t_struct(AddressSet)4481_storage": {
        "encoding": "inplace",
        "label": "struct EnumerableSet.AddressSet",
        "members": [
          {
            "astId": 4480,
            "contract": "contracts/CryptOrchidERC721/CryptOrchidERC721.sol:CryptOrchidERC721",
            "label": "_inner",
            "offset": 0,
            "slot": "0",
            "type": "t_struct(Set)4216_storage"
          }
        ],
        "numberOfBytes": "64"
      },
      "t_struct(Counter)3605_storage": {
        "encoding": "inplace",
        "label": "struct Counters.Counter",
        "members": [
          {
            "astId": 3604,
            "contract": "contracts/CryptOrchidERC721/CryptOrchidERC721.sol:CryptOrchidERC721",
            "label": "_value",
            "offset": 0,
            "slot": "0",
            "type": "t_uint256"
          }
        ],
        "numberOfBytes": "32"
      },
      "t_struct(CryptOrchid)4908_storage": {
        "encoding": "inplace",
        "label": "struct CryptOrchidERC721.CryptOrchid",
        "members": [
          {
            "astId": 4903,
            "contract": "contracts/CryptOrchidERC721/CryptOrchidERC721.sol:CryptOrchidERC721",
            "label": "species",
            "offset": 0,
            "slot": "0",
            "type": "t_string_storage"
          },
          {
            "astId": 4905,
            "contract": "contracts/CryptOrchidERC721/CryptOrchidERC721.sol:CryptOrchidERC721",
            "label": "plantedAt",
            "offset": 0,
            "slot": "1",
            "type": "t_uint256"
          },
          {
            "astId": 4907,
            "contract": "contracts/CryptOrchidERC721/CryptOrchidERC721.sol:CryptOrchidERC721",
            "label": "waterLevel",
            "offset": 0,
            "slot": "2",
            "type": "t_uint256"
          }
        ],
        "numberOfBytes": "96"
      },
      "t_struct(Map)3661_storage": {
        "encoding": "inplace",
        "label": "struct EnumerableMap.Map",
        "members": [
          {
            "astId": 3656,
            "contract": "contracts/CryptOrchidERC721/CryptOrchidERC721.sol:CryptOrchidERC721",
            "label": "_entries",
            "offset": 0,
            "slot": "0",
            "type": "t_array(t_struct(MapEntry)3653_storage)dyn_storage"
          },
          {
            "astId": 3660,
            "contract": "contracts/CryptOrchidERC721/CryptOrchidERC721.sol:CryptOrchidERC721",
            "label": "_indexes",
            "offset": 0,
            "slot": "1",
            "type": "t_mapping(t_bytes32,t_uint256)"
          }
        ],
        "numberOfBytes": "64"
      },
      "t_struct(MapEntry)3653_storage": {
        "encoding": "inplace",
        "label": "struct EnumerableMap.MapEntry",
        "members": [
          {
            "astId": 3650,
            "contract": "contracts/CryptOrchidERC721/CryptOrchidERC721.sol:CryptOrchidERC721",
            "label": "_key",
            "offset": 0,
            "slot": "0",
            "type": "t_bytes32"
          },
          {
            "astId": 3652,
            "contract": "contracts/CryptOrchidERC721/CryptOrchidERC721.sol:CryptOrchidERC721",
            "label": "_value",
            "offset": 0,
            "slot": "1",
            "type": "t_bytes32"
          }
        ],
        "numberOfBytes": "64"
      },
      "t_struct(RoleData)542_storage": {
        "encoding": "inplace",
        "label": "struct AccessControl.RoleData",
        "members": [
          {
            "astId": 539,
            "contract": "contracts/CryptOrchidERC721/CryptOrchidERC721.sol:CryptOrchidERC721",
            "label": "members",
            "offset": 0,
            "slot": "0",
            "type": "t_struct(AddressSet)4481_storage"
          },
          {
            "astId": 541,
            "contract": "contracts/CryptOrchidERC721/CryptOrchidERC721.sol:CryptOrchidERC721",
            "label": "adminRole",
            "offset": 0,
            "slot": "2",
            "type": "t_bytes32"
          }
        ],
        "numberOfBytes": "96"
      },
      "t_struct(Set)4216_storage": {
        "encoding": "inplace",
        "label": "struct EnumerableSet.Set",
        "members": [
          {
            "astId": 4211,
            "contract": "contracts/CryptOrchidERC721/CryptOrchidERC721.sol:CryptOrchidERC721",
            "label": "_values",
            "offset": 0,
            "slot": "0",
            "type": "t_array(t_bytes32)dyn_storage"
          },
          {
            "astId": 4215,
            "contract": "contracts/CryptOrchidERC721/CryptOrchidERC721.sol:CryptOrchidERC721",
            "label": "_indexes",
            "offset": 0,
            "slot": "1",
            "type": "t_mapping(t_bytes32,t_uint256)"
          }
        ],
        "numberOfBytes": "64"
      },
      "t_struct(UintSet)4602_storage": {
        "encoding": "inplace",
        "label": "struct EnumerableSet.UintSet",
        "members": [
          {
            "astId": 4601,
            "contract": "contracts/CryptOrchidERC721/CryptOrchidERC721.sol:CryptOrchidERC721",
            "label": "_inner",
            "offset": 0,
            "slot": "0",
            "type": "t_struct(Set)4216_storage"
          }
        ],
        "numberOfBytes": "64"
      },
      "t_struct(UintToAddressMap)3979_storage": {
        "encoding": "inplace",
        "label": "struct EnumerableMap.UintToAddressMap",
        "members": [
          {
            "astId": 3978,
            "contract": "contracts/CryptOrchidERC721/CryptOrchidERC721.sol:CryptOrchidERC721",
            "label": "_inner",
            "offset": 0,
            "slot": "0",
            "type": "t_struct(Map)3661_storage"
          }
        ],
        "numberOfBytes": "64"
      },
      "t_uint16": {
        "encoding": "inplace",
        "label": "uint16",
        "numberOfBytes": "2"
      },
      "t_uint256": {
        "encoding": "inplace",
        "label": "uint256",
        "numberOfBytes": "32"
      }
    }
  }
}