{
  "address": "0x010D59DC989f6cFdDBb0d0E5A9c9Be0c1CF9840F",
  "abi": [
    {
      "inputs": [
        {
          "internalType": "address",
          "name": "_VRFCoordinator",
          "type": "address"
        },
        {
          "internalType": "address",
          "name": "_LinkToken",
          "type": "address"
        },
        {
          "internalType": "bytes32",
          "name": "_keyhash",
          "type": "bytes32"
        }
      ],
      "stateMutability": "payable",
      "type": "constructor"
    },
    {
      "anonymous": false,
      "inputs": [
        {
          "indexed": true,
          "internalType": "address",
          "name": "owner",
          "type": "address"
        },
        {
          "indexed": true,
          "internalType": "address",
          "name": "approved",
          "type": "address"
        },
        {
          "indexed": true,
          "internalType": "uint256",
          "name": "tokenId",
          "type": "uint256"
        }
      ],
      "name": "Approval",
      "type": "event"
    },
    {
      "anonymous": false,
      "inputs": [
        {
          "indexed": true,
          "internalType": "address",
          "name": "owner",
          "type": "address"
        },
        {
          "indexed": true,
          "internalType": "address",
          "name": "operator",
          "type": "address"
        },
        {
          "indexed": false,
          "internalType": "bool",
          "name": "approved",
          "type": "bool"
        }
      ],
      "name": "ApprovalForAll",
      "type": "event"
    },
    {
      "anonymous": false,
      "inputs": [
        {
          "indexed": false,
          "internalType": "uint256",
          "name": "tokenId",
          "type": "uint256"
        }
      ],
      "name": "Killed",
      "type": "event"
    },
    {
      "anonymous": false,
      "inputs": [
        {
          "indexed": true,
          "internalType": "address",
          "name": "previousOwner",
          "type": "address"
        },
        {
          "indexed": true,
          "internalType": "address",
          "name": "newOwner",
          "type": "address"
        }
      ],
      "name": "OwnershipTransferred",
      "type": "event"
    },
    {
      "anonymous": false,
      "inputs": [
        {
          "indexed": false,
          "internalType": "address",
          "name": "account",
          "type": "address"
        }
      ],
      "name": "Paused",
      "type": "event"
    },
    {
      "anonymous": false,
      "inputs": [
        {
          "indexed": false,
          "internalType": "uint256",
          "name": "tokenId",
          "type": "uint256"
        },
        {
          "indexed": false,
          "internalType": "string",
          "name": "latinSpecies",
          "type": "string"
        },
        {
          "indexed": false,
          "internalType": "uint256",
          "name": "timestamp",
          "type": "uint256"
        },
        {
          "indexed": false,
          "internalType": "address",
          "name": "tokenOwner",
          "type": "address"
        }
      ],
      "name": "Planted",
      "type": "event"
    },
    {
      "anonymous": false,
      "inputs": [
        {
          "indexed": false,
          "internalType": "bytes32",
          "name": "requestId",
          "type": "bytes32"
        }
      ],
      "name": "RequestedRandomness",
      "type": "event"
    },
    {
      "anonymous": false,
      "inputs": [
        {
          "indexed": true,
          "internalType": "bytes32",
          "name": "role",
          "type": "bytes32"
        },
        {
          "indexed": true,
          "internalType": "bytes32",
          "name": "previousAdminRole",
          "type": "bytes32"
        },
        {
          "indexed": true,
          "internalType": "bytes32",
          "name": "newAdminRole",
          "type": "bytes32"
        }
      ],
      "name": "RoleAdminChanged",
      "type": "event"
    },
    {
      "anonymous": false,
      "inputs": [
        {
          "indexed": true,
          "internalType": "bytes32",
          "name": "role",
          "type": "bytes32"
        },
        {
          "indexed": true,
          "internalType": "address",
          "name": "account",
          "type": "address"
        },
        {
          "indexed": true,
          "internalType": "address",
          "name": "sender",
          "type": "address"
        }
      ],
      "name": "RoleGranted",
      "type": "event"
    },
    {
      "anonymous": false,
      "inputs": [
        {
          "indexed": true,
          "internalType": "bytes32",
          "name": "role",
          "type": "bytes32"
        },
        {
          "indexed": true,
          "internalType": "address",
          "name": "account",
          "type": "address"
        },
        {
          "indexed": true,
          "internalType": "address",
          "name": "sender",
          "type": "address"
        }
      ],
      "name": "RoleRevoked",
      "type": "event"
    },
    {
      "anonymous": false,
      "inputs": [
        {
          "indexed": true,
          "internalType": "address",
          "name": "from",
          "type": "address"
        },
        {
          "indexed": true,
          "internalType": "address",
          "name": "to",
          "type": "address"
        },
        {
          "indexed": true,
          "internalType": "uint256",
          "name": "tokenId",
          "type": "uint256"
        }
      ],
      "name": "Transfer",
      "type": "event"
    },
    {
      "anonymous": false,
      "inputs": [
        {
          "indexed": false,
          "internalType": "address",
          "name": "account",
          "type": "address"
        }
      ],
      "name": "Unpaused",
      "type": "event"
    },
    {
      "anonymous": false,
      "inputs": [
        {
          "indexed": false,
          "internalType": "uint256",
          "name": "tokenId",
          "type": "uint256"
        },
        {
          "indexed": false,
          "internalType": "uint256",
          "name": "waterLevel",
          "type": "uint256"
        }
      ],
      "name": "Watered",
      "type": "event"
    },
    {
      "inputs": [],
      "name": "DEFAULT_ADMIN_ROLE",
      "outputs": [
        {
          "internalType": "bytes32",
          "name": "",
          "type": "bytes32"
        }
      ],
      "stateMutability": "view",
      "type": "function"
    },
    {
      "inputs": [],
      "name": "GROWTH_CYCLE",
      "outputs": [
        {
          "internalType": "uint256",
          "name": "",
          "type": "uint256"
        }
      ],
      "stateMutability": "view",
      "type": "function"
    },
    {
      "inputs": [],
      "name": "LinkToken",
      "outputs": [
        {
          "internalType": "address",
          "name": "",
          "type": "address"
        }
      ],
      "stateMutability": "view",
      "type": "function"
    },
    {
      "inputs": [],
      "name": "MAX_CRYPTORCHIDS",
      "outputs": [
        {
          "internalType": "uint256",
          "name": "",
          "type": "uint256"
        }
      ],
      "stateMutability": "view",
      "type": "function"
    },
    {
      "inputs": [],
      "name": "MINTER_ROLE",
      "outputs": [
        {
          "internalType": "bytes32",
          "name": "",
          "type": "bytes32"
        }
      ],
      "stateMutability": "view",
      "type": "function"
    },
    {
      "inputs": [],
      "name": "PAUSER_ROLE",
      "outputs": [
        {
          "internalType": "bytes32",
          "name": "",
          "type": "bytes32"
        }
      ],
      "stateMutability": "view",
      "type": "function"
    },
    {
      "inputs": [],
      "name": "VRFCoordinator",
      "outputs": [
        {
          "internalType": "address",
          "name": "",
          "type": "address"
        }
      ],
      "stateMutability": "view",
      "type": "function"
    },
    {
      "inputs": [],
      "name": "WATERING_WINDOW",
      "outputs": [
        {
          "internalType": "uint256",
          "name": "",
          "type": "uint256"
        }
      ],
      "stateMutability": "view",
      "type": "function"
    },
    {
      "inputs": [
        {
          "internalType": "uint256",
          "name": "tokenId",
          "type": "uint256"
        }
      ],
      "name": "alive",
      "outputs": [
        {
          "internalType": "bool",
          "name": "",
          "type": "bool"
        }
      ],
      "stateMutability": "view",
      "type": "function"
    },
    {
      "inputs": [
        {
          "internalType": "address",
          "name": "to",
          "type": "address"
        },
        {
          "internalType": "uint256",
          "name": "tokenId",
          "type": "uint256"
        }
      ],
      "name": "approve",
      "outputs": [],
      "stateMutability": "nonpayable",
      "type": "function"
    },
    {
      "inputs": [
        {
          "internalType": "address",
          "name": "owner",
          "type": "address"
        }
      ],
      "name": "balanceOf",
      "outputs": [
        {
          "internalType": "uint256",
          "name": "",
          "type": "uint256"
        }
      ],
      "stateMutability": "view",
      "type": "function"
    },
    {
      "inputs": [],
      "name": "baseURI",
      "outputs": [
        {
          "internalType": "string",
          "name": "",
          "type": "string"
        }
      ],
      "stateMutability": "view",
      "type": "function"
    },
    {
      "inputs": [
        {
          "internalType": "uint256",
          "name": "tokenId",
          "type": "uint256"
        }
      ],
      "name": "burn",
      "outputs": [],
      "stateMutability": "nonpayable",
      "type": "function"
    },
    {
      "inputs": [
        {
          "internalType": "uint256",
          "name": "tokenId",
          "type": "uint256"
        }
      ],
      "name": "compost",
      "outputs": [],
      "stateMutability": "nonpayable",
      "type": "function"
    },
    {
      "inputs": [
        {
          "internalType": "uint256",
          "name": "",
          "type": "uint256"
        }
      ],
      "name": "cryptorchids",
      "outputs": [
        {
          "internalType": "string",
          "name": "species",
          "type": "string"
        },
        {
          "internalType": "uint256",
          "name": "plantedAt",
          "type": "uint256"
        },
        {
          "internalType": "uint256",
          "name": "waterLevel",
          "type": "uint256"
        }
      ],
      "stateMutability": "view",
      "type": "function"
    },
    {
      "inputs": [],
      "name": "currentPrice",
      "outputs": [
        {
          "internalType": "uint256",
          "name": "price",
          "type": "uint256"
        }
      ],
      "stateMutability": "view",
      "type": "function"
    },
    {
      "inputs": [
        {
          "internalType": "uint256",
          "name": "tokenId",
          "type": "uint256"
        }
      ],
      "name": "flowering",
      "outputs": [
        {
          "internalType": "bool",
          "name": "",
          "type": "bool"
        }
      ],
      "stateMutability": "view",
      "type": "function"
    },
    {
      "inputs": [
        {
          "internalType": "uint256",
          "name": "tokenId",
          "type": "uint256"
        },
        {
          "internalType": "uint256",
          "name": "userProvidedSeed",
          "type": "uint256"
        }
      ],
      "name": "germinate",
      "outputs": [],
      "stateMutability": "nonpayable",
      "type": "function"
    },
    {
      "inputs": [
        {
          "internalType": "uint256",
          "name": "tokenId",
          "type": "uint256"
        }
      ],
      "name": "getApproved",
      "outputs": [
        {
          "internalType": "address",
          "name": "",
          "type": "address"
        }
      ],
      "stateMutability": "view",
      "type": "function"
    },
    {
      "inputs": [
        {
          "internalType": "bytes32",
          "name": "role",
          "type": "bytes32"
        }
      ],
      "name": "getRoleAdmin",
      "outputs": [
        {
          "internalType": "bytes32",
          "name": "",
          "type": "bytes32"
        }
      ],
      "stateMutability": "view",
      "type": "function"
    },
    {
      "inputs": [
        {
          "internalType": "bytes32",
          "name": "role",
          "type": "bytes32"
        },
        {
          "internalType": "uint256",
          "name": "index",
          "type": "uint256"
        }
      ],
      "name": "getRoleMember",
      "outputs": [
        {
          "internalType": "address",
          "name": "",
          "type": "address"
        }
      ],
      "stateMutability": "view",
      "type": "function"
    },
    {
      "inputs": [
        {
          "internalType": "bytes32",
          "name": "role",
          "type": "bytes32"
        }
      ],
      "name": "getRoleMemberCount",
      "outputs": [
        {
          "internalType": "uint256",
          "name": "",
          "type": "uint256"
        }
      ],
      "stateMutability": "view",
      "type": "function"
    },
    {
      "inputs": [
        {
          "internalType": "uint256",
          "name": "tokenId",
          "type": "uint256"
        }
      ],
      "name": "getTokenMetadata",
      "outputs": [
        {
          "internalType": "string",
          "name": "",
          "type": "string"
        },
        {
          "internalType": "uint256",
          "name": "",
          "type": "uint256"
        },
        {
          "internalType": "uint256",
          "name": "",
          "type": "uint256"
        }
      ],
      "stateMutability": "view",
      "type": "function"
    },
    {
      "inputs": [
        {
          "internalType": "bytes32",
          "name": "role",
          "type": "bytes32"
        },
        {
          "internalType": "address",
          "name": "account",
          "type": "address"
        }
      ],
      "name": "grantRole",
      "outputs": [],
      "stateMutability": "nonpayable",
      "type": "function"
    },
    {
      "inputs": [
        {
          "internalType": "uint256",
          "name": "tokenId",
          "type": "uint256"
        }
      ],
      "name": "growthStage",
      "outputs": [
        {
          "internalType": "enum CryptOrchidERC721.Stage",
          "name": "",
          "type": "uint8"
        }
      ],
      "stateMutability": "view",
      "type": "function"
    },
    {
      "inputs": [
        {
          "internalType": "bytes32",
          "name": "role",
          "type": "bytes32"
        },
        {
          "internalType": "address",
          "name": "account",
          "type": "address"
        }
      ],
      "name": "hasRole",
      "outputs": [
        {
          "internalType": "bool",
          "name": "",
          "type": "bool"
        }
      ],
      "stateMutability": "view",
      "type": "function"
    },
    {
      "inputs": [
        {
          "internalType": "uint256",
          "name": "tokenId",
          "type": "uint256"
        }
      ],
      "name": "heartbeat",
      "outputs": [],
      "stateMutability": "nonpayable",
      "type": "function"
    },
    {
      "inputs": [
        {
          "internalType": "address",
          "name": "owner",
          "type": "address"
        },
        {
          "internalType": "address",
          "name": "operator",
          "type": "address"
        }
      ],
      "name": "isApprovedForAll",
      "outputs": [
        {
          "internalType": "bool",
          "name": "",
          "type": "bool"
        }
      ],
      "stateMutability": "view",
      "type": "function"
    },
    {
      "inputs": [
        {
          "internalType": "address",
          "name": "to",
          "type": "address"
        }
      ],
      "name": "mint",
      "outputs": [],
      "stateMutability": "nonpayable",
      "type": "function"
    },
    {
      "inputs": [],
      "name": "name",
      "outputs": [
        {
          "internalType": "string",
          "name": "",
          "type": "string"
        }
      ],
      "stateMutability": "view",
      "type": "function"
    },
    {
      "inputs": [],
      "name": "owner",
      "outputs": [
        {
          "internalType": "address",
          "name": "",
          "type": "address"
        }
      ],
      "stateMutability": "view",
      "type": "function"
    },
    {
      "inputs": [
        {
          "internalType": "uint256",
          "name": "tokenId",
          "type": "uint256"
        }
      ],
      "name": "ownerOf",
      "outputs": [
        {
          "internalType": "address",
          "name": "",
          "type": "address"
        }
      ],
      "stateMutability": "view",
      "type": "function"
    },
    {
      "inputs": [],
      "name": "pause",
      "outputs": [],
      "stateMutability": "nonpayable",
      "type": "function"
    },
    {
      "inputs": [],
      "name": "paused",
      "outputs": [
        {
          "internalType": "bool",
          "name": "",
          "type": "bool"
        }
      ],
      "stateMutability": "view",
      "type": "function"
    },
    {
      "inputs": [],
      "name": "randomResult",
      "outputs": [
        {
          "internalType": "uint256",
          "name": "",
          "type": "uint256"
        }
      ],
      "stateMutability": "view",
      "type": "function"
    },
    {
      "inputs": [
        {
          "internalType": "bytes32",
          "name": "requestId",
          "type": "bytes32"
        },
        {
          "internalType": "uint256",
          "name": "randomness",
          "type": "uint256"
        }
      ],
      "name": "rawFulfillRandomness",
      "outputs": [],
      "stateMutability": "nonpayable",
      "type": "function"
    },
    {
      "inputs": [],
      "name": "renounceOwnership",
      "outputs": [],
      "stateMutability": "nonpayable",
      "type": "function"
    },
    {
      "inputs": [
        {
          "internalType": "bytes32",
          "name": "role",
          "type": "bytes32"
        },
        {
          "internalType": "address",
          "name": "account",
          "type": "address"
        }
      ],
      "name": "renounceRole",
      "outputs": [],
      "stateMutability": "nonpayable",
      "type": "function"
    },
    {
      "inputs": [
        {
          "internalType": "bytes32",
          "name": "",
          "type": "bytes32"
        }
      ],
      "name": "requestToToken",
      "outputs": [
        {
          "internalType": "uint256",
          "name": "",
          "type": "uint256"
        }
      ],
      "stateMutability": "view",
      "type": "function"
    },
    {
      "inputs": [
        {
          "internalType": "bytes32",
          "name": "role",
          "type": "bytes32"
        },
        {
          "internalType": "address",
          "name": "account",
          "type": "address"
        }
      ],
      "name": "revokeRole",
      "outputs": [],
      "stateMutability": "nonpayable",
      "type": "function"
    },
    {
      "inputs": [
        {
          "internalType": "address",
          "name": "from",
          "type": "address"
        },
        {
          "internalType": "address",
          "name": "to",
          "type": "address"
        },
        {
          "internalType": "uint256",
          "name": "tokenId",
          "type": "uint256"
        }
      ],
      "name": "safeTransferFrom",
      "outputs": [],
      "stateMutability": "nonpayable",
      "type": "function"
    },
    {
      "inputs": [
        {
          "internalType": "address",
          "name": "from",
          "type": "address"
        },
        {
          "internalType": "address",
          "name": "to",
          "type": "address"
        },
        {
          "internalType": "uint256",
          "name": "tokenId",
          "type": "uint256"
        },
        {
          "internalType": "bytes",
          "name": "_data",
          "type": "bytes"
        }
      ],
      "name": "safeTransferFrom",
      "outputs": [],
      "stateMutability": "nonpayable",
      "type": "function"
    },
    {
      "inputs": [
        {
          "internalType": "address",
          "name": "operator",
          "type": "address"
        },
        {
          "internalType": "bool",
          "name": "approved",
          "type": "bool"
        }
      ],
      "name": "setApprovalForAll",
      "outputs": [],
      "stateMutability": "nonpayable",
      "type": "function"
    },
    {
      "inputs": [],
      "name": "startSale",
      "outputs": [],
      "stateMutability": "nonpayable",
      "type": "function"
    },
    {
      "inputs": [
        {
          "internalType": "bytes4",
          "name": "interfaceId",
          "type": "bytes4"
        }
      ],
      "name": "supportsInterface",
      "outputs": [
        {
          "internalType": "bool",
          "name": "",
          "type": "bool"
        }
      ],
      "stateMutability": "view",
      "type": "function"
    },
    {
      "inputs": [],
      "name": "symbol",
      "outputs": [
        {
          "internalType": "string",
          "name": "",
          "type": "string"
        }
      ],
      "stateMutability": "view",
      "type": "function"
    },
    {
      "inputs": [
        {
          "internalType": "uint256",
          "name": "index",
          "type": "uint256"
        }
      ],
      "name": "tokenByIndex",
      "outputs": [
        {
          "internalType": "uint256",
          "name": "",
          "type": "uint256"
        }
      ],
      "stateMutability": "view",
      "type": "function"
    },
    {
      "inputs": [
        {
          "internalType": "address",
          "name": "owner",
          "type": "address"
        },
        {
          "internalType": "uint256",
          "name": "index",
          "type": "uint256"
        }
      ],
      "name": "tokenOfOwnerByIndex",
      "outputs": [
        {
          "internalType": "uint256",
          "name": "",
          "type": "uint256"
        }
      ],
      "stateMutability": "view",
      "type": "function"
    },
    {
      "inputs": [
        {
          "internalType": "uint256",
          "name": "tokenId",
          "type": "uint256"
        }
      ],
      "name": "tokenURI",
      "outputs": [
        {
          "internalType": "string",
          "name": "",
          "type": "string"
        }
      ],
      "stateMutability": "view",
      "type": "function"
    },
    {
      "inputs": [],
      "name": "totalSupply",
      "outputs": [
        {
          "internalType": "uint256",
          "name": "",
          "type": "uint256"
        }
      ],
      "stateMutability": "view",
      "type": "function"
    },
    {
      "inputs": [
        {
          "internalType": "address",
          "name": "from",
          "type": "address"
        },
        {
          "internalType": "address",
          "name": "to",
          "type": "address"
        },
        {
          "internalType": "uint256",
          "name": "tokenId",
          "type": "uint256"
        }
      ],
      "name": "transferFrom",
      "outputs": [],
      "stateMutability": "nonpayable",
      "type": "function"
    },
    {
      "inputs": [
        {
          "internalType": "address",
          "name": "newOwner",
          "type": "address"
        }
      ],
      "name": "transferOwnership",
      "outputs": [],
      "stateMutability": "nonpayable",
      "type": "function"
    },
    {
      "inputs": [],
      "name": "unpause",
      "outputs": [],
      "stateMutability": "nonpayable",
      "type": "function"
    },
    {
      "inputs": [
        {
          "internalType": "uint256",
          "name": "tokenId",
          "type": "uint256"
        }
      ],
      "name": "water",
      "outputs": [],
      "stateMutability": "nonpayable",
      "type": "function"
    },
    {
      "inputs": [
        {
          "internalType": "uint256",
          "name": "units",
          "type": "uint256"
        }
      ],
      "name": "webMint",
      "outputs": [],
      "stateMutability": "payable",
      "type": "function"
    },
    {
      "inputs": [],
      "name": "withdraw",
      "outputs": [],
      "stateMutability": "nonpayable",
      "type": "function"
    },
    {
      "stateMutability": "payable",
      "type": "receive"
    }
  ],
  "transactionHash": "0x107ac6879b25042a2ca1dee0fa3f051fd8bbb1c3cb3eaa2351f108770710ba21",
  "args": [
    "0xb3dCcb4Cf7a26f6cf6B120Cf5A73875B7BBc655B",
    "0x01be23585060835e02b77ef475b0cc51aa1e0709",
    "0x2ed0feb3e7fd2022120aa84fab1945545a9f2ffc9076fd6156fa96eaff4c1311"
  ],
  "solcInputHash": "261c42ad656d6d7a077295518ceab8b4",
  "bytecode": "0x6010805460ff19169055610200604052600060c0908152610c0260e0526117ba61010052611f8a610120526123726101405261256661016052612660610180526126c46101a0526126f66101c05261270f6101e0526200006490601190600a62000ba7565b506040805161018081018252601761014082019081527f7368656e7a68656e696361206f72636869646163656165000000000000000000610160830152815281518083018352601881527f7068616c61656e6f70736973206d6963686f6c69747a69690000000000000000602082810191909152808301919091528251808401845260158082527f6775617269616e74686520617572616e74696163610000000000000000000000828401528385019190915283518085018552600e81526d76616e646120636f6572756c656160901b818401526060840152835180850185528181527f637970726970656469756d2063616c63656f6c7573000000000000000000000081840152608084015283518085018552601981527f70617068696f706564696c756d20766965746e616d656e7365000000000000008184015260a0840152835180850185526012808252716d696c746f6e6961206b61796173696d616560701b8285015260c085019190915284518086018652601381527f706c6174616e746865726120617a6f72696361000000000000000000000000008185015260e0850152845180860186529182527f64656e64726f7068796c6178206c696e64656e69690000000000000000000000828401526101008401919091528351808501909452601d84527f70617068696f706564696c756d20726f7468736368696c6469616e756d000000918401919091526101208201929092526200028c9190600a62000c44565b50604080516101c08101909152604b610140820181815282916200581261016084013981526020016040518060800160405280604c8152602001620056a8604c9139815260200160405180608001604052806049815260200162005936604991398152602001604051806080016040528060428152602001620058a36042913981526020016040518060800160405280604981526020016200565f6049913981526020016040518060800160405280604d81526020016200577c604d913981526020016040518060800160405280604681526020016200585d60469139815260200160405180608001604052806047815260200162005aac604791398152602001604051806080016040528060498152602001620059cc604991398152602001604051806080016040528060518152602001620055c7605191399052620003d890601c90600a62000c44565b50604080516101c08101909152604b6101408201818152829162005a6161016084013981526020016040518060800160405280604c815260200162005a15604c91398152602001604051806080016040528060498152602001620057c9604991398152602001604051806080016040528060428152602001620056f4604291398152602001604051806080016040528060498152602001620055356049913981526020016040518060800160405280604d81526020016200597f604d9139815260200160405180608001604052806046815260200162005736604691398152602001604051806080016040528060478152602001620056186047913981526020016040518060800160405280604981526020016200557e604991398152602001604051806080016040528060518152602001620058e56051913990526200052490602690600a62000c44565b5060405162005af338038062005af3833981810160405260608110156200054a57600080fd5b50805160208083015160409384015184518086018652600c81526b43727970744f72636869647360a01b8185015285518087018752600581526413d490d21160da1b8186015286518088019097526007875266697066733a2f2f60c81b948701949094529394919390928592859291908282620005d76301ffc9a760e01b6001600160e01b03620009d116565b8151620005ec90600790602085019062000c97565b5080516200060290600890602084019062000c97565b506200061e6380ac58cd60e01b6001600160e01b03620009d116565b62000639635b5e139f60e01b6001600160e01b03620009d116565b6200065463780e9d6360e01b6001600160e01b03620009d116565b5050600b805460ff19169055620006886000620006796001600160e01b0362000a5916565b6001600160e01b0362000a5e16565b604080516a4d494e5445525f524f4c4560a81b8152905190819003600b019020620006c090620006796001600160e01b0362000a5916565b604080516a5041555345525f524f4c4560a81b8152905190819003600b019020620006f890620006796001600160e01b0362000a5916565b6200070c816001600160e01b0362000a7716565b50505060006200072162000a5960201b60201c565b600d80546001600160a01b0319166001600160a01b038316908117909155604051919250906000907f8be0079c531659141344cd1fd0a4f28419497f9722a3daafe3b4186f6b6457e0908290a3506001600160601b0319606092831b811660a052911b16608052603480546001600160a01b038581166001600160a01b0319928316179092556035805492851692909116919091179055603181905567016345785d8a000060325560005b600a811015620009c757601c81600a8110620007e457fe5b0160376000601284600a8110620007f757fe5b60408051602080820190815292909301805460026001821615610100026000190190911604918401829052928291606090910190849080156200087e5780601f1062000852576101008083540402835291602001916200087e565b820191906000526020600020905b8154815290600101906020018083116200086057829003601f168201915b5050925050506040516020818303038152906040528051906020012081526020019081526020016000209080546001816001161561010002031660029004620008c992919062000d18565b50602681600a8110620008d857fe5b0160386000601284600a8110620008eb57fe5b6040805160208082019081529290930180546002600182161561010002600019019091160491840182905292829160609091019084908015620009725780601f10620009465761010080835404028352916020019162000972565b820191906000526020600020905b8154815290600101906020018083116200095457829003601f168201915b5050925050506040516020818303038152906040528051906020012081526020019081526020016000209080546001816001161561010002031660029004620009bd92919062000d18565b50600101620007cc565b5050505062000e44565b6001600160e01b0319808216141562000a31576040805162461bcd60e51b815260206004820152601c60248201527f4552433136353a20696e76616c696420696e7465726661636520696400000000604482015290519081900360640190fd5b6001600160e01b0319166000908152600160208190526040909120805460ff19169091179055565b335b90565b62000a7382826001600160e01b0362000a8c16565b5050565b805162000a7390600a90602084019062000c97565b60008281526020818152604090912062000ab19183906200346362000b0e821b17901c565b1562000a735762000aca6001600160e01b0362000a5916565b6001600160a01b0316816001600160a01b0316837f2f8788117e7eff1d82e926ec794901d17c78024a50270940304540a733656f0d60405160405180910390a45050565b600062000b2e836001600160a01b0384166001600160e01b0362000b3716565b90505b92915050565b600062000b4e83836001600160e01b0362000b8f16565b62000b865750815460018181018455600084815260208082209093018490558454848252828601909352604090209190915562000b31565b50600062000b31565b60009081526001919091016020526040902054151590565b60018301918390821562000c325791602002820160005b8382111562000c0057835183826101000a81548161ffff021916908361ffff160217905550926020019260020160208160010104928301926001030262000bbe565b801562000c305782816101000a81549061ffff021916905560020160208160010104928301926001030262000c00565b505b5062000c4092915062000d92565b5090565b82600a810192821562000c89579160200282015b8281111562000c89578251805162000c7891849160209091019062000c97565b509160200191906001019062000c58565b5062000c4092915062000db4565b828054600181600116156101000203166002900490600052602060002090601f016020900481019282601f1062000cda57805160ff191683800117855562000d0a565b8280016001018555821562000d0a579182015b8281111562000d0a57825182559160200191906001019062000ced565b5062000c4092915062000ddc565b828054600181600116156101000203166002900490600052602060002090601f016020900481019282601f1062000d53578054855562000d0a565b8280016001018555821562000d0a57600052602060002091601f016020900482015b8281111562000d0a57825482559160010191906001019062000d75565b62000a5b91905b8082111562000c4057805461ffff1916815560010162000d99565b62000a5b91905b8082111562000c4057600062000dd2828262000df9565b5060010162000dbb565b62000a5b91905b8082111562000c40576000815560010162000de3565b50805460018160011615610100020316600290046000825580601f1062000e21575062000e41565b601f01602090049060005260206000209081019062000e41919062000ddc565b50565b60805160601c60a05160601c6146bd62000e78600039806118575280613675525080612ec3528061364652506146bd6000f3fe60806040526004361061036f5760003560e01c80636c0360eb116101c6578063a22cb465116100f7578063cac21c8f11610095578063e63ab1e91161006f578063e63ab1e914610d56578063e985e9c514610d6b578063f2fde38b14610da6578063ffee200c14610dd957610376565b8063cac21c8f14610cde578063d539139314610d08578063d547741f14610d1d57610376565b8063b7aaba20116100d1578063b7aaba2014610b69578063b88d4fde14610bb7578063c87b56dd14610c8a578063ca15c87314610cb457610376565b8063a22cb46514610aef578063a7eec44b14610b2a578063b66a0e5d14610b5457610376565b80639010d07c1161016457806395d89b411161013e57806395d89b4114610a935780639981d4a114610aa85780639d1b464a14610ac5578063a217fddf14610ada57610376565b80639010d07c146109fa57806391d1485414610a2a57806394985ddd14610a6357610376565b8063715018a6116101a0578063715018a61461098b5780637fd8d953146109a05780638456cb59146109d05780638da5cb5b146109e557610376565b80636c0360eb146109195780636e029ad11461092e57806370a082311461095857610376565b80633ccfd60b116102a05780635c975abb1161023e5780636352211e116102185780636352211e1461087d5780636573c787146108a75780636a627842146108d15780636b0c004d1461090457610376565b80635c975abb1461078e57806360316801146107a357806362ff09d61461085357610376565b806342842e0e1161027a57806342842e0e146106e257806342966c68146107255780634f6ccce71461074f5780634f8e2fdf1461077957610376565b80633ccfd60b146106a35780633f4ba83a146106b857806342619f66146106cd57610376565b8063182199cd1161030d5780632f2ff15d116102e75780632f2ff15d146105e35780632f745c591461061c57806333b608631461065557806336568abe1461066a57610376565b8063182199cd1461054c57806323b872dd14610576578063248a9ca3146105b957610376565b8063095ea7b311610349578063095ea7b3146104ab5780631424494d146104e6578063179f0b0a1461051057806318160ddd1461053757610376565b806301ffc9a71461037b57806306fdde03146103db578063081812fc1461046557610376565b3661037657005b600080fd5b34801561038757600080fd5b506103c76004803603602081101561039e57600080fd5b50357fffffffff0000000000000000000000000000000000000000000000000000000016610dee565b604080519115158252519081900360200190f35b3480156103e757600080fd5b506103f0610e29565b6040805160208082528351818301528351919283929083019185019080838360005b8381101561042a578181015183820152602001610412565b50505050905090810190601f1680156104575780820380516001836020036101000a031916815260200191505b509250505060405180910390f35b34801561047157600080fd5b5061048f6004803603602081101561048857600080fd5b5035610ec0565b604080516001600160a01b039092168252519081900360200190f35b3480156104b757600080fd5b506104e4600480360360408110156104ce57600080fd5b506001600160a01b038135169060200135610f22565b005b3480156104f257600080fd5b506104e46004803603602081101561050957600080fd5b5035610ffd565b34801561051c57600080fd5b50610525611055565b60408051918252519081900360200190f35b34801561054357600080fd5b5061052561105b565b34801561055857600080fd5b506103c76004803603602081101561056f57600080fd5b503561106c565b34801561058257600080fd5b506104e46004803603606081101561059957600080fd5b506001600160a01b0381358116916020810135909116906040013561108b565b3480156105c557600080fd5b50610525600480360360208110156105dc57600080fd5b50356110dc565b3480156105ef57600080fd5b506104e46004803603604081101561060657600080fd5b50803590602001356001600160a01b03166110f1565b34801561062857600080fd5b506105256004803603604081101561063f57600080fd5b506001600160a01b03813516906020013561115d565b34801561066157600080fd5b5061048f61118e565b34801561067657600080fd5b506104e46004803603604081101561068d57600080fd5b50803590602001356001600160a01b031661119d565b3480156106af57600080fd5b506104e46111fe565b3480156106c457600080fd5b506104e46112a1565b3480156106d957600080fd5b50610525611312565b3480156106ee57600080fd5b506104e46004803603606081101561070557600080fd5b506001600160a01b03813581169160208101359091169060400135611318565b34801561073157600080fd5b506104e46004803603602081101561074857600080fd5b5035611333565b34801561075b57600080fd5b506105256004803603602081101561077257600080fd5b5035611382565b34801561078557600080fd5b5061048f61139e565b34801561079a57600080fd5b506103c76113ad565b3480156107af57600080fd5b506107cd600480360360208110156107c657600080fd5b50356113b6565b6040518080602001848152602001838152602001828103825285818151815260200191508051906020019080838360005b838110156108165781810151838201526020016107fe565b50505050905090810190601f1680156108435780820380516001836020036101000a031916815260200191505b5094505050505060405180910390f35b34801561085f57600080fd5b506105256004803603602081101561087657600080fd5b503561146c565b34801561088957600080fd5b5061048f600480360360208110156108a057600080fd5b503561147e565b3480156108b357600080fd5b506103c7600480360360208110156108ca57600080fd5b50356114ac565b3480156108dd57600080fd5b506104e4600480360360208110156108f457600080fd5b50356001600160a01b03166114cc565b34801561091057600080fd5b50610525611550565b34801561092557600080fd5b506103f0611556565b34801561093a57600080fd5b506104e46004803603602081101561095157600080fd5b50356115b7565b34801561096457600080fd5b506105256004803603602081101561097b57600080fd5b50356001600160a01b0316611609565b34801561099757600080fd5b506104e4611671565b3480156109ac57600080fd5b506104e4600480360360408110156109c357600080fd5b508035906020013561173c565b3480156109dc57600080fd5b506104e4611792565b3480156109f157600080fd5b5061048f611801565b348015610a0657600080fd5b5061048f60048036036040811015610a1d57600080fd5b5080359060200135611810565b348015610a3657600080fd5b506103c760048036036040811015610a4d57600080fd5b50803590602001356001600160a01b031661182e565b348015610a6f57600080fd5b506104e460048036036040811015610a8657600080fd5b508035906020013561184c565b348015610a9f57600080fd5b506103f06118d3565b6104e460048036036020811015610abe57600080fd5b5035611934565b348015610ad157600080fd5b50610525611c08565b348015610ae657600080fd5b50610525611cc4565b348015610afb57600080fd5b506104e460048036036040811015610b1257600080fd5b506001600160a01b0381351690602001351515611cc9565b348015610b3657600080fd5b506104e460048036036020811015610b4d57600080fd5b5035611dce565b348015610b6057600080fd5b506104e4611f2e565b348015610b7557600080fd5b50610b9360048036036020811015610b8c57600080fd5b5035611fb1565b60405180826003811115610ba357fe5b60ff16815260200191505060405180910390f35b348015610bc357600080fd5b506104e460048036036080811015610bda57600080fd5b6001600160a01b03823581169260208101359091169160408201359190810190608081016060820135640100000000811115610c1557600080fd5b820183602082011115610c2757600080fd5b80359060200191846001830284011164010000000083111715610c4957600080fd5b91908080601f01602080910402602001604051908101604052809392919081815260200183838082843760009201919091525092955061212f945050505050565b348015610c9657600080fd5b506103f060048036036020811015610cad57600080fd5b5035612187565b348015610cc057600080fd5b5061052560048036036020811015610cd757600080fd5b503561257e565b348015610cea57600080fd5b506107cd60048036036020811015610d0157600080fd5b5035612595565b348015610d1457600080fd5b50610525612642565b348015610d2957600080fd5b506104e460048036036040811015610d4057600080fd5b50803590602001356001600160a01b0316612665565b348015610d6257600080fd5b506105256126be565b348015610d7757600080fd5b506103c760048036036040811015610d8e57600080fd5b506001600160a01b03813581169160200135166126e1565b348015610db257600080fd5b506104e460048036036020811015610dc957600080fd5b50356001600160a01b031661270f565b348015610de557600080fd5b50610525612831565b7fffffffff00000000000000000000000000000000000000000000000000000000811660009081526001602052604090205460ff165b919050565b60078054604080516020601f6002600019610100600188161502019095169490940493840181900481028201810190925282815260609390929091830182828015610eb55780601f10610e8a57610100808354040283529160200191610eb5565b820191906000526020600020905b815481529060010190602001808311610e9857829003601f168201915b505050505090505b90565b6000610ecb82612837565b610f065760405162461bcd60e51b815260040180806020018281038252602c81526020018061445a602c913960400191505060405180910390fd5b506000908152600560205260409020546001600160a01b031690565b6000610f2d8261147e565b9050806001600160a01b0316836001600160a01b03161415610f805760405162461bcd60e51b81526004018080602001828103825260218152602001806144df6021913960400191505060405180910390fd5b806001600160a01b0316610f9261284a565b6001600160a01b03161480610fb35750610fb381610fae61284a565b6126e1565b610fee5760405162461bcd60e51b81526004018080602001828103825260388152602001806143696038913960400191505060405180910390fd5b610ff8838361284e565b505050565b61100e61100861284a565b826128c9565b6110495760405162461bcd60e51b81526004018080602001828103825260298152602001806145836029913960400191505060405180910390fd5b61105281611333565b50565b612a3081565b6000611067600361296d565b905090565b6000600261107983611fb1565b600381111561108457fe5b1492915050565b61109661100861284a565b6110d15760405162461bcd60e51b81526004018080602001828103825260318152602001806145276031913960400191505060405180910390fd5b610ff8838383612978565b60009081526020819052604090206002015490565b6000828152602081905260409020600201546111149061110f61284a565b61182e565b61114f5760405162461bcd60e51b815260040180806020018281038252602f81526020018061417e602f913960400191505060405180910390fd5b6111598282612ad6565b5050565b6001600160a01b0382166000908152600260205260408120611185908363ffffffff612b4516565b90505b92915050565b6034546001600160a01b031681565b6111a561284a565b6001600160a01b0316816001600160a01b0316146111f45760405162461bcd60e51b815260040180806020018281038252602f815260200180614659602f913960400191505060405180910390fd5b6111598282612b51565b61120661284a565b6001600160a01b0316611217611801565b6001600160a01b031614611272576040805162461bcd60e51b815260206004820181905260248201527f4f776e61626c653a2063616c6c6572206973206e6f7420746865206f776e6572604482015290519081900360640190fd5b6040514790339082156108fc029083906000818181858888f19350505050158015611159573d6000803e3d6000fd5b604080516a5041555345525f524f4c4560a81b8152905190819003600b0190206112cd9061110f61284a565b6113085760405162461bcd60e51b81526004018080602001828103825260408152602001806146196040913960400191505060405180910390fd5b611310612bc0565b565b60335481565b610ff88383836040518060200160405280600081525061212f565b61133e61100861284a565b6113795760405162461bcd60e51b81526004018080602001828103825260308152602001806145e96030913960400191505060405180910390fd5b61105281612c69565b60008061139660038463ffffffff612d4216565b509392505050565b6035546001600160a01b031681565b600b5460ff1690565b6000818152600f60209081526040808320600180820154600280840154845486519481161561010002600019011691909104601f81018790048702840187019095528483526060969586959293919285918301828280156114585780601f1061142d57610100808354040283529160200191611458565b820191906000526020600020905b81548152906001019060200180831161143b57829003601f168201915b505050505092509250925092509193909250565b60366020526000908152604090205481565b6000611188826040518060600160405280602981526020016143cb602991396003919063ffffffff612d5e16565b600060036114b983611fb1565b60038111156114c457fe5b141592915050565b604080516a4d494e5445525f524f4c4560a81b8152905190819003600b0190206114f89061110f61284a565b6115335760405162461bcd60e51b815260040180806020018281038252603d8152602001806145ac603d913960400191505060405180910390fd5b61154681611541600c612d75565b612d79565b611052600c612eb3565b61271081565b600a8054604080516020601f6002600019610100600188161502019095169490940493840181900481028201810190925282815260609390929091830182828015610eb55780601f10610e8a57610100808354040283529160200191610eb5565b60036115c282611fb1565b60038111156115cd57fe5b1415611052576040805182815290517ff4a991ad9e7f9711696f7bd41529beb4c470d75788573535d4ca3f0857c79ce89181900360200190a150565b60006001600160a01b0382166116505760405162461bcd60e51b815260040180806020018281038252602a8152602001806143a1602a913960400191505060405180910390fd5b6001600160a01b03821660009081526002602052604090206111889061296d565b61167961284a565b6001600160a01b031661168a611801565b6001600160a01b0316146116e5576040805162461bcd60e51b815260206004820181905260248201527f4f776e61626c653a2063616c6c6572206973206e6f7420746865206f776e6572604482015290519081900360640190fd5b600d546040516000916001600160a01b0316907f8be0079c531659141344cd1fd0a4f28419497f9722a3daafe3b4186f6b6457e0908390a3600d805473ffffffffffffffffffffffffffffffffffffffff19169055565b61174d61174761284a565b836128c9565b6117885760405162461bcd60e51b815260040180806020018281038252602b815260200180614558602b913960400191505060405180910390fd5b610ff88282612ebc565b604080516a5041555345525f524f4c4560a81b8152905190819003600b0190206117be9061110f61284a565b6117f95760405162461bcd60e51b815260040180806020018281038252603e815260200180614233603e913960400191505060405180910390fd5b611310612ffd565b600d546001600160a01b031690565b6000828152602081905260408120611185908363ffffffff612b4516565b6000828152602081905260408120611185908363ffffffff61308d16565b336001600160a01b037f000000000000000000000000000000000000000000000000000000000000000016146118c9576040805162461bcd60e51b815260206004820152601f60248201527f4f6e6c7920565246436f6f7264696e61746f722063616e2066756c66696c6c00604482015290519081900360640190fd5b61115982826130a2565b60088054604080516020601f6002600019610100600188161502019095169490940493840181900481028201810190925282815260609390929091830182828015610eb55780601f10610e8a57610100808354040283529160200191610eb5565b60105460ff1661198b576040805162461bcd60e51b815260206004820152601560248201527f546865204e75727365727920697320636c6f7365640000000000000000000000604482015290519081900360640190fd5b61199361105b565b612710038111156119eb576040805162461bcd60e51b815260206004820152601560248201527f4e6f7420656e6f7567682062756c6273206c6566740000000000000000000000604482015290519081900360640190fd5b6127106119f661105b565b10611a48576040805162461bcd60e51b815260206004820152601660248201527f53616c652068617320616c726561647920656e64656400000000000000000000604482015290519081900360640190fd5b600081118015611a59575060148111155b611a945760405162461bcd60e51b81526004018080602001828103825260308152602001806144af6030913960400191505060405180910390fd5b612710611aa8611aa261105b565b836131d7565b1115611afb576040805162461bcd60e51b815260206004820152601860248201527f45786365656473204d41585f43525950544f5243484944530000000000000000604482015290519081900360640190fd5b611b0c611b06611c08565b82613231565b341015611b4a5760405162461bcd60e51b81526004018080602001828103825260238152602001806143f46023913960400191505060405180910390fd5b60005b8181101561115957611b5f6030612eb3565b6000611b6b6030612d75565b6040805160a0810182526006606082019081527f6772616e756d0000000000000000000000000000000000000000000000000000608083015281526000196020808301919091526000828401819052848152600f8252929092208151805194955091939092611bde92849291019061403b565b5060208201516001820155604090910151600290910155611bff338261328a565b50600101611b4d565b600080611c1361105b565b90506126ac8110611c2f57670de0b6b3a7640000915050610ebd565b61251c8110611c49576708e1bc9bf0400000915050610ebd565b611d4c8110611c6357670470de4df8200000915050610ebd565b610dac8110611c7d576702386f26fc100000915050610ebd565b6105dc8110611c975767011c37937e080000915050610ebd565b6101f48110611cb057668e1bc9bf040000915050610ebd565b66470de4df820000915050610ebd565b5090565b600081565b611cd161284a565b6001600160a01b0316826001600160a01b03161415611d37576040805162461bcd60e51b815260206004820152601960248201527f4552433732313a20617070726f766520746f2063616c6c657200000000000000604482015290519081900360640190fd5b8060066000611d4461284a565b6001600160a01b03908116825260208083019390935260409182016000908120918716808252919093529120805460ff191692151592909217909155611d8861284a565b60408051841515815290516001600160a01b0392909216917f17307eab39ab6107e8899845ad3d59bd9653f200f220920489ca2b5937696c319181900360200190a35050565b611dd961100861284a565b611e145760405162461bcd60e51b81526004018080602001828103825260278152602001806142e66027913960400191505060405180910390fd5b611e1d816114ac565b611e59576040805182815290517ff4a991ad9e7f9711696f7bd41529beb4c470d75788573535d4ca3f0857c79ce89181900360200190a1611052565b6000818152600f602052604081206002810154600182015491929091611e7d6132a4565b0390506000611e8e82612a306132a8565b905080831115611ed4576040805186815290517ff4a991ad9e7f9711696f7bd41529beb4c470d75788573535d4ca3f0857c79ce89181900360200190a150505050611052565b6000611ee18460016131d7565b60028601819055604080518881526020810183905281519293507f674d81537534435d24d5bc9f92955722ba22b136d98346a01ad4777f48b5581c929081900390910190a1505050505050565b611f3661284a565b6001600160a01b0316611f47611801565b6001600160a01b031614611fa2576040805162461bcd60e51b815260206004820181905260248201527f4f776e61626c653a2063616c6c6572206973206e6f7420746865206f776e6572604482015290519081900360640190fd5b6010805460ff19166001179055565b6000611fbb6140b5565b6000838152600f60209081526040918290208251815460026001821615610100026000190190911604601f810184900490930281016080908101909452606081018381529093919284928491908401828280156120595780601f1061202e57610100808354040283529160200191612059565b820191906000526020600020905b81548152906001019060200180831161203c57829003601f168201915b5050505050815260200160018201548152602001600282015481525050905080602001516000141561208f576000915050610e24565b600019816020015114156120a7576001915050610e24565b604081015160208201516000906120bc6132a4565b03905060006120cd82612a306132a8565b905060006120dd83612a30613312565b9050818414156120f557600295505050505050610e24565b816121018560016131d7565b14801561210f5750610e1081105b1561212257600295505050505050610e24565b5060039695505050505050565b61213a61174761284a565b6121755760405162461bcd60e51b81526004018080602001828103825260318152602001806145276031913960400191505060405180910390fd5b61218184848484613377565b50505050565b606080612193836113b6565b50909150600190506121a484611fb1565b60038111156121af57fe5b141561228d576121bd611556565b6040518060600160405280602e8152602001614205602e91396040516020018083805190602001908083835b602083106122085780518252601f1990920191602091820191016121e9565b51815160209384036101000a600019018019909216911617905285519190930192850191508083835b602083106122505780518252601f199092019160209182019101612231565b6001836020036101000a03801982511681845116808217855250505050505090500192505050604051602081830303815290604052915050610e24565b600261229884611fb1565b60038111156122a357fe5b1415612414576122b1611556565b60376000836040516020018080602001828103825283818151815260200191508051906020019080838360005b838110156122f65781810151838201526020016122de565b50505050905090810190601f1680156123235780820380516001836020036101000a031916815260200191505b50925050506040516020818303038152906040528051906020012081526020019081526020016000206040516020018083805190602001908083835b6020831061237e5780518252601f19909201916020918201910161235f565b6001836020036101000a038019825116818451168082178552505050505050905001828054600181600116156101000203166002900480156123f75780601f106123d55761010080835404028352918201916123f7565b820191906000526020600020905b8154815290600101906020018083116123e3575b505092505050604051602081830303815290604052915050610e24565b61241c611556565b60386000836040516020018080602001828103825283818151815260200191508051906020019080838360005b83811015612461578181015183820152602001612449565b50505050905090810190601f16801561248e5780820380516001836020036101000a031916815260200191505b50925050506040516020818303038152906040528051906020012081526020019081526020016000206040516020018083805190602001908083835b602083106124e95780518252601f1990920191602091820191016124ca565b6001836020036101000a038019825116818451168082178552505050505050905001828054600181600116156101000203166002900480156125625780601f10612540576101008083540402835291820191612562565b820191906000526020600020905b81548152906001019060200180831161254e575b505060408051601f198184030181529190529695505050505050565b60008181526020819052604081206111889061296d565b600f6020908152600091825260409182902080548351601f6002600019610100600186161502019093169290920491820184900484028101840190945280845290929183919083018282801561262c5780601f106126015761010080835404028352916020019161262c565b820191906000526020600020905b81548152906001019060200180831161260f57829003601f168201915b5050505050908060010154908060020154905083565b604080516a4d494e5445525f524f4c4560a81b8152905190819003600b01902081565b6000828152602081905260409020600201546126839061110f61284a565b6111f45760405162461bcd60e51b81526004018080602001828103825260308152602001806143396030913960400191505060405180910390fd5b604080516a5041555345525f524f4c4560a81b8152905190819003600b01902081565b6001600160a01b03918216600090815260066020908152604080832093909416825291909152205460ff1690565b61271761284a565b6001600160a01b0316612728611801565b6001600160a01b031614612783576040805162461bcd60e51b815260206004820181905260248201527f4f776e61626c653a2063616c6c6572206973206e6f7420746865206f776e6572604482015290519081900360640190fd5b6001600160a01b0381166127c85760405162461bcd60e51b81526004018080602001828103825260268152602001806141df6026913960400191505060405180910390fd5b600d546040516001600160a01b038084169216907f8be0079c531659141344cd1fd0a4f28419497f9722a3daafe3b4186f6b6457e090600090a3600d805473ffffffffffffffffffffffffffffffffffffffff19166001600160a01b0392909216919091179055565b610e1081565b600061118860038363ffffffff6133c916565b3390565b6000818152600560205260409020805473ffffffffffffffffffffffffffffffffffffffff19166001600160a01b03841690811790915581906128908261147e565b6001600160a01b03167f8c5be1e5ebec7d5bd14f71427d1e84f3dd0314c0f7b2291e5b200ac8c7c3b92560405160405180910390a45050565b60006128d482612837565b61290f5760405162461bcd60e51b815260040180806020018281038252602c81526020018061430d602c913960400191505060405180910390fd5b600061291a8361147e565b9050806001600160a01b0316846001600160a01b031614806129555750836001600160a01b031661294a84610ec0565b6001600160a01b0316145b80612965575061296581856126e1565b949350505050565b600061118882612d75565b826001600160a01b031661298b8261147e565b6001600160a01b0316146129d05760405162461bcd60e51b81526004018080602001828103825260298152602001806144866029913960400191505060405180910390fd5b6001600160a01b038216612a155760405162461bcd60e51b81526004018080602001828103825260248152602001806142716024913960400191505060405180910390fd5b612a208383836133d5565b612a2b60008261284e565b6001600160a01b0383166000908152600260205260409020612a53908263ffffffff61343516565b506001600160a01b0382166000908152600260205260409020612a7c908263ffffffff61344116565b50612a8f6003828463ffffffff61344d16565b5080826001600160a01b0316846001600160a01b03167fddf252ad1be2c89b69c2b068fc378daa952ba7f163c4a11628f55a4df523b3ef60405160405180910390a4505050565b6000828152602081905260409020612af4908263ffffffff61346316565b1561115957612b0161284a565b6001600160a01b0316816001600160a01b0316837f2f8788117e7eff1d82e926ec794901d17c78024a50270940304540a733656f0d60405160405180910390a45050565b60006111858383613478565b6000828152602081905260409020612b6f908263ffffffff6134dc16565b1561115957612b7c61284a565b6001600160a01b0316816001600160a01b0316837ff6391f5c32d9c69d2a47ea670b442974b53935d1edc7fd64eb21e047a839171b60405160405180910390a45050565b612bc86113ad565b612c19576040805162461bcd60e51b815260206004820152601460248201527f5061757361626c653a206e6f7420706175736564000000000000000000000000604482015290519081900360640190fd5b600b805460ff191690557f5db9ee0a495bf2e6ff9c91a7834c1ba4fdd244a5e8aa4e537bd38aeae4b073aa612c4c61284a565b604080516001600160a01b039092168252519081900360200190a1565b6000612c748261147e565b9050612c82816000846133d5565b612c8d60008361284e565b6000828152600960205260409020546002600019610100600184161502019091160415612ccb576000828152600960205260408120612ccb916140d6565b6001600160a01b0381166000908152600260205260409020612cf3908363ffffffff61343516565b50612d0560038363ffffffff6134f116565b5060405182906000906001600160a01b038416907fddf252ad1be2c89b69c2b068fc378daa952ba7f163c4a11628f55a4df523b3ef908390a45050565b6000808080612d5186866134fd565b9097909650945050505050565b6000612d6b848484613578565b90505b9392505050565b5490565b6001600160a01b038216612dd4576040805162461bcd60e51b815260206004820181905260248201527f4552433732313a206d696e7420746f20746865207a65726f2061646472657373604482015290519081900360640190fd5b612ddd81612837565b15612e2f576040805162461bcd60e51b815260206004820152601c60248201527f4552433732313a20746f6b656e20616c7265616479206d696e74656400000000604482015290519081900360640190fd5b612e3b600083836133d5565b6001600160a01b0382166000908152600260205260409020612e63908263ffffffff61344116565b50612e766003828463ffffffff61344d16565b5060405181906001600160a01b038416906000907fddf252ad1be2c89b69c2b068fc378daa952ba7f163c4a11628f55a4df523b3ef908290a45050565b80546001019055565b60006032547f00000000000000000000000000000000000000000000000000000000000000006001600160a01b03166370a08231306040518263ffffffff1660e01b815260040180826001600160a01b03166001600160a01b0316815260200191505060206040518083038186803b158015612f3757600080fd5b505afa158015612f4b573d6000803e3d6000fd5b505050506040513d6020811015612f6157600080fd5b50511015612fa05760405162461bcd60e51b815260040180806020018281038252602b815260200180614295602b913960400191505060405180910390fd5b612faf60315460325484613642565b600081815260366020908152604091829020869055815183815291519293507fe5f5b44d72d4143c278eb745c4acc0695c4a5bc616be5beecf46abe29661780e92918290030190a192915050565b6130056113ad565b15613057576040805162461bcd60e51b815260206004820152601060248201527f5061757361626c653a2070617573656400000000000000000000000000000000604482015290519081900360640190fd5b600b805460ff191660011790557f62e78cea01bee320cd4e420270b5ea74000d11b0c9f74754ebdbfc544b05a258612c4c61284a565b6000611185836001600160a01b038416613804565b600082815260366020908152604080832054808452600f90925290912060606130d56130d085612710613312565b61381c565b80519091506130ea908390602084019061403b565b506130f36132a4565b600183015560006131038461147e565b90507f7313be463d71a79047d01fb641b7aaf895b37a35b44b91ed31ae512266e80f2884836131306132a4565b846040518085815260200180602001848152602001836001600160a01b03166001600160a01b03168152602001828103825285818151815260200191508051906020019080838360005b8381101561319257818101518382015260200161317a565b50505050905090810190601f1680156131bf5780820380516001836020036101000a031916815260200191505b509550505050505060405180910390a1505050505050565b600082820183811015611185576040805162461bcd60e51b815260206004820152601b60248201527f536166654d6174683a206164646974696f6e206f766572666c6f770000000000604482015290519081900360640190fd5b60008261324057506000611188565b8282028284828161324d57fe5b04146111855760405162461bcd60e51b81526004018080602001828103825260218152602001806144396021913960400191505060405180910390fd5b611159828260405180602001604052806000815250613908565b4290565b60008082116132fe576040805162461bcd60e51b815260206004820152601a60248201527f536166654d6174683a206469766973696f6e206279207a65726f000000000000604482015290519081900360640190fd5b600082848161330957fe5b04949350505050565b600081613366576040805162461bcd60e51b815260206004820152601860248201527f536166654d6174683a206d6f64756c6f206279207a65726f0000000000000000604482015290519081900360640190fd5b81838161336f57fe5b069392505050565b613382848484612978565b61338e8484848461395a565b6121815760405162461bcd60e51b81526004018080602001828103825260328152602001806141ad6032913960400191505060405180910390fd5b60006111858383613804565b6001600160a01b03821615806133ef57506133ef816114ac565b61342a5760405162461bcd60e51b81526004018080602001828103825260278152602001806145006027913960400191505060405180910390fd5b610ff8838383613b1c565b60006111858383613b27565b60006111858383613bed565b6000612d6b84846001600160a01b038516613c37565b6000611185836001600160a01b038416613bed565b815460009082106134ba5760405162461bcd60e51b81526004018080602001828103825260228152602001806141316022913960400191505060405180910390fd5b8260000182815481106134c957fe5b9060005260206000200154905092915050565b6000611185836001600160a01b038416613b27565b60006111858383613cce565b8154600090819083106135415760405162461bcd60e51b81526004018080602001828103825260228152602001806144176022913960400191505060405180910390fd5b600084600001848154811061355257fe5b906000526020600020906002020190508060000154816001015492509250509250929050565b600082815260018401602052604081205482816136135760405162461bcd60e51b81526004018080602001828103825283818151815260200191508051906020019080838360005b838110156135d85781810151838201526020016135c0565b50505050905090810190601f1680156136055780820380516001836020036101000a031916815260200191505b509250505060405180910390fd5b5084600001600182038154811061362657fe5b9060005260206000209060020201600101549150509392505050565b60007f00000000000000000000000000000000000000000000000000000000000000006001600160a01b0316634000aea07f000000000000000000000000000000000000000000000000000000000000000085878660405160200180838152602001828152602001925050506040516020818303038152906040526040518463ffffffff1660e01b815260040180846001600160a01b03166001600160a01b0316815260200183815260200180602001828103825283818151815260200191508051906020019080838360005b8381101561372757818101518382015260200161370f565b50505050905090810190601f1680156137545780820380516001836020036101000a031916815260200191505b50945050505050602060405180830381600087803b15801561377557600080fd5b505af1158015613789573d6000803e3d6000fd5b505050506040513d602081101561379f57600080fd5b50506000848152600e60205260408120546137bf90869085903090613da2565b6000868152600e60205260409020549091506137e290600163ffffffff6131d716565b6000868152600e60205260409020556137fb8582613de9565b95945050505050565b60009081526001919091016020526040902054151590565b606060005b600a81101561390257601181600a811061383757fe5b601091828204019190066002029054906101000a900461ffff1661ffff1683116138fa57601281600a811061386857fe5b01805460408051602060026001851615610100026000190190941693909304601f810184900484028201840190925281815292918301828280156138ed5780601f106138c2576101008083540402835291602001916138ed565b820191906000526020600020905b8154815290600101906020018083116138d057829003601f168201915b5050505050915050610e24565b600101613821565b50919050565b6139128383612d79565b61391f600084848461395a565b610ff85760405162461bcd60e51b81526004018080602001828103825260328152602001806141ad6032913960400191505060405180910390fd5b600061396e846001600160a01b0316613e15565b61397a57506001612965565b6060613aca630a85bd0160e11b61398f61284a565b88878760405160240180856001600160a01b03166001600160a01b03168152602001846001600160a01b03166001600160a01b0316815260200183815260200180602001828103825283818151815260200191508051906020019080838360005b83811015613a085781810151838201526020016139f0565b50505050905090810190601f168015613a355780820380516001836020036101000a031916815260200191505b5095505050505050604051602081830303815290604052907bffffffffffffffffffffffffffffffffffffffffffffffffffffffff19166020820180517bffffffffffffffffffffffffffffffffffffffffffffffffffffffff83818316178352505050506040518060600160405280603281526020016141ad603291396001600160a01b038816919063ffffffff613e1b16565b90506000818060200190516020811015613ae357600080fd5b50517fffffffff0000000000000000000000000000000000000000000000000000000016630a85bd0160e11b1492505050949350505050565b610ff8838383613e2a565b60008181526001830160205260408120548015613be35783546000198083019190810190600090879083908110613b5a57fe5b9060005260206000200154905080876000018481548110613b7757fe5b600091825260208083209091019290925582815260018981019092526040902090840190558654879080613ba757fe5b60019003818190600052602060002001600090559055866001016000878152602001908152602001600020600090556001945050505050611188565b6000915050611188565b6000613bf98383613804565b613c2f57508154600181810184556000848152602080822090930184905584548482528286019093526040902091909155611188565b506000611188565b600082815260018401602052604081205480613c9c575050604080518082018252838152602080820184815286546001818101895560008981528481209551600290930290950191825591519082015586548684528188019092529290912055612d6e565b82856000016001830381548110613caf57fe5b9060005260206000209060020201600101819055506000915050612d6e565b60008181526001830160205260408120548015613be35783546000198083019190810190600090879083908110613d0157fe5b9060005260206000209060020201905080876000018481548110613d2157fe5b600091825260208083208454600290930201918255600193840154918401919091558354825289830190526040902090840190558654879080613d6057fe5b60008281526020808220600260001990940193840201828155600190810183905592909355888152898201909252604082209190915594506111889350505050565b60408051602080820196909652808201949094526001600160a01b039290921660608401526080808401919091528151808403909101815260a09092019052805191012090565b604080516020808201949094528082019290925280518083038201815260609092019052805191012090565b3b151590565b6060612d6b8484600085613e79565b613e35838383610ff8565b613e3d6113ad565b15610ff85760405162461bcd60e51b815260040180806020018281038252602b815260200180614153602b913960400191505060405180910390fd5b606082471015613eba5760405162461bcd60e51b81526004018080602001828103825260268152602001806142c06026913960400191505060405180910390fd5b613ec385613e15565b613f14576040805162461bcd60e51b815260206004820152601d60248201527f416464726573733a2063616c6c20746f206e6f6e2d636f6e7472616374000000604482015290519081900360640190fd5b60006060866001600160a01b031685876040518082805190602001908083835b60208310613f535780518252601f199092019160209182019101613f34565b6001836020036101000a03801982511681845116808217855250505050505090500191505060006040518083038185875af1925050503d8060008114613fb5576040519150601f19603f3d011682016040523d82523d6000602084013e613fba565b606091505b5091509150613fca828286613fd5565b979650505050505050565b60608315613fe4575081612d6e565b825115613ff45782518084602001fd5b60405162461bcd60e51b81526020600482018181528451602484015284518593919283926044019190850190808383600083156135d85781810151838201526020016135c0565b828054600181600116156101000203166002900490600052602060002090601f016020900481019282601f1061407c57805160ff19168380011785556140a9565b828001600101855582156140a9579182015b828111156140a957825182559160200191906001019061408e565b50611cc0929150614116565b60405180606001604052806060815260200160008152602001600081525090565b50805460018160011615610100020316600290046000825580601f106140fc5750611052565b601f01602090049060005260206000209081019061105291905b610ebd91905b80821115611cc0576000815560010161411c56fe456e756d657261626c655365743a20696e646578206f7574206f6620626f756e64734552433732315061757361626c653a20746f6b656e207472616e73666572207768696c6520706175736564416363657373436f6e74726f6c3a2073656e646572206d75737420626520616e2061646d696e20746f206772616e744552433732313a207472616e7366657220746f206e6f6e20455243373231526563656976657220696d706c656d656e7465724f776e61626c653a206e6577206f776e657220697320746865207a65726f2061646472657373516d5764316d6e374475477978394279664e6571437367645355734a5a316372616769746761796773714476456d4552433732315072657365744d696e7465725061757365724175746f49643a206d75737420686176652070617573657220726f6c6520746f2070617573654552433732313a207472616e7366657220746f20746865207a65726f20616464726573734e6f7420656e6f756768204c494e4b202d2066696c6c20636f6e7472616374207769746820666175636574416464726573733a20696e73756666696369656e742062616c616e636520666f722063616c6c4f6e6c7920746865204f776e65722063616e20776174657220612043727970744f72636869642e4552433732313a206f70657261746f7220717565727920666f72206e6f6e6578697374656e7420746f6b656e416363657373436f6e74726f6c3a2073656e646572206d75737420626520616e2061646d696e20746f207265766f6b654552433732313a20617070726f76652063616c6c6572206973206e6f74206f776e6572206e6f7220617070726f76656420666f7220616c6c4552433732313a2062616c616e636520717565727920666f7220746865207a65726f20616464726573734552433732313a206f776e657220717565727920666f72206e6f6e6578697374656e7420746f6b656e45746865722076616c75652073656e742069732062656c6f7720746865207072696365456e756d657261626c654d61703a20696e646578206f7574206f6620626f756e6473536166654d6174683a206d756c7469706c69636174696f6e206f766572666c6f774552433732313a20617070726f76656420717565727920666f72206e6f6e6578697374656e7420746f6b656e4552433732313a207472616e73666572206f6620746f6b656e2074686174206973206e6f74206f776e596f752063616e20706c616e74206d696e696d756d20312c206d6178696d756d2032302043727970744f7263686964734552433732313a20617070726f76616c20746f2063757272656e74206f776e6572446561642043727970744f7263686964732063616e6e6f74206265207472616e736665727265644552433732313a207472616e736665722063616c6c6572206973206e6f74206f776e6572206e6f7220617070726f7665644f6e6c7920746865204f776e65722063616e206765726d696e61746520612043727970744f72636869642e4f6e6c7920746865204f776e65722063616e20636f6d706f737420612043727970744f72636869642e4552433732315072657365744d696e7465725061757365724175746f49643a206d7573742068617665206d696e74657220726f6c6520746f206d696e744552433732314275726e61626c653a2063616c6c6572206973206e6f74206f776e6572206e6f7220617070726f7665644552433732315072657365744d696e7465725061757365724175746f49643a206d75737420686176652070617573657220726f6c6520746f20756e7061757365416363657373436f6e74726f6c3a2063616e206f6e6c792072656e6f756e636520726f6c657320666f722073656c66a2646970667358221220ce8d8d8134fceb520b066ce5e345a1f0065a1f21033e567196192cdee89e19f264736f6c63430006060033516d55384d4e7a6e5436464431763558646e536541366345597178706a374d676b4543706f7433614345526572582f637970726970656469756d2d63616c63656f6c75732e6a736f6e516d55384d4e7a6e5436464431763558646e536541366345597178706a374d676b4543706f7433614345526572582f64656e64726f7068796c61782d6c696e64656e69692e6a736f6e516d56376e735167484e76777952786262685035396948336772715366713367376a6f53506153314a47526d4a612f70617068696f706564696c756d2d726f7468736368696c6469616e756d2e6a736f6e516d55384d4e7a6e5436464431763558646e536541366345597178706a374d676b4543706f7433614345526572582f706c6174616e74686572612d617a6f726963612e6a736f6e516d56376e735167484e76777952786262685035396948336772715366713367376a6f53506153314a47526d4a612f637970726970656469756d2d63616c63656f6c75732e6a736f6e516d56376e735167484e76777952786262685035396948336772715366713367376a6f53506153314a47526d4a612f7068616c61656e6f707369732d6d6963686f6c69747a69692e6a736f6e516d55384d4e7a6e5436464431763558646e536541366345597178706a374d676b4543706f7433614345526572582f76616e64612d636f6572756c65612e6a736f6e516d55384d4e7a6e5436464431763558646e536541366345597178706a374d676b4543706f7433614345526572582f6d696c746f6e69612d6b61796173696d61652e6a736f6e516d56376e735167484e76777952786262685035396948336772715366713367376a6f53506153314a47526d4a612f70617068696f706564696c756d2d766965746e616d656e73652e6a736f6e516d55384d4e7a6e5436464431763558646e536541366345597178706a374d676b4543706f7433614345526572582f6775617269616e7468652d617572616e74696163612e6a736f6e516d56376e735167484e76777952786262685035396948336772715366713367376a6f53506153314a47526d4a612f7368656e7a68656e6963612d6f726368696461636561652e6a736f6e516d56376e735167484e76777952786262685035396948336772715366713367376a6f53506153314a47526d4a612f6d696c746f6e69612d6b61796173696d61652e6a736f6e516d56376e735167484e76777952786262685035396948336772715366713367376a6f53506153314a47526d4a612f76616e64612d636f6572756c65612e6a736f6e516d55384d4e7a6e5436464431763558646e536541366345597178706a374d676b4543706f7433614345526572582f70617068696f706564696c756d2d726f7468736368696c6469616e756d2e6a736f6e516d56376e735167484e76777952786262685035396948336772715366713367376a6f53506153314a47526d4a612f6775617269616e7468652d617572616e74696163612e6a736f6e516d55384d4e7a6e5436464431763558646e536541366345597178706a374d676b4543706f7433614345526572582f70617068696f706564696c756d2d766965746e616d656e73652e6a736f6e516d56376e735167484e76777952786262685035396948336772715366713367376a6f53506153314a47526d4a612f64656e64726f7068796c61782d6c696e64656e69692e6a736f6e516d55384d4e7a6e5436464431763558646e536541366345597178706a374d676b4543706f7433614345526572582f7068616c61656e6f707369732d6d6963686f6c69747a69692e6a736f6e516d55384d4e7a6e5436464431763558646e536541366345597178706a374d676b4543706f7433614345526572582f7368656e7a68656e6963612d6f726368696461636561652e6a736f6e516d56376e735167484e76777952786262685035396948336772715366713367376a6f53506153314a47526d4a612f706c6174616e74686572612d617a6f726963612e6a736f6e",
  "devdoc": {
    "methods": {
      "approve(address,uint256)": {
        "details": "See {IERC721-approve}."
      },
      "balanceOf(address)": {
        "details": "See {IERC721-balanceOf}."
      },
      "baseURI()": {
        "details": "Returns the base URI set via {_setBaseURI}. This will be automatically added as a prefix in {tokenURI} to each token's URI, or to the token ID if no specific URI is set for that token ID."
      },
      "burn(uint256)": {
        "details": "Burns `tokenId`. See {ERC721-_burn}.     * Requirements:     * - The caller must own `tokenId` or be an approved operator."
      },
      "getApproved(uint256)": {
        "details": "See {IERC721-getApproved}."
      },
      "getRoleAdmin(bytes32)": {
        "details": "Returns the admin role that controls `role`. See {grantRole} and {revokeRole}.     * To change a role's admin, use {_setRoleAdmin}."
      },
      "getRoleMember(bytes32,uint256)": {
        "details": "Returns one of the accounts that have `role`. `index` must be a value between 0 and {getRoleMemberCount}, non-inclusive.     * Role bearers are not sorted in any particular way, and their ordering may change at any point.     * WARNING: When using {getRoleMember} and {getRoleMemberCount}, make sure you perform all queries on the same block. See the following https://forum.openzeppelin.com/t/iterating-over-elements-on-enumerableset-in-openzeppelin-contracts/2296[forum post] for more information."
      },
      "getRoleMemberCount(bytes32)": {
        "details": "Returns the number of accounts that have `role`. Can be used together with {getRoleMember} to enumerate all bearers of a role."
      },
      "grantRole(bytes32,address)": {
        "details": "Grants `role` to `account`.     * If `account` had not been already granted `role`, emits a {RoleGranted} event.     * Requirements:     * - the caller must have ``role``'s admin role."
      },
      "hasRole(bytes32,address)": {
        "details": "Returns `true` if `account` has been granted `role`."
      },
      "isApprovedForAll(address,address)": {
        "details": "See {IERC721-isApprovedForAll}."
      },
      "mint(address)": {
        "details": "Creates a new token for `to`. Its token ID will be automatically assigned (and available on the emitted {IERC721-Transfer} event), and the token URI autogenerated based on the base URI passed at construction.     * See {ERC721-_mint}.     * Requirements:     * - the caller must have the `MINTER_ROLE`."
      },
      "name()": {
        "details": "See {IERC721Metadata-name}."
      },
      "owner()": {
        "details": "Returns the address of the current owner."
      },
      "ownerOf(uint256)": {
        "details": "See {IERC721-ownerOf}."
      },
      "pause()": {
        "details": "Pauses all token transfers.     * See {ERC721Pausable} and {Pausable-_pause}.     * Requirements:     * - the caller must have the `PAUSER_ROLE`."
      },
      "paused()": {
        "details": "Returns true if the contract is paused, and false otherwise."
      },
      "renounceOwnership()": {
        "details": "Leaves the contract without owner. It will not be possible to call `onlyOwner` functions anymore. Can only be called by the current owner.     * NOTE: Renouncing ownership will leave the contract without an owner, thereby removing any functionality that is only available to the owner."
      },
      "renounceRole(bytes32,address)": {
        "details": "Revokes `role` from the calling account.     * Roles are often managed via {grantRole} and {revokeRole}: this function's purpose is to provide a mechanism for accounts to lose their privileges if they are compromised (such as when a trusted device is misplaced).     * If the calling account had been granted `role`, emits a {RoleRevoked} event.     * Requirements:     * - the caller must be `account`."
      },
      "revokeRole(bytes32,address)": {
        "details": "Revokes `role` from `account`.     * If `account` had been granted `role`, emits a {RoleRevoked} event.     * Requirements:     * - the caller must have ``role``'s admin role."
      },
      "safeTransferFrom(address,address,uint256)": {
        "details": "See {IERC721-safeTransferFrom}."
      },
      "safeTransferFrom(address,address,uint256,bytes)": {
        "details": "See {IERC721-safeTransferFrom}."
      },
      "setApprovalForAll(address,bool)": {
        "details": "See {IERC721-setApprovalForAll}."
      },
      "supportsInterface(bytes4)": {
        "details": "See {IERC165-supportsInterface}.     * Time complexity O(1), guaranteed to always use less than 30 000 gas."
      },
      "symbol()": {
        "details": "See {IERC721Metadata-symbol}."
      },
      "tokenByIndex(uint256)": {
        "details": "See {IERC721Enumerable-tokenByIndex}."
      },
      "tokenOfOwnerByIndex(address,uint256)": {
        "details": "See {IERC721Enumerable-tokenOfOwnerByIndex}."
      },
      "totalSupply()": {
        "details": "See {IERC721Enumerable-totalSupply}."
      },
      "transferFrom(address,address,uint256)": {
        "details": "See {IERC721-transferFrom}."
      },
      "transferOwnership(address)": {
        "details": "Transfers ownership of the contract to a new account (`newOwner`). Can only be called by the current owner."
      },
      "unpause()": {
        "details": "Unpauses all token transfers.     * See {ERC721Pausable} and {Pausable-_unpause}.     * Requirements:     * - the caller must have the `PAUSER_ROLE`."
      },
      "withdraw()": {
        "details": "Withdraw ether from this contract (Callable by owner only)"
      }
    }
  },
  "userdoc": {
    "methods": {}
  },
  "storageLayout": {
    "storage": [
      {
        "astId": 546,
        "contract": "contracts/CryptOrchidERC721/CryptOrchidERC721.sol:CryptOrchidERC721",
        "label": "_roles",
        "offset": 0,
        "slot": "0",
        "type": "t_mapping(t_bytes32,t_struct(RoleData)542_storage)"
      },
      {
        "astId": 929,
        "contract": "contracts/CryptOrchidERC721/CryptOrchidERC721.sol:CryptOrchidERC721",
        "label": "_supportedInterfaces",
        "offset": 0,
        "slot": "1",
        "type": "t_mapping(t_bytes4,t_bool)"
      },
      {
        "astId": 2119,
        "contract": "contracts/CryptOrchidERC721/CryptOrchidERC721.sol:CryptOrchidERC721",
        "label": "_holderTokens",
        "offset": 0,
        "slot": "2",
        "type": "t_mapping(t_address,t_struct(UintSet)4602_storage)"
      },
      {
        "astId": 2121,
        "contract": "contracts/CryptOrchidERC721/CryptOrchidERC721.sol:CryptOrchidERC721",
        "label": "_tokenOwners",
        "offset": 0,
        "slot": "3",
        "type": "t_struct(UintToAddressMap)3979_storage"
      },
      {
        "astId": 2125,
        "contract": "contracts/CryptOrchidERC721/CryptOrchidERC721.sol:CryptOrchidERC721",
        "label": "_tokenApprovals",
        "offset": 0,
        "slot": "5",
        "type": "t_mapping(t_uint256,t_address)"
      },
      {
        "astId": 2131,
        "contract": "contracts/CryptOrchidERC721/CryptOrchidERC721.sol:CryptOrchidERC721",
        "label": "_operatorApprovals",
        "offset": 0,
        "slot": "6",
        "type": "t_mapping(t_address,t_mapping(t_address,t_bool))"
      },
      {
        "astId": 2133,
        "contract": "contracts/CryptOrchidERC721/CryptOrchidERC721.sol:CryptOrchidERC721",
        "label": "_name",
        "offset": 0,
        "slot": "7",
        "type": "t_string_storage"
      },
      {
        "astId": 2135,
        "contract": "contracts/CryptOrchidERC721/CryptOrchidERC721.sol:CryptOrchidERC721",
        "label": "_symbol",
        "offset": 0,
        "slot": "8",
        "type": "t_string_storage"
      },
      {
        "astId": 2139,
        "contract": "contracts/CryptOrchidERC721/CryptOrchidERC721.sol:CryptOrchidERC721",
        "label": "_tokenURIs",
        "offset": 0,
        "slot": "9",
        "type": "t_mapping(t_uint256,t_string_storage)"
      },
      {
        "astId": 2141,
        "contract": "contracts/CryptOrchidERC721/CryptOrchidERC721.sol:CryptOrchidERC721",
        "label": "_baseURI",
        "offset": 0,
        "slot": "10",
        "type": "t_string_storage"
      },
      {
        "astId": 4715,
        "contract": "contracts/CryptOrchidERC721/CryptOrchidERC721.sol:CryptOrchidERC721",
        "label": "_paused",
        "offset": 0,
        "slot": "11",
        "type": "t_bool"
      },
      {
        "astId": 1371,
        "contract": "contracts/CryptOrchidERC721/CryptOrchidERC721.sol:CryptOrchidERC721",
        "label": "_tokenIdTracker",
        "offset": 0,
        "slot": "12",
        "type": "t_struct(Counter)3605_storage"
      },
      {
        "astId": 814,
        "contract": "contracts/CryptOrchidERC721/CryptOrchidERC721.sol:CryptOrchidERC721",
        "label": "_owner",
        "offset": 0,
        "slot": "13",
        "type": "t_address"
      },
      {
        "astId": 81,
        "contract": "contracts/CryptOrchidERC721/CryptOrchidERC721.sol:CryptOrchidERC721",
        "label": "nonces",
        "offset": 0,
        "slot": "14",
        "type": "t_mapping(t_bytes32,t_uint256)"
      },
      {
        "astId": 4911,
        "contract": "contracts/CryptOrchidERC721/CryptOrchidERC721.sol:CryptOrchidERC721",
        "label": "cryptorchids",
        "offset": 0,
        "slot": "15",
        "type": "t_mapping(t_uint256,t_struct(CryptOrchid)4907_storage)"
      },
      {
        "astId": 4919,
        "contract": "contracts/CryptOrchidERC721/CryptOrchidERC721.sol:CryptOrchidERC721",
        "label": "saleStarted",
        "offset": 0,
        "slot": "16",
        "type": "t_bool"
      },
      {
        "astId": 4953,
        "contract": "contracts/CryptOrchidERC721/CryptOrchidERC721.sol:CryptOrchidERC721",
        "label": "limits",
        "offset": 0,
        "slot": "17",
        "type": "t_array(t_uint16)10_storage"
      },
      {
        "astId": 4968,
        "contract": "contracts/CryptOrchidERC721/CryptOrchidERC721.sol:CryptOrchidERC721",
        "label": "genum",
        "offset": 0,
        "slot": "18",
        "type": "t_array(t_string_storage)10_storage"
      },
      {
        "astId": 4983,
        "contract": "contracts/CryptOrchidERC721/CryptOrchidERC721.sol:CryptOrchidERC721",
        "label": "speciesIPFSConstant",
        "offset": 0,
        "slot": "28",
        "type": "t_array(t_string_storage)10_storage"
      },
      {
        "astId": 4998,
        "contract": "contracts/CryptOrchidERC721/CryptOrchidERC721.sol:CryptOrchidERC721",
        "label": "deadSpeciesIPFSConstant",
        "offset": 0,
        "slot": "38",
        "type": "t_array(t_string_storage)10_storage"
      },
      {
        "astId": 5000,
        "contract": "contracts/CryptOrchidERC721/CryptOrchidERC721.sol:CryptOrchidERC721",
        "label": "_tokenIds",
        "offset": 0,
        "slot": "48",
        "type": "t_struct(Counter)3605_storage"
      },
      {
        "astId": 5002,
        "contract": "contracts/CryptOrchidERC721/CryptOrchidERC721.sol:CryptOrchidERC721",
        "label": "keyHash",
        "offset": 0,
        "slot": "49",
        "type": "t_bytes32"
      },
      {
        "astId": 5004,
        "contract": "contracts/CryptOrchidERC721/CryptOrchidERC721.sol:CryptOrchidERC721",
        "label": "vrfFee",
        "offset": 0,
        "slot": "50",
        "type": "t_uint256"
      },
      {
        "astId": 5006,
        "contract": "contracts/CryptOrchidERC721/CryptOrchidERC721.sol:CryptOrchidERC721",
        "label": "randomResult",
        "offset": 0,
        "slot": "51",
        "type": "t_uint256"
      },
      {
        "astId": 5008,
        "contract": "contracts/CryptOrchidERC721/CryptOrchidERC721.sol:CryptOrchidERC721",
        "label": "VRFCoordinator",
        "offset": 0,
        "slot": "52",
        "type": "t_address"
      },
      {
        "astId": 5010,
        "contract": "contracts/CryptOrchidERC721/CryptOrchidERC721.sol:CryptOrchidERC721",
        "label": "LinkToken",
        "offset": 0,
        "slot": "53",
        "type": "t_address"
      },
      {
        "astId": 5038,
        "contract": "contracts/CryptOrchidERC721/CryptOrchidERC721.sol:CryptOrchidERC721",
        "label": "requestToToken",
        "offset": 0,
        "slot": "54",
        "type": "t_mapping(t_bytes32,t_uint256)"
      },
      {
        "astId": 5042,
        "contract": "contracts/CryptOrchidERC721/CryptOrchidERC721.sol:CryptOrchidERC721",
        "label": "speciesIPFS",
        "offset": 0,
        "slot": "55",
        "type": "t_mapping(t_bytes32,t_string_storage)"
      },
      {
        "astId": 5046,
        "contract": "contracts/CryptOrchidERC721/CryptOrchidERC721.sol:CryptOrchidERC721",
        "label": "deadSpeciesIPFS",
        "offset": 0,
        "slot": "56",
        "type": "t_mapping(t_bytes32,t_string_storage)"
      }
    ],
    "types": {
      "t_address": {
        "encoding": "inplace",
        "label": "address",
        "numberOfBytes": "20"
      },
      "t_array(t_bytes32)dyn_storage": {
        "base": "t_bytes32",
        "encoding": "dynamic_array",
        "label": "bytes32[]",
        "numberOfBytes": "32"
      },
      "t_array(t_string_storage)10_storage": {
        "base": "t_string_storage",
        "encoding": "inplace",
        "label": "string[10]",
        "numberOfBytes": "320"
      },
      "t_array(t_struct(MapEntry)3653_storage)dyn_storage": {
        "base": "t_struct(MapEntry)3653_storage",
        "encoding": "dynamic_array",
        "label": "struct EnumerableMap.MapEntry[]",
        "numberOfBytes": "32"
      },
      "t_array(t_uint16)10_storage": {
        "base": "t_uint16",
        "encoding": "inplace",
        "label": "uint16[10]",
        "numberOfBytes": "32"
      },
      "t_bool": {
        "encoding": "inplace",
        "label": "bool",
        "numberOfBytes": "1"
      },
      "t_bytes32": {
        "encoding": "inplace",
        "label": "bytes32",
        "numberOfBytes": "32"
      },
      "t_bytes4": {
        "encoding": "inplace",
        "label": "bytes4",
        "numberOfBytes": "4"
      },
      "t_mapping(t_address,t_bool)": {
        "encoding": "mapping",
        "key": "t_address",
        "label": "mapping(address => bool)",
        "numberOfBytes": "32",
        "value": "t_bool"
      },
      "t_mapping(t_address,t_mapping(t_address,t_bool))": {
        "encoding": "mapping",
        "key": "t_address",
        "label": "mapping(address => mapping(address => bool))",
        "numberOfBytes": "32",
        "value": "t_mapping(t_address,t_bool)"
      },
      "t_mapping(t_address,t_struct(UintSet)4602_storage)": {
        "encoding": "mapping",
        "key": "t_address",
        "label": "mapping(address => struct EnumerableSet.UintSet)",
        "numberOfBytes": "32",
        "value": "t_struct(UintSet)4602_storage"
      },
      "t_mapping(t_bytes32,t_string_storage)": {
        "encoding": "mapping",
        "key": "t_bytes32",
        "label": "mapping(bytes32 => string)",
        "numberOfBytes": "32",
        "value": "t_string_storage"
      },
      "t_mapping(t_bytes32,t_struct(RoleData)542_storage)": {
        "encoding": "mapping",
        "key": "t_bytes32",
        "label": "mapping(bytes32 => struct AccessControl.RoleData)",
        "numberOfBytes": "32",
        "value": "t_struct(RoleData)542_storage"
      },
      "t_mapping(t_bytes32,t_uint256)": {
        "encoding": "mapping",
        "key": "t_bytes32",
        "label": "mapping(bytes32 => uint256)",
        "numberOfBytes": "32",
        "value": "t_uint256"
      },
      "t_mapping(t_bytes4,t_bool)": {
        "encoding": "mapping",
        "key": "t_bytes4",
        "label": "mapping(bytes4 => bool)",
        "numberOfBytes": "32",
        "value": "t_bool"
      },
      "t_mapping(t_uint256,t_address)": {
        "encoding": "mapping",
        "key": "t_uint256",
        "label": "mapping(uint256 => address)",
        "numberOfBytes": "32",
        "value": "t_address"
      },
      "t_mapping(t_uint256,t_string_storage)": {
        "encoding": "mapping",
        "key": "t_uint256",
        "label": "mapping(uint256 => string)",
        "numberOfBytes": "32",
        "value": "t_string_storage"
      },
      "t_mapping(t_uint256,t_struct(CryptOrchid)4907_storage)": {
        "encoding": "mapping",
        "key": "t_uint256",
        "label": "mapping(uint256 => struct CryptOrchidERC721.CryptOrchid)",
        "numberOfBytes": "32",
        "value": "t_struct(CryptOrchid)4907_storage"
      },
      "t_string_storage": {
        "encoding": "bytes",
        "label": "string",
        "numberOfBytes": "32"
      },
      "t_struct(AddressSet)4481_storage": {
        "encoding": "inplace",
        "label": "struct EnumerableSet.AddressSet",
        "members": [
          {
            "astId": 4480,
            "contract": "contracts/CryptOrchidERC721/CryptOrchidERC721.sol:CryptOrchidERC721",
            "label": "_inner",
            "offset": 0,
            "slot": "0",
            "type": "t_struct(Set)4216_storage"
          }
        ],
        "numberOfBytes": "64"
      },
      "t_struct(Counter)3605_storage": {
        "encoding": "inplace",
        "label": "struct Counters.Counter",
        "members": [
          {
            "astId": 3604,
            "contract": "contracts/CryptOrchidERC721/CryptOrchidERC721.sol:CryptOrchidERC721",
            "label": "_value",
            "offset": 0,
            "slot": "0",
            "type": "t_uint256"
          }
        ],
        "numberOfBytes": "32"
      },
      "t_struct(CryptOrchid)4907_storage": {
        "encoding": "inplace",
        "label": "struct CryptOrchidERC721.CryptOrchid",
        "members": [
          {
            "astId": 4902,
            "contract": "contracts/CryptOrchidERC721/CryptOrchidERC721.sol:CryptOrchidERC721",
            "label": "species",
            "offset": 0,
            "slot": "0",
            "type": "t_string_storage"
          },
          {
            "astId": 4904,
            "contract": "contracts/CryptOrchidERC721/CryptOrchidERC721.sol:CryptOrchidERC721",
            "label": "plantedAt",
            "offset": 0,
            "slot": "1",
            "type": "t_uint256"
          },
          {
            "astId": 4906,
            "contract": "contracts/CryptOrchidERC721/CryptOrchidERC721.sol:CryptOrchidERC721",
            "label": "waterLevel",
            "offset": 0,
            "slot": "2",
            "type": "t_uint256"
          }
        ],
        "numberOfBytes": "96"
      },
      "t_struct(Map)3661_storage": {
        "encoding": "inplace",
        "label": "struct EnumerableMap.Map",
        "members": [
          {
            "astId": 3656,
            "contract": "contracts/CryptOrchidERC721/CryptOrchidERC721.sol:CryptOrchidERC721",
            "label": "_entries",
            "offset": 0,
            "slot": "0",
            "type": "t_array(t_struct(MapEntry)3653_storage)dyn_storage"
          },
          {
            "astId": 3660,
            "contract": "contracts/CryptOrchidERC721/CryptOrchidERC721.sol:CryptOrchidERC721",
            "label": "_indexes",
            "offset": 0,
            "slot": "1",
            "type": "t_mapping(t_bytes32,t_uint256)"
          }
        ],
        "numberOfBytes": "64"
      },
      "t_struct(MapEntry)3653_storage": {
        "encoding": "inplace",
        "label": "struct EnumerableMap.MapEntry",
        "members": [
          {
            "astId": 3650,
            "contract": "contracts/CryptOrchidERC721/CryptOrchidERC721.sol:CryptOrchidERC721",
            "label": "_key",
            "offset": 0,
            "slot": "0",
            "type": "t_bytes32"
          },
          {
            "astId": 3652,
            "contract": "contracts/CryptOrchidERC721/CryptOrchidERC721.sol:CryptOrchidERC721",
            "label": "_value",
            "offset": 0,
            "slot": "1",
            "type": "t_bytes32"
          }
        ],
        "numberOfBytes": "64"
      },
      "t_struct(RoleData)542_storage": {
        "encoding": "inplace",
        "label": "struct AccessControl.RoleData",
        "members": [
          {
            "astId": 539,
            "contract": "contracts/CryptOrchidERC721/CryptOrchidERC721.sol:CryptOrchidERC721",
            "label": "members",
            "offset": 0,
            "slot": "0",
            "type": "t_struct(AddressSet)4481_storage"
          },
          {
            "astId": 541,
            "contract": "contracts/CryptOrchidERC721/CryptOrchidERC721.sol:CryptOrchidERC721",
            "label": "adminRole",
            "offset": 0,
            "slot": "2",
            "type": "t_bytes32"
          }
        ],
        "numberOfBytes": "96"
      },
      "t_struct(Set)4216_storage": {
        "encoding": "inplace",
        "label": "struct EnumerableSet.Set",
        "members": [
          {
            "astId": 4211,
            "contract": "contracts/CryptOrchidERC721/CryptOrchidERC721.sol:CryptOrchidERC721",
            "label": "_values",
            "offset": 0,
            "slot": "0",
            "type": "t_array(t_bytes32)dyn_storage"
          },
          {
            "astId": 4215,
            "contract": "contracts/CryptOrchidERC721/CryptOrchidERC721.sol:CryptOrchidERC721",
            "label": "_indexes",
            "offset": 0,
            "slot": "1",
            "type": "t_mapping(t_bytes32,t_uint256)"
          }
        ],
        "numberOfBytes": "64"
      },
      "t_struct(UintSet)4602_storage": {
        "encoding": "inplace",
        "label": "struct EnumerableSet.UintSet",
        "members": [
          {
            "astId": 4601,
            "contract": "contracts/CryptOrchidERC721/CryptOrchidERC721.sol:CryptOrchidERC721",
            "label": "_inner",
            "offset": 0,
            "slot": "0",
            "type": "t_struct(Set)4216_storage"
          }
        ],
        "numberOfBytes": "64"
      },
      "t_struct(UintToAddressMap)3979_storage": {
        "encoding": "inplace",
        "label": "struct EnumerableMap.UintToAddressMap",
        "members": [
          {
            "astId": 3978,
            "contract": "contracts/CryptOrchidERC721/CryptOrchidERC721.sol:CryptOrchidERC721",
            "label": "_inner",
            "offset": 0,
            "slot": "0",
            "type": "t_struct(Map)3661_storage"
          }
        ],
        "numberOfBytes": "64"
      },
      "t_uint16": {
        "encoding": "inplace",
        "label": "uint16",
        "numberOfBytes": "2"
      },
      "t_uint256": {
        "encoding": "inplace",
        "label": "uint256",
        "numberOfBytes": "32"
      }
    }
  }
}