{
  "address": "0x5936C3d6D825784a388745192C0F01dA1c10F0D5",
  "abi": [
    {
      "inputs": [
        {
          "internalType": "address",
          "name": "_VRFCoordinator",
          "type": "address"
        },
        {
          "internalType": "address",
          "name": "_LinkToken",
          "type": "address"
        },
        {
          "internalType": "bytes32",
          "name": "_keyhash",
          "type": "bytes32"
        }
      ],
      "stateMutability": "payable",
      "type": "constructor"
    },
    {
      "anonymous": false,
      "inputs": [
        {
          "indexed": true,
          "internalType": "address",
          "name": "owner",
          "type": "address"
        },
        {
          "indexed": true,
          "internalType": "address",
          "name": "approved",
          "type": "address"
        },
        {
          "indexed": true,
          "internalType": "uint256",
          "name": "tokenId",
          "type": "uint256"
        }
      ],
      "name": "Approval",
      "type": "event"
    },
    {
      "anonymous": false,
      "inputs": [
        {
          "indexed": true,
          "internalType": "address",
          "name": "owner",
          "type": "address"
        },
        {
          "indexed": true,
          "internalType": "address",
          "name": "operator",
          "type": "address"
        },
        {
          "indexed": false,
          "internalType": "bool",
          "name": "approved",
          "type": "bool"
        }
      ],
      "name": "ApprovalForAll",
      "type": "event"
    },
    {
      "anonymous": false,
      "inputs": [
        {
          "indexed": true,
          "internalType": "address",
          "name": "previousOwner",
          "type": "address"
        },
        {
          "indexed": true,
          "internalType": "address",
          "name": "newOwner",
          "type": "address"
        }
      ],
      "name": "OwnershipTransferred",
      "type": "event"
    },
    {
      "anonymous": false,
      "inputs": [
        {
          "indexed": false,
          "internalType": "address",
          "name": "account",
          "type": "address"
        }
      ],
      "name": "Paused",
      "type": "event"
    },
    {
      "anonymous": false,
      "inputs": [
        {
          "indexed": true,
          "internalType": "bytes32",
          "name": "role",
          "type": "bytes32"
        },
        {
          "indexed": true,
          "internalType": "bytes32",
          "name": "previousAdminRole",
          "type": "bytes32"
        },
        {
          "indexed": true,
          "internalType": "bytes32",
          "name": "newAdminRole",
          "type": "bytes32"
        }
      ],
      "name": "RoleAdminChanged",
      "type": "event"
    },
    {
      "anonymous": false,
      "inputs": [
        {
          "indexed": true,
          "internalType": "bytes32",
          "name": "role",
          "type": "bytes32"
        },
        {
          "indexed": true,
          "internalType": "address",
          "name": "account",
          "type": "address"
        },
        {
          "indexed": true,
          "internalType": "address",
          "name": "sender",
          "type": "address"
        }
      ],
      "name": "RoleGranted",
      "type": "event"
    },
    {
      "anonymous": false,
      "inputs": [
        {
          "indexed": true,
          "internalType": "bytes32",
          "name": "role",
          "type": "bytes32"
        },
        {
          "indexed": true,
          "internalType": "address",
          "name": "account",
          "type": "address"
        },
        {
          "indexed": true,
          "internalType": "address",
          "name": "sender",
          "type": "address"
        }
      ],
      "name": "RoleRevoked",
      "type": "event"
    },
    {
      "anonymous": false,
      "inputs": [
        {
          "indexed": true,
          "internalType": "address",
          "name": "from",
          "type": "address"
        },
        {
          "indexed": true,
          "internalType": "address",
          "name": "to",
          "type": "address"
        },
        {
          "indexed": true,
          "internalType": "uint256",
          "name": "tokenId",
          "type": "uint256"
        }
      ],
      "name": "Transfer",
      "type": "event"
    },
    {
      "anonymous": false,
      "inputs": [
        {
          "indexed": false,
          "internalType": "address",
          "name": "account",
          "type": "address"
        }
      ],
      "name": "Unpaused",
      "type": "event"
    },
    {
      "inputs": [],
      "name": "DEFAULT_ADMIN_ROLE",
      "outputs": [
        {
          "internalType": "bytes32",
          "name": "",
          "type": "bytes32"
        }
      ],
      "stateMutability": "view",
      "type": "function"
    },
    {
      "inputs": [],
      "name": "LinkToken",
      "outputs": [
        {
          "internalType": "address",
          "name": "",
          "type": "address"
        }
      ],
      "stateMutability": "view",
      "type": "function"
    },
    {
      "inputs": [],
      "name": "MINTER_ROLE",
      "outputs": [
        {
          "internalType": "bytes32",
          "name": "",
          "type": "bytes32"
        }
      ],
      "stateMutability": "view",
      "type": "function"
    },
    {
      "inputs": [],
      "name": "PAUSER_ROLE",
      "outputs": [
        {
          "internalType": "bytes32",
          "name": "",
          "type": "bytes32"
        }
      ],
      "stateMutability": "view",
      "type": "function"
    },
    {
      "inputs": [],
      "name": "VRFCoordinator",
      "outputs": [
        {
          "internalType": "address",
          "name": "",
          "type": "address"
        }
      ],
      "stateMutability": "view",
      "type": "function"
    },
    {
      "inputs": [
        {
          "internalType": "uint256",
          "name": "index",
          "type": "uint256"
        },
        {
          "internalType": "uint256",
          "name": "currentTime",
          "type": "uint256"
        }
      ],
      "name": "alive",
      "outputs": [
        {
          "internalType": "bool",
          "name": "",
          "type": "bool"
        }
      ],
      "stateMutability": "view",
      "type": "function"
    },
    {
      "inputs": [
        {
          "internalType": "address",
          "name": "to",
          "type": "address"
        },
        {
          "internalType": "uint256",
          "name": "tokenId",
          "type": "uint256"
        }
      ],
      "name": "approve",
      "outputs": [],
      "stateMutability": "nonpayable",
      "type": "function"
    },
    {
      "inputs": [
        {
          "internalType": "address",
          "name": "owner",
          "type": "address"
        }
      ],
      "name": "balanceOf",
      "outputs": [
        {
          "internalType": "uint256",
          "name": "",
          "type": "uint256"
        }
      ],
      "stateMutability": "view",
      "type": "function"
    },
    {
      "inputs": [],
      "name": "baseURI",
      "outputs": [
        {
          "internalType": "string",
          "name": "",
          "type": "string"
        }
      ],
      "stateMutability": "view",
      "type": "function"
    },
    {
      "inputs": [
        {
          "internalType": "uint256",
          "name": "tokenId",
          "type": "uint256"
        }
      ],
      "name": "burn",
      "outputs": [],
      "stateMutability": "nonpayable",
      "type": "function"
    },
    {
      "inputs": [],
      "name": "creator",
      "outputs": [
        {
          "internalType": "address payable",
          "name": "",
          "type": "address"
        }
      ],
      "stateMutability": "view",
      "type": "function"
    },
    {
      "inputs": [
        {
          "internalType": "uint256",
          "name": "",
          "type": "uint256"
        }
      ],
      "name": "cryptorchids",
      "outputs": [
        {
          "internalType": "string",
          "name": "species",
          "type": "string"
        },
        {
          "internalType": "string",
          "name": "latinSpecies",
          "type": "string"
        },
        {
          "internalType": "uint256",
          "name": "plantedAt",
          "type": "uint256"
        }
      ],
      "stateMutability": "view",
      "type": "function"
    },
    {
      "inputs": [
        {
          "internalType": "uint256",
          "name": "tokenId",
          "type": "uint256"
        }
      ],
      "name": "getApproved",
      "outputs": [
        {
          "internalType": "address",
          "name": "",
          "type": "address"
        }
      ],
      "stateMutability": "view",
      "type": "function"
    },
    {
      "inputs": [
        {
          "internalType": "bytes32",
          "name": "role",
          "type": "bytes32"
        }
      ],
      "name": "getRoleAdmin",
      "outputs": [
        {
          "internalType": "bytes32",
          "name": "",
          "type": "bytes32"
        }
      ],
      "stateMutability": "view",
      "type": "function"
    },
    {
      "inputs": [
        {
          "internalType": "bytes32",
          "name": "role",
          "type": "bytes32"
        },
        {
          "internalType": "uint256",
          "name": "index",
          "type": "uint256"
        }
      ],
      "name": "getRoleMember",
      "outputs": [
        {
          "internalType": "address",
          "name": "",
          "type": "address"
        }
      ],
      "stateMutability": "view",
      "type": "function"
    },
    {
      "inputs": [
        {
          "internalType": "bytes32",
          "name": "role",
          "type": "bytes32"
        }
      ],
      "name": "getRoleMemberCount",
      "outputs": [
        {
          "internalType": "uint256",
          "name": "",
          "type": "uint256"
        }
      ],
      "stateMutability": "view",
      "type": "function"
    },
    {
      "inputs": [
        {
          "internalType": "uint256",
          "name": "tokenId",
          "type": "uint256"
        }
      ],
      "name": "getTokenMetadata",
      "outputs": [
        {
          "internalType": "string",
          "name": "",
          "type": "string"
        },
        {
          "internalType": "string",
          "name": "",
          "type": "string"
        },
        {
          "internalType": "uint256",
          "name": "",
          "type": "uint256"
        }
      ],
      "stateMutability": "view",
      "type": "function"
    },
    {
      "inputs": [
        {
          "internalType": "bytes32",
          "name": "role",
          "type": "bytes32"
        },
        {
          "internalType": "address",
          "name": "account",
          "type": "address"
        }
      ],
      "name": "grantRole",
      "outputs": [],
      "stateMutability": "nonpayable",
      "type": "function"
    },
    {
      "inputs": [
        {
          "internalType": "bytes32",
          "name": "role",
          "type": "bytes32"
        },
        {
          "internalType": "address",
          "name": "account",
          "type": "address"
        }
      ],
      "name": "hasRole",
      "outputs": [
        {
          "internalType": "bool",
          "name": "",
          "type": "bool"
        }
      ],
      "stateMutability": "view",
      "type": "function"
    },
    {
      "inputs": [
        {
          "internalType": "address",
          "name": "owner",
          "type": "address"
        },
        {
          "internalType": "address",
          "name": "operator",
          "type": "address"
        }
      ],
      "name": "isApprovedForAll",
      "outputs": [
        {
          "internalType": "bool",
          "name": "",
          "type": "bool"
        }
      ],
      "stateMutability": "view",
      "type": "function"
    },
    {
      "inputs": [
        {
          "internalType": "address",
          "name": "to",
          "type": "address"
        }
      ],
      "name": "mint",
      "outputs": [],
      "stateMutability": "nonpayable",
      "type": "function"
    },
    {
      "inputs": [],
      "name": "name",
      "outputs": [
        {
          "internalType": "string",
          "name": "",
          "type": "string"
        }
      ],
      "stateMutability": "view",
      "type": "function"
    },
    {
      "inputs": [],
      "name": "owner",
      "outputs": [
        {
          "internalType": "address",
          "name": "",
          "type": "address"
        }
      ],
      "stateMutability": "view",
      "type": "function"
    },
    {
      "inputs": [
        {
          "internalType": "uint256",
          "name": "tokenId",
          "type": "uint256"
        }
      ],
      "name": "ownerOf",
      "outputs": [
        {
          "internalType": "address",
          "name": "",
          "type": "address"
        }
      ],
      "stateMutability": "view",
      "type": "function"
    },
    {
      "inputs": [],
      "name": "pause",
      "outputs": [],
      "stateMutability": "nonpayable",
      "type": "function"
    },
    {
      "inputs": [],
      "name": "paused",
      "outputs": [
        {
          "internalType": "bool",
          "name": "",
          "type": "bool"
        }
      ],
      "stateMutability": "view",
      "type": "function"
    },
    {
      "inputs": [],
      "name": "randomResult",
      "outputs": [
        {
          "internalType": "uint256",
          "name": "",
          "type": "uint256"
        }
      ],
      "stateMutability": "view",
      "type": "function"
    },
    {
      "inputs": [
        {
          "internalType": "bytes32",
          "name": "requestId",
          "type": "bytes32"
        },
        {
          "internalType": "uint256",
          "name": "randomness",
          "type": "uint256"
        }
      ],
      "name": "rawFulfillRandomness",
      "outputs": [],
      "stateMutability": "nonpayable",
      "type": "function"
    },
    {
      "inputs": [],
      "name": "renounceOwnership",
      "outputs": [],
      "stateMutability": "nonpayable",
      "type": "function"
    },
    {
      "inputs": [
        {
          "internalType": "bytes32",
          "name": "role",
          "type": "bytes32"
        },
        {
          "internalType": "address",
          "name": "account",
          "type": "address"
        }
      ],
      "name": "renounceRole",
      "outputs": [],
      "stateMutability": "nonpayable",
      "type": "function"
    },
    {
      "inputs": [
        {
          "internalType": "bytes32",
          "name": "role",
          "type": "bytes32"
        },
        {
          "internalType": "address",
          "name": "account",
          "type": "address"
        }
      ],
      "name": "revokeRole",
      "outputs": [],
      "stateMutability": "nonpayable",
      "type": "function"
    },
    {
      "inputs": [
        {
          "internalType": "address",
          "name": "from",
          "type": "address"
        },
        {
          "internalType": "address",
          "name": "to",
          "type": "address"
        },
        {
          "internalType": "uint256",
          "name": "tokenId",
          "type": "uint256"
        }
      ],
      "name": "safeTransferFrom",
      "outputs": [],
      "stateMutability": "nonpayable",
      "type": "function"
    },
    {
      "inputs": [
        {
          "internalType": "address",
          "name": "from",
          "type": "address"
        },
        {
          "internalType": "address",
          "name": "to",
          "type": "address"
        },
        {
          "internalType": "uint256",
          "name": "tokenId",
          "type": "uint256"
        },
        {
          "internalType": "bytes",
          "name": "_data",
          "type": "bytes"
        }
      ],
      "name": "safeTransferFrom",
      "outputs": [],
      "stateMutability": "nonpayable",
      "type": "function"
    },
    {
      "inputs": [
        {
          "internalType": "address",
          "name": "operator",
          "type": "address"
        },
        {
          "internalType": "bool",
          "name": "approved",
          "type": "bool"
        }
      ],
      "name": "setApprovalForAll",
      "outputs": [],
      "stateMutability": "nonpayable",
      "type": "function"
    },
    {
      "inputs": [
        {
          "internalType": "uint256",
          "name": "index",
          "type": "uint256"
        },
        {
          "internalType": "uint256",
          "name": "currentTime",
          "type": "uint256"
        }
      ],
      "name": "status",
      "outputs": [
        {
          "internalType": "string",
          "name": "",
          "type": "string"
        }
      ],
      "stateMutability": "view",
      "type": "function"
    },
    {
      "inputs": [
        {
          "internalType": "bytes4",
          "name": "interfaceId",
          "type": "bytes4"
        }
      ],
      "name": "supportsInterface",
      "outputs": [
        {
          "internalType": "bool",
          "name": "",
          "type": "bool"
        }
      ],
      "stateMutability": "view",
      "type": "function"
    },
    {
      "inputs": [],
      "name": "symbol",
      "outputs": [
        {
          "internalType": "string",
          "name": "",
          "type": "string"
        }
      ],
      "stateMutability": "view",
      "type": "function"
    },
    {
      "inputs": [
        {
          "internalType": "uint256",
          "name": "index",
          "type": "uint256"
        }
      ],
      "name": "tokenByIndex",
      "outputs": [
        {
          "internalType": "uint256",
          "name": "",
          "type": "uint256"
        }
      ],
      "stateMutability": "view",
      "type": "function"
    },
    {
      "inputs": [
        {
          "internalType": "address",
          "name": "owner",
          "type": "address"
        },
        {
          "internalType": "uint256",
          "name": "index",
          "type": "uint256"
        }
      ],
      "name": "tokenOfOwnerByIndex",
      "outputs": [
        {
          "internalType": "uint256",
          "name": "",
          "type": "uint256"
        }
      ],
      "stateMutability": "view",
      "type": "function"
    },
    {
      "inputs": [
        {
          "internalType": "uint256",
          "name": "tokenId",
          "type": "uint256"
        }
      ],
      "name": "tokenURI",
      "outputs": [
        {
          "internalType": "string",
          "name": "",
          "type": "string"
        }
      ],
      "stateMutability": "view",
      "type": "function"
    },
    {
      "inputs": [],
      "name": "totalSupply",
      "outputs": [
        {
          "internalType": "uint256",
          "name": "",
          "type": "uint256"
        }
      ],
      "stateMutability": "view",
      "type": "function"
    },
    {
      "inputs": [
        {
          "internalType": "address",
          "name": "from",
          "type": "address"
        },
        {
          "internalType": "address",
          "name": "to",
          "type": "address"
        },
        {
          "internalType": "uint256",
          "name": "tokenId",
          "type": "uint256"
        }
      ],
      "name": "transferFrom",
      "outputs": [],
      "stateMutability": "nonpayable",
      "type": "function"
    },
    {
      "inputs": [
        {
          "internalType": "address",
          "name": "newOwner",
          "type": "address"
        }
      ],
      "name": "transferOwnership",
      "outputs": [],
      "stateMutability": "nonpayable",
      "type": "function"
    },
    {
      "inputs": [],
      "name": "unpause",
      "outputs": [],
      "stateMutability": "nonpayable",
      "type": "function"
    },
    {
      "inputs": [
        {
          "internalType": "uint256",
          "name": "index",
          "type": "uint256"
        },
        {
          "internalType": "uint256",
          "name": "currentTime",
          "type": "uint256"
        }
      ],
      "name": "water",
      "outputs": [
        {
          "internalType": "string",
          "name": "",
          "type": "string"
        }
      ],
      "stateMutability": "nonpayable",
      "type": "function"
    },
    {
      "inputs": [
        {
          "internalType": "uint256",
          "name": "",
          "type": "uint256"
        }
      ],
      "name": "waterLevel",
      "outputs": [
        {
          "internalType": "uint256",
          "name": "",
          "type": "uint256"
        }
      ],
      "stateMutability": "view",
      "type": "function"
    },
    {
      "inputs": [
        {
          "internalType": "uint256",
          "name": "seed",
          "type": "uint256"
        }
      ],
      "name": "webMint",
      "outputs": [],
      "stateMutability": "payable",
      "type": "function"
    },
    {
      "stateMutability": "payable",
      "type": "receive"
    }
  ],
  "transactionHash": "0x8502c6566f4009e59e494f8ae2bd126b20c2560d6a3355747661ad4bd23f9e5c",
  "args": [
    "0xb3dCcb4Cf7a26f6cf6B120Cf5A73875B7BBc655B",
    "0x01be23585060835e02b77ef475b0cc51aa1e0709",
    "0x2ed0feb3e7fd2022120aa84fab1945545a9f2ffc9076fd6156fa96eaff4c1311"
  ],
  "solcInputHash": "55e5fc2cff5fa29123ff8ec225ff22ab",
  "bytecode": "0x60c060405261012c601155603c6012556040516200656e3803806200656e833981810160405260608110156200003457600080fd5b8101908080519060200190929190805190602001909291908051906020019092919050505082826040518060400160405280600c81526020017f43727970744f72636869647300000000000000000000000000000000000000008152506040518060400160405280600581526020017f4f524348440000000000000000000000000000000000000000000000000000008152506040518060400160405280601e81526020017f68747470733a2f2f63727970746f7263686964732e696f2f746f6b656e2f00008152508282620001176301ffc9a760e01b6200049560201b60201c565b81600790805190602001906200012f92919062000750565b5080600890805190602001906200014892919062000750565b50620001616380ac58cd60e01b6200049560201b60201c565b62000179635b5e139f60e01b6200049560201b60201c565b6200019163780e9d6360e01b6200049560201b60201c565b50506000600b60006101000a81548160ff021916908315150217905550620001d26000801b620001c66200059e60201b60201c565b620005a660201b60201c565b6200022860405180807f4d494e5445525f524f4c45000000000000000000000000000000000000000000815250600b01905060405180910390206200021c6200059e60201b60201c565b620005a660201b60201c565b6200027e60405180807f5041555345525f524f4c45000000000000000000000000000000000000000000815250600b0190506040518091039020620002726200059e60201b60201c565b620005a660201b60201c565b6200028f81620005bc60201b60201c565b5050506000620002a46200059e60201b60201c565b905080600e60006101000a81548173ffffffffffffffffffffffffffffffffffffffff021916908373ffffffffffffffffffffffffffffffffffffffff1602179055508073ffffffffffffffffffffffffffffffffffffffff16600073ffffffffffffffffffffffffffffffffffffffff167f8be0079c531659141344cd1fd0a4f28419497f9722a3daafe3b4186f6b6457e060405160405180910390a3508173ffffffffffffffffffffffffffffffffffffffff1660a08173ffffffffffffffffffffffffffffffffffffffff1660601b815250508073ffffffffffffffffffffffffffffffffffffffff1660808173ffffffffffffffffffffffffffffffffffffffff1660601b81525050505033601360006101000a81548173ffffffffffffffffffffffffffffffffffffffff021916908373ffffffffffffffffffffffffffffffffffffffff16021790555082601760006101000a81548173ffffffffffffffffffffffffffffffffffffffff021916908373ffffffffffffffffffffffffffffffffffffffff16021790555081601860006101000a81548173ffffffffffffffffffffffffffffffffffffffff021916908373ffffffffffffffffffffffffffffffffffffffff1602179055508060148190555067016345785d8a0000601581905550505050620007ff565b63ffffffff60e01b817bffffffffffffffffffffffffffffffffffffffffffffffffffffffff1916141562000532576040517f08c379a000000000000000000000000000000000000000000000000000000000815260040180806020018281038252601c8152602001807f4552433136353a20696e76616c696420696e746572666163652069640000000081525060200191505060405180910390fd5b6001806000837bffffffffffffffffffffffffffffffffffffffffffffffffffffffff19167bffffffffffffffffffffffffffffffffffffffffffffffffffffffff1916815260200190815260200160002060006101000a81548160ff02191690831515021790555050565b600033905090565b620005b88282620005d860201b60201c565b5050565b80600a9080519060200190620005d492919062000750565b5050565b62000606816000808581526020019081526020016000206000016200067b60201b620044871790919060201c565b1562000677576200061c6200059e60201b60201c565b73ffffffffffffffffffffffffffffffffffffffff168173ffffffffffffffffffffffffffffffffffffffff16837f2f8788117e7eff1d82e926ec794901d17c78024a50270940304540a733656f0d60405160405180910390a45b5050565b6000620006ab836000018373ffffffffffffffffffffffffffffffffffffffff1660001b620006b360201b60201c565b905092915050565b6000620006c783836200072d60201b60201c565b6200072257826000018290806001815401808255809150506001900390600052602060002001600090919091909150558260000180549050836001016000848152602001908152602001600020819055506001905062000727565b600090505b92915050565b600080836001016000848152602001908152602001600020541415905092915050565b828054600181600116156101000203166002900490600052602060002090601f016020900481019282601f106200079357805160ff1916838001178555620007c4565b82800160010185558215620007c4579182015b82811115620007c3578251825591602001919060010190620007a6565b5b509050620007d39190620007d7565b5090565b620007fc91905b80821115620007f8576000816000905550600101620007de565b5090565b90565b60805160601c60a05160601c615d3b620008336000398061247f5280614aa35250806140625280614a675250615d3b6000f3fe60806040526004361061028c5760003560e01c806370a082311161015a578063a22cb465116100c1578063d53913931161007a578063d53913931461139b578063d547741f146113c6578063e63ab1e914611421578063e985e9c51461144c578063f2ee634d146114d5578063f2fde38b1461159357610293565b8063a22cb46514610f44578063b3dd803a14610fa1578063b88d4fde1461105f578063c87b56dd14611171578063ca15c87314611225578063cac21c8f1461127457610293565b80639010d07c116101135780639010d07c14610d1e57806391d1485414610da357806394985ddd14610e1657806395d89b4114610e5b5780639981d4a114610eeb578063a217fddf14610f1957610293565b806370a0823114610b88578063715018a614610bed57806383851b7214610c045780638456cb5914610c535780638765a71d14610c6a5780638da5cb5b14610cc757610293565b806336568abe116101fe5780634f8e2fdf116101b75780634f8e2fdf1461087f5780635c975abb146108d657806360316801146109055780636352211e14610a2c5780636a62784214610aa75780636c0360eb14610af857610293565b806336568abe146106dd5780633f4ba83a1461073857806342619f661461074f57806342842e0e1461077a57806342966c68146107f55780634f6ccce71461083057610293565b806318160ddd1161025057806318160ddd146104c757806323b872dd146104f2578063248a9ca31461056d5780632f2ff15d146105bc5780632f745c591461061757806333b608631461068657610293565b806301ffc9a71461029857806302d05d3f1461030a57806306fdde0314610361578063081812fc146103f1578063095ea7b31461046c57610293565b3661029357005b600080fd5b3480156102a457600080fd5b506102f0600480360360208110156102bb57600080fd5b8101908080357bffffffffffffffffffffffffffffffffffffffffffffffffffffffff191690602001909291905050506115e4565b604051808215151515815260200191505060405180910390f35b34801561031657600080fd5b5061031f61164c565b604051808273ffffffffffffffffffffffffffffffffffffffff1673ffffffffffffffffffffffffffffffffffffffff16815260200191505060405180910390f35b34801561036d57600080fd5b50610376611672565b6040518080602001828103825283818151815260200191508051906020019080838360005b838110156103b657808201518184015260208101905061039b565b50505050905090810190601f1680156103e35780820380516001836020036101000a031916815260200191505b509250505060405180910390f35b3480156103fd57600080fd5b5061042a6004803603602081101561041457600080fd5b8101908080359060200190929190505050611714565b604051808273ffffffffffffffffffffffffffffffffffffffff1673ffffffffffffffffffffffffffffffffffffffff16815260200191505060405180910390f35b34801561047857600080fd5b506104c56004803603604081101561048f57600080fd5b81019080803573ffffffffffffffffffffffffffffffffffffffff169060200190929190803590602001909291905050506117af565b005b3480156104d357600080fd5b506104dc6118f3565b6040518082815260200191505060405180910390f35b3480156104fe57600080fd5b5061056b6004803603606081101561051557600080fd5b81019080803573ffffffffffffffffffffffffffffffffffffffff169060200190929190803573ffffffffffffffffffffffffffffffffffffffff16906020019092919080359060200190929190505050611904565b005b34801561057957600080fd5b506105a66004803603602081101561059057600080fd5b810190808035906020019092919050505061197a565b6040518082815260200191505060405180910390f35b3480156105c857600080fd5b50610615600480360360408110156105df57600080fd5b8101908080359060200190929190803573ffffffffffffffffffffffffffffffffffffffff169060200190929190505050611999565b005b34801561062357600080fd5b506106706004803603604081101561063a57600080fd5b81019080803573ffffffffffffffffffffffffffffffffffffffff16906020019092919080359060200190929190505050611a22565b6040518082815260200191505060405180910390f35b34801561069257600080fd5b5061069b611a7d565b604051808273ffffffffffffffffffffffffffffffffffffffff1673ffffffffffffffffffffffffffffffffffffffff16815260200191505060405180910390f35b3480156106e957600080fd5b506107366004803603604081101561070057600080fd5b8101908080359060200190929190803573ffffffffffffffffffffffffffffffffffffffff169060200190929190505050611aa3565b005b34801561074457600080fd5b5061074d611b3c565b005b34801561075b57600080fd5b50610764611be1565b6040518082815260200191505060405180910390f35b34801561078657600080fd5b506107f36004803603606081101561079d57600080fd5b81019080803573ffffffffffffffffffffffffffffffffffffffff169060200190929190803573ffffffffffffffffffffffffffffffffffffffff16906020019092919080359060200190929190505050611be7565b005b34801561080157600080fd5b5061082e6004803603602081101561081857600080fd5b8101908080359060200190929190505050611c07565b005b34801561083c57600080fd5b506108696004803603602081101561085357600080fd5b8101908080359060200190929190505050611c79565b6040518082815260200191505060405180910390f35b34801561088b57600080fd5b50610894611c9c565b604051808273ffffffffffffffffffffffffffffffffffffffff1673ffffffffffffffffffffffffffffffffffffffff16815260200191505060405180910390f35b3480156108e257600080fd5b506108eb611cc2565b604051808215151515815260200191505060405180910390f35b34801561091157600080fd5b5061093e6004803603602081101561092857600080fd5b8101908080359060200190929190505050611cd9565b604051808060200180602001848152602001838103835286818151815260200191508051906020019080838360005b8381101561098857808201518184015260208101905061096d565b50505050905090810190601f1680156109b55780820380516001836020036101000a031916815260200191505b50838103825285818151815260200191508051906020019080838360005b838110156109ee5780820151818401526020810190506109d3565b50505050905090810190601f168015610a1b5780820380516001836020036101000a031916815260200191505b509550505050505060405180910390f35b348015610a3857600080fd5b50610a6560048036036020811015610a4f57600080fd5b8101908080359060200190929190505050611e7e565b604051808273ffffffffffffffffffffffffffffffffffffffff1673ffffffffffffffffffffffffffffffffffffffff16815260200191505060405180910390f35b348015610ab357600080fd5b50610af660048036036020811015610aca57600080fd5b81019080803573ffffffffffffffffffffffffffffffffffffffff169060200190929190505050611eb5565b005b348015610b0457600080fd5b50610b0d611f70565b6040518080602001828103825283818151815260200191508051906020019080838360005b83811015610b4d578082015181840152602081019050610b32565b50505050905090810190601f168015610b7a5780820380516001836020036101000a031916815260200191505b509250505060405180910390f35b348015610b9457600080fd5b50610bd760048036036020811015610bab57600080fd5b81019080803573ffffffffffffffffffffffffffffffffffffffff169060200190929190505050612012565b6040518082815260200191505060405180910390f35b348015610bf957600080fd5b50610c026120e7565b005b348015610c1057600080fd5b50610c3d60048036036020811015610c2757600080fd5b8101908080359060200190929190505050612257565b6040518082815260200191505060405180910390f35b348015610c5f57600080fd5b50610c6861226f565b005b348015610c7657600080fd5b50610cad60048036036040811015610c8d57600080fd5b810190808035906020019092919080359060200190929190505050612314565b604051808215151515815260200191505060405180910390f35b348015610cd357600080fd5b50610cdc6123f1565b604051808273ffffffffffffffffffffffffffffffffffffffff1673ffffffffffffffffffffffffffffffffffffffff16815260200191505060405180910390f35b348015610d2a57600080fd5b50610d6160048036036040811015610d4157600080fd5b81019080803590602001909291908035906020019092919050505061241b565b604051808273ffffffffffffffffffffffffffffffffffffffff1673ffffffffffffffffffffffffffffffffffffffff16815260200191505060405180910390f35b348015610daf57600080fd5b50610dfc60048036036040811015610dc657600080fd5b8101908080359060200190929190803573ffffffffffffffffffffffffffffffffffffffff16906020019092919050505061244c565b604051808215151515815260200191505060405180910390f35b348015610e2257600080fd5b50610e5960048036036040811015610e3957600080fd5b81019080803590602001909291908035906020019092919050505061247d565b005b348015610e6757600080fd5b50610e7061254c565b6040518080602001828103825283818151815260200191508051906020019080838360005b83811015610eb0578082015181840152602081019050610e95565b50505050905090810190601f168015610edd5780820380516001836020036101000a031916815260200191505b509250505060405180910390f35b610f1760048036036020811015610f0157600080fd5b81019080803590602001909291905050506125ee565b005b348015610f2557600080fd5b50610f2e612673565b6040518082815260200191505060405180910390f35b348015610f5057600080fd5b50610f9f60048036036040811015610f6757600080fd5b81019080803573ffffffffffffffffffffffffffffffffffffffff16906020019092919080351515906020019092919050505061267a565b005b348015610fad57600080fd5b50610fe460048036036040811015610fc457600080fd5b810190808035906020019092919080359060200190929190505050612832565b6040518080602001828103825283818151815260200191508051906020019080838360005b83811015611024578082015181840152602081019050611009565b50505050905090810190601f1680156110515780820380516001836020036101000a031916815260200191505b509250505060405180910390f35b34801561106b57600080fd5b5061116f6004803603608081101561108257600080fd5b81019080803573ffffffffffffffffffffffffffffffffffffffff169060200190929190803573ffffffffffffffffffffffffffffffffffffffff16906020019092919080359060200190929190803590602001906401000000008111156110e957600080fd5b8201836020820111156110fb57600080fd5b8035906020019184600183028401116401000000008311171561111d57600080fd5b91908080601f016020809104026020016040519081016040528093929190818152602001838380828437600081840152601f19601f820116905080830192505050505050509192919290505050612969565b005b34801561117d57600080fd5b506111aa6004803603602081101561119457600080fd5b81019080803590602001909291905050506129e1565b6040518080602001828103825283818151815260200191508051906020019080838360005b838110156111ea5780820151818401526020810190506111cf565b50505050905090810190601f1680156112175780820380516001836020036101000a031916815260200191505b509250505060405180910390f35b34801561123157600080fd5b5061125e6004803603602081101561124857600080fd5b8101908080359060200190929190505050612cb2565b6040518082815260200191505060405180910390f35b34801561128057600080fd5b506112ad6004803603602081101561129757600080fd5b8101908080359060200190929190505050612cd8565b604051808060200180602001848152602001838103835286818151815260200191508051906020019080838360005b838110156112f75780820151818401526020810190506112dc565b50505050905090810190601f1680156113245780820380516001836020036101000a031916815260200191505b50838103825285818151815260200191508051906020019080838360005b8381101561135d578082015181840152602081019050611342565b50505050905090810190601f16801561138a5780820380516001836020036101000a031916815260200191505b509550505050505060405180910390f35b3480156113a757600080fd5b506113b0612e3f565b6040518082815260200191505060405180910390f35b3480156113d257600080fd5b5061141f600480360360408110156113e957600080fd5b8101908080359060200190929190803573ffffffffffffffffffffffffffffffffffffffff169060200190929190505050612e78565b005b34801561142d57600080fd5b50611436612f01565b6040518082815260200191505060405180910390f35b34801561145857600080fd5b506114bb6004803603604081101561146f57600080fd5b81019080803573ffffffffffffffffffffffffffffffffffffffff169060200190929190803573ffffffffffffffffffffffffffffffffffffffff169060200190929190505050612f3a565b604051808215151515815260200191505060405180910390f35b3480156114e157600080fd5b50611518600480360360408110156114f857600080fd5b810190808035906020019092919080359060200190929190505050612fce565b6040518080602001828103825283818151815260200191508051906020019080838360005b8381101561155857808201518184015260208101905061153d565b50505050905090810190601f1680156115855780820380516001836020036101000a031916815260200191505b509250505060405180910390f35b34801561159f57600080fd5b506115e2600480360360208110156115b657600080fd5b81019080803573ffffffffffffffffffffffffffffffffffffffff169060200190929190505050613135565b005b600060016000837bffffffffffffffffffffffffffffffffffffffffffffffffffffffff19167bffffffffffffffffffffffffffffffffffffffffffffffffffffffff1916815260200190815260200160002060009054906101000a900460ff169050919050565b601360009054906101000a900473ffffffffffffffffffffffffffffffffffffffff1681565b606060078054600181600116156101000203166002900480601f01602080910402602001604051908101604052809291908181526020018280546001816001161561010002031660029004801561170a5780601f106116df5761010080835404028352916020019161170a565b820191906000526020600020905b8154815290600101906020018083116116ed57829003601f168201915b5050505050905090565b600061171f8261332a565b611774576040517f08c379a000000000000000000000000000000000000000000000000000000000815260040180806020018281038252602c815260200180615b54602c913960400191505060405180910390fd5b6005600083815260200190815260200160002060009054906101000a900473ffffffffffffffffffffffffffffffffffffffff169050919050565b60006117ba82611e7e565b90508073ffffffffffffffffffffffffffffffffffffffff168373ffffffffffffffffffffffffffffffffffffffff161415611841576040517f08c379a0000000000000000000000000000000000000000000000000000000008152600401808060200182810382526021815260200180615bd86021913960400191505060405180910390fd5b8073ffffffffffffffffffffffffffffffffffffffff16611860613347565b73ffffffffffffffffffffffffffffffffffffffff16148061188f575061188e81611889613347565b612f3a565b5b6118e4576040517f08c379a0000000000000000000000000000000000000000000000000000000008152600401808060200182810382526038815260200180615a6a6038913960400191505060405180910390fd5b6118ee838361334f565b505050565b60006118ff6003613408565b905090565b61191561190f613347565b8261341d565b61196a576040517f08c379a0000000000000000000000000000000000000000000000000000000008152600401808060200182810382526031815260200180615bf96031913960400191505060405180910390fd5b611975838383613511565b505050565b6000806000838152602001908152602001600020600201549050919050565b6119bf600080848152602001908152602001600020600201546119ba613347565b61244c565b611a14576040517f08c379a000000000000000000000000000000000000000000000000000000000815260040180806020018281038252602f815260200180615887602f913960400191505060405180910390fd5b611a1e8282613754565b5050565b6000611a7582600260008673ffffffffffffffffffffffffffffffffffffffff1673ffffffffffffffffffffffffffffffffffffffff1681526020019081526020016000206137e790919063ffffffff16565b905092915050565b601760009054906101000a900473ffffffffffffffffffffffffffffffffffffffff1681565b611aab613347565b73ffffffffffffffffffffffffffffffffffffffff168173ffffffffffffffffffffffffffffffffffffffff1614611b2e576040517f08c379a000000000000000000000000000000000000000000000000000000000815260040180806020018281038252602f815260200180615cd7602f913960400191505060405180910390fd5b611b388282613801565b5050565b611b8260405180807f5041555345525f524f4c45000000000000000000000000000000000000000000815250600b0190506040518091039020611b7d613347565b61244c565b611bd7576040517f08c379a0000000000000000000000000000000000000000000000000000000008152600401808060200182810382526040815260200180615c976040913960400191505060405180910390fd5b611bdf613894565b565b60165481565b611c0283838360405180602001604052806000815250612969565b505050565b611c18611c12613347565b8261341d565b611c6d576040517f08c379a0000000000000000000000000000000000000000000000000000000008152600401808060200182810382526030815260200180615c676030913960400191505060405180910390fd5b611c7681613995565b50565b600080611c90836003613acf90919063ffffffff16565b50905080915050919050565b601860009054906101000a900473ffffffffffffffffffffffffffffffffffffffff1681565b6000600b60009054906101000a900460ff16905090565b606080600060198481548110611ceb57fe5b906000526020600020906003020160000160198581548110611d0957fe5b906000526020600020906003020160010160198681548110611d2757fe5b906000526020600020906003020160020154828054600181600116156101000203166002900480601f016020809104026020016040519081016040528092919081815260200182805460018160011615610100020316600290048015611dce5780601f10611da357610100808354040283529160200191611dce565b820191906000526020600020905b815481529060010190602001808311611db157829003601f168201915b50505050509250818054600181600116156101000203166002900480601f016020809104026020016040519081016040528092919081815260200182805460018160011615610100020316600290048015611e6a5780601f10611e3f57610100808354040283529160200191611e6a565b820191906000526020600020905b815481529060010190602001808311611e4d57829003601f168201915b505050505091509250925092509193909250565b6000611eae82604051806060016040528060298152602001615acc602991396003613afe9092919063ffffffff16565b9050919050565b611efb60405180807f4d494e5445525f524f4c45000000000000000000000000000000000000000000815250600b0190506040518091039020611ef6613347565b61244c565b611f50576040517f08c379a000000000000000000000000000000000000000000000000000000000815260040180806020018281038252603d815260200180615c2a603d913960400191505060405180910390fd5b611f6381611f5e600c613b1d565b613b2b565b611f6d600c613d1f565b50565b6060600a8054600181600116156101000203166002900480601f0160208091040260200160405190810160405280929190818152602001828054600181600116156101000203166002900480156120085780601f10611fdd57610100808354040283529160200191612008565b820191906000526020600020905b815481529060010190602001808311611feb57829003601f168201915b5050505050905090565b60008073ffffffffffffffffffffffffffffffffffffffff168273ffffffffffffffffffffffffffffffffffffffff161415612099576040517f08c379a000000000000000000000000000000000000000000000000000000000815260040180806020018281038252602a815260200180615aa2602a913960400191505060405180910390fd5b6120e0600260008473ffffffffffffffffffffffffffffffffffffffff1673ffffffffffffffffffffffffffffffffffffffff168152602001908152602001600020613d35565b9050919050565b6120ef613347565b73ffffffffffffffffffffffffffffffffffffffff1661210d6123f1565b73ffffffffffffffffffffffffffffffffffffffff1614612196576040517f08c379a00000000000000000000000000000000000000000000000000000000081526004018080602001828103825260208152602001807f4f776e61626c653a2063616c6c6572206973206e6f7420746865206f776e657281525060200191505060405180910390fd5b600073ffffffffffffffffffffffffffffffffffffffff16600e60009054906101000a900473ffffffffffffffffffffffffffffffffffffffff1673ffffffffffffffffffffffffffffffffffffffff167f8be0079c531659141344cd1fd0a4f28419497f9722a3daafe3b4186f6b6457e060405160405180910390a36000600e60006101000a81548173ffffffffffffffffffffffffffffffffffffffff021916908373ffffffffffffffffffffffffffffffffffffffff160217905550565b600d6020528060005260406000206000915090505481565b6122b560405180807f5041555345525f524f4c45000000000000000000000000000000000000000000815250600b01905060405180910390206122b0613347565b61244c565b61230a576040517f08c379a000000000000000000000000000000000000000000000000000000000815260040180806020018281038252603e81526020018061590e603e913960400191505060405180910390fd5b612312613d4a565b565b600080600d600085815260200190815260200160002054905060006019858154811061233c57fe5b906000526020600020906003020160020154840390506000601154828161235f57fe5b0490508083101561237657600093505050506123eb565b6001810183111561238d57600093505050506123eb565b6000601154838161239a57fe5b069050601254811080156123ad57508184145b156123bf5760019450505050506123eb565b601254811180156123d05750818414155b156123e25760009450505050506123eb565b60019450505050505b92915050565b6000600e60009054906101000a900473ffffffffffffffffffffffffffffffffffffffff16905090565b600061244482600080868152602001908152602001600020600001613e4c90919063ffffffff16565b905092915050565b600061247582600080868152602001908152602001600020600001613e6690919063ffffffff16565b905092915050565b7f000000000000000000000000000000000000000000000000000000000000000073ffffffffffffffffffffffffffffffffffffffff163373ffffffffffffffffffffffffffffffffffffffff161461253e576040517f08c379a000000000000000000000000000000000000000000000000000000000815260040180806020018281038252601f8152602001807f4f6e6c7920565246436f6f7264696e61746f722063616e2066756c66696c6c0081525060200191505060405180910390fd5b6125488282613e96565b5050565b606060088054600181600116156101000203166002900480601f0160208091040260200160405190810160405280929190818152602001828054600181600116156101000203166002900480156125e45780601f106125b9576101008083540402835291602001916125e4565b820191906000526020600020905b8154815290600101906020018083116125c757829003601f168201915b5050505050905090565b662386f26fc10000341061267057601360009054906101000a900473ffffffffffffffffffffffffffffffffffffffff1673ffffffffffffffffffffffffffffffffffffffff166108fc349081150290604051600060405180830381858888f19350505050158015612664573d6000803e3d6000fd5b5061266e81613fdd565b505b50565b6000801b81565b612682613347565b73ffffffffffffffffffffffffffffffffffffffff168273ffffffffffffffffffffffffffffffffffffffff161415612723576040517f08c379a00000000000000000000000000000000000000000000000000000000081526004018080602001828103825260198152602001807f4552433732313a20617070726f766520746f2063616c6c65720000000000000081525060200191505060405180910390fd5b8060066000612730613347565b73ffffffffffffffffffffffffffffffffffffffff1673ffffffffffffffffffffffffffffffffffffffff16815260200190815260200160002060008473ffffffffffffffffffffffffffffffffffffffff1673ffffffffffffffffffffffffffffffffffffffff16815260200190815260200160002060006101000a81548160ff0219169083151502179055508173ffffffffffffffffffffffffffffffffffffffff166127dd613347565b73ffffffffffffffffffffffffffffffffffffffff167f17307eab39ab6107e8899845ad3d59bd9653f200f220920489ca2b5937696c3183604051808215151515815260200191505060405180910390a35050565b60606000600d600085815260200190815260200160002054905060006019858154811061285b57fe5b906000526020600020906003020160020154840390506000601154828161287e57fe5b04905061288b8686612314565b6128cf576040518060400160405280600381526020017f44727900000000000000000000000000000000000000000000000000000000008152509350505050612963565b80831415612917576040518060400160405280600e81526020017f526561647920746f2077617465720000000000000000000000000000000000008152509350505050612963565b8083111561295f576040518060400160405280600581526020017f48617070790000000000000000000000000000000000000000000000000000008152509350505050612963565b5050505b92915050565b61297a612974613347565b8361341d565b6129cf576040517f08c379a0000000000000000000000000000000000000000000000000000000008152600401808060200182810382526031815260200180615bf96031913960400191505060405180910390fd5b6129db84848484614215565b50505050565b60606129ec8261332a565b612a41576040517f08c379a000000000000000000000000000000000000000000000000000000000815260040180806020018281038252602f815260200180615ba9602f913960400191505060405180910390fd5b6060600960008481526020019081526020016000208054600181600116156101000203166002900480601f016020809104026020016040519081016040528092919081815260200182805460018160011615610100020316600290048015612aea5780601f10612abf57610100808354040283529160200191612aea565b820191906000526020600020905b815481529060010190602001808311612acd57829003601f168201915b505050505090506060612afb611f70565b9050600081511415612b11578192505050612cad565b600082511115612be25780826040516020018083805190602001908083835b60208310612b535780518252602082019150602081019050602083039250612b30565b6001836020036101000a03801982511681845116808217855250505050505090500182805190602001908083835b60208310612ba45780518252602082019150602081019050602083039250612b81565b6001836020036101000a0380198251168184511680821785525050505050509050019250505060405160208183030381529060405292505050612cad565b80612bec85614287565b6040516020018083805190602001908083835b60208310612c225780518252602082019150602081019050602083039250612bff565b6001836020036101000a03801982511681845116808217855250505050505090500182805190602001908083835b60208310612c735780518252602082019150602081019050602083039250612c50565b6001836020036101000a03801982511681845116808217855250505050505090500192505050604051602081830303815290604052925050505b919050565b6000612cd16000808481526020019081526020016000206000016143ce565b9050919050565b60198181548110612ce557fe5b9060005260206000209060030201600091509050806000018054600181600116156101000203166002900480601f016020809104026020016040519081016040528092919081815260200182805460018160011615610100020316600290048015612d915780601f10612d6657610100808354040283529160200191612d91565b820191906000526020600020905b815481529060010190602001808311612d7457829003601f168201915b505050505090806001018054600181600116156101000203166002900480601f016020809104026020016040519081016040528092919081815260200182805460018160011615610100020316600290048015612e2f5780601f10612e0457610100808354040283529160200191612e2f565b820191906000526020600020905b815481529060010190602001808311612e1257829003601f168201915b5050505050908060020154905083565b60405180807f4d494e5445525f524f4c45000000000000000000000000000000000000000000815250600b019050604051809103902081565b612e9e60008084815260200190815260200160002060020154612e99613347565b61244c565b612ef3576040517f08c379a0000000000000000000000000000000000000000000000000000000008152600401808060200182810382526030815260200180615a3a6030913960400191505060405180910390fd5b612efd8282613801565b5050565b60405180807f5041555345525f524f4c45000000000000000000000000000000000000000000815250600b019050604051809103902081565b6000600660008473ffffffffffffffffffffffffffffffffffffffff1673ffffffffffffffffffffffffffffffffffffffff16815260200190815260200160002060008373ffffffffffffffffffffffffffffffffffffffff1673ffffffffffffffffffffffffffffffffffffffff16815260200190815260200160002060009054906101000a900460ff16905092915050565b6060612fd983611e7e565b73ffffffffffffffffffffffffffffffffffffffff163373ffffffffffffffffffffffffffffffffffffffff161461302b576040518060600160405280602781526020016159e760279139905061312f565b6130358383612314565b613059576040518060600160405280603d8152602001615af5603d9139905061312f565b6000600d600085815260200190815260200160002054905060006019858154811061308057fe5b90600052602060002090600302016002015484039050600060115482816130a357fe5b049050600060018401905080600d600089815260200190815260200160002081905550818411156130f2576040518060600160405280602681526020016159c16026913994505050505061312f565b6040518060400160405280601581526020017f57617465726564205375636365737366756c6c792100000000000000000000008152509450505050505b92915050565b61313d613347565b73ffffffffffffffffffffffffffffffffffffffff1661315b6123f1565b73ffffffffffffffffffffffffffffffffffffffff16146131e4576040517f08c379a00000000000000000000000000000000000000000000000000000000081526004018080602001828103825260208152602001807f4f776e61626c653a2063616c6c6572206973206e6f7420746865206f776e657281525060200191505060405180910390fd5b600073ffffffffffffffffffffffffffffffffffffffff168173ffffffffffffffffffffffffffffffffffffffff16141561326a576040517f08c379a00000000000000000000000000000000000000000000000000000000081526004018080602001828103825260268152602001806158e86026913960400191505060405180910390fd5b8073ffffffffffffffffffffffffffffffffffffffff16600e60009054906101000a900473ffffffffffffffffffffffffffffffffffffffff1673ffffffffffffffffffffffffffffffffffffffff167f8be0079c531659141344cd1fd0a4f28419497f9722a3daafe3b4186f6b6457e060405160405180910390a380600e60006101000a81548173ffffffffffffffffffffffffffffffffffffffff021916908373ffffffffffffffffffffffffffffffffffffffff16021790555050565b60006133408260036143e390919063ffffffff16565b9050919050565b600033905090565b816005600083815260200190815260200160002060006101000a81548173ffffffffffffffffffffffffffffffffffffffff021916908373ffffffffffffffffffffffffffffffffffffffff160217905550808273ffffffffffffffffffffffffffffffffffffffff166133c283611e7e565b73ffffffffffffffffffffffffffffffffffffffff167f8c5be1e5ebec7d5bd14f71427d1e84f3dd0314c0f7b2291e5b200ac8c7c3b92560405160405180910390a45050565b6000613416826000016143fd565b9050919050565b60006134288261332a565b61347d576040517f08c379a000000000000000000000000000000000000000000000000000000000815260040180806020018281038252602c815260200180615a0e602c913960400191505060405180910390fd5b600061348883611e7e565b90508073ffffffffffffffffffffffffffffffffffffffff168473ffffffffffffffffffffffffffffffffffffffff1614806134f757508373ffffffffffffffffffffffffffffffffffffffff166134df84611714565b73ffffffffffffffffffffffffffffffffffffffff16145b8061350857506135078185612f3a565b5b91505092915050565b8273ffffffffffffffffffffffffffffffffffffffff1661353182611e7e565b73ffffffffffffffffffffffffffffffffffffffff161461359d576040517f08c379a0000000000000000000000000000000000000000000000000000000008152600401808060200182810382526029815260200180615b806029913960400191505060405180910390fd5b600073ffffffffffffffffffffffffffffffffffffffff168273ffffffffffffffffffffffffffffffffffffffff161415613623576040517f08c379a000000000000000000000000000000000000000000000000000000000815260040180806020018281038252602481526020018061594c6024913960400191505060405180910390fd5b61362e83838361440e565b61363960008261334f565b61368a81600260008673ffffffffffffffffffffffffffffffffffffffff1673ffffffffffffffffffffffffffffffffffffffff16815260200190815260200160002061441e90919063ffffffff16565b506136dc81600260008573ffffffffffffffffffffffffffffffffffffffff1673ffffffffffffffffffffffffffffffffffffffff16815260200190815260200160002061443890919063ffffffff16565b506136f3818360036144529092919063ffffffff16565b50808273ffffffffffffffffffffffffffffffffffffffff168473ffffffffffffffffffffffffffffffffffffffff167fddf252ad1be2c89b69c2b068fc378daa952ba7f163c4a11628f55a4df523b3ef60405160405180910390a4505050565b61377b8160008085815260200190815260200160002060000161448790919063ffffffff16565b156137e357613788613347565b73ffffffffffffffffffffffffffffffffffffffff168173ffffffffffffffffffffffffffffffffffffffff16837f2f8788117e7eff1d82e926ec794901d17c78024a50270940304540a733656f0d60405160405180910390a45b5050565b60006137f683600001836144b7565b60001c905092915050565b6138288160008085815260200190815260200160002060000161453a90919063ffffffff16565b1561389057613835613347565b73ffffffffffffffffffffffffffffffffffffffff168173ffffffffffffffffffffffffffffffffffffffff16837ff6391f5c32d9c69d2a47ea670b442974b53935d1edc7fd64eb21e047a839171b60405160405180910390a45b5050565b61389c611cc2565b61390e576040517f08c379a00000000000000000000000000000000000000000000000000000000081526004018080602001828103825260148152602001807f5061757361626c653a206e6f742070617573656400000000000000000000000081525060200191505060405180910390fd5b6000600b60006101000a81548160ff0219169083151502179055507f5db9ee0a495bf2e6ff9c91a7834c1ba4fdd244a5e8aa4e537bd38aeae4b073aa613952613347565b604051808273ffffffffffffffffffffffffffffffffffffffff1673ffffffffffffffffffffffffffffffffffffffff16815260200191505060405180910390a1565b60006139a082611e7e565b90506139ae8160008461440e565b6139b960008361334f565b60006009600084815260200190815260200160002080546001816001161561010002031660029004905014613a0857600960008381526020019081526020016000206000613a0791906156e5565b5b613a5982600260008473ffffffffffffffffffffffffffffffffffffffff1673ffffffffffffffffffffffffffffffffffffffff16815260200190815260200160002061441e90919063ffffffff16565b50613a6e82600361456a90919063ffffffff16565b5081600073ffffffffffffffffffffffffffffffffffffffff168273ffffffffffffffffffffffffffffffffffffffff167fddf252ad1be2c89b69c2b068fc378daa952ba7f163c4a11628f55a4df523b3ef60405160405180910390a45050565b600080600080613ae28660000186614584565b915091508160001c8160001c8090509350935050509250929050565b6000613b11846000018460001b8461461d565b60001c90509392505050565b600081600001549050919050565b600073ffffffffffffffffffffffffffffffffffffffff168273ffffffffffffffffffffffffffffffffffffffff161415613bce576040517f08c379a00000000000000000000000000000000000000000000000000000000081526004018080602001828103825260208152602001807f4552433732313a206d696e7420746f20746865207a65726f206164647265737381525060200191505060405180910390fd5b613bd78161332a565b15613c4a576040517f08c379a000000000000000000000000000000000000000000000000000000000815260040180806020018281038252601c8152602001807f4552433732313a20746f6b656e20616c7265616479206d696e7465640000000081525060200191505060405180910390fd5b613c566000838361440e565b613ca781600260008573ffffffffffffffffffffffffffffffffffffffff1673ffffffffffffffffffffffffffffffffffffffff16815260200190815260200160002061443890919063ffffffff16565b50613cbe818360036144529092919063ffffffff16565b50808273ffffffffffffffffffffffffffffffffffffffff16600073ffffffffffffffffffffffffffffffffffffffff167fddf252ad1be2c89b69c2b068fc378daa952ba7f163c4a11628f55a4df523b3ef60405160405180910390a45050565b6001816000016000828254019250508190555050565b6000613d4382600001614713565b9050919050565b613d52611cc2565b15613dc5576040517f08c379a00000000000000000000000000000000000000000000000000000000081526004018080602001828103825260108152602001807f5061757361626c653a207061757365640000000000000000000000000000000081525060200191505060405180910390fd5b6001600b60006101000a81548160ff0219169083151502179055507f62e78cea01bee320cd4e420270b5ea74000d11b0c9f74754ebdbfc544b05a258613e09613347565b604051808273ffffffffffffffffffffffffffffffffffffffff1673ffffffffffffffffffffffffffffffffffffffff16815260200191505060405180910390a1565b6000613e5b83600001836144b7565b60001c905092915050565b6000613e8e836000018373ffffffffffffffffffffffffffffffffffffffff1660001b614724565b905092915050565b600060016127108381613ea557fe5b06019050613eb161572d565b613eba82614747565b90506000600d6000601980549050815260200190815260200160002081905550601960405180606001604052808360000151815260200183602001518152602001601b60008881526020019081526020016000205481525090806001815401808255809150506001900390600052602060002090600302016000909190919091506000820151816000019080519060200190613f57929190615747565b506020820151816001019080519060200190613f74929190615747565b50604082015181600201555050613f8b6010613d1f565b6000613f976010613b1d565b9050613fd6601a600087815260200190815260200160002060009054906101000a900473ffffffffffffffffffffffffffffffffffffffff1682614a45565b5050505050565b6000612710613fea6118f3565b1061405d576040517f08c379a00000000000000000000000000000000000000000000000000000000081526004018080602001828103825260098152602001807f4e6f6e65206c656674000000000000000000000000000000000000000000000081525060200191505060405180910390fd5b6015547f000000000000000000000000000000000000000000000000000000000000000073ffffffffffffffffffffffffffffffffffffffff166370a08231306040518263ffffffff1660e01b8152600401808273ffffffffffffffffffffffffffffffffffffffff1673ffffffffffffffffffffffffffffffffffffffff16815260200191505060206040518083038186803b1580156140fd57600080fd5b505afa158015614111573d6000803e3d6000fd5b505050506040513d602081101561412757600080fd5b8101908080519060200190929190505050101561418f576040517f08c379a000000000000000000000000000000000000000000000000000000000815260040180806020018281038252602b815260200180615970602b913960400191505060405180910390fd5b60006141a060145460155485614a63565b905033601a600083815260200190815260200160002060006101000a81548173ffffffffffffffffffffffffffffffffffffffff021916908373ffffffffffffffffffffffffffffffffffffffff16021790555042601b60008381526020019081526020016000208190555080915050919050565b614220848484613511565b61422c84848484614c71565b614281576040517f08c379a00000000000000000000000000000000000000000000000000000000081526004018080602001828103825260328152602001806158b66032913960400191505060405180910390fd5b50505050565b606060008214156142cf576040518060400160405280600181526020017f300000000000000000000000000000000000000000000000000000000000000081525090506143c9565b600082905060005b600082146142f9578080600101915050600a82816142f157fe5b0491506142d7565b60608167ffffffffffffffff8111801561431257600080fd5b506040519080825280601f01601f1916602001820160405280156143455781602001600182028036833780820191505090505b50905060006001830390508593505b600084146143c157600a848161436657fe5b0660300160f81b8282806001900393508151811061438057fe5b60200101907effffffffffffffffffffffffffffffffffffffffffffffffffffffffffffff1916908160001a905350600a84816143b957fe5b049350614354565b819450505050505b919050565b60006143dc82600001614713565b9050919050565b60006143f5836000018360001b614eb6565b905092915050565b600081600001805490509050919050565b614419838383614ed9565b505050565b6000614430836000018360001b614f47565b905092915050565b600061444a836000018360001b61502f565b905092915050565b600061447e846000018460001b8473ffffffffffffffffffffffffffffffffffffffff1660001b61509f565b90509392505050565b60006144af836000018373ffffffffffffffffffffffffffffffffffffffff1660001b61502f565b905092915050565b600081836000018054905011614518576040517f08c379a000000000000000000000000000000000000000000000000000000000815260040180806020018281038252602281526020018061583a6022913960400191505060405180910390fd5b82600001828154811061452757fe5b9060005260206000200154905092915050565b6000614562836000018373ffffffffffffffffffffffffffffffffffffffff1660001b614f47565b905092915050565b600061457c836000018360001b61517b565b905092915050565b600080828460000180549050116145e6576040517f08c379a0000000000000000000000000000000000000000000000000000000008152600401808060200182810382526022815260200180615b326022913960400191505060405180910390fd5b60008460000184815481106145f757fe5b906000526020600020906002020190508060000154816001015492509250509250929050565b600080846001016000858152602001908152602001600020549050600081141583906146e4576040517f08c379a00000000000000000000000000000000000000000000000000000000081526004018080602001828103825283818151815260200191508051906020019080838360005b838110156146a957808201518184015260208101905061468e565b50505050905090810190601f1680156146d65780820380516001836020036101000a031916815260200191505b509250505060405180910390fd5b508460000160018203815481106146f757fe5b9060005260206000209060020201600101549150509392505050565b600081600001805490509050919050565b600080836001016000848152602001908152602001600020541415905092915050565b61474f61572d565b6147576157c7565b6040518060800160405280604051806040016040528060405180604001604052806040518060400160405280600a81526020017f5768697465204d6f74680000000000000000000000000000000000000000000081525081526020016040518060400160405280601881526020017f7068616c61656e6f70736973206d6963686f6c69747a696900000000000000008152508152508152602001610c028152508152602001604051806040016040528060405180604001604052806040518060400160405280600f81526020017f4f72616e67652043617474656c7961000000000000000000000000000000000081525081526020016040518060400160405280601581526020017f6775617269616e74686520617572616e7469616361000000000000000000000081525081525081526020016117ba8152508152602001604051806040016040528060405180604001604052806040518060400160405280600a81526020017f426c75652056616e64610000000000000000000000000000000000000000000081525081526020016040518060400160405280600e81526020017f76616e646120636f6572756c65610000000000000000000000000000000000008152508152508152602001611f8a8152508152602001604051806040016040528060405180604001604052806040518060400160405280601081526020017f476f6c64206f66204b696e6162616c750000000000000000000000000000000081525081526020016040518060400160405280601d81526020017f70617068696f706564696c756d20726f7468736368696c6469616e756d000000815250815250815260200161271081525081525090506149d261572d565b816000600481106149df57fe5b60200201516000015190506000610c02905060008090505b818611614a39578080600101915050838160048110614a1257fe5b6020020151602001519150838160048110614a2957fe5b60200201516000015192506149f7565b82945050505050919050565b614a5f828260405180602001604052806000815250615294565b5050565b60007f000000000000000000000000000000000000000000000000000000000000000073ffffffffffffffffffffffffffffffffffffffff16634000aea07f000000000000000000000000000000000000000000000000000000000000000085878660405160200180838152602001828152602001925050506040516020818303038152906040526040518463ffffffff1660e01b8152600401808473ffffffffffffffffffffffffffffffffffffffff1673ffffffffffffffffffffffffffffffffffffffff16815260200183815260200180602001828103825283818151815260200191508051906020019080838360005b83811015614b72578082015181840152602081019050614b57565b50505050905090810190601f168015614b9f5780820380516001836020036101000a031916815260200191505b50945050505050602060405180830381600087803b158015614bc057600080fd5b505af1158015614bd4573d6000803e3d6000fd5b505050506040513d6020811015614bea57600080fd5b8101908080519060200190929190505050506000614c1d858430600f60008a815260200190815260200160002054615305565b9050614c466001600f60008881526020019081526020016000205461537f90919063ffffffff16565b600f600087815260200190815260200160002081905550614c678582615407565b9150509392505050565b6000614c928473ffffffffffffffffffffffffffffffffffffffff16615440565b614c9f5760019050614eae565b6060614e3563150b7a0260e01b614cb4613347565b888787604051602401808573ffffffffffffffffffffffffffffffffffffffff1673ffffffffffffffffffffffffffffffffffffffff1681526020018473ffffffffffffffffffffffffffffffffffffffff1673ffffffffffffffffffffffffffffffffffffffff16815260200183815260200180602001828103825283818151815260200191508051906020019080838360005b83811015614d64578082015181840152602081019050614d49565b50505050905090810190601f168015614d915780820380516001836020036101000a031916815260200191505b5095505050505050604051602081830303815290604052907bffffffffffffffffffffffffffffffffffffffffffffffffffffffff19166020820180517bffffffffffffffffffffffffffffffffffffffffffffffffffffffff83818316178352505050506040518060600160405280603281526020016158b6603291398773ffffffffffffffffffffffffffffffffffffffff166154539092919063ffffffff16565b90506000818060200190516020811015614e4e57600080fd5b8101908080519060200190929190505050905063150b7a0260e01b7bffffffffffffffffffffffffffffffffffffffffffffffffffffffff1916817bffffffffffffffffffffffffffffffffffffffffffffffffffffffff191614925050505b949350505050565b600080836001016000848152602001908152602001600020541415905092915050565b614ee483838361546b565b614eec611cc2565b15614f42576040517f08c379a000000000000000000000000000000000000000000000000000000000815260040180806020018281038252602b81526020018061585c602b913960400191505060405180910390fd5b505050565b600080836001016000848152602001908152602001600020549050600081146150235760006001820390506000600186600001805490500390506000866000018281548110614f9257fe5b9060005260206000200154905080876000018481548110614faf57fe5b9060005260206000200181905550600183018760010160008381526020019081526020016000208190555086600001805480614fe757fe5b60019003818190600052602060002001600090559055866001016000878152602001908152602001600020600090556001945050505050615029565b60009150505b92915050565b600061503b8383614724565b615094578260000182908060018154018082558091505060019003906000526020600020016000909190919091505582600001805490508360010160008481526020019081526020016000208190555060019050615099565b600090505b92915050565b600080846001016000858152602001908152602001600020549050600081141561514657846000016040518060400160405280868152602001858152509080600181540180825580915050600190039060005260206000209060020201600090919091909150600082015181600001556020820151816001015550508460000180549050856001016000868152602001908152602001600020819055506001915050615174565b8285600001600183038154811061515957fe5b90600052602060002090600202016001018190555060009150505b9392505050565b6000808360010160008481526020019081526020016000205490506000811461528857600060018203905060006001866000018054905003905060008660000182815481106151c657fe5b90600052602060002090600202019050808760000184815481106151e657fe5b906000526020600020906002020160008201548160000155600182015481600101559050506001830187600101600083600001548152602001908152602001600020819055508660000180548061523957fe5b600190038181906000526020600020906002020160008082016000905560018201600090555050905586600101600087815260200190815260200160002060009055600194505050505061528e565b60009150505b92915050565b61529e8383613b2b565b6152ab6000848484614c71565b615300576040517f08c379a00000000000000000000000000000000000000000000000000000000081526004018080602001828103825260328152602001806158b66032913960400191505060405180910390fd5b505050565b600084848484604051602001808581526020018481526020018373ffffffffffffffffffffffffffffffffffffffff1673ffffffffffffffffffffffffffffffffffffffff1681526020018281526020019450505050506040516020818303038152906040528051906020012060001c9050949350505050565b6000808284019050838110156153fd576040517f08c379a000000000000000000000000000000000000000000000000000000000815260040180806020018281038252601b8152602001807f536166654d6174683a206164646974696f6e206f766572666c6f77000000000081525060200191505060405180910390fd5b8091505092915050565b60008282604051602001808381526020018281526020019250505060405160208183030381529060405280519060200120905092915050565b600080823b905060008111915050919050565b60606154628484600085615470565b90509392505050565b505050565b6060824710156154cb576040517f08c379a000000000000000000000000000000000000000000000000000000000815260040180806020018281038252602681526020018061599b6026913960400191505060405180910390fd5b6154d485615440565b615546576040517f08c379a000000000000000000000000000000000000000000000000000000000815260040180806020018281038252601d8152602001807f416464726573733a2063616c6c20746f206e6f6e2d636f6e747261637400000081525060200191505060405180910390fd5b600060608673ffffffffffffffffffffffffffffffffffffffff1685876040518082805190602001908083835b602083106155965780518252602082019150602081019050602083039250615573565b6001836020036101000a03801982511681845116808217855250505050505090500191505060006040518083038185875af1925050503d80600081146155f8576040519150601f19603f3d011682016040523d82523d6000602084013e6155fd565b606091505b509150915061560d828286615619565b92505050949350505050565b60608315615629578290506156de565b60008351111561563c5782518084602001fd5b816040517f08c379a00000000000000000000000000000000000000000000000000000000081526004018080602001828103825283818151815260200191508051906020019080838360005b838110156156a3578082015181840152602081019050615688565b50505050905090810190601f1680156156d05780820380516001836020036101000a031916815260200191505b509250505060405180910390fd5b9392505050565b50805460018160011615610100020316600290046000825580601f1061570b575061572a565b601f01602090049060005260206000209081019061572991906157f4565b5b50565b604051806040016040528060608152602001606081525090565b828054600181600116156101000203166002900490600052602060002090601f016020900481019282601f1061578857805160ff19168380011785556157b6565b828001600101855582156157b6579182015b828111156157b557825182559160200191906001019061579a565b5b5090506157c391906157f4565b5090565b60405180608001604052806004905b6157de615819565b8152602001906001900390816157d65790505090565b61581691905b808211156158125760008160009055506001016157fa565b5090565b90565b604051806040016040528061582c61572d565b815260200160008152509056fe456e756d657261626c655365743a20696e646578206f7574206f6620626f756e64734552433732315061757361626c653a20746f6b656e207472616e73666572207768696c6520706175736564416363657373436f6e74726f6c3a2073656e646572206d75737420626520616e2061646d696e20746f206772616e744552433732313a207472616e7366657220746f206e6f6e20455243373231526563656976657220696d706c656d656e7465724f776e61626c653a206e6577206f776e657220697320746865207a65726f20616464726573734552433732315072657365744d696e7465725061757365724175746f49643a206d75737420686176652070617573657220726f6c6520746f2070617573654552433732313a207472616e7366657220746f20746865207a65726f20616464726573734e6f7420656e6f756768204c494e4b202d2066696c6c20636f6e7472616374207769746820666175636574416464726573733a20696e73756666696369656e742062616c616e636520666f722063616c6c596f75207761746572656420796f75722043727970744f726368696420746f6f20736f6f6e214f6e6c7920746865204f776e65722063616e20776174657220612043727970744f72636869642e4552433732313a206f70657261746f7220717565727920666f72206e6f6e6578697374656e7420746f6b656e416363657373436f6e74726f6c3a2073656e646572206d75737420626520616e2061646d696e20746f207265766f6b654552433732313a20617070726f76652063616c6c6572206973206e6f74206f776e6572206e6f7220617070726f76656420666f7220616c6c4552433732313a2062616c616e636520717565727920666f7220746865207a65726f20616464726573734552433732313a206f776e657220717565727920666f72206e6f6e6578697374656e7420746f6b656e546869732043727970744f7263686964207761736e2774207761746572656420696e2074696d6520616e6420636f756c646e2774206265207361766564456e756d657261626c654d61703a20696e646578206f7574206f6620626f756e64734552433732313a20617070726f76656420717565727920666f72206e6f6e6578697374656e7420746f6b656e4552433732313a207472616e73666572206f6620746f6b656e2074686174206973206e6f74206f776e4552433732314d657461646174613a2055524920717565727920666f72206e6f6e6578697374656e7420746f6b656e4552433732313a20617070726f76616c20746f2063757272656e74206f776e65724552433732313a207472616e736665722063616c6c6572206973206e6f74206f776e6572206e6f7220617070726f7665644552433732315072657365744d696e7465725061757365724175746f49643a206d7573742068617665206d696e74657220726f6c6520746f206d696e744552433732314275726e61626c653a2063616c6c6572206973206e6f74206f776e6572206e6f7220617070726f7665644552433732315072657365744d696e7465725061757365724175746f49643a206d75737420686176652070617573657220726f6c6520746f20756e7061757365416363657373436f6e74726f6c3a2063616e206f6e6c792072656e6f756e636520726f6c657320666f722073656c66a26469706673582212200c012fbdf9231e0fc2352909289f5c0ff307a2da8256fb227ebe3a67ac96add964736f6c63430006060033",
  "devdoc": {
    "methods": {
      "approve(address,uint256)": {
        "details": "See {IERC721-approve}."
      },
      "balanceOf(address)": {
        "details": "See {IERC721-balanceOf}."
      },
      "baseURI()": {
        "details": "Returns the base URI set via {_setBaseURI}. This will be automatically added as a prefix in {tokenURI} to each token's URI, or to the token ID if no specific URI is set for that token ID."
      },
      "burn(uint256)": {
        "details": "Burns `tokenId`. See {ERC721-_burn}.     * Requirements:     * - The caller must own `tokenId` or be an approved operator."
      },
      "getApproved(uint256)": {
        "details": "See {IERC721-getApproved}."
      },
      "getRoleAdmin(bytes32)": {
        "details": "Returns the admin role that controls `role`. See {grantRole} and {revokeRole}.     * To change a role's admin, use {_setRoleAdmin}."
      },
      "getRoleMember(bytes32,uint256)": {
        "details": "Returns one of the accounts that have `role`. `index` must be a value between 0 and {getRoleMemberCount}, non-inclusive.     * Role bearers are not sorted in any particular way, and their ordering may change at any point.     * WARNING: When using {getRoleMember} and {getRoleMemberCount}, make sure you perform all queries on the same block. See the following https://forum.openzeppelin.com/t/iterating-over-elements-on-enumerableset-in-openzeppelin-contracts/2296[forum post] for more information."
      },
      "getRoleMemberCount(bytes32)": {
        "details": "Returns the number of accounts that have `role`. Can be used together with {getRoleMember} to enumerate all bearers of a role."
      },
      "grantRole(bytes32,address)": {
        "details": "Grants `role` to `account`.     * If `account` had not been already granted `role`, emits a {RoleGranted} event.     * Requirements:     * - the caller must have ``role``'s admin role."
      },
      "hasRole(bytes32,address)": {
        "details": "Returns `true` if `account` has been granted `role`."
      },
      "isApprovedForAll(address,address)": {
        "details": "See {IERC721-isApprovedForAll}."
      },
      "mint(address)": {
        "details": "Creates a new token for `to`. Its token ID will be automatically assigned (and available on the emitted {IERC721-Transfer} event), and the token URI autogenerated based on the base URI passed at construction.     * See {ERC721-_mint}.     * Requirements:     * - the caller must have the `MINTER_ROLE`."
      },
      "name()": {
        "details": "See {IERC721Metadata-name}."
      },
      "owner()": {
        "details": "Returns the address of the current owner."
      },
      "ownerOf(uint256)": {
        "details": "See {IERC721-ownerOf}."
      },
      "pause()": {
        "details": "Pauses all token transfers.     * See {ERC721Pausable} and {Pausable-_pause}.     * Requirements:     * - the caller must have the `PAUSER_ROLE`."
      },
      "paused()": {
        "details": "Returns true if the contract is paused, and false otherwise."
      },
      "renounceOwnership()": {
        "details": "Leaves the contract without owner. It will not be possible to call `onlyOwner` functions anymore. Can only be called by the current owner.     * NOTE: Renouncing ownership will leave the contract without an owner, thereby removing any functionality that is only available to the owner."
      },
      "renounceRole(bytes32,address)": {
        "details": "Revokes `role` from the calling account.     * Roles are often managed via {grantRole} and {revokeRole}: this function's purpose is to provide a mechanism for accounts to lose their privileges if they are compromised (such as when a trusted device is misplaced).     * If the calling account had been granted `role`, emits a {RoleRevoked} event.     * Requirements:     * - the caller must be `account`."
      },
      "revokeRole(bytes32,address)": {
        "details": "Revokes `role` from `account`.     * If `account` had been granted `role`, emits a {RoleRevoked} event.     * Requirements:     * - the caller must have ``role``'s admin role."
      },
      "safeTransferFrom(address,address,uint256)": {
        "details": "See {IERC721-safeTransferFrom}."
      },
      "safeTransferFrom(address,address,uint256,bytes)": {
        "details": "See {IERC721-safeTransferFrom}."
      },
      "setApprovalForAll(address,bool)": {
        "details": "See {IERC721-setApprovalForAll}."
      },
      "supportsInterface(bytes4)": {
        "details": "See {IERC165-supportsInterface}.     * Time complexity O(1), guaranteed to always use less than 30 000 gas."
      },
      "symbol()": {
        "details": "See {IERC721Metadata-symbol}."
      },
      "tokenByIndex(uint256)": {
        "details": "See {IERC721Enumerable-tokenByIndex}."
      },
      "tokenOfOwnerByIndex(address,uint256)": {
        "details": "See {IERC721Enumerable-tokenOfOwnerByIndex}."
      },
      "tokenURI(uint256)": {
        "details": "See {IERC721Metadata-tokenURI}."
      },
      "totalSupply()": {
        "details": "See {IERC721Enumerable-totalSupply}."
      },
      "transferFrom(address,address,uint256)": {
        "details": "See {IERC721-transferFrom}."
      },
      "transferOwnership(address)": {
        "details": "Transfers ownership of the contract to a new account (`newOwner`). Can only be called by the current owner."
      },
      "unpause()": {
        "details": "Unpauses all token transfers.     * See {ERC721Pausable} and {Pausable-_unpause}.     * Requirements:     * - the caller must have the `PAUSER_ROLE`."
      }
    }
  },
  "userdoc": {
    "methods": {}
  },
  "storageLayout": {
    "storage": [
      {
        "astId": 429,
        "contract": "src/CryptOrchidERC721/CryptOrchidERC721.sol:CryptOrchidERC721",
        "label": "_roles",
        "offset": 0,
        "slot": "0",
        "type": "t_mapping(t_bytes32,t_struct(RoleData)425_storage)"
      },
      {
        "astId": 812,
        "contract": "src/CryptOrchidERC721/CryptOrchidERC721.sol:CryptOrchidERC721",
        "label": "_supportedInterfaces",
        "offset": 0,
        "slot": "1",
        "type": "t_mapping(t_bytes4,t_bool)"
      },
      {
        "astId": 1421,
        "contract": "src/CryptOrchidERC721/CryptOrchidERC721.sol:CryptOrchidERC721",
        "label": "_holderTokens",
        "offset": 0,
        "slot": "2",
        "type": "t_mapping(t_address,t_struct(UintSet)3904_storage)"
      },
      {
        "astId": 1423,
        "contract": "src/CryptOrchidERC721/CryptOrchidERC721.sol:CryptOrchidERC721",
        "label": "_tokenOwners",
        "offset": 0,
        "slot": "3",
        "type": "t_struct(UintToAddressMap)3281_storage"
      },
      {
        "astId": 1427,
        "contract": "src/CryptOrchidERC721/CryptOrchidERC721.sol:CryptOrchidERC721",
        "label": "_tokenApprovals",
        "offset": 0,
        "slot": "5",
        "type": "t_mapping(t_uint256,t_address)"
      },
      {
        "astId": 1433,
        "contract": "src/CryptOrchidERC721/CryptOrchidERC721.sol:CryptOrchidERC721",
        "label": "_operatorApprovals",
        "offset": 0,
        "slot": "6",
        "type": "t_mapping(t_address,t_mapping(t_address,t_bool))"
      },
      {
        "astId": 1435,
        "contract": "src/CryptOrchidERC721/CryptOrchidERC721.sol:CryptOrchidERC721",
        "label": "_name",
        "offset": 0,
        "slot": "7",
        "type": "t_string_storage"
      },
      {
        "astId": 1437,
        "contract": "src/CryptOrchidERC721/CryptOrchidERC721.sol:CryptOrchidERC721",
        "label": "_symbol",
        "offset": 0,
        "slot": "8",
        "type": "t_string_storage"
      },
      {
        "astId": 1441,
        "contract": "src/CryptOrchidERC721/CryptOrchidERC721.sol:CryptOrchidERC721",
        "label": "_tokenURIs",
        "offset": 0,
        "slot": "9",
        "type": "t_mapping(t_uint256,t_string_storage)"
      },
      {
        "astId": 1443,
        "contract": "src/CryptOrchidERC721/CryptOrchidERC721.sol:CryptOrchidERC721",
        "label": "_baseURI",
        "offset": 0,
        "slot": "10",
        "type": "t_string_storage"
      },
      {
        "astId": 4017,
        "contract": "src/CryptOrchidERC721/CryptOrchidERC721.sol:CryptOrchidERC721",
        "label": "_paused",
        "offset": 0,
        "slot": "11",
        "type": "t_bool"
      },
      {
        "astId": 1254,
        "contract": "src/CryptOrchidERC721/CryptOrchidERC721.sol:CryptOrchidERC721",
        "label": "_tokenIdTracker",
        "offset": 0,
        "slot": "12",
        "type": "t_struct(Counter)2907_storage"
      },
      {
        "astId": 4188,
        "contract": "src/CryptOrchidERC721/CryptOrchidERC721.sol:CryptOrchidERC721",
        "label": "waterLevel",
        "offset": 0,
        "slot": "13",
        "type": "t_mapping(t_uint256,t_uint256)"
      },
      {
        "astId": 697,
        "contract": "src/CryptOrchidERC721/CryptOrchidERC721.sol:CryptOrchidERC721",
        "label": "_owner",
        "offset": 0,
        "slot": "14",
        "type": "t_address"
      },
      {
        "astId": 81,
        "contract": "src/CryptOrchidERC721/CryptOrchidERC721.sol:CryptOrchidERC721",
        "label": "nonces",
        "offset": 0,
        "slot": "15",
        "type": "t_mapping(t_bytes32,t_uint256)"
      },
      {
        "astId": 4208,
        "contract": "src/CryptOrchidERC721/CryptOrchidERC721.sol:CryptOrchidERC721",
        "label": "_tokenIds",
        "offset": 0,
        "slot": "16",
        "type": "t_struct(Counter)2907_storage"
      },
      {
        "astId": 4211,
        "contract": "src/CryptOrchidERC721/CryptOrchidERC721.sol:CryptOrchidERC721",
        "label": "wateringPeriod",
        "offset": 0,
        "slot": "17",
        "type": "t_uint256"
      },
      {
        "astId": 4214,
        "contract": "src/CryptOrchidERC721/CryptOrchidERC721.sol:CryptOrchidERC721",
        "label": "wateringWindow",
        "offset": 0,
        "slot": "18",
        "type": "t_uint256"
      },
      {
        "astId": 4216,
        "contract": "src/CryptOrchidERC721/CryptOrchidERC721.sol:CryptOrchidERC721",
        "label": "creator",
        "offset": 0,
        "slot": "19",
        "type": "t_address_payable"
      },
      {
        "astId": 4218,
        "contract": "src/CryptOrchidERC721/CryptOrchidERC721.sol:CryptOrchidERC721",
        "label": "keyHash",
        "offset": 0,
        "slot": "20",
        "type": "t_bytes32"
      },
      {
        "astId": 4220,
        "contract": "src/CryptOrchidERC721/CryptOrchidERC721.sol:CryptOrchidERC721",
        "label": "vrfFee",
        "offset": 0,
        "slot": "21",
        "type": "t_uint256"
      },
      {
        "astId": 4222,
        "contract": "src/CryptOrchidERC721/CryptOrchidERC721.sol:CryptOrchidERC721",
        "label": "randomResult",
        "offset": 0,
        "slot": "22",
        "type": "t_uint256"
      },
      {
        "astId": 4224,
        "contract": "src/CryptOrchidERC721/CryptOrchidERC721.sol:CryptOrchidERC721",
        "label": "VRFCoordinator",
        "offset": 0,
        "slot": "23",
        "type": "t_address"
      },
      {
        "astId": 4226,
        "contract": "src/CryptOrchidERC721/CryptOrchidERC721.sol:CryptOrchidERC721",
        "label": "LinkToken",
        "offset": 0,
        "slot": "24",
        "type": "t_address"
      },
      {
        "astId": 4246,
        "contract": "src/CryptOrchidERC721/CryptOrchidERC721.sol:CryptOrchidERC721",
        "label": "cryptorchids",
        "offset": 0,
        "slot": "25",
        "type": "t_array(t_struct(CryptOrchid)4233_storage)dyn_storage"
      },
      {
        "astId": 4250,
        "contract": "src/CryptOrchidERC721/CryptOrchidERC721.sol:CryptOrchidERC721",
        "label": "requestToSender",
        "offset": 0,
        "slot": "26",
        "type": "t_mapping(t_bytes32,t_address)"
      },
      {
        "astId": 4254,
        "contract": "src/CryptOrchidERC721/CryptOrchidERC721.sol:CryptOrchidERC721",
        "label": "requestToPlantedAt",
        "offset": 0,
        "slot": "27",
        "type": "t_mapping(t_bytes32,t_uint256)"
      }
    ],
    "types": {
      "t_address": {
        "encoding": "inplace",
        "label": "address",
        "numberOfBytes": "20"
      },
      "t_address_payable": {
        "encoding": "inplace",
        "label": "address payable",
        "numberOfBytes": "20"
      },
      "t_array(t_bytes32)dyn_storage": {
        "base": "t_bytes32",
        "encoding": "dynamic_array",
        "label": "bytes32[]",
        "numberOfBytes": "32"
      },
      "t_array(t_struct(CryptOrchid)4233_storage)dyn_storage": {
        "base": "t_struct(CryptOrchid)4233_storage",
        "encoding": "dynamic_array",
        "label": "struct CryptOrchidERC721.CryptOrchid[]",
        "numberOfBytes": "32"
      },
      "t_array(t_struct(MapEntry)2955_storage)dyn_storage": {
        "base": "t_struct(MapEntry)2955_storage",
        "encoding": "dynamic_array",
        "label": "struct EnumerableMap.MapEntry[]",
        "numberOfBytes": "32"
      },
      "t_bool": {
        "encoding": "inplace",
        "label": "bool",
        "numberOfBytes": "1"
      },
      "t_bytes32": {
        "encoding": "inplace",
        "label": "bytes32",
        "numberOfBytes": "32"
      },
      "t_bytes4": {
        "encoding": "inplace",
        "label": "bytes4",
        "numberOfBytes": "4"
      },
      "t_mapping(t_address,t_bool)": {
        "encoding": "mapping",
        "key": "t_address",
        "label": "mapping(address => bool)",
        "numberOfBytes": "32",
        "value": "t_bool"
      },
      "t_mapping(t_address,t_mapping(t_address,t_bool))": {
        "encoding": "mapping",
        "key": "t_address",
        "label": "mapping(address => mapping(address => bool))",
        "numberOfBytes": "32",
        "value": "t_mapping(t_address,t_bool)"
      },
      "t_mapping(t_address,t_struct(UintSet)3904_storage)": {
        "encoding": "mapping",
        "key": "t_address",
        "label": "mapping(address => struct EnumerableSet.UintSet)",
        "numberOfBytes": "32",
        "value": "t_struct(UintSet)3904_storage"
      },
      "t_mapping(t_bytes32,t_address)": {
        "encoding": "mapping",
        "key": "t_bytes32",
        "label": "mapping(bytes32 => address)",
        "numberOfBytes": "32",
        "value": "t_address"
      },
      "t_mapping(t_bytes32,t_struct(RoleData)425_storage)": {
        "encoding": "mapping",
        "key": "t_bytes32",
        "label": "mapping(bytes32 => struct AccessControl.RoleData)",
        "numberOfBytes": "32",
        "value": "t_struct(RoleData)425_storage"
      },
      "t_mapping(t_bytes32,t_uint256)": {
        "encoding": "mapping",
        "key": "t_bytes32",
        "label": "mapping(bytes32 => uint256)",
        "numberOfBytes": "32",
        "value": "t_uint256"
      },
      "t_mapping(t_bytes4,t_bool)": {
        "encoding": "mapping",
        "key": "t_bytes4",
        "label": "mapping(bytes4 => bool)",
        "numberOfBytes": "32",
        "value": "t_bool"
      },
      "t_mapping(t_uint256,t_address)": {
        "encoding": "mapping",
        "key": "t_uint256",
        "label": "mapping(uint256 => address)",
        "numberOfBytes": "32",
        "value": "t_address"
      },
      "t_mapping(t_uint256,t_string_storage)": {
        "encoding": "mapping",
        "key": "t_uint256",
        "label": "mapping(uint256 => string)",
        "numberOfBytes": "32",
        "value": "t_string_storage"
      },
      "t_mapping(t_uint256,t_uint256)": {
        "encoding": "mapping",
        "key": "t_uint256",
        "label": "mapping(uint256 => uint256)",
        "numberOfBytes": "32",
        "value": "t_uint256"
      },
      "t_string_storage": {
        "encoding": "bytes",
        "label": "string",
        "numberOfBytes": "32"
      },
      "t_struct(AddressSet)3783_storage": {
        "encoding": "inplace",
        "label": "struct EnumerableSet.AddressSet",
        "members": [
          {
            "astId": 3782,
            "contract": "src/CryptOrchidERC721/CryptOrchidERC721.sol:CryptOrchidERC721",
            "label": "_inner",
            "offset": 0,
            "slot": "0",
            "type": "t_struct(Set)3518_storage"
          }
        ],
        "numberOfBytes": "64"
      },
      "t_struct(Counter)2907_storage": {
        "encoding": "inplace",
        "label": "struct Counters.Counter",
        "members": [
          {
            "astId": 2906,
            "contract": "src/CryptOrchidERC721/CryptOrchidERC721.sol:CryptOrchidERC721",
            "label": "_value",
            "offset": 0,
            "slot": "0",
            "type": "t_uint256"
          }
        ],
        "numberOfBytes": "32"
      },
      "t_struct(CryptOrchid)4233_storage": {
        "encoding": "inplace",
        "label": "struct CryptOrchidERC721.CryptOrchid",
        "members": [
          {
            "astId": 4228,
            "contract": "src/CryptOrchidERC721/CryptOrchidERC721.sol:CryptOrchidERC721",
            "label": "species",
            "offset": 0,
            "slot": "0",
            "type": "t_string_storage"
          },
          {
            "astId": 4230,
            "contract": "src/CryptOrchidERC721/CryptOrchidERC721.sol:CryptOrchidERC721",
            "label": "latinSpecies",
            "offset": 0,
            "slot": "1",
            "type": "t_string_storage"
          },
          {
            "astId": 4232,
            "contract": "src/CryptOrchidERC721/CryptOrchidERC721.sol:CryptOrchidERC721",
            "label": "plantedAt",
            "offset": 0,
            "slot": "2",
            "type": "t_uint256"
          }
        ],
        "numberOfBytes": "96"
      },
      "t_struct(Map)2963_storage": {
        "encoding": "inplace",
        "label": "struct EnumerableMap.Map",
        "members": [
          {
            "astId": 2958,
            "contract": "src/CryptOrchidERC721/CryptOrchidERC721.sol:CryptOrchidERC721",
            "label": "_entries",
            "offset": 0,
            "slot": "0",
            "type": "t_array(t_struct(MapEntry)2955_storage)dyn_storage"
          },
          {
            "astId": 2962,
            "contract": "src/CryptOrchidERC721/CryptOrchidERC721.sol:CryptOrchidERC721",
            "label": "_indexes",
            "offset": 0,
            "slot": "1",
            "type": "t_mapping(t_bytes32,t_uint256)"
          }
        ],
        "numberOfBytes": "64"
      },
      "t_struct(MapEntry)2955_storage": {
        "encoding": "inplace",
        "label": "struct EnumerableMap.MapEntry",
        "members": [
          {
            "astId": 2952,
            "contract": "src/CryptOrchidERC721/CryptOrchidERC721.sol:CryptOrchidERC721",
            "label": "_key",
            "offset": 0,
            "slot": "0",
            "type": "t_bytes32"
          },
          {
            "astId": 2954,
            "contract": "src/CryptOrchidERC721/CryptOrchidERC721.sol:CryptOrchidERC721",
            "label": "_value",
            "offset": 0,
            "slot": "1",
            "type": "t_bytes32"
          }
        ],
        "numberOfBytes": "64"
      },
      "t_struct(RoleData)425_storage": {
        "encoding": "inplace",
        "label": "struct AccessControl.RoleData",
        "members": [
          {
            "astId": 422,
            "contract": "src/CryptOrchidERC721/CryptOrchidERC721.sol:CryptOrchidERC721",
            "label": "members",
            "offset": 0,
            "slot": "0",
            "type": "t_struct(AddressSet)3783_storage"
          },
          {
            "astId": 424,
            "contract": "src/CryptOrchidERC721/CryptOrchidERC721.sol:CryptOrchidERC721",
            "label": "adminRole",
            "offset": 0,
            "slot": "2",
            "type": "t_bytes32"
          }
        ],
        "numberOfBytes": "96"
      },
      "t_struct(Set)3518_storage": {
        "encoding": "inplace",
        "label": "struct EnumerableSet.Set",
        "members": [
          {
            "astId": 3513,
            "contract": "src/CryptOrchidERC721/CryptOrchidERC721.sol:CryptOrchidERC721",
            "label": "_values",
            "offset": 0,
            "slot": "0",
            "type": "t_array(t_bytes32)dyn_storage"
          },
          {
            "astId": 3517,
            "contract": "src/CryptOrchidERC721/CryptOrchidERC721.sol:CryptOrchidERC721",
            "label": "_indexes",
            "offset": 0,
            "slot": "1",
            "type": "t_mapping(t_bytes32,t_uint256)"
          }
        ],
        "numberOfBytes": "64"
      },
      "t_struct(UintSet)3904_storage": {
        "encoding": "inplace",
        "label": "struct EnumerableSet.UintSet",
        "members": [
          {
            "astId": 3903,
            "contract": "src/CryptOrchidERC721/CryptOrchidERC721.sol:CryptOrchidERC721",
            "label": "_inner",
            "offset": 0,
            "slot": "0",
            "type": "t_struct(Set)3518_storage"
          }
        ],
        "numberOfBytes": "64"
      },
      "t_struct(UintToAddressMap)3281_storage": {
        "encoding": "inplace",
        "label": "struct EnumerableMap.UintToAddressMap",
        "members": [
          {
            "astId": 3280,
            "contract": "src/CryptOrchidERC721/CryptOrchidERC721.sol:CryptOrchidERC721",
            "label": "_inner",
            "offset": 0,
            "slot": "0",
            "type": "t_struct(Map)2963_storage"
          }
        ],
        "numberOfBytes": "64"
      },
      "t_uint256": {
        "encoding": "inplace",
        "label": "uint256",
        "numberOfBytes": "32"
      }
    }
  }
}