{
  "address": "0x8b909aC9F3cba71d7A0B72397Ec82A74D2aC8D0F",
  "abi": [
    {
      "inputs": [
        {
          "internalType": "address",
          "name": "cryptorchidsAddress",
          "type": "address"
        },
        {
          "internalType": "address",
          "name": "_VRFCoordinator",
          "type": "address"
        },
        {
          "internalType": "address",
          "name": "_LinkToken",
          "type": "address"
        },
        {
          "internalType": "bytes32",
          "name": "_keyhash",
          "type": "bytes32"
        }
      ],
      "stateMutability": "payable",
      "type": "constructor"
    },
    {
      "anonymous": false,
      "inputs": [
        {
          "indexed": true,
          "internalType": "address",
          "name": "previousOwner",
          "type": "address"
        },
        {
          "indexed": true,
          "internalType": "address",
          "name": "newOwner",
          "type": "address"
        }
      ],
      "name": "OwnershipTransferred",
      "type": "event"
    },
    {
      "inputs": [],
      "name": "LinkToken",
      "outputs": [
        {
          "internalType": "address",
          "name": "",
          "type": "address"
        }
      ],
      "stateMutability": "view",
      "type": "function"
    },
    {
      "inputs": [],
      "name": "VRFCoordinator",
      "outputs": [
        {
          "internalType": "address",
          "name": "",
          "type": "address"
        }
      ],
      "stateMutability": "view",
      "type": "function"
    },
    {
      "inputs": [],
      "name": "addressEntriesCount",
      "outputs": [
        {
          "internalType": "uint256",
          "name": "",
          "type": "uint256"
        }
      ],
      "stateMutability": "view",
      "type": "function"
    },
    {
      "inputs": [],
      "name": "checkEligibility",
      "outputs": [
        {
          "internalType": "uint256[]",
          "name": "eligibleTokens",
          "type": "uint256[]"
        },
        {
          "internalType": "uint256",
          "name": "rebateAmount",
          "type": "uint256"
        }
      ],
      "stateMutability": "view",
      "type": "function"
    },
    {
      "inputs": [],
      "name": "cryptorchidsERC721",
      "outputs": [
        {
          "internalType": "address",
          "name": "",
          "type": "address"
        }
      ],
      "stateMutability": "view",
      "type": "function"
    },
    {
      "inputs": [],
      "name": "currentRebate",
      "outputs": [
        {
          "internalType": "uint256",
          "name": "",
          "type": "uint256"
        }
      ],
      "stateMutability": "view",
      "type": "function"
    },
    {
      "inputs": [],
      "name": "drawingEntriesCount",
      "outputs": [
        {
          "internalType": "uint256",
          "name": "",
          "type": "uint256"
        }
      ],
      "stateMutability": "view",
      "type": "function"
    },
    {
      "inputs": [],
      "name": "enter",
      "outputs": [],
      "stateMutability": "nonpayable",
      "type": "function"
    },
    {
      "inputs": [],
      "name": "owner",
      "outputs": [
        {
          "internalType": "address",
          "name": "",
          "type": "address"
        }
      ],
      "stateMutability": "view",
      "type": "function"
    },
    {
      "inputs": [],
      "name": "pot",
      "outputs": [
        {
          "internalType": "uint256",
          "name": "",
          "type": "uint256"
        }
      ],
      "stateMutability": "view",
      "type": "function"
    },
    {
      "inputs": [],
      "name": "promotionEnd",
      "outputs": [
        {
          "internalType": "uint256",
          "name": "",
          "type": "uint256"
        }
      ],
      "stateMutability": "view",
      "type": "function"
    },
    {
      "inputs": [],
      "name": "promotionOpen",
      "outputs": [
        {
          "internalType": "bool",
          "name": "",
          "type": "bool"
        }
      ],
      "stateMutability": "view",
      "type": "function"
    },
    {
      "inputs": [],
      "name": "promotionStart",
      "outputs": [
        {
          "internalType": "uint256",
          "name": "",
          "type": "uint256"
        }
      ],
      "stateMutability": "view",
      "type": "function"
    },
    {
      "inputs": [
        {
          "internalType": "bytes32",
          "name": "requestId",
          "type": "bytes32"
        },
        {
          "internalType": "uint256",
          "name": "randomness",
          "type": "uint256"
        }
      ],
      "name": "rawFulfillRandomness",
      "outputs": [],
      "stateMutability": "nonpayable",
      "type": "function"
    },
    {
      "inputs": [],
      "name": "rebatesAvailable",
      "outputs": [
        {
          "internalType": "uint256",
          "name": "",
          "type": "uint256"
        }
      ],
      "stateMutability": "view",
      "type": "function"
    },
    {
      "inputs": [],
      "name": "redeem",
      "outputs": [
        {
          "internalType": "uint256",
          "name": "",
          "type": "uint256"
        }
      ],
      "stateMutability": "nonpayable",
      "type": "function"
    },
    {
      "inputs": [],
      "name": "renounceOwnership",
      "outputs": [],
      "stateMutability": "nonpayable",
      "type": "function"
    },
    {
      "inputs": [
        {
          "internalType": "uint256",
          "name": "newPromotionEnd",
          "type": "uint256"
        }
      ],
      "name": "reset",
      "outputs": [],
      "stateMutability": "nonpayable",
      "type": "function"
    },
    {
      "inputs": [
        {
          "internalType": "uint256",
          "name": "userProvidedSeed",
          "type": "uint256"
        }
      ],
      "name": "selectWinner",
      "outputs": [],
      "stateMutability": "nonpayable",
      "type": "function"
    },
    {
      "inputs": [],
      "name": "setCurrentRebate",
      "outputs": [],
      "stateMutability": "nonpayable",
      "type": "function"
    },
    {
      "inputs": [
        {
          "internalType": "uint256",
          "name": "tokenId",
          "type": "uint256"
        }
      ],
      "name": "tokenRebate",
      "outputs": [
        {
          "internalType": "uint256",
          "name": "",
          "type": "uint256"
        }
      ],
      "stateMutability": "pure",
      "type": "function"
    },
    {
      "inputs": [
        {
          "internalType": "address",
          "name": "newOwner",
          "type": "address"
        }
      ],
      "name": "transferOwnership",
      "outputs": [],
      "stateMutability": "nonpayable",
      "type": "function"
    },
    {
      "inputs": [],
      "name": "winner",
      "outputs": [
        {
          "internalType": "address",
          "name": "",
          "type": "address"
        }
      ],
      "stateMutability": "view",
      "type": "function"
    },
    {
      "inputs": [],
      "name": "winnerRequested",
      "outputs": [
        {
          "internalType": "bool",
          "name": "",
          "type": "bool"
        }
      ],
      "stateMutability": "view",
      "type": "function"
    },
    {
      "inputs": [],
      "name": "withdrawUnclaimed",
      "outputs": [],
      "stateMutability": "nonpayable",
      "type": "function"
    },
    {
      "inputs": [],
      "name": "withdrawWinner",
      "outputs": [],
      "stateMutability": "nonpayable",
      "type": "function"
    },
    {
      "stateMutability": "payable",
      "type": "receive"
    }
  ],
  "transactionHash": "0x457d6f29d2c40d7e4d170a38391b7b7d689fb2da00dec9c39a975e7f2c008cd4",
  "args": [
    "0x941ee2e831d278DB802A541d3855A8de749ef635",
    "0xf0d54349aDdcf704F77AE15b96510dEA15cb7952",
    "0x514910771af9ca656af840dff83e8264ecf986ca",
    "0xAA77729D3466CA35AE8D28B3BBAC7CC36A5031EFDC430821C02BC31A238AF445"
  ],
  "solcInputHash": "ec417a187af6dc3e6ac68161b2b62088",
  "bytecode": "0x60c06040526040516121753803806121758339818101604052608081101561002657600080fd5b5080516020820151604083015160609093015191929091828260006100526001600160e01b0361012016565b600080546001600160a01b0319166001600160a01b0383169081178255604051929350917f8be0079c531659141344cd1fd0a4f28419497f9722a3daafe3b4186f6b6457e0908290a3506001600160601b0319606092831b811660a052911b16608052600d80546001600160a01b039485166001600160a01b031991821617909155600e805493851693821693909317909255600b55671bc16d674ec80000600c5560068054939092169216919091179055426004556360b5b0c060055566470de4df820000600355610124565b3390565b60805160601c60a05160601c61201e61015760003980610f6d5280611bfd525080610cd45280611bce525061201e6000f3fe6080604052600436106101a55760003560e01c806392a9b1fe116100e1578063dd32858e1161008a578063e97dcb6211610064578063e97dcb6214610478578063edf5b9641461048d578063f2fde38b146104a2578063f85f3b88146104d5576101ac565b8063dd32858e14610424578063de4672c214610439578063dfbf53ae14610463576101ac565b8063b8fa4f02116100bb578063b8fa4f02146103e5578063be040fb0146103fa578063dc7aafba1461040f576101ac565b806392a9b1fe1461038b57806394985ddd146103a0578063aec19021146103d0576101ac565b80634ba2363a1161014e57806350653369116101285780635065336914610337578063715018a61461034c578063837971c4146103615780638da5cb5b14610376576101ac565b80634ba2363a146102e35780634c524be4146102f85780634f8e2fdf14610322576101ac565b806333b608631161017f57806333b608631461027457806333fc56d9146102a55780633ca0e52c146102ba576101ac565b8063049e45d7146101b15780632d997fce14610221578063310bd74b14610248576101ac565b366101ac57005b600080fd5b3480156101bd57600080fd5b506101c66104ea565b6040518080602001838152602001828103825284818151815260200191508051906020019060200280838360005b8381101561020c5781810151838201526020016101f4565b50505050905001935050505060405180910390f35b34801561022d57600080fd5b50610236610886565b60408051918252519081900360200190f35b34801561025457600080fd5b506102726004803603602081101561026b57600080fd5b50356108a1565b005b34801561028057600080fd5b50610289610a0d565b604080516001600160a01b039092168252519081900360200190f35b3480156102b157600080fd5b50610272610a1c565b3480156102c657600080fd5b506102cf610b71565b604080519115158252519081900360200190f35b3480156102ef57600080fd5b50610236610bd1565b34801561030457600080fd5b506102726004803603602081101561031b57600080fd5b5035610bd7565b34801561032e57600080fd5b50610289610dae565b34801561034357600080fd5b506102cf610dbd565b34801561035857600080fd5b50610272610dc6565b34801561036d57600080fd5b50610236610e91565b34801561038257600080fd5b50610289610e97565b34801561039757600080fd5b50610272610ea6565b3480156103ac57600080fd5b50610272600480360360408110156103c357600080fd5b5080359060200135610f62565b3480156103dc57600080fd5b50610289610fed565b3480156103f157600080fd5b50610236610ffc565b34801561040657600080fd5b50610236611002565b34801561041b57600080fd5b506102366113e9565b34801561043057600080fd5b506102726113ef565b34801561044557600080fd5b506102366004803603602081101561045c57600080fd5b50356114f9565b34801561046f57600080fd5b5061028961159e565b34801561048457600080fd5b506102726115b2565b34801561049957600080fd5b50610236611966565b3480156104ae57600080fd5b50610272600480360360208110156104c557600080fd5b50356001600160a01b03166119bc565b3480156104e157600080fd5b50610236611add565b600654604080516370a0823160e01b8152336004820152905160609260009283926001600160a01b03909216916370a0823191602480820192602092909190829003018186803b15801561053d57600080fd5b505afa158015610551573d6000803e3d6000fd5b505050506040513d602081101561056757600080fd5b505190508067ffffffffffffffff8111801561058257600080fd5b506040519080825280602002602001820160405280156105ac578160200160208202803683370190505b50925060006105b9611ae3565b905060005b8281101561087f5760065460408051632f745c5960e01b81523360048201526024810184905290516000926001600160a01b031691632f745c59916044808301926020929190829003018186803b15801561061857600080fd5b505afa15801561062c573d6000803e3d6000fd5b505050506040513d602081101561064257600080fd5b505160008181526002602052604090205490915060ff161515600114156106695750610877565b6006546040805163182199cd60e01b81526004810184905290516000926001600160a01b03169163182199cd916024808301926020929190829003018186803b1580156106b557600080fd5b505afa1580156106c9573d6000803e3d6000fd5b505050506040513d60208110156106df57600080fd5b50519050806106ef575050610877565b60065460408051636031680160e01b81526004810185905290516000926001600160a01b03169163603168019160248083019286929190829003018186803b15801561073a57600080fd5b505afa15801561074e573d6000803e3d6000fd5b505050506040513d6000823e601f3d908101601f19168201604052608081101561077757600080fd5b810190808051604051939291908464010000000082111561079757600080fd5b9083019060208201858111156107ac57600080fd5b82516401000000008111828201881017156107c657600080fd5b82525081516020918201929091019080838360005b838110156107f35781810151838201526020016107db565b50505050905090810190601f1680156108205780820380516001836020036101000a031916815260200191505b506040526020015193506000925061083b91508590506114f9565b90506004548211801561085057508581890111155b15610872578389868151811061086257fe5b6020908102919091010152968701965b505050505b6001016105be565b5050509091565b600061089b610893611ae3565b600354611afa565b90505b90565b6108a9611b61565b6001600160a01b03166108ba610e97565b6001600160a01b031614610915576040805162461bcd60e51b815260206004820181905260248201527f4f776e61626c653a2063616c6c6572206973206e6f7420746865206f776e6572604482015290519081900360640190fd5b600554610920611b65565b11610972576040805162461bcd60e51b815260206004820152601960248201527f434f433a7273743a70726f6d6f74696f6e2072756e6e696e6700000000000000604482015290519081900360640190fd5b600754156109c7576040805162461bcd60e51b815260206004820152601a60248201527f434f433a7273743a77696e6e696e677320756e636c61696d6564000000000000604482015290519081900360640190fd5b6109d360086000611f8b565b600a8054600060098190557fffffffffffffffffffffff000000000000000000000000000000000000000000909116909155600755600555565b600d546001600160a01b031681565b610a24611b61565b6001600160a01b0316610a35610e97565b6001600160a01b031614610a90576040805162461bcd60e51b815260206004820181905260248201527f4f776e61626c653a2063616c6c6572206973206e6f7420746865206f776e6572604482015290519081900360640190fd5b600554610a9b611b65565b11610aed576040805162461bcd60e51b815260206004820152601860248201527f434f433a77553a70726f6d6f74696f6e2072756e6e696e670000000000000000604482015290519081900360640190fd5b60075415610b42576040805162461bcd60e51b815260206004820152601960248201527f434f433a77553a77696e6e696e677320756e636c61696d656400000000000000604482015290519081900360640190fd5b60405133904780156108fc02916000818181858888f19350505050158015610b6e573d6000803e3d6000fd5b50565b6000600554610b7e611b65565b1115610b8c5750600061089e565b6003544790610ba290829063ffffffff611b6916565b6007541115610bb557600091505061089e565b806003541115610bc957600091505061089e565b600191505090565b60075481565b600554610be2611b65565b11610c34576040805162461bcd60e51b815260206004820152601860248201527f434f433a77573a70726f6d6f74696f6e2072756e6e696e670000000000000000604482015290519081900360640190fd5b60095460001a60f81b7fff000000000000000000000000000000000000000000000000000000000000001615610cb1576040805162461bcd60e51b815260206004820152601760248201527f434f433a77573a77696e6e657220726571756573746564000000000000000000604482015290519081900360640190fd5b600c54604080516370a0823160e01b815230600482015290516001600160a01b037f000000000000000000000000000000000000000000000000000000000000000016916370a08231916024808301926020929190829003018186803b158015610d1a57600080fd5b505afa158015610d2e573d6000803e3d6000fd5b505050506040513d6020811015610d4457600080fd5b50511015610d99576040805162461bcd60e51b815260206004820152600e60248201527f434f433a73573a6e6f204c494e4b000000000000000000000000000000000000604482015290519081900360640190fd5b610da8600b54600c5483611bca565b60095550565b600e546001600160a01b031681565b600a5460ff1681565b610dce611b61565b6001600160a01b0316610ddf610e97565b6001600160a01b031614610e3a576040805162461bcd60e51b815260206004820181905260248201527f4f776e61626c653a2063616c6c6572206973206e6f7420746865206f776e6572604482015290519081900360640190fd5b600080546040516001600160a01b03909116907f8be0079c531659141344cd1fd0a4f28419497f9722a3daafe3b4186f6b6457e0908390a36000805473ffffffffffffffffffffffffffffffffffffffff19169055565b60055481565b6000546001600160a01b031690565b600654604080517f9d1b464a00000000000000000000000000000000000000000000000000000000815290516000926001600160a01b031691639d1b464a916004808301926020929190829003018186803b158015610f0457600080fd5b505afa158015610f18573d6000803e3d6000fd5b505050506040513d6020811015610f2e57600080fd5b50519050668e1bc9bf040000811415610f52575066470de4df820000600355610f60565b668e1bc9bf03ffff19016003555b565b336001600160a01b037f00000000000000000000000000000000000000000000000000000000000000001614610fdf576040805162461bcd60e51b815260206004820152601f60248201527f4f6e6c7920565246436f6f7264696e61746f722063616e2066756c66696c6c00604482015290519081900360640190fd5b610fe98282611d8e565b5050565b6006546001600160a01b031681565b60085490565b600654604080516370a0823160e01b8152336004820152905160009283926001600160a01b03909116916370a0823191602480820192602092909190829003018186803b15801561105257600080fd5b505afa158015611066573d6000803e3d6000fd5b505050506040513d602081101561107c57600080fd5b50519050600061108a611ae3565b90506000805b8381101561135e5760065460408051632f745c5960e01b81523360048201526024810184905290516000926001600160a01b031691632f745c59916044808301926020929190829003018186803b1580156110ea57600080fd5b505afa1580156110fe573d6000803e3d6000fd5b505050506040513d602081101561111457600080fd5b505160008181526002602052604090205490915060ff1615156001141561113b5750611356565b6000611146826114f9565b905084818501111561115957505061135e565b6006546040805163182199cd60e01b81526004810185905290516000926001600160a01b03169163182199cd916024808301926020929190829003018186803b1580156111a557600080fd5b505afa1580156111b9573d6000803e3d6000fd5b505050506040513d60208110156111cf57600080fd5b50519050806111e057505050611356565b60065460408051636031680160e01b81526004810186905290516000926001600160a01b03169163603168019160248083019286929190829003018186803b15801561122b57600080fd5b505afa15801561123f573d6000803e3d6000fd5b505050506040513d6000823e601f3d908101601f19168201604052608081101561126857600080fd5b810190808051604051939291908464010000000082111561128857600080fd5b90830190602082018581111561129d57600080fd5b82516401000000008111828201881017156112b757600080fd5b82525081516020918201929091019080838360005b838110156112e45781810151838201526020016112cc565b50505050905090810190601f1680156113115780820380516001836020036101000a031916815260200191505b506040526020015160045490945084101592506113349150505750505050611356565b5050600091825260026020526040909120805460ff1916600117905591909101905b600101611090565b50600081116113b4576040805162461bcd60e51b815260206004820152600960248201527f556e70617961626c650000000000000000000000000000000000000000000000604482015290519081900360640190fd5b604051339082156108fc029083906000818181858888f193505050501580156113e1573d6000803e3d6000fd5b509250505090565b60035481565b6005546113fa611b65565b1161144c576040805162461bcd60e51b815260206004820152601860248201527f434f433a77573a70726f6d6f74696f6e2072756e6e696e670000000000000000604482015290519081900360640190fd5b600a5461010090046001600160a01b031633146114b0576040805162461bcd60e51b815260206004820152601160248201527f434f433a77573a6e6f742077696e6e6572000000000000000000000000000000604482015290519081900360640190fd5b60078054600091829055600a5460405191926101009091046001600160a01b0316916108fc84150291849190818181858888f19350505050158015610fe9573d6000803e3d6000fd5b60006126ac8211156115145750670d529ae9e8600000611599565b61251c82111561152d5750670853a0d2313c0000611599565b611d4c82111561154657506703e2c284391c0000611599565b610dac82111561155f57506701aa535d3d0c0000611599565b6105dc8211156115775750668e1bc9bf040000611599565b6101f482111561158f575066470de4df820000611599565b5066470de4df8200005b919050565b600a5461010090046001600160a01b031681565b600654604080516370a0823160e01b815233600482015290516000926001600160a01b0316916370a08231916024808301926020929190829003018186803b1580156115fd57600080fd5b505afa158015611611573d6000803e3d6000fd5b505050506040513d602081101561162757600080fd5b505190506000611635611ae3565b90506000805b838110156119585760065460408051632f745c5960e01b81523360048201526024810184905290516000926001600160a01b031691632f745c59916044808301926020929190829003018186803b15801561169557600080fd5b505afa1580156116a9573d6000803e3d6000fd5b505050506040513d60208110156116bf57600080fd5b505160008181526002602052604090205490915060ff161515600114156116e65750611950565b60006116f1826114f9565b9050848185011115611704575050611958565b6006546040805163182199cd60e01b81526004810185905290516000926001600160a01b03169163182199cd916024808301926020929190829003018186803b15801561175057600080fd5b505afa158015611764573d6000803e3d6000fd5b505050506040513d602081101561177a57600080fd5b505190508061178b57505050611950565b60065460408051636031680160e01b81526004810186905290516000926001600160a01b03169163603168019160248083019286929190829003018186803b1580156117d657600080fd5b505afa1580156117ea573d6000803e3d6000fd5b505050506040513d6000823e601f3d908101601f19168201604052608081101561181357600080fd5b810190808051604051939291908464010000000082111561183357600080fd5b90830190602082018581111561184857600080fd5b825164010000000081118282018810171561186257600080fd5b82525081516020918201929091019080838360005b8381101561188f578181015183820152602001611877565b50505050905090810190601f1680156118bc5780820380516001836020036101000a031916815260200191505b506040526020015160045490945084101592506118df9150505750505050611950565b50506000918252600260205260408220805460ff191660019081179091556008805491820181559092527ff3f7a9fe364faab93b216da50a3214154f22a0a2b415b23a84c8169e8b636ee3909101805473ffffffffffffffffffffffffffffffffffffffff19163317905591909101905b60010161163b565b506007805490910190555050565b600080805b6008548110156119b657336001600160a01b03166008828154811061198c57fe5b6000918252602090912001546001600160a01b031614156119ae576001820191505b60010161196b565b50905090565b6119c4611b61565b6001600160a01b03166119d5610e97565b6001600160a01b031614611a30576040805162461bcd60e51b815260206004820181905260248201527f4f776e61626c653a2063616c6c6572206973206e6f7420746865206f776e6572604482015290519081900360640190fd5b6001600160a01b038116611a755760405162461bcd60e51b8152600401808060200182810382526026815260200180611fc36026913960400191505060405180910390fd5b600080546040516001600160a01b03808516939216917f8be0079c531659141344cd1fd0a4f28419497f9722a3daafe3b4186f6b6457e091a36000805473ffffffffffffffffffffffffffffffffffffffff19166001600160a01b0392909216919091179055565b60045481565b600061089b60075447611e5490919063ffffffff16565b6000808211611b50576040805162461bcd60e51b815260206004820152601a60248201527f536166654d6174683a206469766973696f6e206279207a65726f000000000000604482015290519081900360640190fd5b818381611b5957fe5b049392505050565b3390565b4290565b600082820183811015611bc3576040805162461bcd60e51b815260206004820152601b60248201527f536166654d6174683a206164646974696f6e206f766572666c6f770000000000604482015290519081900360640190fd5b9392505050565b60007f00000000000000000000000000000000000000000000000000000000000000006001600160a01b0316634000aea07f000000000000000000000000000000000000000000000000000000000000000085878660405160200180838152602001828152602001925050506040516020818303038152906040526040518463ffffffff1660e01b815260040180846001600160a01b03166001600160a01b0316815260200183815260200180602001828103825283818151815260200191508051906020019080838360005b83811015611caf578181015183820152602001611c97565b50505050905090810190601f168015611cdc5780820380516001836020036101000a031916815260200191505b50945050505050602060405180830381600087803b158015611cfd57600080fd5b505af1158015611d11573d6000803e3d6000fd5b505050506040513d6020811015611d2757600080fd5b5050600084815260016020526040812054611d4790869085903090611eb1565b600086815260016020819052604090912054919250611d6c919063ffffffff611b6916565b600086815260016020526040902055611d858582611ef8565b95945050505050565b6009548214611de4576040805162461bcd60e51b815260206004820152601960248201527f434f433a66523a696e76616c6964207265717565737420494400000000000000604482015290519081900360640190fd5b6000611df782611df2610ffc565b611f24565b905060088181548110611e0657fe5b600091825260209091200154600a80546001600160a01b03909216610100027fffffffffffffffffffffff0000000000000000000000000000000000000000ff909216919091179055505050565b600082821115611eab576040805162461bcd60e51b815260206004820152601e60248201527f536166654d6174683a207375627472616374696f6e206f766572666c6f770000604482015290519081900360640190fd5b50900390565b60408051602080820196909652808201949094526001600160a01b039290921660608401526080808401919091528151808403909101815260a09092019052805191012090565b604080516020808201949094528082019290925280518083038201815260609092019052805191012090565b6000808211611f7a576040805162461bcd60e51b815260206004820152601860248201527f536166654d6174683a206d6f64756c6f206279207a65726f0000000000000000604482015290519081900360640190fd5b818381611f8357fe5b069392505050565b5080546000825590600052602060002090810190610b6e919061089e91905b80821115611fbe5760008155600101611faa565b509056fe4f776e61626c653a206e6577206f776e657220697320746865207a65726f2061646472657373a2646970667358221220bef5e7193b2fe9fb7cdb9a37c0b77aa77c5238ef570d0d3770f2fec4183633bf64736f6c63430006060033",
  "devdoc": {
    "methods": {
      "checkEligibility()": {
        "details": "calls public functions on the CryptOrchids contract to build an array of eligible token IDs and a rebate amount.",
        "returns": {
          "eligibleTokens": "uint256[] Uncompacted array of 0s and eligible token IDs",
          "rebateAmount": "uint256 Eligible tokens * currentRebate"
        }
      },
      "enter()": {
        "details": "Adds address to drawingEntries, increments entriesCount, and increases pot for each eligible token, while marking each token redeemed."
      },
      "owner()": {
        "details": "Returns the address of the current owner."
      },
      "promotionOpen()": {
        "details": "@return bool Whether promotion is open for entries."
      },
      "redeem()": {
        "details": "calls checkEligibility and sets all eligibleTokens as redeemed. Then transfers caller rebateAmount."
      },
      "renounceOwnership()": {
        "details": "Leaves the contract without owner. It will not be possible to call `onlyOwner` functions anymore. Can only be called by the current owner.     * NOTE: Renouncing ownership will leave the contract without an owner, thereby removing any functionality that is only available to the owner."
      },
      "setCurrentRebate()": {
        "details": "calls CryptOrchids.currentPrice and finds difference with MINT_FLOOR to return rebate."
      },
      "tokenRebate(uint256)": {
        "details": "Copies currentPrice and returns rebate amount for tokenId"
      },
      "transferOwnership(address)": {
        "details": "Transfers ownership of the contract to a new account (`newOwner`). Can only be called by the current owner."
      },
      "withdrawUnclaimed()": {
        "details": "Transfer remaining balance to owner if after promotionEnd.     "
      }
    }
  },
  "userdoc": {
    "methods": {
      "addressEntriesCount()": {
        "notice": "Current amount availble for refund or to be staked in raffle."
      },
      "checkEligibility()": {
        "notice": "Check rebate value and eligible tokens. Tokens are valid if they are planted after this contract is deployed, alive, and not yet redeemed."
      },
      "drawingEntriesCount()": {
        "notice": "Current amount availble for refund or to be staked in raffle."
      },
      "enter()": {
        "notice": "Redeem tokens for entries in drawing."
      },
      "promotionOpen()": {
        "notice": "Public function for whether the promotion is open. The promotion is only open if the contract balance is greater than the currentRebate. Displayed on CryptOrchids nursery for transparency."
      },
      "rebatesAvailable()": {
        "notice": "Current count of rebates available as determined by safeBalance and currentRebate"
      },
      "redeem()": {
        "notice": "Claim ETH for valid tokens. Check for valid tokens before claming."
      },
      "reset(uint256)": {
        "notice": "Owner may reset the promotion to run again.     "
      },
      "setCurrentRebate()": {
        "notice": "Current rebate amount for new, mintable token. Based on CryptOrchids current price, the ramping rebate is intended to address the regrettable FOMO ramp pricing. Starts at 0.02ETH, and increases with inverse correlation to price ramp to offer effectively straight 0.04 ETH for seeds."
      },
      "tokenRebate(uint256)": {
        "notice": "Redeemable rebate amount for existing token. Based on the price the token was sold at, this prevents a seed holder from redeeming a seed for more than it was purchased for."
      },
      "withdrawUnclaimed()": {
        "notice": "Withdraw ether from this contract once the promotion is over."
      },
      "withdrawWinner()": {
        "notice": "Winner may withdraw ether from the contract once the promotion is over.     "
      }
    }
  },
  "storageLayout": {
    "storage": [
      {
        "astId": 814,
        "contract": "contracts/Coupon/Coupon.sol:Coupon",
        "label": "_owner",
        "offset": 0,
        "slot": "0",
        "type": "t_address"
      },
      {
        "astId": 81,
        "contract": "contracts/Coupon/Coupon.sol:Coupon",
        "label": "nonces",
        "offset": 0,
        "slot": "1",
        "type": "t_mapping(t_bytes32,t_uint256)"
      },
      {
        "astId": 4893,
        "contract": "contracts/Coupon/Coupon.sol:Coupon",
        "label": "redemptions",
        "offset": 0,
        "slot": "2",
        "type": "t_mapping(t_uint256,t_bool)"
      },
      {
        "astId": 4901,
        "contract": "contracts/Coupon/Coupon.sol:Coupon",
        "label": "currentRebate",
        "offset": 0,
        "slot": "3",
        "type": "t_uint256"
      },
      {
        "astId": 4903,
        "contract": "contracts/Coupon/Coupon.sol:Coupon",
        "label": "promotionStart",
        "offset": 0,
        "slot": "4",
        "type": "t_uint256"
      },
      {
        "astId": 4905,
        "contract": "contracts/Coupon/Coupon.sol:Coupon",
        "label": "promotionEnd",
        "offset": 0,
        "slot": "5",
        "type": "t_uint256"
      },
      {
        "astId": 4907,
        "contract": "contracts/Coupon/Coupon.sol:Coupon",
        "label": "cryptorchidsERC721",
        "offset": 0,
        "slot": "6",
        "type": "t_address"
      },
      {
        "astId": 4909,
        "contract": "contracts/Coupon/Coupon.sol:Coupon",
        "label": "pot",
        "offset": 0,
        "slot": "7",
        "type": "t_uint256"
      },
      {
        "astId": 4912,
        "contract": "contracts/Coupon/Coupon.sol:Coupon",
        "label": "drawingEntries",
        "offset": 0,
        "slot": "8",
        "type": "t_array(t_address)dyn_storage"
      },
      {
        "astId": 4914,
        "contract": "contracts/Coupon/Coupon.sol:Coupon",
        "label": "randomWinnerRequestId",
        "offset": 0,
        "slot": "9",
        "type": "t_bytes32"
      },
      {
        "astId": 4916,
        "contract": "contracts/Coupon/Coupon.sol:Coupon",
        "label": "winnerRequested",
        "offset": 0,
        "slot": "10",
        "type": "t_bool"
      },
      {
        "astId": 4918,
        "contract": "contracts/Coupon/Coupon.sol:Coupon",
        "label": "winner",
        "offset": 1,
        "slot": "10",
        "type": "t_address"
      },
      {
        "astId": 4920,
        "contract": "contracts/Coupon/Coupon.sol:Coupon",
        "label": "keyHash",
        "offset": 0,
        "slot": "11",
        "type": "t_bytes32"
      },
      {
        "astId": 4922,
        "contract": "contracts/Coupon/Coupon.sol:Coupon",
        "label": "vrfFee",
        "offset": 0,
        "slot": "12",
        "type": "t_uint256"
      },
      {
        "astId": 4924,
        "contract": "contracts/Coupon/Coupon.sol:Coupon",
        "label": "VRFCoordinator",
        "offset": 0,
        "slot": "13",
        "type": "t_address"
      },
      {
        "astId": 4926,
        "contract": "contracts/Coupon/Coupon.sol:Coupon",
        "label": "LinkToken",
        "offset": 0,
        "slot": "14",
        "type": "t_address"
      }
    ],
    "types": {
      "t_address": {
        "encoding": "inplace",
        "label": "address",
        "numberOfBytes": "20"
      },
      "t_array(t_address)dyn_storage": {
        "base": "t_address",
        "encoding": "dynamic_array",
        "label": "address[]",
        "numberOfBytes": "32"
      },
      "t_bool": {
        "encoding": "inplace",
        "label": "bool",
        "numberOfBytes": "1"
      },
      "t_bytes32": {
        "encoding": "inplace",
        "label": "bytes32",
        "numberOfBytes": "32"
      },
      "t_mapping(t_bytes32,t_uint256)": {
        "encoding": "mapping",
        "key": "t_bytes32",
        "label": "mapping(bytes32 => uint256)",
        "numberOfBytes": "32",
        "value": "t_uint256"
      },
      "t_mapping(t_uint256,t_bool)": {
        "encoding": "mapping",
        "key": "t_uint256",
        "label": "mapping(uint256 => bool)",
        "numberOfBytes": "32",
        "value": "t_bool"
      },
      "t_uint256": {
        "encoding": "inplace",
        "label": "uint256",
        "numberOfBytes": "32"
      }
    }
  }
}