{
  "address": "0x941ee2e831d278DB802A541d3855A8de749ef635",
  "abi": [
    {
      "inputs": [
        {
          "internalType": "address",
          "name": "_VRFCoordinator",
          "type": "address"
        },
        {
          "internalType": "address",
          "name": "_LinkToken",
          "type": "address"
        },
        {
          "internalType": "bytes32",
          "name": "_keyhash",
          "type": "bytes32"
        }
      ],
      "stateMutability": "payable",
      "type": "constructor"
    },
    {
      "anonymous": false,
      "inputs": [
        {
          "indexed": true,
          "internalType": "address",
          "name": "owner",
          "type": "address"
        },
        {
          "indexed": true,
          "internalType": "address",
          "name": "approved",
          "type": "address"
        },
        {
          "indexed": true,
          "internalType": "uint256",
          "name": "tokenId",
          "type": "uint256"
        }
      ],
      "name": "Approval",
      "type": "event"
    },
    {
      "anonymous": false,
      "inputs": [
        {
          "indexed": true,
          "internalType": "address",
          "name": "owner",
          "type": "address"
        },
        {
          "indexed": true,
          "internalType": "address",
          "name": "operator",
          "type": "address"
        },
        {
          "indexed": false,
          "internalType": "bool",
          "name": "approved",
          "type": "bool"
        }
      ],
      "name": "ApprovalForAll",
      "type": "event"
    },
    {
      "anonymous": false,
      "inputs": [
        {
          "indexed": false,
          "internalType": "uint256",
          "name": "tokenId",
          "type": "uint256"
        }
      ],
      "name": "Killed",
      "type": "event"
    },
    {
      "anonymous": false,
      "inputs": [
        {
          "indexed": true,
          "internalType": "address",
          "name": "previousOwner",
          "type": "address"
        },
        {
          "indexed": true,
          "internalType": "address",
          "name": "newOwner",
          "type": "address"
        }
      ],
      "name": "OwnershipTransferred",
      "type": "event"
    },
    {
      "anonymous": false,
      "inputs": [
        {
          "indexed": false,
          "internalType": "address",
          "name": "account",
          "type": "address"
        }
      ],
      "name": "Paused",
      "type": "event"
    },
    {
      "anonymous": false,
      "inputs": [
        {
          "indexed": false,
          "internalType": "uint256",
          "name": "tokenId",
          "type": "uint256"
        },
        {
          "indexed": false,
          "internalType": "string",
          "name": "latinSpecies",
          "type": "string"
        },
        {
          "indexed": false,
          "internalType": "uint256",
          "name": "timestamp",
          "type": "uint256"
        },
        {
          "indexed": false,
          "internalType": "address",
          "name": "tokenOwner",
          "type": "address"
        }
      ],
      "name": "Planted",
      "type": "event"
    },
    {
      "anonymous": false,
      "inputs": [
        {
          "indexed": false,
          "internalType": "bytes32",
          "name": "requestId",
          "type": "bytes32"
        }
      ],
      "name": "RequestedRandomness",
      "type": "event"
    },
    {
      "anonymous": false,
      "inputs": [
        {
          "indexed": true,
          "internalType": "bytes32",
          "name": "role",
          "type": "bytes32"
        },
        {
          "indexed": true,
          "internalType": "bytes32",
          "name": "previousAdminRole",
          "type": "bytes32"
        },
        {
          "indexed": true,
          "internalType": "bytes32",
          "name": "newAdminRole",
          "type": "bytes32"
        }
      ],
      "name": "RoleAdminChanged",
      "type": "event"
    },
    {
      "anonymous": false,
      "inputs": [
        {
          "indexed": true,
          "internalType": "bytes32",
          "name": "role",
          "type": "bytes32"
        },
        {
          "indexed": true,
          "internalType": "address",
          "name": "account",
          "type": "address"
        },
        {
          "indexed": true,
          "internalType": "address",
          "name": "sender",
          "type": "address"
        }
      ],
      "name": "RoleGranted",
      "type": "event"
    },
    {
      "anonymous": false,
      "inputs": [
        {
          "indexed": true,
          "internalType": "bytes32",
          "name": "role",
          "type": "bytes32"
        },
        {
          "indexed": true,
          "internalType": "address",
          "name": "account",
          "type": "address"
        },
        {
          "indexed": true,
          "internalType": "address",
          "name": "sender",
          "type": "address"
        }
      ],
      "name": "RoleRevoked",
      "type": "event"
    },
    {
      "anonymous": false,
      "inputs": [
        {
          "indexed": true,
          "internalType": "address",
          "name": "from",
          "type": "address"
        },
        {
          "indexed": true,
          "internalType": "address",
          "name": "to",
          "type": "address"
        },
        {
          "indexed": true,
          "internalType": "uint256",
          "name": "tokenId",
          "type": "uint256"
        }
      ],
      "name": "Transfer",
      "type": "event"
    },
    {
      "anonymous": false,
      "inputs": [
        {
          "indexed": false,
          "internalType": "address",
          "name": "account",
          "type": "address"
        }
      ],
      "name": "Unpaused",
      "type": "event"
    },
    {
      "anonymous": false,
      "inputs": [
        {
          "indexed": false,
          "internalType": "uint256",
          "name": "tokenId",
          "type": "uint256"
        },
        {
          "indexed": false,
          "internalType": "uint256",
          "name": "waterLevel",
          "type": "uint256"
        }
      ],
      "name": "Watered",
      "type": "event"
    },
    {
      "inputs": [],
      "name": "DEFAULT_ADMIN_ROLE",
      "outputs": [
        {
          "internalType": "bytes32",
          "name": "",
          "type": "bytes32"
        }
      ],
      "stateMutability": "view",
      "type": "function"
    },
    {
      "inputs": [],
      "name": "GROWTH_CYCLE",
      "outputs": [
        {
          "internalType": "uint256",
          "name": "",
          "type": "uint256"
        }
      ],
      "stateMutability": "view",
      "type": "function"
    },
    {
      "inputs": [],
      "name": "LinkToken",
      "outputs": [
        {
          "internalType": "address",
          "name": "",
          "type": "address"
        }
      ],
      "stateMutability": "view",
      "type": "function"
    },
    {
      "inputs": [],
      "name": "MAX_CRYPTORCHIDS",
      "outputs": [
        {
          "internalType": "uint256",
          "name": "",
          "type": "uint256"
        }
      ],
      "stateMutability": "view",
      "type": "function"
    },
    {
      "inputs": [],
      "name": "MINTER_ROLE",
      "outputs": [
        {
          "internalType": "bytes32",
          "name": "",
          "type": "bytes32"
        }
      ],
      "stateMutability": "view",
      "type": "function"
    },
    {
      "inputs": [],
      "name": "PAUSER_ROLE",
      "outputs": [
        {
          "internalType": "bytes32",
          "name": "",
          "type": "bytes32"
        }
      ],
      "stateMutability": "view",
      "type": "function"
    },
    {
      "inputs": [],
      "name": "VRFCoordinator",
      "outputs": [
        {
          "internalType": "address",
          "name": "",
          "type": "address"
        }
      ],
      "stateMutability": "view",
      "type": "function"
    },
    {
      "inputs": [],
      "name": "WATERING_WINDOW",
      "outputs": [
        {
          "internalType": "uint256",
          "name": "",
          "type": "uint256"
        }
      ],
      "stateMutability": "view",
      "type": "function"
    },
    {
      "inputs": [
        {
          "internalType": "uint256",
          "name": "tokenId",
          "type": "uint256"
        }
      ],
      "name": "alive",
      "outputs": [
        {
          "internalType": "bool",
          "name": "",
          "type": "bool"
        }
      ],
      "stateMutability": "view",
      "type": "function"
    },
    {
      "inputs": [
        {
          "internalType": "address",
          "name": "to",
          "type": "address"
        },
        {
          "internalType": "uint256",
          "name": "tokenId",
          "type": "uint256"
        }
      ],
      "name": "approve",
      "outputs": [],
      "stateMutability": "nonpayable",
      "type": "function"
    },
    {
      "inputs": [
        {
          "internalType": "address",
          "name": "owner",
          "type": "address"
        }
      ],
      "name": "balanceOf",
      "outputs": [
        {
          "internalType": "uint256",
          "name": "",
          "type": "uint256"
        }
      ],
      "stateMutability": "view",
      "type": "function"
    },
    {
      "inputs": [],
      "name": "baseURI",
      "outputs": [
        {
          "internalType": "string",
          "name": "",
          "type": "string"
        }
      ],
      "stateMutability": "view",
      "type": "function"
    },
    {
      "inputs": [
        {
          "internalType": "uint256",
          "name": "tokenId",
          "type": "uint256"
        }
      ],
      "name": "burn",
      "outputs": [],
      "stateMutability": "nonpayable",
      "type": "function"
    },
    {
      "inputs": [
        {
          "internalType": "uint256",
          "name": "tokenId",
          "type": "uint256"
        }
      ],
      "name": "compost",
      "outputs": [],
      "stateMutability": "nonpayable",
      "type": "function"
    },
    {
      "inputs": [
        {
          "internalType": "uint256",
          "name": "",
          "type": "uint256"
        }
      ],
      "name": "cryptorchids",
      "outputs": [
        {
          "internalType": "string",
          "name": "species",
          "type": "string"
        },
        {
          "internalType": "uint256",
          "name": "plantedAt",
          "type": "uint256"
        },
        {
          "internalType": "uint256",
          "name": "waterLevel",
          "type": "uint256"
        }
      ],
      "stateMutability": "view",
      "type": "function"
    },
    {
      "inputs": [],
      "name": "currentPrice",
      "outputs": [
        {
          "internalType": "uint256",
          "name": "price",
          "type": "uint256"
        }
      ],
      "stateMutability": "view",
      "type": "function"
    },
    {
      "inputs": [
        {
          "internalType": "uint256",
          "name": "tokenId",
          "type": "uint256"
        }
      ],
      "name": "flowering",
      "outputs": [
        {
          "internalType": "bool",
          "name": "",
          "type": "bool"
        }
      ],
      "stateMutability": "view",
      "type": "function"
    },
    {
      "inputs": [
        {
          "internalType": "uint256",
          "name": "tokenId",
          "type": "uint256"
        },
        {
          "internalType": "uint256",
          "name": "userProvidedSeed",
          "type": "uint256"
        }
      ],
      "name": "germinate",
      "outputs": [],
      "stateMutability": "nonpayable",
      "type": "function"
    },
    {
      "inputs": [
        {
          "internalType": "uint256",
          "name": "tokenId",
          "type": "uint256"
        }
      ],
      "name": "getApproved",
      "outputs": [
        {
          "internalType": "address",
          "name": "",
          "type": "address"
        }
      ],
      "stateMutability": "view",
      "type": "function"
    },
    {
      "inputs": [
        {
          "internalType": "bytes32",
          "name": "role",
          "type": "bytes32"
        }
      ],
      "name": "getRoleAdmin",
      "outputs": [
        {
          "internalType": "bytes32",
          "name": "",
          "type": "bytes32"
        }
      ],
      "stateMutability": "view",
      "type": "function"
    },
    {
      "inputs": [
        {
          "internalType": "bytes32",
          "name": "role",
          "type": "bytes32"
        },
        {
          "internalType": "uint256",
          "name": "index",
          "type": "uint256"
        }
      ],
      "name": "getRoleMember",
      "outputs": [
        {
          "internalType": "address",
          "name": "",
          "type": "address"
        }
      ],
      "stateMutability": "view",
      "type": "function"
    },
    {
      "inputs": [
        {
          "internalType": "bytes32",
          "name": "role",
          "type": "bytes32"
        }
      ],
      "name": "getRoleMemberCount",
      "outputs": [
        {
          "internalType": "uint256",
          "name": "",
          "type": "uint256"
        }
      ],
      "stateMutability": "view",
      "type": "function"
    },
    {
      "inputs": [
        {
          "internalType": "uint256",
          "name": "tokenId",
          "type": "uint256"
        }
      ],
      "name": "getTokenMetadata",
      "outputs": [
        {
          "internalType": "string",
          "name": "",
          "type": "string"
        },
        {
          "internalType": "uint256",
          "name": "",
          "type": "uint256"
        },
        {
          "internalType": "uint256",
          "name": "",
          "type": "uint256"
        },
        {
          "internalType": "enum CryptOrchidERC721.Stage",
          "name": "",
          "type": "uint8"
        }
      ],
      "stateMutability": "view",
      "type": "function"
    },
    {
      "inputs": [
        {
          "internalType": "bytes32",
          "name": "role",
          "type": "bytes32"
        },
        {
          "internalType": "address",
          "name": "account",
          "type": "address"
        }
      ],
      "name": "grantRole",
      "outputs": [],
      "stateMutability": "nonpayable",
      "type": "function"
    },
    {
      "inputs": [
        {
          "internalType": "uint256",
          "name": "tokenId",
          "type": "uint256"
        }
      ],
      "name": "growthStage",
      "outputs": [
        {
          "internalType": "enum CryptOrchidERC721.Stage",
          "name": "",
          "type": "uint8"
        }
      ],
      "stateMutability": "view",
      "type": "function"
    },
    {
      "inputs": [
        {
          "internalType": "bytes32",
          "name": "role",
          "type": "bytes32"
        },
        {
          "internalType": "address",
          "name": "account",
          "type": "address"
        }
      ],
      "name": "hasRole",
      "outputs": [
        {
          "internalType": "bool",
          "name": "",
          "type": "bool"
        }
      ],
      "stateMutability": "view",
      "type": "function"
    },
    {
      "inputs": [
        {
          "internalType": "uint256",
          "name": "tokenId",
          "type": "uint256"
        }
      ],
      "name": "heartbeat",
      "outputs": [],
      "stateMutability": "nonpayable",
      "type": "function"
    },
    {
      "inputs": [
        {
          "internalType": "address",
          "name": "owner",
          "type": "address"
        },
        {
          "internalType": "address",
          "name": "operator",
          "type": "address"
        }
      ],
      "name": "isApprovedForAll",
      "outputs": [
        {
          "internalType": "bool",
          "name": "",
          "type": "bool"
        }
      ],
      "stateMutability": "view",
      "type": "function"
    },
    {
      "inputs": [
        {
          "internalType": "address",
          "name": "to",
          "type": "address"
        }
      ],
      "name": "mint",
      "outputs": [],
      "stateMutability": "nonpayable",
      "type": "function"
    },
    {
      "inputs": [],
      "name": "name",
      "outputs": [
        {
          "internalType": "string",
          "name": "",
          "type": "string"
        }
      ],
      "stateMutability": "view",
      "type": "function"
    },
    {
      "inputs": [],
      "name": "owner",
      "outputs": [
        {
          "internalType": "address",
          "name": "",
          "type": "address"
        }
      ],
      "stateMutability": "view",
      "type": "function"
    },
    {
      "inputs": [
        {
          "internalType": "uint256",
          "name": "tokenId",
          "type": "uint256"
        }
      ],
      "name": "ownerOf",
      "outputs": [
        {
          "internalType": "address",
          "name": "",
          "type": "address"
        }
      ],
      "stateMutability": "view",
      "type": "function"
    },
    {
      "inputs": [],
      "name": "pause",
      "outputs": [],
      "stateMutability": "nonpayable",
      "type": "function"
    },
    {
      "inputs": [],
      "name": "paused",
      "outputs": [
        {
          "internalType": "bool",
          "name": "",
          "type": "bool"
        }
      ],
      "stateMutability": "view",
      "type": "function"
    },
    {
      "inputs": [],
      "name": "randomResult",
      "outputs": [
        {
          "internalType": "uint256",
          "name": "",
          "type": "uint256"
        }
      ],
      "stateMutability": "view",
      "type": "function"
    },
    {
      "inputs": [
        {
          "internalType": "bytes32",
          "name": "requestId",
          "type": "bytes32"
        },
        {
          "internalType": "uint256",
          "name": "randomness",
          "type": "uint256"
        }
      ],
      "name": "rawFulfillRandomness",
      "outputs": [],
      "stateMutability": "nonpayable",
      "type": "function"
    },
    {
      "inputs": [],
      "name": "renounceOwnership",
      "outputs": [],
      "stateMutability": "nonpayable",
      "type": "function"
    },
    {
      "inputs": [
        {
          "internalType": "bytes32",
          "name": "role",
          "type": "bytes32"
        },
        {
          "internalType": "address",
          "name": "account",
          "type": "address"
        }
      ],
      "name": "renounceRole",
      "outputs": [],
      "stateMutability": "nonpayable",
      "type": "function"
    },
    {
      "inputs": [
        {
          "internalType": "bytes32",
          "name": "",
          "type": "bytes32"
        }
      ],
      "name": "requestToToken",
      "outputs": [
        {
          "internalType": "uint256",
          "name": "",
          "type": "uint256"
        }
      ],
      "stateMutability": "view",
      "type": "function"
    },
    {
      "inputs": [
        {
          "internalType": "bytes32",
          "name": "role",
          "type": "bytes32"
        },
        {
          "internalType": "address",
          "name": "account",
          "type": "address"
        }
      ],
      "name": "revokeRole",
      "outputs": [],
      "stateMutability": "nonpayable",
      "type": "function"
    },
    {
      "inputs": [
        {
          "internalType": "address",
          "name": "from",
          "type": "address"
        },
        {
          "internalType": "address",
          "name": "to",
          "type": "address"
        },
        {
          "internalType": "uint256",
          "name": "tokenId",
          "type": "uint256"
        }
      ],
      "name": "safeTransferFrom",
      "outputs": [],
      "stateMutability": "nonpayable",
      "type": "function"
    },
    {
      "inputs": [
        {
          "internalType": "address",
          "name": "from",
          "type": "address"
        },
        {
          "internalType": "address",
          "name": "to",
          "type": "address"
        },
        {
          "internalType": "uint256",
          "name": "tokenId",
          "type": "uint256"
        },
        {
          "internalType": "bytes",
          "name": "_data",
          "type": "bytes"
        }
      ],
      "name": "safeTransferFrom",
      "outputs": [],
      "stateMutability": "nonpayable",
      "type": "function"
    },
    {
      "inputs": [
        {
          "internalType": "address",
          "name": "operator",
          "type": "address"
        },
        {
          "internalType": "bool",
          "name": "approved",
          "type": "bool"
        }
      ],
      "name": "setApprovalForAll",
      "outputs": [],
      "stateMutability": "nonpayable",
      "type": "function"
    },
    {
      "inputs": [],
      "name": "startGrowing",
      "outputs": [],
      "stateMutability": "nonpayable",
      "type": "function"
    },
    {
      "inputs": [],
      "name": "startSale",
      "outputs": [],
      "stateMutability": "nonpayable",
      "type": "function"
    },
    {
      "inputs": [
        {
          "internalType": "bytes4",
          "name": "interfaceId",
          "type": "bytes4"
        }
      ],
      "name": "supportsInterface",
      "outputs": [
        {
          "internalType": "bool",
          "name": "",
          "type": "bool"
        }
      ],
      "stateMutability": "view",
      "type": "function"
    },
    {
      "inputs": [],
      "name": "symbol",
      "outputs": [
        {
          "internalType": "string",
          "name": "",
          "type": "string"
        }
      ],
      "stateMutability": "view",
      "type": "function"
    },
    {
      "inputs": [
        {
          "internalType": "uint256",
          "name": "index",
          "type": "uint256"
        }
      ],
      "name": "tokenByIndex",
      "outputs": [
        {
          "internalType": "uint256",
          "name": "",
          "type": "uint256"
        }
      ],
      "stateMutability": "view",
      "type": "function"
    },
    {
      "inputs": [
        {
          "internalType": "address",
          "name": "owner",
          "type": "address"
        },
        {
          "internalType": "uint256",
          "name": "index",
          "type": "uint256"
        }
      ],
      "name": "tokenOfOwnerByIndex",
      "outputs": [
        {
          "internalType": "uint256",
          "name": "",
          "type": "uint256"
        }
      ],
      "stateMutability": "view",
      "type": "function"
    },
    {
      "inputs": [
        {
          "internalType": "uint256",
          "name": "tokenId",
          "type": "uint256"
        }
      ],
      "name": "tokenURI",
      "outputs": [
        {
          "internalType": "string",
          "name": "",
          "type": "string"
        }
      ],
      "stateMutability": "view",
      "type": "function"
    },
    {
      "inputs": [],
      "name": "totalSupply",
      "outputs": [
        {
          "internalType": "uint256",
          "name": "",
          "type": "uint256"
        }
      ],
      "stateMutability": "view",
      "type": "function"
    },
    {
      "inputs": [
        {
          "internalType": "address",
          "name": "from",
          "type": "address"
        },
        {
          "internalType": "address",
          "name": "to",
          "type": "address"
        },
        {
          "internalType": "uint256",
          "name": "tokenId",
          "type": "uint256"
        }
      ],
      "name": "transferFrom",
      "outputs": [],
      "stateMutability": "nonpayable",
      "type": "function"
    },
    {
      "inputs": [
        {
          "internalType": "address",
          "name": "newOwner",
          "type": "address"
        }
      ],
      "name": "transferOwnership",
      "outputs": [],
      "stateMutability": "nonpayable",
      "type": "function"
    },
    {
      "inputs": [],
      "name": "unpause",
      "outputs": [],
      "stateMutability": "nonpayable",
      "type": "function"
    },
    {
      "inputs": [
        {
          "internalType": "uint256",
          "name": "tokenId",
          "type": "uint256"
        }
      ],
      "name": "water",
      "outputs": [],
      "stateMutability": "nonpayable",
      "type": "function"
    },
    {
      "inputs": [
        {
          "internalType": "uint256",
          "name": "units",
          "type": "uint256"
        }
      ],
      "name": "webMint",
      "outputs": [],
      "stateMutability": "payable",
      "type": "function"
    },
    {
      "inputs": [],
      "name": "withdraw",
      "outputs": [],
      "stateMutability": "nonpayable",
      "type": "function"
    },
    {
      "stateMutability": "payable",
      "type": "receive"
    }
  ],
  "transactionHash": "0x1975ae316dac503117235613ed6ecbbd5fb21b909a511b6a6f62b9eea937f0b6",
  "args": [
    "0xf0d54349aDdcf704F77AE15b96510dEA15cb7952",
    "0x514910771af9ca656af840dff83e8264ecf986ca",
    "0xAA77729D3466CA35AE8D28B3BBAC7CC36A5031EFDC430821C02BC31A238AF445"
  ],
  "solcInputHash": "010264ebfba8db117c2af4732cce7019",
  "bytecode": "0x6010805461ffff19169055610200604052600060c0908152610c0260e0526117ba61010052611f8a610120526123726101405261256661016052612660610180526126c46101a0526126f66101c05261270f6101e0526200006590601190600a62000ba8565b506040805161018081018252601761014082019081527f7368656e7a68656e696361206f72636869646163656165000000000000000000610160830152815281518083018352601881527f7068616c61656e6f70736973206d6963686f6c69747a69690000000000000000602082810191909152808301919091528251808401845260158082527f6775617269616e74686520617572616e74696163610000000000000000000000828401528385019190915283518085018552600e81526d76616e646120636f6572756c656160901b818401526060840152835180850185528181527f637970726970656469756d2063616c63656f6c7573000000000000000000000081840152608084015283518085018552601981527f70617068696f706564696c756d20766965746e616d656e7365000000000000008184015260a0840152835180850185526012808252716d696c746f6e6961206b61796173696d616560701b8285015260c085019190915284518086018652601381527f706c6174616e746865726120617a6f72696361000000000000000000000000008185015260e0850152845180860186529182527f64656e64726f7068796c6178206c696e64656e69690000000000000000000000828401526101008401919091528351808501909452601d84527f70617068696f706564696c756d20726f7468736368696c6469616e756d000000918401919091526101208201929092526200028d9190600a62000c45565b50604080516101c08101909152604b61014082018181528291620059d861016084013981526020016040518060800160405280604c81526020016200586e604c9139815260200160405180608001604052806049815260200162005afc60499139815260200160405180608001604052806042815260200162005a69604291398152602001604051806080016040528060498152602001620058256049913981526020016040518060800160405280604d815260200162005942604d9139815260200160405180608001604052806046815260200162005a2360469139815260200160405180608001604052806047815260200162005c7260479139815260200160405180608001604052806049815260200162005b926049913981526020016040518060800160405280605181526020016200578d605191399052620003d990601c90600a62000c45565b50604080516101c08101909152604b6101408201818152829162005c2761016084013981526020016040518060800160405280604c815260200162005bdb604c913981526020016040518060800160405280604981526020016200598f604991398152602001604051806080016040528060428152602001620058ba604291398152602001604051806080016040528060498152602001620056fb6049913981526020016040518060800160405280604d815260200162005b45604d91398152602001604051806080016040528060468152602001620058fc604691398152602001604051806080016040528060478152602001620057de6047913981526020016040518060800160405280604981526020016200574460499139815260200160405180608001604052806051815260200162005aab6051913990526200052590602690600a62000c45565b5060405162005cb938038062005cb9833981810160405260608110156200054b57600080fd5b50805160208083015160409384015184518086018652600c81526b43727970744f72636869647360a01b8185015285518087018752600581526413d490d21160da1b8186015286518088019097526007875266697066733a2f2f60c81b948701949094529394919390928592859291908282620005d86301ffc9a760e01b6001600160e01b03620009d216565b8151620005ed90600790602085019062000c98565b5080516200060390600890602084019062000c98565b506200061f6380ac58cd60e01b6001600160e01b03620009d216565b6200063a635b5e139f60e01b6001600160e01b03620009d216565b6200065563780e9d6360e01b6001600160e01b03620009d216565b5050600b805460ff191690556200068960006200067a6001600160e01b0362000a5a16565b6001600160e01b0362000a5f16565b604080516a4d494e5445525f524f4c4560a81b8152905190819003600b019020620006c1906200067a6001600160e01b0362000a5a16565b604080516a5041555345525f524f4c4560a81b8152905190819003600b019020620006f9906200067a6001600160e01b0362000a5a16565b6200070d816001600160e01b0362000a7816565b50505060006200072262000a5a60201b60201c565b600d80546001600160a01b0319166001600160a01b038316908117909155604051919250906000907f8be0079c531659141344cd1fd0a4f28419497f9722a3daafe3b4186f6b6457e0908290a3506001600160601b0319606092831b811660a052911b16608052603480546001600160a01b038581166001600160a01b03199283161790925560358054928516929091169190911790556031819055671bc16d674ec8000060325560005b600a811015620009c857601c81600a8110620007e557fe5b0160376000601284600a8110620007f857fe5b60408051602080820190815292909301805460026001821615610100026000190190911604918401829052928291606090910190849080156200087f5780601f1062000853576101008083540402835291602001916200087f565b820191906000526020600020905b8154815290600101906020018083116200086157829003601f168201915b5050925050506040516020818303038152906040528051906020012081526020019081526020016000209080546001816001161561010002031660029004620008ca92919062000d19565b50602681600a8110620008d957fe5b0160386000601284600a8110620008ec57fe5b6040805160208082019081529290930180546002600182161561010002600019019091160491840182905292829160609091019084908015620009735780601f10620009475761010080835404028352916020019162000973565b820191906000526020600020905b8154815290600101906020018083116200095557829003601f168201915b5050925050506040516020818303038152906040528051906020012081526020019081526020016000209080546001816001161561010002031660029004620009be92919062000d19565b50600101620007cd565b5050505062000e45565b6001600160e01b0319808216141562000a32576040805162461bcd60e51b815260206004820152601c60248201527f4552433136353a20696e76616c696420696e7465726661636520696400000000604482015290519081900360640190fd5b6001600160e01b0319166000908152600160208190526040909120805460ff19169091179055565b335b90565b62000a7482826001600160e01b0362000a8d16565b5050565b805162000a7490600a90602084019062000c98565b60008281526020818152604090912062000ab29183906200360362000b0f821b17901c565b1562000a745762000acb6001600160e01b0362000a5a16565b6001600160a01b0316816001600160a01b0316837f2f8788117e7eff1d82e926ec794901d17c78024a50270940304540a733656f0d60405160405180910390a45050565b600062000b2f836001600160a01b0384166001600160e01b0362000b3816565b90505b92915050565b600062000b4f83836001600160e01b0362000b9016565b62000b875750815460018181018455600084815260208082209093018490558454848252828601909352604090209190915562000b32565b50600062000b32565b60009081526001919091016020526040902054151590565b60018301918390821562000c335791602002820160005b8382111562000c0157835183826101000a81548161ffff021916908361ffff160217905550926020019260020160208160010104928301926001030262000bbf565b801562000c315782816101000a81549061ffff021916905560020160208160010104928301926001030262000c01565b505b5062000c4192915062000d93565b5090565b82600a810192821562000c8a579160200282015b8281111562000c8a578251805162000c7991849160209091019062000c98565b509160200191906001019062000c59565b5062000c4192915062000db5565b828054600181600116156101000203166002900490600052602060002090601f016020900481019282601f1062000cdb57805160ff191683800117855562000d0b565b8280016001018555821562000d0b579182015b8281111562000d0b57825182559160200191906001019062000cee565b5062000c4192915062000ddd565b828054600181600116156101000203166002900490600052602060002090601f016020900481019282601f1062000d54578054855562000d0b565b8280016001018555821562000d0b57600052602060002091601f016020900482015b8281111562000d0b57825482559160010191906001019062000d76565b62000a5c91905b8082111562000c4157805461ffff1916815560010162000d9a565b62000a5c91905b8082111562000c4157600062000dd3828262000dfa565b5060010162000dbc565b62000a5c91905b8082111562000c41576000815560010162000de4565b50805460018160011615610100020316600290046000825580601f1062000e22575062000e42565b601f01602090049060005260206000209081019062000e42919062000ddd565b50565b60805160601c60a05160601c61488262000e79600039806119ed528061381552508061306352806137e652506148826000f3fe60806040526004361061037a5760003560e01c80636b0c004d116101d1578063a217fddf11610102578063ca15c873116100a0578063e63ab1e91161006f578063e63ab1e914610e11578063e985e9c514610e26578063f2fde38b14610e61578063ffee200c14610e9457610381565b8063ca15c87314610ce9578063cac21c8f14610d13578063d539139314610dc3578063d547741f14610dd857610381565b8063b66a0e5d116100dc578063b66a0e5d14610b89578063b7aaba2014610b9e578063b88d4fde14610bec578063c87b56dd14610cbf57610381565b8063a217fddf14610b0f578063a22cb46514610b24578063a7eec44b14610b5f57610381565b80638da5cb5b1161016f57806394985ddd1161014957806394985ddd14610a9857806395d89b4114610ac85780639981d4a114610add5780639d1b464a14610afa57610381565b80638da5cb5b14610a1a5780639010d07c14610a2f57806391d1485414610a5f57610381565b806370a08231116101ab57806370a082311461098d578063715018a6146109c05780637fd8d953146109d55780638456cb5914610a0557610381565b80636b0c004d146109395780636c0360eb1461094e5780636e029ad11461096357610381565b806336568abe116102ab5780634f8e2fdf1161024957806362ff09d61161022357806362ff09d6146108885780636352211e146108b25780636573c787146108dc5780636a6278421461090657610381565b80634f8e2fdf146107995780635c975abb146107ae57806360316801146107c357610381565b806342619f661161028557806342619f66146106ed57806342842e0e1461070257806342966c68146107455780634f6ccce71461076f57610381565b806336568abe1461068a5780633ccfd60b146106c35780633f4ba83a146106d857610381565b8063182199cd11610318578063277dec92116102f2578063277dec92146105ee5780632f2ff15d146106035780632f745c591461063c57806333b608631461067557610381565b8063182199cd1461055757806323b872dd14610581578063248a9ca3146105c457610381565b8063095ea7b311610354578063095ea7b3146104b65780631424494d146104f1578063179f0b0a1461051b57806318160ddd1461054257610381565b806301ffc9a71461038657806306fdde03146103e6578063081812fc1461047057610381565b3661038157005b600080fd5b34801561039257600080fd5b506103d2600480360360208110156103a957600080fd5b50357fffffffff0000000000000000000000000000000000000000000000000000000016610ea9565b604080519115158252519081900360200190f35b3480156103f257600080fd5b506103fb610ee4565b6040805160208082528351818301528351919283929083019185019080838360005b8381101561043557818101518382015260200161041d565b50505050905090810190601f1680156104625780820380516001836020036101000a031916815260200191505b509250505060405180910390f35b34801561047c57600080fd5b5061049a6004803603602081101561049357600080fd5b5035610f7b565b604080516001600160a01b039092168252519081900360200190f35b3480156104c257600080fd5b506104ef600480360360408110156104d957600080fd5b506001600160a01b038135169060200135610fdd565b005b3480156104fd57600080fd5b506104ef6004803603602081101561051457600080fd5b50356110b8565b34801561052757600080fd5b50610530611110565b60408051918252519081900360200190f35b34801561054e57600080fd5b50610530611117565b34801561056357600080fd5b506103d26004803603602081101561057a57600080fd5b5035611128565b34801561058d57600080fd5b506104ef600480360360608110156105a457600080fd5b506001600160a01b03813581169160208101359091169060400135611147565b3480156105d057600080fd5b50610530600480360360208110156105e757600080fd5b5035611198565b3480156105fa57600080fd5b506104ef6111ad565b34801561060f57600080fd5b506104ef6004803603604081101561062657600080fd5b50803590602001356001600160a01b0316611232565b34801561064857600080fd5b506105306004803603604081101561065f57600080fd5b506001600160a01b03813516906020013561129e565b34801561068157600080fd5b5061049a6112cf565b34801561069657600080fd5b506104ef600480360360408110156106ad57600080fd5b50803590602001356001600160a01b03166112de565b3480156106cf57600080fd5b506104ef61133f565b3480156106e457600080fd5b506104ef6113e2565b3480156106f957600080fd5b50610530611453565b34801561070e57600080fd5b506104ef6004803603606081101561072557600080fd5b506001600160a01b03813581169160208101359091169060400135611459565b34801561075157600080fd5b506104ef6004803603602081101561076857600080fd5b5035611474565b34801561077b57600080fd5b506105306004803603602081101561079257600080fd5b50356114c3565b3480156107a557600080fd5b5061049a6114df565b3480156107ba57600080fd5b506103d26114ee565b3480156107cf57600080fd5b506107ed600480360360208110156107e657600080fd5b50356114f7565b604051808060200185815260200184815260200183600381111561080d57fe5b60ff168152602001828103825286818151815260200191508051906020019080838360005b8381101561084a578181015183820152602001610832565b50505050905090810190601f1680156108775780820380516001836020036101000a031916815260200191505b509550505050505060405180910390f35b34801561089457600080fd5b50610530600480360360208110156108ab57600080fd5b50356115bc565b3480156108be57600080fd5b5061049a600480360360208110156108d557600080fd5b50356115ce565b3480156108e857600080fd5b506103d2600480360360208110156108ff57600080fd5b50356115fc565b34801561091257600080fd5b506104ef6004803603602081101561092957600080fd5b50356001600160a01b031661161c565b34801561094557600080fd5b506105306116a0565b34801561095a57600080fd5b506103fb6116a6565b34801561096f57600080fd5b506104ef6004803603602081101561098657600080fd5b5035611707565b34801561099957600080fd5b50610530600480360360208110156109b057600080fd5b50356001600160a01b0316611759565b3480156109cc57600080fd5b506104ef6117c1565b3480156109e157600080fd5b506104ef600480360360408110156109f857600080fd5b508035906020013561188c565b348015610a1157600080fd5b506104ef611928565b348015610a2657600080fd5b5061049a611997565b348015610a3b57600080fd5b5061049a60048036036040811015610a5257600080fd5b50803590602001356119a6565b348015610a6b57600080fd5b506103d260048036036040811015610a8257600080fd5b50803590602001356001600160a01b03166119c4565b348015610aa457600080fd5b506104ef60048036036040811015610abb57600080fd5b50803590602001356119e2565b348015610ad457600080fd5b506103fb611a69565b6104ef60048036036020811015610af357600080fd5b5035611aca565b348015610b0657600080fd5b50610530611d9e565b348015610b1b57600080fd5b50610530611e5a565b348015610b3057600080fd5b506104ef60048036036040811015610b4757600080fd5b506001600160a01b0381351690602001351515611e5f565b348015610b6b57600080fd5b506104ef60048036036020811015610b8257600080fd5b5035611f64565b348015610b9557600080fd5b506104ef6120c5565b348015610baa57600080fd5b50610bc860048036036020811015610bc157600080fd5b5035612148565b60405180826003811115610bd857fe5b60ff16815260200191505060405180910390f35b348015610bf857600080fd5b506104ef60048036036080811015610c0f57600080fd5b6001600160a01b03823581169260208101359091169160408201359190810190608081016060820135640100000000811115610c4a57600080fd5b820183602082011115610c5c57600080fd5b80359060200191846001830284011164010000000083111715610c7e57600080fd5b91908080601f0160208091040260200160405190810160405280939291908181526020018383808284376000920191909152509295506122c8945050505050565b348015610ccb57600080fd5b506103fb60048036036020811015610ce257600080fd5b5035612320565b348015610cf557600080fd5b5061053060048036036020811015610d0c57600080fd5b503561271e565b348015610d1f57600080fd5b50610d3d60048036036020811015610d3657600080fd5b5035612735565b6040518080602001848152602001838152602001828103825285818151815260200191508051906020019080838360005b83811015610d86578181015183820152602001610d6e565b50505050905090810190601f168015610db35780820380516001836020036101000a031916815260200191505b5094505050505060405180910390f35b348015610dcf57600080fd5b506105306127e2565b348015610de457600080fd5b506104ef60048036036040811015610dfb57600080fd5b50803590602001356001600160a01b0316612805565b348015610e1d57600080fd5b5061053061285e565b348015610e3257600080fd5b506103d260048036036040811015610e4957600080fd5b506001600160a01b0381358116916020013516612881565b348015610e6d57600080fd5b506104ef60048036036020811015610e8457600080fd5b50356001600160a01b03166128af565b348015610ea057600080fd5b506105306129d1565b7fffffffff00000000000000000000000000000000000000000000000000000000811660009081526001602052604090205460ff165b919050565b60078054604080516020601f6002600019610100600188161502019095169490940493840181900481028201810190925282815260609390929091830182828015610f705780601f10610f4557610100808354040283529160200191610f70565b820191906000526020600020905b815481529060010190602001808311610f5357829003601f168201915b505050505090505b90565b6000610f86826129d7565b610fc15760405162461bcd60e51b815260040180806020018281038252602c81526020018061461f602c913960400191505060405180910390fd5b506000908152600560205260409020546001600160a01b031690565b6000610fe8826115ce565b9050806001600160a01b0316836001600160a01b0316141561103b5760405162461bcd60e51b81526004018080602001828103825260218152602001806146a46021913960400191505060405180910390fd5b806001600160a01b031661104d6129ea565b6001600160a01b0316148061106e575061106e816110696129ea565b612881565b6110a95760405162461bcd60e51b815260040180806020018281038252603881526020018061452e6038913960400191505060405180910390fd5b6110b383836129ee565b505050565b6110c96110c36129ea565b82612a69565b6111045760405162461bcd60e51b81526004018080602001828103825260298152602001806147486029913960400191505060405180910390fd5b61110d81611474565b50565b62093a8081565b60006111236003612b0d565b905090565b6000600261113583612148565b600381111561114057fe5b1492915050565b6111526110c36129ea565b61118d5760405162461bcd60e51b81526004018080602001828103825260318152602001806146ec6031913960400191505060405180910390fd5b6110b3838383612b18565b60009081526020819052604090206002015490565b6111b56129ea565b6001600160a01b03166111c6611997565b6001600160a01b031614611221576040805162461bcd60e51b815260206004820181905260248201527f4f776e61626c653a2063616c6c6572206973206e6f7420746865206f776e6572604482015290519081900360640190fd5b6010805461ff001916610100179055565b600082815260208190526040902060020154611255906112506129ea565b6119c4565b6112905760405162461bcd60e51b815260040180806020018281038252602f81526020018061431e602f913960400191505060405180910390fd5b61129a8282612c76565b5050565b6001600160a01b03821660009081526002602052604081206112c6908363ffffffff612ce516565b90505b92915050565b6034546001600160a01b031681565b6112e66129ea565b6001600160a01b0316816001600160a01b0316146113355760405162461bcd60e51b815260040180806020018281038252602f81526020018061481e602f913960400191505060405180910390fd5b61129a8282612cf1565b6113476129ea565b6001600160a01b0316611358611997565b6001600160a01b0316146113b3576040805162461bcd60e51b815260206004820181905260248201527f4f776e61626c653a2063616c6c6572206973206e6f7420746865206f776e6572604482015290519081900360640190fd5b6040514790339082156108fc029083906000818181858888f1935050505015801561129a573d6000803e3d6000fd5b604080516a5041555345525f524f4c4560a81b8152905190819003600b01902061140e906112506129ea565b6114495760405162461bcd60e51b81526004018080602001828103825260408152602001806147de6040913960400191505060405180910390fd5b611451612d60565b565b60335481565b6110b3838383604051806020016040528060008152506122c8565b61147f6110c36129ea565b6114ba5760405162461bcd60e51b81526004018080602001828103825260308152602001806147ae6030913960400191505060405180910390fd5b61110d81612e09565b6000806114d760038463ffffffff612ee216565b509392505050565b6035546001600160a01b031681565b600b5460ff1690565b6000818152600f6020526040812060018101546002820154606093928392839261152088612148565b8354604080516020601f600260001961010060018816150201909516949094049384018190048102820181019092528281529186918301828280156115a65780601f1061157b576101008083540402835291602001916115a6565b820191906000526020600020905b81548152906001019060200180831161158957829003601f168201915b5050505050935093509350935093509193509193565b60366020526000908152604090205481565b60006112c982604051806060016040528060298152602001614590602991396003919063ffffffff612efe16565b6000600361160983612148565b600381111561161457fe5b141592915050565b604080516a4d494e5445525f524f4c4560a81b8152905190819003600b019020611648906112506129ea565b6116835760405162461bcd60e51b815260040180806020018281038252603d815260200180614771603d913960400191505060405180910390fd5b61169681611691600c612f15565b612f19565b61110d600c613053565b61271081565b600a8054604080516020601f6002600019610100600188161502019095169490940493840181900481028201810190925282815260609390929091830182828015610f705780601f10610f4557610100808354040283529160200191610f70565b600361171282612148565b600381111561171d57fe5b141561110d576040805182815290517ff4a991ad9e7f9711696f7bd41529beb4c470d75788573535d4ca3f0857c79ce89181900360200190a150565b60006001600160a01b0382166117a05760405162461bcd60e51b815260040180806020018281038252602a815260200180614566602a913960400191505060405180910390fd5b6001600160a01b03821660009081526002602052604090206112c990612b0d565b6117c96129ea565b6001600160a01b03166117da611997565b6001600160a01b031614611835576040805162461bcd60e51b815260206004820181905260248201527f4f776e61626c653a2063616c6c6572206973206e6f7420746865206f776e6572604482015290519081900360640190fd5b600d546040516000916001600160a01b0316907f8be0079c531659141344cd1fd0a4f28419497f9722a3daafe3b4186f6b6457e0908390a3600d805473ffffffffffffffffffffffffffffffffffffffff19169055565b601054610100900460ff166118d25760405162461bcd60e51b81526004018080602001828103825260278152602001806143fc6027913960400191505060405180910390fd5b6118e36118dd6129ea565b83612a69565b61191e5760405162461bcd60e51b815260040180806020018281038252602b81526020018061471d602b913960400191505060405180910390fd5b6110b3828261305c565b604080516a5041555345525f524f4c4560a81b8152905190819003600b019020611954906112506129ea565b61198f5760405162461bcd60e51b815260040180806020018281038252603e815260200180614423603e913960400191505060405180910390fd5b61145161319d565b600d546001600160a01b031690565b60008281526020819052604081206112c6908363ffffffff612ce516565b60008281526020819052604081206112c6908363ffffffff61322d16565b336001600160a01b037f00000000000000000000000000000000000000000000000000000000000000001614611a5f576040805162461bcd60e51b815260206004820152601f60248201527f4f6e6c7920565246436f6f7264696e61746f722063616e2066756c66696c6c00604482015290519081900360640190fd5b61129a8282613242565b60088054604080516020601f6002600019610100600188161502019095169490940493840181900481028201810190925282815260609390929091830182828015610f705780601f10610f4557610100808354040283529160200191610f70565b60105460ff16611b21576040805162461bcd60e51b815260206004820152601560248201527f546865204e75727365727920697320636c6f7365640000000000000000000000604482015290519081900360640190fd5b611b29611117565b61271003811115611b81576040805162461bcd60e51b815260206004820152601560248201527f4e6f7420656e6f7567682062756c6273206c6566740000000000000000000000604482015290519081900360640190fd5b612710611b8c611117565b10611bde576040805162461bcd60e51b815260206004820152601660248201527f53616c652068617320616c726561647920656e64656400000000000000000000604482015290519081900360640190fd5b600081118015611bef575060148111155b611c2a5760405162461bcd60e51b81526004018080602001828103825260308152602001806146746030913960400191505060405180910390fd5b612710611c3e611c38611117565b83613377565b1115611c91576040805162461bcd60e51b815260206004820152601860248201527f45786365656473204d41585f43525950544f5243484944530000000000000000604482015290519081900360640190fd5b611ca2611c9c611d9e565b826133d1565b341015611ce05760405162461bcd60e51b81526004018080602001828103825260238152602001806145b96023913960400191505060405180910390fd5b60005b8181101561129a57611cf56030613053565b6000611d016030612f15565b6040805160a0810182526006606082019081527f6772616e756d0000000000000000000000000000000000000000000000000000608083015281526000196020808301919091526000828401819052848152600f8252929092208151805194955091939092611d749284929101906141db565b5060208201516001820155604090910151600290910155611d95338261342a565b50600101611ce3565b600080611da9611117565b90506126ac8110611dc557670de0b6b3a7640000915050610f78565b61251c8110611ddf576708e1bc9bf0400000915050610f78565b611d4c8110611df957670470de4df8200000915050610f78565b610dac8110611e13576702386f26fc100000915050610f78565b6105dc8110611e2d5767011c37937e080000915050610f78565b6101f48110611e465766d529ae9e860000915050610f78565b668e1bc9bf040000915050610f78565b5090565b600081565b611e676129ea565b6001600160a01b0316826001600160a01b03161415611ecd576040805162461bcd60e51b815260206004820152601960248201527f4552433732313a20617070726f766520746f2063616c6c657200000000000000604482015290519081900360640190fd5b8060066000611eda6129ea565b6001600160a01b03908116825260208083019390935260409182016000908120918716808252919093529120805460ff191692151592909217909155611f1e6129ea565b60408051841515815290516001600160a01b0392909216917f17307eab39ab6107e8899845ad3d59bd9653f200f220920489ca2b5937696c319181900360200190a35050565b611f6f6110c36129ea565b611faa5760405162461bcd60e51b81526004018080602001828103825260278152602001806144ab6027913960400191505060405180910390fd5b611fb3816115fc565b611fef576040805182815290517ff4a991ad9e7f9711696f7bd41529beb4c470d75788573535d4ca3f0857c79ce89181900360200190a161110d565b6000818152600f602052604081206002810154600182015491929091612013613444565b03905060006120258262093a80613448565b90508083111561206b576040805186815290517ff4a991ad9e7f9711696f7bd41529beb4c470d75788573535d4ca3f0857c79ce89181900360200190a15050505061110d565b6000612078846001613377565b60028601819055604080518881526020810183905281519293507f674d81537534435d24d5bc9f92955722ba22b136d98346a01ad4777f48b5581c929081900390910190a1505050505050565b6120cd6129ea565b6001600160a01b03166120de611997565b6001600160a01b031614612139576040805162461bcd60e51b815260206004820181905260248201527f4f776e61626c653a2063616c6c6572206973206e6f7420746865206f776e6572604482015290519081900360640190fd5b6010805460ff19166001179055565b6000612152614255565b6000838152600f60209081526040918290208251815460026001821615610100026000190190911604601f810184900490930281016080908101909452606081018381529093919284928491908401828280156121f05780601f106121c5576101008083540402835291602001916121f0565b820191906000526020600020905b8154815290600101906020018083116121d357829003601f168201915b50505050508152602001600182015481526020016002820154815250509050806020015160001415612226576000915050610edf565b6000198160200151141561223e576001915050610edf565b60408101516020820151600090612253613444565b03905060006122658262093a80613448565b905060006122768362093a806134b2565b90508184141561228e57600295505050505050610edf565b8161229a856001613377565b1480156122a85750612a3081105b156122bb57600295505050505050610edf565b5060039695505050505050565b6122d36118dd6129ea565b61230e5760405162461bcd60e51b81526004018080602001828103825260318152602001806146ec6031913960400191505060405180910390fd5b61231a84848484613517565b50505050565b60608061232c836114f7565b509192506001915061233b9050565b61234484612148565b600381111561234f57fe5b141561242d5761235d6116a6565b6040518060600160405280602e81526020016143ce602e91396040516020018083805190602001908083835b602083106123a85780518252601f199092019160209182019101612389565b51815160209384036101000a600019018019909216911617905285519190930192850191508083835b602083106123f05780518252601f1990920191602091820191016123d1565b6001836020036101000a03801982511681845116808217855250505050505090500192505050604051602081830303815290604052915050610edf565b600261243884612148565b600381111561244357fe5b14156125b4576124516116a6565b60376000836040516020018080602001828103825283818151815260200191508051906020019080838360005b8381101561249657818101518382015260200161247e565b50505050905090810190601f1680156124c35780820380516001836020036101000a031916815260200191505b50925050506040516020818303038152906040528051906020012081526020019081526020016000206040516020018083805190602001908083835b6020831061251e5780518252601f1990920191602091820191016124ff565b6001836020036101000a038019825116818451168082178552505050505050905001828054600181600116156101000203166002900480156125975780601f10612575576101008083540402835291820191612597565b820191906000526020600020905b815481529060010190602001808311612583575b505092505050604051602081830303815290604052915050610edf565b6125bc6116a6565b60386000836040516020018080602001828103825283818151815260200191508051906020019080838360005b838110156126015781810151838201526020016125e9565b50505050905090810190601f16801561262e5780820380516001836020036101000a031916815260200191505b50925050506040516020818303038152906040528051906020012081526020019081526020016000206040516020018083805190602001908083835b602083106126895780518252601f19909201916020918201910161266a565b6001836020036101000a038019825116818451168082178552505050505050905001828054600181600116156101000203166002900480156127025780601f106126e0576101008083540402835291820191612702565b820191906000526020600020905b8154815290600101906020018083116126ee575b505060408051601f198184030181529190529695505050505050565b60008181526020819052604081206112c990612b0d565b600f6020908152600091825260409182902080548351601f600260001961010060018616150201909316929092049182018490048402810184019094528084529092918391908301828280156127cc5780601f106127a1576101008083540402835291602001916127cc565b820191906000526020600020905b8154815290600101906020018083116127af57829003601f168201915b5050505050908060010154908060020154905083565b604080516a4d494e5445525f524f4c4560a81b8152905190819003600b01902081565b600082815260208190526040902060020154612823906112506129ea565b6113355760405162461bcd60e51b81526004018080602001828103825260308152602001806144fe6030913960400191505060405180910390fd5b604080516a5041555345525f524f4c4560a81b8152905190819003600b01902081565b6001600160a01b03918216600090815260066020908152604080832093909416825291909152205460ff1690565b6128b76129ea565b6001600160a01b03166128c8611997565b6001600160a01b031614612923576040805162461bcd60e51b815260206004820181905260248201527f4f776e61626c653a2063616c6c6572206973206e6f7420746865206f776e6572604482015290519081900360640190fd5b6001600160a01b0381166129685760405162461bcd60e51b81526004018080602001828103825260268152602001806143a86026913960400191505060405180910390fd5b600d546040516001600160a01b038084169216907f8be0079c531659141344cd1fd0a4f28419497f9722a3daafe3b4186f6b6457e090600090a3600d805473ffffffffffffffffffffffffffffffffffffffff19166001600160a01b0392909216919091179055565b612a3081565b60006112c960038363ffffffff61356916565b3390565b6000818152600560205260409020805473ffffffffffffffffffffffffffffffffffffffff19166001600160a01b0384169081179091558190612a30826115ce565b6001600160a01b03167f8c5be1e5ebec7d5bd14f71427d1e84f3dd0314c0f7b2291e5b200ac8c7c3b92560405160405180910390a45050565b6000612a74826129d7565b612aaf5760405162461bcd60e51b815260040180806020018281038252602c8152602001806144d2602c913960400191505060405180910390fd5b6000612aba836115ce565b9050806001600160a01b0316846001600160a01b03161480612af55750836001600160a01b0316612aea84610f7b565b6001600160a01b0316145b80612b055750612b058185612881565b949350505050565b60006112c982612f15565b826001600160a01b0316612b2b826115ce565b6001600160a01b031614612b705760405162461bcd60e51b815260040180806020018281038252602981526020018061464b6029913960400191505060405180910390fd5b6001600160a01b038216612bb55760405162461bcd60e51b81526004018080602001828103825260248152602001806144616024913960400191505060405180910390fd5b612bc0838383613575565b612bcb6000826129ee565b6001600160a01b0383166000908152600260205260409020612bf3908263ffffffff6135d516565b506001600160a01b0382166000908152600260205260409020612c1c908263ffffffff6135e116565b50612c2f6003828463ffffffff6135ed16565b5080826001600160a01b0316846001600160a01b03167fddf252ad1be2c89b69c2b068fc378daa952ba7f163c4a11628f55a4df523b3ef60405160405180910390a4505050565b6000828152602081905260409020612c94908263ffffffff61360316565b1561129a57612ca16129ea565b6001600160a01b0316816001600160a01b0316837f2f8788117e7eff1d82e926ec794901d17c78024a50270940304540a733656f0d60405160405180910390a45050565b60006112c68383613618565b6000828152602081905260409020612d0f908263ffffffff61367c16565b1561129a57612d1c6129ea565b6001600160a01b0316816001600160a01b0316837ff6391f5c32d9c69d2a47ea670b442974b53935d1edc7fd64eb21e047a839171b60405160405180910390a45050565b612d686114ee565b612db9576040805162461bcd60e51b815260206004820152601460248201527f5061757361626c653a206e6f7420706175736564000000000000000000000000604482015290519081900360640190fd5b600b805460ff191690557f5db9ee0a495bf2e6ff9c91a7834c1ba4fdd244a5e8aa4e537bd38aeae4b073aa612dec6129ea565b604080516001600160a01b039092168252519081900360200190a1565b6000612e14826115ce565b9050612e2281600084613575565b612e2d6000836129ee565b6000828152600960205260409020546002600019610100600184161502019091160415612e6b576000828152600960205260408120612e6b91614276565b6001600160a01b0381166000908152600260205260409020612e93908363ffffffff6135d516565b50612ea560038363ffffffff61369116565b5060405182906000906001600160a01b038416907fddf252ad1be2c89b69c2b068fc378daa952ba7f163c4a11628f55a4df523b3ef908390a45050565b6000808080612ef1868661369d565b9097909650945050505050565b6000612f0b848484613718565b90505b9392505050565b5490565b6001600160a01b038216612f74576040805162461bcd60e51b815260206004820181905260248201527f4552433732313a206d696e7420746f20746865207a65726f2061646472657373604482015290519081900360640190fd5b612f7d816129d7565b15612fcf576040805162461bcd60e51b815260206004820152601c60248201527f4552433732313a20746f6b656e20616c7265616479206d696e74656400000000604482015290519081900360640190fd5b612fdb60008383613575565b6001600160a01b0382166000908152600260205260409020613003908263ffffffff6135e116565b506130166003828463ffffffff6135ed16565b5060405181906001600160a01b038416906000907fddf252ad1be2c89b69c2b068fc378daa952ba7f163c4a11628f55a4df523b3ef908290a45050565b80546001019055565b60006032547f00000000000000000000000000000000000000000000000000000000000000006001600160a01b03166370a08231306040518263ffffffff1660e01b815260040180826001600160a01b03166001600160a01b0316815260200191505060206040518083038186803b1580156130d757600080fd5b505afa1580156130eb573d6000803e3d6000fd5b505050506040513d602081101561310157600080fd5b505110156131405760405162461bcd60e51b815260040180806020018281038252602981526020018061437f6029913960400191505060405180910390fd5b61314f603154603254846137e2565b600081815260366020908152604091829020869055815183815291519293507fe5f5b44d72d4143c278eb745c4acc0695c4a5bc616be5beecf46abe29661780e92918290030190a192915050565b6131a56114ee565b156131f7576040805162461bcd60e51b815260206004820152601060248201527f5061757361626c653a2070617573656400000000000000000000000000000000604482015290519081900360640190fd5b600b805460ff191660011790557f62e78cea01bee320cd4e420270b5ea74000d11b0c9f74754ebdbfc544b05a258612dec6129ea565b60006112c6836001600160a01b0384166139a4565b600082815260366020908152604080832054808452600f9092529091206060613275613270856127106134b2565b6139bc565b805190915061328a90839060208401906141db565b50613293613444565b600183015560006132a3846115ce565b90507f7313be463d71a79047d01fb641b7aaf895b37a35b44b91ed31ae512266e80f2884836132d0613444565b846040518085815260200180602001848152602001836001600160a01b03166001600160a01b03168152602001828103825285818151815260200191508051906020019080838360005b8381101561333257818101518382015260200161331a565b50505050905090810190601f16801561335f5780820380516001836020036101000a031916815260200191505b509550505050505060405180910390a1505050505050565b6000828201838110156112c6576040805162461bcd60e51b815260206004820152601b60248201527f536166654d6174683a206164646974696f6e206f766572666c6f770000000000604482015290519081900360640190fd5b6000826133e0575060006112c9565b828202828482816133ed57fe5b04146112c65760405162461bcd60e51b81526004018080602001828103825260218152602001806145fe6021913960400191505060405180910390fd5b61129a828260405180602001604052806000815250613aa8565b4290565b600080821161349e576040805162461bcd60e51b815260206004820152601a60248201527f536166654d6174683a206469766973696f6e206279207a65726f000000000000604482015290519081900360640190fd5b60008284816134a957fe5b04949350505050565b600081613506576040805162461bcd60e51b815260206004820152601860248201527f536166654d6174683a206d6f64756c6f206279207a65726f0000000000000000604482015290519081900360640190fd5b81838161350f57fe5b069392505050565b613522848484612b18565b61352e84848484613afa565b61231a5760405162461bcd60e51b815260040180806020018281038252603281526020018061434d6032913960400191505060405180910390fd5b60006112c683836139a4565b6001600160a01b038216158061358f575061358f816115fc565b6135ca5760405162461bcd60e51b81526004018080602001828103825260278152602001806146c56027913960400191505060405180910390fd5b6110b3838383613cbc565b60006112c68383613cc7565b60006112c68383613d8d565b6000612f0b84846001600160a01b038516613dd7565b60006112c6836001600160a01b038416613d8d565b8154600090821061365a5760405162461bcd60e51b81526004018080602001828103825260228152602001806142d16022913960400191505060405180910390fd5b82600001828154811061366957fe5b9060005260206000200154905092915050565b60006112c6836001600160a01b038416613cc7565b60006112c68383613e6e565b8154600090819083106136e15760405162461bcd60e51b81526004018080602001828103825260228152602001806145dc6022913960400191505060405180910390fd5b60008460000184815481106136f257fe5b906000526020600020906002020190508060000154816001015492509250509250929050565b600082815260018401602052604081205482816137b35760405162461bcd60e51b81526004018080602001828103825283818151815260200191508051906020019080838360005b83811015613778578181015183820152602001613760565b50505050905090810190601f1680156137a55780820380516001836020036101000a031916815260200191505b509250505060405180910390fd5b508460000160018203815481106137c657fe5b9060005260206000209060020201600101549150509392505050565b60007f00000000000000000000000000000000000000000000000000000000000000006001600160a01b0316634000aea07f000000000000000000000000000000000000000000000000000000000000000085878660405160200180838152602001828152602001925050506040516020818303038152906040526040518463ffffffff1660e01b815260040180846001600160a01b03166001600160a01b0316815260200183815260200180602001828103825283818151815260200191508051906020019080838360005b838110156138c75781810151838201526020016138af565b50505050905090810190601f1680156138f45780820380516001836020036101000a031916815260200191505b50945050505050602060405180830381600087803b15801561391557600080fd5b505af1158015613929573d6000803e3d6000fd5b505050506040513d602081101561393f57600080fd5b50506000848152600e602052604081205461395f90869085903090613f42565b6000868152600e602052604090205490915061398290600163ffffffff61337716565b6000868152600e602052604090205561399b8582613f89565b95945050505050565b60009081526001919091016020526040902054151590565b606060005b600a811015613aa257601181600a81106139d757fe5b601091828204019190066002029054906101000a900461ffff1661ffff168311613a9a57601281600a8110613a0857fe5b01805460408051602060026001851615610100026000190190941693909304601f81018490048402820184019092528181529291830182828015613a8d5780601f10613a6257610100808354040283529160200191613a8d565b820191906000526020600020905b815481529060010190602001808311613a7057829003601f168201915b5050505050915050610edf565b6001016139c1565b50919050565b613ab28383612f19565b613abf6000848484613afa565b6110b35760405162461bcd60e51b815260040180806020018281038252603281526020018061434d6032913960400191505060405180910390fd5b6000613b0e846001600160a01b0316613fb5565b613b1a57506001612b05565b6060613c6a630a85bd0160e11b613b2f6129ea565b88878760405160240180856001600160a01b03166001600160a01b03168152602001846001600160a01b03166001600160a01b0316815260200183815260200180602001828103825283818151815260200191508051906020019080838360005b83811015613ba8578181015183820152602001613b90565b50505050905090810190601f168015613bd55780820380516001836020036101000a031916815260200191505b5095505050505050604051602081830303815290604052907bffffffffffffffffffffffffffffffffffffffffffffffffffffffff19166020820180517bffffffffffffffffffffffffffffffffffffffffffffffffffffffff838183161783525050505060405180606001604052806032815260200161434d603291396001600160a01b038816919063ffffffff613fbb16565b90506000818060200190516020811015613c8357600080fd5b50517fffffffff0000000000000000000000000000000000000000000000000000000016630a85bd0160e11b1492505050949350505050565b6110b3838383613fca565b60008181526001830160205260408120548015613d835783546000198083019190810190600090879083908110613cfa57fe5b9060005260206000200154905080876000018481548110613d1757fe5b600091825260208083209091019290925582815260018981019092526040902090840190558654879080613d4757fe5b600190038181906000526020600020016000905590558660010160008781526020019081526020016000206000905560019450505050506112c9565b60009150506112c9565b6000613d9983836139a4565b613dcf575081546001818101845560008481526020808220909301849055845484825282860190935260409020919091556112c9565b5060006112c9565b600082815260018401602052604081205480613e3c575050604080518082018252838152602080820184815286546001818101895560008981528481209551600290930290950191825591519082015586548684528188019092529290912055612f0e565b82856000016001830381548110613e4f57fe5b9060005260206000209060020201600101819055506000915050612f0e565b60008181526001830160205260408120548015613d835783546000198083019190810190600090879083908110613ea157fe5b9060005260206000209060020201905080876000018481548110613ec157fe5b600091825260208083208454600290930201918255600193840154918401919091558354825289830190526040902090840190558654879080613f0057fe5b60008281526020808220600260001990940193840201828155600190810183905592909355888152898201909252604082209190915594506112c99350505050565b60408051602080820196909652808201949094526001600160a01b039290921660608401526080808401919091528151808403909101815260a09092019052805191012090565b604080516020808201949094528082019290925280518083038201815260609092019052805191012090565b3b151590565b6060612f0b8484600085614019565b613fd58383836110b3565b613fdd6114ee565b156110b35760405162461bcd60e51b815260040180806020018281038252602b8152602001806142f3602b913960400191505060405180910390fd5b60608247101561405a5760405162461bcd60e51b81526004018080602001828103825260268152602001806144856026913960400191505060405180910390fd5b61406385613fb5565b6140b4576040805162461bcd60e51b815260206004820152601d60248201527f416464726573733a2063616c6c20746f206e6f6e2d636f6e7472616374000000604482015290519081900360640190fd5b60006060866001600160a01b031685876040518082805190602001908083835b602083106140f35780518252601f1990920191602091820191016140d4565b6001836020036101000a03801982511681845116808217855250505050505090500191505060006040518083038185875af1925050503d8060008114614155576040519150601f19603f3d011682016040523d82523d6000602084013e61415a565b606091505b509150915061416a828286614175565b979650505050505050565b60608315614184575081612f0e565b8251156141945782518084602001fd5b60405162461bcd60e51b8152602060048201818152845160248401528451859391928392604401919085019080838360008315613778578181015183820152602001613760565b828054600181600116156101000203166002900490600052602060002090601f016020900481019282601f1061421c57805160ff1916838001178555614249565b82800160010185558215614249579182015b8281111561424957825182559160200191906001019061422e565b50611e569291506142b6565b60405180606001604052806060815260200160008152602001600081525090565b50805460018160011615610100020316600290046000825580601f1061429c575061110d565b601f01602090049060005260206000209081019061110d91905b610f7891905b80821115611e5657600081556001016142bc56fe456e756d657261626c655365743a20696e646578206f7574206f6620626f756e64734552433732315061757361626c653a20746f6b656e207472616e73666572207768696c6520706175736564416363657373436f6e74726f6c3a2073656e646572206d75737420626520616e2061646d696e20746f206772616e744552433732313a207472616e7366657220746f206e6f6e20455243373231526563656976657220696d706c656d656e7465724e6f7420656e6f756768204c494e4b202d206765726d696e6174696f6e20756e617661696c61626c654f776e61626c653a206e6577206f776e657220697320746865207a65726f2061646472657373516d5764316d6e374475477978394279664e6571437367645355734a5a316372616769746761796773714476456d4765726d696e6174696f6e2073746172747320323032312d30342d31325431363a30303a30305a4552433732315072657365744d696e7465725061757365724175746f49643a206d75737420686176652070617573657220726f6c6520746f2070617573654552433732313a207472616e7366657220746f20746865207a65726f2061646472657373416464726573733a20696e73756666696369656e742062616c616e636520666f722063616c6c4f6e6c7920746865204f776e65722063616e20776174657220612043727970744f72636869642e4552433732313a206f70657261746f7220717565727920666f72206e6f6e6578697374656e7420746f6b656e416363657373436f6e74726f6c3a2073656e646572206d75737420626520616e2061646d696e20746f207265766f6b654552433732313a20617070726f76652063616c6c6572206973206e6f74206f776e6572206e6f7220617070726f76656420666f7220616c6c4552433732313a2062616c616e636520717565727920666f7220746865207a65726f20616464726573734552433732313a206f776e657220717565727920666f72206e6f6e6578697374656e7420746f6b656e45746865722076616c75652073656e742069732062656c6f7720746865207072696365456e756d657261626c654d61703a20696e646578206f7574206f6620626f756e6473536166654d6174683a206d756c7469706c69636174696f6e206f766572666c6f774552433732313a20617070726f76656420717565727920666f72206e6f6e6578697374656e7420746f6b656e4552433732313a207472616e73666572206f6620746f6b656e2074686174206973206e6f74206f776e596f752063616e20706c616e74206d696e696d756d20312c206d6178696d756d2032302043727970744f7263686964734552433732313a20617070726f76616c20746f2063757272656e74206f776e6572446561642043727970744f7263686964732063616e6e6f74206265207472616e736665727265644552433732313a207472616e736665722063616c6c6572206973206e6f74206f776e6572206e6f7220617070726f7665644f6e6c7920746865204f776e65722063616e206765726d696e61746520612043727970744f72636869642e4f6e6c7920746865204f776e65722063616e20636f6d706f737420612043727970744f72636869642e4552433732315072657365744d696e7465725061757365724175746f49643a206d7573742068617665206d696e74657220726f6c6520746f206d696e744552433732314275726e61626c653a2063616c6c6572206973206e6f74206f776e6572206e6f7220617070726f7665644552433732315072657365744d696e7465725061757365724175746f49643a206d75737420686176652070617573657220726f6c6520746f20756e7061757365416363657373436f6e74726f6c3a2063616e206f6e6c792072656e6f756e636520726f6c657320666f722073656c66a2646970667358221220af129c17f1e0c56d9a3759a97aa81fab23fc2c23763be7aee2248a77997155c764736f6c63430006060033516d55384d4e7a6e5436464431763558646e536541366345597178706a374d676b4543706f7433614345526572582f637970726970656469756d2d63616c63656f6c75732e6a736f6e516d55384d4e7a6e5436464431763558646e536541366345597178706a374d676b4543706f7433614345526572582f64656e64726f7068796c61782d6c696e64656e69692e6a736f6e516d56376e735167484e76777952786262685035396948336772715366713367376a6f53506153314a47526d4a612f70617068696f706564696c756d2d726f7468736368696c6469616e756d2e6a736f6e516d55384d4e7a6e5436464431763558646e536541366345597178706a374d676b4543706f7433614345526572582f706c6174616e74686572612d617a6f726963612e6a736f6e516d56376e735167484e76777952786262685035396948336772715366713367376a6f53506153314a47526d4a612f637970726970656469756d2d63616c63656f6c75732e6a736f6e516d56376e735167484e76777952786262685035396948336772715366713367376a6f53506153314a47526d4a612f7068616c61656e6f707369732d6d6963686f6c69747a69692e6a736f6e516d55384d4e7a6e5436464431763558646e536541366345597178706a374d676b4543706f7433614345526572582f76616e64612d636f6572756c65612e6a736f6e516d55384d4e7a6e5436464431763558646e536541366345597178706a374d676b4543706f7433614345526572582f6d696c746f6e69612d6b61796173696d61652e6a736f6e516d56376e735167484e76777952786262685035396948336772715366713367376a6f53506153314a47526d4a612f70617068696f706564696c756d2d766965746e616d656e73652e6a736f6e516d55384d4e7a6e5436464431763558646e536541366345597178706a374d676b4543706f7433614345526572582f6775617269616e7468652d617572616e74696163612e6a736f6e516d56376e735167484e76777952786262685035396948336772715366713367376a6f53506153314a47526d4a612f7368656e7a68656e6963612d6f726368696461636561652e6a736f6e516d56376e735167484e76777952786262685035396948336772715366713367376a6f53506153314a47526d4a612f6d696c746f6e69612d6b61796173696d61652e6a736f6e516d56376e735167484e76777952786262685035396948336772715366713367376a6f53506153314a47526d4a612f76616e64612d636f6572756c65612e6a736f6e516d55384d4e7a6e5436464431763558646e536541366345597178706a374d676b4543706f7433614345526572582f70617068696f706564696c756d2d726f7468736368696c6469616e756d2e6a736f6e516d56376e735167484e76777952786262685035396948336772715366713367376a6f53506153314a47526d4a612f6775617269616e7468652d617572616e74696163612e6a736f6e516d55384d4e7a6e5436464431763558646e536541366345597178706a374d676b4543706f7433614345526572582f70617068696f706564696c756d2d766965746e616d656e73652e6a736f6e516d56376e735167484e76777952786262685035396948336772715366713367376a6f53506153314a47526d4a612f64656e64726f7068796c61782d6c696e64656e69692e6a736f6e516d55384d4e7a6e5436464431763558646e536541366345597178706a374d676b4543706f7433614345526572582f7068616c61656e6f707369732d6d6963686f6c69747a69692e6a736f6e516d55384d4e7a6e5436464431763558646e536541366345597178706a374d676b4543706f7433614345526572582f7368656e7a68656e6963612d6f726368696461636561652e6a736f6e516d56376e735167484e76777952786262685035396948336772715366713367376a6f53506153314a47526d4a612f706c6174616e74686572612d617a6f726963612e6a736f6e",
  "devdoc": {
    "methods": {
      "approve(address,uint256)": {
        "details": "See {IERC721-approve}."
      },
      "balanceOf(address)": {
        "details": "See {IERC721-balanceOf}."
      },
      "baseURI()": {
        "details": "Returns the base URI set via {_setBaseURI}. This will be automatically added as a prefix in {tokenURI} to each token's URI, or to the token ID if no specific URI is set for that token ID."
      },
      "burn(uint256)": {
        "details": "Burns `tokenId`. See {ERC721-_burn}.     * Requirements:     * - The caller must own `tokenId` or be an approved operator."
      },
      "getApproved(uint256)": {
        "details": "See {IERC721-getApproved}."
      },
      "getRoleAdmin(bytes32)": {
        "details": "Returns the admin role that controls `role`. See {grantRole} and {revokeRole}.     * To change a role's admin, use {_setRoleAdmin}."
      },
      "getRoleMember(bytes32,uint256)": {
        "details": "Returns one of the accounts that have `role`. `index` must be a value between 0 and {getRoleMemberCount}, non-inclusive.     * Role bearers are not sorted in any particular way, and their ordering may change at any point.     * WARNING: When using {getRoleMember} and {getRoleMemberCount}, make sure you perform all queries on the same block. See the following https://forum.openzeppelin.com/t/iterating-over-elements-on-enumerableset-in-openzeppelin-contracts/2296[forum post] for more information."
      },
      "getRoleMemberCount(bytes32)": {
        "details": "Returns the number of accounts that have `role`. Can be used together with {getRoleMember} to enumerate all bearers of a role."
      },
      "grantRole(bytes32,address)": {
        "details": "Grants `role` to `account`.     * If `account` had not been already granted `role`, emits a {RoleGranted} event.     * Requirements:     * - the caller must have ``role``'s admin role."
      },
      "hasRole(bytes32,address)": {
        "details": "Returns `true` if `account` has been granted `role`."
      },
      "isApprovedForAll(address,address)": {
        "details": "See {IERC721-isApprovedForAll}."
      },
      "mint(address)": {
        "details": "Creates a new token for `to`. Its token ID will be automatically assigned (and available on the emitted {IERC721-Transfer} event), and the token URI autogenerated based on the base URI passed at construction.     * See {ERC721-_mint}.     * Requirements:     * - the caller must have the `MINTER_ROLE`."
      },
      "name()": {
        "details": "See {IERC721Metadata-name}."
      },
      "owner()": {
        "details": "Returns the address of the current owner."
      },
      "ownerOf(uint256)": {
        "details": "See {IERC721-ownerOf}."
      },
      "pause()": {
        "details": "Pauses all token transfers.     * See {ERC721Pausable} and {Pausable-_pause}.     * Requirements:     * - the caller must have the `PAUSER_ROLE`."
      },
      "paused()": {
        "details": "Returns true if the contract is paused, and false otherwise."
      },
      "renounceOwnership()": {
        "details": "Leaves the contract without owner. It will not be possible to call `onlyOwner` functions anymore. Can only be called by the current owner.     * NOTE: Renouncing ownership will leave the contract without an owner, thereby removing any functionality that is only available to the owner."
      },
      "renounceRole(bytes32,address)": {
        "details": "Revokes `role` from the calling account.     * Roles are often managed via {grantRole} and {revokeRole}: this function's purpose is to provide a mechanism for accounts to lose their privileges if they are compromised (such as when a trusted device is misplaced).     * If the calling account had been granted `role`, emits a {RoleRevoked} event.     * Requirements:     * - the caller must be `account`."
      },
      "revokeRole(bytes32,address)": {
        "details": "Revokes `role` from `account`.     * If `account` had been granted `role`, emits a {RoleRevoked} event.     * Requirements:     * - the caller must have ``role``'s admin role."
      },
      "safeTransferFrom(address,address,uint256)": {
        "details": "See {IERC721-safeTransferFrom}."
      },
      "safeTransferFrom(address,address,uint256,bytes)": {
        "details": "See {IERC721-safeTransferFrom}."
      },
      "setApprovalForAll(address,bool)": {
        "details": "See {IERC721-setApprovalForAll}."
      },
      "supportsInterface(bytes4)": {
        "details": "See {IERC165-supportsInterface}.     * Time complexity O(1), guaranteed to always use less than 30 000 gas."
      },
      "symbol()": {
        "details": "See {IERC721Metadata-symbol}."
      },
      "tokenByIndex(uint256)": {
        "details": "See {IERC721Enumerable-tokenByIndex}."
      },
      "tokenOfOwnerByIndex(address,uint256)": {
        "details": "See {IERC721Enumerable-tokenOfOwnerByIndex}."
      },
      "totalSupply()": {
        "details": "See {IERC721Enumerable-totalSupply}."
      },
      "transferFrom(address,address,uint256)": {
        "details": "See {IERC721-transferFrom}."
      },
      "transferOwnership(address)": {
        "details": "Transfers ownership of the contract to a new account (`newOwner`). Can only be called by the current owner."
      },
      "unpause()": {
        "details": "Unpauses all token transfers.     * See {ERC721Pausable} and {Pausable-_unpause}.     * Requirements:     * - the caller must have the `PAUSER_ROLE`."
      },
      "withdraw()": {
        "details": "Withdraw ether from this contract (Callable by owner only)"
      }
    }
  },
  "userdoc": {
    "methods": {}
  },
  "storageLayout": {
    "storage": [
      {
        "astId": 546,
        "contract": "contracts/CryptOrchidERC721/CryptOrchidERC721.sol:CryptOrchidERC721",
        "label": "_roles",
        "offset": 0,
        "slot": "0",
        "type": "t_mapping(t_bytes32,t_struct(RoleData)542_storage)"
      },
      {
        "astId": 929,
        "contract": "contracts/CryptOrchidERC721/CryptOrchidERC721.sol:CryptOrchidERC721",
        "label": "_supportedInterfaces",
        "offset": 0,
        "slot": "1",
        "type": "t_mapping(t_bytes4,t_bool)"
      },
      {
        "astId": 2119,
        "contract": "contracts/CryptOrchidERC721/CryptOrchidERC721.sol:CryptOrchidERC721",
        "label": "_holderTokens",
        "offset": 0,
        "slot": "2",
        "type": "t_mapping(t_address,t_struct(UintSet)4602_storage)"
      },
      {
        "astId": 2121,
        "contract": "contracts/CryptOrchidERC721/CryptOrchidERC721.sol:CryptOrchidERC721",
        "label": "_tokenOwners",
        "offset": 0,
        "slot": "3",
        "type": "t_struct(UintToAddressMap)3979_storage"
      },
      {
        "astId": 2125,
        "contract": "contracts/CryptOrchidERC721/CryptOrchidERC721.sol:CryptOrchidERC721",
        "label": "_tokenApprovals",
        "offset": 0,
        "slot": "5",
        "type": "t_mapping(t_uint256,t_address)"
      },
      {
        "astId": 2131,
        "contract": "contracts/CryptOrchidERC721/CryptOrchidERC721.sol:CryptOrchidERC721",
        "label": "_operatorApprovals",
        "offset": 0,
        "slot": "6",
        "type": "t_mapping(t_address,t_mapping(t_address,t_bool))"
      },
      {
        "astId": 2133,
        "contract": "contracts/CryptOrchidERC721/CryptOrchidERC721.sol:CryptOrchidERC721",
        "label": "_name",
        "offset": 0,
        "slot": "7",
        "type": "t_string_storage"
      },
      {
        "astId": 2135,
        "contract": "contracts/CryptOrchidERC721/CryptOrchidERC721.sol:CryptOrchidERC721",
        "label": "_symbol",
        "offset": 0,
        "slot": "8",
        "type": "t_string_storage"
      },
      {
        "astId": 2139,
        "contract": "contracts/CryptOrchidERC721/CryptOrchidERC721.sol:CryptOrchidERC721",
        "label": "_tokenURIs",
        "offset": 0,
        "slot": "9",
        "type": "t_mapping(t_uint256,t_string_storage)"
      },
      {
        "astId": 2141,
        "contract": "contracts/CryptOrchidERC721/CryptOrchidERC721.sol:CryptOrchidERC721",
        "label": "_baseURI",
        "offset": 0,
        "slot": "10",
        "type": "t_string_storage"
      },
      {
        "astId": 4715,
        "contract": "contracts/CryptOrchidERC721/CryptOrchidERC721.sol:CryptOrchidERC721",
        "label": "_paused",
        "offset": 0,
        "slot": "11",
        "type": "t_bool"
      },
      {
        "astId": 1371,
        "contract": "contracts/CryptOrchidERC721/CryptOrchidERC721.sol:CryptOrchidERC721",
        "label": "_tokenIdTracker",
        "offset": 0,
        "slot": "12",
        "type": "t_struct(Counter)3605_storage"
      },
      {
        "astId": 814,
        "contract": "contracts/CryptOrchidERC721/CryptOrchidERC721.sol:CryptOrchidERC721",
        "label": "_owner",
        "offset": 0,
        "slot": "13",
        "type": "t_address"
      },
      {
        "astId": 81,
        "contract": "contracts/CryptOrchidERC721/CryptOrchidERC721.sol:CryptOrchidERC721",
        "label": "nonces",
        "offset": 0,
        "slot": "14",
        "type": "t_mapping(t_bytes32,t_uint256)"
      },
      {
        "astId": 4911,
        "contract": "contracts/CryptOrchidERC721/CryptOrchidERC721.sol:CryptOrchidERC721",
        "label": "cryptorchids",
        "offset": 0,
        "slot": "15",
        "type": "t_mapping(t_uint256,t_struct(CryptOrchid)4907_storage)"
      },
      {
        "astId": 4919,
        "contract": "contracts/CryptOrchidERC721/CryptOrchidERC721.sol:CryptOrchidERC721",
        "label": "saleStarted",
        "offset": 0,
        "slot": "16",
        "type": "t_bool"
      },
      {
        "astId": 4922,
        "contract": "contracts/CryptOrchidERC721/CryptOrchidERC721.sol:CryptOrchidERC721",
        "label": "growingStarted",
        "offset": 1,
        "slot": "16",
        "type": "t_bool"
      },
      {
        "astId": 4956,
        "contract": "contracts/CryptOrchidERC721/CryptOrchidERC721.sol:CryptOrchidERC721",
        "label": "limits",
        "offset": 0,
        "slot": "17",
        "type": "t_array(t_uint16)10_storage"
      },
      {
        "astId": 4971,
        "contract": "contracts/CryptOrchidERC721/CryptOrchidERC721.sol:CryptOrchidERC721",
        "label": "genum",
        "offset": 0,
        "slot": "18",
        "type": "t_array(t_string_storage)10_storage"
      },
      {
        "astId": 4986,
        "contract": "contracts/CryptOrchidERC721/CryptOrchidERC721.sol:CryptOrchidERC721",
        "label": "speciesIPFSConstant",
        "offset": 0,
        "slot": "28",
        "type": "t_array(t_string_storage)10_storage"
      },
      {
        "astId": 5001,
        "contract": "contracts/CryptOrchidERC721/CryptOrchidERC721.sol:CryptOrchidERC721",
        "label": "deadSpeciesIPFSConstant",
        "offset": 0,
        "slot": "38",
        "type": "t_array(t_string_storage)10_storage"
      },
      {
        "astId": 5003,
        "contract": "contracts/CryptOrchidERC721/CryptOrchidERC721.sol:CryptOrchidERC721",
        "label": "_tokenIds",
        "offset": 0,
        "slot": "48",
        "type": "t_struct(Counter)3605_storage"
      },
      {
        "astId": 5005,
        "contract": "contracts/CryptOrchidERC721/CryptOrchidERC721.sol:CryptOrchidERC721",
        "label": "keyHash",
        "offset": 0,
        "slot": "49",
        "type": "t_bytes32"
      },
      {
        "astId": 5007,
        "contract": "contracts/CryptOrchidERC721/CryptOrchidERC721.sol:CryptOrchidERC721",
        "label": "vrfFee",
        "offset": 0,
        "slot": "50",
        "type": "t_uint256"
      },
      {
        "astId": 5009,
        "contract": "contracts/CryptOrchidERC721/CryptOrchidERC721.sol:CryptOrchidERC721",
        "label": "randomResult",
        "offset": 0,
        "slot": "51",
        "type": "t_uint256"
      },
      {
        "astId": 5011,
        "contract": "contracts/CryptOrchidERC721/CryptOrchidERC721.sol:CryptOrchidERC721",
        "label": "VRFCoordinator",
        "offset": 0,
        "slot": "52",
        "type": "t_address"
      },
      {
        "astId": 5013,
        "contract": "contracts/CryptOrchidERC721/CryptOrchidERC721.sol:CryptOrchidERC721",
        "label": "LinkToken",
        "offset": 0,
        "slot": "53",
        "type": "t_address"
      },
      {
        "astId": 5041,
        "contract": "contracts/CryptOrchidERC721/CryptOrchidERC721.sol:CryptOrchidERC721",
        "label": "requestToToken",
        "offset": 0,
        "slot": "54",
        "type": "t_mapping(t_bytes32,t_uint256)"
      },
      {
        "astId": 5045,
        "contract": "contracts/CryptOrchidERC721/CryptOrchidERC721.sol:CryptOrchidERC721",
        "label": "speciesIPFS",
        "offset": 0,
        "slot": "55",
        "type": "t_mapping(t_bytes32,t_string_storage)"
      },
      {
        "astId": 5049,
        "contract": "contracts/CryptOrchidERC721/CryptOrchidERC721.sol:CryptOrchidERC721",
        "label": "deadSpeciesIPFS",
        "offset": 0,
        "slot": "56",
        "type": "t_mapping(t_bytes32,t_string_storage)"
      }
    ],
    "types": {
      "t_address": {
        "encoding": "inplace",
        "label": "address",
        "numberOfBytes": "20"
      },
      "t_array(t_bytes32)dyn_storage": {
        "base": "t_bytes32",
        "encoding": "dynamic_array",
        "label": "bytes32[]",
        "numberOfBytes": "32"
      },
      "t_array(t_string_storage)10_storage": {
        "base": "t_string_storage",
        "encoding": "inplace",
        "label": "string[10]",
        "numberOfBytes": "320"
      },
      "t_array(t_struct(MapEntry)3653_storage)dyn_storage": {
        "base": "t_struct(MapEntry)3653_storage",
        "encoding": "dynamic_array",
        "label": "struct EnumerableMap.MapEntry[]",
        "numberOfBytes": "32"
      },
      "t_array(t_uint16)10_storage": {
        "base": "t_uint16",
        "encoding": "inplace",
        "label": "uint16[10]",
        "numberOfBytes": "32"
      },
      "t_bool": {
        "encoding": "inplace",
        "label": "bool",
        "numberOfBytes": "1"
      },
      "t_bytes32": {
        "encoding": "inplace",
        "label": "bytes32",
        "numberOfBytes": "32"
      },
      "t_bytes4": {
        "encoding": "inplace",
        "label": "bytes4",
        "numberOfBytes": "4"
      },
      "t_mapping(t_address,t_bool)": {
        "encoding": "mapping",
        "key": "t_address",
        "label": "mapping(address => bool)",
        "numberOfBytes": "32",
        "value": "t_bool"
      },
      "t_mapping(t_address,t_mapping(t_address,t_bool))": {
        "encoding": "mapping",
        "key": "t_address",
        "label": "mapping(address => mapping(address => bool))",
        "numberOfBytes": "32",
        "value": "t_mapping(t_address,t_bool)"
      },
      "t_mapping(t_address,t_struct(UintSet)4602_storage)": {
        "encoding": "mapping",
        "key": "t_address",
        "label": "mapping(address => struct EnumerableSet.UintSet)",
        "numberOfBytes": "32",
        "value": "t_struct(UintSet)4602_storage"
      },
      "t_mapping(t_bytes32,t_string_storage)": {
        "encoding": "mapping",
        "key": "t_bytes32",
        "label": "mapping(bytes32 => string)",
        "numberOfBytes": "32",
        "value": "t_string_storage"
      },
      "t_mapping(t_bytes32,t_struct(RoleData)542_storage)": {
        "encoding": "mapping",
        "key": "t_bytes32",
        "label": "mapping(bytes32 => struct AccessControl.RoleData)",
        "numberOfBytes": "32",
        "value": "t_struct(RoleData)542_storage"
      },
      "t_mapping(t_bytes32,t_uint256)": {
        "encoding": "mapping",
        "key": "t_bytes32",
        "label": "mapping(bytes32 => uint256)",
        "numberOfBytes": "32",
        "value": "t_uint256"
      },
      "t_mapping(t_bytes4,t_bool)": {
        "encoding": "mapping",
        "key": "t_bytes4",
        "label": "mapping(bytes4 => bool)",
        "numberOfBytes": "32",
        "value": "t_bool"
      },
      "t_mapping(t_uint256,t_address)": {
        "encoding": "mapping",
        "key": "t_uint256",
        "label": "mapping(uint256 => address)",
        "numberOfBytes": "32",
        "value": "t_address"
      },
      "t_mapping(t_uint256,t_string_storage)": {
        "encoding": "mapping",
        "key": "t_uint256",
        "label": "mapping(uint256 => string)",
        "numberOfBytes": "32",
        "value": "t_string_storage"
      },
      "t_mapping(t_uint256,t_struct(CryptOrchid)4907_storage)": {
        "encoding": "mapping",
        "key": "t_uint256",
        "label": "mapping(uint256 => struct CryptOrchidERC721.CryptOrchid)",
        "numberOfBytes": "32",
        "value": "t_struct(CryptOrchid)4907_storage"
      },
      "t_string_storage": {
        "encoding": "bytes",
        "label": "string",
        "numberOfBytes": "32"
      },
      "t_struct(AddressSet)4481_storage": {
        "encoding": "inplace",
        "label": "struct EnumerableSet.AddressSet",
        "members": [
          {
            "astId": 4480,
            "contract": "contracts/CryptOrchidERC721/CryptOrchidERC721.sol:CryptOrchidERC721",
            "label": "_inner",
            "offset": 0,
            "slot": "0",
            "type": "t_struct(Set)4216_storage"
          }
        ],
        "numberOfBytes": "64"
      },
      "t_struct(Counter)3605_storage": {
        "encoding": "inplace",
        "label": "struct Counters.Counter",
        "members": [
          {
            "astId": 3604,
            "contract": "contracts/CryptOrchidERC721/CryptOrchidERC721.sol:CryptOrchidERC721",
            "label": "_value",
            "offset": 0,
            "slot": "0",
            "type": "t_uint256"
          }
        ],
        "numberOfBytes": "32"
      },
      "t_struct(CryptOrchid)4907_storage": {
        "encoding": "inplace",
        "label": "struct CryptOrchidERC721.CryptOrchid",
        "members": [
          {
            "astId": 4902,
            "contract": "contracts/CryptOrchidERC721/CryptOrchidERC721.sol:CryptOrchidERC721",
            "label": "species",
            "offset": 0,
            "slot": "0",
            "type": "t_string_storage"
          },
          {
            "astId": 4904,
            "contract": "contracts/CryptOrchidERC721/CryptOrchidERC721.sol:CryptOrchidERC721",
            "label": "plantedAt",
            "offset": 0,
            "slot": "1",
            "type": "t_uint256"
          },
          {
            "astId": 4906,
            "contract": "contracts/CryptOrchidERC721/CryptOrchidERC721.sol:CryptOrchidERC721",
            "label": "waterLevel",
            "offset": 0,
            "slot": "2",
            "type": "t_uint256"
          }
        ],
        "numberOfBytes": "96"
      },
      "t_struct(Map)3661_storage": {
        "encoding": "inplace",
        "label": "struct EnumerableMap.Map",
        "members": [
          {
            "astId": 3656,
            "contract": "contracts/CryptOrchidERC721/CryptOrchidERC721.sol:CryptOrchidERC721",
            "label": "_entries",
            "offset": 0,
            "slot": "0",
            "type": "t_array(t_struct(MapEntry)3653_storage)dyn_storage"
          },
          {
            "astId": 3660,
            "contract": "contracts/CryptOrchidERC721/CryptOrchidERC721.sol:CryptOrchidERC721",
            "label": "_indexes",
            "offset": 0,
            "slot": "1",
            "type": "t_mapping(t_bytes32,t_uint256)"
          }
        ],
        "numberOfBytes": "64"
      },
      "t_struct(MapEntry)3653_storage": {
        "encoding": "inplace",
        "label": "struct EnumerableMap.MapEntry",
        "members": [
          {
            "astId": 3650,
            "contract": "contracts/CryptOrchidERC721/CryptOrchidERC721.sol:CryptOrchidERC721",
            "label": "_key",
            "offset": 0,
            "slot": "0",
            "type": "t_bytes32"
          },
          {
            "astId": 3652,
            "contract": "contracts/CryptOrchidERC721/CryptOrchidERC721.sol:CryptOrchidERC721",
            "label": "_value",
            "offset": 0,
            "slot": "1",
            "type": "t_bytes32"
          }
        ],
        "numberOfBytes": "64"
      },
      "t_struct(RoleData)542_storage": {
        "encoding": "inplace",
        "label": "struct AccessControl.RoleData",
        "members": [
          {
            "astId": 539,
            "contract": "contracts/CryptOrchidERC721/CryptOrchidERC721.sol:CryptOrchidERC721",
            "label": "members",
            "offset": 0,
            "slot": "0",
            "type": "t_struct(AddressSet)4481_storage"
          },
          {
            "astId": 541,
            "contract": "contracts/CryptOrchidERC721/CryptOrchidERC721.sol:CryptOrchidERC721",
            "label": "adminRole",
            "offset": 0,
            "slot": "2",
            "type": "t_bytes32"
          }
        ],
        "numberOfBytes": "96"
      },
      "t_struct(Set)4216_storage": {
        "encoding": "inplace",
        "label": "struct EnumerableSet.Set",
        "members": [
          {
            "astId": 4211,
            "contract": "contracts/CryptOrchidERC721/CryptOrchidERC721.sol:CryptOrchidERC721",
            "label": "_values",
            "offset": 0,
            "slot": "0",
            "type": "t_array(t_bytes32)dyn_storage"
          },
          {
            "astId": 4215,
            "contract": "contracts/CryptOrchidERC721/CryptOrchidERC721.sol:CryptOrchidERC721",
            "label": "_indexes",
            "offset": 0,
            "slot": "1",
            "type": "t_mapping(t_bytes32,t_uint256)"
          }
        ],
        "numberOfBytes": "64"
      },
      "t_struct(UintSet)4602_storage": {
        "encoding": "inplace",
        "label": "struct EnumerableSet.UintSet",
        "members": [
          {
            "astId": 4601,
            "contract": "contracts/CryptOrchidERC721/CryptOrchidERC721.sol:CryptOrchidERC721",
            "label": "_inner",
            "offset": 0,
            "slot": "0",
            "type": "t_struct(Set)4216_storage"
          }
        ],
        "numberOfBytes": "64"
      },
      "t_struct(UintToAddressMap)3979_storage": {
        "encoding": "inplace",
        "label": "struct EnumerableMap.UintToAddressMap",
        "members": [
          {
            "astId": 3978,
            "contract": "contracts/CryptOrchidERC721/CryptOrchidERC721.sol:CryptOrchidERC721",
            "label": "_inner",
            "offset": 0,
            "slot": "0",
            "type": "t_struct(Map)3661_storage"
          }
        ],
        "numberOfBytes": "64"
      },
      "t_uint16": {
        "encoding": "inplace",
        "label": "uint16",
        "numberOfBytes": "2"
      },
      "t_uint256": {
        "encoding": "inplace",
        "label": "uint256",
        "numberOfBytes": "32"
      }
    }
  }
}