{
  "address": "0xb3EA7Cbb180d834c279B06873b6A971CCe701468",
  "abi": [
    {
      "inputs": [],
      "stateMutability": "payable",
      "type": "constructor"
    },
    {
      "anonymous": false,
      "inputs": [
        {
          "indexed": true,
          "internalType": "address",
          "name": "owner",
          "type": "address"
        },
        {
          "indexed": true,
          "internalType": "address",
          "name": "approved",
          "type": "address"
        },
        {
          "indexed": true,
          "internalType": "uint256",
          "name": "tokenId",
          "type": "uint256"
        }
      ],
      "name": "Approval",
      "type": "event"
    },
    {
      "anonymous": false,
      "inputs": [
        {
          "indexed": true,
          "internalType": "address",
          "name": "owner",
          "type": "address"
        },
        {
          "indexed": true,
          "internalType": "address",
          "name": "operator",
          "type": "address"
        },
        {
          "indexed": false,
          "internalType": "bool",
          "name": "approved",
          "type": "bool"
        }
      ],
      "name": "ApprovalForAll",
      "type": "event"
    },
    {
      "anonymous": false,
      "inputs": [
        {
          "indexed": true,
          "internalType": "address",
          "name": "previousOwner",
          "type": "address"
        },
        {
          "indexed": true,
          "internalType": "address",
          "name": "newOwner",
          "type": "address"
        }
      ],
      "name": "OwnershipTransferred",
      "type": "event"
    },
    {
      "anonymous": false,
      "inputs": [
        {
          "indexed": false,
          "internalType": "address",
          "name": "account",
          "type": "address"
        }
      ],
      "name": "Paused",
      "type": "event"
    },
    {
      "anonymous": false,
      "inputs": [
        {
          "indexed": true,
          "internalType": "bytes32",
          "name": "role",
          "type": "bytes32"
        },
        {
          "indexed": true,
          "internalType": "bytes32",
          "name": "previousAdminRole",
          "type": "bytes32"
        },
        {
          "indexed": true,
          "internalType": "bytes32",
          "name": "newAdminRole",
          "type": "bytes32"
        }
      ],
      "name": "RoleAdminChanged",
      "type": "event"
    },
    {
      "anonymous": false,
      "inputs": [
        {
          "indexed": true,
          "internalType": "bytes32",
          "name": "role",
          "type": "bytes32"
        },
        {
          "indexed": true,
          "internalType": "address",
          "name": "account",
          "type": "address"
        },
        {
          "indexed": true,
          "internalType": "address",
          "name": "sender",
          "type": "address"
        }
      ],
      "name": "RoleGranted",
      "type": "event"
    },
    {
      "anonymous": false,
      "inputs": [
        {
          "indexed": true,
          "internalType": "bytes32",
          "name": "role",
          "type": "bytes32"
        },
        {
          "indexed": true,
          "internalType": "address",
          "name": "account",
          "type": "address"
        },
        {
          "indexed": true,
          "internalType": "address",
          "name": "sender",
          "type": "address"
        }
      ],
      "name": "RoleRevoked",
      "type": "event"
    },
    {
      "anonymous": false,
      "inputs": [
        {
          "indexed": true,
          "internalType": "address",
          "name": "from",
          "type": "address"
        },
        {
          "indexed": true,
          "internalType": "address",
          "name": "to",
          "type": "address"
        },
        {
          "indexed": true,
          "internalType": "uint256",
          "name": "tokenId",
          "type": "uint256"
        }
      ],
      "name": "Transfer",
      "type": "event"
    },
    {
      "anonymous": false,
      "inputs": [
        {
          "indexed": false,
          "internalType": "address",
          "name": "account",
          "type": "address"
        }
      ],
      "name": "Unpaused",
      "type": "event"
    },
    {
      "inputs": [],
      "name": "DEFAULT_ADMIN_ROLE",
      "outputs": [
        {
          "internalType": "bytes32",
          "name": "",
          "type": "bytes32"
        }
      ],
      "stateMutability": "view",
      "type": "function"
    },
    {
      "inputs": [],
      "name": "GROWTH_CYCLE",
      "outputs": [
        {
          "internalType": "uint256",
          "name": "",
          "type": "uint256"
        }
      ],
      "stateMutability": "view",
      "type": "function"
    },
    {
      "inputs": [],
      "name": "MAX_CRYPTORCHIDS",
      "outputs": [
        {
          "internalType": "uint256",
          "name": "",
          "type": "uint256"
        }
      ],
      "stateMutability": "view",
      "type": "function"
    },
    {
      "inputs": [],
      "name": "MINTER_ROLE",
      "outputs": [
        {
          "internalType": "bytes32",
          "name": "",
          "type": "bytes32"
        }
      ],
      "stateMutability": "view",
      "type": "function"
    },
    {
      "inputs": [],
      "name": "PAUSER_ROLE",
      "outputs": [
        {
          "internalType": "bytes32",
          "name": "",
          "type": "bytes32"
        }
      ],
      "stateMutability": "view",
      "type": "function"
    },
    {
      "inputs": [],
      "name": "WATERING_WINDOW",
      "outputs": [
        {
          "internalType": "uint256",
          "name": "",
          "type": "uint256"
        }
      ],
      "stateMutability": "view",
      "type": "function"
    },
    {
      "inputs": [
        {
          "internalType": "uint256",
          "name": "tokenId",
          "type": "uint256"
        }
      ],
      "name": "alive",
      "outputs": [
        {
          "internalType": "bool",
          "name": "",
          "type": "bool"
        }
      ],
      "stateMutability": "view",
      "type": "function"
    },
    {
      "inputs": [
        {
          "internalType": "address",
          "name": "to",
          "type": "address"
        },
        {
          "internalType": "uint256",
          "name": "tokenId",
          "type": "uint256"
        }
      ],
      "name": "approve",
      "outputs": [],
      "stateMutability": "nonpayable",
      "type": "function"
    },
    {
      "inputs": [
        {
          "internalType": "address",
          "name": "owner",
          "type": "address"
        }
      ],
      "name": "balanceOf",
      "outputs": [
        {
          "internalType": "uint256",
          "name": "",
          "type": "uint256"
        }
      ],
      "stateMutability": "view",
      "type": "function"
    },
    {
      "inputs": [],
      "name": "baseURI",
      "outputs": [
        {
          "internalType": "string",
          "name": "",
          "type": "string"
        }
      ],
      "stateMutability": "view",
      "type": "function"
    },
    {
      "inputs": [
        {
          "internalType": "uint256",
          "name": "tokenId",
          "type": "uint256"
        }
      ],
      "name": "burn",
      "outputs": [],
      "stateMutability": "nonpayable",
      "type": "function"
    },
    {
      "inputs": [
        {
          "internalType": "uint256",
          "name": "",
          "type": "uint256"
        }
      ],
      "name": "cryptorchids",
      "outputs": [
        {
          "internalType": "string",
          "name": "species",
          "type": "string"
        },
        {
          "internalType": "uint256",
          "name": "plantedAt",
          "type": "uint256"
        },
        {
          "internalType": "uint256",
          "name": "waterLevel",
          "type": "uint256"
        }
      ],
      "stateMutability": "view",
      "type": "function"
    },
    {
      "inputs": [],
      "name": "currentPrice",
      "outputs": [
        {
          "internalType": "uint256",
          "name": "price",
          "type": "uint256"
        }
      ],
      "stateMutability": "view",
      "type": "function"
    },
    {
      "inputs": [
        {
          "internalType": "uint256",
          "name": "tokenId",
          "type": "uint256"
        }
      ],
      "name": "flowering",
      "outputs": [
        {
          "internalType": "bool",
          "name": "",
          "type": "bool"
        }
      ],
      "stateMutability": "view",
      "type": "function"
    },
    {
      "inputs": [
        {
          "internalType": "uint256",
          "name": "tokenId",
          "type": "uint256"
        },
        {
          "internalType": "uint256",
          "name": "userProvidedSeed",
          "type": "uint256"
        }
      ],
      "name": "germinate",
      "outputs": [],
      "stateMutability": "nonpayable",
      "type": "function"
    },
    {
      "inputs": [
        {
          "internalType": "uint256",
          "name": "tokenId",
          "type": "uint256"
        }
      ],
      "name": "getApproved",
      "outputs": [
        {
          "internalType": "address",
          "name": "",
          "type": "address"
        }
      ],
      "stateMutability": "view",
      "type": "function"
    },
    {
      "inputs": [
        {
          "internalType": "bytes32",
          "name": "role",
          "type": "bytes32"
        }
      ],
      "name": "getRoleAdmin",
      "outputs": [
        {
          "internalType": "bytes32",
          "name": "",
          "type": "bytes32"
        }
      ],
      "stateMutability": "view",
      "type": "function"
    },
    {
      "inputs": [
        {
          "internalType": "bytes32",
          "name": "role",
          "type": "bytes32"
        },
        {
          "internalType": "uint256",
          "name": "index",
          "type": "uint256"
        }
      ],
      "name": "getRoleMember",
      "outputs": [
        {
          "internalType": "address",
          "name": "",
          "type": "address"
        }
      ],
      "stateMutability": "view",
      "type": "function"
    },
    {
      "inputs": [
        {
          "internalType": "bytes32",
          "name": "role",
          "type": "bytes32"
        }
      ],
      "name": "getRoleMemberCount",
      "outputs": [
        {
          "internalType": "uint256",
          "name": "",
          "type": "uint256"
        }
      ],
      "stateMutability": "view",
      "type": "function"
    },
    {
      "inputs": [
        {
          "internalType": "uint256",
          "name": "tokenId",
          "type": "uint256"
        }
      ],
      "name": "getTokenMetadata",
      "outputs": [
        {
          "internalType": "string",
          "name": "",
          "type": "string"
        },
        {
          "internalType": "uint256",
          "name": "",
          "type": "uint256"
        },
        {
          "internalType": "uint256",
          "name": "",
          "type": "uint256"
        },
        {
          "internalType": "enum CryptOrchidGoerli.Stage",
          "name": "",
          "type": "uint8"
        }
      ],
      "stateMutability": "view",
      "type": "function"
    },
    {
      "inputs": [
        {
          "internalType": "bytes32",
          "name": "role",
          "type": "bytes32"
        },
        {
          "internalType": "address",
          "name": "account",
          "type": "address"
        }
      ],
      "name": "grantRole",
      "outputs": [],
      "stateMutability": "nonpayable",
      "type": "function"
    },
    {
      "inputs": [
        {
          "internalType": "uint256",
          "name": "tokenId",
          "type": "uint256"
        }
      ],
      "name": "growthStage",
      "outputs": [
        {
          "internalType": "enum CryptOrchidGoerli.Stage",
          "name": "",
          "type": "uint8"
        }
      ],
      "stateMutability": "view",
      "type": "function"
    },
    {
      "inputs": [
        {
          "internalType": "bytes32",
          "name": "role",
          "type": "bytes32"
        },
        {
          "internalType": "address",
          "name": "account",
          "type": "address"
        }
      ],
      "name": "hasRole",
      "outputs": [
        {
          "internalType": "bool",
          "name": "",
          "type": "bool"
        }
      ],
      "stateMutability": "view",
      "type": "function"
    },
    {
      "inputs": [
        {
          "internalType": "address",
          "name": "owner",
          "type": "address"
        },
        {
          "internalType": "address",
          "name": "operator",
          "type": "address"
        }
      ],
      "name": "isApprovedForAll",
      "outputs": [
        {
          "internalType": "bool",
          "name": "",
          "type": "bool"
        }
      ],
      "stateMutability": "view",
      "type": "function"
    },
    {
      "inputs": [
        {
          "internalType": "address",
          "name": "to",
          "type": "address"
        }
      ],
      "name": "mint",
      "outputs": [],
      "stateMutability": "nonpayable",
      "type": "function"
    },
    {
      "inputs": [],
      "name": "name",
      "outputs": [
        {
          "internalType": "string",
          "name": "",
          "type": "string"
        }
      ],
      "stateMutability": "view",
      "type": "function"
    },
    {
      "inputs": [],
      "name": "owner",
      "outputs": [
        {
          "internalType": "address",
          "name": "",
          "type": "address"
        }
      ],
      "stateMutability": "view",
      "type": "function"
    },
    {
      "inputs": [
        {
          "internalType": "uint256",
          "name": "tokenId",
          "type": "uint256"
        }
      ],
      "name": "ownerOf",
      "outputs": [
        {
          "internalType": "address",
          "name": "",
          "type": "address"
        }
      ],
      "stateMutability": "view",
      "type": "function"
    },
    {
      "inputs": [],
      "name": "pause",
      "outputs": [],
      "stateMutability": "nonpayable",
      "type": "function"
    },
    {
      "inputs": [],
      "name": "paused",
      "outputs": [
        {
          "internalType": "bool",
          "name": "",
          "type": "bool"
        }
      ],
      "stateMutability": "view",
      "type": "function"
    },
    {
      "inputs": [],
      "name": "renounceOwnership",
      "outputs": [],
      "stateMutability": "nonpayable",
      "type": "function"
    },
    {
      "inputs": [
        {
          "internalType": "bytes32",
          "name": "role",
          "type": "bytes32"
        },
        {
          "internalType": "address",
          "name": "account",
          "type": "address"
        }
      ],
      "name": "renounceRole",
      "outputs": [],
      "stateMutability": "nonpayable",
      "type": "function"
    },
    {
      "inputs": [
        {
          "internalType": "bytes32",
          "name": "",
          "type": "bytes32"
        }
      ],
      "name": "requestToToken",
      "outputs": [
        {
          "internalType": "uint256",
          "name": "",
          "type": "uint256"
        }
      ],
      "stateMutability": "view",
      "type": "function"
    },
    {
      "inputs": [
        {
          "internalType": "bytes32",
          "name": "role",
          "type": "bytes32"
        },
        {
          "internalType": "address",
          "name": "account",
          "type": "address"
        }
      ],
      "name": "revokeRole",
      "outputs": [],
      "stateMutability": "nonpayable",
      "type": "function"
    },
    {
      "inputs": [
        {
          "internalType": "address",
          "name": "from",
          "type": "address"
        },
        {
          "internalType": "address",
          "name": "to",
          "type": "address"
        },
        {
          "internalType": "uint256",
          "name": "tokenId",
          "type": "uint256"
        }
      ],
      "name": "safeTransferFrom",
      "outputs": [],
      "stateMutability": "nonpayable",
      "type": "function"
    },
    {
      "inputs": [
        {
          "internalType": "address",
          "name": "from",
          "type": "address"
        },
        {
          "internalType": "address",
          "name": "to",
          "type": "address"
        },
        {
          "internalType": "uint256",
          "name": "tokenId",
          "type": "uint256"
        },
        {
          "internalType": "bytes",
          "name": "_data",
          "type": "bytes"
        }
      ],
      "name": "safeTransferFrom",
      "outputs": [],
      "stateMutability": "nonpayable",
      "type": "function"
    },
    {
      "inputs": [
        {
          "internalType": "address",
          "name": "operator",
          "type": "address"
        },
        {
          "internalType": "bool",
          "name": "approved",
          "type": "bool"
        }
      ],
      "name": "setApprovalForAll",
      "outputs": [],
      "stateMutability": "nonpayable",
      "type": "function"
    },
    {
      "inputs": [],
      "name": "startGrowing",
      "outputs": [],
      "stateMutability": "nonpayable",
      "type": "function"
    },
    {
      "inputs": [],
      "name": "startSale",
      "outputs": [],
      "stateMutability": "nonpayable",
      "type": "function"
    },
    {
      "inputs": [
        {
          "internalType": "bytes4",
          "name": "interfaceId",
          "type": "bytes4"
        }
      ],
      "name": "supportsInterface",
      "outputs": [
        {
          "internalType": "bool",
          "name": "",
          "type": "bool"
        }
      ],
      "stateMutability": "view",
      "type": "function"
    },
    {
      "inputs": [],
      "name": "symbol",
      "outputs": [
        {
          "internalType": "string",
          "name": "",
          "type": "string"
        }
      ],
      "stateMutability": "view",
      "type": "function"
    },
    {
      "inputs": [
        {
          "internalType": "uint256",
          "name": "index",
          "type": "uint256"
        }
      ],
      "name": "tokenByIndex",
      "outputs": [
        {
          "internalType": "uint256",
          "name": "",
          "type": "uint256"
        }
      ],
      "stateMutability": "view",
      "type": "function"
    },
    {
      "inputs": [
        {
          "internalType": "address",
          "name": "owner",
          "type": "address"
        },
        {
          "internalType": "uint256",
          "name": "index",
          "type": "uint256"
        }
      ],
      "name": "tokenOfOwnerByIndex",
      "outputs": [
        {
          "internalType": "uint256",
          "name": "",
          "type": "uint256"
        }
      ],
      "stateMutability": "view",
      "type": "function"
    },
    {
      "inputs": [
        {
          "internalType": "uint256",
          "name": "tokenId",
          "type": "uint256"
        }
      ],
      "name": "tokenURI",
      "outputs": [
        {
          "internalType": "string",
          "name": "",
          "type": "string"
        }
      ],
      "stateMutability": "view",
      "type": "function"
    },
    {
      "inputs": [],
      "name": "totalSupply",
      "outputs": [
        {
          "internalType": "uint256",
          "name": "",
          "type": "uint256"
        }
      ],
      "stateMutability": "view",
      "type": "function"
    },
    {
      "inputs": [
        {
          "internalType": "address",
          "name": "from",
          "type": "address"
        },
        {
          "internalType": "address",
          "name": "to",
          "type": "address"
        },
        {
          "internalType": "uint256",
          "name": "tokenId",
          "type": "uint256"
        }
      ],
      "name": "transferFrom",
      "outputs": [],
      "stateMutability": "nonpayable",
      "type": "function"
    },
    {
      "inputs": [
        {
          "internalType": "address",
          "name": "newOwner",
          "type": "address"
        }
      ],
      "name": "transferOwnership",
      "outputs": [],
      "stateMutability": "nonpayable",
      "type": "function"
    },
    {
      "inputs": [],
      "name": "unpause",
      "outputs": [],
      "stateMutability": "nonpayable",
      "type": "function"
    },
    {
      "inputs": [
        {
          "internalType": "uint256",
          "name": "tokenId",
          "type": "uint256"
        }
      ],
      "name": "water",
      "outputs": [],
      "stateMutability": "nonpayable",
      "type": "function"
    },
    {
      "inputs": [
        {
          "internalType": "uint256",
          "name": "units",
          "type": "uint256"
        }
      ],
      "name": "webMint",
      "outputs": [],
      "stateMutability": "payable",
      "type": "function"
    },
    {
      "inputs": [],
      "name": "withdraw",
      "outputs": [],
      "stateMutability": "nonpayable",
      "type": "function"
    },
    {
      "stateMutability": "payable",
      "type": "receive"
    }
  ],
  "transactionHash": "0xea9e7ecf0f57a3d03ba99b773ca4e44355e04dd7d072c3412612da53e7452a0f",
  "args": [],
  "solcInputHash": "4f9b70493defebe2f15081e93e9ddfbb",
  "bytecode": "0x600f805461ffff191690556101c060405260006080908152610c0260a0526117ba60c052611f8a60e0526123726101005261256661012052612660610140526126c4610160526126f66101805261270f6101a0526200006390601090600a62000b0c565b506040805161018081018252601761014082019081527f7368656e7a68656e696361206f72636869646163656165000000000000000000610160830152815281518083018352601881527f7068616c61656e6f70736973206d6963686f6c69747a69690000000000000000602082810191909152808301919091528251808401845260158082527f6775617269616e74686520617572616e74696163610000000000000000000000828401528385019190915283518085018552600e81526d76616e646120636f6572756c656160901b818401526060840152835180850185528181527f637970726970656469756d2063616c63656f6c7573000000000000000000000081840152608084015283518085018552601981527f70617068696f706564696c756d20766965746e616d656e7365000000000000008184015260a08401528351808501855260128152716d696c746f6e6961206b61796173696d616560701b8184015260c084015283518085018552601381527f706c6174616e746865726120617a6f72696361000000000000000000000000008184015260e0840152835180850185529081527f64656e64726f7068796c6178206c696e64656e69690000000000000000000000818301526101008301528251808401909352601d83527f70617068696f706564696c756d20726f7468736368696c6469616e756d000000908301526101208101919091526200028390601190600a62000ba9565b50604080516101c08101909152604b610140820181815282916200505f61016084013981526020016040518060800160405280604c815260200162004ef5604c9139815260200160405180608001604052806049815260200162005183604991398152602001604051806080016040528060428152602001620050f060429139815260200160405180608001604052806049815260200162004eac6049913981526020016040518060800160405280604d815260200162004fc9604d91398152602001604051806080016040528060468152602001620050aa604691398152602001604051806080016040528060478152602001620052f96047913981526020016040518060800160405280604981526020016200521960499139815260200160405180608001604052806051815260200162004e14605191399052620003cf90601b90600a62000ba9565b50604080516101c08101909152604b61014082018181528291620052ae61016084013981526020016040518060800160405280604c815260200162005262604c913981526020016040518060800160405280604981526020016200501660499139815260200160405180608001604052806042815260200162004f4160429139815260200160405180608001604052806049815260200162004d826049913981526020016040518060800160405280604d8152602001620051cc604d9139815260200160405180608001604052806046815260200162004f8360469139815260200160405180608001604052806047815260200162004e6560479139815260200160405180608001604052806049815260200162004dcb604991398152602001604051806080016040528060518152602001620051326051913990526200051b90602590600a62000ba9565b506040518060400160405280600c81526020016b43727970744f72636869647360a01b8152506040518060400160405280600581526020016413d490d21160da1b81525060405180604001604052806007815260200166697066733a2f2f60c81b8152508282620005996301ffc9a760e01b6200093660201b60201c565b8151620005ae90600790602085019062000bfc565b508051620005c490600890602084019062000bfc565b50620005e06380ac58cd60e01b6001600160e01b036200093616565b620005fb635b5e139f60e01b6001600160e01b036200093616565b6200061663780e9d6360e01b6001600160e01b036200093616565b5050600b805460ff191690556200064a60006200063b6001600160e01b03620009be16565b6001600160e01b03620009c316565b604080516a4d494e5445525f524f4c4560a81b8152905190819003600b01902062000682906200063b6001600160e01b03620009be16565b604080516a5041555345525f524f4c4560a81b8152905190819003600b019020620006ba906200063b6001600160e01b03620009be16565b620006ce816001600160e01b03620009dc16565b5050506000620006e3620009be60201b60201c565b600d80546001600160a01b0319166001600160a01b038316908117909155604051919250906000907f8be0079c531659141344cd1fd0a4f28419497f9722a3daafe3b4186f6b6457e0908290a35060005b600a8110156200092f57601b81600a81106200074c57fe5b0160316000601184600a81106200075f57fe5b6040805160208082019081529290930180546002600182161561010002600019019091160491840182905292829160609091019084908015620007e65780601f10620007ba57610100808354040283529160200191620007e6565b820191906000526020600020905b815481529060010190602001808311620007c857829003601f168201915b50509250505060405160208183030381529060405280519060200120815260200190815260200160002090805460018160011615610100020316600290046200083192919062000c7d565b50602581600a81106200084057fe5b0160326000601184600a81106200085357fe5b6040805160208082019081529290930180546002600182161561010002600019019091160491840182905292829160609091019084908015620008da5780601f10620008ae57610100808354040283529160200191620008da565b820191906000526020600020905b815481529060010190602001808311620008bc57829003601f168201915b50509250505060405160208183030381529060405280519060200120815260200190815260200160002090805460018160011615610100020316600290046200092592919062000c7d565b5060010162000734565b5062000da9565b6001600160e01b0319808216141562000996576040805162461bcd60e51b815260206004820152601c60248201527f4552433136353a20696e76616c696420696e7465726661636520696400000000604482015290519081900360640190fd5b6001600160e01b0319166000908152600160208190526040909120805460ff19169091179055565b335b90565b620009d882826001600160e01b03620009f116565b5050565b8051620009d890600a90602084019062000bfc565b60008281526020818152604090912062000a1691839062002f9962000a73821b17901c565b15620009d85762000a2f6001600160e01b03620009be16565b6001600160a01b0316816001600160a01b0316837f2f8788117e7eff1d82e926ec794901d17c78024a50270940304540a733656f0d60405160405180910390a45050565b600062000a93836001600160a01b0384166001600160e01b0362000a9c16565b90505b92915050565b600062000ab383836001600160e01b0362000af416565b62000aeb5750815460018181018455600084815260208082209093018490558454848252828601909352604090209190915562000a96565b50600062000a96565b60009081526001919091016020526040902054151590565b60018301918390821562000b975791602002820160005b8382111562000b6557835183826101000a81548161ffff021916908361ffff160217905550926020019260020160208160010104928301926001030262000b23565b801562000b955782816101000a81549061ffff021916905560020160208160010104928301926001030262000b65565b505b5062000ba592915062000cf7565b5090565b82600a810192821562000bee579160200282015b8281111562000bee578251805162000bdd91849160209091019062000bfc565b509160200191906001019062000bbd565b5062000ba592915062000d19565b828054600181600116156101000203166002900490600052602060002090601f016020900481019282601f1062000c3f57805160ff191683800117855562000c6f565b8280016001018555821562000c6f579182015b8281111562000c6f57825182559160200191906001019062000c52565b5062000ba592915062000d41565b828054600181600116156101000203166002900490600052602060002090601f016020900481019282601f1062000cb8578054855562000c6f565b8280016001018555821562000c6f57600052602060002091601f016020900482015b8281111562000c6f57825482559160010191906001019062000cda565b620009c091905b8082111562000ba557805461ffff1916815560010162000cfe565b620009c091905b8082111562000ba557600062000d37828262000d5e565b5060010162000d20565b620009c091905b8082111562000ba5576000815560010162000d48565b50805460018160011615610100020316600290046000825580601f1062000d86575062000da6565b601f01602090049060005260206000209081019062000da6919062000d41565b50565b613fc98062000db96000396000f3fe6080604052600436106102e85760003560e01c80636c0360eb11610190578063a7eec44b116100dc578063cac21c8f11610095578063e63ab1e91161006f578063e63ab1e914610ca4578063e985e9c514610cb9578063f2fde38b14610cf4578063ffee200c14610d27576102ef565b8063cac21c8f14610ba6578063d539139314610c56578063d547741f14610c6b576102ef565b8063a7eec44b146109f2578063b66a0e5d14610a1c578063b7aaba2014610a31578063b88d4fde14610a7f578063c87b56dd14610b52578063ca15c87314610b7c576102ef565b80639010d07c116101495780639981d4a1116101235780639981d4a1146109705780639d1b464a1461098d578063a217fddf146109a2578063a22cb465146109b7576102ef565b80639010d07c146108f257806391d148541461092257806395d89b411461095b576102ef565b80636c0360eb1461083b57806370a0823114610850578063715018a6146108835780637fd8d953146108985780638456cb59146108c85780638da5cb5b146108dd576102ef565b806336568abe1161024f5780635c975abb116102085780636352211e116101e25780636352211e1461079f5780636573c787146107c95780636a627842146107f35780636b0c004d14610826576102ef565b80635c975abb1461069b57806360316801146106b057806362ff09d614610775576102ef565b806336568abe146105a15780633ccfd60b146105da5780633f4ba83a146105ef57806342842e0e1461060457806342966c68146106475780634f6ccce714610671576102ef565b8063182199cd116102a1578063182199cd1461048357806323b872dd146104ad578063248a9ca3146104f0578063277dec921461051a5780632f2ff15d1461052f5780632f745c5914610568576102ef565b806301ffc9a7146102f457806306fdde031461033c578063081812fc146103c6578063095ea7b31461040c578063179f0b0a1461044757806318160ddd1461046e576102ef565b366102ef57005b600080fd5b34801561030057600080fd5b506103286004803603602081101561031757600080fd5b50356001600160e01b031916610d3c565b604080519115158252519081900360200190f35b34801561034857600080fd5b50610351610d5f565b6040805160208082528351818301528351919283929083019185019080838360005b8381101561038b578181015183820152602001610373565b50505050905090810190601f1680156103b85780820380516001836020036101000a031916815260200191505b509250505060405180910390f35b3480156103d257600080fd5b506103f0600480360360208110156103e957600080fd5b5035610df6565b604080516001600160a01b039092168252519081900360200190f35b34801561041857600080fd5b506104456004803603604081101561042f57600080fd5b506001600160a01b038135169060200135610e58565b005b34801561045357600080fd5b5061045c610f33565b60408051918252519081900360200190f35b34801561047a57600080fd5b5061045c610f3a565b34801561048f57600080fd5b50610328600480360360208110156104a657600080fd5b5035610f4b565b3480156104b957600080fd5b50610445600480360360608110156104d057600080fd5b506001600160a01b03813581169160208101359091169060400135610f6a565b3480156104fc57600080fd5b5061045c6004803603602081101561051357600080fd5b5035610fc1565b34801561052657600080fd5b50610445610fd6565b34801561053b57600080fd5b506104456004803603604081101561055257600080fd5b50803590602001356001600160a01b0316611049565b34801561057457600080fd5b5061045c6004803603604081101561058b57600080fd5b506001600160a01b0381351690602001356110b5565b3480156105ad57600080fd5b50610445600480360360408110156105c457600080fd5b50803590602001356001600160a01b03166110e6565b3480156105e657600080fd5b50610445611147565b3480156105fb57600080fd5b506104456111d8565b34801561061057600080fd5b506104456004803603606081101561062757600080fd5b506001600160a01b03813581169160208101359091169060400135611249565b34801561065357600080fd5b506104456004803603602081101561066a57600080fd5b5035611264565b34801561067d57600080fd5b5061045c6004803603602081101561069457600080fd5b50356112b6565b3480156106a757600080fd5b506103286112d2565b3480156106bc57600080fd5b506106da600480360360208110156106d357600080fd5b50356112db565b60405180806020018581526020018481526020018360038111156106fa57fe5b60ff168152602001828103825286818151815260200191508051906020019080838360005b8381101561073757818101518382015260200161071f565b50505050905090810190601f1680156107645780820380516001836020036101000a031916815260200191505b509550505050505060405180910390f35b34801561078157600080fd5b5061045c6004803603602081101561079857600080fd5b50356113a0565b3480156107ab57600080fd5b506103f0600480360360208110156107c257600080fd5b50356113b2565b3480156107d557600080fd5b50610328600480360360208110156107ec57600080fd5b50356113e0565b3480156107ff57600080fd5b506104456004803603602081101561081657600080fd5b50356001600160a01b0316611400565b34801561083257600080fd5b5061045c611484565b34801561084757600080fd5b5061035161148a565b34801561085c57600080fd5b5061045c6004803603602081101561087357600080fd5b50356001600160a01b03166114eb565b34801561088f57600080fd5b50610445611553565b3480156108a457600080fd5b50610445600480360360408110156108bb57600080fd5b50803590602001356115ff565b3480156108d457600080fd5b5061044561169b565b3480156108e957600080fd5b506103f061170a565b3480156108fe57600080fd5b506103f06004803603604081101561091557600080fd5b5080359060200135611719565b34801561092e57600080fd5b506103286004803603604081101561094557600080fd5b50803590602001356001600160a01b0316611737565b34801561096757600080fd5b50610351611755565b6104456004803603602081101561098657600080fd5b50356117b6565b34801561099957600080fd5b5061045c611a5c565b3480156109ae57600080fd5b5061045c611b18565b3480156109c357600080fd5b50610445600480360360408110156109da57600080fd5b506001600160a01b0381351690602001351515611b1d565b3480156109fe57600080fd5b5061044560048036036020811015610a1557600080fd5b5035611c22565b348015610a2857600080fd5b50610445611ce0565b348015610a3d57600080fd5b50610a5b60048036036020811015610a5457600080fd5b5035611d51565b60405180826003811115610a6b57fe5b60ff16815260200191505060405180910390f35b348015610a8b57600080fd5b5061044560048036036080811015610aa257600080fd5b6001600160a01b03823581169260208101359091169160408201359190810190608081016060820135640100000000811115610add57600080fd5b820183602082011115610aef57600080fd5b80359060200191846001830284011164010000000083111715610b1157600080fd5b91908080601f016020809104026020016040519081016040528093929190818152602001838380828437600092019190915250929550611ed1945050505050565b348015610b5e57600080fd5b5061035160048036036020811015610b7557600080fd5b5035611f29565b348015610b8857600080fd5b5061045c60048036036020811015610b9f57600080fd5b5035612327565b348015610bb257600080fd5b50610bd060048036036020811015610bc957600080fd5b503561233e565b6040518080602001848152602001838152602001828103825285818151815260200191508051906020019080838360005b83811015610c19578181015183820152602001610c01565b50505050905090810190601f168015610c465780820380516001836020036101000a031916815260200191505b5094505050505060405180910390f35b348015610c6257600080fd5b5061045c6123eb565b348015610c7757600080fd5b5061044560048036036040811015610c8e57600080fd5b50803590602001356001600160a01b031661240e565b348015610cb057600080fd5b5061045c612467565b348015610cc557600080fd5b5061032860048036036040811015610cdc57600080fd5b506001600160a01b038135811691602001351661248a565b348015610d0057600080fd5b5061044560048036036020811015610d1757600080fd5b50356001600160a01b03166124b8565b348015610d3357600080fd5b5061045c6125bb565b6001600160e01b0319811660009081526001602052604090205460ff165b919050565b60078054604080516020601f6002600019610100600188161502019095169490940493840181900481028201810190925282815260609390929091830182828015610deb5780601f10610dc057610100808354040283529160200191610deb565b820191906000526020600020905b815481529060010190602001808311610dce57829003601f168201915b505050505090505b90565b6000610e01826125c1565b610e3c5760405162461bcd60e51b815260040180806020018281038252602c815260200180613d6f602c913960400191505060405180910390fd5b506000908152600560205260409020546001600160a01b031690565b6000610e63826113b2565b9050806001600160a01b0316836001600160a01b03161415610eb65760405162461bcd60e51b8152600401808060200182810382526021815260200180613e146021913960400191505060405180910390fd5b806001600160a01b0316610ec86125d4565b6001600160a01b03161480610ee95750610ee981610ee46125d4565b61248a565b610f245760405162461bcd60e51b8152600401808060200182810382526038815260200180613c7e6038913960400191505060405180910390fd5b610f2e83836125d8565b505050565b62093a8081565b6000610f466003612646565b905090565b60006002610f5883611d51565b6003811115610f6357fe5b1492915050565b610f7b610f756125d4565b82612651565b610fb65760405162461bcd60e51b8152600401808060200182810382526031815260200180613e5c6031913960400191505060405180910390fd5b610f2e8383836126f5565b60009081526020819052604090206002015490565b610fde6125d4565b6001600160a01b0316610fef61170a565b6001600160a01b031614611038576040805162461bcd60e51b81526020600482018190526024820152600080516020613d9b833981519152604482015290519081900360640190fd5b600f805461ff001916610100179055565b60008281526020819052604090206002015461106c906110676125d4565b611737565b6110a75760405162461bcd60e51b815260040180806020018281038252602f815260200180613a97602f913960400191505060405180910390fd5b6110b18282612853565b5050565b6001600160a01b03821660009081526002602052604081206110dd908363ffffffff6128c216565b90505b92915050565b6110ee6125d4565b6001600160a01b0316816001600160a01b03161461113d5760405162461bcd60e51b815260040180806020018281038252602f815260200180613f65602f913960400191505060405180910390fd5b6110b182826128ce565b61114f6125d4565b6001600160a01b031661116061170a565b6001600160a01b0316146111a9576040805162461bcd60e51b81526020600482018190526024820152600080516020613d9b833981519152604482015290519081900360640190fd5b6040514790339082156108fc029083906000818181858888f193505050501580156110b1573d6000803e3d6000fd5b604080516a5041555345525f524f4c4560a81b8152905190819003600b019020611204906110676125d4565b61123f5760405162461bcd60e51b8152600401808060200182810382526040815260200180613f256040913960400191505060405180910390fd5b61124761293d565b565b610f2e83838360405180602001604052806000815250611ed1565b61126f610f756125d4565b6112aa5760405162461bcd60e51b8152600401808060200182810382526030815260200180613ef56030913960400191505060405180910390fd5b6112b3816129dd565b50565b6000806112ca60038463ffffffff612ab616565b509392505050565b600b5460ff1690565b6000818152600e6020526040812060018101546002820154606093928392839261130488611d51565b8354604080516020601f6002600019610100600188161502019095169490940493840181900481028201810190925282815291869183018282801561138a5780601f1061135f5761010080835404028352916020019161138a565b820191906000526020600020905b81548152906001019060200180831161136d57829003601f168201915b5050505050935093509350935093509193509193565b60306020526000908152604090205481565b60006110e082604051806060016040528060298152602001613ce0602991396003919063ffffffff612ad216565b600060036113ed83611d51565b60038111156113f857fe5b141592915050565b604080516a4d494e5445525f524f4c4560a81b8152905190819003600b01902061142c906110676125d4565b6114675760405162461bcd60e51b815260040180806020018281038252603d815260200180613eb8603d913960400191505060405180910390fd5b61147a81611475600c612ae9565b612aed565b6112b3600c612c27565b61271081565b600a8054604080516020601f6002600019610100600188161502019095169490940493840181900481028201810190925282815260609390929091830182828015610deb5780601f10610dc057610100808354040283529160200191610deb565b60006001600160a01b0382166115325760405162461bcd60e51b815260040180806020018281038252602a815260200180613cb6602a913960400191505060405180910390fd5b6001600160a01b03821660009081526002602052604090206110e090612646565b61155b6125d4565b6001600160a01b031661156c61170a565b6001600160a01b0316146115b5576040805162461bcd60e51b81526020600482018190526024820152600080516020613d9b833981519152604482015290519081900360640190fd5b600d546040516000916001600160a01b0316907f8be0079c531659141344cd1fd0a4f28419497f9722a3daafe3b4186f6b6457e0908390a3600d80546001600160a01b0319169055565b600f54610100900460ff166116455760405162461bcd60e51b8152600401808060200182810382526027815260200180613b4c6027913960400191505060405180910390fd5b6116566116506125d4565b83612651565b6116915760405162461bcd60e51b815260040180806020018281038252602b815260200180613e8d602b913960400191505060405180910390fd5b610f2e8282612c30565b604080516a5041555345525f524f4c4560a81b8152905190819003600b0190206116c7906110676125d4565b6117025760405162461bcd60e51b815260040180806020018281038252603e815260200180613b73603e913960400191505060405180910390fd5b611247612c76565b600d546001600160a01b031690565b60008281526020819052604081206110dd908363ffffffff6128c216565b60008281526020819052604081206110dd908363ffffffff612cf916565b60088054604080516020601f6002600019610100600188161502019095169490940493840181900481028201810190925282815260609390929091830182828015610deb5780601f10610dc057610100808354040283529160200191610deb565b600f5460ff16611805576040805162461bcd60e51b8152602060048201526015602482015274151a1948139d5c9cd95c9e481a5cc818db1bdcd959605a1b604482015290519081900360640190fd5b61180d610f3a565b6127100381111561185d576040805162461bcd60e51b8152602060048201526015602482015274139bdd08195b9bdd59da08189d5b189cc81b19599d605a1b604482015290519081900360640190fd5b612710611868610f3a565b106118b3576040805162461bcd60e51b815260206004820152601660248201527514d85b19481a185cc8185b1c9958591e48195b99195960521b604482015290519081900360640190fd5b6000811180156118c4575060148111155b6118ff5760405162461bcd60e51b8152600401808060200182810382526030815260200180613de46030913960400191505060405180910390fd5b61271061191361190d610f3a565b83612d0e565b1115611966576040805162461bcd60e51b815260206004820152601860248201527f45786365656473204d41585f43525950544f5243484944530000000000000000604482015290519081900360640190fd5b611977611971611a5c565b82612d68565b3410156119b55760405162461bcd60e51b8152600401808060200182810382526023815260200180613d096023913960400191505060405180910390fd5b60005b818110156110b1576119ca602f612c27565b60006119d6602f612ae9565b6040805160a081018252600660608201908152656772616e756d60d01b608083015281526000196020808301919091526000828401819052848152600e8252929092208151805194955091939092611a32928492910190613954565b5060208201516001820155604090910151600290910155611a533382612dc1565b506001016119b8565b600080611a67610f3a565b90506126ac8110611a8357670de0b6b3a7640000915050610df3565b61251c8110611a9d576708e1bc9bf0400000915050610df3565b611d4c8110611ab757670470de4df8200000915050610df3565b610dac8110611ad1576702386f26fc100000915050610df3565b6105dc8110611aeb5767011c37937e080000915050610df3565b6101f48110611b045766d529ae9e860000915050610df3565b668e1bc9bf040000915050610df3565b5090565b600081565b611b256125d4565b6001600160a01b0316826001600160a01b03161415611b8b576040805162461bcd60e51b815260206004820152601960248201527f4552433732313a20617070726f766520746f2063616c6c657200000000000000604482015290519081900360640190fd5b8060066000611b986125d4565b6001600160a01b03908116825260208083019390935260409182016000908120918716808252919093529120805460ff191692151592909217909155611bdc6125d4565b60408051841515815290516001600160a01b0392909216917f17307eab39ab6107e8899845ad3d59bd9653f200f220920489ca2b5937696c319181900360200190a35050565b611c2d610f756125d4565b611c685760405162461bcd60e51b8152600401808060200182810382526027815260200180613bfb6027913960400191505060405180910390fd5b611c71816113e0565b611c7a576112b3565b6000818152600e602052604081206002810154600182015491929091611c9e612ddb565b0390506000611cb08262093a80612ddf565b905080831115611cc357505050506112b3565b6000611cd0846001612d0e565b6002909501949094555050505050565b611ce86125d4565b6001600160a01b0316611cf961170a565b6001600160a01b031614611d42576040805162461bcd60e51b81526020600482018190526024820152600080516020613d9b833981519152604482015290519081900360640190fd5b600f805460ff19166001179055565b6000611d5b6139ce565b6000838152600e60209081526040918290208251815460026001821615610100026000190190911604601f81018490049093028101608090810190945260608101838152909391928492849190840182828015611df95780601f10611dce57610100808354040283529160200191611df9565b820191906000526020600020905b815481529060010190602001808311611ddc57829003601f168201915b50505050508152602001600182015481526020016002820154815250509050806020015160001415611e2f576000915050610d5a565b60001981602001511415611e47576001915050610d5a565b60408101516020820151600090611e5c612ddb565b0390506000611e6e8262093a80612ddf565b90506000611e7f8362093a80612e46565b905081841415611e9757600295505050505050610d5a565b81611ea3856001612d0e565b148015611eb15750612a3081105b15611ec457600295505050505050610d5a565b5060039695505050505050565b611edc6116506125d4565b611f175760405162461bcd60e51b8152600401808060200182810382526031815260200180613e5c6031913960400191505060405180910390fd5b611f2384848484612ead565b50505050565b606080611f35836112db565b5091925060019150611f449050565b611f4d84611d51565b6003811115611f5857fe5b141561203657611f6661148a565b6040518060600160405280602e8152602001613b1e602e91396040516020018083805190602001908083835b60208310611fb15780518252601f199092019160209182019101611f92565b51815160209384036101000a600019018019909216911617905285519190930192850191508083835b60208310611ff95780518252601f199092019160209182019101611fda565b6001836020036101000a03801982511681845116808217855250505050505090500192505050604051602081830303815290604052915050610d5a565b600261204184611d51565b600381111561204c57fe5b14156121bd5761205a61148a565b60316000836040516020018080602001828103825283818151815260200191508051906020019080838360005b8381101561209f578181015183820152602001612087565b50505050905090810190601f1680156120cc5780820380516001836020036101000a031916815260200191505b50925050506040516020818303038152906040528051906020012081526020019081526020016000206040516020018083805190602001908083835b602083106121275780518252601f199092019160209182019101612108565b6001836020036101000a038019825116818451168082178552505050505050905001828054600181600116156101000203166002900480156121a05780601f1061217e5761010080835404028352918201916121a0565b820191906000526020600020905b81548152906001019060200180831161218c575b505092505050604051602081830303815290604052915050610d5a565b6121c561148a565b60326000836040516020018080602001828103825283818151815260200191508051906020019080838360005b8381101561220a5781810151838201526020016121f2565b50505050905090810190601f1680156122375780820380516001836020036101000a031916815260200191505b50925050506040516020818303038152906040528051906020012081526020019081526020016000206040516020018083805190602001908083835b602083106122925780518252601f199092019160209182019101612273565b6001836020036101000a0380198251168184511680821785525050505050509050018280546001816001161561010002031660029004801561230b5780601f106122e957610100808354040283529182019161230b565b820191906000526020600020905b8154815290600101906020018083116122f7575b505060408051601f198184030181529190529695505050505050565b60008181526020819052604081206110e090612646565b600e6020908152600091825260409182902080548351601f600260001961010060018616150201909316929092049182018490048402810184019094528084529092918391908301828280156123d55780601f106123aa576101008083540402835291602001916123d5565b820191906000526020600020905b8154815290600101906020018083116123b857829003601f168201915b5050505050908060010154908060020154905083565b604080516a4d494e5445525f524f4c4560a81b8152905190819003600b01902081565b60008281526020819052604090206002015461242c906110676125d4565b61113d5760405162461bcd60e51b8152600401808060200182810382526030815260200180613c4e6030913960400191505060405180910390fd5b604080516a5041555345525f524f4c4560a81b8152905190819003600b01902081565b6001600160a01b03918216600090815260066020908152604080832093909416825291909152205460ff1690565b6124c06125d4565b6001600160a01b03166124d161170a565b6001600160a01b03161461251a576040805162461bcd60e51b81526020600482018190526024820152600080516020613d9b833981519152604482015290519081900360640190fd5b6001600160a01b03811661255f5760405162461bcd60e51b8152600401808060200182810382526026815260200180613af86026913960400191505060405180910390fd5b600d546040516001600160a01b038084169216907f8be0079c531659141344cd1fd0a4f28419497f9722a3daafe3b4186f6b6457e090600090a3600d80546001600160a01b0319166001600160a01b0392909216919091179055565b612a3081565b60006110e060038363ffffffff612eff16565b3390565b600081815260056020526040902080546001600160a01b0319166001600160a01b038416908117909155819061260d826113b2565b6001600160a01b03167f8c5be1e5ebec7d5bd14f71427d1e84f3dd0314c0f7b2291e5b200ac8c7c3b92560405160405180910390a45050565b60006110e082612ae9565b600061265c826125c1565b6126975760405162461bcd60e51b815260040180806020018281038252602c815260200180613c22602c913960400191505060405180910390fd5b60006126a2836113b2565b9050806001600160a01b0316846001600160a01b031614806126dd5750836001600160a01b03166126d284610df6565b6001600160a01b0316145b806126ed57506126ed818561248a565b949350505050565b826001600160a01b0316612708826113b2565b6001600160a01b03161461274d5760405162461bcd60e51b8152600401808060200182810382526029815260200180613dbb6029913960400191505060405180910390fd5b6001600160a01b0382166127925760405162461bcd60e51b8152600401808060200182810382526024815260200180613bb16024913960400191505060405180910390fd5b61279d838383612f0b565b6127a86000826125d8565b6001600160a01b03831660009081526002602052604090206127d0908263ffffffff612f6b16565b506001600160a01b03821660009081526002602052604090206127f9908263ffffffff612f7716565b5061280c6003828463ffffffff612f8316565b5080826001600160a01b0316846001600160a01b03167fddf252ad1be2c89b69c2b068fc378daa952ba7f163c4a11628f55a4df523b3ef60405160405180910390a4505050565b6000828152602081905260409020612871908263ffffffff612f9916565b156110b15761287e6125d4565b6001600160a01b0316816001600160a01b0316837f2f8788117e7eff1d82e926ec794901d17c78024a50270940304540a733656f0d60405160405180910390a45050565b60006110dd8383612fae565b60008281526020819052604090206128ec908263ffffffff61301216565b156110b1576128f96125d4565b6001600160a01b0316816001600160a01b0316837ff6391f5c32d9c69d2a47ea670b442974b53935d1edc7fd64eb21e047a839171b60405160405180910390a45050565b6129456112d2565b61298d576040805162461bcd60e51b815260206004820152601460248201527314185d5cd8589b194e881b9bdd081c185d5cd95960621b604482015290519081900360640190fd5b600b805460ff191690557f5db9ee0a495bf2e6ff9c91a7834c1ba4fdd244a5e8aa4e537bd38aeae4b073aa6129c06125d4565b604080516001600160a01b039092168252519081900360200190a1565b60006129e8826113b2565b90506129f681600084612f0b565b612a016000836125d8565b6000828152600960205260409020546002600019610100600184161502019091160415612a3f576000828152600960205260408120612a3f916139ef565b6001600160a01b0381166000908152600260205260409020612a67908363ffffffff612f6b16565b50612a7960038363ffffffff61302716565b5060405182906000906001600160a01b038416907fddf252ad1be2c89b69c2b068fc378daa952ba7f163c4a11628f55a4df523b3ef908390a45050565b6000808080612ac58686613033565b9097909650945050505050565b6000612adf8484846130ae565b90505b9392505050565b5490565b6001600160a01b038216612b48576040805162461bcd60e51b815260206004820181905260248201527f4552433732313a206d696e7420746f20746865207a65726f2061646472657373604482015290519081900360640190fd5b612b51816125c1565b15612ba3576040805162461bcd60e51b815260206004820152601c60248201527f4552433732313a20746f6b656e20616c7265616479206d696e74656400000000604482015290519081900360640190fd5b612baf60008383612f0b565b6001600160a01b0382166000908152600260205260409020612bd7908263ffffffff612f7716565b50612bea6003828463ffffffff612f8316565b5060405181906001600160a01b038416906000907fddf252ad1be2c89b69c2b068fc378daa952ba7f163c4a11628f55a4df523b3ef908290a45050565b80546001019055565b6040805142602080830191909152448284015260608083018590528351808403909101815260809092019092528051910120600090612c6f8482613178565b5092915050565b612c7e6112d2565b15612cc3576040805162461bcd60e51b815260206004820152601060248201526f14185d5cd8589b194e881c185d5cd95960821b604482015290519081900360640190fd5b600b805460ff191660011790557f62e78cea01bee320cd4e420270b5ea74000d11b0c9f74754ebdbfc544b05a2586129c06125d4565b60006110dd836001600160a01b0384166131d2565b6000828201838110156110dd576040805162461bcd60e51b815260206004820152601b60248201527f536166654d6174683a206164646974696f6e206f766572666c6f770000000000604482015290519081900360640190fd5b600082612d77575060006110e0565b82820282848281612d8457fe5b04146110dd5760405162461bcd60e51b8152600401808060200182810382526021815260200180613d4e6021913960400191505060405180910390fd5b6110b18282604051806020016040528060008152506131ea565b4290565b6000808211612e35576040805162461bcd60e51b815260206004820152601a60248201527f536166654d6174683a206469766973696f6e206279207a65726f000000000000604482015290519081900360640190fd5b818381612e3e57fe5b049392505050565b6000808211612e9c576040805162461bcd60e51b815260206004820152601860248201527f536166654d6174683a206d6f64756c6f206279207a65726f0000000000000000604482015290519081900360640190fd5b818381612ea557fe5b069392505050565b612eb88484846126f5565b612ec48484848461323c565b611f235760405162461bcd60e51b8152600401808060200182810382526032815260200180613ac66032913960400191505060405180910390fd5b60006110dd83836131d2565b6001600160a01b0382161580612f255750612f25816113e0565b612f605760405162461bcd60e51b8152600401808060200182810382526027815260200180613e356027913960400191505060405180910390fd5b610f2e8383836133bc565b60006110dd83836133c7565b60006110dd838361348d565b6000612adf84846001600160a01b0385166134d7565b60006110dd836001600160a01b03841661348d565b81546000908210612ff05760405162461bcd60e51b8152600401808060200182810382526022815260200180613a4a6022913960400191505060405180910390fd5b826000018281548110612fff57fe5b9060005260206000200154905092915050565b60006110dd836001600160a01b0384166133c7565b60006110dd838361356e565b8154600090819083106130775760405162461bcd60e51b8152600401808060200182810382526022815260200180613d2c6022913960400191505060405180910390fd5b600084600001848154811061308857fe5b906000526020600020906002020190508060000154816001015492509250509250929050565b600082815260018401602052604081205482816131495760405162461bcd60e51b81526004018080602001828103825283818151815260200191508051906020019080838360005b8381101561310e5781810151838201526020016130f6565b50505050905090810190601f16801561313b5780820380516001836020036101000a031916815260200191505b509250505060405180910390fd5b5084600001600182038154811061315c57fe5b9060005260206000209060020201600101549150509392505050565b6000828152600e60205260409020606061319c61319784612710612e46565b613642565b80519091506131b19083906020840190613954565b506131ba612ddb565b600183015560006131ca856113b2565b505050505050565b60009081526001919091016020526040902054151590565b6131f48383612aed565b613201600084848461323c565b610f2e5760405162461bcd60e51b8152600401808060200182810382526032815260200180613ac66032913960400191505060405180910390fd5b6000613250846001600160a01b031661372e565b61325c575060016126ed565b6060613382630a85bd0160e11b6132716125d4565b88878760405160240180856001600160a01b03166001600160a01b03168152602001846001600160a01b03166001600160a01b0316815260200183815260200180602001828103825283818151815260200191508051906020019080838360005b838110156132ea5781810151838201526020016132d2565b50505050905090810190601f1680156133175780820380516001836020036101000a031916815260200191505b5095505050505050604051602081830303815290604052906001600160e01b0319166020820180516001600160e01b038381831617835250505050604051806060016040528060328152602001613ac6603291396001600160a01b038816919063ffffffff61373416565b9050600081806020019051602081101561339b57600080fd5b50516001600160e01b031916630a85bd0160e11b1492505050949350505050565b610f2e838383613743565b6000818152600183016020526040812054801561348357835460001980830191908101906000908790839081106133fa57fe5b906000526020600020015490508087600001848154811061341757fe5b60009182526020808320909101929092558281526001898101909252604090209084019055865487908061344757fe5b600190038181906000526020600020016000905590558660010160008781526020019081526020016000206000905560019450505050506110e0565b60009150506110e0565b600061349983836131d2565b6134cf575081546001818101845560008481526020808220909301849055845484825282860190935260409020919091556110e0565b5060006110e0565b60008281526001840160205260408120548061353c575050604080518082018252838152602080820184815286546001818101895560008981528481209551600290930290950191825591519082015586548684528188019092529290912055612ae2565b8285600001600183038154811061354f57fe5b9060005260206000209060020201600101819055506000915050612ae2565b6000818152600183016020526040812054801561348357835460001980830191908101906000908790839081106135a157fe5b90600052602060002090600202019050808760000184815481106135c157fe5b60009182526020808320845460029093020191825560019384015491840191909155835482528983019052604090209084019055865487908061360057fe5b60008281526020808220600260001990940193840201828155600190810183905592909355888152898201909252604082209190915594506110e09350505050565b606060005b600a81101561372857601081600a811061365d57fe5b601091828204019190066002029054906101000a900461ffff1661ffff16831161372057601181600a811061368e57fe5b01805460408051602060026001851615610100026000190190941693909304601f810184900484028201840190925281815292918301828280156137135780601f106136e857610100808354040283529160200191613713565b820191906000526020600020905b8154815290600101906020018083116136f657829003601f168201915b5050505050915050610d5a565b600101613647565b50919050565b3b151590565b6060612adf8484600085613792565b61374e838383610f2e565b6137566112d2565b15610f2e5760405162461bcd60e51b815260040180806020018281038252602b815260200180613a6c602b913960400191505060405180910390fd5b6060824710156137d35760405162461bcd60e51b8152600401808060200182810382526026815260200180613bd56026913960400191505060405180910390fd5b6137dc8561372e565b61382d576040805162461bcd60e51b815260206004820152601d60248201527f416464726573733a2063616c6c20746f206e6f6e2d636f6e7472616374000000604482015290519081900360640190fd5b60006060866001600160a01b031685876040518082805190602001908083835b6020831061386c5780518252601f19909201916020918201910161384d565b6001836020036101000a03801982511681845116808217855250505050505090500191505060006040518083038185875af1925050503d80600081146138ce576040519150601f19603f3d011682016040523d82523d6000602084013e6138d3565b606091505b50915091506138e38282866138ee565b979650505050505050565b606083156138fd575081612ae2565b82511561390d5782518084602001fd5b60405162461bcd60e51b815260206004820181815284516024840152845185939192839260440191908501908083836000831561310e5781810151838201526020016130f6565b828054600181600116156101000203166002900490600052602060002090601f016020900481019282601f1061399557805160ff19168380011785556139c2565b828001600101855582156139c2579182015b828111156139c25782518255916020019190600101906139a7565b50611b14929150613a2f565b60405180606001604052806060815260200160008152602001600081525090565b50805460018160011615610100020316600290046000825580601f10613a1557506112b3565b601f0160209004906000526020600020908101906112b391905b610df391905b80821115611b145760008155600101613a3556fe456e756d657261626c655365743a20696e646578206f7574206f6620626f756e64734552433732315061757361626c653a20746f6b656e207472616e73666572207768696c6520706175736564416363657373436f6e74726f6c3a2073656e646572206d75737420626520616e2061646d696e20746f206772616e744552433732313a207472616e7366657220746f206e6f6e20455243373231526563656976657220696d706c656d656e7465724f776e61626c653a206e6577206f776e657220697320746865207a65726f2061646472657373516d5764316d6e374475477978394279664e6571437367645355734a5a316372616769746761796773714476456d4765726d696e6174696f6e2073746172747320323032312d30342d31325431363a30303a30305a4552433732315072657365744d696e7465725061757365724175746f49643a206d75737420686176652070617573657220726f6c6520746f2070617573654552433732313a207472616e7366657220746f20746865207a65726f2061646472657373416464726573733a20696e73756666696369656e742062616c616e636520666f722063616c6c4f6e6c7920746865204f776e65722063616e20776174657220612043727970744f72636869642e4552433732313a206f70657261746f7220717565727920666f72206e6f6e6578697374656e7420746f6b656e416363657373436f6e74726f6c3a2073656e646572206d75737420626520616e2061646d696e20746f207265766f6b654552433732313a20617070726f76652063616c6c6572206973206e6f74206f776e6572206e6f7220617070726f76656420666f7220616c6c4552433732313a2062616c616e636520717565727920666f7220746865207a65726f20616464726573734552433732313a206f776e657220717565727920666f72206e6f6e6578697374656e7420746f6b656e45746865722076616c75652073656e742069732062656c6f7720746865207072696365456e756d657261626c654d61703a20696e646578206f7574206f6620626f756e6473536166654d6174683a206d756c7469706c69636174696f6e206f766572666c6f774552433732313a20617070726f76656420717565727920666f72206e6f6e6578697374656e7420746f6b656e4f776e61626c653a2063616c6c6572206973206e6f7420746865206f776e65724552433732313a207472616e73666572206f6620746f6b656e2074686174206973206e6f74206f776e596f752063616e20706c616e74206d696e696d756d20312c206d6178696d756d2032302043727970744f7263686964734552433732313a20617070726f76616c20746f2063757272656e74206f776e6572446561642043727970744f7263686964732063616e6e6f74206265207472616e736665727265644552433732313a207472616e736665722063616c6c6572206973206e6f74206f776e6572206e6f7220617070726f7665644f6e6c7920746865204f776e65722063616e206765726d696e61746520612043727970744f72636869642e4552433732315072657365744d696e7465725061757365724175746f49643a206d7573742068617665206d696e74657220726f6c6520746f206d696e744552433732314275726e61626c653a2063616c6c6572206973206e6f74206f776e6572206e6f7220617070726f7665644552433732315072657365744d696e7465725061757365724175746f49643a206d75737420686176652070617573657220726f6c6520746f20756e7061757365416363657373436f6e74726f6c3a2063616e206f6e6c792072656e6f756e636520726f6c657320666f722073656c66a2646970667358221220669084c037e9e2730b31d45e8cd7d87fcb21b2d1237df1dee094b97b3922927264736f6c63430006060033516d55384d4e7a6e5436464431763558646e536541366345597178706a374d676b4543706f7433614345526572582f637970726970656469756d2d63616c63656f6c75732e6a736f6e516d55384d4e7a6e5436464431763558646e536541366345597178706a374d676b4543706f7433614345526572582f64656e64726f7068796c61782d6c696e64656e69692e6a736f6e516d56376e735167484e76777952786262685035396948336772715366713367376a6f53506153314a47526d4a612f70617068696f706564696c756d2d726f7468736368696c6469616e756d2e6a736f6e516d55384d4e7a6e5436464431763558646e536541366345597178706a374d676b4543706f7433614345526572582f706c6174616e74686572612d617a6f726963612e6a736f6e516d56376e735167484e76777952786262685035396948336772715366713367376a6f53506153314a47526d4a612f637970726970656469756d2d63616c63656f6c75732e6a736f6e516d56376e735167484e76777952786262685035396948336772715366713367376a6f53506153314a47526d4a612f7068616c61656e6f707369732d6d6963686f6c69747a69692e6a736f6e516d55384d4e7a6e5436464431763558646e536541366345597178706a374d676b4543706f7433614345526572582f76616e64612d636f6572756c65612e6a736f6e516d55384d4e7a6e5436464431763558646e536541366345597178706a374d676b4543706f7433614345526572582f6d696c746f6e69612d6b61796173696d61652e6a736f6e516d56376e735167484e76777952786262685035396948336772715366713367376a6f53506153314a47526d4a612f70617068696f706564696c756d2d766965746e616d656e73652e6a736f6e516d55384d4e7a6e5436464431763558646e536541366345597178706a374d676b4543706f7433614345526572582f6775617269616e7468652d617572616e74696163612e6a736f6e516d56376e735167484e76777952786262685035396948336772715366713367376a6f53506153314a47526d4a612f7368656e7a68656e6963612d6f726368696461636561652e6a736f6e516d56376e735167484e76777952786262685035396948336772715366713367376a6f53506153314a47526d4a612f6d696c746f6e69612d6b61796173696d61652e6a736f6e516d56376e735167484e76777952786262685035396948336772715366713367376a6f53506153314a47526d4a612f76616e64612d636f6572756c65612e6a736f6e516d55384d4e7a6e5436464431763558646e536541366345597178706a374d676b4543706f7433614345526572582f70617068696f706564696c756d2d726f7468736368696c6469616e756d2e6a736f6e516d56376e735167484e76777952786262685035396948336772715366713367376a6f53506153314a47526d4a612f6775617269616e7468652d617572616e74696163612e6a736f6e516d55384d4e7a6e5436464431763558646e536541366345597178706a374d676b4543706f7433614345526572582f70617068696f706564696c756d2d766965746e616d656e73652e6a736f6e516d56376e735167484e76777952786262685035396948336772715366713367376a6f53506153314a47526d4a612f64656e64726f7068796c61782d6c696e64656e69692e6a736f6e516d55384d4e7a6e5436464431763558646e536541366345597178706a374d676b4543706f7433614345526572582f7068616c61656e6f707369732d6d6963686f6c69747a69692e6a736f6e516d55384d4e7a6e5436464431763558646e536541366345597178706a374d676b4543706f7433614345526572582f7368656e7a68656e6963612d6f726368696461636561652e6a736f6e516d56376e735167484e76777952786262685035396948336772715366713367376a6f53506153314a47526d4a612f706c6174616e74686572612d617a6f726963612e6a736f6e",
  "devdoc": {
    "methods": {
      "approve(address,uint256)": {
        "details": "See {IERC721-approve}."
      },
      "balanceOf(address)": {
        "details": "See {IERC721-balanceOf}."
      },
      "baseURI()": {
        "details": "Returns the base URI set via {_setBaseURI}. This will be automatically added as a prefix in {tokenURI} to each token's URI, or to the token ID if no specific URI is set for that token ID."
      },
      "burn(uint256)": {
        "details": "Burns `tokenId`. See {ERC721-_burn}.     * Requirements:     * - The caller must own `tokenId` or be an approved operator."
      },
      "getApproved(uint256)": {
        "details": "See {IERC721-getApproved}."
      },
      "getRoleAdmin(bytes32)": {
        "details": "Returns the admin role that controls `role`. See {grantRole} and {revokeRole}.     * To change a role's admin, use {_setRoleAdmin}."
      },
      "getRoleMember(bytes32,uint256)": {
        "details": "Returns one of the accounts that have `role`. `index` must be a value between 0 and {getRoleMemberCount}, non-inclusive.     * Role bearers are not sorted in any particular way, and their ordering may change at any point.     * WARNING: When using {getRoleMember} and {getRoleMemberCount}, make sure you perform all queries on the same block. See the following https://forum.openzeppelin.com/t/iterating-over-elements-on-enumerableset-in-openzeppelin-contracts/2296[forum post] for more information."
      },
      "getRoleMemberCount(bytes32)": {
        "details": "Returns the number of accounts that have `role`. Can be used together with {getRoleMember} to enumerate all bearers of a role."
      },
      "grantRole(bytes32,address)": {
        "details": "Grants `role` to `account`.     * If `account` had not been already granted `role`, emits a {RoleGranted} event.     * Requirements:     * - the caller must have ``role``'s admin role."
      },
      "hasRole(bytes32,address)": {
        "details": "Returns `true` if `account` has been granted `role`."
      },
      "isApprovedForAll(address,address)": {
        "details": "See {IERC721-isApprovedForAll}."
      },
      "mint(address)": {
        "details": "Creates a new token for `to`. Its token ID will be automatically assigned (and available on the emitted {IERC721-Transfer} event), and the token URI autogenerated based on the base URI passed at construction.     * See {ERC721-_mint}.     * Requirements:     * - the caller must have the `MINTER_ROLE`."
      },
      "name()": {
        "details": "See {IERC721Metadata-name}."
      },
      "owner()": {
        "details": "Returns the address of the current owner."
      },
      "ownerOf(uint256)": {
        "details": "See {IERC721-ownerOf}."
      },
      "pause()": {
        "details": "Pauses all token transfers.     * See {ERC721Pausable} and {Pausable-_pause}.     * Requirements:     * - the caller must have the `PAUSER_ROLE`."
      },
      "paused()": {
        "details": "Returns true if the contract is paused, and false otherwise."
      },
      "renounceOwnership()": {
        "details": "Leaves the contract without owner. It will not be possible to call `onlyOwner` functions anymore. Can only be called by the current owner.     * NOTE: Renouncing ownership will leave the contract without an owner, thereby removing any functionality that is only available to the owner."
      },
      "renounceRole(bytes32,address)": {
        "details": "Revokes `role` from the calling account.     * Roles are often managed via {grantRole} and {revokeRole}: this function's purpose is to provide a mechanism for accounts to lose their privileges if they are compromised (such as when a trusted device is misplaced).     * If the calling account had been granted `role`, emits a {RoleRevoked} event.     * Requirements:     * - the caller must be `account`."
      },
      "revokeRole(bytes32,address)": {
        "details": "Revokes `role` from `account`.     * If `account` had been granted `role`, emits a {RoleRevoked} event.     * Requirements:     * - the caller must have ``role``'s admin role."
      },
      "safeTransferFrom(address,address,uint256)": {
        "details": "See {IERC721-safeTransferFrom}."
      },
      "safeTransferFrom(address,address,uint256,bytes)": {
        "details": "See {IERC721-safeTransferFrom}."
      },
      "setApprovalForAll(address,bool)": {
        "details": "See {IERC721-setApprovalForAll}."
      },
      "supportsInterface(bytes4)": {
        "details": "See {IERC165-supportsInterface}.     * Time complexity O(1), guaranteed to always use less than 30 000 gas."
      },
      "symbol()": {
        "details": "See {IERC721Metadata-symbol}."
      },
      "tokenByIndex(uint256)": {
        "details": "See {IERC721Enumerable-tokenByIndex}."
      },
      "tokenOfOwnerByIndex(address,uint256)": {
        "details": "See {IERC721Enumerable-tokenOfOwnerByIndex}."
      },
      "totalSupply()": {
        "details": "See {IERC721Enumerable-totalSupply}."
      },
      "transferFrom(address,address,uint256)": {
        "details": "See {IERC721-transferFrom}."
      },
      "transferOwnership(address)": {
        "details": "Transfers ownership of the contract to a new account (`newOwner`). Can only be called by the current owner."
      },
      "unpause()": {
        "details": "Unpauses all token transfers.     * See {ERC721Pausable} and {Pausable-_unpause}.     * Requirements:     * - the caller must have the `PAUSER_ROLE`."
      },
      "withdraw()": {
        "details": "Withdraw ether from this contract (Callable by owner only)"
      }
    }
  },
  "userdoc": {
    "methods": {}
  },
  "storageLayout": {
    "storage": [
      {
        "astId": 549,
        "contract": "contracts/CryptOrchidGoerli/CryptOrchidGoerli.sol:CryptOrchidGoerli",
        "label": "_roles",
        "offset": 0,
        "slot": "0",
        "type": "t_mapping(t_bytes32,t_struct(RoleData)545_storage)"
      },
      {
        "astId": 932,
        "contract": "contracts/CryptOrchidGoerli/CryptOrchidGoerli.sol:CryptOrchidGoerli",
        "label": "_supportedInterfaces",
        "offset": 0,
        "slot": "1",
        "type": "t_mapping(t_bytes4,t_bool)"
      },
      {
        "astId": 3555,
        "contract": "contracts/CryptOrchidGoerli/CryptOrchidGoerli.sol:CryptOrchidGoerli",
        "label": "_holderTokens",
        "offset": 0,
        "slot": "2",
        "type": "t_mapping(t_address,t_struct(UintSet)6038_storage)"
      },
      {
        "astId": 3557,
        "contract": "contracts/CryptOrchidGoerli/CryptOrchidGoerli.sol:CryptOrchidGoerli",
        "label": "_tokenOwners",
        "offset": 0,
        "slot": "3",
        "type": "t_struct(UintToAddressMap)5415_storage"
      },
      {
        "astId": 3561,
        "contract": "contracts/CryptOrchidGoerli/CryptOrchidGoerli.sol:CryptOrchidGoerli",
        "label": "_tokenApprovals",
        "offset": 0,
        "slot": "5",
        "type": "t_mapping(t_uint256,t_address)"
      },
      {
        "astId": 3567,
        "contract": "contracts/CryptOrchidGoerli/CryptOrchidGoerli.sol:CryptOrchidGoerli",
        "label": "_operatorApprovals",
        "offset": 0,
        "slot": "6",
        "type": "t_mapping(t_address,t_mapping(t_address,t_bool))"
      },
      {
        "astId": 3569,
        "contract": "contracts/CryptOrchidGoerli/CryptOrchidGoerli.sol:CryptOrchidGoerli",
        "label": "_name",
        "offset": 0,
        "slot": "7",
        "type": "t_string_storage"
      },
      {
        "astId": 3571,
        "contract": "contracts/CryptOrchidGoerli/CryptOrchidGoerli.sol:CryptOrchidGoerli",
        "label": "_symbol",
        "offset": 0,
        "slot": "8",
        "type": "t_string_storage"
      },
      {
        "astId": 3575,
        "contract": "contracts/CryptOrchidGoerli/CryptOrchidGoerli.sol:CryptOrchidGoerli",
        "label": "_tokenURIs",
        "offset": 0,
        "slot": "9",
        "type": "t_mapping(t_uint256,t_string_storage)"
      },
      {
        "astId": 3577,
        "contract": "contracts/CryptOrchidGoerli/CryptOrchidGoerli.sol:CryptOrchidGoerli",
        "label": "_baseURI",
        "offset": 0,
        "slot": "10",
        "type": "t_string_storage"
      },
      {
        "astId": 6151,
        "contract": "contracts/CryptOrchidGoerli/CryptOrchidGoerli.sol:CryptOrchidGoerli",
        "label": "_paused",
        "offset": 0,
        "slot": "11",
        "type": "t_bool"
      },
      {
        "astId": 1374,
        "contract": "contracts/CryptOrchidGoerli/CryptOrchidGoerli.sol:CryptOrchidGoerli",
        "label": "_tokenIdTracker",
        "offset": 0,
        "slot": "12",
        "type": "t_struct(Counter)5041_storage"
      },
      {
        "astId": 817,
        "contract": "contracts/CryptOrchidGoerli/CryptOrchidGoerli.sol:CryptOrchidGoerli",
        "label": "_owner",
        "offset": 0,
        "slot": "13",
        "type": "t_address"
      },
      {
        "astId": 8425,
        "contract": "contracts/CryptOrchidGoerli/CryptOrchidGoerli.sol:CryptOrchidGoerli",
        "label": "cryptorchids",
        "offset": 0,
        "slot": "14",
        "type": "t_mapping(t_uint256,t_struct(CryptOrchid)8421_storage)"
      },
      {
        "astId": 8433,
        "contract": "contracts/CryptOrchidGoerli/CryptOrchidGoerli.sol:CryptOrchidGoerli",
        "label": "saleStarted",
        "offset": 0,
        "slot": "15",
        "type": "t_bool"
      },
      {
        "astId": 8436,
        "contract": "contracts/CryptOrchidGoerli/CryptOrchidGoerli.sol:CryptOrchidGoerli",
        "label": "growingStarted",
        "offset": 1,
        "slot": "15",
        "type": "t_bool"
      },
      {
        "astId": 8470,
        "contract": "contracts/CryptOrchidGoerli/CryptOrchidGoerli.sol:CryptOrchidGoerli",
        "label": "limits",
        "offset": 0,
        "slot": "16",
        "type": "t_array(t_uint16)10_storage"
      },
      {
        "astId": 8485,
        "contract": "contracts/CryptOrchidGoerli/CryptOrchidGoerli.sol:CryptOrchidGoerli",
        "label": "genum",
        "offset": 0,
        "slot": "17",
        "type": "t_array(t_string_storage)10_storage"
      },
      {
        "astId": 8500,
        "contract": "contracts/CryptOrchidGoerli/CryptOrchidGoerli.sol:CryptOrchidGoerli",
        "label": "speciesIPFSConstant",
        "offset": 0,
        "slot": "27",
        "type": "t_array(t_string_storage)10_storage"
      },
      {
        "astId": 8515,
        "contract": "contracts/CryptOrchidGoerli/CryptOrchidGoerli.sol:CryptOrchidGoerli",
        "label": "deadSpeciesIPFSConstant",
        "offset": 0,
        "slot": "37",
        "type": "t_array(t_string_storage)10_storage"
      },
      {
        "astId": 8517,
        "contract": "contracts/CryptOrchidGoerli/CryptOrchidGoerli.sol:CryptOrchidGoerli",
        "label": "_tokenIds",
        "offset": 0,
        "slot": "47",
        "type": "t_struct(Counter)5041_storage"
      },
      {
        "astId": 8521,
        "contract": "contracts/CryptOrchidGoerli/CryptOrchidGoerli.sol:CryptOrchidGoerli",
        "label": "requestToToken",
        "offset": 0,
        "slot": "48",
        "type": "t_mapping(t_bytes32,t_uint256)"
      },
      {
        "astId": 8525,
        "contract": "contracts/CryptOrchidGoerli/CryptOrchidGoerli.sol:CryptOrchidGoerli",
        "label": "speciesIPFS",
        "offset": 0,
        "slot": "49",
        "type": "t_mapping(t_bytes32,t_string_storage)"
      },
      {
        "astId": 8529,
        "contract": "contracts/CryptOrchidGoerli/CryptOrchidGoerli.sol:CryptOrchidGoerli",
        "label": "deadSpeciesIPFS",
        "offset": 0,
        "slot": "50",
        "type": "t_mapping(t_bytes32,t_string_storage)"
      }
    ],
    "types": {
      "t_address": {
        "encoding": "inplace",
        "label": "address",
        "numberOfBytes": "20"
      },
      "t_array(t_bytes32)dyn_storage": {
        "base": "t_bytes32",
        "encoding": "dynamic_array",
        "label": "bytes32[]",
        "numberOfBytes": "32"
      },
      "t_array(t_string_storage)10_storage": {
        "base": "t_string_storage",
        "encoding": "inplace",
        "label": "string[10]",
        "numberOfBytes": "320"
      },
      "t_array(t_struct(MapEntry)5089_storage)dyn_storage": {
        "base": "t_struct(MapEntry)5089_storage",
        "encoding": "dynamic_array",
        "label": "struct EnumerableMap.MapEntry[]",
        "numberOfBytes": "32"
      },
      "t_array(t_uint16)10_storage": {
        "base": "t_uint16",
        "encoding": "inplace",
        "label": "uint16[10]",
        "numberOfBytes": "32"
      },
      "t_bool": {
        "encoding": "inplace",
        "label": "bool",
        "numberOfBytes": "1"
      },
      "t_bytes32": {
        "encoding": "inplace",
        "label": "bytes32",
        "numberOfBytes": "32"
      },
      "t_bytes4": {
        "encoding": "inplace",
        "label": "bytes4",
        "numberOfBytes": "4"
      },
      "t_mapping(t_address,t_bool)": {
        "encoding": "mapping",
        "key": "t_address",
        "label": "mapping(address => bool)",
        "numberOfBytes": "32",
        "value": "t_bool"
      },
      "t_mapping(t_address,t_mapping(t_address,t_bool))": {
        "encoding": "mapping",
        "key": "t_address",
        "label": "mapping(address => mapping(address => bool))",
        "numberOfBytes": "32",
        "value": "t_mapping(t_address,t_bool)"
      },
      "t_mapping(t_address,t_struct(UintSet)6038_storage)": {
        "encoding": "mapping",
        "key": "t_address",
        "label": "mapping(address => struct EnumerableSet.UintSet)",
        "numberOfBytes": "32",
        "value": "t_struct(UintSet)6038_storage"
      },
      "t_mapping(t_bytes32,t_string_storage)": {
        "encoding": "mapping",
        "key": "t_bytes32",
        "label": "mapping(bytes32 => string)",
        "numberOfBytes": "32",
        "value": "t_string_storage"
      },
      "t_mapping(t_bytes32,t_struct(RoleData)545_storage)": {
        "encoding": "mapping",
        "key": "t_bytes32",
        "label": "mapping(bytes32 => struct AccessControl.RoleData)",
        "numberOfBytes": "32",
        "value": "t_struct(RoleData)545_storage"
      },
      "t_mapping(t_bytes32,t_uint256)": {
        "encoding": "mapping",
        "key": "t_bytes32",
        "label": "mapping(bytes32 => uint256)",
        "numberOfBytes": "32",
        "value": "t_uint256"
      },
      "t_mapping(t_bytes4,t_bool)": {
        "encoding": "mapping",
        "key": "t_bytes4",
        "label": "mapping(bytes4 => bool)",
        "numberOfBytes": "32",
        "value": "t_bool"
      },
      "t_mapping(t_uint256,t_address)": {
        "encoding": "mapping",
        "key": "t_uint256",
        "label": "mapping(uint256 => address)",
        "numberOfBytes": "32",
        "value": "t_address"
      },
      "t_mapping(t_uint256,t_string_storage)": {
        "encoding": "mapping",
        "key": "t_uint256",
        "label": "mapping(uint256 => string)",
        "numberOfBytes": "32",
        "value": "t_string_storage"
      },
      "t_mapping(t_uint256,t_struct(CryptOrchid)8421_storage)": {
        "encoding": "mapping",
        "key": "t_uint256",
        "label": "mapping(uint256 => struct CryptOrchidGoerli.CryptOrchid)",
        "numberOfBytes": "32",
        "value": "t_struct(CryptOrchid)8421_storage"
      },
      "t_string_storage": {
        "encoding": "bytes",
        "label": "string",
        "numberOfBytes": "32"
      },
      "t_struct(AddressSet)5917_storage": {
        "encoding": "inplace",
        "label": "struct EnumerableSet.AddressSet",
        "members": [
          {
            "astId": 5916,
            "contract": "contracts/CryptOrchidGoerli/CryptOrchidGoerli.sol:CryptOrchidGoerli",
            "label": "_inner",
            "offset": 0,
            "slot": "0",
            "type": "t_struct(Set)5652_storage"
          }
        ],
        "numberOfBytes": "64"
      },
      "t_struct(Counter)5041_storage": {
        "encoding": "inplace",
        "label": "struct Counters.Counter",
        "members": [
          {
            "astId": 5040,
            "contract": "contracts/CryptOrchidGoerli/CryptOrchidGoerli.sol:CryptOrchidGoerli",
            "label": "_value",
            "offset": 0,
            "slot": "0",
            "type": "t_uint256"
          }
        ],
        "numberOfBytes": "32"
      },
      "t_struct(CryptOrchid)8421_storage": {
        "encoding": "inplace",
        "label": "struct CryptOrchidGoerli.CryptOrchid",
        "members": [
          {
            "astId": 8416,
            "contract": "contracts/CryptOrchidGoerli/CryptOrchidGoerli.sol:CryptOrchidGoerli",
            "label": "species",
            "offset": 0,
            "slot": "0",
            "type": "t_string_storage"
          },
          {
            "astId": 8418,
            "contract": "contracts/CryptOrchidGoerli/CryptOrchidGoerli.sol:CryptOrchidGoerli",
            "label": "plantedAt",
            "offset": 0,
            "slot": "1",
            "type": "t_uint256"
          },
          {
            "astId": 8420,
            "contract": "contracts/CryptOrchidGoerli/CryptOrchidGoerli.sol:CryptOrchidGoerli",
            "label": "waterLevel",
            "offset": 0,
            "slot": "2",
            "type": "t_uint256"
          }
        ],
        "numberOfBytes": "96"
      },
      "t_struct(Map)5097_storage": {
        "encoding": "inplace",
        "label": "struct EnumerableMap.Map",
        "members": [
          {
            "astId": 5092,
            "contract": "contracts/CryptOrchidGoerli/CryptOrchidGoerli.sol:CryptOrchidGoerli",
            "label": "_entries",
            "offset": 0,
            "slot": "0",
            "type": "t_array(t_struct(MapEntry)5089_storage)dyn_storage"
          },
          {
            "astId": 5096,
            "contract": "contracts/CryptOrchidGoerli/CryptOrchidGoerli.sol:CryptOrchidGoerli",
            "label": "_indexes",
            "offset": 0,
            "slot": "1",
            "type": "t_mapping(t_bytes32,t_uint256)"
          }
        ],
        "numberOfBytes": "64"
      },
      "t_struct(MapEntry)5089_storage": {
        "encoding": "inplace",
        "label": "struct EnumerableMap.MapEntry",
        "members": [
          {
            "astId": 5086,
            "contract": "contracts/CryptOrchidGoerli/CryptOrchidGoerli.sol:CryptOrchidGoerli",
            "label": "_key",
            "offset": 0,
            "slot": "0",
            "type": "t_bytes32"
          },
          {
            "astId": 5088,
            "contract": "contracts/CryptOrchidGoerli/CryptOrchidGoerli.sol:CryptOrchidGoerli",
            "label": "_value",
            "offset": 0,
            "slot": "1",
            "type": "t_bytes32"
          }
        ],
        "numberOfBytes": "64"
      },
      "t_struct(RoleData)545_storage": {
        "encoding": "inplace",
        "label": "struct AccessControl.RoleData",
        "members": [
          {
            "astId": 542,
            "contract": "contracts/CryptOrchidGoerli/CryptOrchidGoerli.sol:CryptOrchidGoerli",
            "label": "members",
            "offset": 0,
            "slot": "0",
            "type": "t_struct(AddressSet)5917_storage"
          },
          {
            "astId": 544,
            "contract": "contracts/CryptOrchidGoerli/CryptOrchidGoerli.sol:CryptOrchidGoerli",
            "label": "adminRole",
            "offset": 0,
            "slot": "2",
            "type": "t_bytes32"
          }
        ],
        "numberOfBytes": "96"
      },
      "t_struct(Set)5652_storage": {
        "encoding": "inplace",
        "label": "struct EnumerableSet.Set",
        "members": [
          {
            "astId": 5647,
            "contract": "contracts/CryptOrchidGoerli/CryptOrchidGoerli.sol:CryptOrchidGoerli",
            "label": "_values",
            "offset": 0,
            "slot": "0",
            "type": "t_array(t_bytes32)dyn_storage"
          },
          {
            "astId": 5651,
            "contract": "contracts/CryptOrchidGoerli/CryptOrchidGoerli.sol:CryptOrchidGoerli",
            "label": "_indexes",
            "offset": 0,
            "slot": "1",
            "type": "t_mapping(t_bytes32,t_uint256)"
          }
        ],
        "numberOfBytes": "64"
      },
      "t_struct(UintSet)6038_storage": {
        "encoding": "inplace",
        "label": "struct EnumerableSet.UintSet",
        "members": [
          {
            "astId": 6037,
            "contract": "contracts/CryptOrchidGoerli/CryptOrchidGoerli.sol:CryptOrchidGoerli",
            "label": "_inner",
            "offset": 0,
            "slot": "0",
            "type": "t_struct(Set)5652_storage"
          }
        ],
        "numberOfBytes": "64"
      },
      "t_struct(UintToAddressMap)5415_storage": {
        "encoding": "inplace",
        "label": "struct EnumerableMap.UintToAddressMap",
        "members": [
          {
            "astId": 5414,
            "contract": "contracts/CryptOrchidGoerli/CryptOrchidGoerli.sol:CryptOrchidGoerli",
            "label": "_inner",
            "offset": 0,
            "slot": "0",
            "type": "t_struct(Map)5097_storage"
          }
        ],
        "numberOfBytes": "64"
      },
      "t_uint16": {
        "encoding": "inplace",
        "label": "uint16",
        "numberOfBytes": "2"
      },
      "t_uint256": {
        "encoding": "inplace",
        "label": "uint256",
        "numberOfBytes": "32"
      }
    }
  }
}