{
  "address": "0xd614D711d2d02d817A25f23d58ee7A50670e06aa",
  "abi": [
    {
      "inputs": [],
      "stateMutability": "payable",
      "type": "constructor"
    },
    {
      "anonymous": false,
      "inputs": [
        {
          "indexed": true,
          "internalType": "address",
          "name": "owner",
          "type": "address"
        },
        {
          "indexed": true,
          "internalType": "address",
          "name": "approved",
          "type": "address"
        },
        {
          "indexed": true,
          "internalType": "uint256",
          "name": "tokenId",
          "type": "uint256"
        }
      ],
      "name": "Approval",
      "type": "event"
    },
    {
      "anonymous": false,
      "inputs": [
        {
          "indexed": true,
          "internalType": "address",
          "name": "owner",
          "type": "address"
        },
        {
          "indexed": true,
          "internalType": "address",
          "name": "operator",
          "type": "address"
        },
        {
          "indexed": false,
          "internalType": "bool",
          "name": "approved",
          "type": "bool"
        }
      ],
      "name": "ApprovalForAll",
      "type": "event"
    },
    {
      "anonymous": false,
      "inputs": [
        {
          "indexed": true,
          "internalType": "address",
          "name": "previousOwner",
          "type": "address"
        },
        {
          "indexed": true,
          "internalType": "address",
          "name": "newOwner",
          "type": "address"
        }
      ],
      "name": "OwnershipTransferred",
      "type": "event"
    },
    {
      "anonymous": false,
      "inputs": [
        {
          "indexed": false,
          "internalType": "address",
          "name": "account",
          "type": "address"
        }
      ],
      "name": "Paused",
      "type": "event"
    },
    {
      "anonymous": false,
      "inputs": [
        {
          "indexed": true,
          "internalType": "bytes32",
          "name": "role",
          "type": "bytes32"
        },
        {
          "indexed": true,
          "internalType": "bytes32",
          "name": "previousAdminRole",
          "type": "bytes32"
        },
        {
          "indexed": true,
          "internalType": "bytes32",
          "name": "newAdminRole",
          "type": "bytes32"
        }
      ],
      "name": "RoleAdminChanged",
      "type": "event"
    },
    {
      "anonymous": false,
      "inputs": [
        {
          "indexed": true,
          "internalType": "bytes32",
          "name": "role",
          "type": "bytes32"
        },
        {
          "indexed": true,
          "internalType": "address",
          "name": "account",
          "type": "address"
        },
        {
          "indexed": true,
          "internalType": "address",
          "name": "sender",
          "type": "address"
        }
      ],
      "name": "RoleGranted",
      "type": "event"
    },
    {
      "anonymous": false,
      "inputs": [
        {
          "indexed": true,
          "internalType": "bytes32",
          "name": "role",
          "type": "bytes32"
        },
        {
          "indexed": true,
          "internalType": "address",
          "name": "account",
          "type": "address"
        },
        {
          "indexed": true,
          "internalType": "address",
          "name": "sender",
          "type": "address"
        }
      ],
      "name": "RoleRevoked",
      "type": "event"
    },
    {
      "anonymous": false,
      "inputs": [
        {
          "indexed": true,
          "internalType": "address",
          "name": "from",
          "type": "address"
        },
        {
          "indexed": true,
          "internalType": "address",
          "name": "to",
          "type": "address"
        },
        {
          "indexed": true,
          "internalType": "uint256",
          "name": "tokenId",
          "type": "uint256"
        }
      ],
      "name": "Transfer",
      "type": "event"
    },
    {
      "anonymous": false,
      "inputs": [
        {
          "indexed": false,
          "internalType": "address",
          "name": "account",
          "type": "address"
        }
      ],
      "name": "Unpaused",
      "type": "event"
    },
    {
      "inputs": [],
      "name": "DEFAULT_ADMIN_ROLE",
      "outputs": [
        {
          "internalType": "bytes32",
          "name": "",
          "type": "bytes32"
        }
      ],
      "stateMutability": "view",
      "type": "function"
    },
    {
      "inputs": [],
      "name": "GROWTH_CYCLE",
      "outputs": [
        {
          "internalType": "uint256",
          "name": "",
          "type": "uint256"
        }
      ],
      "stateMutability": "view",
      "type": "function"
    },
    {
      "inputs": [],
      "name": "MAX_CRYPTORCHIDS",
      "outputs": [
        {
          "internalType": "uint256",
          "name": "",
          "type": "uint256"
        }
      ],
      "stateMutability": "view",
      "type": "function"
    },
    {
      "inputs": [],
      "name": "MINTER_ROLE",
      "outputs": [
        {
          "internalType": "bytes32",
          "name": "",
          "type": "bytes32"
        }
      ],
      "stateMutability": "view",
      "type": "function"
    },
    {
      "inputs": [],
      "name": "PAUSER_ROLE",
      "outputs": [
        {
          "internalType": "bytes32",
          "name": "",
          "type": "bytes32"
        }
      ],
      "stateMutability": "view",
      "type": "function"
    },
    {
      "inputs": [],
      "name": "WATERING_WINDOW",
      "outputs": [
        {
          "internalType": "uint256",
          "name": "",
          "type": "uint256"
        }
      ],
      "stateMutability": "view",
      "type": "function"
    },
    {
      "inputs": [
        {
          "internalType": "uint256",
          "name": "tokenId",
          "type": "uint256"
        }
      ],
      "name": "alive",
      "outputs": [
        {
          "internalType": "bool",
          "name": "",
          "type": "bool"
        }
      ],
      "stateMutability": "view",
      "type": "function"
    },
    {
      "inputs": [
        {
          "internalType": "address",
          "name": "to",
          "type": "address"
        },
        {
          "internalType": "uint256",
          "name": "tokenId",
          "type": "uint256"
        }
      ],
      "name": "approve",
      "outputs": [],
      "stateMutability": "nonpayable",
      "type": "function"
    },
    {
      "inputs": [
        {
          "internalType": "address",
          "name": "owner",
          "type": "address"
        }
      ],
      "name": "balanceOf",
      "outputs": [
        {
          "internalType": "uint256",
          "name": "",
          "type": "uint256"
        }
      ],
      "stateMutability": "view",
      "type": "function"
    },
    {
      "inputs": [],
      "name": "baseURI",
      "outputs": [
        {
          "internalType": "string",
          "name": "",
          "type": "string"
        }
      ],
      "stateMutability": "view",
      "type": "function"
    },
    {
      "inputs": [
        {
          "internalType": "uint256",
          "name": "tokenId",
          "type": "uint256"
        }
      ],
      "name": "burn",
      "outputs": [],
      "stateMutability": "nonpayable",
      "type": "function"
    },
    {
      "inputs": [
        {
          "internalType": "uint256",
          "name": "",
          "type": "uint256"
        }
      ],
      "name": "cryptorchids",
      "outputs": [
        {
          "internalType": "string",
          "name": "species",
          "type": "string"
        },
        {
          "internalType": "uint256",
          "name": "plantedAt",
          "type": "uint256"
        },
        {
          "internalType": "uint256",
          "name": "waterLevel",
          "type": "uint256"
        }
      ],
      "stateMutability": "view",
      "type": "function"
    },
    {
      "inputs": [],
      "name": "currentPrice",
      "outputs": [
        {
          "internalType": "uint256",
          "name": "price",
          "type": "uint256"
        }
      ],
      "stateMutability": "view",
      "type": "function"
    },
    {
      "inputs": [
        {
          "internalType": "uint256",
          "name": "tokenId",
          "type": "uint256"
        }
      ],
      "name": "flowering",
      "outputs": [
        {
          "internalType": "bool",
          "name": "",
          "type": "bool"
        }
      ],
      "stateMutability": "view",
      "type": "function"
    },
    {
      "inputs": [
        {
          "internalType": "uint256",
          "name": "tokenId",
          "type": "uint256"
        },
        {
          "internalType": "uint256",
          "name": "userProvidedSeed",
          "type": "uint256"
        }
      ],
      "name": "germinate",
      "outputs": [],
      "stateMutability": "nonpayable",
      "type": "function"
    },
    {
      "inputs": [
        {
          "internalType": "uint256",
          "name": "tokenId",
          "type": "uint256"
        }
      ],
      "name": "getApproved",
      "outputs": [
        {
          "internalType": "address",
          "name": "",
          "type": "address"
        }
      ],
      "stateMutability": "view",
      "type": "function"
    },
    {
      "inputs": [
        {
          "internalType": "bytes32",
          "name": "role",
          "type": "bytes32"
        }
      ],
      "name": "getRoleAdmin",
      "outputs": [
        {
          "internalType": "bytes32",
          "name": "",
          "type": "bytes32"
        }
      ],
      "stateMutability": "view",
      "type": "function"
    },
    {
      "inputs": [
        {
          "internalType": "bytes32",
          "name": "role",
          "type": "bytes32"
        },
        {
          "internalType": "uint256",
          "name": "index",
          "type": "uint256"
        }
      ],
      "name": "getRoleMember",
      "outputs": [
        {
          "internalType": "address",
          "name": "",
          "type": "address"
        }
      ],
      "stateMutability": "view",
      "type": "function"
    },
    {
      "inputs": [
        {
          "internalType": "bytes32",
          "name": "role",
          "type": "bytes32"
        }
      ],
      "name": "getRoleMemberCount",
      "outputs": [
        {
          "internalType": "uint256",
          "name": "",
          "type": "uint256"
        }
      ],
      "stateMutability": "view",
      "type": "function"
    },
    {
      "inputs": [
        {
          "internalType": "uint256",
          "name": "tokenId",
          "type": "uint256"
        }
      ],
      "name": "getTokenMetadata",
      "outputs": [
        {
          "internalType": "string",
          "name": "",
          "type": "string"
        },
        {
          "internalType": "uint256",
          "name": "",
          "type": "uint256"
        },
        {
          "internalType": "uint256",
          "name": "",
          "type": "uint256"
        },
        {
          "internalType": "enum CryptOrchidGoerli.Stage",
          "name": "",
          "type": "uint8"
        }
      ],
      "stateMutability": "view",
      "type": "function"
    },
    {
      "inputs": [
        {
          "internalType": "bytes32",
          "name": "role",
          "type": "bytes32"
        },
        {
          "internalType": "address",
          "name": "account",
          "type": "address"
        }
      ],
      "name": "grantRole",
      "outputs": [],
      "stateMutability": "nonpayable",
      "type": "function"
    },
    {
      "inputs": [
        {
          "internalType": "uint256",
          "name": "tokenId",
          "type": "uint256"
        }
      ],
      "name": "growthStage",
      "outputs": [
        {
          "internalType": "enum CryptOrchidGoerli.Stage",
          "name": "",
          "type": "uint8"
        }
      ],
      "stateMutability": "view",
      "type": "function"
    },
    {
      "inputs": [
        {
          "internalType": "bytes32",
          "name": "role",
          "type": "bytes32"
        },
        {
          "internalType": "address",
          "name": "account",
          "type": "address"
        }
      ],
      "name": "hasRole",
      "outputs": [
        {
          "internalType": "bool",
          "name": "",
          "type": "bool"
        }
      ],
      "stateMutability": "view",
      "type": "function"
    },
    {
      "inputs": [
        {
          "internalType": "address",
          "name": "owner",
          "type": "address"
        },
        {
          "internalType": "address",
          "name": "operator",
          "type": "address"
        }
      ],
      "name": "isApprovedForAll",
      "outputs": [
        {
          "internalType": "bool",
          "name": "",
          "type": "bool"
        }
      ],
      "stateMutability": "view",
      "type": "function"
    },
    {
      "inputs": [
        {
          "internalType": "address",
          "name": "to",
          "type": "address"
        }
      ],
      "name": "mint",
      "outputs": [],
      "stateMutability": "nonpayable",
      "type": "function"
    },
    {
      "inputs": [],
      "name": "name",
      "outputs": [
        {
          "internalType": "string",
          "name": "",
          "type": "string"
        }
      ],
      "stateMutability": "view",
      "type": "function"
    },
    {
      "inputs": [],
      "name": "owner",
      "outputs": [
        {
          "internalType": "address",
          "name": "",
          "type": "address"
        }
      ],
      "stateMutability": "view",
      "type": "function"
    },
    {
      "inputs": [
        {
          "internalType": "uint256",
          "name": "tokenId",
          "type": "uint256"
        }
      ],
      "name": "ownerOf",
      "outputs": [
        {
          "internalType": "address",
          "name": "",
          "type": "address"
        }
      ],
      "stateMutability": "view",
      "type": "function"
    },
    {
      "inputs": [],
      "name": "pause",
      "outputs": [],
      "stateMutability": "nonpayable",
      "type": "function"
    },
    {
      "inputs": [],
      "name": "paused",
      "outputs": [
        {
          "internalType": "bool",
          "name": "",
          "type": "bool"
        }
      ],
      "stateMutability": "view",
      "type": "function"
    },
    {
      "inputs": [],
      "name": "renounceOwnership",
      "outputs": [],
      "stateMutability": "nonpayable",
      "type": "function"
    },
    {
      "inputs": [
        {
          "internalType": "bytes32",
          "name": "role",
          "type": "bytes32"
        },
        {
          "internalType": "address",
          "name": "account",
          "type": "address"
        }
      ],
      "name": "renounceRole",
      "outputs": [],
      "stateMutability": "nonpayable",
      "type": "function"
    },
    {
      "inputs": [
        {
          "internalType": "bytes32",
          "name": "",
          "type": "bytes32"
        }
      ],
      "name": "requestToToken",
      "outputs": [
        {
          "internalType": "uint256",
          "name": "",
          "type": "uint256"
        }
      ],
      "stateMutability": "view",
      "type": "function"
    },
    {
      "inputs": [
        {
          "internalType": "bytes32",
          "name": "role",
          "type": "bytes32"
        },
        {
          "internalType": "address",
          "name": "account",
          "type": "address"
        }
      ],
      "name": "revokeRole",
      "outputs": [],
      "stateMutability": "nonpayable",
      "type": "function"
    },
    {
      "inputs": [
        {
          "internalType": "address",
          "name": "from",
          "type": "address"
        },
        {
          "internalType": "address",
          "name": "to",
          "type": "address"
        },
        {
          "internalType": "uint256",
          "name": "tokenId",
          "type": "uint256"
        }
      ],
      "name": "safeTransferFrom",
      "outputs": [],
      "stateMutability": "nonpayable",
      "type": "function"
    },
    {
      "inputs": [
        {
          "internalType": "address",
          "name": "from",
          "type": "address"
        },
        {
          "internalType": "address",
          "name": "to",
          "type": "address"
        },
        {
          "internalType": "uint256",
          "name": "tokenId",
          "type": "uint256"
        },
        {
          "internalType": "bytes",
          "name": "_data",
          "type": "bytes"
        }
      ],
      "name": "safeTransferFrom",
      "outputs": [],
      "stateMutability": "nonpayable",
      "type": "function"
    },
    {
      "inputs": [
        {
          "internalType": "address",
          "name": "operator",
          "type": "address"
        },
        {
          "internalType": "bool",
          "name": "approved",
          "type": "bool"
        }
      ],
      "name": "setApprovalForAll",
      "outputs": [],
      "stateMutability": "nonpayable",
      "type": "function"
    },
    {
      "inputs": [],
      "name": "startGrowing",
      "outputs": [],
      "stateMutability": "nonpayable",
      "type": "function"
    },
    {
      "inputs": [],
      "name": "startSale",
      "outputs": [],
      "stateMutability": "nonpayable",
      "type": "function"
    },
    {
      "inputs": [
        {
          "internalType": "bytes4",
          "name": "interfaceId",
          "type": "bytes4"
        }
      ],
      "name": "supportsInterface",
      "outputs": [
        {
          "internalType": "bool",
          "name": "",
          "type": "bool"
        }
      ],
      "stateMutability": "view",
      "type": "function"
    },
    {
      "inputs": [],
      "name": "symbol",
      "outputs": [
        {
          "internalType": "string",
          "name": "",
          "type": "string"
        }
      ],
      "stateMutability": "view",
      "type": "function"
    },
    {
      "inputs": [
        {
          "internalType": "uint256",
          "name": "index",
          "type": "uint256"
        }
      ],
      "name": "tokenByIndex",
      "outputs": [
        {
          "internalType": "uint256",
          "name": "",
          "type": "uint256"
        }
      ],
      "stateMutability": "view",
      "type": "function"
    },
    {
      "inputs": [
        {
          "internalType": "address",
          "name": "owner",
          "type": "address"
        },
        {
          "internalType": "uint256",
          "name": "index",
          "type": "uint256"
        }
      ],
      "name": "tokenOfOwnerByIndex",
      "outputs": [
        {
          "internalType": "uint256",
          "name": "",
          "type": "uint256"
        }
      ],
      "stateMutability": "view",
      "type": "function"
    },
    {
      "inputs": [
        {
          "internalType": "uint256",
          "name": "tokenId",
          "type": "uint256"
        }
      ],
      "name": "tokenURI",
      "outputs": [
        {
          "internalType": "string",
          "name": "",
          "type": "string"
        }
      ],
      "stateMutability": "view",
      "type": "function"
    },
    {
      "inputs": [],
      "name": "totalSupply",
      "outputs": [
        {
          "internalType": "uint256",
          "name": "",
          "type": "uint256"
        }
      ],
      "stateMutability": "view",
      "type": "function"
    },
    {
      "inputs": [
        {
          "internalType": "address",
          "name": "from",
          "type": "address"
        },
        {
          "internalType": "address",
          "name": "to",
          "type": "address"
        },
        {
          "internalType": "uint256",
          "name": "tokenId",
          "type": "uint256"
        }
      ],
      "name": "transferFrom",
      "outputs": [],
      "stateMutability": "nonpayable",
      "type": "function"
    },
    {
      "inputs": [
        {
          "internalType": "address",
          "name": "newOwner",
          "type": "address"
        }
      ],
      "name": "transferOwnership",
      "outputs": [],
      "stateMutability": "nonpayable",
      "type": "function"
    },
    {
      "inputs": [],
      "name": "unpause",
      "outputs": [],
      "stateMutability": "nonpayable",
      "type": "function"
    },
    {
      "inputs": [
        {
          "internalType": "uint256",
          "name": "tokenId",
          "type": "uint256"
        }
      ],
      "name": "water",
      "outputs": [],
      "stateMutability": "nonpayable",
      "type": "function"
    },
    {
      "inputs": [
        {
          "internalType": "uint256",
          "name": "units",
          "type": "uint256"
        }
      ],
      "name": "webMint",
      "outputs": [],
      "stateMutability": "payable",
      "type": "function"
    },
    {
      "inputs": [],
      "name": "withdraw",
      "outputs": [],
      "stateMutability": "nonpayable",
      "type": "function"
    },
    {
      "stateMutability": "payable",
      "type": "receive"
    }
  ],
  "transactionHash": "0xa422302f125442d2034f27da20472d984fc86a4844793d6dca1892439282707f",
  "args": [],
  "solcInputHash": "c13c0265580703c7826a9db8ce6a8cf5",
  "bytecode": "0x600f805461ffff191690556101c060405260006080908152610c0260a0526117ba60c052611f8a60e0526123726101005261256661012052612660610140526126c4610160526126f66101805261270f6101a0526200006390601090600a62000b0c565b506040805161018081018252601761014082019081527f7368656e7a68656e696361206f72636869646163656165000000000000000000610160830152815281518083018352601881527f7068616c61656e6f70736973206d6963686f6c69747a69690000000000000000602082810191909152808301919091528251808401845260158082527f6775617269616e74686520617572616e74696163610000000000000000000000828401528385019190915283518085018552600e81526d76616e646120636f6572756c656160901b818401526060840152835180850185528181527f637970726970656469756d2063616c63656f6c7573000000000000000000000081840152608084015283518085018552601981527f70617068696f706564696c756d20766965746e616d656e7365000000000000008184015260a08401528351808501855260128152716d696c746f6e6961206b61796173696d616560701b8184015260c084015283518085018552601381527f706c6174616e746865726120617a6f72696361000000000000000000000000008184015260e0840152835180850185529081527f64656e64726f7068796c6178206c696e64656e69690000000000000000000000818301526101008301528251808401909352601d83527f70617068696f706564696c756d20726f7468736368696c6469616e756d000000908301526101208101919091526200028390601190600a62000ba9565b50604080516101c08101909152604b61014082018181528291620051c661016084013981526020016040518060800160405280604c81526020016200505c604c91398152602001604051806080016040528060498152602001620052ea60499139815260200160405180608001604052806042815260200162005257604291398152602001604051806080016040528060498152602001620050136049913981526020016040518060800160405280604d815260200162005130604d9139815260200160405180608001604052806046815260200162005211604691398152602001604051806080016040528060478152602001620054606047913981526020016040518060800160405280604981526020016200538060499139815260200160405180608001604052806051815260200162004f7b605191399052620003cf90601b90600a62000ba9565b50604080516101c08101909152604b610140820181815282916200541561016084013981526020016040518060800160405280604c8152602001620053c9604c913981526020016040518060800160405280604981526020016200517d604991398152602001604051806080016040528060428152602001620050a860429139815260200160405180608001604052806049815260200162004ee96049913981526020016040518060800160405280604d815260200162005333604d91398152602001604051806080016040528060468152602001620050ea60469139815260200160405180608001604052806047815260200162004fcc60479139815260200160405180608001604052806049815260200162004f32604991398152602001604051806080016040528060518152602001620052996051913990526200051b90602590600a62000ba9565b506040518060400160405280600c81526020016b43727970744f72636869647360a01b8152506040518060400160405280600581526020016413d490d21160da1b81525060405180604001604052806007815260200166697066733a2f2f60c81b8152508282620005996301ffc9a760e01b6200093660201b60201c565b8151620005ae90600790602085019062000bfc565b508051620005c490600890602084019062000bfc565b50620005e06380ac58cd60e01b6001600160e01b036200093616565b620005fb635b5e139f60e01b6001600160e01b036200093616565b6200061663780e9d6360e01b6001600160e01b036200093616565b5050600b805460ff191690556200064a60006200063b6001600160e01b03620009be16565b6001600160e01b03620009c316565b604080516a4d494e5445525f524f4c4560a81b8152905190819003600b01902062000682906200063b6001600160e01b03620009be16565b604080516a5041555345525f524f4c4560a81b8152905190819003600b019020620006ba906200063b6001600160e01b03620009be16565b620006ce816001600160e01b03620009dc16565b5050506000620006e3620009be60201b60201c565b600d80546001600160a01b0319166001600160a01b038316908117909155604051919250906000907f8be0079c531659141344cd1fd0a4f28419497f9722a3daafe3b4186f6b6457e0908290a35060005b600a8110156200092f57601b81600a81106200074c57fe5b0160316000601184600a81106200075f57fe5b6040805160208082019081529290930180546002600182161561010002600019019091160491840182905292829160609091019084908015620007e65780601f10620007ba57610100808354040283529160200191620007e6565b820191906000526020600020905b815481529060010190602001808311620007c857829003601f168201915b50509250505060405160208183030381529060405280519060200120815260200190815260200160002090805460018160011615610100020316600290046200083192919062000c7d565b50602581600a81106200084057fe5b0160326000601184600a81106200085357fe5b6040805160208082019081529290930180546002600182161561010002600019019091160491840182905292829160609091019084908015620008da5780601f10620008ae57610100808354040283529160200191620008da565b820191906000526020600020905b815481529060010190602001808311620008bc57829003601f168201915b50509250505060405160208183030381529060405280519060200120815260200190815260200160002090805460018160011615610100020316600290046200092592919062000c7d565b5060010162000734565b5062000da9565b6001600160e01b0319808216141562000996576040805162461bcd60e51b815260206004820152601c60248201527f4552433136353a20696e76616c696420696e7465726661636520696400000000604482015290519081900360640190fd5b6001600160e01b0319166000908152600160208190526040909120805460ff19169091179055565b335b90565b620009d882826001600160e01b03620009f116565b5050565b8051620009d890600a90602084019062000bfc565b60008281526020818152604090912062000a16918390620030de62000a73821b17901c565b15620009d85762000a2f6001600160e01b03620009be16565b6001600160a01b0316816001600160a01b0316837f2f8788117e7eff1d82e926ec794901d17c78024a50270940304540a733656f0d60405160405180910390a45050565b600062000a93836001600160a01b0384166001600160e01b0362000a9c16565b90505b92915050565b600062000ab383836001600160e01b0362000af416565b62000aeb5750815460018181018455600084815260208082209093018490558454848252828601909352604090209190915562000a96565b50600062000a96565b60009081526001919091016020526040902054151590565b60018301918390821562000b975791602002820160005b8382111562000b6557835183826101000a81548161ffff021916908361ffff160217905550926020019260020160208160010104928301926001030262000b23565b801562000b955782816101000a81549061ffff021916905560020160208160010104928301926001030262000b65565b505b5062000ba592915062000cf7565b5090565b82600a810192821562000bee579160200282015b8281111562000bee578251805162000bdd91849160209091019062000bfc565b509160200191906001019062000bbd565b5062000ba592915062000d19565b828054600181600116156101000203166002900490600052602060002090601f016020900481019282601f1062000c3f57805160ff191683800117855562000c6f565b8280016001018555821562000c6f579182015b8281111562000c6f57825182559160200191906001019062000c52565b5062000ba592915062000d41565b828054600181600116156101000203166002900490600052602060002090601f016020900481019282601f1062000cb8578054855562000c6f565b8280016001018555821562000c6f57600052602060002091601f016020900482015b8281111562000c6f57825482559160010191906001019062000cda565b620009c091905b8082111562000ba557805461ffff1916815560010162000cfe565b620009c091905b8082111562000ba557600062000d37828262000d5e565b5060010162000d20565b620009c091905b8082111562000ba5576000815560010162000d48565b50805460018160011615610100020316600290046000825580601f1062000d86575062000da6565b601f01602090049060005260206000209081019062000da6919062000d41565b50565b6141308062000db96000396000f3fe6080604052600436106103385760003560e01c80636c0360eb116101b0578063a7eec44b116100ec578063cac21c8f11610095578063e63ab1e91161006f578063e63ab1e914610d0c578063e985e9c514610d21578063f2fde38b14610d5c578063ffee200c14610d8f5761033f565b8063cac21c8f14610c0e578063d539139314610cbe578063d547741f14610cd35761033f565b8063b88d4fde116100c6578063b88d4fde14610ae7578063c87b56dd14610bba578063ca15c87314610be45761033f565b8063a7eec44b14610a5a578063b66a0e5d14610a84578063b7aaba2014610a995761033f565b80639010d07c116101595780639981d4a1116101335780639981d4a1146109d85780639d1b464a146109f5578063a217fddf14610a0a578063a22cb46514610a1f5761033f565b80639010d07c1461095a57806391d148541461098a57806395d89b41146109c35761033f565b80637fd8d9531161018a5780637fd8d953146109005780638456cb59146109305780638da5cb5b146109455761033f565b80636c0360eb146108a357806370a08231146108b8578063715018a6146108eb5761033f565b806336568abe1161027f5780635c975abb116102285780636352211e116102025780636352211e146108075780636573c787146108315780636a6278421461085b5780636b0c004d1461088e5761033f565b80635c975abb14610703578063603168011461071857806362ff09d6146107dd5761033f565b806342842e0e1161025957806342842e0e1461066c57806342966c68146106af5780634f6ccce7146106d95761033f565b806336568abe146106095780633ccfd60b146106425780633f4ba83a146106575761033f565b8063182199cd116102e1578063277dec92116102bb578063277dec92146105825780632f2ff15d146105975780632f745c59146105d05761033f565b8063182199cd146104eb57806323b872dd14610515578063248a9ca3146105585761033f565b8063095ea7b311610312578063095ea7b314610474578063179f0b0a146104af57806318160ddd146104d65761033f565b806301ffc9a71461034457806306fdde03146103a4578063081812fc1461042e5761033f565b3661033f57005b600080fd5b34801561035057600080fd5b506103906004803603602081101561036757600080fd5b50357fffffffff0000000000000000000000000000000000000000000000000000000016610da4565b604080519115158252519081900360200190f35b3480156103b057600080fd5b506103b9610ddf565b6040805160208082528351818301528351919283929083019185019080838360005b838110156103f35781810151838201526020016103db565b50505050905090810190601f1680156104205780820380516001836020036101000a031916815260200191505b509250505060405180910390f35b34801561043a57600080fd5b506104586004803603602081101561045157600080fd5b5035610e76565b604080516001600160a01b039092168252519081900360200190f35b34801561048057600080fd5b506104ad6004803603604081101561049757600080fd5b506001600160a01b038135169060200135610ed8565b005b3480156104bb57600080fd5b506104c4610fb3565b60408051918252519081900360200190f35b3480156104e257600080fd5b506104c4610fba565b3480156104f757600080fd5b506103906004803603602081101561050e57600080fd5b5035610fcb565b34801561052157600080fd5b506104ad6004803603606081101561053857600080fd5b506001600160a01b03813581169160208101359091169060400135610fea565b34801561056457600080fd5b506104c46004803603602081101561057b57600080fd5b5035611041565b34801561058e57600080fd5b506104ad611056565b3480156105a357600080fd5b506104ad600480360360408110156105ba57600080fd5b50803590602001356001600160a01b03166110db565b3480156105dc57600080fd5b506104c4600480360360408110156105f357600080fd5b506001600160a01b038135169060200135611147565b34801561061557600080fd5b506104ad6004803603604081101561062c57600080fd5b50803590602001356001600160a01b0316611178565b34801561064e57600080fd5b506104ad6111d9565b34801561066357600080fd5b506104ad61127c565b34801561067857600080fd5b506104ad6004803603606081101561068f57600080fd5b506001600160a01b038135811691602081013590911690604001356112ed565b3480156106bb57600080fd5b506104ad600480360360208110156106d257600080fd5b5035611308565b3480156106e557600080fd5b506104c4600480360360208110156106fc57600080fd5b503561135a565b34801561070f57600080fd5b50610390611376565b34801561072457600080fd5b506107426004803603602081101561073b57600080fd5b503561137f565b604051808060200185815260200184815260200183600381111561076257fe5b60ff168152602001828103825286818151815260200191508051906020019080838360005b8381101561079f578181015183820152602001610787565b50505050905090810190601f1680156107cc5780820380516001836020036101000a031916815260200191505b509550505050505060405180910390f35b3480156107e957600080fd5b506104c46004803603602081101561080057600080fd5b5035611444565b34801561081357600080fd5b506104586004803603602081101561082a57600080fd5b5035611456565b34801561083d57600080fd5b506103906004803603602081101561085457600080fd5b5035611484565b34801561086757600080fd5b506104ad6004803603602081101561087e57600080fd5b50356001600160a01b03166114a4565b34801561089a57600080fd5b506104c4611528565b3480156108af57600080fd5b506103b961152e565b3480156108c457600080fd5b506104c4600480360360208110156108db57600080fd5b50356001600160a01b031661158f565b3480156108f757600080fd5b506104ad6115f7565b34801561090c57600080fd5b506104ad6004803603604081101561092357600080fd5b50803590602001356116c2565b34801561093c57600080fd5b506104ad61175e565b34801561095157600080fd5b506104586117cd565b34801561096657600080fd5b506104586004803603604081101561097d57600080fd5b50803590602001356117dc565b34801561099657600080fd5b50610390600480360360408110156109ad57600080fd5b50803590602001356001600160a01b03166117fa565b3480156109cf57600080fd5b506103b9611818565b6104ad600480360360208110156109ee57600080fd5b5035611879565b348015610a0157600080fd5b506104c4611b4d565b348015610a1657600080fd5b506104c4611c09565b348015610a2b57600080fd5b506104ad60048036036040811015610a4257600080fd5b506001600160a01b0381351690602001351515611c0e565b348015610a6657600080fd5b506104ad60048036036020811015610a7d57600080fd5b5035611d13565b348015610a9057600080fd5b506104ad611dd1565b348015610aa557600080fd5b50610ac360048036036020811015610abc57600080fd5b5035611e54565b60405180826003811115610ad357fe5b60ff16815260200191505060405180910390f35b348015610af357600080fd5b506104ad60048036036080811015610b0a57600080fd5b6001600160a01b03823581169260208101359091169160408201359190810190608081016060820135640100000000811115610b4557600080fd5b820183602082011115610b5757600080fd5b80359060200191846001830284011164010000000083111715610b7957600080fd5b91908080601f016020809104026020016040519081016040528093929190818152602001838380828437600092019190915250929550611fd4945050505050565b348015610bc657600080fd5b506103b960048036036020811015610bdd57600080fd5b503561202c565b348015610bf057600080fd5b506104c460048036036020811015610c0757600080fd5b503561242a565b348015610c1a57600080fd5b50610c3860048036036020811015610c3157600080fd5b5035612441565b6040518080602001848152602001838152602001828103825285818151815260200191508051906020019080838360005b83811015610c81578181015183820152602001610c69565b50505050905090810190601f168015610cae5780820380516001836020036101000a031916815260200191505b5094505050505060405180910390f35b348015610cca57600080fd5b506104c46124ee565b348015610cdf57600080fd5b506104ad60048036036040811015610cf657600080fd5b50803590602001356001600160a01b0316612511565b348015610d1857600080fd5b506104c461256a565b348015610d2d57600080fd5b5061039060048036036040811015610d4457600080fd5b506001600160a01b038135811691602001351661258d565b348015610d6857600080fd5b506104ad60048036036020811015610d7f57600080fd5b50356001600160a01b03166125bb565b348015610d9b57600080fd5b506104c46126dd565b7fffffffff00000000000000000000000000000000000000000000000000000000811660009081526001602052604090205460ff165b919050565b60078054604080516020601f6002600019610100600188161502019095169490940493840181900481028201810190925282815260609390929091830182828015610e6b5780601f10610e4057610100808354040283529160200191610e6b565b820191906000526020600020905b815481529060010190602001808311610e4e57829003601f168201915b505050505090505b90565b6000610e81826126e3565b610ebc5760405162461bcd60e51b815260040180806020018281038252602c815260200180613ef6602c913960400191505060405180910390fd5b506000908152600560205260409020546001600160a01b031690565b6000610ee382611456565b9050806001600160a01b0316836001600160a01b03161415610f365760405162461bcd60e51b8152600401808060200182810382526021815260200180613f7b6021913960400191505060405180910390fd5b806001600160a01b0316610f486126f6565b6001600160a01b03161480610f695750610f6981610f646126f6565b61258d565b610fa45760405162461bcd60e51b8152600401808060200182810382526038815260200180613e056038913960400191505060405180910390fd5b610fae83836126fa565b505050565b62093a8081565b6000610fc66003612775565b905090565b60006002610fd883611e54565b6003811115610fe357fe5b1492915050565b610ffb610ff56126f6565b82612780565b6110365760405162461bcd60e51b8152600401808060200182810382526031815260200180613fc36031913960400191505060405180910390fd5b610fae838383612824565b60009081526020819052604090206002015490565b61105e6126f6565b6001600160a01b031661106f6117cd565b6001600160a01b0316146110ca576040805162461bcd60e51b815260206004820181905260248201527f4f776e61626c653a2063616c6c6572206973206e6f7420746865206f776e6572604482015290519081900360640190fd5b600f805461ff001916610100179055565b6000828152602081905260409020600201546110fe906110f96126f6565b6117fa565b6111395760405162461bcd60e51b815260040180806020018281038252602f815260200180613c1e602f913960400191505060405180910390fd5b6111438282612982565b5050565b6001600160a01b038216600090815260026020526040812061116f908363ffffffff6129f116565b90505b92915050565b6111806126f6565b6001600160a01b0316816001600160a01b0316146111cf5760405162461bcd60e51b815260040180806020018281038252602f8152602001806140cc602f913960400191505060405180910390fd5b61114382826129fd565b6111e16126f6565b6001600160a01b03166111f26117cd565b6001600160a01b03161461124d576040805162461bcd60e51b815260206004820181905260248201527f4f776e61626c653a2063616c6c6572206973206e6f7420746865206f776e6572604482015290519081900360640190fd5b6040514790339082156108fc029083906000818181858888f19350505050158015611143573d6000803e3d6000fd5b604080516a5041555345525f524f4c4560a81b8152905190819003600b0190206112a8906110f96126f6565b6112e35760405162461bcd60e51b815260040180806020018281038252604081526020018061408c6040913960400191505060405180910390fd5b6112eb612a6c565b565b610fae83838360405180602001604052806000815250611fd4565b611313610ff56126f6565b61134e5760405162461bcd60e51b815260040180806020018281038252603081526020018061405c6030913960400191505060405180910390fd5b61135781612b15565b50565b60008061136e60038463ffffffff612bee16565b509392505050565b600b5460ff1690565b6000818152600e602052604081206001810154600282015460609392839283926113a888611e54565b8354604080516020601f6002600019610100600188161502019095169490940493840181900481028201810190925282815291869183018282801561142e5780601f106114035761010080835404028352916020019161142e565b820191906000526020600020905b81548152906001019060200180831161141157829003601f168201915b5050505050935093509350935093509193509193565b60306020526000908152604090205481565b600061117282604051806060016040528060298152602001613e67602991396003919063ffffffff612c0a16565b6000600361149183611e54565b600381111561149c57fe5b141592915050565b604080516a4d494e5445525f524f4c4560a81b8152905190819003600b0190206114d0906110f96126f6565b61150b5760405162461bcd60e51b815260040180806020018281038252603d81526020018061401f603d913960400191505060405180910390fd5b61151e81611519600c612c21565b612c25565b611357600c612d5f565b61271081565b600a8054604080516020601f6002600019610100600188161502019095169490940493840181900481028201810190925282815260609390929091830182828015610e6b5780601f10610e4057610100808354040283529160200191610e6b565b60006001600160a01b0382166115d65760405162461bcd60e51b815260040180806020018281038252602a815260200180613e3d602a913960400191505060405180910390fd5b6001600160a01b038216600090815260026020526040902061117290612775565b6115ff6126f6565b6001600160a01b03166116106117cd565b6001600160a01b03161461166b576040805162461bcd60e51b815260206004820181905260248201527f4f776e61626c653a2063616c6c6572206973206e6f7420746865206f776e6572604482015290519081900360640190fd5b600d546040516000916001600160a01b0316907f8be0079c531659141344cd1fd0a4f28419497f9722a3daafe3b4186f6b6457e0908390a3600d805473ffffffffffffffffffffffffffffffffffffffff19169055565b600f54610100900460ff166117085760405162461bcd60e51b8152600401808060200182810382526027815260200180613cd36027913960400191505060405180910390fd5b6117196117136126f6565b83612780565b6117545760405162461bcd60e51b815260040180806020018281038252602b815260200180613ff4602b913960400191505060405180910390fd5b610fae8282612d68565b604080516a5041555345525f524f4c4560a81b8152905190819003600b01902061178a906110f96126f6565b6117c55760405162461bcd60e51b815260040180806020018281038252603e815260200180613cfa603e913960400191505060405180910390fd5b6112eb612dae565b600d546001600160a01b031690565b600082815260208190526040812061116f908363ffffffff6129f116565b600082815260208190526040812061116f908363ffffffff612e3e16565b60088054604080516020601f6002600019610100600188161502019095169490940493840181900481028201810190925282815260609390929091830182828015610e6b5780601f10610e4057610100808354040283529160200191610e6b565b600f5460ff166118d0576040805162461bcd60e51b815260206004820152601560248201527f546865204e75727365727920697320636c6f7365640000000000000000000000604482015290519081900360640190fd5b6118d8610fba565b61271003811115611930576040805162461bcd60e51b815260206004820152601560248201527f4e6f7420656e6f7567682062756c6273206c6566740000000000000000000000604482015290519081900360640190fd5b61271061193b610fba565b1061198d576040805162461bcd60e51b815260206004820152601660248201527f53616c652068617320616c726561647920656e64656400000000000000000000604482015290519081900360640190fd5b60008111801561199e575060148111155b6119d95760405162461bcd60e51b8152600401808060200182810382526030815260200180613f4b6030913960400191505060405180910390fd5b6127106119ed6119e7610fba565b83612e53565b1115611a40576040805162461bcd60e51b815260206004820152601860248201527f45786365656473204d41585f43525950544f5243484944530000000000000000604482015290519081900360640190fd5b611a51611a4b611b4d565b82612ead565b341015611a8f5760405162461bcd60e51b8152600401808060200182810382526023815260200180613e906023913960400191505060405180910390fd5b60005b8181101561114357611aa4602f612d5f565b6000611ab0602f612c21565b6040805160a0810182526006606082019081527f6772616e756d0000000000000000000000000000000000000000000000000000608083015281526000196020808301919091526000828401819052848152600e8252929092208151805194955091939092611b23928492910190613adb565b5060208201516001820155604090910151600290910155611b443382612f06565b50600101611a92565b600080611b58610fba565b90506126ac8110611b7457670de0b6b3a7640000915050610e73565b61251c8110611b8e576708e1bc9bf0400000915050610e73565b611d4c8110611ba857670470de4df8200000915050610e73565b610dac8110611bc2576702386f26fc100000915050610e73565b6105dc8110611bdc5767011c37937e080000915050610e73565b6101f48110611bf55766d529ae9e860000915050610e73565b668e1bc9bf040000915050610e73565b5090565b600081565b611c166126f6565b6001600160a01b0316826001600160a01b03161415611c7c576040805162461bcd60e51b815260206004820152601960248201527f4552433732313a20617070726f766520746f2063616c6c657200000000000000604482015290519081900360640190fd5b8060066000611c896126f6565b6001600160a01b03908116825260208083019390935260409182016000908120918716808252919093529120805460ff191692151592909217909155611ccd6126f6565b60408051841515815290516001600160a01b0392909216917f17307eab39ab6107e8899845ad3d59bd9653f200f220920489ca2b5937696c319181900360200190a35050565b611d1e610ff56126f6565b611d595760405162461bcd60e51b8152600401808060200182810382526027815260200180613d826027913960400191505060405180910390fd5b611d6281611484565b611d6b57611357565b6000818152600e602052604081206002810154600182015491929091611d8f612f20565b0390506000611da18262093a80612f24565b905080831115611db45750505050611357565b6000611dc1846001612e53565b6002909501949094555050505050565b611dd96126f6565b6001600160a01b0316611dea6117cd565b6001600160a01b031614611e45576040805162461bcd60e51b815260206004820181905260248201527f4f776e61626c653a2063616c6c6572206973206e6f7420746865206f776e6572604482015290519081900360640190fd5b600f805460ff19166001179055565b6000611e5e613b55565b6000838152600e60209081526040918290208251815460026001821615610100026000190190911604601f81018490049093028101608090810190945260608101838152909391928492849190840182828015611efc5780601f10611ed157610100808354040283529160200191611efc565b820191906000526020600020905b815481529060010190602001808311611edf57829003601f168201915b50505050508152602001600182015481526020016002820154815250509050806020015160001415611f32576000915050610dda565b60001981602001511415611f4a576001915050610dda565b60408101516020820151600090611f5f612f20565b0390506000611f718262093a80612f24565b90506000611f828362093a80612f8b565b905081841415611f9a57600295505050505050610dda565b81611fa6856001612e53565b148015611fb45750612a3081105b15611fc757600295505050505050610dda565b5060039695505050505050565b611fdf6117136126f6565b61201a5760405162461bcd60e51b8152600401808060200182810382526031815260200180613fc36031913960400191505060405180910390fd5b61202684848484612ff2565b50505050565b6060806120388361137f565b50919250600191506120479050565b61205084611e54565b600381111561205b57fe5b14156121395761206961152e565b6040518060600160405280602e8152602001613ca5602e91396040516020018083805190602001908083835b602083106120b45780518252601f199092019160209182019101612095565b51815160209384036101000a600019018019909216911617905285519190930192850191508083835b602083106120fc5780518252601f1990920191602091820191016120dd565b6001836020036101000a03801982511681845116808217855250505050505090500192505050604051602081830303815290604052915050610dda565b600261214484611e54565b600381111561214f57fe5b14156122c05761215d61152e565b60316000836040516020018080602001828103825283818151815260200191508051906020019080838360005b838110156121a257818101518382015260200161218a565b50505050905090810190601f1680156121cf5780820380516001836020036101000a031916815260200191505b50925050506040516020818303038152906040528051906020012081526020019081526020016000206040516020018083805190602001908083835b6020831061222a5780518252601f19909201916020918201910161220b565b6001836020036101000a038019825116818451168082178552505050505050905001828054600181600116156101000203166002900480156122a35780601f106122815761010080835404028352918201916122a3565b820191906000526020600020905b81548152906001019060200180831161228f575b505092505050604051602081830303815290604052915050610dda565b6122c861152e565b60326000836040516020018080602001828103825283818151815260200191508051906020019080838360005b8381101561230d5781810151838201526020016122f5565b50505050905090810190601f16801561233a5780820380516001836020036101000a031916815260200191505b50925050506040516020818303038152906040528051906020012081526020019081526020016000206040516020018083805190602001908083835b602083106123955780518252601f199092019160209182019101612376565b6001836020036101000a0380198251168184511680821785525050505050509050018280546001816001161561010002031660029004801561240e5780601f106123ec57610100808354040283529182019161240e565b820191906000526020600020905b8154815290600101906020018083116123fa575b505060408051601f198184030181529190529695505050505050565b600081815260208190526040812061117290612775565b600e6020908152600091825260409182902080548351601f600260001961010060018616150201909316929092049182018490048402810184019094528084529092918391908301828280156124d85780601f106124ad576101008083540402835291602001916124d8565b820191906000526020600020905b8154815290600101906020018083116124bb57829003601f168201915b5050505050908060010154908060020154905083565b604080516a4d494e5445525f524f4c4560a81b8152905190819003600b01902081565b60008281526020819052604090206002015461252f906110f96126f6565b6111cf5760405162461bcd60e51b8152600401808060200182810382526030815260200180613dd56030913960400191505060405180910390fd5b604080516a5041555345525f524f4c4560a81b8152905190819003600b01902081565b6001600160a01b03918216600090815260066020908152604080832093909416825291909152205460ff1690565b6125c36126f6565b6001600160a01b03166125d46117cd565b6001600160a01b03161461262f576040805162461bcd60e51b815260206004820181905260248201527f4f776e61626c653a2063616c6c6572206973206e6f7420746865206f776e6572604482015290519081900360640190fd5b6001600160a01b0381166126745760405162461bcd60e51b8152600401808060200182810382526026815260200180613c7f6026913960400191505060405180910390fd5b600d546040516001600160a01b038084169216907f8be0079c531659141344cd1fd0a4f28419497f9722a3daafe3b4186f6b6457e090600090a3600d805473ffffffffffffffffffffffffffffffffffffffff19166001600160a01b0392909216919091179055565b612a3081565b600061117260038363ffffffff61304416565b3390565b6000818152600560205260409020805473ffffffffffffffffffffffffffffffffffffffff19166001600160a01b038416908117909155819061273c82611456565b6001600160a01b03167f8c5be1e5ebec7d5bd14f71427d1e84f3dd0314c0f7b2291e5b200ac8c7c3b92560405160405180910390a45050565b600061117282612c21565b600061278b826126e3565b6127c65760405162461bcd60e51b815260040180806020018281038252602c815260200180613da9602c913960400191505060405180910390fd5b60006127d183611456565b9050806001600160a01b0316846001600160a01b0316148061280c5750836001600160a01b031661280184610e76565b6001600160a01b0316145b8061281c575061281c818561258d565b949350505050565b826001600160a01b031661283782611456565b6001600160a01b03161461287c5760405162461bcd60e51b8152600401808060200182810382526029815260200180613f226029913960400191505060405180910390fd5b6001600160a01b0382166128c15760405162461bcd60e51b8152600401808060200182810382526024815260200180613d386024913960400191505060405180910390fd5b6128cc838383613050565b6128d76000826126fa565b6001600160a01b03831660009081526002602052604090206128ff908263ffffffff6130b016565b506001600160a01b0382166000908152600260205260409020612928908263ffffffff6130bc16565b5061293b6003828463ffffffff6130c816565b5080826001600160a01b0316846001600160a01b03167fddf252ad1be2c89b69c2b068fc378daa952ba7f163c4a11628f55a4df523b3ef60405160405180910390a4505050565b60008281526020819052604090206129a0908263ffffffff6130de16565b15611143576129ad6126f6565b6001600160a01b0316816001600160a01b0316837f2f8788117e7eff1d82e926ec794901d17c78024a50270940304540a733656f0d60405160405180910390a45050565b600061116f83836130f3565b6000828152602081905260409020612a1b908263ffffffff61315716565b1561114357612a286126f6565b6001600160a01b0316816001600160a01b0316837ff6391f5c32d9c69d2a47ea670b442974b53935d1edc7fd64eb21e047a839171b60405160405180910390a45050565b612a74611376565b612ac5576040805162461bcd60e51b815260206004820152601460248201527f5061757361626c653a206e6f7420706175736564000000000000000000000000604482015290519081900360640190fd5b600b805460ff191690557f5db9ee0a495bf2e6ff9c91a7834c1ba4fdd244a5e8aa4e537bd38aeae4b073aa612af86126f6565b604080516001600160a01b039092168252519081900360200190a1565b6000612b2082611456565b9050612b2e81600084613050565b612b396000836126fa565b6000828152600960205260409020546002600019610100600184161502019091160415612b77576000828152600960205260408120612b7791613b76565b6001600160a01b0381166000908152600260205260409020612b9f908363ffffffff6130b016565b50612bb160038363ffffffff61316c16565b5060405182906000906001600160a01b038416907fddf252ad1be2c89b69c2b068fc378daa952ba7f163c4a11628f55a4df523b3ef908390a45050565b6000808080612bfd8686613178565b9097909650945050505050565b6000612c178484846131f3565b90505b9392505050565b5490565b6001600160a01b038216612c80576040805162461bcd60e51b815260206004820181905260248201527f4552433732313a206d696e7420746f20746865207a65726f2061646472657373604482015290519081900360640190fd5b612c89816126e3565b15612cdb576040805162461bcd60e51b815260206004820152601c60248201527f4552433732313a20746f6b656e20616c7265616479206d696e74656400000000604482015290519081900360640190fd5b612ce760008383613050565b6001600160a01b0382166000908152600260205260409020612d0f908263ffffffff6130bc16565b50612d226003828463ffffffff6130c816565b5060405181906001600160a01b038416906000907fddf252ad1be2c89b69c2b068fc378daa952ba7f163c4a11628f55a4df523b3ef908290a45050565b80546001019055565b6040805142602080830191909152448284015260608083018590528351808403909101815260809092019092528051910120600090612da784826132bd565b5092915050565b612db6611376565b15612e08576040805162461bcd60e51b815260206004820152601060248201527f5061757361626c653a2070617573656400000000000000000000000000000000604482015290519081900360640190fd5b600b805460ff191660011790557f62e78cea01bee320cd4e420270b5ea74000d11b0c9f74754ebdbfc544b05a258612af86126f6565b600061116f836001600160a01b038416613317565b60008282018381101561116f576040805162461bcd60e51b815260206004820152601b60248201527f536166654d6174683a206164646974696f6e206f766572666c6f770000000000604482015290519081900360640190fd5b600082612ebc57506000611172565b82820282848281612ec957fe5b041461116f5760405162461bcd60e51b8152600401808060200182810382526021815260200180613ed56021913960400191505060405180910390fd5b61114382826040518060200160405280600081525061332f565b4290565b6000808211612f7a576040805162461bcd60e51b815260206004820152601a60248201527f536166654d6174683a206469766973696f6e206279207a65726f000000000000604482015290519081900360640190fd5b818381612f8357fe5b049392505050565b6000808211612fe1576040805162461bcd60e51b815260206004820152601860248201527f536166654d6174683a206d6f64756c6f206279207a65726f0000000000000000604482015290519081900360640190fd5b818381612fea57fe5b069392505050565b612ffd848484612824565b61300984848484613381565b6120265760405162461bcd60e51b8152600401808060200182810382526032815260200180613c4d6032913960400191505060405180910390fd5b600061116f8383613317565b6001600160a01b038216158061306a575061306a81611484565b6130a55760405162461bcd60e51b8152600401808060200182810382526027815260200180613f9c6027913960400191505060405180910390fd5b610fae838383613543565b600061116f838361354e565b600061116f8383613614565b6000612c1784846001600160a01b03851661365e565b600061116f836001600160a01b038416613614565b815460009082106131355760405162461bcd60e51b8152600401808060200182810382526022815260200180613bd16022913960400191505060405180910390fd5b82600001828154811061314457fe5b9060005260206000200154905092915050565b600061116f836001600160a01b03841661354e565b600061116f83836136f5565b8154600090819083106131bc5760405162461bcd60e51b8152600401808060200182810382526022815260200180613eb36022913960400191505060405180910390fd5b60008460000184815481106131cd57fe5b906000526020600020906002020190508060000154816001015492509250509250929050565b6000828152600184016020526040812054828161328e5760405162461bcd60e51b81526004018080602001828103825283818151815260200191508051906020019080838360005b8381101561325357818101518382015260200161323b565b50505050905090810190601f1680156132805780820380516001836020036101000a031916815260200191505b509250505060405180910390fd5b508460000160018203815481106132a157fe5b9060005260206000209060020201600101549150509392505050565b6000828152600e6020526040902060606132e16132dc84612710612f8b565b6137c9565b80519091506132f69083906020840190613adb565b506132ff612f20565b6001830155600061330f85611456565b505050505050565b60009081526001919091016020526040902054151590565b6133398383612c25565b6133466000848484613381565b610fae5760405162461bcd60e51b8152600401808060200182810382526032815260200180613c4d6032913960400191505060405180910390fd5b6000613395846001600160a01b03166138b5565b6133a15750600161281c565b60606134f1630a85bd0160e11b6133b66126f6565b88878760405160240180856001600160a01b03166001600160a01b03168152602001846001600160a01b03166001600160a01b0316815260200183815260200180602001828103825283818151815260200191508051906020019080838360005b8381101561342f578181015183820152602001613417565b50505050905090810190601f16801561345c5780820380516001836020036101000a031916815260200191505b5095505050505050604051602081830303815290604052907bffffffffffffffffffffffffffffffffffffffffffffffffffffffff19166020820180517bffffffffffffffffffffffffffffffffffffffffffffffffffffffff8381831617835250505050604051806060016040528060328152602001613c4d603291396001600160a01b038816919063ffffffff6138bb16565b9050600081806020019051602081101561350a57600080fd5b50517fffffffff0000000000000000000000000000000000000000000000000000000016630a85bd0160e11b1492505050949350505050565b610fae8383836138ca565b6000818152600183016020526040812054801561360a578354600019808301919081019060009087908390811061358157fe5b906000526020600020015490508087600001848154811061359e57fe5b6000918252602080832090910192909255828152600189810190925260409020908401905586548790806135ce57fe5b60019003818190600052602060002001600090559055866001016000878152602001908152602001600020600090556001945050505050611172565b6000915050611172565b60006136208383613317565b61365657508154600181810184556000848152602080822090930184905584548482528286019093526040902091909155611172565b506000611172565b6000828152600184016020526040812054806136c3575050604080518082018252838152602080820184815286546001818101895560008981528481209551600290930290950191825591519082015586548684528188019092529290912055612c1a565b828560000160018303815481106136d657fe5b9060005260206000209060020201600101819055506000915050612c1a565b6000818152600183016020526040812054801561360a578354600019808301919081019060009087908390811061372857fe5b906000526020600020906002020190508087600001848154811061374857fe5b60009182526020808320845460029093020191825560019384015491840191909155835482528983019052604090209084019055865487908061378757fe5b60008281526020808220600260001990940193840201828155600190810183905592909355888152898201909252604082209190915594506111729350505050565b606060005b600a8110156138af57601081600a81106137e457fe5b601091828204019190066002029054906101000a900461ffff1661ffff1683116138a757601181600a811061381557fe5b01805460408051602060026001851615610100026000190190941693909304601f8101849004840282018401909252818152929183018282801561389a5780601f1061386f5761010080835404028352916020019161389a565b820191906000526020600020905b81548152906001019060200180831161387d57829003601f168201915b5050505050915050610dda565b6001016137ce565b50919050565b3b151590565b6060612c178484600085613919565b6138d5838383610fae565b6138dd611376565b15610fae5760405162461bcd60e51b815260040180806020018281038252602b815260200180613bf3602b913960400191505060405180910390fd5b60608247101561395a5760405162461bcd60e51b8152600401808060200182810382526026815260200180613d5c6026913960400191505060405180910390fd5b613963856138b5565b6139b4576040805162461bcd60e51b815260206004820152601d60248201527f416464726573733a2063616c6c20746f206e6f6e2d636f6e7472616374000000604482015290519081900360640190fd5b60006060866001600160a01b031685876040518082805190602001908083835b602083106139f35780518252601f1990920191602091820191016139d4565b6001836020036101000a03801982511681845116808217855250505050505090500191505060006040518083038185875af1925050503d8060008114613a55576040519150601f19603f3d011682016040523d82523d6000602084013e613a5a565b606091505b5091509150613a6a828286613a75565b979650505050505050565b60608315613a84575081612c1a565b825115613a945782518084602001fd5b60405162461bcd60e51b815260206004820181815284516024840152845185939192839260440191908501908083836000831561325357818101518382015260200161323b565b828054600181600116156101000203166002900490600052602060002090601f016020900481019282601f10613b1c57805160ff1916838001178555613b49565b82800160010185558215613b49579182015b82811115613b49578251825591602001919060010190613b2e565b50611c05929150613bb6565b60405180606001604052806060815260200160008152602001600081525090565b50805460018160011615610100020316600290046000825580601f10613b9c5750611357565b601f01602090049060005260206000209081019061135791905b610e7391905b80821115611c055760008155600101613bbc56fe456e756d657261626c655365743a20696e646578206f7574206f6620626f756e64734552433732315061757361626c653a20746f6b656e207472616e73666572207768696c6520706175736564416363657373436f6e74726f6c3a2073656e646572206d75737420626520616e2061646d696e20746f206772616e744552433732313a207472616e7366657220746f206e6f6e20455243373231526563656976657220696d706c656d656e7465724f776e61626c653a206e6577206f776e657220697320746865207a65726f2061646472657373516d5764316d6e374475477978394279664e6571437367645355734a5a316372616769746761796773714476456d4765726d696e6174696f6e2073746172747320323032312d30342d31325431363a30303a30305a4552433732315072657365744d696e7465725061757365724175746f49643a206d75737420686176652070617573657220726f6c6520746f2070617573654552433732313a207472616e7366657220746f20746865207a65726f2061646472657373416464726573733a20696e73756666696369656e742062616c616e636520666f722063616c6c4f6e6c7920746865204f776e65722063616e20776174657220612043727970744f72636869642e4552433732313a206f70657261746f7220717565727920666f72206e6f6e6578697374656e7420746f6b656e416363657373436f6e74726f6c3a2073656e646572206d75737420626520616e2061646d696e20746f207265766f6b654552433732313a20617070726f76652063616c6c6572206973206e6f74206f776e6572206e6f7220617070726f76656420666f7220616c6c4552433732313a2062616c616e636520717565727920666f7220746865207a65726f20616464726573734552433732313a206f776e657220717565727920666f72206e6f6e6578697374656e7420746f6b656e45746865722076616c75652073656e742069732062656c6f7720746865207072696365456e756d657261626c654d61703a20696e646578206f7574206f6620626f756e6473536166654d6174683a206d756c7469706c69636174696f6e206f766572666c6f774552433732313a20617070726f76656420717565727920666f72206e6f6e6578697374656e7420746f6b656e4552433732313a207472616e73666572206f6620746f6b656e2074686174206973206e6f74206f776e596f752063616e20706c616e74206d696e696d756d20312c206d6178696d756d2032302043727970744f7263686964734552433732313a20617070726f76616c20746f2063757272656e74206f776e6572446561642043727970744f7263686964732063616e6e6f74206265207472616e736665727265644552433732313a207472616e736665722063616c6c6572206973206e6f74206f776e6572206e6f7220617070726f7665644f6e6c7920746865204f776e65722063616e206765726d696e61746520612043727970744f72636869642e4552433732315072657365744d696e7465725061757365724175746f49643a206d7573742068617665206d696e74657220726f6c6520746f206d696e744552433732314275726e61626c653a2063616c6c6572206973206e6f74206f776e6572206e6f7220617070726f7665644552433732315072657365744d696e7465725061757365724175746f49643a206d75737420686176652070617573657220726f6c6520746f20756e7061757365416363657373436f6e74726f6c3a2063616e206f6e6c792072656e6f756e636520726f6c657320666f722073656c66a2646970667358221220b573b737a71ca0dc0410b6ab730f71fa8b5d28835400075d516f78b8d0eee85364736f6c63430006060033516d55384d4e7a6e5436464431763558646e536541366345597178706a374d676b4543706f7433614345526572582f637970726970656469756d2d63616c63656f6c75732e6a736f6e516d55384d4e7a6e5436464431763558646e536541366345597178706a374d676b4543706f7433614345526572582f64656e64726f7068796c61782d6c696e64656e69692e6a736f6e516d56376e735167484e76777952786262685035396948336772715366713367376a6f53506153314a47526d4a612f70617068696f706564696c756d2d726f7468736368696c6469616e756d2e6a736f6e516d55384d4e7a6e5436464431763558646e536541366345597178706a374d676b4543706f7433614345526572582f706c6174616e74686572612d617a6f726963612e6a736f6e516d56376e735167484e76777952786262685035396948336772715366713367376a6f53506153314a47526d4a612f637970726970656469756d2d63616c63656f6c75732e6a736f6e516d56376e735167484e76777952786262685035396948336772715366713367376a6f53506153314a47526d4a612f7068616c61656e6f707369732d6d6963686f6c69747a69692e6a736f6e516d55384d4e7a6e5436464431763558646e536541366345597178706a374d676b4543706f7433614345526572582f76616e64612d636f6572756c65612e6a736f6e516d55384d4e7a6e5436464431763558646e536541366345597178706a374d676b4543706f7433614345526572582f6d696c746f6e69612d6b61796173696d61652e6a736f6e516d56376e735167484e76777952786262685035396948336772715366713367376a6f53506153314a47526d4a612f70617068696f706564696c756d2d766965746e616d656e73652e6a736f6e516d55384d4e7a6e5436464431763558646e536541366345597178706a374d676b4543706f7433614345526572582f6775617269616e7468652d617572616e74696163612e6a736f6e516d56376e735167484e76777952786262685035396948336772715366713367376a6f53506153314a47526d4a612f7368656e7a68656e6963612d6f726368696461636561652e6a736f6e516d56376e735167484e76777952786262685035396948336772715366713367376a6f53506153314a47526d4a612f6d696c746f6e69612d6b61796173696d61652e6a736f6e516d56376e735167484e76777952786262685035396948336772715366713367376a6f53506153314a47526d4a612f76616e64612d636f6572756c65612e6a736f6e516d55384d4e7a6e5436464431763558646e536541366345597178706a374d676b4543706f7433614345526572582f70617068696f706564696c756d2d726f7468736368696c6469616e756d2e6a736f6e516d56376e735167484e76777952786262685035396948336772715366713367376a6f53506153314a47526d4a612f6775617269616e7468652d617572616e74696163612e6a736f6e516d55384d4e7a6e5436464431763558646e536541366345597178706a374d676b4543706f7433614345526572582f70617068696f706564696c756d2d766965746e616d656e73652e6a736f6e516d56376e735167484e76777952786262685035396948336772715366713367376a6f53506153314a47526d4a612f64656e64726f7068796c61782d6c696e64656e69692e6a736f6e516d55384d4e7a6e5436464431763558646e536541366345597178706a374d676b4543706f7433614345526572582f7068616c61656e6f707369732d6d6963686f6c69747a69692e6a736f6e516d55384d4e7a6e5436464431763558646e536541366345597178706a374d676b4543706f7433614345526572582f7368656e7a68656e6963612d6f726368696461636561652e6a736f6e516d56376e735167484e76777952786262685035396948336772715366713367376a6f53506153314a47526d4a612f706c6174616e74686572612d617a6f726963612e6a736f6e",
  "devdoc": {
    "methods": {
      "approve(address,uint256)": {
        "details": "See {IERC721-approve}."
      },
      "balanceOf(address)": {
        "details": "See {IERC721-balanceOf}."
      },
      "baseURI()": {
        "details": "Returns the base URI set via {_setBaseURI}. This will be automatically added as a prefix in {tokenURI} to each token's URI, or to the token ID if no specific URI is set for that token ID."
      },
      "burn(uint256)": {
        "details": "Burns `tokenId`. See {ERC721-_burn}.     * Requirements:     * - The caller must own `tokenId` or be an approved operator."
      },
      "getApproved(uint256)": {
        "details": "See {IERC721-getApproved}."
      },
      "getRoleAdmin(bytes32)": {
        "details": "Returns the admin role that controls `role`. See {grantRole} and {revokeRole}.     * To change a role's admin, use {_setRoleAdmin}."
      },
      "getRoleMember(bytes32,uint256)": {
        "details": "Returns one of the accounts that have `role`. `index` must be a value between 0 and {getRoleMemberCount}, non-inclusive.     * Role bearers are not sorted in any particular way, and their ordering may change at any point.     * WARNING: When using {getRoleMember} and {getRoleMemberCount}, make sure you perform all queries on the same block. See the following https://forum.openzeppelin.com/t/iterating-over-elements-on-enumerableset-in-openzeppelin-contracts/2296[forum post] for more information."
      },
      "getRoleMemberCount(bytes32)": {
        "details": "Returns the number of accounts that have `role`. Can be used together with {getRoleMember} to enumerate all bearers of a role."
      },
      "grantRole(bytes32,address)": {
        "details": "Grants `role` to `account`.     * If `account` had not been already granted `role`, emits a {RoleGranted} event.     * Requirements:     * - the caller must have ``role``'s admin role."
      },
      "hasRole(bytes32,address)": {
        "details": "Returns `true` if `account` has been granted `role`."
      },
      "isApprovedForAll(address,address)": {
        "details": "See {IERC721-isApprovedForAll}."
      },
      "mint(address)": {
        "details": "Creates a new token for `to`. Its token ID will be automatically assigned (and available on the emitted {IERC721-Transfer} event), and the token URI autogenerated based on the base URI passed at construction.     * See {ERC721-_mint}.     * Requirements:     * - the caller must have the `MINTER_ROLE`."
      },
      "name()": {
        "details": "See {IERC721Metadata-name}."
      },
      "owner()": {
        "details": "Returns the address of the current owner."
      },
      "ownerOf(uint256)": {
        "details": "See {IERC721-ownerOf}."
      },
      "pause()": {
        "details": "Pauses all token transfers.     * See {ERC721Pausable} and {Pausable-_pause}.     * Requirements:     * - the caller must have the `PAUSER_ROLE`."
      },
      "paused()": {
        "details": "Returns true if the contract is paused, and false otherwise."
      },
      "renounceOwnership()": {
        "details": "Leaves the contract without owner. It will not be possible to call `onlyOwner` functions anymore. Can only be called by the current owner.     * NOTE: Renouncing ownership will leave the contract without an owner, thereby removing any functionality that is only available to the owner."
      },
      "renounceRole(bytes32,address)": {
        "details": "Revokes `role` from the calling account.     * Roles are often managed via {grantRole} and {revokeRole}: this function's purpose is to provide a mechanism for accounts to lose their privileges if they are compromised (such as when a trusted device is misplaced).     * If the calling account had been granted `role`, emits a {RoleRevoked} event.     * Requirements:     * - the caller must be `account`."
      },
      "revokeRole(bytes32,address)": {
        "details": "Revokes `role` from `account`.     * If `account` had been granted `role`, emits a {RoleRevoked} event.     * Requirements:     * - the caller must have ``role``'s admin role."
      },
      "safeTransferFrom(address,address,uint256)": {
        "details": "See {IERC721-safeTransferFrom}."
      },
      "safeTransferFrom(address,address,uint256,bytes)": {
        "details": "See {IERC721-safeTransferFrom}."
      },
      "setApprovalForAll(address,bool)": {
        "details": "See {IERC721-setApprovalForAll}."
      },
      "supportsInterface(bytes4)": {
        "details": "See {IERC165-supportsInterface}.     * Time complexity O(1), guaranteed to always use less than 30 000 gas."
      },
      "symbol()": {
        "details": "See {IERC721Metadata-symbol}."
      },
      "tokenByIndex(uint256)": {
        "details": "See {IERC721Enumerable-tokenByIndex}."
      },
      "tokenOfOwnerByIndex(address,uint256)": {
        "details": "See {IERC721Enumerable-tokenOfOwnerByIndex}."
      },
      "totalSupply()": {
        "details": "See {IERC721Enumerable-totalSupply}."
      },
      "transferFrom(address,address,uint256)": {
        "details": "See {IERC721-transferFrom}."
      },
      "transferOwnership(address)": {
        "details": "Transfers ownership of the contract to a new account (`newOwner`). Can only be called by the current owner."
      },
      "unpause()": {
        "details": "Unpauses all token transfers.     * See {ERC721Pausable} and {Pausable-_unpause}.     * Requirements:     * - the caller must have the `PAUSER_ROLE`."
      },
      "withdraw()": {
        "details": "Withdraw ether from this contract (Callable by owner only)"
      }
    }
  },
  "userdoc": {
    "methods": {}
  },
  "storageLayout": {
    "storage": [
      {
        "astId": 549,
        "contract": "contracts/CryptOrchidGoerli/CryptOrchidGoerli.sol:CryptOrchidGoerli",
        "label": "_roles",
        "offset": 0,
        "slot": "0",
        "type": "t_mapping(t_bytes32,t_struct(RoleData)545_storage)"
      },
      {
        "astId": 932,
        "contract": "contracts/CryptOrchidGoerli/CryptOrchidGoerli.sol:CryptOrchidGoerli",
        "label": "_supportedInterfaces",
        "offset": 0,
        "slot": "1",
        "type": "t_mapping(t_bytes4,t_bool)"
      },
      {
        "astId": 3555,
        "contract": "contracts/CryptOrchidGoerli/CryptOrchidGoerli.sol:CryptOrchidGoerli",
        "label": "_holderTokens",
        "offset": 0,
        "slot": "2",
        "type": "t_mapping(t_address,t_struct(UintSet)6038_storage)"
      },
      {
        "astId": 3557,
        "contract": "contracts/CryptOrchidGoerli/CryptOrchidGoerli.sol:CryptOrchidGoerli",
        "label": "_tokenOwners",
        "offset": 0,
        "slot": "3",
        "type": "t_struct(UintToAddressMap)5415_storage"
      },
      {
        "astId": 3561,
        "contract": "contracts/CryptOrchidGoerli/CryptOrchidGoerli.sol:CryptOrchidGoerli",
        "label": "_tokenApprovals",
        "offset": 0,
        "slot": "5",
        "type": "t_mapping(t_uint256,t_address)"
      },
      {
        "astId": 3567,
        "contract": "contracts/CryptOrchidGoerli/CryptOrchidGoerli.sol:CryptOrchidGoerli",
        "label": "_operatorApprovals",
        "offset": 0,
        "slot": "6",
        "type": "t_mapping(t_address,t_mapping(t_address,t_bool))"
      },
      {
        "astId": 3569,
        "contract": "contracts/CryptOrchidGoerli/CryptOrchidGoerli.sol:CryptOrchidGoerli",
        "label": "_name",
        "offset": 0,
        "slot": "7",
        "type": "t_string_storage"
      },
      {
        "astId": 3571,
        "contract": "contracts/CryptOrchidGoerli/CryptOrchidGoerli.sol:CryptOrchidGoerli",
        "label": "_symbol",
        "offset": 0,
        "slot": "8",
        "type": "t_string_storage"
      },
      {
        "astId": 3575,
        "contract": "contracts/CryptOrchidGoerli/CryptOrchidGoerli.sol:CryptOrchidGoerli",
        "label": "_tokenURIs",
        "offset": 0,
        "slot": "9",
        "type": "t_mapping(t_uint256,t_string_storage)"
      },
      {
        "astId": 3577,
        "contract": "contracts/CryptOrchidGoerli/CryptOrchidGoerli.sol:CryptOrchidGoerli",
        "label": "_baseURI",
        "offset": 0,
        "slot": "10",
        "type": "t_string_storage"
      },
      {
        "astId": 6151,
        "contract": "contracts/CryptOrchidGoerli/CryptOrchidGoerli.sol:CryptOrchidGoerli",
        "label": "_paused",
        "offset": 0,
        "slot": "11",
        "type": "t_bool"
      },
      {
        "astId": 1374,
        "contract": "contracts/CryptOrchidGoerli/CryptOrchidGoerli.sol:CryptOrchidGoerli",
        "label": "_tokenIdTracker",
        "offset": 0,
        "slot": "12",
        "type": "t_struct(Counter)5041_storage"
      },
      {
        "astId": 817,
        "contract": "contracts/CryptOrchidGoerli/CryptOrchidGoerli.sol:CryptOrchidGoerli",
        "label": "_owner",
        "offset": 0,
        "slot": "13",
        "type": "t_address"
      },
      {
        "astId": 8360,
        "contract": "contracts/CryptOrchidGoerli/CryptOrchidGoerli.sol:CryptOrchidGoerli",
        "label": "cryptorchids",
        "offset": 0,
        "slot": "14",
        "type": "t_mapping(t_uint256,t_struct(CryptOrchid)8356_storage)"
      },
      {
        "astId": 8368,
        "contract": "contracts/CryptOrchidGoerli/CryptOrchidGoerli.sol:CryptOrchidGoerli",
        "label": "saleStarted",
        "offset": 0,
        "slot": "15",
        "type": "t_bool"
      },
      {
        "astId": 8371,
        "contract": "contracts/CryptOrchidGoerli/CryptOrchidGoerli.sol:CryptOrchidGoerli",
        "label": "growingStarted",
        "offset": 1,
        "slot": "15",
        "type": "t_bool"
      },
      {
        "astId": 8405,
        "contract": "contracts/CryptOrchidGoerli/CryptOrchidGoerli.sol:CryptOrchidGoerli",
        "label": "limits",
        "offset": 0,
        "slot": "16",
        "type": "t_array(t_uint16)10_storage"
      },
      {
        "astId": 8420,
        "contract": "contracts/CryptOrchidGoerli/CryptOrchidGoerli.sol:CryptOrchidGoerli",
        "label": "genum",
        "offset": 0,
        "slot": "17",
        "type": "t_array(t_string_storage)10_storage"
      },
      {
        "astId": 8435,
        "contract": "contracts/CryptOrchidGoerli/CryptOrchidGoerli.sol:CryptOrchidGoerli",
        "label": "speciesIPFSConstant",
        "offset": 0,
        "slot": "27",
        "type": "t_array(t_string_storage)10_storage"
      },
      {
        "astId": 8450,
        "contract": "contracts/CryptOrchidGoerli/CryptOrchidGoerli.sol:CryptOrchidGoerli",
        "label": "deadSpeciesIPFSConstant",
        "offset": 0,
        "slot": "37",
        "type": "t_array(t_string_storage)10_storage"
      },
      {
        "astId": 8452,
        "contract": "contracts/CryptOrchidGoerli/CryptOrchidGoerli.sol:CryptOrchidGoerli",
        "label": "_tokenIds",
        "offset": 0,
        "slot": "47",
        "type": "t_struct(Counter)5041_storage"
      },
      {
        "astId": 8456,
        "contract": "contracts/CryptOrchidGoerli/CryptOrchidGoerli.sol:CryptOrchidGoerli",
        "label": "requestToToken",
        "offset": 0,
        "slot": "48",
        "type": "t_mapping(t_bytes32,t_uint256)"
      },
      {
        "astId": 8460,
        "contract": "contracts/CryptOrchidGoerli/CryptOrchidGoerli.sol:CryptOrchidGoerli",
        "label": "speciesIPFS",
        "offset": 0,
        "slot": "49",
        "type": "t_mapping(t_bytes32,t_string_storage)"
      },
      {
        "astId": 8464,
        "contract": "contracts/CryptOrchidGoerli/CryptOrchidGoerli.sol:CryptOrchidGoerli",
        "label": "deadSpeciesIPFS",
        "offset": 0,
        "slot": "50",
        "type": "t_mapping(t_bytes32,t_string_storage)"
      }
    ],
    "types": {
      "t_address": {
        "encoding": "inplace",
        "label": "address",
        "numberOfBytes": "20"
      },
      "t_array(t_bytes32)dyn_storage": {
        "base": "t_bytes32",
        "encoding": "dynamic_array",
        "label": "bytes32[]",
        "numberOfBytes": "32"
      },
      "t_array(t_string_storage)10_storage": {
        "base": "t_string_storage",
        "encoding": "inplace",
        "label": "string[10]",
        "numberOfBytes": "320"
      },
      "t_array(t_struct(MapEntry)5089_storage)dyn_storage": {
        "base": "t_struct(MapEntry)5089_storage",
        "encoding": "dynamic_array",
        "label": "struct EnumerableMap.MapEntry[]",
        "numberOfBytes": "32"
      },
      "t_array(t_uint16)10_storage": {
        "base": "t_uint16",
        "encoding": "inplace",
        "label": "uint16[10]",
        "numberOfBytes": "32"
      },
      "t_bool": {
        "encoding": "inplace",
        "label": "bool",
        "numberOfBytes": "1"
      },
      "t_bytes32": {
        "encoding": "inplace",
        "label": "bytes32",
        "numberOfBytes": "32"
      },
      "t_bytes4": {
        "encoding": "inplace",
        "label": "bytes4",
        "numberOfBytes": "4"
      },
      "t_mapping(t_address,t_bool)": {
        "encoding": "mapping",
        "key": "t_address",
        "label": "mapping(address => bool)",
        "numberOfBytes": "32",
        "value": "t_bool"
      },
      "t_mapping(t_address,t_mapping(t_address,t_bool))": {
        "encoding": "mapping",
        "key": "t_address",
        "label": "mapping(address => mapping(address => bool))",
        "numberOfBytes": "32",
        "value": "t_mapping(t_address,t_bool)"
      },
      "t_mapping(t_address,t_struct(UintSet)6038_storage)": {
        "encoding": "mapping",
        "key": "t_address",
        "label": "mapping(address => struct EnumerableSet.UintSet)",
        "numberOfBytes": "32",
        "value": "t_struct(UintSet)6038_storage"
      },
      "t_mapping(t_bytes32,t_string_storage)": {
        "encoding": "mapping",
        "key": "t_bytes32",
        "label": "mapping(bytes32 => string)",
        "numberOfBytes": "32",
        "value": "t_string_storage"
      },
      "t_mapping(t_bytes32,t_struct(RoleData)545_storage)": {
        "encoding": "mapping",
        "key": "t_bytes32",
        "label": "mapping(bytes32 => struct AccessControl.RoleData)",
        "numberOfBytes": "32",
        "value": "t_struct(RoleData)545_storage"
      },
      "t_mapping(t_bytes32,t_uint256)": {
        "encoding": "mapping",
        "key": "t_bytes32",
        "label": "mapping(bytes32 => uint256)",
        "numberOfBytes": "32",
        "value": "t_uint256"
      },
      "t_mapping(t_bytes4,t_bool)": {
        "encoding": "mapping",
        "key": "t_bytes4",
        "label": "mapping(bytes4 => bool)",
        "numberOfBytes": "32",
        "value": "t_bool"
      },
      "t_mapping(t_uint256,t_address)": {
        "encoding": "mapping",
        "key": "t_uint256",
        "label": "mapping(uint256 => address)",
        "numberOfBytes": "32",
        "value": "t_address"
      },
      "t_mapping(t_uint256,t_string_storage)": {
        "encoding": "mapping",
        "key": "t_uint256",
        "label": "mapping(uint256 => string)",
        "numberOfBytes": "32",
        "value": "t_string_storage"
      },
      "t_mapping(t_uint256,t_struct(CryptOrchid)8356_storage)": {
        "encoding": "mapping",
        "key": "t_uint256",
        "label": "mapping(uint256 => struct CryptOrchidGoerli.CryptOrchid)",
        "numberOfBytes": "32",
        "value": "t_struct(CryptOrchid)8356_storage"
      },
      "t_string_storage": {
        "encoding": "bytes",
        "label": "string",
        "numberOfBytes": "32"
      },
      "t_struct(AddressSet)5917_storage": {
        "encoding": "inplace",
        "label": "struct EnumerableSet.AddressSet",
        "members": [
          {
            "astId": 5916,
            "contract": "contracts/CryptOrchidGoerli/CryptOrchidGoerli.sol:CryptOrchidGoerli",
            "label": "_inner",
            "offset": 0,
            "slot": "0",
            "type": "t_struct(Set)5652_storage"
          }
        ],
        "numberOfBytes": "64"
      },
      "t_struct(Counter)5041_storage": {
        "encoding": "inplace",
        "label": "struct Counters.Counter",
        "members": [
          {
            "astId": 5040,
            "contract": "contracts/CryptOrchidGoerli/CryptOrchidGoerli.sol:CryptOrchidGoerli",
            "label": "_value",
            "offset": 0,
            "slot": "0",
            "type": "t_uint256"
          }
        ],
        "numberOfBytes": "32"
      },
      "t_struct(CryptOrchid)8356_storage": {
        "encoding": "inplace",
        "label": "struct CryptOrchidGoerli.CryptOrchid",
        "members": [
          {
            "astId": 8351,
            "contract": "contracts/CryptOrchidGoerli/CryptOrchidGoerli.sol:CryptOrchidGoerli",
            "label": "species",
            "offset": 0,
            "slot": "0",
            "type": "t_string_storage"
          },
          {
            "astId": 8353,
            "contract": "contracts/CryptOrchidGoerli/CryptOrchidGoerli.sol:CryptOrchidGoerli",
            "label": "plantedAt",
            "offset": 0,
            "slot": "1",
            "type": "t_uint256"
          },
          {
            "astId": 8355,
            "contract": "contracts/CryptOrchidGoerli/CryptOrchidGoerli.sol:CryptOrchidGoerli",
            "label": "waterLevel",
            "offset": 0,
            "slot": "2",
            "type": "t_uint256"
          }
        ],
        "numberOfBytes": "96"
      },
      "t_struct(Map)5097_storage": {
        "encoding": "inplace",
        "label": "struct EnumerableMap.Map",
        "members": [
          {
            "astId": 5092,
            "contract": "contracts/CryptOrchidGoerli/CryptOrchidGoerli.sol:CryptOrchidGoerli",
            "label": "_entries",
            "offset": 0,
            "slot": "0",
            "type": "t_array(t_struct(MapEntry)5089_storage)dyn_storage"
          },
          {
            "astId": 5096,
            "contract": "contracts/CryptOrchidGoerli/CryptOrchidGoerli.sol:CryptOrchidGoerli",
            "label": "_indexes",
            "offset": 0,
            "slot": "1",
            "type": "t_mapping(t_bytes32,t_uint256)"
          }
        ],
        "numberOfBytes": "64"
      },
      "t_struct(MapEntry)5089_storage": {
        "encoding": "inplace",
        "label": "struct EnumerableMap.MapEntry",
        "members": [
          {
            "astId": 5086,
            "contract": "contracts/CryptOrchidGoerli/CryptOrchidGoerli.sol:CryptOrchidGoerli",
            "label": "_key",
            "offset": 0,
            "slot": "0",
            "type": "t_bytes32"
          },
          {
            "astId": 5088,
            "contract": "contracts/CryptOrchidGoerli/CryptOrchidGoerli.sol:CryptOrchidGoerli",
            "label": "_value",
            "offset": 0,
            "slot": "1",
            "type": "t_bytes32"
          }
        ],
        "numberOfBytes": "64"
      },
      "t_struct(RoleData)545_storage": {
        "encoding": "inplace",
        "label": "struct AccessControl.RoleData",
        "members": [
          {
            "astId": 542,
            "contract": "contracts/CryptOrchidGoerli/CryptOrchidGoerli.sol:CryptOrchidGoerli",
            "label": "members",
            "offset": 0,
            "slot": "0",
            "type": "t_struct(AddressSet)5917_storage"
          },
          {
            "astId": 544,
            "contract": "contracts/CryptOrchidGoerli/CryptOrchidGoerli.sol:CryptOrchidGoerli",
            "label": "adminRole",
            "offset": 0,
            "slot": "2",
            "type": "t_bytes32"
          }
        ],
        "numberOfBytes": "96"
      },
      "t_struct(Set)5652_storage": {
        "encoding": "inplace",
        "label": "struct EnumerableSet.Set",
        "members": [
          {
            "astId": 5647,
            "contract": "contracts/CryptOrchidGoerli/CryptOrchidGoerli.sol:CryptOrchidGoerli",
            "label": "_values",
            "offset": 0,
            "slot": "0",
            "type": "t_array(t_bytes32)dyn_storage"
          },
          {
            "astId": 5651,
            "contract": "contracts/CryptOrchidGoerli/CryptOrchidGoerli.sol:CryptOrchidGoerli",
            "label": "_indexes",
            "offset": 0,
            "slot": "1",
            "type": "t_mapping(t_bytes32,t_uint256)"
          }
        ],
        "numberOfBytes": "64"
      },
      "t_struct(UintSet)6038_storage": {
        "encoding": "inplace",
        "label": "struct EnumerableSet.UintSet",
        "members": [
          {
            "astId": 6037,
            "contract": "contracts/CryptOrchidGoerli/CryptOrchidGoerli.sol:CryptOrchidGoerli",
            "label": "_inner",
            "offset": 0,
            "slot": "0",
            "type": "t_struct(Set)5652_storage"
          }
        ],
        "numberOfBytes": "64"
      },
      "t_struct(UintToAddressMap)5415_storage": {
        "encoding": "inplace",
        "label": "struct EnumerableMap.UintToAddressMap",
        "members": [
          {
            "astId": 5414,
            "contract": "contracts/CryptOrchidGoerli/CryptOrchidGoerli.sol:CryptOrchidGoerli",
            "label": "_inner",
            "offset": 0,
            "slot": "0",
            "type": "t_struct(Map)5097_storage"
          }
        ],
        "numberOfBytes": "64"
      },
      "t_uint16": {
        "encoding": "inplace",
        "label": "uint16",
        "numberOfBytes": "2"
      },
      "t_uint256": {
        "encoding": "inplace",
        "label": "uint256",
        "numberOfBytes": "32"
      }
    }
  }
}