{
  "address": "0x676bb92D634306426513C90104445818711D9F5E",
  "abi": [
    {
      "inputs": [
        {
          "internalType": "address",
          "name": "_VRFCoordinator",
          "type": "address"
        },
        {
          "internalType": "address",
          "name": "_LinkToken",
          "type": "address"
        },
        {
          "internalType": "bytes32",
          "name": "_keyhash",
          "type": "bytes32"
        }
      ],
      "stateMutability": "payable",
      "type": "constructor"
    },
    {
      "anonymous": false,
      "inputs": [
        {
          "indexed": true,
          "internalType": "address",
          "name": "owner",
          "type": "address"
        },
        {
          "indexed": true,
          "internalType": "address",
          "name": "approved",
          "type": "address"
        },
        {
          "indexed": true,
          "internalType": "uint256",
          "name": "tokenId",
          "type": "uint256"
        }
      ],
      "name": "Approval",
      "type": "event"
    },
    {
      "anonymous": false,
      "inputs": [
        {
          "indexed": true,
          "internalType": "address",
          "name": "owner",
          "type": "address"
        },
        {
          "indexed": true,
          "internalType": "address",
          "name": "operator",
          "type": "address"
        },
        {
          "indexed": false,
          "internalType": "bool",
          "name": "approved",
          "type": "bool"
        }
      ],
      "name": "ApprovalForAll",
      "type": "event"
    },
    {
      "anonymous": false,
      "inputs": [
        {
          "indexed": false,
          "internalType": "uint256",
          "name": "tokenId",
          "type": "uint256"
        }
      ],
      "name": "Composted",
      "type": "event"
    },
    {
      "anonymous": false,
      "inputs": [
        {
          "indexed": false,
          "internalType": "uint256",
          "name": "tokenId",
          "type": "uint256"
        }
      ],
      "name": "OverWatered",
      "type": "event"
    },
    {
      "anonymous": false,
      "inputs": [
        {
          "indexed": true,
          "internalType": "address",
          "name": "previousOwner",
          "type": "address"
        },
        {
          "indexed": true,
          "internalType": "address",
          "name": "newOwner",
          "type": "address"
        }
      ],
      "name": "OwnershipTransferred",
      "type": "event"
    },
    {
      "anonymous": false,
      "inputs": [
        {
          "indexed": false,
          "internalType": "address",
          "name": "account",
          "type": "address"
        }
      ],
      "name": "Paused",
      "type": "event"
    },
    {
      "anonymous": false,
      "inputs": [
        {
          "indexed": false,
          "internalType": "bytes32",
          "name": "requestId",
          "type": "bytes32"
        }
      ],
      "name": "RequestedRandomness",
      "type": "event"
    },
    {
      "anonymous": false,
      "inputs": [
        {
          "indexed": true,
          "internalType": "bytes32",
          "name": "role",
          "type": "bytes32"
        },
        {
          "indexed": true,
          "internalType": "bytes32",
          "name": "previousAdminRole",
          "type": "bytes32"
        },
        {
          "indexed": true,
          "internalType": "bytes32",
          "name": "newAdminRole",
          "type": "bytes32"
        }
      ],
      "name": "RoleAdminChanged",
      "type": "event"
    },
    {
      "anonymous": false,
      "inputs": [
        {
          "indexed": true,
          "internalType": "bytes32",
          "name": "role",
          "type": "bytes32"
        },
        {
          "indexed": true,
          "internalType": "address",
          "name": "account",
          "type": "address"
        },
        {
          "indexed": true,
          "internalType": "address",
          "name": "sender",
          "type": "address"
        }
      ],
      "name": "RoleGranted",
      "type": "event"
    },
    {
      "anonymous": false,
      "inputs": [
        {
          "indexed": true,
          "internalType": "bytes32",
          "name": "role",
          "type": "bytes32"
        },
        {
          "indexed": true,
          "internalType": "address",
          "name": "account",
          "type": "address"
        },
        {
          "indexed": true,
          "internalType": "address",
          "name": "sender",
          "type": "address"
        }
      ],
      "name": "RoleRevoked",
      "type": "event"
    },
    {
      "anonymous": false,
      "inputs": [
        {
          "indexed": true,
          "internalType": "address",
          "name": "from",
          "type": "address"
        },
        {
          "indexed": true,
          "internalType": "address",
          "name": "to",
          "type": "address"
        },
        {
          "indexed": true,
          "internalType": "uint256",
          "name": "tokenId",
          "type": "uint256"
        }
      ],
      "name": "Transfer",
      "type": "event"
    },
    {
      "anonymous": false,
      "inputs": [
        {
          "indexed": false,
          "internalType": "address",
          "name": "account",
          "type": "address"
        }
      ],
      "name": "Unpaused",
      "type": "event"
    },
    {
      "anonymous": false,
      "inputs": [
        {
          "indexed": false,
          "internalType": "uint256",
          "name": "tokenId",
          "type": "uint256"
        },
        {
          "indexed": false,
          "internalType": "uint256",
          "name": "waterLevel",
          "type": "uint256"
        }
      ],
      "name": "Watered",
      "type": "event"
    },
    {
      "inputs": [],
      "name": "DEFAULT_ADMIN_ROLE",
      "outputs": [
        {
          "internalType": "bytes32",
          "name": "",
          "type": "bytes32"
        }
      ],
      "stateMutability": "view",
      "type": "function"
    },
    {
      "inputs": [],
      "name": "GROWTH_CYCLE",
      "outputs": [
        {
          "internalType": "uint256",
          "name": "",
          "type": "uint256"
        }
      ],
      "stateMutability": "view",
      "type": "function"
    },
    {
      "inputs": [],
      "name": "LinkToken",
      "outputs": [
        {
          "internalType": "address",
          "name": "",
          "type": "address"
        }
      ],
      "stateMutability": "view",
      "type": "function"
    },
    {
      "inputs": [],
      "name": "MAX_CRYPTORCHIDS",
      "outputs": [
        {
          "internalType": "uint256",
          "name": "",
          "type": "uint256"
        }
      ],
      "stateMutability": "view",
      "type": "function"
    },
    {
      "inputs": [],
      "name": "MINTER_ROLE",
      "outputs": [
        {
          "internalType": "bytes32",
          "name": "",
          "type": "bytes32"
        }
      ],
      "stateMutability": "view",
      "type": "function"
    },
    {
      "inputs": [],
      "name": "PAUSER_ROLE",
      "outputs": [
        {
          "internalType": "bytes32",
          "name": "",
          "type": "bytes32"
        }
      ],
      "stateMutability": "view",
      "type": "function"
    },
    {
      "inputs": [],
      "name": "VRFCoordinator",
      "outputs": [
        {
          "internalType": "address",
          "name": "",
          "type": "address"
        }
      ],
      "stateMutability": "view",
      "type": "function"
    },
    {
      "inputs": [],
      "name": "WATERING_WINDOW",
      "outputs": [
        {
          "internalType": "uint256",
          "name": "",
          "type": "uint256"
        }
      ],
      "stateMutability": "view",
      "type": "function"
    },
    {
      "inputs": [
        {
          "internalType": "uint256",
          "name": "index",
          "type": "uint256"
        }
      ],
      "name": "alive",
      "outputs": [
        {
          "internalType": "bool",
          "name": "",
          "type": "bool"
        }
      ],
      "stateMutability": "view",
      "type": "function"
    },
    {
      "inputs": [
        {
          "internalType": "address",
          "name": "to",
          "type": "address"
        },
        {
          "internalType": "uint256",
          "name": "tokenId",
          "type": "uint256"
        }
      ],
      "name": "approve",
      "outputs": [],
      "stateMutability": "nonpayable",
      "type": "function"
    },
    {
      "inputs": [
        {
          "internalType": "address",
          "name": "owner",
          "type": "address"
        }
      ],
      "name": "balanceOf",
      "outputs": [
        {
          "internalType": "uint256",
          "name": "",
          "type": "uint256"
        }
      ],
      "stateMutability": "view",
      "type": "function"
    },
    {
      "inputs": [],
      "name": "baseURI",
      "outputs": [
        {
          "internalType": "string",
          "name": "",
          "type": "string"
        }
      ],
      "stateMutability": "view",
      "type": "function"
    },
    {
      "inputs": [
        {
          "internalType": "uint256",
          "name": "tokenId",
          "type": "uint256"
        }
      ],
      "name": "burn",
      "outputs": [],
      "stateMutability": "nonpayable",
      "type": "function"
    },
    {
      "inputs": [
        {
          "internalType": "uint256",
          "name": "tokenId",
          "type": "uint256"
        }
      ],
      "name": "compost",
      "outputs": [],
      "stateMutability": "nonpayable",
      "type": "function"
    },
    {
      "inputs": [],
      "name": "creator",
      "outputs": [
        {
          "internalType": "address payable",
          "name": "",
          "type": "address"
        }
      ],
      "stateMutability": "view",
      "type": "function"
    },
    {
      "inputs": [
        {
          "internalType": "uint256",
          "name": "",
          "type": "uint256"
        }
      ],
      "name": "cryptorchids",
      "outputs": [
        {
          "internalType": "string",
          "name": "species",
          "type": "string"
        },
        {
          "internalType": "uint256",
          "name": "plantedAt",
          "type": "uint256"
        }
      ],
      "stateMutability": "view",
      "type": "function"
    },
    {
      "inputs": [],
      "name": "currentPrice",
      "outputs": [
        {
          "internalType": "uint256",
          "name": "price",
          "type": "uint256"
        }
      ],
      "stateMutability": "view",
      "type": "function"
    },
    {
      "inputs": [
        {
          "internalType": "uint256",
          "name": "tokenId",
          "type": "uint256"
        }
      ],
      "name": "getApproved",
      "outputs": [
        {
          "internalType": "address",
          "name": "",
          "type": "address"
        }
      ],
      "stateMutability": "view",
      "type": "function"
    },
    {
      "inputs": [
        {
          "internalType": "bytes32",
          "name": "role",
          "type": "bytes32"
        }
      ],
      "name": "getRoleAdmin",
      "outputs": [
        {
          "internalType": "bytes32",
          "name": "",
          "type": "bytes32"
        }
      ],
      "stateMutability": "view",
      "type": "function"
    },
    {
      "inputs": [
        {
          "internalType": "bytes32",
          "name": "role",
          "type": "bytes32"
        },
        {
          "internalType": "uint256",
          "name": "index",
          "type": "uint256"
        }
      ],
      "name": "getRoleMember",
      "outputs": [
        {
          "internalType": "address",
          "name": "",
          "type": "address"
        }
      ],
      "stateMutability": "view",
      "type": "function"
    },
    {
      "inputs": [
        {
          "internalType": "bytes32",
          "name": "role",
          "type": "bytes32"
        }
      ],
      "name": "getRoleMemberCount",
      "outputs": [
        {
          "internalType": "uint256",
          "name": "",
          "type": "uint256"
        }
      ],
      "stateMutability": "view",
      "type": "function"
    },
    {
      "inputs": [
        {
          "internalType": "uint256",
          "name": "tokenId",
          "type": "uint256"
        }
      ],
      "name": "getTokenMetadata",
      "outputs": [
        {
          "internalType": "string",
          "name": "",
          "type": "string"
        },
        {
          "internalType": "uint256",
          "name": "",
          "type": "uint256"
        }
      ],
      "stateMutability": "view",
      "type": "function"
    },
    {
      "inputs": [
        {
          "internalType": "bytes32",
          "name": "role",
          "type": "bytes32"
        },
        {
          "internalType": "address",
          "name": "account",
          "type": "address"
        }
      ],
      "name": "grantRole",
      "outputs": [],
      "stateMutability": "nonpayable",
      "type": "function"
    },
    {
      "inputs": [
        {
          "internalType": "bytes32",
          "name": "role",
          "type": "bytes32"
        },
        {
          "internalType": "address",
          "name": "account",
          "type": "address"
        }
      ],
      "name": "hasRole",
      "outputs": [
        {
          "internalType": "bool",
          "name": "",
          "type": "bool"
        }
      ],
      "stateMutability": "view",
      "type": "function"
    },
    {
      "inputs": [
        {
          "internalType": "address",
          "name": "owner",
          "type": "address"
        },
        {
          "internalType": "address",
          "name": "operator",
          "type": "address"
        }
      ],
      "name": "isApprovedForAll",
      "outputs": [
        {
          "internalType": "bool",
          "name": "",
          "type": "bool"
        }
      ],
      "stateMutability": "view",
      "type": "function"
    },
    {
      "inputs": [
        {
          "internalType": "address",
          "name": "to",
          "type": "address"
        }
      ],
      "name": "mint",
      "outputs": [],
      "stateMutability": "nonpayable",
      "type": "function"
    },
    {
      "inputs": [],
      "name": "name",
      "outputs": [
        {
          "internalType": "string",
          "name": "",
          "type": "string"
        }
      ],
      "stateMutability": "view",
      "type": "function"
    },
    {
      "inputs": [],
      "name": "owner",
      "outputs": [
        {
          "internalType": "address",
          "name": "",
          "type": "address"
        }
      ],
      "stateMutability": "view",
      "type": "function"
    },
    {
      "inputs": [
        {
          "internalType": "uint256",
          "name": "tokenId",
          "type": "uint256"
        }
      ],
      "name": "ownerOf",
      "outputs": [
        {
          "internalType": "address",
          "name": "",
          "type": "address"
        }
      ],
      "stateMutability": "view",
      "type": "function"
    },
    {
      "inputs": [],
      "name": "pause",
      "outputs": [],
      "stateMutability": "nonpayable",
      "type": "function"
    },
    {
      "inputs": [],
      "name": "paused",
      "outputs": [
        {
          "internalType": "bool",
          "name": "",
          "type": "bool"
        }
      ],
      "stateMutability": "view",
      "type": "function"
    },
    {
      "inputs": [],
      "name": "randomResult",
      "outputs": [
        {
          "internalType": "uint256",
          "name": "",
          "type": "uint256"
        }
      ],
      "stateMutability": "view",
      "type": "function"
    },
    {
      "inputs": [
        {
          "internalType": "bytes32",
          "name": "requestId",
          "type": "bytes32"
        },
        {
          "internalType": "uint256",
          "name": "randomness",
          "type": "uint256"
        }
      ],
      "name": "rawFulfillRandomness",
      "outputs": [],
      "stateMutability": "nonpayable",
      "type": "function"
    },
    {
      "inputs": [],
      "name": "renounceOwnership",
      "outputs": [],
      "stateMutability": "nonpayable",
      "type": "function"
    },
    {
      "inputs": [
        {
          "internalType": "bytes32",
          "name": "role",
          "type": "bytes32"
        },
        {
          "internalType": "address",
          "name": "account",
          "type": "address"
        }
      ],
      "name": "renounceRole",
      "outputs": [],
      "stateMutability": "nonpayable",
      "type": "function"
    },
    {
      "inputs": [
        {
          "internalType": "bytes32",
          "name": "",
          "type": "bytes32"
        }
      ],
      "name": "requestToPlantedAt",
      "outputs": [
        {
          "internalType": "uint256",
          "name": "",
          "type": "uint256"
        }
      ],
      "stateMutability": "view",
      "type": "function"
    },
    {
      "inputs": [
        {
          "internalType": "bytes32",
          "name": "",
          "type": "bytes32"
        }
      ],
      "name": "requestToSender",
      "outputs": [
        {
          "internalType": "address",
          "name": "",
          "type": "address"
        }
      ],
      "stateMutability": "view",
      "type": "function"
    },
    {
      "inputs": [
        {
          "internalType": "bytes32",
          "name": "role",
          "type": "bytes32"
        },
        {
          "internalType": "address",
          "name": "account",
          "type": "address"
        }
      ],
      "name": "revokeRole",
      "outputs": [],
      "stateMutability": "nonpayable",
      "type": "function"
    },
    {
      "inputs": [
        {
          "internalType": "address",
          "name": "from",
          "type": "address"
        },
        {
          "internalType": "address",
          "name": "to",
          "type": "address"
        },
        {
          "internalType": "uint256",
          "name": "tokenId",
          "type": "uint256"
        }
      ],
      "name": "safeTransferFrom",
      "outputs": [],
      "stateMutability": "nonpayable",
      "type": "function"
    },
    {
      "inputs": [
        {
          "internalType": "address",
          "name": "from",
          "type": "address"
        },
        {
          "internalType": "address",
          "name": "to",
          "type": "address"
        },
        {
          "internalType": "uint256",
          "name": "tokenId",
          "type": "uint256"
        },
        {
          "internalType": "bytes",
          "name": "_data",
          "type": "bytes"
        }
      ],
      "name": "safeTransferFrom",
      "outputs": [],
      "stateMutability": "nonpayable",
      "type": "function"
    },
    {
      "inputs": [
        {
          "internalType": "address",
          "name": "operator",
          "type": "address"
        },
        {
          "internalType": "bool",
          "name": "approved",
          "type": "bool"
        }
      ],
      "name": "setApprovalForAll",
      "outputs": [],
      "stateMutability": "nonpayable",
      "type": "function"
    },
    {
      "inputs": [
        {
          "internalType": "bytes4",
          "name": "interfaceId",
          "type": "bytes4"
        }
      ],
      "name": "supportsInterface",
      "outputs": [
        {
          "internalType": "bool",
          "name": "",
          "type": "bool"
        }
      ],
      "stateMutability": "view",
      "type": "function"
    },
    {
      "inputs": [],
      "name": "symbol",
      "outputs": [
        {
          "internalType": "string",
          "name": "",
          "type": "string"
        }
      ],
      "stateMutability": "view",
      "type": "function"
    },
    {
      "inputs": [
        {
          "internalType": "uint256",
          "name": "index",
          "type": "uint256"
        }
      ],
      "name": "tokenByIndex",
      "outputs": [
        {
          "internalType": "uint256",
          "name": "",
          "type": "uint256"
        }
      ],
      "stateMutability": "view",
      "type": "function"
    },
    {
      "inputs": [
        {
          "internalType": "address",
          "name": "owner",
          "type": "address"
        },
        {
          "internalType": "uint256",
          "name": "index",
          "type": "uint256"
        }
      ],
      "name": "tokenOfOwnerByIndex",
      "outputs": [
        {
          "internalType": "uint256",
          "name": "",
          "type": "uint256"
        }
      ],
      "stateMutability": "view",
      "type": "function"
    },
    {
      "inputs": [
        {
          "internalType": "uint256",
          "name": "tokenId",
          "type": "uint256"
        }
      ],
      "name": "tokenURI",
      "outputs": [
        {
          "internalType": "string",
          "name": "",
          "type": "string"
        }
      ],
      "stateMutability": "view",
      "type": "function"
    },
    {
      "inputs": [],
      "name": "totalSupply",
      "outputs": [
        {
          "internalType": "uint256",
          "name": "",
          "type": "uint256"
        }
      ],
      "stateMutability": "view",
      "type": "function"
    },
    {
      "inputs": [
        {
          "internalType": "address",
          "name": "from",
          "type": "address"
        },
        {
          "internalType": "address",
          "name": "to",
          "type": "address"
        },
        {
          "internalType": "uint256",
          "name": "tokenId",
          "type": "uint256"
        }
      ],
      "name": "transferFrom",
      "outputs": [],
      "stateMutability": "nonpayable",
      "type": "function"
    },
    {
      "inputs": [
        {
          "internalType": "address",
          "name": "newOwner",
          "type": "address"
        }
      ],
      "name": "transferOwnership",
      "outputs": [],
      "stateMutability": "nonpayable",
      "type": "function"
    },
    {
      "inputs": [],
      "name": "unpause",
      "outputs": [],
      "stateMutability": "nonpayable",
      "type": "function"
    },
    {
      "inputs": [
        {
          "internalType": "uint256",
          "name": "tokenId",
          "type": "uint256"
        }
      ],
      "name": "water",
      "outputs": [],
      "stateMutability": "nonpayable",
      "type": "function"
    },
    {
      "inputs": [
        {
          "internalType": "uint256",
          "name": "",
          "type": "uint256"
        }
      ],
      "name": "waterLevel",
      "outputs": [
        {
          "internalType": "uint256",
          "name": "",
          "type": "uint256"
        }
      ],
      "stateMutability": "view",
      "type": "function"
    },
    {
      "inputs": [
        {
          "internalType": "uint256",
          "name": "units",
          "type": "uint256"
        },
        {
          "internalType": "uint256",
          "name": "seed",
          "type": "uint256"
        }
      ],
      "name": "webMint",
      "outputs": [],
      "stateMutability": "payable",
      "type": "function"
    },
    {
      "stateMutability": "payable",
      "type": "receive"
    }
  ],
  "transactionHash": "0x8f3ee1b29a8dfd1a52425ed9a116da40c2f447a6a61159b644e553c1b90400a7",
  "args": [
    "0xdD3782915140c8f3b190B5D67eAc6dc5760C46E9",
    "0xa36085f69e2889c224210f603d836748e7dc0088",
    "0x6c3699283bda56ad74f6b855546325b68d482e983852a7a82979cc4807b641f4"
  ],
  "solcInputHash": "16c57de2d89f708b8713768b389d7d7c",
  "bytecode": "0x60c0604052604051806101400160405280600061ffff168152602001610c0261ffff1681526020016117ba61ffff168152602001611f8a61ffff16815260200161237261ffff16815260200161256661ffff16815260200161266061ffff1681526020016126c461ffff1681526020016126f661ffff16815260200161270f61ffff16815250601090600a6200009792919062000cb4565b506040518061014001604052806040518060400160405280601781526020017f7368656e7a68656e696361206f7263686964616365616500000000000000000081525081526020016040518060400160405280601881526020017f7068616c61656e6f70736973206d6963686f6c69747a6969000000000000000081525081526020016040518060400160405280601581526020017f6775617269616e74686520617572616e7469616361000000000000000000000081525081526020016040518060400160405280600e81526020017f76616e646120636f6572756c656100000000000000000000000000000000000081525081526020016040518060400160405280601581526020017f637970726970656469756d2063616c63656f6c7573000000000000000000000081525081526020016040518060400160405280601981526020017f70617068696f706564696c756d20766965746e616d656e73650000000000000081525081526020016040518060400160405280601281526020017f6d696c746f6e6961206b61796173696d6165000000000000000000000000000081525081526020016040518060400160405280601381526020017f706c6174616e746865726120617a6f726963610000000000000000000000000081525081526020016040518060400160405280601581526020017f64656e64726f7068796c6178206c696e64656e6969000000000000000000000081525081526020016040518060400160405280601d81526020017f70617068696f706564696c756d20726f7468736368696c6469616e756d000000815250815250601190600a6200030292919062000d58565b506040518061014001604052806040518060600160405280602e815260200162006e05602e913981526020016040518060600160405280602e815260200162006ebd602e913981526020016040518060600160405280602e815260200162006e8f602e913981526020016040518060600160405280602e815260200162006e33602e913981526020016040518060600160405280602e815260200162006da9602e913981526020016040518060600160405280602e815260200162006d7b602e913981526020016040518060600160405280602e815260200162006d4d602e913981526020016040518060600160405280602e815260200162006d1f602e913981526020016040518060600160405280602e815260200162006dd7602e913981526020016040518060600160405280602e815260200162006e61602e9139815250601b90600a6200045592919062000d58565b5060405162006eeb38038062006eeb833981810160405260608110156200047b57600080fd5b8101908080519060200190929190805190602001909291908051906020019092919050505082826040518060400160405280600c81526020017f43727970744f72636869647300000000000000000000000000000000000000008152506040518060400160405280600581526020017f4f524348440000000000000000000000000000000000000000000000000000008152506040518060400160405280600781526020017f697066733a2f2f0000000000000000000000000000000000000000000000000081525082826200055e6301ffc9a760e01b620009f960201b60201c565b81600790805190602001906200057692919062000db2565b5080600890805190602001906200058f92919062000db2565b50620005a86380ac58cd60e01b620009f960201b60201c565b620005c0635b5e139f60e01b620009f960201b60201c565b620005d863780e9d6360e01b620009f960201b60201c565b50506000600b60006101000a81548160ff021916908315150217905550620006196000801b6200060d62000b0260201b60201c565b62000b0a60201b60201c565b6200066f60405180807f4d494e5445525f524f4c45000000000000000000000000000000000000000000815250600b01905060405180910390206200066362000b0260201b60201c565b62000b0a60201b60201c565b620006c560405180807f5041555345525f524f4c45000000000000000000000000000000000000000000815250600b0190506040518091039020620006b962000b0260201b60201c565b62000b0a60201b60201c565b620006d68162000b2060201b60201c565b5050506000620006eb62000b0260201b60201c565b905080600e60006101000a81548173ffffffffffffffffffffffffffffffffffffffff021916908373ffffffffffffffffffffffffffffffffffffffff1602179055508073ffffffffffffffffffffffffffffffffffffffff16600073ffffffffffffffffffffffffffffffffffffffff167f8be0079c531659141344cd1fd0a4f28419497f9722a3daafe3b4186f6b6457e060405160405180910390a3508173ffffffffffffffffffffffffffffffffffffffff1660a08173ffffffffffffffffffffffffffffffffffffffff1660601b815250508073ffffffffffffffffffffffffffffffffffffffff1660808173ffffffffffffffffffffffffffffffffffffffff1660601b81525050505033602760006101000a81548173ffffffffffffffffffffffffffffffffffffffff021916908373ffffffffffffffffffffffffffffffffffffffff16021790555082602b60006101000a81548173ffffffffffffffffffffffffffffffffffffffff021916908373ffffffffffffffffffffffffffffffffffffffff16021790555081602c60006101000a81548173ffffffffffffffffffffffffffffffffffffffff021916908373ffffffffffffffffffffffffffffffffffffffff1602179055508060288190555067016345785d8a000060298190555060008090505b600a811015620009ef57601b81600a8110620008f157fe5b01602f6000601184600a81106200090457fe5b016040516020018080602001828103825283818154600181600116156101000203166002900481526020019150805460018160011615610100020316600290048015620009955780601f10620009695761010080835404028352916020019162000995565b820191906000526020600020905b8154815290600101906020018083116200097757829003601f168201915b5050925050506040516020818303038152906040528051906020012081526020019081526020016000209080546001816001161561010002031660029004620009e092919062000e39565b508080600101915050620008d9565b5050505062000fa0565b63ffffffff60e01b817bffffffffffffffffffffffffffffffffffffffffffffffffffffffff1916141562000a96576040517f08c379a000000000000000000000000000000000000000000000000000000000815260040180806020018281038252601c8152602001807f4552433136353a20696e76616c696420696e746572666163652069640000000081525060200191505060405180910390fd5b6001806000837bffffffffffffffffffffffffffffffffffffffffffffffffffffffff19167bffffffffffffffffffffffffffffffffffffffffffffffffffffffff1916815260200190815260200160002060006101000a81548160ff02191690831515021790555050565b600033905090565b62000b1c828262000b3c60201b60201c565b5050565b80600a908051906020019062000b3892919062000db2565b5050565b62000b6a8160008085815260200190815260200160002060000162000bdf60201b6200473d1790919060201c565b1562000bdb5762000b8062000b0260201b60201c565b73ffffffffffffffffffffffffffffffffffffffff168173ffffffffffffffffffffffffffffffffffffffff16837f2f8788117e7eff1d82e926ec794901d17c78024a50270940304540a733656f0d60405160405180910390a45b5050565b600062000c0f836000018373ffffffffffffffffffffffffffffffffffffffff1660001b62000c1760201b60201c565b905092915050565b600062000c2b838362000c9160201b60201c565b62000c8657826000018290806001815401808255809150506001900390600052602060002001600090919091909150558260000180549050836001016000848152602001908152602001600020819055506001905062000c8b565b600090505b92915050565b600080836001016000848152602001908152602001600020541415905092915050565b82600a600f0160109004810192821562000d455791602002820160005b8382111562000d1357835183826101000a81548161ffff021916908361ffff160217905550926020019260020160208160010104928301926001030262000cd1565b801562000d435782816101000a81549061ffff021916905560020160208160010104928301926001030262000d13565b505b50905062000d54919062000ec7565b5090565b82600a810192821562000d9f579160200282015b8281111562000d9e57825182908051906020019062000d8d92919062000db2565b509160200191906001019062000d6c565b5b50905062000dae919062000efb565b5090565b828054600181600116156101000203166002900490600052602060002090601f016020900481019282601f1062000df557805160ff191683800117855562000e26565b8280016001018555821562000e26579182015b8281111562000e2557825182559160200191906001019062000e08565b5b50905062000e35919062000f2c565b5090565b828054600181600116156101000203166002900490600052602060002090601f016020900481019282601f1062000e74578054855562000eb4565b8280016001018555821562000eb457600052602060002091601f016020900482015b8281111562000eb357825482559160010191906001019062000e96565b5b50905062000ec3919062000f2c565b5090565b62000ef891905b8082111562000ef457600081816101000a81549061ffff02191690555060010162000ece565b5090565b90565b62000f2991905b8082111562000f25576000818162000f1b919062000f54565b5060010162000f02565b5090565b90565b62000f5191905b8082111562000f4d57600081600090555060010162000f33565b5090565b90565b50805460018160011615610100020316600290046000825580601f1062000f7c575062000f9d565b601f01602090049060005260206000209081019062000f9c919062000f2c565b5b50565b60805160601c60a05160601c615d4b62000fd4600039806124e35280614b6052508061438e5280614b245250615d4b6000f3fe60806040526004361061031e5760003560e01c80636b0c004d116101ab578063a22cb465116100f7578063cac21c8f11610095578063e63ab1e91161006f578063e63ab1e9146114de578063e985e9c514611509578063f2fde38b14611592578063ffee200c146115e357610325565b8063cac21c8f1461139d578063d539139314611458578063d547741f1461148357610325565b8063ad17ba5d116100d1578063ad17ba5d14611150578063b88d4fde14611188578063c87b56dd1461129a578063ca15c8731461134e57610325565b8063a22cb46514611069578063a7eec44b146110c6578063a9bd9b881461110157610325565b80638da5cb5b1161016457806394985ddd1161013e57806394985ddd14610f3e57806395d89b4114610f835780639d1b464a14611013578063a217fddf1461103e57610325565b80638da5cb5b14610def5780639010d07c14610e4657806391d1485414610ecb57610325565b80636b0c004d14610c525780636c0360eb14610c7d57806370a0823114610d0d578063715018a614610d7257806383851b7214610d895780638456cb5914610dd857610325565b806333b608631161026a5780634f6ccce71161022357806360316801116101fd5780636031680114610a785780636352211e14610b335780636573c78714610bae5780636a62784214610c0157610325565b80634f6ccce7146109a35780634f8e2fdf146109f25780635c975abb14610a4957610325565b806333b60863146107f957806336568abe146108505780633f4ba83a146108ab57806342619f66146108c257806342842e0e146108ed57806342966c681461096857610325565b8063179f0b0a116102d7578063248a9ca3116102b1578063248a9ca314610665578063274ac0c3146106b45780632f2ff15d1461072f5780632f745c591461078a57610325565b8063179f0b0a1461059457806318160ddd146105bf57806323b872dd146105ea57610325565b806301ffc9a71461032a57806302d05d3f1461039c57806306fdde03146103f3578063081812fc14610483578063095ea7b3146104fe5780631424494d1461055957610325565b3661032557005b600080fd5b34801561033657600080fd5b506103826004803603602081101561034d57600080fd5b8101908080357bffffffffffffffffffffffffffffffffffffffffffffffffffffffff1916906020019092919050505061160e565b604051808215151515815260200191505060405180910390f35b3480156103a857600080fd5b506103b1611676565b604051808273ffffffffffffffffffffffffffffffffffffffff1673ffffffffffffffffffffffffffffffffffffffff16815260200191505060405180910390f35b3480156103ff57600080fd5b5061040861169c565b6040518080602001828103825283818151815260200191508051906020019080838360005b8381101561044857808201518184015260208101905061042d565b50505050905090810190601f1680156104755780820380516001836020036101000a031916815260200191505b509250505060405180910390f35b34801561048f57600080fd5b506104bc600480360360208110156104a657600080fd5b810190808035906020019092919050505061173e565b604051808273ffffffffffffffffffffffffffffffffffffffff1673ffffffffffffffffffffffffffffffffffffffff16815260200191505060405180910390f35b34801561050a57600080fd5b506105576004803603604081101561052157600080fd5b81019080803573ffffffffffffffffffffffffffffffffffffffff169060200190929190803590602001909291905050506117d9565b005b34801561056557600080fd5b506105926004803603602081101561057c57600080fd5b810190808035906020019092919050505061191d565b005b3480156105a057600080fd5b506105a96119ec565b6040518082815260200191505060405180910390f35b3480156105cb57600080fd5b506105d46119f2565b6040518082815260200191505060405180910390f35b3480156105f657600080fd5b506106636004803603606081101561060d57600080fd5b81019080803573ffffffffffffffffffffffffffffffffffffffff169060200190929190803573ffffffffffffffffffffffffffffffffffffffff16906020019092919080359060200190929190505050611a03565b005b34801561067157600080fd5b5061069e6004803603602081101561068857600080fd5b8101908080359060200190929190505050611a79565b6040518082815260200191505060405180910390f35b3480156106c057600080fd5b506106ed600480360360208110156106d757600080fd5b8101908080359060200190929190505050611a98565b604051808273ffffffffffffffffffffffffffffffffffffffff1673ffffffffffffffffffffffffffffffffffffffff16815260200191505060405180910390f35b34801561073b57600080fd5b506107886004803603604081101561075257600080fd5b8101908080359060200190929190803573ffffffffffffffffffffffffffffffffffffffff169060200190929190505050611acb565b005b34801561079657600080fd5b506107e3600480360360408110156107ad57600080fd5b81019080803573ffffffffffffffffffffffffffffffffffffffff16906020019092919080359060200190929190505050611b54565b6040518082815260200191505060405180910390f35b34801561080557600080fd5b5061080e611baf565b604051808273ffffffffffffffffffffffffffffffffffffffff1673ffffffffffffffffffffffffffffffffffffffff16815260200191505060405180910390f35b34801561085c57600080fd5b506108a96004803603604081101561087357600080fd5b8101908080359060200190929190803573ffffffffffffffffffffffffffffffffffffffff169060200190929190505050611bd5565b005b3480156108b757600080fd5b506108c0611c6e565b005b3480156108ce57600080fd5b506108d7611d13565b6040518082815260200191505060405180910390f35b3480156108f957600080fd5b506109666004803603606081101561091057600080fd5b81019080803573ffffffffffffffffffffffffffffffffffffffff169060200190929190803573ffffffffffffffffffffffffffffffffffffffff16906020019092919080359060200190929190505050611d19565b005b34801561097457600080fd5b506109a16004803603602081101561098b57600080fd5b8101908080359060200190929190505050611d39565b005b3480156109af57600080fd5b506109dc600480360360208110156109c657600080fd5b8101908080359060200190929190505050611dab565b6040518082815260200191505060405180910390f35b3480156109fe57600080fd5b50610a07611dce565b604051808273ffffffffffffffffffffffffffffffffffffffff1673ffffffffffffffffffffffffffffffffffffffff16815260200191505060405180910390f35b348015610a5557600080fd5b50610a5e611df4565b604051808215151515815260200191505060405180910390f35b348015610a8457600080fd5b50610ab160048036036020811015610a9b57600080fd5b8101908080359060200190929190505050611e0b565b6040518080602001838152602001828103825284818151815260200191508051906020019080838360005b83811015610af7578082015181840152602081019050610adc565b50505050905090810190601f168015610b245780820380516001836020036101000a031916815260200191505b50935050505060405180910390f35b348015610b3f57600080fd5b50610b6c60048036036020811015610b5657600080fd5b8101908080359060200190929190505050611f05565b604051808273ffffffffffffffffffffffffffffffffffffffff1673ffffffffffffffffffffffffffffffffffffffff16815260200191505060405180910390f35b348015610bba57600080fd5b50610be760048036036020811015610bd157600080fd5b8101908080359060200190929190505050611f3c565b604051808215151515815260200191505060405180910390f35b348015610c0d57600080fd5b50610c5060048036036020811015610c2457600080fd5b81019080803573ffffffffffffffffffffffffffffffffffffffff169060200190929190505050611ff0565b005b348015610c5e57600080fd5b50610c676120ab565b6040518082815260200191505060405180910390f35b348015610c8957600080fd5b50610c926120b1565b6040518080602001828103825283818151815260200191508051906020019080838360005b83811015610cd2578082015181840152602081019050610cb7565b50505050905090810190601f168015610cff5780820380516001836020036101000a031916815260200191505b509250505060405180910390f35b348015610d1957600080fd5b50610d5c60048036036020811015610d3057600080fd5b81019080803573ffffffffffffffffffffffffffffffffffffffff169060200190929190505050612153565b6040518082815260200191505060405180910390f35b348015610d7e57600080fd5b50610d87612228565b005b348015610d9557600080fd5b50610dc260048036036020811015610dac57600080fd5b8101908080359060200190929190505050612398565b6040518082815260200191505060405180910390f35b348015610de457600080fd5b50610ded6123b0565b005b348015610dfb57600080fd5b50610e04612455565b604051808273ffffffffffffffffffffffffffffffffffffffff1673ffffffffffffffffffffffffffffffffffffffff16815260200191505060405180910390f35b348015610e5257600080fd5b50610e8960048036036040811015610e6957600080fd5b81019080803590602001909291908035906020019092919050505061247f565b604051808273ffffffffffffffffffffffffffffffffffffffff1673ffffffffffffffffffffffffffffffffffffffff16815260200191505060405180910390f35b348015610ed757600080fd5b50610f2460048036036040811015610eee57600080fd5b8101908080359060200190929190803573ffffffffffffffffffffffffffffffffffffffff1690602001909291905050506124b0565b604051808215151515815260200191505060405180910390f35b348015610f4a57600080fd5b50610f8160048036036040811015610f6157600080fd5b8101908080359060200190929190803590602001909291905050506124e1565b005b348015610f8f57600080fd5b50610f986125b0565b6040518080602001828103825283818151815260200191508051906020019080838360005b83811015610fd8578082015181840152602081019050610fbd565b50505050905090810190601f1680156110055780820380516001836020036101000a031916815260200191505b509250505060405180910390f35b34801561101f57600080fd5b50611028612652565b6040518082815260200191505060405180910390f35b34801561104a57600080fd5b50611053612709565b6040518082815260200191505060405180910390f35b34801561107557600080fd5b506110c46004803603604081101561108c57600080fd5b81019080803573ffffffffffffffffffffffffffffffffffffffff169060200190929190803515159060200190929190505050612710565b005b3480156110d257600080fd5b506110ff600480360360208110156110e957600080fd5b81019080803590602001909291905050506128c8565b005b34801561110d57600080fd5b5061113a6004803603602081101561112457600080fd5b8101908080359060200190929190505050612b01565b6040518082815260200191505060405180910390f35b6111866004803603604081101561116657600080fd5b810190808035906020019092919080359060200190929190505050612b19565b005b34801561119457600080fd5b50611298600480360360808110156111ab57600080fd5b81019080803573ffffffffffffffffffffffffffffffffffffffff169060200190929190803573ffffffffffffffffffffffffffffffffffffffff169060200190929190803590602001909291908035906020019064010000000081111561121257600080fd5b82018360208201111561122457600080fd5b8035906020019184600183028401116401000000008311171561124657600080fd5b91908080601f016020809104026020016040519081016040528093929190818152602001838380828437600081840152601f19601f820116905080830192505050505050509192919290505050612e02565b005b3480156112a657600080fd5b506112d3600480360360208110156112bd57600080fd5b8101908080359060200190929190505050612e7a565b6040518080602001828103825283818151815260200191508051906020019080838360005b838110156113135780820151818401526020810190506112f8565b50505050905090810190601f1680156113405780820380516001836020036101000a031916815260200191505b509250505060405180910390f35b34801561135a57600080fd5b506113876004803603602081101561137157600080fd5b8101908080359060200190929190505050612ffb565b6040518082815260200191505060405180910390f35b3480156113a957600080fd5b506113d6600480360360208110156113c057600080fd5b8101908080359060200190929190505050613021565b6040518080602001838152602001828103825284818151815260200191508051906020019080838360005b8381101561141c578082015181840152602081019050611401565b50505050905090810190601f1680156114495780820380516001836020036101000a031916815260200191505b50935050505060405180910390f35b34801561146457600080fd5b5061146d6130ea565b6040518082815260200191505060405180910390f35b34801561148f57600080fd5b506114dc600480360360408110156114a657600080fd5b8101908080359060200190929190803573ffffffffffffffffffffffffffffffffffffffff169060200190929190505050613123565b005b3480156114ea57600080fd5b506114f36131ac565b6040518082815260200191505060405180910390f35b34801561151557600080fd5b506115786004803603604081101561152c57600080fd5b81019080803573ffffffffffffffffffffffffffffffffffffffff169060200190929190803573ffffffffffffffffffffffffffffffffffffffff1690602001909291905050506131e5565b604051808215151515815260200191505060405180910390f35b34801561159e57600080fd5b506115e1600480360360208110156115b557600080fd5b81019080803573ffffffffffffffffffffffffffffffffffffffff169060200190929190505050613279565b005b3480156115ef57600080fd5b506115f861346e565b6040518082815260200191505060405180910390f35b600060016000837bffffffffffffffffffffffffffffffffffffffffffffffffffffffff19167bffffffffffffffffffffffffffffffffffffffffffffffffffffffff1916815260200190815260200160002060009054906101000a900460ff169050919050565b602760009054906101000a900473ffffffffffffffffffffffffffffffffffffffff1681565b606060078054600181600116156101000203166002900480601f0160208091040260200160405190810160405280929190818152602001828054600181600116156101000203166002900480156117345780601f1061170957610100808354040283529160200191611734565b820191906000526020600020905b81548152906001019060200180831161171757829003601f168201915b5050505050905090565b600061174982613474565b61179e576040517f08c379a000000000000000000000000000000000000000000000000000000000815260040180806020018281038252602c815260200180615b13602c913960400191505060405180910390fd5b6005600083815260200190815260200160002060009054906101000a900473ffffffffffffffffffffffffffffffffffffffff169050919050565b60006117e482611f05565b90508073ffffffffffffffffffffffffffffffffffffffff168373ffffffffffffffffffffffffffffffffffffffff16141561186b576040517f08c379a0000000000000000000000000000000000000000000000000000000008152600401808060200182810382526021815260200180615b986021913960400191505060405180910390fd5b8073ffffffffffffffffffffffffffffffffffffffff1661188a613491565b73ffffffffffffffffffffffffffffffffffffffff1614806118b957506118b8816118b3613491565b6131e5565b5b61190e576040517f08c379a0000000000000000000000000000000000000000000000000000000008152600401808060200182810382526038815260200180615a226038913960400191505060405180910390fd5b6119188383613499565b505050565b61192681611f05565b73ffffffffffffffffffffffffffffffffffffffff163373ffffffffffffffffffffffffffffffffffffffff16146119a9576040517f08c379a0000000000000000000000000000000000000000000000000000000008152600401808060200182810382526029815260200180615c116029913960400191505060405180910390fd5b6119b281611d39565b7f30f6ee1c7b8eb7349c887acbbbd691fc92bd38eacc6341de20458431525e610c816040518082815260200191505060405180910390a150565b612a3081565b60006119fe6003613552565b905090565b611a14611a0e613491565b82613567565b611a69576040517f08c379a0000000000000000000000000000000000000000000000000000000008152600401808060200182810382526031815260200180615be06031913960400191505060405180910390fd5b611a7483838361365b565b505050565b6000806000838152602001908152602001600020600201549050919050565b602d6020528060005260406000206000915054906101000a900473ffffffffffffffffffffffffffffffffffffffff1681565b611af160008084815260200190815260200160002060020154611aec613491565b6124b0565b611b46576040517f08c379a000000000000000000000000000000000000000000000000000000000815260040180806020018281038252602f815260200180615865602f913960400191505060405180910390fd5b611b50828261389e565b5050565b6000611ba782600260008673ffffffffffffffffffffffffffffffffffffffff1673ffffffffffffffffffffffffffffffffffffffff16815260200190815260200160002061393190919063ffffffff16565b905092915050565b602b60009054906101000a900473ffffffffffffffffffffffffffffffffffffffff1681565b611bdd613491565b73ffffffffffffffffffffffffffffffffffffffff168173ffffffffffffffffffffffffffffffffffffffff1614611c60576040517f08c379a000000000000000000000000000000000000000000000000000000000815260040180806020018281038252602f815260200180615ce7602f913960400191505060405180910390fd5b611c6a828261394b565b5050565b611cb460405180807f5041555345525f524f4c45000000000000000000000000000000000000000000815250600b0190506040518091039020611caf613491565b6124b0565b611d09576040517f08c379a0000000000000000000000000000000000000000000000000000000008152600401808060200182810382526040815260200180615ca76040913960400191505060405180910390fd5b611d116139de565b565b602a5481565b611d3483838360405180602001604052806000815250612e02565b505050565b611d4a611d44613491565b82613567565b611d9f576040517f08c379a0000000000000000000000000000000000000000000000000000000008152600401808060200182810382526030815260200180615c776030913960400191505060405180910390fd5b611da881613adf565b50565b600080611dc2836003613c1990919063ffffffff16565b50905080915050919050565b602c60009054906101000a900473ffffffffffffffffffffffffffffffffffffffff1681565b6000600b60009054906101000a900460ff16905090565b606060006025611e1c846001613c48565b81548110611e2657fe5b90600052602060002090600202016000016025611e44856001613c48565b81548110611e4e57fe5b906000526020600020906002020160010154818054600181600116156101000203166002900480601f016020809104026020016040519081016040528092919081815260200182805460018160011615610100020316600290048015611ef55780601f10611eca57610100808354040283529160200191611ef5565b820191906000526020600020905b815481529060010190602001808311611ed857829003601f168201915b5050505050915091509150915091565b6000611f3582604051806060016040528060298152602001615a84602991396003613cd19092919063ffffffff16565b9050919050565b600080600d6000848152602001908152602001600020549050600060258481548110611f6457fe5b906000526020600020906002020160010154611f7e613cf0565b0390506000611f8f82612a30613cf8565b90506000611f9f83612a30613d87565b905081841415611fb6576001945050505050611feb565b81611fc2856001613e11565b148015611fd05750610e1081105b15611fe2576001945050505050611feb565b60009450505050505b919050565b61203660405180807f4d494e5445525f524f4c45000000000000000000000000000000000000000000815250600b0190506040518091039020612031613491565b6124b0565b61208b576040517f08c379a000000000000000000000000000000000000000000000000000000000815260040180806020018281038252603d815260200180615c3a603d913960400191505060405180910390fd5b61209e81612099600c613e99565b613ea7565b6120a8600c61409b565b50565b61271081565b6060600a8054600181600116156101000203166002900480601f0160208091040260200160405190810160405280929190818152602001828054600181600116156101000203166002900480156121495780601f1061211e57610100808354040283529160200191612149565b820191906000526020600020905b81548152906001019060200180831161212c57829003601f168201915b5050505050905090565b60008073ffffffffffffffffffffffffffffffffffffffff168273ffffffffffffffffffffffffffffffffffffffff1614156121da576040517f08c379a000000000000000000000000000000000000000000000000000000000815260040180806020018281038252602a815260200180615a5a602a913960400191505060405180910390fd5b612221600260008473ffffffffffffffffffffffffffffffffffffffff1673ffffffffffffffffffffffffffffffffffffffff1681526020019081526020016000206140b1565b9050919050565b612230613491565b73ffffffffffffffffffffffffffffffffffffffff1661224e612455565b73ffffffffffffffffffffffffffffffffffffffff16146122d7576040517f08c379a00000000000000000000000000000000000000000000000000000000081526004018080602001828103825260208152602001807f4f776e61626c653a2063616c6c6572206973206e6f7420746865206f776e657281525060200191505060405180910390fd5b600073ffffffffffffffffffffffffffffffffffffffff16600e60009054906101000a900473ffffffffffffffffffffffffffffffffffffffff1673ffffffffffffffffffffffffffffffffffffffff167f8be0079c531659141344cd1fd0a4f28419497f9722a3daafe3b4186f6b6457e060405160405180910390a36000600e60006101000a81548173ffffffffffffffffffffffffffffffffffffffff021916908373ffffffffffffffffffffffffffffffffffffffff160217905550565b600d6020528060005260406000206000915090505481565b6123f660405180807f5041555345525f524f4c45000000000000000000000000000000000000000000815250600b01905060405180910390206123f1613491565b6124b0565b61244b576040517f08c379a000000000000000000000000000000000000000000000000000000000815260040180806020018281038252603e8152602001806158ec603e913960400191505060405180910390fd5b6124536140c6565b565b6000600e60009054906101000a900473ffffffffffffffffffffffffffffffffffffffff16905090565b60006124a8826000808681526020019081526020016000206000016141c890919063ffffffff16565b905092915050565b60006124d9826000808681526020019081526020016000206000016141e290919063ffffffff16565b905092915050565b7f000000000000000000000000000000000000000000000000000000000000000073ffffffffffffffffffffffffffffffffffffffff163373ffffffffffffffffffffffffffffffffffffffff16146125a2576040517f08c379a000000000000000000000000000000000000000000000000000000000815260040180806020018281038252601f8152602001807f4f6e6c7920565246436f6f7264696e61746f722063616e2066756c66696c6c0081525060200191505060405180910390fd5b6125ac8282614212565b5050565b606060088054600181600116156101000203166002900480601f0160208091040260200160405190810160405280929190818152602001828054600181600116156101000203166002900480156126485780601f1061261d57610100808354040283529160200191612648565b820191906000526020600020905b81548152906001019060200180831161262b57829003601f168201915b5050505050905090565b60008061265d6119f2565b90506126ac811061267957670de0b6b3a7640000915050612706565b61251c8110612693576708e1bc9bf0400000915050612706565b611d4c81106126ad57670470de4df8200000915050612706565b610dac81106126c7576702386f26fc100000915050612706565b6105dc81106126e15767011c37937e080000915050612706565b6101f481106126fa57668e1bc9bf040000915050612706565b66470de4df8200009150505b90565b6000801b81565b612718613491565b73ffffffffffffffffffffffffffffffffffffffff168273ffffffffffffffffffffffffffffffffffffffff1614156127b9576040517f08c379a00000000000000000000000000000000000000000000000000000000081526004018080602001828103825260198152602001807f4552433732313a20617070726f766520746f2063616c6c65720000000000000081525060200191505060405180910390fd5b80600660006127c6613491565b73ffffffffffffffffffffffffffffffffffffffff1673ffffffffffffffffffffffffffffffffffffffff16815260200190815260200160002060008473ffffffffffffffffffffffffffffffffffffffff1673ffffffffffffffffffffffffffffffffffffffff16815260200190815260200160002060006101000a81548160ff0219169083151502179055508173ffffffffffffffffffffffffffffffffffffffff16612873613491565b73ffffffffffffffffffffffffffffffffffffffff167f17307eab39ab6107e8899845ad3d59bd9653f200f220920489ca2b5937696c3183604051808215151515815260200191505060405180910390a35050565b6128d181611f05565b73ffffffffffffffffffffffffffffffffffffffff163373ffffffffffffffffffffffffffffffffffffffff1614612954576040517f08c379a000000000000000000000000000000000000000000000000000000000815260040180806020018281038252602781526020018061599f6027913960400191505060405180910390fd5b6000612961826001613c48565b905061296c81611f3c565b6129b65761297982611d39565b7f30f6ee1c7b8eb7349c887acbbbd691fc92bd38eacc6341de20458431525e610c826040518082815260200191505060405180910390a150612afe565b6000600d60008381526020019081526020016000205490506000602583815481106129dd57fe5b9060005260206000209060020201600101546129f7613cf0565b0390506000612a0882612a30613cf8565b905080831115612a9257612a1b85611d39565b7f7eee0a4514bd6b2db320e3372073e931a71d23554506e89140fc5062318a288b856040518082815260200191505060405180910390a17f30f6ee1c7b8eb7349c887acbbbd691fc92bd38eacc6341de20458431525e610c856040518082815260200191505060405180910390a150505050612afe565b6000612a9f846001613e11565b905080600d6000878152602001908152602001600020819055507f674d81537534435d24d5bc9f92955722ba22b136d98346a01ad4777f48b5581c8682604051808381526020018281526020019250505060405180910390a150505050505b50565b602e6020528060005260406000206000915090505481565b612b216119f2565b612710038210612b99576040517f08c379a00000000000000000000000000000000000000000000000000000000081526004018080602001828103825260158152602001807f4e6f7420656e6f7567682062756c6273206c656674000000000000000000000081525060200191505060405180910390fd5b612710612ba46119f2565b10612c17576040517f08c379a00000000000000000000000000000000000000000000000000000000081526004018080602001828103825260168152602001807f53616c652068617320616c726561647920656e6465640000000000000000000081525060200191505060405180910390fd5b600082118015612c28575060148211155b612c7d576040517f08c379a0000000000000000000000000000000000000000000000000000000008152600401808060200182810382526030815260200180615b686030913960400191505060405180910390fd5b612710612c91612c8b6119f2565b84613e11565b1115612d05576040517f08c379a00000000000000000000000000000000000000000000000000000000081526004018080602001828103825260188152602001807f45786365656473204d41585f43525950544f524348494453000000000000000081525060200191505060405180910390fd5b612d16612d10612652565b83614301565b341015612d6e576040517f08c379a0000000000000000000000000000000000000000000000000000000008152600401808060200182810382526023815260200180615aad6023913960400191505060405180910390fd5b60008090505b82811015612d9457612d863383614387565b508080600101915050612d74565b50602760009054906101000a900473ffffffffffffffffffffffffffffffffffffffff1673ffffffffffffffffffffffffffffffffffffffff166108fc349081150290604051600060405180830381858888f19350505050158015612dfd573d6000803e3d6000fd5b505050565b612e13612e0d613491565b83613567565b612e68576040517f08c379a0000000000000000000000000000000000000000000000000000000008152600401808060200182810382526031815260200180615be06031913960400191505060405180910390fd5b612e748484848461457a565b50505050565b606080612e8683611e0b565b509050612e916120b1565b602f6000836040516020018080602001828103825283818151815260200191508051906020019080838360005b83811015612ed9578082015181840152602081019050612ebe565b50505050905090810190601f168015612f065780820380516001836020036101000a031916815260200191505b50925050506040516020818303038152906040528051906020012081526020019081526020016000206040516020018083805190602001908083835b60208310612f655780518252602082019150602081019050602083039250612f42565b6001836020036101000a03801982511681845116808217855250505050505090500182805460018160011615610100020316600290048015612fde5780601f10612fbc576101008083540402835291820191612fde565b820191906000526020600020905b815481529060010190602001808311612fca575b505092505050604051602081830303815290604052915050919050565b600061301a6000808481526020019081526020016000206000016145ec565b9050919050565b6025818154811061302e57fe5b9060005260206000209060020201600091509050806000018054600181600116156101000203166002900480601f0160208091040260200160405190810160405280929190818152602001828054600181600116156101000203166002900480156130da5780601f106130af576101008083540402835291602001916130da565b820191906000526020600020905b8154815290600101906020018083116130bd57829003601f168201915b5050505050908060010154905082565b60405180807f4d494e5445525f524f4c45000000000000000000000000000000000000000000815250600b019050604051809103902081565b61314960008084815260200190815260200160002060020154613144613491565b6124b0565b61319e576040517f08c379a00000000000000000000000000000000000000000000000000000000081526004018080602001828103825260308152602001806159f26030913960400191505060405180910390fd5b6131a8828261394b565b5050565b60405180807f5041555345525f524f4c45000000000000000000000000000000000000000000815250600b019050604051809103902081565b6000600660008473ffffffffffffffffffffffffffffffffffffffff1673ffffffffffffffffffffffffffffffffffffffff16815260200190815260200160002060008373ffffffffffffffffffffffffffffffffffffffff1673ffffffffffffffffffffffffffffffffffffffff16815260200190815260200160002060009054906101000a900460ff16905092915050565b613281613491565b73ffffffffffffffffffffffffffffffffffffffff1661329f612455565b73ffffffffffffffffffffffffffffffffffffffff1614613328576040517f08c379a00000000000000000000000000000000000000000000000000000000081526004018080602001828103825260208152602001807f4f776e61626c653a2063616c6c6572206973206e6f7420746865206f776e657281525060200191505060405180910390fd5b600073ffffffffffffffffffffffffffffffffffffffff168173ffffffffffffffffffffffffffffffffffffffff1614156133ae576040517f08c379a00000000000000000000000000000000000000000000000000000000081526004018080602001828103825260268152602001806158c66026913960400191505060405180910390fd5b8073ffffffffffffffffffffffffffffffffffffffff16600e60009054906101000a900473ffffffffffffffffffffffffffffffffffffffff1673ffffffffffffffffffffffffffffffffffffffff167f8be0079c531659141344cd1fd0a4f28419497f9722a3daafe3b4186f6b6457e060405160405180910390a380600e60006101000a81548173ffffffffffffffffffffffffffffffffffffffff021916908373ffffffffffffffffffffffffffffffffffffffff16021790555050565b610e1081565b600061348a82600361460190919063ffffffff16565b9050919050565b600033905090565b816005600083815260200190815260200160002060006101000a81548173ffffffffffffffffffffffffffffffffffffffff021916908373ffffffffffffffffffffffffffffffffffffffff160217905550808273ffffffffffffffffffffffffffffffffffffffff1661350c83611f05565b73ffffffffffffffffffffffffffffffffffffffff167f8c5be1e5ebec7d5bd14f71427d1e84f3dd0314c0f7b2291e5b200ac8c7c3b92560405160405180910390a45050565b60006135608260000161461b565b9050919050565b600061357282613474565b6135c7576040517f08c379a000000000000000000000000000000000000000000000000000000000815260040180806020018281038252602c8152602001806159c6602c913960400191505060405180910390fd5b60006135d283611f05565b90508073ffffffffffffffffffffffffffffffffffffffff168473ffffffffffffffffffffffffffffffffffffffff16148061364157508373ffffffffffffffffffffffffffffffffffffffff166136298461173e565b73ffffffffffffffffffffffffffffffffffffffff16145b80613652575061365181856131e5565b5b91505092915050565b8273ffffffffffffffffffffffffffffffffffffffff1661367b82611f05565b73ffffffffffffffffffffffffffffffffffffffff16146136e7576040517f08c379a0000000000000000000000000000000000000000000000000000000008152600401808060200182810382526029815260200180615b3f6029913960400191505060405180910390fd5b600073ffffffffffffffffffffffffffffffffffffffff168273ffffffffffffffffffffffffffffffffffffffff16141561376d576040517f08c379a000000000000000000000000000000000000000000000000000000000815260040180806020018281038252602481526020018061592a6024913960400191505060405180910390fd5b61377883838361462c565b613783600082613499565b6137d481600260008673ffffffffffffffffffffffffffffffffffffffff1673ffffffffffffffffffffffffffffffffffffffff1681526020019081526020016000206146d490919063ffffffff16565b5061382681600260008573ffffffffffffffffffffffffffffffffffffffff1673ffffffffffffffffffffffffffffffffffffffff1681526020019081526020016000206146ee90919063ffffffff16565b5061383d818360036147089092919063ffffffff16565b50808273ffffffffffffffffffffffffffffffffffffffff168473ffffffffffffffffffffffffffffffffffffffff167fddf252ad1be2c89b69c2b068fc378daa952ba7f163c4a11628f55a4df523b3ef60405160405180910390a4505050565b6138c58160008085815260200190815260200160002060000161473d90919063ffffffff16565b1561392d576138d2613491565b73ffffffffffffffffffffffffffffffffffffffff168173ffffffffffffffffffffffffffffffffffffffff16837f2f8788117e7eff1d82e926ec794901d17c78024a50270940304540a733656f0d60405160405180910390a45b5050565b6000613940836000018361476d565b60001c905092915050565b613972816000808581526020019081526020016000206000016147f090919063ffffffff16565b156139da5761397f613491565b73ffffffffffffffffffffffffffffffffffffffff168173ffffffffffffffffffffffffffffffffffffffff16837ff6391f5c32d9c69d2a47ea670b442974b53935d1edc7fd64eb21e047a839171b60405160405180910390a45b5050565b6139e6611df4565b613a58576040517f08c379a00000000000000000000000000000000000000000000000000000000081526004018080602001828103825260148152602001807f5061757361626c653a206e6f742070617573656400000000000000000000000081525060200191505060405180910390fd5b6000600b60006101000a81548160ff0219169083151502179055507f5db9ee0a495bf2e6ff9c91a7834c1ba4fdd244a5e8aa4e537bd38aeae4b073aa613a9c613491565b604051808273ffffffffffffffffffffffffffffffffffffffff1673ffffffffffffffffffffffffffffffffffffffff16815260200191505060405180910390a1565b6000613aea82611f05565b9050613af88160008461462c565b613b03600083613499565b60006009600084815260200190815260200160002080546001816001161561010002031660029004905014613b5257600960008381526020019081526020016000206000613b51919061572a565b5b613ba382600260008473ffffffffffffffffffffffffffffffffffffffff1673ffffffffffffffffffffffffffffffffffffffff1681526020019081526020016000206146d490919063ffffffff16565b50613bb882600361482090919063ffffffff16565b5081600073ffffffffffffffffffffffffffffffffffffffff168273ffffffffffffffffffffffffffffffffffffffff167fddf252ad1be2c89b69c2b068fc378daa952ba7f163c4a11628f55a4df523b3ef60405160405180910390a45050565b600080600080613c2c866000018661483a565b915091508160001c8160001c8090509350935050509250929050565b600082821115613cc0576040517f08c379a000000000000000000000000000000000000000000000000000000000815260040180806020018281038252601e8152602001807f536166654d6174683a207375627472616374696f6e206f766572666c6f77000081525060200191505060405180910390fd5b600082840390508091505092915050565b6000613ce4846000018460001b846148d3565b60001c90509392505050565b600042905090565b6000808211613d6f576040517f08c379a000000000000000000000000000000000000000000000000000000000815260040180806020018281038252601a8152602001807f536166654d6174683a206469766973696f6e206279207a65726f00000000000081525060200191505060405180910390fd5b6000828481613d7a57fe5b0490508091505092915050565b600080821415613dff576040517f08c379a00000000000000000000000000000000000000000000000000000000081526004018080602001828103825260188152602001807f536166654d6174683a206d6f64756c6f206279207a65726f000000000000000081525060200191505060405180910390fd5b818381613e0857fe5b06905092915050565b600080828401905083811015613e8f576040517f08c379a000000000000000000000000000000000000000000000000000000000815260040180806020018281038252601b8152602001807f536166654d6174683a206164646974696f6e206f766572666c6f77000000000081525060200191505060405180910390fd5b8091505092915050565b600081600001549050919050565b600073ffffffffffffffffffffffffffffffffffffffff168273ffffffffffffffffffffffffffffffffffffffff161415613f4a576040517f08c379a00000000000000000000000000000000000000000000000000000000081526004018080602001828103825260208152602001807f4552433732313a206d696e7420746f20746865207a65726f206164647265737381525060200191505060405180910390fd5b613f5381613474565b15613fc6576040517f08c379a000000000000000000000000000000000000000000000000000000000815260040180806020018281038252601c8152602001807f4552433732313a20746f6b656e20616c7265616479206d696e7465640000000081525060200191505060405180910390fd5b613fd26000838361462c565b61402381600260008573ffffffffffffffffffffffffffffffffffffffff1673ffffffffffffffffffffffffffffffffffffffff1681526020019081526020016000206146ee90919063ffffffff16565b5061403a818360036147089092919063ffffffff16565b50808273ffffffffffffffffffffffffffffffffffffffff16600073ffffffffffffffffffffffffffffffffffffffff167fddf252ad1be2c89b69c2b068fc378daa952ba7f163c4a11628f55a4df523b3ef60405160405180910390a45050565b6001816000016000828254019250508190555050565b60006140bf826000016149c9565b9050919050565b6140ce611df4565b15614141576040517f08c379a00000000000000000000000000000000000000000000000000000000081526004018080602001828103825260108152602001807f5061757361626c653a207061757365640000000000000000000000000000000081525060200191505060405180910390fd5b6001600b60006101000a81548160ff0219169083151502179055507f62e78cea01bee320cd4e420270b5ea74000d11b0c9f74754ebdbfc544b05a258614185613491565b604051808273ffffffffffffffffffffffffffffffffffffffff1673ffffffffffffffffffffffffffffffffffffffff16815260200191505060405180910390a1565b60006141d7836000018361476d565b60001c905092915050565b600061420a836000018373ffffffffffffffffffffffffffffffffffffffff1660001b6149da565b905092915050565b6025604051806040016040528061423361422e85612710613d87565b6149fd565b8152602001602e60008681526020019081526020016000205481525090806001815401808255809150506001900390600052602060002090600202016000909190919091506000820151816000019080519060200190614294929190615772565b506020820151816001015550506142ab602661409b565b60006142b76026613e99565b90506000602d600085815260200190815260200160002060009054906101000a900473ffffffffffffffffffffffffffffffffffffffff1690506142fb8183614b02565b50505050565b6000808314156143145760009050614381565b600082840290508284828161432557fe5b041461437c576040517f08c379a0000000000000000000000000000000000000000000000000000000008152600401808060200182810382526021815260200180615af26021913960400191505060405180910390fd5b809150505b92915050565b60006029547f000000000000000000000000000000000000000000000000000000000000000073ffffffffffffffffffffffffffffffffffffffff166370a08231306040518263ffffffff1660e01b8152600401808273ffffffffffffffffffffffffffffffffffffffff1673ffffffffffffffffffffffffffffffffffffffff16815260200191505060206040518083038186803b15801561442957600080fd5b505afa15801561443d573d6000803e3d6000fd5b505050506040513d602081101561445357600080fd5b810190808051906020019092919050505010156144bb576040517f08c379a000000000000000000000000000000000000000000000000000000000815260040180806020018281038252602b81526020018061594e602b913960400191505060405180910390fd5b6144ca60285460295484614b20565b905082602d600083815260200190815260200160002060006101000a81548173ffffffffffffffffffffffffffffffffffffffff021916908373ffffffffffffffffffffffffffffffffffffffff160217905550614526613cf0565b602e6000838152602001908152602001600020819055507fe5f5b44d72d4143c278eb745c4acc0695c4a5bc616be5beecf46abe29661780e816040518082815260200191505060405180910390a192915050565b61458584848461365b565b61459184848484614d2e565b6145e6576040517f08c379a00000000000000000000000000000000000000000000000000000000081526004018080602001828103825260328152602001806158946032913960400191505060405180910390fd5b50505050565b60006145fa826000016149c9565b9050919050565b6000614613836000018360001b614f73565b905092915050565b600081600001805490509050919050565b8173ffffffffffffffffffffffffffffffffffffffff16600073ffffffffffffffffffffffffffffffffffffffff16148061466f575061466e60018203611f3c565b5b6146c4576040517f08c379a0000000000000000000000000000000000000000000000000000000008152600401808060200182810382526027815260200180615bb96027913960400191505060405180910390fd5b6146cf838383614f96565b505050565b60006146e6836000018360001b614fa6565b905092915050565b6000614700836000018360001b61508e565b905092915050565b6000614734846000018460001b8473ffffffffffffffffffffffffffffffffffffffff1660001b6150fe565b90509392505050565b6000614765836000018373ffffffffffffffffffffffffffffffffffffffff1660001b61508e565b905092915050565b6000818360000180549050116147ce576040517f08c379a00000000000000000000000000000000000000000000000000000000081526004018080602001828103825260228152602001806158186022913960400191505060405180910390fd5b8260000182815481106147dd57fe5b9060005260206000200154905092915050565b6000614818836000018373ffffffffffffffffffffffffffffffffffffffff1660001b614fa6565b905092915050565b6000614832836000018360001b6151da565b905092915050565b6000808284600001805490501161489c576040517f08c379a0000000000000000000000000000000000000000000000000000000008152600401808060200182810382526022815260200180615ad06022913960400191505060405180910390fd5b60008460000184815481106148ad57fe5b906000526020600020906002020190508060000154816001015492509250509250929050565b6000808460010160008581526020019081526020016000205490506000811415839061499a576040517f08c379a00000000000000000000000000000000000000000000000000000000081526004018080602001828103825283818151815260200191508051906020019080838360005b8381101561495f578082015181840152602081019050614944565b50505050905090810190601f16801561498c5780820380516001836020036101000a031916815260200191505b509250505060405180910390fd5b508460000160018203815481106149ad57fe5b9060005260206000209060020201600101549150509392505050565b600081600001805490509050919050565b600080836001016000848152602001908152602001600020541415905092915050565b606060008090505b600a811015614afb57601081600a8110614a1b57fe5b601091828204019190066002029054906101000a900461ffff1661ffff168311614aee57601181600a8110614a4c57fe5b018054600181600116156101000203166002900480601f016020809104026020016040519081016040528092919081815260200182805460018160011615610100020316600290048015614ae15780601f10614ab657610100808354040283529160200191614ae1565b820191906000526020600020905b815481529060010190602001808311614ac457829003601f168201915b5050505050915050614afd565b8080600101915050614a05565b505b919050565b614b1c8282604051806020016040528060008152506152f3565b5050565b60007f000000000000000000000000000000000000000000000000000000000000000073ffffffffffffffffffffffffffffffffffffffff16634000aea07f000000000000000000000000000000000000000000000000000000000000000085878660405160200180838152602001828152602001925050506040516020818303038152906040526040518463ffffffff1660e01b8152600401808473ffffffffffffffffffffffffffffffffffffffff1673ffffffffffffffffffffffffffffffffffffffff16815260200183815260200180602001828103825283818151815260200191508051906020019080838360005b83811015614c2f578082015181840152602081019050614c14565b50505050905090810190601f168015614c5c5780820380516001836020036101000a031916815260200191505b50945050505050602060405180830381600087803b158015614c7d57600080fd5b505af1158015614c91573d6000803e3d6000fd5b505050506040513d6020811015614ca757600080fd5b8101908080519060200190929190505050506000614cda858430600f60008a815260200190815260200160002054615364565b9050614d036001600f600088815260200190815260200160002054613e1190919063ffffffff16565b600f600087815260200190815260200160002081905550614d2485826153de565b9150509392505050565b6000614d4f8473ffffffffffffffffffffffffffffffffffffffff16615417565b614d5c5760019050614f6b565b6060614ef263150b7a0260e01b614d71613491565b888787604051602401808573ffffffffffffffffffffffffffffffffffffffff1673ffffffffffffffffffffffffffffffffffffffff1681526020018473ffffffffffffffffffffffffffffffffffffffff1673ffffffffffffffffffffffffffffffffffffffff16815260200183815260200180602001828103825283818151815260200191508051906020019080838360005b83811015614e21578082015181840152602081019050614e06565b50505050905090810190601f168015614e4e5780820380516001836020036101000a031916815260200191505b5095505050505050604051602081830303815290604052907bffffffffffffffffffffffffffffffffffffffffffffffffffffffff19166020820180517bffffffffffffffffffffffffffffffffffffffffffffffffffffffff8381831617835250505050604051806060016040528060328152602001615894603291398773ffffffffffffffffffffffffffffffffffffffff1661542a9092919063ffffffff16565b90506000818060200190516020811015614f0b57600080fd5b8101908080519060200190929190505050905063150b7a0260e01b7bffffffffffffffffffffffffffffffffffffffffffffffffffffffff1916817bffffffffffffffffffffffffffffffffffffffffffffffffffffffff191614925050505b949350505050565b600080836001016000848152602001908152602001600020541415905092915050565b614fa1838383615442565b505050565b600080836001016000848152602001908152602001600020549050600081146150825760006001820390506000600186600001805490500390506000866000018281548110614ff157fe5b906000526020600020015490508087600001848154811061500e57fe5b906000526020600020018190555060018301876001016000838152602001908152602001600020819055508660000180548061504657fe5b60019003818190600052602060002001600090559055866001016000878152602001908152602001600020600090556001945050505050615088565b60009150505b92915050565b600061509a83836149da565b6150f35782600001829080600181540180825580915050600190039060005260206000200160009091909190915055826000018054905083600101600084815260200190815260200160002081905550600190506150f8565b600090505b92915050565b60008084600101600085815260200190815260200160002054905060008114156151a5578460000160405180604001604052808681526020018581525090806001815401808255809150506001900390600052602060002090600202016000909190919091506000820151816000015560208201518160010155505084600001805490508560010160008681526020019081526020016000208190555060019150506151d3565b828560000160018303815481106151b857fe5b90600052602060002090600202016001018190555060009150505b9392505050565b600080836001016000848152602001908152602001600020549050600081146152e7576000600182039050600060018660000180549050039050600086600001828154811061522557fe5b906000526020600020906002020190508087600001848154811061524557fe5b906000526020600020906002020160008201548160000155600182015481600101559050506001830187600101600083600001548152602001908152602001600020819055508660000180548061529857fe5b60019003818190600052602060002090600202016000808201600090556001820160009055505090558660010160008781526020019081526020016000206000905560019450505050506152ed565b60009150505b92915050565b6152fd8383613ea7565b61530a6000848484614d2e565b61535f576040517f08c379a00000000000000000000000000000000000000000000000000000000081526004018080602001828103825260328152602001806158946032913960400191505060405180910390fd5b505050565b600084848484604051602001808581526020018481526020018373ffffffffffffffffffffffffffffffffffffffff1673ffffffffffffffffffffffffffffffffffffffff1681526020018281526020019450505050506040516020818303038152906040528051906020012060001c9050949350505050565b60008282604051602001808381526020018281526020019250505060405160208183030381529060405280519060200120905092915050565b600080823b905060008111915050919050565b606061543984846000856154b0565b90509392505050565b61544d838383615659565b615455611df4565b156154ab576040517f08c379a000000000000000000000000000000000000000000000000000000000815260040180806020018281038252602b81526020018061583a602b913960400191505060405180910390fd5b505050565b60608247101561550b576040517f08c379a00000000000000000000000000000000000000000000000000000000081526004018080602001828103825260268152602001806159796026913960400191505060405180910390fd5b61551485615417565b615586576040517f08c379a000000000000000000000000000000000000000000000000000000000815260040180806020018281038252601d8152602001807f416464726573733a2063616c6c20746f206e6f6e2d636f6e747261637400000081525060200191505060405180910390fd5b600060608673ffffffffffffffffffffffffffffffffffffffff1685876040518082805190602001908083835b602083106155d657805182526020820191506020810190506020830392506155b3565b6001836020036101000a03801982511681845116808217855250505050505090500191505060006040518083038185875af1925050503d8060008114615638576040519150601f19603f3d011682016040523d82523d6000602084013e61563d565b606091505b509150915061564d82828661565e565b92505050949350505050565b505050565b6060831561566e57829050615723565b6000835111156156815782518084602001fd5b816040517f08c379a00000000000000000000000000000000000000000000000000000000081526004018080602001828103825283818151815260200191508051906020019080838360005b838110156156e85780820151818401526020810190506156cd565b50505050905090810190601f1680156157155780820380516001836020036101000a031916815260200191505b509250505060405180910390fd5b9392505050565b50805460018160011615610100020316600290046000825580601f10615750575061576f565b601f01602090049060005260206000209081019061576e91906157f2565b5b50565b828054600181600116156101000203166002900490600052602060002090601f016020900481019282601f106157b357805160ff19168380011785556157e1565b828001600101855582156157e1579182015b828111156157e05782518255916020019190600101906157c5565b5b5090506157ee91906157f2565b5090565b61581491905b808211156158105760008160009055506001016157f8565b5090565b9056fe456e756d657261626c655365743a20696e646578206f7574206f6620626f756e64734552433732315061757361626c653a20746f6b656e207472616e73666572207768696c6520706175736564416363657373436f6e74726f6c3a2073656e646572206d75737420626520616e2061646d696e20746f206772616e744552433732313a207472616e7366657220746f206e6f6e20455243373231526563656976657220696d706c656d656e7465724f776e61626c653a206e6577206f776e657220697320746865207a65726f20616464726573734552433732315072657365744d696e7465725061757365724175746f49643a206d75737420686176652070617573657220726f6c6520746f2070617573654552433732313a207472616e7366657220746f20746865207a65726f20616464726573734e6f7420656e6f756768204c494e4b202d2066696c6c20636f6e7472616374207769746820666175636574416464726573733a20696e73756666696369656e742062616c616e636520666f722063616c6c4f6e6c7920746865204f776e65722063616e20776174657220612043727970744f72636869642e4552433732313a206f70657261746f7220717565727920666f72206e6f6e6578697374656e7420746f6b656e416363657373436f6e74726f6c3a2073656e646572206d75737420626520616e2061646d696e20746f207265766f6b654552433732313a20617070726f76652063616c6c6572206973206e6f74206f776e6572206e6f7220617070726f76656420666f7220616c6c4552433732313a2062616c616e636520717565727920666f7220746865207a65726f20616464726573734552433732313a206f776e657220717565727920666f72206e6f6e6578697374656e7420746f6b656e45746865722076616c75652073656e742069732062656c6f7720746865207072696365456e756d657261626c654d61703a20696e646578206f7574206f6620626f756e6473536166654d6174683a206d756c7469706c69636174696f6e206f766572666c6f774552433732313a20617070726f76656420717565727920666f72206e6f6e6578697374656e7420746f6b656e4552433732313a207472616e73666572206f6620746f6b656e2074686174206973206e6f74206f776e596f752063616e20706c616e74206d696e696d756d20312c206d6178696d756d2032302043727970744f7263686964734552433732313a20617070726f76616c20746f2063757272656e74206f776e6572446561642043727970744f7263686964732063616e6e6f74206265207472616e736665727265644552433732313a207472616e736665722063616c6c6572206973206e6f74206f776e6572206e6f7220617070726f7665644f6e6c7920746865204f776e65722063616e20636f6d706f737420612043727970744f72636869642e4552433732315072657365744d696e7465725061757365724175746f49643a206d7573742068617665206d696e74657220726f6c6520746f206d696e744552433732314275726e61626c653a2063616c6c6572206973206e6f74206f776e6572206e6f7220617070726f7665644552433732315072657365744d696e7465725061757365724175746f49643a206d75737420686176652070617573657220726f6c6520746f20756e7061757365416363657373436f6e74726f6c3a2063616e206f6e6c792072656e6f756e636520726f6c657320666f722073656c66a26469706673582212203ec5aa0e50a8815de8b7e692eab03446069661972ff4b556921b99813b9eff7a64736f6c63430006060033516d504e6877437336733547516a6e706466314e344c725978325637323441504e625a504859554a376265615347516d63386e42706564774a3479436f793132396170715237644e75393236716d7957634d3478527472647465724a516d51577431487736647771543368334c6845395a69325a676263794c43575a79316e48456562377372444b7250516d5666566f313565434163674661424846785a326d6e38627a79714a34465273434b4a754b546e424763597638516d553758344470794a64667455676f4c35534d7179426a59627a3771314a533361754261544551556a39376a42516d6347734a39384b4355753332597a746d547a464b56564e3664614d6638733359764d4348364d435a7662784b516d6574554755526d5054464d3152717765505275447654613952726f705675374b654d523175506d7146334a48516d516d68395a53726e55534c6768694d7a4a7134734b714432646952486f4d503668367674366d724351677678516d557831547336563344676134666866656f366a326252736147446d443856394b4e3547546e34766d62573745516d6352585034376f76394b6b4145574a575756416a42475050464a5542377462546771526876736e3674647366",
  "devdoc": {
    "methods": {
      "approve(address,uint256)": {
        "details": "See {IERC721-approve}."
      },
      "balanceOf(address)": {
        "details": "See {IERC721-balanceOf}."
      },
      "baseURI()": {
        "details": "Returns the base URI set via {_setBaseURI}. This will be automatically added as a prefix in {tokenURI} to each token's URI, or to the token ID if no specific URI is set for that token ID."
      },
      "burn(uint256)": {
        "details": "Burns `tokenId`. See {ERC721-_burn}.     * Requirements:     * - The caller must own `tokenId` or be an approved operator."
      },
      "getApproved(uint256)": {
        "details": "See {IERC721-getApproved}."
      },
      "getRoleAdmin(bytes32)": {
        "details": "Returns the admin role that controls `role`. See {grantRole} and {revokeRole}.     * To change a role's admin, use {_setRoleAdmin}."
      },
      "getRoleMember(bytes32,uint256)": {
        "details": "Returns one of the accounts that have `role`. `index` must be a value between 0 and {getRoleMemberCount}, non-inclusive.     * Role bearers are not sorted in any particular way, and their ordering may change at any point.     * WARNING: When using {getRoleMember} and {getRoleMemberCount}, make sure you perform all queries on the same block. See the following https://forum.openzeppelin.com/t/iterating-over-elements-on-enumerableset-in-openzeppelin-contracts/2296[forum post] for more information."
      },
      "getRoleMemberCount(bytes32)": {
        "details": "Returns the number of accounts that have `role`. Can be used together with {getRoleMember} to enumerate all bearers of a role."
      },
      "grantRole(bytes32,address)": {
        "details": "Grants `role` to `account`.     * If `account` had not been already granted `role`, emits a {RoleGranted} event.     * Requirements:     * - the caller must have ``role``'s admin role."
      },
      "hasRole(bytes32,address)": {
        "details": "Returns `true` if `account` has been granted `role`."
      },
      "isApprovedForAll(address,address)": {
        "details": "See {IERC721-isApprovedForAll}."
      },
      "mint(address)": {
        "details": "Creates a new token for `to`. Its token ID will be automatically assigned (and available on the emitted {IERC721-Transfer} event), and the token URI autogenerated based on the base URI passed at construction.     * See {ERC721-_mint}.     * Requirements:     * - the caller must have the `MINTER_ROLE`."
      },
      "name()": {
        "details": "See {IERC721Metadata-name}."
      },
      "owner()": {
        "details": "Returns the address of the current owner."
      },
      "ownerOf(uint256)": {
        "details": "See {IERC721-ownerOf}."
      },
      "pause()": {
        "details": "Pauses all token transfers.     * See {ERC721Pausable} and {Pausable-_pause}.     * Requirements:     * - the caller must have the `PAUSER_ROLE`."
      },
      "paused()": {
        "details": "Returns true if the contract is paused, and false otherwise."
      },
      "renounceOwnership()": {
        "details": "Leaves the contract without owner. It will not be possible to call `onlyOwner` functions anymore. Can only be called by the current owner.     * NOTE: Renouncing ownership will leave the contract without an owner, thereby removing any functionality that is only available to the owner."
      },
      "renounceRole(bytes32,address)": {
        "details": "Revokes `role` from the calling account.     * Roles are often managed via {grantRole} and {revokeRole}: this function's purpose is to provide a mechanism for accounts to lose their privileges if they are compromised (such as when a trusted device is misplaced).     * If the calling account had been granted `role`, emits a {RoleRevoked} event.     * Requirements:     * - the caller must be `account`."
      },
      "revokeRole(bytes32,address)": {
        "details": "Revokes `role` from `account`.     * If `account` had been granted `role`, emits a {RoleRevoked} event.     * Requirements:     * - the caller must have ``role``'s admin role."
      },
      "safeTransferFrom(address,address,uint256)": {
        "details": "See {IERC721-safeTransferFrom}."
      },
      "safeTransferFrom(address,address,uint256,bytes)": {
        "details": "See {IERC721-safeTransferFrom}."
      },
      "setApprovalForAll(address,bool)": {
        "details": "See {IERC721-setApprovalForAll}."
      },
      "supportsInterface(bytes4)": {
        "details": "See {IERC165-supportsInterface}.     * Time complexity O(1), guaranteed to always use less than 30 000 gas."
      },
      "symbol()": {
        "details": "See {IERC721Metadata-symbol}."
      },
      "tokenByIndex(uint256)": {
        "details": "See {IERC721Enumerable-tokenByIndex}."
      },
      "tokenOfOwnerByIndex(address,uint256)": {
        "details": "See {IERC721Enumerable-tokenOfOwnerByIndex}."
      },
      "totalSupply()": {
        "details": "See {IERC721Enumerable-totalSupply}."
      },
      "transferFrom(address,address,uint256)": {
        "details": "See {IERC721-transferFrom}."
      },
      "transferOwnership(address)": {
        "details": "Transfers ownership of the contract to a new account (`newOwner`). Can only be called by the current owner."
      },
      "unpause()": {
        "details": "Unpauses all token transfers.     * See {ERC721Pausable} and {Pausable-_unpause}.     * Requirements:     * - the caller must have the `PAUSER_ROLE`."
      }
    }
  },
  "userdoc": {
    "methods": {}
  },
  "storageLayout": {
    "storage": [
      {
        "astId": 429,
        "contract": "contracts/CryptOrchidERC721/CryptOrchidERC721.sol:CryptOrchidERC721",
        "label": "_roles",
        "offset": 0,
        "slot": "0",
        "type": "t_mapping(t_bytes32,t_struct(RoleData)425_storage)"
      },
      {
        "astId": 812,
        "contract": "contracts/CryptOrchidERC721/CryptOrchidERC721.sol:CryptOrchidERC721",
        "label": "_supportedInterfaces",
        "offset": 0,
        "slot": "1",
        "type": "t_mapping(t_bytes4,t_bool)"
      },
      {
        "astId": 1421,
        "contract": "contracts/CryptOrchidERC721/CryptOrchidERC721.sol:CryptOrchidERC721",
        "label": "_holderTokens",
        "offset": 0,
        "slot": "2",
        "type": "t_mapping(t_address,t_struct(UintSet)3904_storage)"
      },
      {
        "astId": 1423,
        "contract": "contracts/CryptOrchidERC721/CryptOrchidERC721.sol:CryptOrchidERC721",
        "label": "_tokenOwners",
        "offset": 0,
        "slot": "3",
        "type": "t_struct(UintToAddressMap)3281_storage"
      },
      {
        "astId": 1427,
        "contract": "contracts/CryptOrchidERC721/CryptOrchidERC721.sol:CryptOrchidERC721",
        "label": "_tokenApprovals",
        "offset": 0,
        "slot": "5",
        "type": "t_mapping(t_uint256,t_address)"
      },
      {
        "astId": 1433,
        "contract": "contracts/CryptOrchidERC721/CryptOrchidERC721.sol:CryptOrchidERC721",
        "label": "_operatorApprovals",
        "offset": 0,
        "slot": "6",
        "type": "t_mapping(t_address,t_mapping(t_address,t_bool))"
      },
      {
        "astId": 1435,
        "contract": "contracts/CryptOrchidERC721/CryptOrchidERC721.sol:CryptOrchidERC721",
        "label": "_name",
        "offset": 0,
        "slot": "7",
        "type": "t_string_storage"
      },
      {
        "astId": 1437,
        "contract": "contracts/CryptOrchidERC721/CryptOrchidERC721.sol:CryptOrchidERC721",
        "label": "_symbol",
        "offset": 0,
        "slot": "8",
        "type": "t_string_storage"
      },
      {
        "astId": 1441,
        "contract": "contracts/CryptOrchidERC721/CryptOrchidERC721.sol:CryptOrchidERC721",
        "label": "_tokenURIs",
        "offset": 0,
        "slot": "9",
        "type": "t_mapping(t_uint256,t_string_storage)"
      },
      {
        "astId": 1443,
        "contract": "contracts/CryptOrchidERC721/CryptOrchidERC721.sol:CryptOrchidERC721",
        "label": "_baseURI",
        "offset": 0,
        "slot": "10",
        "type": "t_string_storage"
      },
      {
        "astId": 4017,
        "contract": "contracts/CryptOrchidERC721/CryptOrchidERC721.sol:CryptOrchidERC721",
        "label": "_paused",
        "offset": 0,
        "slot": "11",
        "type": "t_bool"
      },
      {
        "astId": 1254,
        "contract": "contracts/CryptOrchidERC721/CryptOrchidERC721.sol:CryptOrchidERC721",
        "label": "_tokenIdTracker",
        "offset": 0,
        "slot": "12",
        "type": "t_struct(Counter)2907_storage"
      },
      {
        "astId": 4189,
        "contract": "contracts/CryptOrchidERC721/CryptOrchidERC721.sol:CryptOrchidERC721",
        "label": "waterLevel",
        "offset": 0,
        "slot": "13",
        "type": "t_mapping(t_uint256,t_uint256)"
      },
      {
        "astId": 697,
        "contract": "contracts/CryptOrchidERC721/CryptOrchidERC721.sol:CryptOrchidERC721",
        "label": "_owner",
        "offset": 0,
        "slot": "14",
        "type": "t_address"
      },
      {
        "astId": 81,
        "contract": "contracts/CryptOrchidERC721/CryptOrchidERC721.sol:CryptOrchidERC721",
        "label": "nonces",
        "offset": 0,
        "slot": "15",
        "type": "t_mapping(t_bytes32,t_uint256)"
      },
      {
        "astId": 4238,
        "contract": "contracts/CryptOrchidERC721/CryptOrchidERC721.sol:CryptOrchidERC721",
        "label": "limits",
        "offset": 0,
        "slot": "16",
        "type": "t_array(t_uint16)10_storage"
      },
      {
        "astId": 4253,
        "contract": "contracts/CryptOrchidERC721/CryptOrchidERC721.sol:CryptOrchidERC721",
        "label": "genum",
        "offset": 0,
        "slot": "17",
        "type": "t_array(t_string_storage)10_storage"
      },
      {
        "astId": 4268,
        "contract": "contracts/CryptOrchidERC721/CryptOrchidERC721.sol:CryptOrchidERC721",
        "label": "speciesIPFSConstant",
        "offset": 0,
        "slot": "27",
        "type": "t_array(t_string_storage)10_storage"
      },
      {
        "astId": 4271,
        "contract": "contracts/CryptOrchidERC721/CryptOrchidERC721.sol:CryptOrchidERC721",
        "label": "cryptorchids",
        "offset": 0,
        "slot": "37",
        "type": "t_array(t_struct(CryptOrchid)4214_storage)dyn_storage"
      },
      {
        "astId": 4273,
        "contract": "contracts/CryptOrchidERC721/CryptOrchidERC721.sol:CryptOrchidERC721",
        "label": "_tokenIds",
        "offset": 0,
        "slot": "38",
        "type": "t_struct(Counter)2907_storage"
      },
      {
        "astId": 4275,
        "contract": "contracts/CryptOrchidERC721/CryptOrchidERC721.sol:CryptOrchidERC721",
        "label": "creator",
        "offset": 0,
        "slot": "39",
        "type": "t_address_payable"
      },
      {
        "astId": 4277,
        "contract": "contracts/CryptOrchidERC721/CryptOrchidERC721.sol:CryptOrchidERC721",
        "label": "keyHash",
        "offset": 0,
        "slot": "40",
        "type": "t_bytes32"
      },
      {
        "astId": 4279,
        "contract": "contracts/CryptOrchidERC721/CryptOrchidERC721.sol:CryptOrchidERC721",
        "label": "vrfFee",
        "offset": 0,
        "slot": "41",
        "type": "t_uint256"
      },
      {
        "astId": 4281,
        "contract": "contracts/CryptOrchidERC721/CryptOrchidERC721.sol:CryptOrchidERC721",
        "label": "randomResult",
        "offset": 0,
        "slot": "42",
        "type": "t_uint256"
      },
      {
        "astId": 4283,
        "contract": "contracts/CryptOrchidERC721/CryptOrchidERC721.sol:CryptOrchidERC721",
        "label": "VRFCoordinator",
        "offset": 0,
        "slot": "43",
        "type": "t_address"
      },
      {
        "astId": 4285,
        "contract": "contracts/CryptOrchidERC721/CryptOrchidERC721.sol:CryptOrchidERC721",
        "label": "LinkToken",
        "offset": 0,
        "slot": "44",
        "type": "t_address"
      },
      {
        "astId": 4307,
        "contract": "contracts/CryptOrchidERC721/CryptOrchidERC721.sol:CryptOrchidERC721",
        "label": "requestToSender",
        "offset": 0,
        "slot": "45",
        "type": "t_mapping(t_bytes32,t_address)"
      },
      {
        "astId": 4311,
        "contract": "contracts/CryptOrchidERC721/CryptOrchidERC721.sol:CryptOrchidERC721",
        "label": "requestToPlantedAt",
        "offset": 0,
        "slot": "46",
        "type": "t_mapping(t_bytes32,t_uint256)"
      },
      {
        "astId": 4315,
        "contract": "contracts/CryptOrchidERC721/CryptOrchidERC721.sol:CryptOrchidERC721",
        "label": "speciesIPFS",
        "offset": 0,
        "slot": "47",
        "type": "t_mapping(t_bytes32,t_string_storage)"
      }
    ],
    "types": {
      "t_address": {
        "encoding": "inplace",
        "label": "address",
        "numberOfBytes": "20"
      },
      "t_address_payable": {
        "encoding": "inplace",
        "label": "address payable",
        "numberOfBytes": "20"
      },
      "t_array(t_bytes32)dyn_storage": {
        "base": "t_bytes32",
        "encoding": "dynamic_array",
        "label": "bytes32[]",
        "numberOfBytes": "32"
      },
      "t_array(t_string_storage)10_storage": {
        "base": "t_string_storage",
        "encoding": "inplace",
        "label": "string[10]",
        "numberOfBytes": "320"
      },
      "t_array(t_struct(CryptOrchid)4214_storage)dyn_storage": {
        "base": "t_struct(CryptOrchid)4214_storage",
        "encoding": "dynamic_array",
        "label": "struct CryptOrchidERC721.CryptOrchid[]",
        "numberOfBytes": "32"
      },
      "t_array(t_struct(MapEntry)2955_storage)dyn_storage": {
        "base": "t_struct(MapEntry)2955_storage",
        "encoding": "dynamic_array",
        "label": "struct EnumerableMap.MapEntry[]",
        "numberOfBytes": "32"
      },
      "t_array(t_uint16)10_storage": {
        "base": "t_uint16",
        "encoding": "inplace",
        "label": "uint16[10]",
        "numberOfBytes": "32"
      },
      "t_bool": {
        "encoding": "inplace",
        "label": "bool",
        "numberOfBytes": "1"
      },
      "t_bytes32": {
        "encoding": "inplace",
        "label": "bytes32",
        "numberOfBytes": "32"
      },
      "t_bytes4": {
        "encoding": "inplace",
        "label": "bytes4",
        "numberOfBytes": "4"
      },
      "t_mapping(t_address,t_bool)": {
        "encoding": "mapping",
        "key": "t_address",
        "label": "mapping(address => bool)",
        "numberOfBytes": "32",
        "value": "t_bool"
      },
      "t_mapping(t_address,t_mapping(t_address,t_bool))": {
        "encoding": "mapping",
        "key": "t_address",
        "label": "mapping(address => mapping(address => bool))",
        "numberOfBytes": "32",
        "value": "t_mapping(t_address,t_bool)"
      },
      "t_mapping(t_address,t_struct(UintSet)3904_storage)": {
        "encoding": "mapping",
        "key": "t_address",
        "label": "mapping(address => struct EnumerableSet.UintSet)",
        "numberOfBytes": "32",
        "value": "t_struct(UintSet)3904_storage"
      },
      "t_mapping(t_bytes32,t_address)": {
        "encoding": "mapping",
        "key": "t_bytes32",
        "label": "mapping(bytes32 => address)",
        "numberOfBytes": "32",
        "value": "t_address"
      },
      "t_mapping(t_bytes32,t_string_storage)": {
        "encoding": "mapping",
        "key": "t_bytes32",
        "label": "mapping(bytes32 => string)",
        "numberOfBytes": "32",
        "value": "t_string_storage"
      },
      "t_mapping(t_bytes32,t_struct(RoleData)425_storage)": {
        "encoding": "mapping",
        "key": "t_bytes32",
        "label": "mapping(bytes32 => struct AccessControl.RoleData)",
        "numberOfBytes": "32",
        "value": "t_struct(RoleData)425_storage"
      },
      "t_mapping(t_bytes32,t_uint256)": {
        "encoding": "mapping",
        "key": "t_bytes32",
        "label": "mapping(bytes32 => uint256)",
        "numberOfBytes": "32",
        "value": "t_uint256"
      },
      "t_mapping(t_bytes4,t_bool)": {
        "encoding": "mapping",
        "key": "t_bytes4",
        "label": "mapping(bytes4 => bool)",
        "numberOfBytes": "32",
        "value": "t_bool"
      },
      "t_mapping(t_uint256,t_address)": {
        "encoding": "mapping",
        "key": "t_uint256",
        "label": "mapping(uint256 => address)",
        "numberOfBytes": "32",
        "value": "t_address"
      },
      "t_mapping(t_uint256,t_string_storage)": {
        "encoding": "mapping",
        "key": "t_uint256",
        "label": "mapping(uint256 => string)",
        "numberOfBytes": "32",
        "value": "t_string_storage"
      },
      "t_mapping(t_uint256,t_uint256)": {
        "encoding": "mapping",
        "key": "t_uint256",
        "label": "mapping(uint256 => uint256)",
        "numberOfBytes": "32",
        "value": "t_uint256"
      },
      "t_string_storage": {
        "encoding": "bytes",
        "label": "string",
        "numberOfBytes": "32"
      },
      "t_struct(AddressSet)3783_storage": {
        "encoding": "inplace",
        "label": "struct EnumerableSet.AddressSet",
        "members": [
          {
            "astId": 3782,
            "contract": "contracts/CryptOrchidERC721/CryptOrchidERC721.sol:CryptOrchidERC721",
            "label": "_inner",
            "offset": 0,
            "slot": "0",
            "type": "t_struct(Set)3518_storage"
          }
        ],
        "numberOfBytes": "64"
      },
      "t_struct(Counter)2907_storage": {
        "encoding": "inplace",
        "label": "struct Counters.Counter",
        "members": [
          {
            "astId": 2906,
            "contract": "contracts/CryptOrchidERC721/CryptOrchidERC721.sol:CryptOrchidERC721",
            "label": "_value",
            "offset": 0,
            "slot": "0",
            "type": "t_uint256"
          }
        ],
        "numberOfBytes": "32"
      },
      "t_struct(CryptOrchid)4214_storage": {
        "encoding": "inplace",
        "label": "struct CryptOrchidERC721.CryptOrchid",
        "members": [
          {
            "astId": 4211,
            "contract": "contracts/CryptOrchidERC721/CryptOrchidERC721.sol:CryptOrchidERC721",
            "label": "species",
            "offset": 0,
            "slot": "0",
            "type": "t_string_storage"
          },
          {
            "astId": 4213,
            "contract": "contracts/CryptOrchidERC721/CryptOrchidERC721.sol:CryptOrchidERC721",
            "label": "plantedAt",
            "offset": 0,
            "slot": "1",
            "type": "t_uint256"
          }
        ],
        "numberOfBytes": "64"
      },
      "t_struct(Map)2963_storage": {
        "encoding": "inplace",
        "label": "struct EnumerableMap.Map",
        "members": [
          {
            "astId": 2958,
            "contract": "contracts/CryptOrchidERC721/CryptOrchidERC721.sol:CryptOrchidERC721",
            "label": "_entries",
            "offset": 0,
            "slot": "0",
            "type": "t_array(t_struct(MapEntry)2955_storage)dyn_storage"
          },
          {
            "astId": 2962,
            "contract": "contracts/CryptOrchidERC721/CryptOrchidERC721.sol:CryptOrchidERC721",
            "label": "_indexes",
            "offset": 0,
            "slot": "1",
            "type": "t_mapping(t_bytes32,t_uint256)"
          }
        ],
        "numberOfBytes": "64"
      },
      "t_struct(MapEntry)2955_storage": {
        "encoding": "inplace",
        "label": "struct EnumerableMap.MapEntry",
        "members": [
          {
            "astId": 2952,
            "contract": "contracts/CryptOrchidERC721/CryptOrchidERC721.sol:CryptOrchidERC721",
            "label": "_key",
            "offset": 0,
            "slot": "0",
            "type": "t_bytes32"
          },
          {
            "astId": 2954,
            "contract": "contracts/CryptOrchidERC721/CryptOrchidERC721.sol:CryptOrchidERC721",
            "label": "_value",
            "offset": 0,
            "slot": "1",
            "type": "t_bytes32"
          }
        ],
        "numberOfBytes": "64"
      },
      "t_struct(RoleData)425_storage": {
        "encoding": "inplace",
        "label": "struct AccessControl.RoleData",
        "members": [
          {
            "astId": 422,
            "contract": "contracts/CryptOrchidERC721/CryptOrchidERC721.sol:CryptOrchidERC721",
            "label": "members",
            "offset": 0,
            "slot": "0",
            "type": "t_struct(AddressSet)3783_storage"
          },
          {
            "astId": 424,
            "contract": "contracts/CryptOrchidERC721/CryptOrchidERC721.sol:CryptOrchidERC721",
            "label": "adminRole",
            "offset": 0,
            "slot": "2",
            "type": "t_bytes32"
          }
        ],
        "numberOfBytes": "96"
      },
      "t_struct(Set)3518_storage": {
        "encoding": "inplace",
        "label": "struct EnumerableSet.Set",
        "members": [
          {
            "astId": 3513,
            "contract": "contracts/CryptOrchidERC721/CryptOrchidERC721.sol:CryptOrchidERC721",
            "label": "_values",
            "offset": 0,
            "slot": "0",
            "type": "t_array(t_bytes32)dyn_storage"
          },
          {
            "astId": 3517,
            "contract": "contracts/CryptOrchidERC721/CryptOrchidERC721.sol:CryptOrchidERC721",
            "label": "_indexes",
            "offset": 0,
            "slot": "1",
            "type": "t_mapping(t_bytes32,t_uint256)"
          }
        ],
        "numberOfBytes": "64"
      },
      "t_struct(UintSet)3904_storage": {
        "encoding": "inplace",
        "label": "struct EnumerableSet.UintSet",
        "members": [
          {
            "astId": 3903,
            "contract": "contracts/CryptOrchidERC721/CryptOrchidERC721.sol:CryptOrchidERC721",
            "label": "_inner",
            "offset": 0,
            "slot": "0",
            "type": "t_struct(Set)3518_storage"
          }
        ],
        "numberOfBytes": "64"
      },
      "t_struct(UintToAddressMap)3281_storage": {
        "encoding": "inplace",
        "label": "struct EnumerableMap.UintToAddressMap",
        "members": [
          {
            "astId": 3280,
            "contract": "contracts/CryptOrchidERC721/CryptOrchidERC721.sol:CryptOrchidERC721",
            "label": "_inner",
            "offset": 0,
            "slot": "0",
            "type": "t_struct(Map)2963_storage"
          }
        ],
        "numberOfBytes": "64"
      },
      "t_uint16": {
        "encoding": "inplace",
        "label": "uint16",
        "numberOfBytes": "2"
      },
      "t_uint256": {
        "encoding": "inplace",
        "label": "uint256",
        "numberOfBytes": "32"
      }
    }
  }
}